{
	"contracts/17_Library.sol": {
		"Strings": {
			"abi": [
				{
					"inputs": [
						{
							"internalType": "uint256",
							"name": "value",
							"type": "uint256"
						},
						{
							"internalType": "uint256",
							"name": "length",
							"type": "uint256"
						}
					],
					"name": "toHexString",
					"outputs": [
						{
							"internalType": "string",
							"name": "",
							"type": "string"
						}
					],
					"stateMutability": "pure",
					"type": "function"
				},
				{
					"inputs": [
						{
							"internalType": "uint256",
							"name": "value",
							"type": "uint256"
						}
					],
					"name": "toHexString",
					"outputs": [
						{
							"internalType": "string",
							"name": "",
							"type": "string"
						}
					],
					"stateMutability": "pure",
					"type": "function"
				},
				{
					"inputs": [
						{
							"internalType": "uint256",
							"name": "value",
							"type": "uint256"
						}
					],
					"name": "toString",
					"outputs": [
						{
							"internalType": "string",
							"name": "",
							"type": "string"
						}
					],
					"stateMutability": "pure",
					"type": "function"
				}
			],
			"devdoc": {
				"kind": "dev",
				"methods": {
					"toHexString(uint256)": {
						"details": "Converts a `uint256` to its ASCII `string` hexadecimal representation."
					},
					"toHexString(uint256,uint256)": {
						"details": "Converts a `uint256` to its ASCII `string` hexadecimal representation with fixed length."
					},
					"toString(uint256)": {
						"details": "Converts a `uint256` to its ASCII `string` decimal representation."
					}
				},
				"version": 1
			},
			"evm": {
				"assembly": "    /* \"contracts/17_Library.sol\":541:2420  library Strings {... */\n  dataSize(sub_0)\n  dataOffset(sub_0)\n  0x0b\n  dup3\n  dup3\n  dup3\n  codecopy\n  dup1\n  mload\n  0x00\n  byte\n  0x73\n  eq\n  tag_1\n  jumpi\n  mstore(0x00, 0x4e487b7100000000000000000000000000000000000000000000000000000000)\n  mstore(0x04, 0x00)\n  revert(0x00, 0x24)\ntag_1:\n  mstore(0x00, address)\n  0x73\n  dup2\n  mstore8\n  dup3\n  dup2\n  return\nstop\n\nsub_0: assembly {\n        /* \"contracts/17_Library.sol\":541:2420  library Strings {... */\n      eq(address, deployTimeAddress())\n      mstore(0x40, 0x80)\n      jumpi(tag_1, lt(calldatasize, 0x04))\n      shr(0xe0, calldataload(0x00))\n      dup1\n      0x63e1cbea\n      eq\n      tag_2\n      jumpi\n      dup1\n      0x6900a3ae\n      eq\n      tag_3\n      jumpi\n      dup1\n      0x8fba8d5c\n      eq\n      tag_4\n      jumpi\n    tag_1:\n      0x00\n      dup1\n      revert\n        /* \"contracts/17_Library.sol\":1979:2418  function toHexString(uint256 value, uint256 length) public pure returns (string memory) {... */\n    tag_2:\n      tag_5\n      0x04\n      dup1\n      calldatasize\n      sub\n      dup2\n      add\n      swap1\n      tag_6\n      swap2\n      swap1\n      tag_7\n      jump\t// in\n    tag_6:\n      tag_8\n      jump\t// in\n    tag_5:\n      mload(0x40)\n      tag_9\n      swap2\n      swap1\n      tag_10\n      jump\t// in\n    tag_9:\n      mload(0x40)\n      dup1\n      swap2\n      sub\n      swap1\n      return\n        /* \"contracts/17_Library.sol\":723:1424  function toString(uint256 value) public pure returns (string memory) {... */\n    tag_3:\n      tag_11\n      0x04\n      dup1\n      calldatasize\n      sub\n      dup2\n      add\n      swap1\n      tag_12\n      swap2\n      swap1\n      tag_13\n      jump\t// in\n    tag_12:\n      tag_14\n      jump\t// in\n    tag_11:\n      mload(0x40)\n      tag_15\n      swap2\n      swap1\n      tag_10\n      jump\t// in\n    tag_15:\n      mload(0x40)\n      dup1\n      swap2\n      sub\n      swap1\n      return\n        /* \"contracts/17_Library.sol\":1529:1856  function toHexString(uint256 value) public pure returns (string memory) {... */\n    tag_4:\n      tag_16\n      0x04\n      dup1\n      calldatasize\n      sub\n      dup2\n      add\n      swap1\n      tag_17\n      swap2\n      swap1\n      tag_13\n      jump\t// in\n    tag_17:\n      tag_18\n      jump\t// in\n    tag_16:\n      mload(0x40)\n      tag_19\n      swap2\n      swap1\n      tag_10\n      jump\t// in\n    tag_19:\n      mload(0x40)\n      dup1\n      swap2\n      sub\n      swap1\n      return\n        /* \"contracts/17_Library.sol\":1979:2418  function toHexString(uint256 value, uint256 length) public pure returns (string memory) {... */\n    tag_8:\n        /* \"contracts/17_Library.sol\":2052:2065  string memory */\n      0x60\n        /* \"contracts/17_Library.sol\":2077:2096  bytes memory buffer */\n      0x00\n        /* \"contracts/17_Library.sol\":2122:2123  2 */\n      0x02\n        /* \"contracts/17_Library.sol\":2113:2119  length */\n      dup4\n        /* \"contracts/17_Library.sol\":2109:2110  2 */\n      0x02\n        /* \"contracts/17_Library.sol\":2109:2119  2 * length */\n      tag_21\n      swap2\n      swap1\n      tag_22\n      jump\t// in\n    tag_21:\n        /* \"contracts/17_Library.sol\":2109:2123  2 * length + 2 */\n      tag_23\n      swap2\n      swap1\n      tag_24\n      jump\t// in\n    tag_23:\n        /* \"contracts/17_Library.sol\":2099:2124  new bytes(2 * length + 2) */\n      0xffffffffffffffff\n      dup2\n      gt\n      iszero\n      tag_25\n      jumpi\n      tag_26\n      tag_27\n      jump\t// in\n    tag_26:\n    tag_25:\n      mload(0x40)\n      swap1\n      dup1\n      dup3\n      mstore\n      dup1\n      0x1f\n      add\n      not(0x1f)\n      and\n      0x20\n      add\n      dup3\n      add\n      0x40\n      mstore\n      dup1\n      iszero\n      tag_28\n      jumpi\n      dup2\n      0x20\n      add\n      0x01\n      dup3\n      mul\n      dup1\n      calldatasize\n      dup4\n      calldatacopy\n      dup1\n      dup3\n      add\n      swap2\n      pop\n      pop\n      swap1\n      pop\n    tag_28:\n      pop\n        /* \"contracts/17_Library.sol\":2077:2124  bytes memory buffer = new bytes(2 * length + 2) */\n      swap1\n      pop\n        /* \"contracts/17_Library.sol\":2134:2149  buffer[0] = \"0\" */\n      0x3000000000000000000000000000000000000000000000000000000000000000\n        /* \"contracts/17_Library.sol\":2134:2140  buffer */\n      dup2\n        /* \"contracts/17_Library.sol\":2141:2142  0 */\n      0x00\n        /* \"contracts/17_Library.sol\":2134:2143  buffer[0] */\n      dup2\n      mload\n      dup2\n      lt\n      tag_29\n      jumpi\n      tag_30\n      tag_31\n      jump\t// in\n    tag_30:\n    tag_29:\n      0x20\n      add\n      add\n        /* \"contracts/17_Library.sol\":2134:2149  buffer[0] = \"0\" */\n      swap1\n      not(0xffffffffffffffffffffffffffffffffffffffffffffffffffffffffffffff)\n      and\n      swap1\n      dup2\n      0x00\n      byte\n      swap1\n      mstore8\n      pop\n        /* \"contracts/17_Library.sol\":2159:2174  buffer[1] = \"x\" */\n      0x7800000000000000000000000000000000000000000000000000000000000000\n        /* \"contracts/17_Library.sol\":2159:2165  buffer */\n      dup2\n        /* \"contracts/17_Library.sol\":2166:2167  1 */\n      0x01\n        /* \"contracts/17_Library.sol\":2159:2168  buffer[1] */\n      dup2\n      mload\n      dup2\n      lt\n      tag_32\n      jumpi\n      tag_33\n      tag_31\n      jump\t// in\n    tag_33:\n    tag_32:\n      0x20\n      add\n      add\n        /* \"contracts/17_Library.sol\":2159:2174  buffer[1] = \"x\" */\n      swap1\n      not(0xffffffffffffffffffffffffffffffffffffffffffffffffffffffffffffff)\n      and\n      swap1\n      dup2\n      0x00\n      byte\n      swap1\n      mstore8\n      pop\n        /* \"contracts/17_Library.sol\":2189:2198  uint256 i */\n      0x00\n        /* \"contracts/17_Library.sol\":2214:2215  1 */\n      0x01\n        /* \"contracts/17_Library.sol\":2205:2211  length */\n      dup5\n        /* \"contracts/17_Library.sol\":2201:2202  2 */\n      0x02\n        /* \"contracts/17_Library.sol\":2201:2211  2 * length */\n      tag_37\n      swap2\n      swap1\n      tag_22\n      jump\t// in\n    tag_37:\n        /* \"contracts/17_Library.sol\":2201:2215  2 * length + 1 */\n      tag_38\n      swap2\n      swap1\n      tag_24\n      jump\t// in\n    tag_38:\n        /* \"contracts/17_Library.sol\":2189:2215  uint256 i = 2 * length + 1 */\n      swap1\n      pop\n        /* \"contracts/17_Library.sol\":2184:2316  for (uint256 i = 2 * length + 1; i > 1; --i) {... */\n    tag_34:\n        /* \"contracts/17_Library.sol\":2221:2222  1 */\n      0x01\n        /* \"contracts/17_Library.sol\":2217:2218  i */\n      dup2\n        /* \"contracts/17_Library.sol\":2217:2222  i > 1 */\n      gt\n        /* \"contracts/17_Library.sol\":2184:2316  for (uint256 i = 2 * length + 1; i > 1; --i) {... */\n      iszero\n      tag_35\n      jumpi\n        /* \"contracts/17_Library.sol\":2255:2267  _HEX_SYMBOLS */\n      0x3031323334353637383961626364656600000000000000000000000000000000\n        /* \"contracts/17_Library.sol\":2276:2279  0xf */\n      0x0f\n        /* \"contracts/17_Library.sol\":2268:2273  value */\n      dup7\n        /* \"contracts/17_Library.sol\":2268:2279  value & 0xf */\n      and\n        /* \"contracts/17_Library.sol\":2255:2280  _HEX_SYMBOLS[value & 0xf] */\n      0x10\n      dup2\n      lt\n      tag_39\n      jumpi\n      tag_40\n      tag_31\n      jump\t// in\n    tag_40:\n    tag_39:\n      byte\n      0xf8\n      shl\n        /* \"contracts/17_Library.sol\":2243:2249  buffer */\n      dup3\n        /* \"contracts/17_Library.sol\":2250:2251  i */\n      dup3\n        /* \"contracts/17_Library.sol\":2243:2252  buffer[i] */\n      dup2\n      mload\n      dup2\n      lt\n      tag_41\n      jumpi\n      tag_42\n      tag_31\n      jump\t// in\n    tag_42:\n    tag_41:\n      0x20\n      add\n      add\n        /* \"contracts/17_Library.sol\":2243:2280  buffer[i] = _HEX_SYMBOLS[value & 0xf] */\n      swap1\n      not(0xffffffffffffffffffffffffffffffffffffffffffffffffffffffffffffff)\n      and\n      swap1\n      dup2\n      0x00\n      byte\n      swap1\n      mstore8\n      pop\n        /* \"contracts/17_Library.sol\":2304:2305  4 */\n      0x04\n        /* \"contracts/17_Library.sol\":2294:2305  value >>= 4 */\n      dup6\n      swap1\n      shr\n      swap5\n      pop\n        /* \"contracts/17_Library.sol\":2224:2227  --i */\n      dup1\n      tag_43\n      swap1\n      tag_44\n      jump\t// in\n    tag_43:\n      swap1\n      pop\n        /* \"contracts/17_Library.sol\":2184:2316  for (uint256 i = 2 * length + 1; i > 1; --i) {... */\n      jump(tag_34)\n    tag_35:\n      pop\n        /* \"contracts/17_Library.sol\":2342:2343  0 */\n      0x00\n        /* \"contracts/17_Library.sol\":2333:2338  value */\n      dup5\n        /* \"contracts/17_Library.sol\":2333:2343  value == 0 */\n      eq\n        /* \"contracts/17_Library.sol\":2325:2380  require(value == 0, \"Strings: hex length insufficient\") */\n      tag_45\n      jumpi\n      mload(0x40)\n      0x08c379a000000000000000000000000000000000000000000000000000000000\n      dup2\n      mstore\n      0x04\n      add\n      tag_46\n      swap1\n      tag_47\n      jump\t// in\n    tag_46:\n      mload(0x40)\n      dup1\n      swap2\n      sub\n      swap1\n      revert\n    tag_45:\n        /* \"contracts/17_Library.sol\":2404:2410  buffer */\n      dup1\n        /* \"contracts/17_Library.sol\":2390:2411  return string(buffer) */\n      swap2\n      pop\n      pop\n        /* \"contracts/17_Library.sol\":1979:2418  function toHexString(uint256 value, uint256 length) public pure returns (string memory) {... */\n      swap3\n      swap2\n      pop\n      pop\n      jump\t// out\n        /* \"contracts/17_Library.sol\":723:1424  function toString(uint256 value) public pure returns (string memory) {... */\n    tag_14:\n        /* \"contracts/17_Library.sol\":777:790  string memory */\n      0x60\n        /* \"contracts/17_Library.sol\":1003:1004  0 */\n      0x00\n        /* \"contracts/17_Library.sol\":994:999  value */\n      dup3\n        /* \"contracts/17_Library.sol\":994:1004  value == 0 */\n      sub\n        /* \"contracts/17_Library.sol\":990:1041  if (value == 0) {... */\n      tag_49\n      jumpi\n        /* \"contracts/17_Library.sol\":1020:1030  return \"0\" */\n      mload(0x40)\n      dup1\n      0x40\n      add\n      0x40\n      mstore\n      dup1\n      0x01\n      dup2\n      mstore\n      0x20\n      add\n      0x3000000000000000000000000000000000000000000000000000000000000000\n      dup2\n      mstore\n      pop\n      swap1\n      pop\n      jump(tag_48)\n        /* \"contracts/17_Library.sol\":990:1041  if (value == 0) {... */\n    tag_49:\n        /* \"contracts/17_Library.sol\":1050:1062  uint256 temp */\n      0x00\n        /* \"contracts/17_Library.sol\":1065:1070  value */\n      dup3\n        /* \"contracts/17_Library.sol\":1050:1070  uint256 temp = value */\n      swap1\n      pop\n        /* \"contracts/17_Library.sol\":1080:1094  uint256 digits */\n      0x00\n        /* \"contracts/17_Library.sol\":1104:1179  while (temp != 0) {... */\n    tag_50:\n        /* \"contracts/17_Library.sol\":1119:1120  0 */\n      0x00\n        /* \"contracts/17_Library.sol\":1111:1115  temp */\n      dup3\n        /* \"contracts/17_Library.sol\":1111:1120  temp != 0 */\n      eq\n        /* \"contracts/17_Library.sol\":1104:1179  while (temp != 0) {... */\n      tag_51\n      jumpi\n        /* \"contracts/17_Library.sol\":1136:1144  digits++ */\n      dup1\n      dup1\n      tag_52\n      swap1\n      tag_53\n      jump\t// in\n    tag_52:\n      swap2\n      pop\n      pop\n        /* \"contracts/17_Library.sol\":1166:1168  10 */\n      0x0a\n        /* \"contracts/17_Library.sol\":1158:1168  temp /= 10 */\n      dup3\n      tag_54\n      swap2\n      swap1\n      tag_55\n      jump\t// in\n    tag_54:\n      swap2\n      pop\n        /* \"contracts/17_Library.sol\":1104:1179  while (temp != 0) {... */\n      jump(tag_50)\n    tag_51:\n        /* \"contracts/17_Library.sol\":1188:1207  bytes memory buffer */\n      0x00\n        /* \"contracts/17_Library.sol\":1220:1226  digits */\n      dup2\n        /* \"contracts/17_Library.sol\":1210:1227  new bytes(digits) */\n      0xffffffffffffffff\n      dup2\n      gt\n      iszero\n      tag_56\n      jumpi\n      tag_57\n      tag_27\n      jump\t// in\n    tag_57:\n    tag_56:\n      mload(0x40)\n      swap1\n      dup1\n      dup3\n      mstore\n      dup1\n      0x1f\n      add\n      not(0x1f)\n      and\n      0x20\n      add\n      dup3\n      add\n      0x40\n      mstore\n      dup1\n      iszero\n      tag_58\n      jumpi\n      dup2\n      0x20\n      add\n      0x01\n      dup3\n      mul\n      dup1\n      calldatasize\n      dup4\n      calldatacopy\n      dup1\n      dup3\n      add\n      swap2\n      pop\n      pop\n      swap1\n      pop\n    tag_58:\n      pop\n        /* \"contracts/17_Library.sol\":1188:1227  bytes memory buffer = new bytes(digits) */\n      swap1\n      pop\n        /* \"contracts/17_Library.sol\":1237:1387  while (value != 0) {... */\n    tag_59:\n        /* \"contracts/17_Library.sol\":1253:1254  0 */\n      0x00\n        /* \"contracts/17_Library.sol\":1244:1249  value */\n      dup6\n        /* \"contracts/17_Library.sol\":1244:1254  value != 0 */\n      eq\n        /* \"contracts/17_Library.sol\":1237:1387  while (value != 0) {... */\n      tag_60\n      jumpi\n        /* \"contracts/17_Library.sol\":1280:1281  1 */\n      0x01\n        /* \"contracts/17_Library.sol\":1270:1281  digits -= 1 */\n      dup3\n      tag_61\n      swap2\n      swap1\n      tag_62\n      jump\t// in\n    tag_61:\n      swap2\n      pop\n        /* \"contracts/17_Library.sol\":1346:1348  10 */\n      0x0a\n        /* \"contracts/17_Library.sol\":1338:1343  value */\n      dup6\n        /* \"contracts/17_Library.sol\":1338:1348  value % 10 */\n      tag_63\n      swap2\n      swap1\n      tag_64\n      jump\t// in\n    tag_63:\n        /* \"contracts/17_Library.sol\":1325:1327  48 */\n      0x30\n        /* \"contracts/17_Library.sol\":1325:1349  48 + uint256(value % 10) */\n      tag_65\n      swap2\n      swap1\n      tag_24\n      jump\t// in\n    tag_65:\n        /* \"contracts/17_Library.sol\":1312:1351  bytes1(uint8(48 + uint256(value % 10))) */\n      0xf8\n      shl\n        /* \"contracts/17_Library.sol\":1295:1301  buffer */\n      dup2\n        /* \"contracts/17_Library.sol\":1302:1308  digits */\n      dup4\n        /* \"contracts/17_Library.sol\":1295:1309  buffer[digits] */\n      dup2\n      mload\n      dup2\n      lt\n      tag_66\n      jumpi\n      tag_67\n      tag_31\n      jump\t// in\n    tag_67:\n    tag_66:\n      0x20\n      add\n      add\n        /* \"contracts/17_Library.sol\":1295:1351  buffer[digits] = bytes1(uint8(48 + uint256(value % 10))) */\n      swap1\n      not(0xffffffffffffffffffffffffffffffffffffffffffffffffffffffffffffff)\n      and\n      swap1\n      dup2\n      0x00\n      byte\n      swap1\n      mstore8\n      pop\n        /* \"contracts/17_Library.sol\":1374:1376  10 */\n      0x0a\n        /* \"contracts/17_Library.sol\":1365:1376  value /= 10 */\n      dup6\n      tag_68\n      swap2\n      swap1\n      tag_55\n      jump\t// in\n    tag_68:\n      swap5\n      pop\n        /* \"contracts/17_Library.sol\":1237:1387  while (value != 0) {... */\n      jump(tag_59)\n    tag_60:\n        /* \"contracts/17_Library.sol\":1410:1416  buffer */\n      dup1\n        /* \"contracts/17_Library.sol\":1396:1417  return string(buffer) */\n      swap4\n      pop\n      pop\n      pop\n      pop\n        /* \"contracts/17_Library.sol\":723:1424  function toString(uint256 value) public pure returns (string memory) {... */\n    tag_48:\n      swap2\n      swap1\n      pop\n      jump\t// out\n        /* \"contracts/17_Library.sol\":1529:1856  function toHexString(uint256 value) public pure returns (string memory) {... */\n    tag_18:\n        /* \"contracts/17_Library.sol\":1586:1599  string memory */\n      0x60\n        /* \"contracts/17_Library.sol\":1624:1625  0 */\n      0x00\n        /* \"contracts/17_Library.sol\":1615:1620  value */\n      dup3\n        /* \"contracts/17_Library.sol\":1615:1625  value == 0 */\n      sub\n        /* \"contracts/17_Library.sol\":1611:1665  if (value == 0) {... */\n      tag_70\n      jumpi\n        /* \"contracts/17_Library.sol\":1641:1654  return \"0x00\" */\n      mload(0x40)\n      dup1\n      0x40\n      add\n      0x40\n      mstore\n      dup1\n      0x04\n      dup2\n      mstore\n      0x20\n      add\n      0x3078303000000000000000000000000000000000000000000000000000000000\n      dup2\n      mstore\n      pop\n      swap1\n      pop\n      jump(tag_69)\n        /* \"contracts/17_Library.sol\":1611:1665  if (value == 0) {... */\n    tag_70:\n        /* \"contracts/17_Library.sol\":1674:1686  uint256 temp */\n      0x00\n        /* \"contracts/17_Library.sol\":1689:1694  value */\n      dup3\n        /* \"contracts/17_Library.sol\":1674:1694  uint256 temp = value */\n      swap1\n      pop\n        /* \"contracts/17_Library.sol\":1704:1718  uint256 length */\n      0x00\n        /* \"contracts/17_Library.sol\":1732:1807  while (temp != 0) {... */\n    tag_71:\n        /* \"contracts/17_Library.sol\":1747:1748  0 */\n      0x00\n        /* \"contracts/17_Library.sol\":1739:1743  temp */\n      dup3\n        /* \"contracts/17_Library.sol\":1739:1748  temp != 0 */\n      eq\n        /* \"contracts/17_Library.sol\":1732:1807  while (temp != 0) {... */\n      tag_72\n      jumpi\n        /* \"contracts/17_Library.sol\":1764:1772  length++ */\n      dup1\n      dup1\n      tag_73\n      swap1\n      tag_53\n      jump\t// in\n    tag_73:\n      swap2\n      pop\n      pop\n        /* \"contracts/17_Library.sol\":1795:1796  8 */\n      0x08\n        /* \"contracts/17_Library.sol\":1786:1796  temp >>= 8 */\n      dup3\n      swap1\n      shr\n      swap2\n      pop\n        /* \"contracts/17_Library.sol\":1732:1807  while (temp != 0) {... */\n      jump(tag_71)\n    tag_72:\n        /* \"contracts/17_Library.sol\":1823:1849  toHexString(value, length) */\n      tag_74\n        /* \"contracts/17_Library.sol\":1835:1840  value */\n      dup5\n        /* \"contracts/17_Library.sol\":1842:1848  length */\n      dup3\n        /* \"contracts/17_Library.sol\":1823:1834  toHexString */\n      tag_8\n        /* \"contracts/17_Library.sol\":1823:1849  toHexString(value, length) */\n      jump\t// in\n    tag_74:\n        /* \"contracts/17_Library.sol\":1816:1849  return toHexString(value, length) */\n      swap3\n      pop\n      pop\n      pop\n        /* \"contracts/17_Library.sol\":1529:1856  function toHexString(uint256 value) public pure returns (string memory) {... */\n    tag_69:\n      swap2\n      swap1\n      pop\n      jump\t// out\n        /* \"#utility.yul\":88:205   */\n    tag_76:\n        /* \"#utility.yul\":197:198   */\n      0x00\n        /* \"#utility.yul\":194:195   */\n      dup1\n        /* \"#utility.yul\":187:199   */\n      revert\n        /* \"#utility.yul\":334:411   */\n    tag_78:\n        /* \"#utility.yul\":371:378   */\n      0x00\n        /* \"#utility.yul\":400:405   */\n      dup2\n        /* \"#utility.yul\":389:405   */\n      swap1\n      pop\n        /* \"#utility.yul\":334:411   */\n      swap2\n      swap1\n      pop\n      jump\t// out\n        /* \"#utility.yul\":417:539   */\n    tag_79:\n        /* \"#utility.yul\":490:514   */\n      tag_97\n        /* \"#utility.yul\":508:513   */\n      dup2\n        /* \"#utility.yul\":490:514   */\n      tag_78\n      jump\t// in\n    tag_97:\n        /* \"#utility.yul\":483:488   */\n      dup2\n        /* \"#utility.yul\":480:515   */\n      eq\n        /* \"#utility.yul\":470:533   */\n      tag_98\n      jumpi\n        /* \"#utility.yul\":529:530   */\n      0x00\n        /* \"#utility.yul\":526:527   */\n      dup1\n        /* \"#utility.yul\":519:531   */\n      revert\n        /* \"#utility.yul\":470:533   */\n    tag_98:\n        /* \"#utility.yul\":417:539   */\n      pop\n      jump\t// out\n        /* \"#utility.yul\":545:684   */\n    tag_80:\n        /* \"#utility.yul\":591:596   */\n      0x00\n        /* \"#utility.yul\":629:635   */\n      dup2\n        /* \"#utility.yul\":616:636   */\n      calldataload\n        /* \"#utility.yul\":607:636   */\n      swap1\n      pop\n        /* \"#utility.yul\":645:678   */\n      tag_100\n        /* \"#utility.yul\":672:677   */\n      dup2\n        /* \"#utility.yul\":645:678   */\n      tag_79\n      jump\t// in\n    tag_100:\n        /* \"#utility.yul\":545:684   */\n      swap3\n      swap2\n      pop\n      pop\n      jump\t// out\n        /* \"#utility.yul\":690:1164   */\n    tag_7:\n        /* \"#utility.yul\":758:764   */\n      0x00\n        /* \"#utility.yul\":766:772   */\n      dup1\n        /* \"#utility.yul\":815:817   */\n      0x40\n        /* \"#utility.yul\":803:812   */\n      dup4\n        /* \"#utility.yul\":794:801   */\n      dup6\n        /* \"#utility.yul\":790:813   */\n      sub\n        /* \"#utility.yul\":786:818   */\n      slt\n        /* \"#utility.yul\":783:902   */\n      iszero\n      tag_102\n      jumpi\n        /* \"#utility.yul\":821:900   */\n      tag_103\n      tag_76\n      jump\t// in\n    tag_103:\n        /* \"#utility.yul\":783:902   */\n    tag_102:\n        /* \"#utility.yul\":941:942   */\n      0x00\n        /* \"#utility.yul\":966:1019   */\n      tag_104\n        /* \"#utility.yul\":1011:1018   */\n      dup6\n        /* \"#utility.yul\":1002:1008   */\n      dup3\n        /* \"#utility.yul\":991:1000   */\n      dup7\n        /* \"#utility.yul\":987:1009   */\n      add\n        /* \"#utility.yul\":966:1019   */\n      tag_80\n      jump\t// in\n    tag_104:\n        /* \"#utility.yul\":956:1019   */\n      swap3\n      pop\n        /* \"#utility.yul\":912:1029   */\n      pop\n        /* \"#utility.yul\":1068:1070   */\n      0x20\n        /* \"#utility.yul\":1094:1147   */\n      tag_105\n        /* \"#utility.yul\":1139:1146   */\n      dup6\n        /* \"#utility.yul\":1130:1136   */\n      dup3\n        /* \"#utility.yul\":1119:1128   */\n      dup7\n        /* \"#utility.yul\":1115:1137   */\n      add\n        /* \"#utility.yul\":1094:1147   */\n      tag_80\n      jump\t// in\n    tag_105:\n        /* \"#utility.yul\":1084:1147   */\n      swap2\n      pop\n        /* \"#utility.yul\":1039:1157   */\n      pop\n        /* \"#utility.yul\":690:1164   */\n      swap3\n      pop\n      swap3\n      swap1\n      pop\n      jump\t// out\n        /* \"#utility.yul\":1170:1269   */\n    tag_81:\n        /* \"#utility.yul\":1222:1228   */\n      0x00\n        /* \"#utility.yul\":1256:1261   */\n      dup2\n        /* \"#utility.yul\":1250:1262   */\n      mload\n        /* \"#utility.yul\":1240:1262   */\n      swap1\n      pop\n        /* \"#utility.yul\":1170:1269   */\n      swap2\n      swap1\n      pop\n      jump\t// out\n        /* \"#utility.yul\":1275:1452   */\n    tag_82:\n        /* \"#utility.yul\":1367:1378   */\n      0x00\n        /* \"#utility.yul\":1401:1407   */\n      dup3\n        /* \"#utility.yul\":1396:1399   */\n      dup3\n        /* \"#utility.yul\":1389:1408   */\n      mstore\n        /* \"#utility.yul\":1441:1445   */\n      0x20\n        /* \"#utility.yul\":1436:1439   */\n      dup3\n        /* \"#utility.yul\":1432:1446   */\n      add\n        /* \"#utility.yul\":1417:1446   */\n      swap1\n      pop\n        /* \"#utility.yul\":1275:1452   */\n      swap3\n      swap2\n      pop\n      pop\n      jump\t// out\n        /* \"#utility.yul\":1458:1706   */\n    tag_83:\n        /* \"#utility.yul\":1540:1541   */\n      0x00\n        /* \"#utility.yul\":1550:1663   */\n    tag_109:\n        /* \"#utility.yul\":1564:1570   */\n      dup4\n        /* \"#utility.yul\":1561:1562   */\n      dup2\n        /* \"#utility.yul\":1558:1571   */\n      lt\n        /* \"#utility.yul\":1550:1663   */\n      iszero\n      tag_111\n      jumpi\n        /* \"#utility.yul\":1649:1650   */\n      dup1\n        /* \"#utility.yul\":1644:1647   */\n      dup3\n        /* \"#utility.yul\":1640:1651   */\n      add\n        /* \"#utility.yul\":1634:1652   */\n      mload\n        /* \"#utility.yul\":1630:1631   */\n      dup2\n        /* \"#utility.yul\":1625:1628   */\n      dup5\n        /* \"#utility.yul\":1621:1632   */\n      add\n        /* \"#utility.yul\":1614:1653   */\n      mstore\n        /* \"#utility.yul\":1586:1588   */\n      0x20\n        /* \"#utility.yul\":1583:1584   */\n      dup2\n        /* \"#utility.yul\":1579:1589   */\n      add\n        /* \"#utility.yul\":1574:1589   */\n      swap1\n      pop\n        /* \"#utility.yul\":1550:1663   */\n      jump(tag_109)\n    tag_111:\n        /* \"#utility.yul\":1697:1698   */\n      0x00\n        /* \"#utility.yul\":1688:1694   */\n      dup5\n        /* \"#utility.yul\":1683:1686   */\n      dup5\n        /* \"#utility.yul\":1679:1695   */\n      add\n        /* \"#utility.yul\":1672:1699   */\n      mstore\n        /* \"#utility.yul\":1520:1706   */\n      pop\n        /* \"#utility.yul\":1458:1706   */\n      pop\n      pop\n      pop\n      jump\t// out\n        /* \"#utility.yul\":1712:1814   */\n    tag_84:\n        /* \"#utility.yul\":1753:1759   */\n      0x00\n        /* \"#utility.yul\":1804:1806   */\n      0x1f\n        /* \"#utility.yul\":1800:1807   */\n      not\n        /* \"#utility.yul\":1795:1797   */\n      0x1f\n        /* \"#utility.yul\":1788:1793   */\n      dup4\n        /* \"#utility.yul\":1784:1798   */\n      add\n        /* \"#utility.yul\":1780:1808   */\n      and\n        /* \"#utility.yul\":1770:1808   */\n      swap1\n      pop\n        /* \"#utility.yul\":1712:1814   */\n      swap2\n      swap1\n      pop\n      jump\t// out\n        /* \"#utility.yul\":1820:2213   */\n    tag_85:\n        /* \"#utility.yul\":1916:1919   */\n      0x00\n        /* \"#utility.yul\":1944:1983   */\n      tag_114\n        /* \"#utility.yul\":1977:1982   */\n      dup3\n        /* \"#utility.yul\":1944:1983   */\n      tag_81\n      jump\t// in\n    tag_114:\n        /* \"#utility.yul\":1999:2078   */\n      tag_115\n        /* \"#utility.yul\":2071:2077   */\n      dup2\n        /* \"#utility.yul\":2066:2069   */\n      dup6\n        /* \"#utility.yul\":1999:2078   */\n      tag_82\n      jump\t// in\n    tag_115:\n        /* \"#utility.yul\":1992:2078   */\n      swap4\n      pop\n        /* \"#utility.yul\":2087:2152   */\n      tag_116\n        /* \"#utility.yul\":2145:2151   */\n      dup2\n        /* \"#utility.yul\":2140:2143   */\n      dup6\n        /* \"#utility.yul\":2133:2137   */\n      0x20\n        /* \"#utility.yul\":2126:2131   */\n      dup7\n        /* \"#utility.yul\":2122:2138   */\n      add\n        /* \"#utility.yul\":2087:2152   */\n      tag_83\n      jump\t// in\n    tag_116:\n        /* \"#utility.yul\":2177:2206   */\n      tag_117\n        /* \"#utility.yul\":2199:2205   */\n      dup2\n        /* \"#utility.yul\":2177:2206   */\n      tag_84\n      jump\t// in\n    tag_117:\n        /* \"#utility.yul\":2172:2175   */\n      dup5\n        /* \"#utility.yul\":2168:2207   */\n      add\n        /* \"#utility.yul\":2161:2207   */\n      swap2\n      pop\n        /* \"#utility.yul\":1920:2213   */\n      pop\n        /* \"#utility.yul\":1820:2213   */\n      swap3\n      swap2\n      pop\n      pop\n      jump\t// out\n        /* \"#utility.yul\":2219:2548   */\n    tag_10:\n        /* \"#utility.yul\":2340:2344   */\n      0x00\n        /* \"#utility.yul\":2378:2380   */\n      0x20\n        /* \"#utility.yul\":2367:2376   */\n      dup3\n        /* \"#utility.yul\":2363:2381   */\n      add\n        /* \"#utility.yul\":2355:2381   */\n      swap1\n      pop\n        /* \"#utility.yul\":2427:2436   */\n      dup2\n        /* \"#utility.yul\":2421:2425   */\n      dup2\n        /* \"#utility.yul\":2417:2437   */\n      sub\n        /* \"#utility.yul\":2413:2414   */\n      0x00\n        /* \"#utility.yul\":2402:2411   */\n      dup4\n        /* \"#utility.yul\":2398:2415   */\n      add\n        /* \"#utility.yul\":2391:2438   */\n      mstore\n        /* \"#utility.yul\":2455:2541   */\n      tag_119\n        /* \"#utility.yul\":2536:2540   */\n      dup2\n        /* \"#utility.yul\":2527:2533   */\n      dup5\n        /* \"#utility.yul\":2455:2541   */\n      tag_85\n      jump\t// in\n    tag_119:\n        /* \"#utility.yul\":2447:2541   */\n      swap1\n      pop\n        /* \"#utility.yul\":2219:2548   */\n      swap3\n      swap2\n      pop\n      pop\n      jump\t// out\n        /* \"#utility.yul\":2554:2883   */\n    tag_13:\n        /* \"#utility.yul\":2613:2619   */\n      0x00\n        /* \"#utility.yul\":2662:2664   */\n      0x20\n        /* \"#utility.yul\":2650:2659   */\n      dup3\n        /* \"#utility.yul\":2641:2648   */\n      dup5\n        /* \"#utility.yul\":2637:2660   */\n      sub\n        /* \"#utility.yul\":2633:2665   */\n      slt\n        /* \"#utility.yul\":2630:2749   */\n      iszero\n      tag_121\n      jumpi\n        /* \"#utility.yul\":2668:2747   */\n      tag_122\n      tag_76\n      jump\t// in\n    tag_122:\n        /* \"#utility.yul\":2630:2749   */\n    tag_121:\n        /* \"#utility.yul\":2788:2789   */\n      0x00\n        /* \"#utility.yul\":2813:2866   */\n      tag_123\n        /* \"#utility.yul\":2858:2865   */\n      dup5\n        /* \"#utility.yul\":2849:2855   */\n      dup3\n        /* \"#utility.yul\":2838:2847   */\n      dup6\n        /* \"#utility.yul\":2834:2856   */\n      add\n        /* \"#utility.yul\":2813:2866   */\n      tag_80\n      jump\t// in\n    tag_123:\n        /* \"#utility.yul\":2803:2866   */\n      swap2\n      pop\n        /* \"#utility.yul\":2759:2876   */\n      pop\n        /* \"#utility.yul\":2554:2883   */\n      swap3\n      swap2\n      pop\n      pop\n      jump\t// out\n        /* \"#utility.yul\":2889:3069   */\n    tag_86:\n        /* \"#utility.yul\":2937:3014   */\n      0x4e487b7100000000000000000000000000000000000000000000000000000000\n        /* \"#utility.yul\":2934:2935   */\n      0x00\n        /* \"#utility.yul\":2927:3015   */\n      mstore\n        /* \"#utility.yul\":3034:3038   */\n      0x11\n        /* \"#utility.yul\":3031:3032   */\n      0x04\n        /* \"#utility.yul\":3024:3039   */\n      mstore\n        /* \"#utility.yul\":3058:3062   */\n      0x24\n        /* \"#utility.yul\":3055:3056   */\n      0x00\n        /* \"#utility.yul\":3048:3063   */\n      revert\n        /* \"#utility.yul\":3075:3485   */\n    tag_22:\n        /* \"#utility.yul\":3115:3122   */\n      0x00\n        /* \"#utility.yul\":3138:3158   */\n      tag_126\n        /* \"#utility.yul\":3156:3157   */\n      dup3\n        /* \"#utility.yul\":3138:3158   */\n      tag_78\n      jump\t// in\n    tag_126:\n        /* \"#utility.yul\":3133:3158   */\n      swap2\n      pop\n        /* \"#utility.yul\":3172:3192   */\n      tag_127\n        /* \"#utility.yul\":3190:3191   */\n      dup4\n        /* \"#utility.yul\":3172:3192   */\n      tag_78\n      jump\t// in\n    tag_127:\n        /* \"#utility.yul\":3167:3192   */\n      swap3\n      pop\n        /* \"#utility.yul\":3227:3228   */\n      dup3\n        /* \"#utility.yul\":3224:3225   */\n      dup3\n        /* \"#utility.yul\":3220:3229   */\n      mul\n        /* \"#utility.yul\":3249:3279   */\n      tag_128\n        /* \"#utility.yul\":3267:3278   */\n      dup2\n        /* \"#utility.yul\":3249:3279   */\n      tag_78\n      jump\t// in\n    tag_128:\n        /* \"#utility.yul\":3238:3279   */\n      swap2\n      pop\n        /* \"#utility.yul\":3428:3429   */\n      dup3\n        /* \"#utility.yul\":3419:3426   */\n      dup3\n        /* \"#utility.yul\":3415:3430   */\n      div\n        /* \"#utility.yul\":3412:3413   */\n      dup5\n        /* \"#utility.yul\":3409:3431   */\n      eq\n        /* \"#utility.yul\":3389:3390   */\n      dup4\n        /* \"#utility.yul\":3382:3391   */\n      iszero\n        /* \"#utility.yul\":3362:3445   */\n      or\n        /* \"#utility.yul\":3339:3478   */\n      tag_129\n      jumpi\n        /* \"#utility.yul\":3458:3476   */\n      tag_130\n      tag_86\n      jump\t// in\n    tag_130:\n        /* \"#utility.yul\":3339:3478   */\n    tag_129:\n        /* \"#utility.yul\":3123:3485   */\n      pop\n        /* \"#utility.yul\":3075:3485   */\n      swap3\n      swap2\n      pop\n      pop\n      jump\t// out\n        /* \"#utility.yul\":3491:3682   */\n    tag_24:\n        /* \"#utility.yul\":3531:3534   */\n      0x00\n        /* \"#utility.yul\":3550:3570   */\n      tag_132\n        /* \"#utility.yul\":3568:3569   */\n      dup3\n        /* \"#utility.yul\":3550:3570   */\n      tag_78\n      jump\t// in\n    tag_132:\n        /* \"#utility.yul\":3545:3570   */\n      swap2\n      pop\n        /* \"#utility.yul\":3584:3604   */\n      tag_133\n        /* \"#utility.yul\":3602:3603   */\n      dup4\n        /* \"#utility.yul\":3584:3604   */\n      tag_78\n      jump\t// in\n    tag_133:\n        /* \"#utility.yul\":3579:3604   */\n      swap3\n      pop\n        /* \"#utility.yul\":3627:3628   */\n      dup3\n        /* \"#utility.yul\":3624:3625   */\n      dup3\n        /* \"#utility.yul\":3620:3629   */\n      add\n        /* \"#utility.yul\":3613:3629   */\n      swap1\n      pop\n        /* \"#utility.yul\":3648:3651   */\n      dup1\n        /* \"#utility.yul\":3645:3646   */\n      dup3\n        /* \"#utility.yul\":3642:3652   */\n      gt\n        /* \"#utility.yul\":3639:3675   */\n      iszero\n      tag_134\n      jumpi\n        /* \"#utility.yul\":3655:3673   */\n      tag_135\n      tag_86\n      jump\t// in\n    tag_135:\n        /* \"#utility.yul\":3639:3675   */\n    tag_134:\n        /* \"#utility.yul\":3491:3682   */\n      swap3\n      swap2\n      pop\n      pop\n      jump\t// out\n        /* \"#utility.yul\":3688:3868   */\n    tag_27:\n        /* \"#utility.yul\":3736:3813   */\n      0x4e487b7100000000000000000000000000000000000000000000000000000000\n        /* \"#utility.yul\":3733:3734   */\n      0x00\n        /* \"#utility.yul\":3726:3814   */\n      mstore\n        /* \"#utility.yul\":3833:3837   */\n      0x41\n        /* \"#utility.yul\":3830:3831   */\n      0x04\n        /* \"#utility.yul\":3823:3838   */\n      mstore\n        /* \"#utility.yul\":3857:3861   */\n      0x24\n        /* \"#utility.yul\":3854:3855   */\n      0x00\n        /* \"#utility.yul\":3847:3862   */\n      revert\n        /* \"#utility.yul\":3874:4054   */\n    tag_31:\n        /* \"#utility.yul\":3922:3999   */\n      0x4e487b7100000000000000000000000000000000000000000000000000000000\n        /* \"#utility.yul\":3919:3920   */\n      0x00\n        /* \"#utility.yul\":3912:4000   */\n      mstore\n        /* \"#utility.yul\":4019:4023   */\n      0x32\n        /* \"#utility.yul\":4016:4017   */\n      0x04\n        /* \"#utility.yul\":4009:4024   */\n      mstore\n        /* \"#utility.yul\":4043:4047   */\n      0x24\n        /* \"#utility.yul\":4040:4041   */\n      0x00\n        /* \"#utility.yul\":4033:4048   */\n      revert\n        /* \"#utility.yul\":4060:4231   */\n    tag_44:\n        /* \"#utility.yul\":4099:4102   */\n      0x00\n        /* \"#utility.yul\":4122:4146   */\n      tag_139\n        /* \"#utility.yul\":4140:4145   */\n      dup3\n        /* \"#utility.yul\":4122:4146   */\n      tag_78\n      jump\t// in\n    tag_139:\n        /* \"#utility.yul\":4113:4146   */\n      swap2\n      pop\n        /* \"#utility.yul\":4168:4172   */\n      0x00\n        /* \"#utility.yul\":4161:4166   */\n      dup3\n        /* \"#utility.yul\":4158:4173   */\n      sub\n        /* \"#utility.yul\":4155:4196   */\n      tag_140\n      jumpi\n        /* \"#utility.yul\":4176:4194   */\n      tag_141\n      tag_86\n      jump\t// in\n    tag_141:\n        /* \"#utility.yul\":4155:4196   */\n    tag_140:\n        /* \"#utility.yul\":4223:4224   */\n      0x01\n        /* \"#utility.yul\":4216:4221   */\n      dup3\n        /* \"#utility.yul\":4212:4225   */\n      sub\n        /* \"#utility.yul\":4205:4225   */\n      swap1\n      pop\n        /* \"#utility.yul\":4060:4231   */\n      swap2\n      swap1\n      pop\n      jump\t// out\n        /* \"#utility.yul\":4237:4406   */\n    tag_87:\n        /* \"#utility.yul\":4321:4332   */\n      0x00\n        /* \"#utility.yul\":4355:4361   */\n      dup3\n        /* \"#utility.yul\":4350:4353   */\n      dup3\n        /* \"#utility.yul\":4343:4362   */\n      mstore\n        /* \"#utility.yul\":4395:4399   */\n      0x20\n        /* \"#utility.yul\":4390:4393   */\n      dup3\n        /* \"#utility.yul\":4386:4400   */\n      add\n        /* \"#utility.yul\":4371:4400   */\n      swap1\n      pop\n        /* \"#utility.yul\":4237:4406   */\n      swap3\n      swap2\n      pop\n      pop\n      jump\t// out\n        /* \"#utility.yul\":4412:4594   */\n    tag_88:\n        /* \"#utility.yul\":4552:4586   */\n      0x537472696e67733a20686578206c656e67746820696e73756666696369656e74\n        /* \"#utility.yul\":4548:4549   */\n      0x00\n        /* \"#utility.yul\":4540:4546   */\n      dup3\n        /* \"#utility.yul\":4536:4550   */\n      add\n        /* \"#utility.yul\":4529:4587   */\n      mstore\n        /* \"#utility.yul\":4412:4594   */\n      pop\n      jump\t// out\n        /* \"#utility.yul\":4600:4966   */\n    tag_89:\n        /* \"#utility.yul\":4742:4745   */\n      0x00\n        /* \"#utility.yul\":4763:4830   */\n      tag_145\n        /* \"#utility.yul\":4827:4829   */\n      0x20\n        /* \"#utility.yul\":4822:4825   */\n      dup4\n        /* \"#utility.yul\":4763:4830   */\n      tag_87\n      jump\t// in\n    tag_145:\n        /* \"#utility.yul\":4756:4830   */\n      swap2\n      pop\n        /* \"#utility.yul\":4839:4932   */\n      tag_146\n        /* \"#utility.yul\":4928:4931   */\n      dup3\n        /* \"#utility.yul\":4839:4932   */\n      tag_88\n      jump\t// in\n    tag_146:\n        /* \"#utility.yul\":4957:4959   */\n      0x20\n        /* \"#utility.yul\":4952:4955   */\n      dup3\n        /* \"#utility.yul\":4948:4960   */\n      add\n        /* \"#utility.yul\":4941:4960   */\n      swap1\n      pop\n        /* \"#utility.yul\":4600:4966   */\n      swap2\n      swap1\n      pop\n      jump\t// out\n        /* \"#utility.yul\":4972:5391   */\n    tag_47:\n        /* \"#utility.yul\":5138:5142   */\n      0x00\n        /* \"#utility.yul\":5176:5178   */\n      0x20\n        /* \"#utility.yul\":5165:5174   */\n      dup3\n        /* \"#utility.yul\":5161:5179   */\n      add\n        /* \"#utility.yul\":5153:5179   */\n      swap1\n      pop\n        /* \"#utility.yul\":5225:5234   */\n      dup2\n        /* \"#utility.yul\":5219:5223   */\n      dup2\n        /* \"#utility.yul\":5215:5235   */\n      sub\n        /* \"#utility.yul\":5211:5212   */\n      0x00\n        /* \"#utility.yul\":5200:5209   */\n      dup4\n        /* \"#utility.yul\":5196:5213   */\n      add\n        /* \"#utility.yul\":5189:5236   */\n      mstore\n        /* \"#utility.yul\":5253:5384   */\n      tag_148\n        /* \"#utility.yul\":5379:5383   */\n      dup2\n        /* \"#utility.yul\":5253:5384   */\n      tag_89\n      jump\t// in\n    tag_148:\n        /* \"#utility.yul\":5245:5384   */\n      swap1\n      pop\n        /* \"#utility.yul\":4972:5391   */\n      swap2\n      swap1\n      pop\n      jump\t// out\n        /* \"#utility.yul\":5397:5630   */\n    tag_53:\n        /* \"#utility.yul\":5436:5439   */\n      0x00\n        /* \"#utility.yul\":5459:5483   */\n      tag_150\n        /* \"#utility.yul\":5477:5482   */\n      dup3\n        /* \"#utility.yul\":5459:5483   */\n      tag_78\n      jump\t// in\n    tag_150:\n        /* \"#utility.yul\":5450:5483   */\n      swap2\n      pop\n        /* \"#utility.yul\":5505:5571   */\n      0xffffffffffffffffffffffffffffffffffffffffffffffffffffffffffffffff\n        /* \"#utility.yul\":5498:5503   */\n      dup3\n        /* \"#utility.yul\":5495:5572   */\n      sub\n        /* \"#utility.yul\":5492:5595   */\n      tag_151\n      jumpi\n        /* \"#utility.yul\":5575:5593   */\n      tag_152\n      tag_86\n      jump\t// in\n    tag_152:\n        /* \"#utility.yul\":5492:5595   */\n    tag_151:\n        /* \"#utility.yul\":5622:5623   */\n      0x01\n        /* \"#utility.yul\":5615:5620   */\n      dup3\n        /* \"#utility.yul\":5611:5624   */\n      add\n        /* \"#utility.yul\":5604:5624   */\n      swap1\n      pop\n        /* \"#utility.yul\":5397:5630   */\n      swap2\n      swap1\n      pop\n      jump\t// out\n        /* \"#utility.yul\":5636:5816   */\n    tag_90:\n        /* \"#utility.yul\":5684:5761   */\n      0x4e487b7100000000000000000000000000000000000000000000000000000000\n        /* \"#utility.yul\":5681:5682   */\n      0x00\n        /* \"#utility.yul\":5674:5762   */\n      mstore\n        /* \"#utility.yul\":5781:5785   */\n      0x12\n        /* \"#utility.yul\":5778:5779   */\n      0x04\n        /* \"#utility.yul\":5771:5786   */\n      mstore\n        /* \"#utility.yul\":5805:5809   */\n      0x24\n        /* \"#utility.yul\":5802:5803   */\n      0x00\n        /* \"#utility.yul\":5795:5810   */\n      revert\n        /* \"#utility.yul\":5822:6007   */\n    tag_55:\n        /* \"#utility.yul\":5862:5863   */\n      0x00\n        /* \"#utility.yul\":5879:5899   */\n      tag_155\n        /* \"#utility.yul\":5897:5898   */\n      dup3\n        /* \"#utility.yul\":5879:5899   */\n      tag_78\n      jump\t// in\n    tag_155:\n        /* \"#utility.yul\":5874:5899   */\n      swap2\n      pop\n        /* \"#utility.yul\":5913:5933   */\n      tag_156\n        /* \"#utility.yul\":5931:5932   */\n      dup4\n        /* \"#utility.yul\":5913:5933   */\n      tag_78\n      jump\t// in\n    tag_156:\n        /* \"#utility.yul\":5908:5933   */\n      swap3\n      pop\n        /* \"#utility.yul\":5952:5953   */\n      dup3\n        /* \"#utility.yul\":5942:5977   */\n      tag_157\n      jumpi\n        /* \"#utility.yul\":5957:5975   */\n      tag_158\n      tag_90\n      jump\t// in\n    tag_158:\n        /* \"#utility.yul\":5942:5977   */\n    tag_157:\n        /* \"#utility.yul\":5999:6000   */\n      dup3\n        /* \"#utility.yul\":5996:5997   */\n      dup3\n        /* \"#utility.yul\":5992:6001   */\n      div\n        /* \"#utility.yul\":5987:6001   */\n      swap1\n      pop\n        /* \"#utility.yul\":5822:6007   */\n      swap3\n      swap2\n      pop\n      pop\n      jump\t// out\n        /* \"#utility.yul\":6013:6207   */\n    tag_62:\n        /* \"#utility.yul\":6053:6057   */\n      0x00\n        /* \"#utility.yul\":6073:6093   */\n      tag_160\n        /* \"#utility.yul\":6091:6092   */\n      dup3\n        /* \"#utility.yul\":6073:6093   */\n      tag_78\n      jump\t// in\n    tag_160:\n        /* \"#utility.yul\":6068:6093   */\n      swap2\n      pop\n        /* \"#utility.yul\":6107:6127   */\n      tag_161\n        /* \"#utility.yul\":6125:6126   */\n      dup4\n        /* \"#utility.yul\":6107:6127   */\n      tag_78\n      jump\t// in\n    tag_161:\n        /* \"#utility.yul\":6102:6127   */\n      swap3\n      pop\n        /* \"#utility.yul\":6151:6152   */\n      dup3\n        /* \"#utility.yul\":6148:6149   */\n      dup3\n        /* \"#utility.yul\":6144:6153   */\n      sub\n        /* \"#utility.yul\":6136:6153   */\n      swap1\n      pop\n        /* \"#utility.yul\":6175:6176   */\n      dup2\n        /* \"#utility.yul\":6169:6173   */\n      dup2\n        /* \"#utility.yul\":6166:6177   */\n      gt\n        /* \"#utility.yul\":6163:6200   */\n      iszero\n      tag_162\n      jumpi\n        /* \"#utility.yul\":6180:6198   */\n      tag_163\n      tag_86\n      jump\t// in\n    tag_163:\n        /* \"#utility.yul\":6163:6200   */\n    tag_162:\n        /* \"#utility.yul\":6013:6207   */\n      swap3\n      swap2\n      pop\n      pop\n      jump\t// out\n        /* \"#utility.yul\":6213:6389   */\n    tag_64:\n        /* \"#utility.yul\":6245:6246   */\n      0x00\n        /* \"#utility.yul\":6262:6282   */\n      tag_165\n        /* \"#utility.yul\":6280:6281   */\n      dup3\n        /* \"#utility.yul\":6262:6282   */\n      tag_78\n      jump\t// in\n    tag_165:\n        /* \"#utility.yul\":6257:6282   */\n      swap2\n      pop\n        /* \"#utility.yul\":6296:6316   */\n      tag_166\n        /* \"#utility.yul\":6314:6315   */\n      dup4\n        /* \"#utility.yul\":6296:6316   */\n      tag_78\n      jump\t// in\n    tag_166:\n        /* \"#utility.yul\":6291:6316   */\n      swap3\n      pop\n        /* \"#utility.yul\":6335:6336   */\n      dup3\n        /* \"#utility.yul\":6325:6360   */\n      tag_167\n      jumpi\n        /* \"#utility.yul\":6340:6358   */\n      tag_168\n      tag_90\n      jump\t// in\n    tag_168:\n        /* \"#utility.yul\":6325:6360   */\n    tag_167:\n        /* \"#utility.yul\":6381:6382   */\n      dup3\n        /* \"#utility.yul\":6378:6379   */\n      dup3\n        /* \"#utility.yul\":6374:6383   */\n      mod\n        /* \"#utility.yul\":6369:6383   */\n      swap1\n      pop\n        /* \"#utility.yul\":6213:6389   */\n      swap3\n      swap2\n      pop\n      pop\n      jump\t// out\n\n    auxdata: 0xa26469706673582212209372bf090e4dd6a31c9a6571c3be3b3b15e18c04c6ac5e551556dd340d7d0a0d64736f6c63430008190033\n}\n",
				"bytecode": {
					"linkReferences": {},
					"object": "610947610052600b82828239805160001a6073146045577f4e487b7100000000000000000000000000000000000000000000000000000000600052600060045260246000fd5b30600052607381538281f3fe730000000000000000000000000000000000000000301460806040526004361061004b5760003560e01c806363e1cbea146100505780636900a3ae146100805780638fba8d5c146100b0575b600080fd5b61006a6004803603810190610065919061053c565b6100e0565b604051610077919061060c565b60405180910390f35b61009a6004803603810190610095919061062e565b61031c565b6040516100a7919061060c565b60405180910390f35b6100ca60048036038101906100c5919061062e565b61047c565b6040516100d7919061060c565b60405180910390f35b6060600060028360026100f3919061068a565b6100fd91906106cc565b67ffffffffffffffff81111561011657610115610700565b5b6040519080825280601f01601f1916602001820160405280156101485781602001600182028036833780820191505090505b5090507f3000000000000000000000000000000000000000000000000000000000000000816000815181106101805761017f61072f565b5b60200101907effffffffffffffffffffffffffffffffffffffffffffffffffffffffffffff1916908160001a9053507f7800000000000000000000000000000000000000000000000000000000000000816001815181106101e4576101e361072f565b5b60200101907effffffffffffffffffffffffffffffffffffffffffffffffffffffffffffff1916908160001a90535060006001846002610224919061068a565b61022e91906106cc565b90505b60018111156102ce577f3031323334353637383961626364656600000000000000000000000000000000600f8616601081106102705761026f61072f565b5b1a60f81b8282815181106102875761028661072f565b5b60200101907effffffffffffffffffffffffffffffffffffffffffffffffffffffffffffff1916908160001a905350600485901c9450806102c79061075e565b9050610231565b5060008414610312576040517f08c379a0000000000000000000000000000000000000000000000000000000008152600401610309906107e4565b60405180910390fd5b8091505092915050565b606060008203610363576040518060400160405280600181526020017f30000000000000000000000000000000000000000000000000000000000000008152509050610477565b600082905060005b6000821461039557808061037e90610804565b915050600a8261038e919061087b565b915061036b565b60008167ffffffffffffffff8111156103b1576103b0610700565b5b6040519080825280601f01601f1916602001820160405280156103e35781602001600182028036833780820191505090505b5090505b60008514610470576001826103fc91906108ac565b9150600a8561040b91906108e0565b603061041791906106cc565b60f81b81838151811061042d5761042c61072f565b5b60200101907effffffffffffffffffffffffffffffffffffffffffffffffffffffffffffff1916908160001a905350600a85610469919061087b565b94506103e7565b8093505050505b919050565b6060600082036104c3576040518060400160405280600481526020017f307830300000000000000000000000000000000000000000000000000000000081525090506104fc565b600082905060005b600082146104ed5780806104de90610804565b915050600882901c91506104cb565b6104f784826100e0565b925050505b919050565b600080fd5b6000819050919050565b61051981610506565b811461052457600080fd5b50565b60008135905061053681610510565b92915050565b6000806040838503121561055357610552610501565b5b600061056185828601610527565b925050602061057285828601610527565b9150509250929050565b600081519050919050565b600082825260208201905092915050565b60005b838110156105b657808201518184015260208101905061059b565b60008484015250505050565b6000601f19601f8301169050919050565b60006105de8261057c565b6105e88185610587565b93506105f8818560208601610598565b610601816105c2565b840191505092915050565b6000602082019050818103600083015261062681846105d3565b905092915050565b60006020828403121561064457610643610501565b5b600061065284828501610527565b91505092915050565b7f4e487b7100000000000000000000000000000000000000000000000000000000600052601160045260246000fd5b600061069582610506565b91506106a083610506565b92508282026106ae81610506565b915082820484148315176106c5576106c461065b565b5b5092915050565b60006106d782610506565b91506106e283610506565b92508282019050808211156106fa576106f961065b565b5b92915050565b7f4e487b7100000000000000000000000000000000000000000000000000000000600052604160045260246000fd5b7f4e487b7100000000000000000000000000000000000000000000000000000000600052603260045260246000fd5b600061076982610506565b91506000820361077c5761077b61065b565b5b600182039050919050565b600082825260208201905092915050565b7f537472696e67733a20686578206c656e67746820696e73756666696369656e74600082015250565b60006107ce602083610787565b91506107d982610798565b602082019050919050565b600060208201905081810360008301526107fd816107c1565b9050919050565b600061080f82610506565b91507fffffffffffffffffffffffffffffffffffffffffffffffffffffffffffffffff82036108415761084061065b565b5b600182019050919050565b7f4e487b7100000000000000000000000000000000000000000000000000000000600052601260045260246000fd5b600061088682610506565b915061089183610506565b9250826108a1576108a061084c565b5b828204905092915050565b60006108b782610506565b91506108c283610506565b92508282039050818111156108da576108d961065b565b5b92915050565b60006108eb82610506565b91506108f683610506565b9250826109065761090561084c565b5b82820690509291505056fea26469706673582212209372bf090e4dd6a31c9a6571c3be3b3b15e18c04c6ac5e551556dd340d7d0a0d64736f6c63430008190033",
					"opcodes": "PUSH2 0x947 PUSH2 0x52 PUSH1 0xB DUP3 DUP3 DUP3 CODECOPY DUP1 MLOAD PUSH1 0x0 BYTE PUSH1 0x73 EQ PUSH1 0x45 JUMPI PUSH32 0x4E487B7100000000000000000000000000000000000000000000000000000000 PUSH1 0x0 MSTORE PUSH1 0x0 PUSH1 0x4 MSTORE PUSH1 0x24 PUSH1 0x0 REVERT JUMPDEST ADDRESS PUSH1 0x0 MSTORE PUSH1 0x73 DUP2 MSTORE8 DUP3 DUP2 RETURN INVALID PUSH20 0x0 ADDRESS EQ PUSH1 0x80 PUSH1 0x40 MSTORE PUSH1 0x4 CALLDATASIZE LT PUSH2 0x4B JUMPI PUSH1 0x0 CALLDATALOAD PUSH1 0xE0 SHR DUP1 PUSH4 0x63E1CBEA EQ PUSH2 0x50 JUMPI DUP1 PUSH4 0x6900A3AE EQ PUSH2 0x80 JUMPI DUP1 PUSH4 0x8FBA8D5C EQ PUSH2 0xB0 JUMPI JUMPDEST PUSH1 0x0 DUP1 REVERT JUMPDEST PUSH2 0x6A PUSH1 0x4 DUP1 CALLDATASIZE SUB DUP2 ADD SWAP1 PUSH2 0x65 SWAP2 SWAP1 PUSH2 0x53C JUMP JUMPDEST PUSH2 0xE0 JUMP JUMPDEST PUSH1 0x40 MLOAD PUSH2 0x77 SWAP2 SWAP1 PUSH2 0x60C JUMP JUMPDEST PUSH1 0x40 MLOAD DUP1 SWAP2 SUB SWAP1 RETURN JUMPDEST PUSH2 0x9A PUSH1 0x4 DUP1 CALLDATASIZE SUB DUP2 ADD SWAP1 PUSH2 0x95 SWAP2 SWAP1 PUSH2 0x62E JUMP JUMPDEST PUSH2 0x31C JUMP JUMPDEST PUSH1 0x40 MLOAD PUSH2 0xA7 SWAP2 SWAP1 PUSH2 0x60C JUMP JUMPDEST PUSH1 0x40 MLOAD DUP1 SWAP2 SUB SWAP1 RETURN JUMPDEST PUSH2 0xCA PUSH1 0x4 DUP1 CALLDATASIZE SUB DUP2 ADD SWAP1 PUSH2 0xC5 SWAP2 SWAP1 PUSH2 0x62E JUMP JUMPDEST PUSH2 0x47C JUMP JUMPDEST PUSH1 0x40 MLOAD PUSH2 0xD7 SWAP2 SWAP1 PUSH2 0x60C JUMP JUMPDEST PUSH1 0x40 MLOAD DUP1 SWAP2 SUB SWAP1 RETURN JUMPDEST PUSH1 0x60 PUSH1 0x0 PUSH1 0x2 DUP4 PUSH1 0x2 PUSH2 0xF3 SWAP2 SWAP1 PUSH2 0x68A JUMP JUMPDEST PUSH2 0xFD SWAP2 SWAP1 PUSH2 0x6CC JUMP JUMPDEST PUSH8 0xFFFFFFFFFFFFFFFF DUP2 GT ISZERO PUSH2 0x116 JUMPI PUSH2 0x115 PUSH2 0x700 JUMP JUMPDEST JUMPDEST PUSH1 0x40 MLOAD SWAP1 DUP1 DUP3 MSTORE DUP1 PUSH1 0x1F ADD PUSH1 0x1F NOT AND PUSH1 0x20 ADD DUP3 ADD PUSH1 0x40 MSTORE DUP1 ISZERO PUSH2 0x148 JUMPI DUP2 PUSH1 0x20 ADD PUSH1 0x1 DUP3 MUL DUP1 CALLDATASIZE DUP4 CALLDATACOPY DUP1 DUP3 ADD SWAP2 POP POP SWAP1 POP JUMPDEST POP SWAP1 POP PUSH32 0x3000000000000000000000000000000000000000000000000000000000000000 DUP2 PUSH1 0x0 DUP2 MLOAD DUP2 LT PUSH2 0x180 JUMPI PUSH2 0x17F PUSH2 0x72F JUMP JUMPDEST JUMPDEST PUSH1 0x20 ADD ADD SWAP1 PUSH31 0xFFFFFFFFFFFFFFFFFFFFFFFFFFFFFFFFFFFFFFFFFFFFFFFFFFFFFFFFFFFFFF NOT AND SWAP1 DUP2 PUSH1 0x0 BYTE SWAP1 MSTORE8 POP PUSH32 0x7800000000000000000000000000000000000000000000000000000000000000 DUP2 PUSH1 0x1 DUP2 MLOAD DUP2 LT PUSH2 0x1E4 JUMPI PUSH2 0x1E3 PUSH2 0x72F JUMP JUMPDEST JUMPDEST PUSH1 0x20 ADD ADD SWAP1 PUSH31 0xFFFFFFFFFFFFFFFFFFFFFFFFFFFFFFFFFFFFFFFFFFFFFFFFFFFFFFFFFFFFFF NOT AND SWAP1 DUP2 PUSH1 0x0 BYTE SWAP1 MSTORE8 POP PUSH1 0x0 PUSH1 0x1 DUP5 PUSH1 0x2 PUSH2 0x224 SWAP2 SWAP1 PUSH2 0x68A JUMP JUMPDEST PUSH2 0x22E SWAP2 SWAP1 PUSH2 0x6CC JUMP JUMPDEST SWAP1 POP JUMPDEST PUSH1 0x1 DUP2 GT ISZERO PUSH2 0x2CE JUMPI PUSH32 0x3031323334353637383961626364656600000000000000000000000000000000 PUSH1 0xF DUP7 AND PUSH1 0x10 DUP2 LT PUSH2 0x270 JUMPI PUSH2 0x26F PUSH2 0x72F JUMP JUMPDEST JUMPDEST BYTE PUSH1 0xF8 SHL DUP3 DUP3 DUP2 MLOAD DUP2 LT PUSH2 0x287 JUMPI PUSH2 0x286 PUSH2 0x72F JUMP JUMPDEST JUMPDEST PUSH1 0x20 ADD ADD SWAP1 PUSH31 0xFFFFFFFFFFFFFFFFFFFFFFFFFFFFFFFFFFFFFFFFFFFFFFFFFFFFFFFFFFFFFF NOT AND SWAP1 DUP2 PUSH1 0x0 BYTE SWAP1 MSTORE8 POP PUSH1 0x4 DUP6 SWAP1 SHR SWAP5 POP DUP1 PUSH2 0x2C7 SWAP1 PUSH2 0x75E JUMP JUMPDEST SWAP1 POP PUSH2 0x231 JUMP JUMPDEST POP PUSH1 0x0 DUP5 EQ PUSH2 0x312 JUMPI PUSH1 0x40 MLOAD PUSH32 0x8C379A000000000000000000000000000000000000000000000000000000000 DUP2 MSTORE PUSH1 0x4 ADD PUSH2 0x309 SWAP1 PUSH2 0x7E4 JUMP JUMPDEST PUSH1 0x40 MLOAD DUP1 SWAP2 SUB SWAP1 REVERT JUMPDEST DUP1 SWAP2 POP POP SWAP3 SWAP2 POP POP JUMP JUMPDEST PUSH1 0x60 PUSH1 0x0 DUP3 SUB PUSH2 0x363 JUMPI PUSH1 0x40 MLOAD DUP1 PUSH1 0x40 ADD PUSH1 0x40 MSTORE DUP1 PUSH1 0x1 DUP2 MSTORE PUSH1 0x20 ADD PUSH32 0x3000000000000000000000000000000000000000000000000000000000000000 DUP2 MSTORE POP SWAP1 POP PUSH2 0x477 JUMP JUMPDEST PUSH1 0x0 DUP3 SWAP1 POP PUSH1 0x0 JUMPDEST PUSH1 0x0 DUP3 EQ PUSH2 0x395 JUMPI DUP1 DUP1 PUSH2 0x37E SWAP1 PUSH2 0x804 JUMP JUMPDEST SWAP2 POP POP PUSH1 0xA DUP3 PUSH2 0x38E SWAP2 SWAP1 PUSH2 0x87B JUMP JUMPDEST SWAP2 POP PUSH2 0x36B JUMP JUMPDEST PUSH1 0x0 DUP2 PUSH8 0xFFFFFFFFFFFFFFFF DUP2 GT ISZERO PUSH2 0x3B1 JUMPI PUSH2 0x3B0 PUSH2 0x700 JUMP JUMPDEST JUMPDEST PUSH1 0x40 MLOAD SWAP1 DUP1 DUP3 MSTORE DUP1 PUSH1 0x1F ADD PUSH1 0x1F NOT AND PUSH1 0x20 ADD DUP3 ADD PUSH1 0x40 MSTORE DUP1 ISZERO PUSH2 0x3E3 JUMPI DUP2 PUSH1 0x20 ADD PUSH1 0x1 DUP3 MUL DUP1 CALLDATASIZE DUP4 CALLDATACOPY DUP1 DUP3 ADD SWAP2 POP POP SWAP1 POP JUMPDEST POP SWAP1 POP JUMPDEST PUSH1 0x0 DUP6 EQ PUSH2 0x470 JUMPI PUSH1 0x1 DUP3 PUSH2 0x3FC SWAP2 SWAP1 PUSH2 0x8AC JUMP JUMPDEST SWAP2 POP PUSH1 0xA DUP6 PUSH2 0x40B SWAP2 SWAP1 PUSH2 0x8E0 JUMP JUMPDEST PUSH1 0x30 PUSH2 0x417 SWAP2 SWAP1 PUSH2 0x6CC JUMP JUMPDEST PUSH1 0xF8 SHL DUP2 DUP4 DUP2 MLOAD DUP2 LT PUSH2 0x42D JUMPI PUSH2 0x42C PUSH2 0x72F JUMP JUMPDEST JUMPDEST PUSH1 0x20 ADD ADD SWAP1 PUSH31 0xFFFFFFFFFFFFFFFFFFFFFFFFFFFFFFFFFFFFFFFFFFFFFFFFFFFFFFFFFFFFFF NOT AND SWAP1 DUP2 PUSH1 0x0 BYTE SWAP1 MSTORE8 POP PUSH1 0xA DUP6 PUSH2 0x469 SWAP2 SWAP1 PUSH2 0x87B JUMP JUMPDEST SWAP5 POP PUSH2 0x3E7 JUMP JUMPDEST DUP1 SWAP4 POP POP POP POP JUMPDEST SWAP2 SWAP1 POP JUMP JUMPDEST PUSH1 0x60 PUSH1 0x0 DUP3 SUB PUSH2 0x4C3 JUMPI PUSH1 0x40 MLOAD DUP1 PUSH1 0x40 ADD PUSH1 0x40 MSTORE DUP1 PUSH1 0x4 DUP2 MSTORE PUSH1 0x20 ADD PUSH32 0x3078303000000000000000000000000000000000000000000000000000000000 DUP2 MSTORE POP SWAP1 POP PUSH2 0x4FC JUMP JUMPDEST PUSH1 0x0 DUP3 SWAP1 POP PUSH1 0x0 JUMPDEST PUSH1 0x0 DUP3 EQ PUSH2 0x4ED JUMPI DUP1 DUP1 PUSH2 0x4DE SWAP1 PUSH2 0x804 JUMP JUMPDEST SWAP2 POP POP PUSH1 0x8 DUP3 SWAP1 SHR SWAP2 POP PUSH2 0x4CB JUMP JUMPDEST PUSH2 0x4F7 DUP5 DUP3 PUSH2 0xE0 JUMP JUMPDEST SWAP3 POP POP POP JUMPDEST SWAP2 SWAP1 POP JUMP JUMPDEST PUSH1 0x0 DUP1 REVERT JUMPDEST PUSH1 0x0 DUP2 SWAP1 POP SWAP2 SWAP1 POP JUMP JUMPDEST PUSH2 0x519 DUP2 PUSH2 0x506 JUMP JUMPDEST DUP2 EQ PUSH2 0x524 JUMPI PUSH1 0x0 DUP1 REVERT JUMPDEST POP JUMP JUMPDEST PUSH1 0x0 DUP2 CALLDATALOAD SWAP1 POP PUSH2 0x536 DUP2 PUSH2 0x510 JUMP JUMPDEST SWAP3 SWAP2 POP POP JUMP JUMPDEST PUSH1 0x0 DUP1 PUSH1 0x40 DUP4 DUP6 SUB SLT ISZERO PUSH2 0x553 JUMPI PUSH2 0x552 PUSH2 0x501 JUMP JUMPDEST JUMPDEST PUSH1 0x0 PUSH2 0x561 DUP6 DUP3 DUP7 ADD PUSH2 0x527 JUMP JUMPDEST SWAP3 POP POP PUSH1 0x20 PUSH2 0x572 DUP6 DUP3 DUP7 ADD PUSH2 0x527 JUMP JUMPDEST SWAP2 POP POP SWAP3 POP SWAP3 SWAP1 POP JUMP JUMPDEST PUSH1 0x0 DUP2 MLOAD SWAP1 POP SWAP2 SWAP1 POP JUMP JUMPDEST PUSH1 0x0 DUP3 DUP3 MSTORE PUSH1 0x20 DUP3 ADD SWAP1 POP SWAP3 SWAP2 POP POP JUMP JUMPDEST PUSH1 0x0 JUMPDEST DUP4 DUP2 LT ISZERO PUSH2 0x5B6 JUMPI DUP1 DUP3 ADD MLOAD DUP2 DUP5 ADD MSTORE PUSH1 0x20 DUP2 ADD SWAP1 POP PUSH2 0x59B JUMP JUMPDEST PUSH1 0x0 DUP5 DUP5 ADD MSTORE POP POP POP POP JUMP JUMPDEST PUSH1 0x0 PUSH1 0x1F NOT PUSH1 0x1F DUP4 ADD AND SWAP1 POP SWAP2 SWAP1 POP JUMP JUMPDEST PUSH1 0x0 PUSH2 0x5DE DUP3 PUSH2 0x57C JUMP JUMPDEST PUSH2 0x5E8 DUP2 DUP6 PUSH2 0x587 JUMP JUMPDEST SWAP4 POP PUSH2 0x5F8 DUP2 DUP6 PUSH1 0x20 DUP7 ADD PUSH2 0x598 JUMP JUMPDEST PUSH2 0x601 DUP2 PUSH2 0x5C2 JUMP JUMPDEST DUP5 ADD SWAP2 POP POP SWAP3 SWAP2 POP POP JUMP JUMPDEST PUSH1 0x0 PUSH1 0x20 DUP3 ADD SWAP1 POP DUP2 DUP2 SUB PUSH1 0x0 DUP4 ADD MSTORE PUSH2 0x626 DUP2 DUP5 PUSH2 0x5D3 JUMP JUMPDEST SWAP1 POP SWAP3 SWAP2 POP POP JUMP JUMPDEST PUSH1 0x0 PUSH1 0x20 DUP3 DUP5 SUB SLT ISZERO PUSH2 0x644 JUMPI PUSH2 0x643 PUSH2 0x501 JUMP JUMPDEST JUMPDEST PUSH1 0x0 PUSH2 0x652 DUP5 DUP3 DUP6 ADD PUSH2 0x527 JUMP JUMPDEST SWAP2 POP POP SWAP3 SWAP2 POP POP JUMP JUMPDEST PUSH32 0x4E487B7100000000000000000000000000000000000000000000000000000000 PUSH1 0x0 MSTORE PUSH1 0x11 PUSH1 0x4 MSTORE PUSH1 0x24 PUSH1 0x0 REVERT JUMPDEST PUSH1 0x0 PUSH2 0x695 DUP3 PUSH2 0x506 JUMP JUMPDEST SWAP2 POP PUSH2 0x6A0 DUP4 PUSH2 0x506 JUMP JUMPDEST SWAP3 POP DUP3 DUP3 MUL PUSH2 0x6AE DUP2 PUSH2 0x506 JUMP JUMPDEST SWAP2 POP DUP3 DUP3 DIV DUP5 EQ DUP4 ISZERO OR PUSH2 0x6C5 JUMPI PUSH2 0x6C4 PUSH2 0x65B JUMP JUMPDEST JUMPDEST POP SWAP3 SWAP2 POP POP JUMP JUMPDEST PUSH1 0x0 PUSH2 0x6D7 DUP3 PUSH2 0x506 JUMP JUMPDEST SWAP2 POP PUSH2 0x6E2 DUP4 PUSH2 0x506 JUMP JUMPDEST SWAP3 POP DUP3 DUP3 ADD SWAP1 POP DUP1 DUP3 GT ISZERO PUSH2 0x6FA JUMPI PUSH2 0x6F9 PUSH2 0x65B JUMP JUMPDEST JUMPDEST SWAP3 SWAP2 POP POP JUMP JUMPDEST PUSH32 0x4E487B7100000000000000000000000000000000000000000000000000000000 PUSH1 0x0 MSTORE PUSH1 0x41 PUSH1 0x4 MSTORE PUSH1 0x24 PUSH1 0x0 REVERT JUMPDEST PUSH32 0x4E487B7100000000000000000000000000000000000000000000000000000000 PUSH1 0x0 MSTORE PUSH1 0x32 PUSH1 0x4 MSTORE PUSH1 0x24 PUSH1 0x0 REVERT JUMPDEST PUSH1 0x0 PUSH2 0x769 DUP3 PUSH2 0x506 JUMP JUMPDEST SWAP2 POP PUSH1 0x0 DUP3 SUB PUSH2 0x77C JUMPI PUSH2 0x77B PUSH2 0x65B JUMP JUMPDEST JUMPDEST PUSH1 0x1 DUP3 SUB SWAP1 POP SWAP2 SWAP1 POP JUMP JUMPDEST PUSH1 0x0 DUP3 DUP3 MSTORE PUSH1 0x20 DUP3 ADD SWAP1 POP SWAP3 SWAP2 POP POP JUMP JUMPDEST PUSH32 0x537472696E67733A20686578206C656E67746820696E73756666696369656E74 PUSH1 0x0 DUP3 ADD MSTORE POP JUMP JUMPDEST PUSH1 0x0 PUSH2 0x7CE PUSH1 0x20 DUP4 PUSH2 0x787 JUMP JUMPDEST SWAP2 POP PUSH2 0x7D9 DUP3 PUSH2 0x798 JUMP JUMPDEST PUSH1 0x20 DUP3 ADD SWAP1 POP SWAP2 SWAP1 POP JUMP JUMPDEST PUSH1 0x0 PUSH1 0x20 DUP3 ADD SWAP1 POP DUP2 DUP2 SUB PUSH1 0x0 DUP4 ADD MSTORE PUSH2 0x7FD DUP2 PUSH2 0x7C1 JUMP JUMPDEST SWAP1 POP SWAP2 SWAP1 POP JUMP JUMPDEST PUSH1 0x0 PUSH2 0x80F DUP3 PUSH2 0x506 JUMP JUMPDEST SWAP2 POP PUSH32 0xFFFFFFFFFFFFFFFFFFFFFFFFFFFFFFFFFFFFFFFFFFFFFFFFFFFFFFFFFFFFFFFF DUP3 SUB PUSH2 0x841 JUMPI PUSH2 0x840 PUSH2 0x65B JUMP JUMPDEST JUMPDEST PUSH1 0x1 DUP3 ADD SWAP1 POP SWAP2 SWAP1 POP JUMP JUMPDEST PUSH32 0x4E487B7100000000000000000000000000000000000000000000000000000000 PUSH1 0x0 MSTORE PUSH1 0x12 PUSH1 0x4 MSTORE PUSH1 0x24 PUSH1 0x0 REVERT JUMPDEST PUSH1 0x0 PUSH2 0x886 DUP3 PUSH2 0x506 JUMP JUMPDEST SWAP2 POP PUSH2 0x891 DUP4 PUSH2 0x506 JUMP JUMPDEST SWAP3 POP DUP3 PUSH2 0x8A1 JUMPI PUSH2 0x8A0 PUSH2 0x84C JUMP JUMPDEST JUMPDEST DUP3 DUP3 DIV SWAP1 POP SWAP3 SWAP2 POP POP JUMP JUMPDEST PUSH1 0x0 PUSH2 0x8B7 DUP3 PUSH2 0x506 JUMP JUMPDEST SWAP2 POP PUSH2 0x8C2 DUP4 PUSH2 0x506 JUMP JUMPDEST SWAP3 POP DUP3 DUP3 SUB SWAP1 POP DUP2 DUP2 GT ISZERO PUSH2 0x8DA JUMPI PUSH2 0x8D9 PUSH2 0x65B JUMP JUMPDEST JUMPDEST SWAP3 SWAP2 POP POP JUMP JUMPDEST PUSH1 0x0 PUSH2 0x8EB DUP3 PUSH2 0x506 JUMP JUMPDEST SWAP2 POP PUSH2 0x8F6 DUP4 PUSH2 0x506 JUMP JUMPDEST SWAP3 POP DUP3 PUSH2 0x906 JUMPI PUSH2 0x905 PUSH2 0x84C JUMP JUMPDEST JUMPDEST DUP3 DUP3 MOD SWAP1 POP SWAP3 SWAP2 POP POP JUMP INVALID LOG2 PUSH5 0x6970667358 0x22 SLT KECCAK256 SWAP4 PUSH19 0xBF090E4DD6A31C9A6571C3BE3B3B15E18C04C6 0xAC MCOPY SSTORE ISZERO JUMP 0xDD CALLVALUE 0xD PUSH30 0xA0D64736F6C634300081900330000000000000000000000000000000000 "
				},
				"gasEstimates": {
					"creation": {
						"codeDepositCost": "475000",
						"executionCost": "536",
						"totalCost": "475536"
					},
					"external": {
						"toHexString(uint256)": "infinite",
						"toHexString(uint256,uint256)": "infinite",
						"toString(uint256)": "infinite"
					}
				},
				"methodIdentifiers": {
					"toHexString(uint256)": "8fba8d5c",
					"toHexString(uint256,uint256)": "63e1cbea",
					"toString(uint256)": "6900a3ae"
				}
			},
			"storageLayout": {
				"storage": [],
				"types": null
			},
			"userdoc": {
				"kind": "user",
				"methods": {},
				"version": 1
			}
		}
	}
}