{
	"contracts/10_InsertionSort.sol": {
		"InsertionSort": {
			"abi": [
				{
					"inputs": [
						{
							"internalType": "uint256",
							"name": "",
							"type": "uint256"
						}
					],
					"name": "_array",
					"outputs": [
						{
							"internalType": "uint256",
							"name": "",
							"type": "uint256"
						}
					],
					"stateMutability": "view",
					"type": "function"
				},
				{
					"inputs": [],
					"name": "arrayTest",
					"outputs": [
						{
							"internalType": "uint256[]",
							"name": "",
							"type": "uint256[]"
						}
					],
					"stateMutability": "nonpayable",
					"type": "function"
				},
				{
					"inputs": [],
					"name": "doWhileTest",
					"outputs": [
						{
							"internalType": "uint256",
							"name": "",
							"type": "uint256"
						}
					],
					"stateMutability": "pure",
					"type": "function"
				},
				{
					"inputs": [],
					"name": "forTest",
					"outputs": [
						{
							"internalType": "uint256",
							"name": "",
							"type": "uint256"
						}
					],
					"stateMutability": "pure",
					"type": "function"
				},
				{
					"inputs": [],
					"name": "getArray",
					"outputs": [
						{
							"internalType": "uint256[]",
							"name": "",
							"type": "uint256[]"
						}
					],
					"stateMutability": "view",
					"type": "function"
				},
				{
					"inputs": [
						{
							"internalType": "uint256",
							"name": "_number",
							"type": "uint256"
						}
					],
					"name": "ifTest",
					"outputs": [
						{
							"internalType": "bool",
							"name": "",
							"type": "bool"
						}
					],
					"stateMutability": "pure",
					"type": "function"
				},
				{
					"inputs": [
						{
							"internalType": "uint256[]",
							"name": "_arr",
							"type": "uint256[]"
						}
					],
					"name": "insertionSort",
					"outputs": [
						{
							"internalType": "uint256[]",
							"name": "",
							"type": "uint256[]"
						}
					],
					"stateMutability": "pure",
					"type": "function"
				},
				{
					"inputs": [
						{
							"internalType": "uint256",
							"name": "x",
							"type": "uint256"
						},
						{
							"internalType": "uint256",
							"name": "y",
							"type": "uint256"
						}
					],
					"name": "ternaryTest",
					"outputs": [
						{
							"internalType": "uint256",
							"name": "",
							"type": "uint256"
						}
					],
					"stateMutability": "pure",
					"type": "function"
				},
				{
					"inputs": [],
					"name": "whileTest",
					"outputs": [
						{
							"internalType": "uint256",
							"name": "",
							"type": "uint256"
						}
					],
					"stateMutability": "pure",
					"type": "function"
				}
			],
			"devdoc": {
				"kind": "dev",
				"methods": {},
				"version": 1
			},
			"evm": {
				"assembly": "    /* \"contracts/10_InsertionSort.sol\":57:1726  contract InsertionSort {... */\n  mstore(0x40, 0x80)\n  callvalue\n  dup1\n  iszero\n  tag_1\n  jumpi\n  0x00\n  dup1\n  revert\ntag_1:\n  pop\n  dataSize(sub_0)\n  dup1\n  dataOffset(sub_0)\n  0x00\n  codecopy\n  0x00\n  return\nstop\n\nsub_0: assembly {\n        /* \"contracts/10_InsertionSort.sol\":57:1726  contract InsertionSort {... */\n      mstore(0x40, 0x80)\n      callvalue\n      dup1\n      iszero\n      tag_1\n      jumpi\n      0x00\n      dup1\n      revert\n    tag_1:\n      pop\n      jumpi(tag_2, lt(calldatasize, 0x04))\n      shr(0xe0, calldataload(0x00))\n      dup1\n      0x6297206f\n      gt\n      tag_12\n      jumpi\n      dup1\n      0x6297206f\n      eq\n      tag_7\n      jumpi\n      dup1\n      0x8ab605e5\n      eq\n      tag_8\n      jumpi\n      dup1\n      0x9bc0168a\n      eq\n      tag_9\n      jumpi\n      dup1\n      0xd504ea1d\n      eq\n      tag_10\n      jumpi\n      dup1\n      0xde152f8d\n      eq\n      tag_11\n      jumpi\n      jump(tag_2)\n    tag_12:\n      dup1\n      0x0f55bd12\n      eq\n      tag_3\n      jumpi\n      dup1\n      0x28766320\n      eq\n      tag_4\n      jumpi\n      dup1\n      0x2bbacaaa\n      eq\n      tag_5\n      jumpi\n      dup1\n      0x5d14639d\n      eq\n      tag_6\n      jumpi\n    tag_2:\n      0x00\n      dup1\n      revert\n        /* \"contracts/10_InsertionSort.sol\":948:1258  function arrayTest() public returns(uint[] memory){... */\n    tag_3:\n      tag_13\n      tag_14\n      jump\t// in\n    tag_13:\n      mload(0x40)\n      tag_15\n      swap2\n      swap1\n      tag_16\n      jump\t// in\n    tag_15:\n      mload(0x40)\n      dup1\n      swap2\n      sub\n      swap1\n      return\n        /* \"contracts/10_InsertionSort.sol\":818:915  function ternaryTest(uint x,uint y) public pure returns (uint256){... */\n    tag_4:\n      tag_17\n      0x04\n      dup1\n      calldatasize\n      sub\n      dup2\n      add\n      swap1\n      tag_18\n      swap2\n      swap1\n      tag_19\n      jump\t// in\n    tag_18:\n      tag_20\n      jump\t// in\n    tag_17:\n      mload(0x40)\n      tag_21\n      swap2\n      swap1\n      tag_22\n      jump\t// in\n    tag_21:\n      mload(0x40)\n      dup1\n      swap2\n      sub\n      swap1\n      return\n        /* \"contracts/10_InsertionSort.sol\":613:812  function doWhileTest() public pure returns(uint){... */\n    tag_5:\n      tag_23\n      tag_24\n      jump\t// in\n    tag_23:\n      mload(0x40)\n      tag_25\n      swap2\n      swap1\n      tag_22\n      jump\t// in\n    tag_25:\n      mload(0x40)\n      dup1\n      swap2\n      sub\n      swap1\n      return\n        /* \"contracts/10_InsertionSort.sol\":421:607  function whileTest() public pure returns(uint){... */\n    tag_6:\n      tag_26\n      tag_27\n      jump\t// in\n    tag_26:\n      mload(0x40)\n      tag_28\n      swap2\n      swap1\n      tag_22\n      jump\t// in\n    tag_28:\n      mload(0x40)\n      dup1\n      swap2\n      sub\n      swap1\n      return\n        /* \"contracts/10_InsertionSort.sol\":1355:1723  function insertionSort(uint[] memory _arr) public pure returns(uint[] memory){... */\n    tag_7:\n      tag_29\n      0x04\n      dup1\n      calldatasize\n      sub\n      dup2\n      add\n      swap1\n      tag_30\n      swap2\n      swap1\n      tag_31\n      jump\t// in\n    tag_30:\n      tag_32\n      jump\t// in\n    tag_29:\n      mload(0x40)\n      tag_33\n      swap2\n      swap1\n      tag_16\n      jump\t// in\n    tag_33:\n      mload(0x40)\n      dup1\n      swap2\n      sub\n      swap1\n      return\n        /* \"contracts/10_InsertionSort.sol\":86:252  function ifTest(uint _number) public pure returns(bool){... */\n    tag_8:\n      tag_34\n      0x04\n      dup1\n      calldatasize\n      sub\n      dup2\n      add\n      swap1\n      tag_35\n      swap2\n      swap1\n      tag_36\n      jump\t// in\n    tag_35:\n      tag_37\n      jump\t// in\n    tag_34:\n      mload(0x40)\n      tag_38\n      swap2\n      swap1\n      tag_39\n      jump\t// in\n    tag_38:\n      mload(0x40)\n      dup1\n      swap2\n      sub\n      swap1\n      return\n        /* \"contracts/10_InsertionSort.sol\":921:941  uint[] public _array */\n    tag_9:\n      tag_40\n      0x04\n      dup1\n      calldatasize\n      sub\n      dup2\n      add\n      swap1\n      tag_41\n      swap2\n      swap1\n      tag_36\n      jump\t// in\n    tag_41:\n      tag_42\n      jump\t// in\n    tag_40:\n      mload(0x40)\n      tag_43\n      swap2\n      swap1\n      tag_22\n      jump\t// in\n    tag_43:\n      mload(0x40)\n      dup1\n      swap2\n      sub\n      swap1\n      return\n        /* \"contracts/10_InsertionSort.sol\":1265:1349  function getArray() public view returns(uint[] memory){... */\n    tag_10:\n      tag_44\n      tag_45\n      jump\t// in\n    tag_44:\n      mload(0x40)\n      tag_46\n      swap2\n      swap1\n      tag_16\n      jump\t// in\n    tag_46:\n      mload(0x40)\n      dup1\n      swap2\n      sub\n      swap1\n      return\n        /* \"contracts/10_InsertionSort.sol\":258:415  function forTest() public pure returns(uint){... */\n    tag_11:\n      tag_47\n      tag_48\n      jump\t// in\n    tag_47:\n      mload(0x40)\n      tag_49\n      swap2\n      swap1\n      tag_22\n      jump\t// in\n    tag_49:\n      mload(0x40)\n      dup1\n      swap2\n      sub\n      swap1\n      return\n        /* \"contracts/10_InsertionSort.sol\":948:1258  function arrayTest() public returns(uint[] memory){... */\n    tag_14:\n        /* \"contracts/10_InsertionSort.sol\":984:997  uint[] memory */\n      0x60\n        /* \"contracts/10_InsertionSort.sol\":1008:1014  uint i */\n      0x00\n        /* \"contracts/10_InsertionSort.sol\":1028:1220  while(i<10){... */\n    tag_51:\n        /* \"contracts/10_InsertionSort.sol\":1036:1038  10 */\n      0x0a\n        /* \"contracts/10_InsertionSort.sol\":1034:1035  i */\n      dup2\n        /* \"contracts/10_InsertionSort.sol\":1034:1038  i<10 */\n      lt\n        /* \"contracts/10_InsertionSort.sol\":1028:1220  while(i<10){... */\n      iszero\n      tag_52\n      jumpi\n        /* \"contracts/10_InsertionSort.sol\":1053:1056  i++ */\n      dup1\n      dup1\n      tag_53\n      swap1\n      tag_54\n      jump\t// in\n    tag_53:\n      swap2\n      pop\n      pop\n        /* \"contracts/10_InsertionSort.sol\":1076:1077  2 */\n      0x02\n        /* \"contracts/10_InsertionSort.sol\":1073:1074  i */\n      dup2\n        /* \"contracts/10_InsertionSort.sol\":1073:1077  i==2 */\n      sub\n        /* \"contracts/10_InsertionSort.sol\":1070:1120  if(i==2){... */\n      iszero\n        /* \"contracts/10_InsertionSort.sol\":1096:1104  continue */\n      tag_51\n        /* \"contracts/10_InsertionSort.sol\":1070:1120  if(i==2){... */\n      jumpi\n        /* \"contracts/10_InsertionSort.sol\":1140:1141  4 */\n      0x04\n        /* \"contracts/10_InsertionSort.sol\":1137:1138  i */\n      dup2\n        /* \"contracts/10_InsertionSort.sol\":1137:1141  i==4 */\n      sub\n        /* \"contracts/10_InsertionSort.sol\":1134:1180  if(i==4){... */\n      iszero\n        /* \"contracts/10_InsertionSort.sol\":1160:1165  break */\n      tag_52\n        /* \"contracts/10_InsertionSort.sol\":1134:1180  if(i==4){... */\n      jumpi\n        /* \"contracts/10_InsertionSort.sol\":1194:1200  _array */\n      0x00\n        /* \"contracts/10_InsertionSort.sol\":1206:1207  i */\n      dup2\n        /* \"contracts/10_InsertionSort.sol\":1194:1208  _array.push(i) */\n      swap1\n      dup1\n      0x01\n      dup2\n      sload\n      add\n      dup1\n      dup3\n      sstore\n      dup1\n      swap2\n      pop\n      pop\n      0x01\n      swap1\n      sub\n      swap1\n      0x00\n      mstore\n      keccak256(0x00, 0x20)\n      add\n      0x00\n      swap1\n      swap2\n      swap1\n      swap2\n      swap1\n      swap2\n      pop\n      sstore\n        /* \"contracts/10_InsertionSort.sol\":1028:1220  while(i<10){... */\n      jump(tag_51)\n    tag_52:\n        /* \"contracts/10_InsertionSort.sol\":1245:1251  _array */\n      0x00\n        /* \"contracts/10_InsertionSort.sol\":1238:1251  return _array */\n      dup1\n      sload\n      dup1\n      0x20\n      mul\n      0x20\n      add\n      mload(0x40)\n      swap1\n      dup2\n      add\n      0x40\n      mstore\n      dup1\n      swap3\n      swap2\n      swap1\n      dup2\n      dup2\n      mstore\n      0x20\n      add\n      dup3\n      dup1\n      sload\n      dup1\n      iszero\n      tag_58\n      jumpi\n      0x20\n      mul\n      dup3\n      add\n      swap2\n      swap1\n      0x00\n      mstore\n      keccak256(0x00, 0x20)\n      swap1\n    tag_59:\n      dup2\n      sload\n      dup2\n      mstore\n      0x20\n      add\n      swap1\n      0x01\n      add\n      swap1\n      dup1\n      dup4\n      gt\n      tag_59\n      jumpi\n    tag_58:\n      pop\n      pop\n      pop\n      pop\n      pop\n      swap2\n      pop\n      pop\n        /* \"contracts/10_InsertionSort.sol\":948:1258  function arrayTest() public returns(uint[] memory){... */\n      swap1\n      jump\t// out\n        /* \"contracts/10_InsertionSort.sol\":818:915  function ternaryTest(uint x,uint y) public pure returns (uint256){... */\n    tag_20:\n        /* \"contracts/10_InsertionSort.sol\":875:882  uint256 */\n      0x00\n        /* \"contracts/10_InsertionSort.sol\":903:904  y */\n      dup2\n        /* \"contracts/10_InsertionSort.sol\":900:901  x */\n      dup4\n        /* \"contracts/10_InsertionSort.sol\":900:904  x>=y */\n      lt\n      iszero\n        /* \"contracts/10_InsertionSort.sol\":900:908  x>=y?x:y */\n      tag_61\n      jumpi\n        /* \"contracts/10_InsertionSort.sol\":907:908  y */\n      dup2\n        /* \"contracts/10_InsertionSort.sol\":900:908  x>=y?x:y */\n      jump(tag_62)\n    tag_61:\n        /* \"contracts/10_InsertionSort.sol\":905:906  x */\n      dup3\n        /* \"contracts/10_InsertionSort.sol\":900:908  x>=y?x:y */\n    tag_62:\n        /* \"contracts/10_InsertionSort.sol\":893:908  return x>=y?x:y */\n      swap1\n      pop\n        /* \"contracts/10_InsertionSort.sol\":818:915  function ternaryTest(uint x,uint y) public pure returns (uint256){... */\n      swap3\n      swap2\n      pop\n      pop\n      jump\t// out\n        /* \"contracts/10_InsertionSort.sol\":613:812  function doWhileTest() public pure returns(uint){... */\n    tag_24:\n        /* \"contracts/10_InsertionSort.sol\":656:660  uint */\n      0x00\n        /* \"contracts/10_InsertionSort.sol\":671:679  uint sum */\n      dup1\n        /* \"contracts/10_InsertionSort.sol\":682:683  0 */\n      0x00\n        /* \"contracts/10_InsertionSort.sol\":671:683  uint sum = 0 */\n      swap1\n      pop\n        /* \"contracts/10_InsertionSort.sol\":693:699  uint i */\n      0x00\n        /* \"contracts/10_InsertionSort.sol\":714:785  do{... */\n    tag_64:\n        /* \"contracts/10_InsertionSort.sol\":735:736  i */\n      dup1\n        /* \"contracts/10_InsertionSort.sol\":730:736  sum+=i */\n      dup3\n      tag_67\n      swap2\n      swap1\n      tag_68\n      jump\t// in\n    tag_67:\n      swap2\n      pop\n        /* \"contracts/10_InsertionSort.sol\":750:753  i++ */\n      dup1\n      dup1\n      tag_69\n      swap1\n      tag_54\n      jump\t// in\n    tag_69:\n      swap2\n      pop\n      pop\n        /* \"contracts/10_InsertionSort.sol\":781:783  10 */\n      0x0a\n        /* \"contracts/10_InsertionSort.sol\":779:780  i */\n      dup2\n        /* \"contracts/10_InsertionSort.sol\":779:783  i<10 */\n      lt\n        /* \"contracts/10_InsertionSort.sol\":714:785  do{... */\n      tag_64\n      jumpi\n        /* \"contracts/10_InsertionSort.sol\":802:805  sum */\n      dup2\n        /* \"contracts/10_InsertionSort.sol\":795:805  return sum */\n      swap3\n      pop\n      pop\n      pop\n        /* \"contracts/10_InsertionSort.sol\":613:812  function doWhileTest() public pure returns(uint){... */\n      swap1\n      jump\t// out\n        /* \"contracts/10_InsertionSort.sol\":421:607  function whileTest() public pure returns(uint){... */\n    tag_27:\n        /* \"contracts/10_InsertionSort.sol\":462:466  uint */\n      0x00\n        /* \"contracts/10_InsertionSort.sol\":477:485  uint sum */\n      dup1\n        /* \"contracts/10_InsertionSort.sol\":488:489  0 */\n      0x00\n        /* \"contracts/10_InsertionSort.sol\":477:489  uint sum = 0 */\n      swap1\n      pop\n        /* \"contracts/10_InsertionSort.sol\":499:505  uint i */\n      0x00\n        /* \"contracts/10_InsertionSort.sol\":520:580  while (i<10){... */\n    tag_71:\n        /* \"contracts/10_InsertionSort.sol\":529:531  10 */\n      0x0a\n        /* \"contracts/10_InsertionSort.sol\":527:528  i */\n      dup2\n        /* \"contracts/10_InsertionSort.sol\":527:531  i<10 */\n      lt\n        /* \"contracts/10_InsertionSort.sol\":520:580  while (i<10){... */\n      iszero\n      tag_72\n      jumpi\n        /* \"contracts/10_InsertionSort.sol\":551:552  i */\n      dup1\n        /* \"contracts/10_InsertionSort.sol\":546:552  sum+=i */\n      dup3\n      tag_73\n      swap2\n      swap1\n      tag_68\n      jump\t// in\n    tag_73:\n      swap2\n      pop\n        /* \"contracts/10_InsertionSort.sol\":566:569  i++ */\n      dup1\n      dup1\n      tag_74\n      swap1\n      tag_54\n      jump\t// in\n    tag_74:\n      swap2\n      pop\n      pop\n        /* \"contracts/10_InsertionSort.sol\":520:580  while (i<10){... */\n      jump(tag_71)\n    tag_72:\n        /* \"contracts/10_InsertionSort.sol\":597:600  sum */\n      dup2\n        /* \"contracts/10_InsertionSort.sol\":590:600  return sum */\n      swap3\n      pop\n      pop\n      pop\n        /* \"contracts/10_InsertionSort.sol\":421:607  function whileTest() public pure returns(uint){... */\n      swap1\n      jump\t// out\n        /* \"contracts/10_InsertionSort.sol\":1355:1723  function insertionSort(uint[] memory _arr) public pure returns(uint[] memory){... */\n    tag_32:\n        /* \"contracts/10_InsertionSort.sol\":1418:1431  uint[] memory */\n      0x60\n        /* \"contracts/10_InsertionSort.sol\":1446:1452  uint i */\n      0x00\n        /* \"contracts/10_InsertionSort.sol\":1455:1456  1 */\n      0x01\n        /* \"contracts/10_InsertionSort.sol\":1446:1456  uint i = 1 */\n      swap1\n      pop\n        /* \"contracts/10_InsertionSort.sol\":1442:1695  for(uint i = 1;i<_arr.length;i++){... */\n    tag_76:\n        /* \"contracts/10_InsertionSort.sol\":1459:1463  _arr */\n      dup3\n        /* \"contracts/10_InsertionSort.sol\":1459:1470  _arr.length */\n      mload\n        /* \"contracts/10_InsertionSort.sol\":1457:1458  i */\n      dup2\n        /* \"contracts/10_InsertionSort.sol\":1457:1470  i<_arr.length */\n      lt\n        /* \"contracts/10_InsertionSort.sol\":1442:1695  for(uint i = 1;i<_arr.length;i++){... */\n      iszero\n      tag_77\n      jumpi\n        /* \"contracts/10_InsertionSort.sol\":1489:1499  uint value */\n      0x00\n        /* \"contracts/10_InsertionSort.sol\":1502:1506  _arr */\n      dup4\n        /* \"contracts/10_InsertionSort.sol\":1507:1508  i */\n      dup3\n        /* \"contracts/10_InsertionSort.sol\":1502:1509  _arr[i] */\n      dup2\n      mload\n      dup2\n      lt\n      tag_79\n      jumpi\n      tag_80\n      tag_81\n      jump\t// in\n    tag_80:\n    tag_79:\n      0x20\n      mul\n      0x20\n      add\n      add\n      mload\n        /* \"contracts/10_InsertionSort.sol\":1489:1509  uint value = _arr[i] */\n      swap1\n      pop\n        /* \"contracts/10_InsertionSort.sol\":1523:1529  uint j */\n      0x00\n        /* \"contracts/10_InsertionSort.sol\":1532:1533  i */\n      dup3\n        /* \"contracts/10_InsertionSort.sol\":1523:1533  uint j = i */\n      swap1\n      pop\n        /* \"contracts/10_InsertionSort.sol\":1548:1655  while((j>=1)&&(_arr[j-1] > value)){... */\n    tag_82:\n        /* \"contracts/10_InsertionSort.sol\":1558:1559  1 */\n      0x01\n        /* \"contracts/10_InsertionSort.sol\":1555:1556  j */\n      dup2\n        /* \"contracts/10_InsertionSort.sol\":1555:1559  j>=1 */\n      lt\n      iszero\n        /* \"contracts/10_InsertionSort.sol\":1554:1581  (j>=1)&&(_arr[j-1] > value) */\n      dup1\n      iszero\n      tag_84\n      jumpi\n      pop\n        /* \"contracts/10_InsertionSort.sol\":1575:1580  value */\n      dup2\n        /* \"contracts/10_InsertionSort.sol\":1563:1567  _arr */\n      dup6\n        /* \"contracts/10_InsertionSort.sol\":1570:1571  1 */\n      0x01\n        /* \"contracts/10_InsertionSort.sol\":1568:1569  j */\n      dup4\n        /* \"contracts/10_InsertionSort.sol\":1568:1571  j-1 */\n      tag_85\n      swap2\n      swap1\n      tag_86\n      jump\t// in\n    tag_85:\n        /* \"contracts/10_InsertionSort.sol\":1563:1572  _arr[j-1] */\n      dup2\n      mload\n      dup2\n      lt\n      tag_87\n      jumpi\n      tag_88\n      tag_81\n      jump\t// in\n    tag_88:\n    tag_87:\n      0x20\n      mul\n      0x20\n      add\n      add\n      mload\n        /* \"contracts/10_InsertionSort.sol\":1563:1580  _arr[j-1] > value */\n      gt\n        /* \"contracts/10_InsertionSort.sol\":1554:1581  (j>=1)&&(_arr[j-1] > value) */\n    tag_84:\n        /* \"contracts/10_InsertionSort.sol\":1548:1655  while((j>=1)&&(_arr[j-1] > value)){... */\n      iszero\n      tag_83\n      jumpi\n        /* \"contracts/10_InsertionSort.sol\":1610:1614  _arr */\n      dup5\n        /* \"contracts/10_InsertionSort.sol\":1617:1618  1 */\n      0x01\n        /* \"contracts/10_InsertionSort.sol\":1615:1616  j */\n      dup3\n        /* \"contracts/10_InsertionSort.sol\":1615:1618  j-1 */\n      tag_89\n      swap2\n      swap1\n      tag_86\n      jump\t// in\n    tag_89:\n        /* \"contracts/10_InsertionSort.sol\":1610:1619  _arr[j-1] */\n      dup2\n      mload\n      dup2\n      lt\n      tag_90\n      jumpi\n      tag_91\n      tag_81\n      jump\t// in\n    tag_91:\n    tag_90:\n      0x20\n      mul\n      0x20\n      add\n      add\n      mload\n        /* \"contracts/10_InsertionSort.sol\":1600:1604  _arr */\n      dup6\n        /* \"contracts/10_InsertionSort.sol\":1605:1606  j */\n      dup3\n        /* \"contracts/10_InsertionSort.sol\":1600:1607  _arr[j] */\n      dup2\n      mload\n      dup2\n      lt\n      tag_92\n      jumpi\n      tag_93\n      tag_81\n      jump\t// in\n    tag_93:\n    tag_92:\n      0x20\n      mul\n      0x20\n      add\n      add\n        /* \"contracts/10_InsertionSort.sol\":1600:1619  _arr[j] = _arr[j-1] */\n      dup2\n      dup2\n      mstore\n      pop\n      pop\n        /* \"contracts/10_InsertionSort.sol\":1637:1640  j-- */\n      dup1\n      dup1\n      tag_94\n      swap1\n      tag_95\n      jump\t// in\n    tag_94:\n      swap2\n      pop\n      pop\n        /* \"contracts/10_InsertionSort.sol\":1548:1655  while((j>=1)&&(_arr[j-1] > value)){... */\n      jump(tag_82)\n    tag_83:\n        /* \"contracts/10_InsertionSort.sol\":1679:1684  value */\n      dup2\n        /* \"contracts/10_InsertionSort.sol\":1669:1673  _arr */\n      dup6\n        /* \"contracts/10_InsertionSort.sol\":1674:1675  j */\n      dup3\n        /* \"contracts/10_InsertionSort.sol\":1669:1676  _arr[j] */\n      dup2\n      mload\n      dup2\n      lt\n      tag_96\n      jumpi\n      tag_97\n      tag_81\n      jump\t// in\n    tag_97:\n    tag_96:\n      0x20\n      mul\n      0x20\n      add\n      add\n        /* \"contracts/10_InsertionSort.sol\":1669:1684  _arr[j] = value */\n      dup2\n      dup2\n      mstore\n      pop\n      pop\n        /* \"contracts/10_InsertionSort.sol\":1475:1695  {... */\n      pop\n      pop\n        /* \"contracts/10_InsertionSort.sol\":1471:1474  i++ */\n      dup1\n      dup1\n      0x01\n      add\n      swap2\n      pop\n      pop\n        /* \"contracts/10_InsertionSort.sol\":1442:1695  for(uint i = 1;i<_arr.length;i++){... */\n      jump(tag_76)\n    tag_77:\n      pop\n        /* \"contracts/10_InsertionSort.sol\":1712:1716  _arr */\n      dup2\n        /* \"contracts/10_InsertionSort.sol\":1705:1716  return _arr */\n      swap1\n      pop\n        /* \"contracts/10_InsertionSort.sol\":1355:1723  function insertionSort(uint[] memory _arr) public pure returns(uint[] memory){... */\n      swap2\n      swap1\n      pop\n      jump\t// out\n        /* \"contracts/10_InsertionSort.sol\":86:252  function ifTest(uint _number) public pure returns(bool){... */\n    tag_37:\n        /* \"contracts/10_InsertionSort.sol\":136:140  bool */\n      0x00\n        /* \"contracts/10_InsertionSort.sol\":165:166  0 */\n      dup1\n        /* \"contracts/10_InsertionSort.sol\":154:161  _number */\n      dup3\n        /* \"contracts/10_InsertionSort.sol\":154:166  _number == 0 */\n      sub\n        /* \"contracts/10_InsertionSort.sol\":151:246  if(_number == 0){... */\n      tag_99\n      jumpi\n        /* \"contracts/10_InsertionSort.sol\":188:192  true */\n      0x01\n        /* \"contracts/10_InsertionSort.sol\":181:193  return(true) */\n      swap1\n      pop\n      jump(tag_98)\n        /* \"contracts/10_InsertionSort.sol\":151:246  if(_number == 0){... */\n    tag_99:\n        /* \"contracts/10_InsertionSort.sol\":229:234  false */\n      0x00\n        /* \"contracts/10_InsertionSort.sol\":222:235  return(false) */\n      swap1\n      pop\n        /* \"contracts/10_InsertionSort.sol\":86:252  function ifTest(uint _number) public pure returns(bool){... */\n    tag_98:\n      swap2\n      swap1\n      pop\n      jump\t// out\n        /* \"contracts/10_InsertionSort.sol\":921:941  uint[] public _array */\n    tag_42:\n      0x00\n      dup2\n      dup2\n      sload\n      dup2\n      lt\n      tag_101\n      jumpi\n      0x00\n      dup1\n      revert\n    tag_101:\n      swap1\n      0x00\n      mstore\n      keccak256(0x00, 0x20)\n      add\n      0x00\n      swap2\n      pop\n      swap1\n      pop\n      sload\n      dup2\n      jump\t// out\n        /* \"contracts/10_InsertionSort.sol\":1265:1349  function getArray() public view returns(uint[] memory){... */\n    tag_45:\n        /* \"contracts/10_InsertionSort.sol\":1305:1318  uint[] memory */\n      0x60\n        /* \"contracts/10_InsertionSort.sol\":1336:1342  _array */\n      0x00\n        /* \"contracts/10_InsertionSort.sol\":1329:1342  return _array */\n      dup1\n      sload\n      dup1\n      0x20\n      mul\n      0x20\n      add\n      mload(0x40)\n      swap1\n      dup2\n      add\n      0x40\n      mstore\n      dup1\n      swap3\n      swap2\n      swap1\n      dup2\n      dup2\n      mstore\n      0x20\n      add\n      dup3\n      dup1\n      sload\n      dup1\n      iszero\n      tag_104\n      jumpi\n      0x20\n      mul\n      dup3\n      add\n      swap2\n      swap1\n      0x00\n      mstore\n      keccak256(0x00, 0x20)\n      swap1\n    tag_105:\n      dup2\n      sload\n      dup2\n      mstore\n      0x20\n      add\n      swap1\n      0x01\n      add\n      swap1\n      dup1\n      dup4\n      gt\n      tag_105\n      jumpi\n    tag_104:\n      pop\n      pop\n      pop\n      pop\n      pop\n      swap1\n      pop\n        /* \"contracts/10_InsertionSort.sol\":1265:1349  function getArray() public view returns(uint[] memory){... */\n      swap1\n      jump\t// out\n        /* \"contracts/10_InsertionSort.sol\":258:415  function forTest() public pure returns(uint){... */\n    tag_48:\n        /* \"contracts/10_InsertionSort.sol\":297:301  uint */\n      0x00\n        /* \"contracts/10_InsertionSort.sol\":312:320  uint sum */\n      dup1\n        /* \"contracts/10_InsertionSort.sol\":323:324  0 */\n      0x00\n        /* \"contracts/10_InsertionSort.sol\":312:324  uint sum = 0 */\n      swap1\n      pop\n        /* \"contracts/10_InsertionSort.sol\":338:344  uint i */\n      0x00\n        /* \"contracts/10_InsertionSort.sol\":334:389  for(uint i =0 ;i<10;i++){... */\n    tag_107:\n        /* \"contracts/10_InsertionSort.sol\":351:353  10 */\n      0x0a\n        /* \"contracts/10_InsertionSort.sol\":349:350  i */\n      dup2\n        /* \"contracts/10_InsertionSort.sol\":349:353  i<10 */\n      lt\n        /* \"contracts/10_InsertionSort.sol\":334:389  for(uint i =0 ;i<10;i++){... */\n      iszero\n      tag_108\n      jumpi\n        /* \"contracts/10_InsertionSort.sol\":377:378  i */\n      dup1\n        /* \"contracts/10_InsertionSort.sol\":372:378  sum+=i */\n      dup3\n      tag_110\n      swap2\n      swap1\n      tag_68\n      jump\t// in\n    tag_110:\n      swap2\n      pop\n        /* \"contracts/10_InsertionSort.sol\":354:357  i++ */\n      dup1\n      dup1\n      0x01\n      add\n      swap2\n      pop\n      pop\n        /* \"contracts/10_InsertionSort.sol\":334:389  for(uint i =0 ;i<10;i++){... */\n      jump(tag_107)\n    tag_108:\n      pop\n        /* \"contracts/10_InsertionSort.sol\":405:408  sum */\n      dup1\n        /* \"contracts/10_InsertionSort.sol\":398:408  return sum */\n      swap2\n      pop\n      pop\n        /* \"contracts/10_InsertionSort.sol\":258:415  function forTest() public pure returns(uint){... */\n      swap1\n      jump\t// out\n        /* \"#utility.yul\":7:121   */\n    tag_111:\n        /* \"#utility.yul\":74:80   */\n      0x00\n        /* \"#utility.yul\":108:113   */\n      dup2\n        /* \"#utility.yul\":102:114   */\n      mload\n        /* \"#utility.yul\":92:114   */\n      swap1\n      pop\n        /* \"#utility.yul\":7:121   */\n      swap2\n      swap1\n      pop\n      jump\t// out\n        /* \"#utility.yul\":127:311   */\n    tag_112:\n        /* \"#utility.yul\":226:237   */\n      0x00\n        /* \"#utility.yul\":260:266   */\n      dup3\n        /* \"#utility.yul\":255:258   */\n      dup3\n        /* \"#utility.yul\":248:267   */\n      mstore\n        /* \"#utility.yul\":300:304   */\n      0x20\n        /* \"#utility.yul\":295:298   */\n      dup3\n        /* \"#utility.yul\":291:305   */\n      add\n        /* \"#utility.yul\":276:305   */\n      swap1\n      pop\n        /* \"#utility.yul\":127:311   */\n      swap3\n      swap2\n      pop\n      pop\n      jump\t// out\n        /* \"#utility.yul\":317:449   */\n    tag_113:\n        /* \"#utility.yul\":384:388   */\n      0x00\n        /* \"#utility.yul\":407:410   */\n      dup2\n        /* \"#utility.yul\":399:410   */\n      swap1\n      pop\n        /* \"#utility.yul\":437:441   */\n      0x20\n        /* \"#utility.yul\":432:435   */\n      dup3\n        /* \"#utility.yul\":428:442   */\n      add\n        /* \"#utility.yul\":420:442   */\n      swap1\n      pop\n        /* \"#utility.yul\":317:449   */\n      swap2\n      swap1\n      pop\n      jump\t// out\n        /* \"#utility.yul\":455:532   */\n    tag_114:\n        /* \"#utility.yul\":492:499   */\n      0x00\n        /* \"#utility.yul\":521:526   */\n      dup2\n        /* \"#utility.yul\":510:526   */\n      swap1\n      pop\n        /* \"#utility.yul\":455:532   */\n      swap2\n      swap1\n      pop\n      jump\t// out\n        /* \"#utility.yul\":538:646   */\n    tag_115:\n        /* \"#utility.yul\":615:639   */\n      tag_143\n        /* \"#utility.yul\":633:638   */\n      dup2\n        /* \"#utility.yul\":615:639   */\n      tag_114\n      jump\t// in\n    tag_143:\n        /* \"#utility.yul\":610:613   */\n      dup3\n        /* \"#utility.yul\":603:640   */\n      mstore\n        /* \"#utility.yul\":538:646   */\n      pop\n      pop\n      jump\t// out\n        /* \"#utility.yul\":652:831   */\n    tag_116:\n        /* \"#utility.yul\":721:731   */\n      0x00\n        /* \"#utility.yul\":742:788   */\n      tag_145\n        /* \"#utility.yul\":784:787   */\n      dup4\n        /* \"#utility.yul\":776:782   */\n      dup4\n        /* \"#utility.yul\":742:788   */\n      tag_115\n      jump\t// in\n    tag_145:\n        /* \"#utility.yul\":820:824   */\n      0x20\n        /* \"#utility.yul\":815:818   */\n      dup4\n        /* \"#utility.yul\":811:825   */\n      add\n        /* \"#utility.yul\":797:825   */\n      swap1\n      pop\n        /* \"#utility.yul\":652:831   */\n      swap3\n      swap2\n      pop\n      pop\n      jump\t// out\n        /* \"#utility.yul\":837:950   */\n    tag_117:\n        /* \"#utility.yul\":907:911   */\n      0x00\n        /* \"#utility.yul\":939:943   */\n      0x20\n        /* \"#utility.yul\":934:937   */\n      dup3\n        /* \"#utility.yul\":930:944   */\n      add\n        /* \"#utility.yul\":922:944   */\n      swap1\n      pop\n        /* \"#utility.yul\":837:950   */\n      swap2\n      swap1\n      pop\n      jump\t// out\n        /* \"#utility.yul\":986:1718   */\n    tag_118:\n        /* \"#utility.yul\":1105:1108   */\n      0x00\n        /* \"#utility.yul\":1134:1188   */\n      tag_148\n        /* \"#utility.yul\":1182:1187   */\n      dup3\n        /* \"#utility.yul\":1134:1188   */\n      tag_111\n      jump\t// in\n    tag_148:\n        /* \"#utility.yul\":1204:1290   */\n      tag_149\n        /* \"#utility.yul\":1283:1289   */\n      dup2\n        /* \"#utility.yul\":1278:1281   */\n      dup6\n        /* \"#utility.yul\":1204:1290   */\n      tag_112\n      jump\t// in\n    tag_149:\n        /* \"#utility.yul\":1197:1290   */\n      swap4\n      pop\n        /* \"#utility.yul\":1314:1370   */\n      tag_150\n        /* \"#utility.yul\":1364:1369   */\n      dup4\n        /* \"#utility.yul\":1314:1370   */\n      tag_113\n      jump\t// in\n    tag_150:\n        /* \"#utility.yul\":1393:1400   */\n      dup1\n        /* \"#utility.yul\":1424:1425   */\n      0x00\n        /* \"#utility.yul\":1409:1693   */\n    tag_151:\n        /* \"#utility.yul\":1434:1440   */\n      dup4\n        /* \"#utility.yul\":1431:1432   */\n      dup2\n        /* \"#utility.yul\":1428:1441   */\n      lt\n        /* \"#utility.yul\":1409:1693   */\n      iszero\n      tag_153\n      jumpi\n        /* \"#utility.yul\":1510:1516   */\n      dup2\n        /* \"#utility.yul\":1504:1517   */\n      mload\n        /* \"#utility.yul\":1537:1600   */\n      tag_154\n        /* \"#utility.yul\":1596:1599   */\n      dup9\n        /* \"#utility.yul\":1581:1594   */\n      dup3\n        /* \"#utility.yul\":1537:1600   */\n      tag_116\n      jump\t// in\n    tag_154:\n        /* \"#utility.yul\":1530:1600   */\n      swap8\n      pop\n        /* \"#utility.yul\":1623:1683   */\n      tag_155\n        /* \"#utility.yul\":1676:1682   */\n      dup4\n        /* \"#utility.yul\":1623:1683   */\n      tag_117\n      jump\t// in\n    tag_155:\n        /* \"#utility.yul\":1613:1683   */\n      swap3\n      pop\n        /* \"#utility.yul\":1469:1693   */\n      pop\n        /* \"#utility.yul\":1456:1457   */\n      0x01\n        /* \"#utility.yul\":1453:1454   */\n      dup2\n        /* \"#utility.yul\":1449:1458   */\n      add\n        /* \"#utility.yul\":1444:1458   */\n      swap1\n      pop\n        /* \"#utility.yul\":1409:1693   */\n      jump(tag_151)\n    tag_153:\n        /* \"#utility.yul\":1413:1427   */\n      pop\n        /* \"#utility.yul\":1709:1712   */\n      dup6\n        /* \"#utility.yul\":1702:1712   */\n      swap4\n      pop\n        /* \"#utility.yul\":1110:1718   */\n      pop\n      pop\n      pop\n        /* \"#utility.yul\":986:1718   */\n      swap3\n      swap2\n      pop\n      pop\n      jump\t// out\n        /* \"#utility.yul\":1724:2097   */\n    tag_16:\n        /* \"#utility.yul\":1867:1871   */\n      0x00\n        /* \"#utility.yul\":1905:1907   */\n      0x20\n        /* \"#utility.yul\":1894:1903   */\n      dup3\n        /* \"#utility.yul\":1890:1908   */\n      add\n        /* \"#utility.yul\":1882:1908   */\n      swap1\n      pop\n        /* \"#utility.yul\":1954:1963   */\n      dup2\n        /* \"#utility.yul\":1948:1952   */\n      dup2\n        /* \"#utility.yul\":1944:1964   */\n      sub\n        /* \"#utility.yul\":1940:1941   */\n      0x00\n        /* \"#utility.yul\":1929:1938   */\n      dup4\n        /* \"#utility.yul\":1925:1942   */\n      add\n        /* \"#utility.yul\":1918:1965   */\n      mstore\n        /* \"#utility.yul\":1982:2090   */\n      tag_157\n        /* \"#utility.yul\":2085:2089   */\n      dup2\n        /* \"#utility.yul\":2076:2082   */\n      dup5\n        /* \"#utility.yul\":1982:2090   */\n      tag_118\n      jump\t// in\n    tag_157:\n        /* \"#utility.yul\":1974:2090   */\n      swap1\n      pop\n        /* \"#utility.yul\":1724:2097   */\n      swap3\n      swap2\n      pop\n      pop\n      jump\t// out\n        /* \"#utility.yul\":2103:2178   */\n    tag_119:\n        /* \"#utility.yul\":2136:2142   */\n      0x00\n        /* \"#utility.yul\":2169:2171   */\n      0x40\n        /* \"#utility.yul\":2163:2172   */\n      mload\n        /* \"#utility.yul\":2153:2172   */\n      swap1\n      pop\n        /* \"#utility.yul\":2103:2178   */\n      swap1\n      jump\t// out\n        /* \"#utility.yul\":2184:2301   */\n    tag_120:\n        /* \"#utility.yul\":2293:2294   */\n      0x00\n        /* \"#utility.yul\":2290:2291   */\n      dup1\n        /* \"#utility.yul\":2283:2295   */\n      revert\n        /* \"#utility.yul\":2307:2424   */\n    tag_121:\n        /* \"#utility.yul\":2416:2417   */\n      0x00\n        /* \"#utility.yul\":2413:2414   */\n      dup1\n        /* \"#utility.yul\":2406:2418   */\n      revert\n        /* \"#utility.yul\":2430:2552   */\n    tag_122:\n        /* \"#utility.yul\":2503:2527   */\n      tag_162\n        /* \"#utility.yul\":2521:2526   */\n      dup2\n        /* \"#utility.yul\":2503:2527   */\n      tag_114\n      jump\t// in\n    tag_162:\n        /* \"#utility.yul\":2496:2501   */\n      dup2\n        /* \"#utility.yul\":2493:2528   */\n      eq\n        /* \"#utility.yul\":2483:2546   */\n      tag_163\n      jumpi\n        /* \"#utility.yul\":2542:2543   */\n      0x00\n        /* \"#utility.yul\":2539:2540   */\n      dup1\n        /* \"#utility.yul\":2532:2544   */\n      revert\n        /* \"#utility.yul\":2483:2546   */\n    tag_163:\n        /* \"#utility.yul\":2430:2552   */\n      pop\n      jump\t// out\n        /* \"#utility.yul\":2558:2697   */\n    tag_123:\n        /* \"#utility.yul\":2604:2609   */\n      0x00\n        /* \"#utility.yul\":2642:2648   */\n      dup2\n        /* \"#utility.yul\":2629:2649   */\n      calldataload\n        /* \"#utility.yul\":2620:2649   */\n      swap1\n      pop\n        /* \"#utility.yul\":2658:2691   */\n      tag_165\n        /* \"#utility.yul\":2685:2690   */\n      dup2\n        /* \"#utility.yul\":2658:2691   */\n      tag_122\n      jump\t// in\n    tag_165:\n        /* \"#utility.yul\":2558:2697   */\n      swap3\n      swap2\n      pop\n      pop\n      jump\t// out\n        /* \"#utility.yul\":2703:3177   */\n    tag_19:\n        /* \"#utility.yul\":2771:2777   */\n      0x00\n        /* \"#utility.yul\":2779:2785   */\n      dup1\n        /* \"#utility.yul\":2828:2830   */\n      0x40\n        /* \"#utility.yul\":2816:2825   */\n      dup4\n        /* \"#utility.yul\":2807:2814   */\n      dup6\n        /* \"#utility.yul\":2803:2826   */\n      sub\n        /* \"#utility.yul\":2799:2831   */\n      slt\n        /* \"#utility.yul\":2796:2915   */\n      iszero\n      tag_167\n      jumpi\n        /* \"#utility.yul\":2834:2913   */\n      tag_168\n      tag_120\n      jump\t// in\n    tag_168:\n        /* \"#utility.yul\":2796:2915   */\n    tag_167:\n        /* \"#utility.yul\":2954:2955   */\n      0x00\n        /* \"#utility.yul\":2979:3032   */\n      tag_169\n        /* \"#utility.yul\":3024:3031   */\n      dup6\n        /* \"#utility.yul\":3015:3021   */\n      dup3\n        /* \"#utility.yul\":3004:3013   */\n      dup7\n        /* \"#utility.yul\":3000:3022   */\n      add\n        /* \"#utility.yul\":2979:3032   */\n      tag_123\n      jump\t// in\n    tag_169:\n        /* \"#utility.yul\":2969:3032   */\n      swap3\n      pop\n        /* \"#utility.yul\":2925:3042   */\n      pop\n        /* \"#utility.yul\":3081:3083   */\n      0x20\n        /* \"#utility.yul\":3107:3160   */\n      tag_170\n        /* \"#utility.yul\":3152:3159   */\n      dup6\n        /* \"#utility.yul\":3143:3149   */\n      dup3\n        /* \"#utility.yul\":3132:3141   */\n      dup7\n        /* \"#utility.yul\":3128:3150   */\n      add\n        /* \"#utility.yul\":3107:3160   */\n      tag_123\n      jump\t// in\n    tag_170:\n        /* \"#utility.yul\":3097:3160   */\n      swap2\n      pop\n        /* \"#utility.yul\":3052:3170   */\n      pop\n        /* \"#utility.yul\":2703:3177   */\n      swap3\n      pop\n      swap3\n      swap1\n      pop\n      jump\t// out\n        /* \"#utility.yul\":3183:3301   */\n    tag_124:\n        /* \"#utility.yul\":3270:3294   */\n      tag_172\n        /* \"#utility.yul\":3288:3293   */\n      dup2\n        /* \"#utility.yul\":3270:3294   */\n      tag_114\n      jump\t// in\n    tag_172:\n        /* \"#utility.yul\":3265:3268   */\n      dup3\n        /* \"#utility.yul\":3258:3295   */\n      mstore\n        /* \"#utility.yul\":3183:3301   */\n      pop\n      pop\n      jump\t// out\n        /* \"#utility.yul\":3307:3529   */\n    tag_22:\n        /* \"#utility.yul\":3400:3404   */\n      0x00\n        /* \"#utility.yul\":3438:3440   */\n      0x20\n        /* \"#utility.yul\":3427:3436   */\n      dup3\n        /* \"#utility.yul\":3423:3441   */\n      add\n        /* \"#utility.yul\":3415:3441   */\n      swap1\n      pop\n        /* \"#utility.yul\":3451:3522   */\n      tag_174\n        /* \"#utility.yul\":3519:3520   */\n      0x00\n        /* \"#utility.yul\":3508:3517   */\n      dup4\n        /* \"#utility.yul\":3504:3521   */\n      add\n        /* \"#utility.yul\":3495:3501   */\n      dup5\n        /* \"#utility.yul\":3451:3522   */\n      tag_124\n      jump\t// in\n    tag_174:\n        /* \"#utility.yul\":3307:3529   */\n      swap3\n      swap2\n      pop\n      pop\n      jump\t// out\n        /* \"#utility.yul\":3535:3652   */\n    tag_125:\n        /* \"#utility.yul\":3644:3645   */\n      0x00\n        /* \"#utility.yul\":3641:3642   */\n      dup1\n        /* \"#utility.yul\":3634:3646   */\n      revert\n        /* \"#utility.yul\":3658:3760   */\n    tag_126:\n        /* \"#utility.yul\":3699:3705   */\n      0x00\n        /* \"#utility.yul\":3750:3752   */\n      0x1f\n        /* \"#utility.yul\":3746:3753   */\n      not\n        /* \"#utility.yul\":3741:3743   */\n      0x1f\n        /* \"#utility.yul\":3734:3739   */\n      dup4\n        /* \"#utility.yul\":3730:3744   */\n      add\n        /* \"#utility.yul\":3726:3754   */\n      and\n        /* \"#utility.yul\":3716:3754   */\n      swap1\n      pop\n        /* \"#utility.yul\":3658:3760   */\n      swap2\n      swap1\n      pop\n      jump\t// out\n        /* \"#utility.yul\":3766:3946   */\n    tag_127:\n        /* \"#utility.yul\":3814:3891   */\n      0x4e487b7100000000000000000000000000000000000000000000000000000000\n        /* \"#utility.yul\":3811:3812   */\n      0x00\n        /* \"#utility.yul\":3804:3892   */\n      mstore\n        /* \"#utility.yul\":3911:3915   */\n      0x41\n        /* \"#utility.yul\":3908:3909   */\n      0x04\n        /* \"#utility.yul\":3901:3916   */\n      mstore\n        /* \"#utility.yul\":3935:3939   */\n      0x24\n        /* \"#utility.yul\":3932:3933   */\n      0x00\n        /* \"#utility.yul\":3925:3940   */\n      revert\n        /* \"#utility.yul\":3952:4233   */\n    tag_128:\n        /* \"#utility.yul\":4035:4062   */\n      tag_179\n        /* \"#utility.yul\":4057:4061   */\n      dup3\n        /* \"#utility.yul\":4035:4062   */\n      tag_126\n      jump\t// in\n    tag_179:\n        /* \"#utility.yul\":4027:4033   */\n      dup2\n        /* \"#utility.yul\":4023:4063   */\n      add\n        /* \"#utility.yul\":4165:4171   */\n      dup2\n        /* \"#utility.yul\":4153:4163   */\n      dup2\n        /* \"#utility.yul\":4150:4172   */\n      lt\n        /* \"#utility.yul\":4129:4147   */\n      0xffffffffffffffff\n        /* \"#utility.yul\":4117:4127   */\n      dup3\n        /* \"#utility.yul\":4114:4148   */\n      gt\n        /* \"#utility.yul\":4111:4173   */\n      or\n        /* \"#utility.yul\":4108:4196   */\n      iszero\n      tag_180\n      jumpi\n        /* \"#utility.yul\":4176:4194   */\n      tag_181\n      tag_127\n      jump\t// in\n    tag_181:\n        /* \"#utility.yul\":4108:4196   */\n    tag_180:\n        /* \"#utility.yul\":4216:4226   */\n      dup1\n        /* \"#utility.yul\":4212:4214   */\n      0x40\n        /* \"#utility.yul\":4205:4227   */\n      mstore\n        /* \"#utility.yul\":3995:4233   */\n      pop\n        /* \"#utility.yul\":3952:4233   */\n      pop\n      pop\n      jump\t// out\n        /* \"#utility.yul\":4239:4368   */\n    tag_129:\n        /* \"#utility.yul\":4273:4279   */\n      0x00\n        /* \"#utility.yul\":4300:4320   */\n      tag_183\n      tag_119\n      jump\t// in\n    tag_183:\n        /* \"#utility.yul\":4290:4320   */\n      swap1\n      pop\n        /* \"#utility.yul\":4329:4362   */\n      tag_184\n        /* \"#utility.yul\":4357:4361   */\n      dup3\n        /* \"#utility.yul\":4349:4355   */\n      dup3\n        /* \"#utility.yul\":4329:4362   */\n      tag_128\n      jump\t// in\n    tag_184:\n        /* \"#utility.yul\":4239:4368   */\n      swap2\n      swap1\n      pop\n      jump\t// out\n        /* \"#utility.yul\":4374:4685   */\n    tag_130:\n        /* \"#utility.yul\":4451:4455   */\n      0x00\n        /* \"#utility.yul\":4541:4559   */\n      0xffffffffffffffff\n        /* \"#utility.yul\":4533:4539   */\n      dup3\n        /* \"#utility.yul\":4530:4560   */\n      gt\n        /* \"#utility.yul\":4527:4583   */\n      iszero\n      tag_186\n      jumpi\n        /* \"#utility.yul\":4563:4581   */\n      tag_187\n      tag_127\n      jump\t// in\n    tag_187:\n        /* \"#utility.yul\":4527:4583   */\n    tag_186:\n        /* \"#utility.yul\":4613:4617   */\n      0x20\n        /* \"#utility.yul\":4605:4611   */\n      dup3\n        /* \"#utility.yul\":4601:4618   */\n      mul\n        /* \"#utility.yul\":4593:4618   */\n      swap1\n      pop\n        /* \"#utility.yul\":4673:4677   */\n      0x20\n        /* \"#utility.yul\":4667:4671   */\n      dup2\n        /* \"#utility.yul\":4663:4678   */\n      add\n        /* \"#utility.yul\":4655:4678   */\n      swap1\n      pop\n        /* \"#utility.yul\":4374:4685   */\n      swap2\n      swap1\n      pop\n      jump\t// out\n        /* \"#utility.yul\":4691:4808   */\n    tag_131:\n        /* \"#utility.yul\":4800:4801   */\n      0x00\n        /* \"#utility.yul\":4797:4798   */\n      dup1\n        /* \"#utility.yul\":4790:4802   */\n      revert\n        /* \"#utility.yul\":4831:5541   */\n    tag_132:\n        /* \"#utility.yul\":4927:4932   */\n      0x00\n        /* \"#utility.yul\":4952:5033   */\n      tag_190\n        /* \"#utility.yul\":4968:5032   */\n      tag_191\n        /* \"#utility.yul\":5025:5031   */\n      dup5\n        /* \"#utility.yul\":4968:5032   */\n      tag_130\n      jump\t// in\n    tag_191:\n        /* \"#utility.yul\":4952:5033   */\n      tag_129\n      jump\t// in\n    tag_190:\n        /* \"#utility.yul\":4943:5033   */\n      swap1\n      pop\n        /* \"#utility.yul\":5053:5058   */\n      dup1\n        /* \"#utility.yul\":5082:5088   */\n      dup4\n        /* \"#utility.yul\":5075:5080   */\n      dup3\n        /* \"#utility.yul\":5068:5089   */\n      mstore\n        /* \"#utility.yul\":5116:5120   */\n      0x20\n        /* \"#utility.yul\":5109:5114   */\n      dup3\n        /* \"#utility.yul\":5105:5121   */\n      add\n        /* \"#utility.yul\":5098:5121   */\n      swap1\n      pop\n        /* \"#utility.yul\":5169:5173   */\n      0x20\n        /* \"#utility.yul\":5161:5167   */\n      dup5\n        /* \"#utility.yul\":5157:5174   */\n      mul\n        /* \"#utility.yul\":5149:5155   */\n      dup4\n        /* \"#utility.yul\":5145:5175   */\n      add\n        /* \"#utility.yul\":5198:5201   */\n      dup6\n        /* \"#utility.yul\":5190:5196   */\n      dup2\n        /* \"#utility.yul\":5187:5202   */\n      gt\n        /* \"#utility.yul\":5184:5306   */\n      iszero\n      tag_192\n      jumpi\n        /* \"#utility.yul\":5217:5296   */\n      tag_193\n      tag_131\n      jump\t// in\n    tag_193:\n        /* \"#utility.yul\":5184:5306   */\n    tag_192:\n        /* \"#utility.yul\":5332:5338   */\n      dup4\n        /* \"#utility.yul\":5315:5535   */\n    tag_194:\n        /* \"#utility.yul\":5349:5355   */\n      dup2\n        /* \"#utility.yul\":5344:5347   */\n      dup2\n        /* \"#utility.yul\":5341:5356   */\n      lt\n        /* \"#utility.yul\":5315:5535   */\n      iszero\n      tag_196\n      jumpi\n        /* \"#utility.yul\":5424:5427   */\n      dup1\n        /* \"#utility.yul\":5453:5490   */\n      tag_197\n        /* \"#utility.yul\":5486:5489   */\n      dup9\n        /* \"#utility.yul\":5474:5484   */\n      dup3\n        /* \"#utility.yul\":5453:5490   */\n      tag_123\n      jump\t// in\n    tag_197:\n        /* \"#utility.yul\":5448:5451   */\n      dup5\n        /* \"#utility.yul\":5441:5491   */\n      mstore\n        /* \"#utility.yul\":5520:5524   */\n      0x20\n        /* \"#utility.yul\":5515:5518   */\n      dup5\n        /* \"#utility.yul\":5511:5525   */\n      add\n        /* \"#utility.yul\":5504:5525   */\n      swap4\n      pop\n        /* \"#utility.yul\":5391:5535   */\n      pop\n        /* \"#utility.yul\":5375:5379   */\n      0x20\n        /* \"#utility.yul\":5370:5373   */\n      dup2\n        /* \"#utility.yul\":5366:5380   */\n      add\n        /* \"#utility.yul\":5359:5380   */\n      swap1\n      pop\n        /* \"#utility.yul\":5315:5535   */\n      jump(tag_194)\n    tag_196:\n        /* \"#utility.yul\":5319:5340   */\n      pop\n        /* \"#utility.yul\":4933:5541   */\n      pop\n      pop\n        /* \"#utility.yul\":4831:5541   */\n      swap4\n      swap3\n      pop\n      pop\n      pop\n      jump\t// out\n        /* \"#utility.yul\":5564:5934   */\n    tag_133:\n        /* \"#utility.yul\":5635:5640   */\n      0x00\n        /* \"#utility.yul\":5684:5687   */\n      dup3\n        /* \"#utility.yul\":5677:5681   */\n      0x1f\n        /* \"#utility.yul\":5669:5675   */\n      dup4\n        /* \"#utility.yul\":5665:5682   */\n      add\n        /* \"#utility.yul\":5661:5688   */\n      slt\n        /* \"#utility.yul\":5651:5773   */\n      tag_199\n      jumpi\n        /* \"#utility.yul\":5692:5771   */\n      tag_200\n      tag_125\n      jump\t// in\n    tag_200:\n        /* \"#utility.yul\":5651:5773   */\n    tag_199:\n        /* \"#utility.yul\":5809:5815   */\n      dup2\n        /* \"#utility.yul\":5796:5816   */\n      calldataload\n        /* \"#utility.yul\":5834:5928   */\n      tag_201\n        /* \"#utility.yul\":5924:5927   */\n      dup5\n        /* \"#utility.yul\":5916:5922   */\n      dup3\n        /* \"#utility.yul\":5909:5913   */\n      0x20\n        /* \"#utility.yul\":5901:5907   */\n      dup7\n        /* \"#utility.yul\":5897:5914   */\n      add\n        /* \"#utility.yul\":5834:5928   */\n      tag_132\n      jump\t// in\n    tag_201:\n        /* \"#utility.yul\":5825:5928   */\n      swap2\n      pop\n        /* \"#utility.yul\":5641:5934   */\n      pop\n        /* \"#utility.yul\":5564:5934   */\n      swap3\n      swap2\n      pop\n      pop\n      jump\t// out\n        /* \"#utility.yul\":5940:6479   */\n    tag_31:\n        /* \"#utility.yul\":6024:6030   */\n      0x00\n        /* \"#utility.yul\":6073:6075   */\n      0x20\n        /* \"#utility.yul\":6061:6070   */\n      dup3\n        /* \"#utility.yul\":6052:6059   */\n      dup5\n        /* \"#utility.yul\":6048:6071   */\n      sub\n        /* \"#utility.yul\":6044:6076   */\n      slt\n        /* \"#utility.yul\":6041:6160   */\n      iszero\n      tag_203\n      jumpi\n        /* \"#utility.yul\":6079:6158   */\n      tag_204\n      tag_120\n      jump\t// in\n    tag_204:\n        /* \"#utility.yul\":6041:6160   */\n    tag_203:\n        /* \"#utility.yul\":6227:6228   */\n      0x00\n        /* \"#utility.yul\":6216:6225   */\n      dup3\n        /* \"#utility.yul\":6212:6229   */\n      add\n        /* \"#utility.yul\":6199:6230   */\n      calldataload\n        /* \"#utility.yul\":6257:6275   */\n      0xffffffffffffffff\n        /* \"#utility.yul\":6249:6255   */\n      dup2\n        /* \"#utility.yul\":6246:6276   */\n      gt\n        /* \"#utility.yul\":6243:6360   */\n      iszero\n      tag_205\n      jumpi\n        /* \"#utility.yul\":6279:6358   */\n      tag_206\n      tag_121\n      jump\t// in\n    tag_206:\n        /* \"#utility.yul\":6243:6360   */\n    tag_205:\n        /* \"#utility.yul\":6384:6462   */\n      tag_207\n        /* \"#utility.yul\":6454:6461   */\n      dup5\n        /* \"#utility.yul\":6445:6451   */\n      dup3\n        /* \"#utility.yul\":6434:6443   */\n      dup6\n        /* \"#utility.yul\":6430:6452   */\n      add\n        /* \"#utility.yul\":6384:6462   */\n      tag_133\n      jump\t// in\n    tag_207:\n        /* \"#utility.yul\":6374:6462   */\n      swap2\n      pop\n        /* \"#utility.yul\":6170:6472   */\n      pop\n        /* \"#utility.yul\":5940:6479   */\n      swap3\n      swap2\n      pop\n      pop\n      jump\t// out\n        /* \"#utility.yul\":6485:6814   */\n    tag_36:\n        /* \"#utility.yul\":6544:6550   */\n      0x00\n        /* \"#utility.yul\":6593:6595   */\n      0x20\n        /* \"#utility.yul\":6581:6590   */\n      dup3\n        /* \"#utility.yul\":6572:6579   */\n      dup5\n        /* \"#utility.yul\":6568:6591   */\n      sub\n        /* \"#utility.yul\":6564:6596   */\n      slt\n        /* \"#utility.yul\":6561:6680   */\n      iszero\n      tag_209\n      jumpi\n        /* \"#utility.yul\":6599:6678   */\n      tag_210\n      tag_120\n      jump\t// in\n    tag_210:\n        /* \"#utility.yul\":6561:6680   */\n    tag_209:\n        /* \"#utility.yul\":6719:6720   */\n      0x00\n        /* \"#utility.yul\":6744:6797   */\n      tag_211\n        /* \"#utility.yul\":6789:6796   */\n      dup5\n        /* \"#utility.yul\":6780:6786   */\n      dup3\n        /* \"#utility.yul\":6769:6778   */\n      dup6\n        /* \"#utility.yul\":6765:6787   */\n      add\n        /* \"#utility.yul\":6744:6797   */\n      tag_123\n      jump\t// in\n    tag_211:\n        /* \"#utility.yul\":6734:6797   */\n      swap2\n      pop\n        /* \"#utility.yul\":6690:6807   */\n      pop\n        /* \"#utility.yul\":6485:6814   */\n      swap3\n      swap2\n      pop\n      pop\n      jump\t// out\n        /* \"#utility.yul\":6820:6910   */\n    tag_134:\n        /* \"#utility.yul\":6854:6861   */\n      0x00\n        /* \"#utility.yul\":6897:6902   */\n      dup2\n        /* \"#utility.yul\":6890:6903   */\n      iszero\n        /* \"#utility.yul\":6883:6904   */\n      iszero\n        /* \"#utility.yul\":6872:6904   */\n      swap1\n      pop\n        /* \"#utility.yul\":6820:6910   */\n      swap2\n      swap1\n      pop\n      jump\t// out\n        /* \"#utility.yul\":6916:7025   */\n    tag_135:\n        /* \"#utility.yul\":6997:7018   */\n      tag_214\n        /* \"#utility.yul\":7012:7017   */\n      dup2\n        /* \"#utility.yul\":6997:7018   */\n      tag_134\n      jump\t// in\n    tag_214:\n        /* \"#utility.yul\":6992:6995   */\n      dup3\n        /* \"#utility.yul\":6985:7019   */\n      mstore\n        /* \"#utility.yul\":6916:7025   */\n      pop\n      pop\n      jump\t// out\n        /* \"#utility.yul\":7031:7241   */\n    tag_39:\n        /* \"#utility.yul\":7118:7122   */\n      0x00\n        /* \"#utility.yul\":7156:7158   */\n      0x20\n        /* \"#utility.yul\":7145:7154   */\n      dup3\n        /* \"#utility.yul\":7141:7159   */\n      add\n        /* \"#utility.yul\":7133:7159   */\n      swap1\n      pop\n        /* \"#utility.yul\":7169:7234   */\n      tag_216\n        /* \"#utility.yul\":7231:7232   */\n      0x00\n        /* \"#utility.yul\":7220:7229   */\n      dup4\n        /* \"#utility.yul\":7216:7233   */\n      add\n        /* \"#utility.yul\":7207:7213   */\n      dup5\n        /* \"#utility.yul\":7169:7234   */\n      tag_135\n      jump\t// in\n    tag_216:\n        /* \"#utility.yul\":7031:7241   */\n      swap3\n      swap2\n      pop\n      pop\n      jump\t// out\n        /* \"#utility.yul\":7247:7427   */\n    tag_136:\n        /* \"#utility.yul\":7295:7372   */\n      0x4e487b7100000000000000000000000000000000000000000000000000000000\n        /* \"#utility.yul\":7292:7293   */\n      0x00\n        /* \"#utility.yul\":7285:7373   */\n      mstore\n        /* \"#utility.yul\":7392:7396   */\n      0x11\n        /* \"#utility.yul\":7389:7390   */\n      0x04\n        /* \"#utility.yul\":7382:7397   */\n      mstore\n        /* \"#utility.yul\":7416:7420   */\n      0x24\n        /* \"#utility.yul\":7413:7414   */\n      0x00\n        /* \"#utility.yul\":7406:7421   */\n      revert\n        /* \"#utility.yul\":7433:7666   */\n    tag_54:\n        /* \"#utility.yul\":7472:7475   */\n      0x00\n        /* \"#utility.yul\":7495:7519   */\n      tag_219\n        /* \"#utility.yul\":7513:7518   */\n      dup3\n        /* \"#utility.yul\":7495:7519   */\n      tag_114\n      jump\t// in\n    tag_219:\n        /* \"#utility.yul\":7486:7519   */\n      swap2\n      pop\n        /* \"#utility.yul\":7541:7607   */\n      0xffffffffffffffffffffffffffffffffffffffffffffffffffffffffffffffff\n        /* \"#utility.yul\":7534:7539   */\n      dup3\n        /* \"#utility.yul\":7531:7608   */\n      sub\n        /* \"#utility.yul\":7528:7631   */\n      tag_220\n      jumpi\n        /* \"#utility.yul\":7611:7629   */\n      tag_221\n      tag_136\n      jump\t// in\n    tag_221:\n        /* \"#utility.yul\":7528:7631   */\n    tag_220:\n        /* \"#utility.yul\":7658:7659   */\n      0x01\n        /* \"#utility.yul\":7651:7656   */\n      dup3\n        /* \"#utility.yul\":7647:7660   */\n      add\n        /* \"#utility.yul\":7640:7660   */\n      swap1\n      pop\n        /* \"#utility.yul\":7433:7666   */\n      swap2\n      swap1\n      pop\n      jump\t// out\n        /* \"#utility.yul\":7672:7863   */\n    tag_68:\n        /* \"#utility.yul\":7712:7715   */\n      0x00\n        /* \"#utility.yul\":7731:7751   */\n      tag_223\n        /* \"#utility.yul\":7749:7750   */\n      dup3\n        /* \"#utility.yul\":7731:7751   */\n      tag_114\n      jump\t// in\n    tag_223:\n        /* \"#utility.yul\":7726:7751   */\n      swap2\n      pop\n        /* \"#utility.yul\":7765:7785   */\n      tag_224\n        /* \"#utility.yul\":7783:7784   */\n      dup4\n        /* \"#utility.yul\":7765:7785   */\n      tag_114\n      jump\t// in\n    tag_224:\n        /* \"#utility.yul\":7760:7785   */\n      swap3\n      pop\n        /* \"#utility.yul\":7808:7809   */\n      dup3\n        /* \"#utility.yul\":7805:7806   */\n      dup3\n        /* \"#utility.yul\":7801:7810   */\n      add\n        /* \"#utility.yul\":7794:7810   */\n      swap1\n      pop\n        /* \"#utility.yul\":7829:7832   */\n      dup1\n        /* \"#utility.yul\":7826:7827   */\n      dup3\n        /* \"#utility.yul\":7823:7833   */\n      gt\n        /* \"#utility.yul\":7820:7856   */\n      iszero\n      tag_225\n      jumpi\n        /* \"#utility.yul\":7836:7854   */\n      tag_226\n      tag_136\n      jump\t// in\n    tag_226:\n        /* \"#utility.yul\":7820:7856   */\n    tag_225:\n        /* \"#utility.yul\":7672:7863   */\n      swap3\n      swap2\n      pop\n      pop\n      jump\t// out\n        /* \"#utility.yul\":7869:8049   */\n    tag_81:\n        /* \"#utility.yul\":7917:7994   */\n      0x4e487b7100000000000000000000000000000000000000000000000000000000\n        /* \"#utility.yul\":7914:7915   */\n      0x00\n        /* \"#utility.yul\":7907:7995   */\n      mstore\n        /* \"#utility.yul\":8014:8018   */\n      0x32\n        /* \"#utility.yul\":8011:8012   */\n      0x04\n        /* \"#utility.yul\":8004:8019   */\n      mstore\n        /* \"#utility.yul\":8038:8042   */\n      0x24\n        /* \"#utility.yul\":8035:8036   */\n      0x00\n        /* \"#utility.yul\":8028:8043   */\n      revert\n        /* \"#utility.yul\":8055:8249   */\n    tag_86:\n        /* \"#utility.yul\":8095:8099   */\n      0x00\n        /* \"#utility.yul\":8115:8135   */\n      tag_229\n        /* \"#utility.yul\":8133:8134   */\n      dup3\n        /* \"#utility.yul\":8115:8135   */\n      tag_114\n      jump\t// in\n    tag_229:\n        /* \"#utility.yul\":8110:8135   */\n      swap2\n      pop\n        /* \"#utility.yul\":8149:8169   */\n      tag_230\n        /* \"#utility.yul\":8167:8168   */\n      dup4\n        /* \"#utility.yul\":8149:8169   */\n      tag_114\n      jump\t// in\n    tag_230:\n        /* \"#utility.yul\":8144:8169   */\n      swap3\n      pop\n        /* \"#utility.yul\":8193:8194   */\n      dup3\n        /* \"#utility.yul\":8190:8191   */\n      dup3\n        /* \"#utility.yul\":8186:8195   */\n      sub\n        /* \"#utility.yul\":8178:8195   */\n      swap1\n      pop\n        /* \"#utility.yul\":8217:8218   */\n      dup2\n        /* \"#utility.yul\":8211:8215   */\n      dup2\n        /* \"#utility.yul\":8208:8219   */\n      gt\n        /* \"#utility.yul\":8205:8242   */\n      iszero\n      tag_231\n      jumpi\n        /* \"#utility.yul\":8222:8240   */\n      tag_232\n      tag_136\n      jump\t// in\n    tag_232:\n        /* \"#utility.yul\":8205:8242   */\n    tag_231:\n        /* \"#utility.yul\":8055:8249   */\n      swap3\n      swap2\n      pop\n      pop\n      jump\t// out\n        /* \"#utility.yul\":8255:8426   */\n    tag_95:\n        /* \"#utility.yul\":8294:8297   */\n      0x00\n        /* \"#utility.yul\":8317:8341   */\n      tag_234\n        /* \"#utility.yul\":8335:8340   */\n      dup3\n        /* \"#utility.yul\":8317:8341   */\n      tag_114\n      jump\t// in\n    tag_234:\n        /* \"#utility.yul\":8308:8341   */\n      swap2\n      pop\n        /* \"#utility.yul\":8363:8367   */\n      0x00\n        /* \"#utility.yul\":8356:8361   */\n      dup3\n        /* \"#utility.yul\":8353:8368   */\n      sub\n        /* \"#utility.yul\":8350:8391   */\n      tag_235\n      jumpi\n        /* \"#utility.yul\":8371:8389   */\n      tag_236\n      tag_136\n      jump\t// in\n    tag_236:\n        /* \"#utility.yul\":8350:8391   */\n    tag_235:\n        /* \"#utility.yul\":8418:8419   */\n      0x01\n        /* \"#utility.yul\":8411:8416   */\n      dup3\n        /* \"#utility.yul\":8407:8420   */\n      sub\n        /* \"#utility.yul\":8400:8420   */\n      swap1\n      pop\n        /* \"#utility.yul\":8255:8426   */\n      swap2\n      swap1\n      pop\n      jump\t// out\n\n    auxdata: 0xa264697066735822122090a7f0d8605c50f470a44b176f4f90c53bc91874d501b4b34a1110530913de5564736f6c63430008190033\n}\n",
				"bytecode": {
					"linkReferences": {},
					"object": "6080604052348015600f57600080fd5b50610a048061001f6000396000f3fe608060405234801561001057600080fd5b50600436106100935760003560e01c80636297206f116100665780636297206f146101225780638ab605e5146101525780639bc0168a14610182578063d504ea1d146101b2578063de152f8d146101d057610093565b80630f55bd121461009857806328766320146100b65780632bbacaaa146100e65780635d14639d14610104575b600080fd5b6100a06101ee565b6040516100ad91906105c6565b60405180910390f35b6100d060048036038101906100cb9190610628565b6102a1565b6040516100dd9190610677565b60405180910390f35b6100ee6102bb565b6040516100fb9190610677565b60405180910390f35b61010c6102f1565b6040516101199190610677565b60405180910390f35b61013c600480360381019061013791906107eb565b61032d565b60405161014991906105c6565b60405180910390f35b61016c60048036038101906101679190610834565b610430565b604051610179919061087c565b60405180910390f35b61019c60048036038101906101979190610834565b61044c565b6040516101a99190610677565b60405180910390f35b6101ba610470565b6040516101c791906105c6565b60405180910390f35b6101d86104c8565b6040516101e59190610677565b60405180910390f35b606060005b600a81101561024a578080610207906108c6565b91505060028103156101f357600481031561024a5760008190806001815401808255809150506001900390600052602060002001600090919091909150556101f3565b600080548060200260200160405190810160405280929190818152602001828054801561029657602002820191906000526020600020905b815481526020019060010190808311610282575b505050505091505090565b6000818310156102b157816102b3565b825b905092915050565b6000806000905060005b80826102d1919061090e565b915080806102de906108c6565b915050600a81106102c557819250505090565b6000806000905060005b600a811015610325578082610310919061090e565b9150808061031d906108c6565b9150506102fb565b819250505090565b60606000600190505b825181101561042757600083828151811061035457610353610942565b5b6020026020010151905060008290505b6001811015801561039a5750818560018361037f9190610971565b815181106103905761038f610942565b5b6020026020010151115b156103f857846001826103ad9190610971565b815181106103be576103bd610942565b5b60200260200101518582815181106103d9576103d8610942565b5b60200260200101818152505080806103f0906109a5565b915050610364565b8185828151811061040c5761040b610942565b5b60200260200101818152505050508080600101915050610336565b50819050919050565b60008082036104425760019050610447565b600090505b919050565b6000818154811061045c57600080fd5b906000526020600020016000915090505481565b606060008054806020026020016040519081016040528092919081815260200182805480156104be57602002820191906000526020600020905b8154815260200190600101908083116104aa575b5050505050905090565b6000806000905060005b600a8110156104f65780826104e7919061090e565b915080806001019150506104d2565b508091505090565b600081519050919050565b600082825260208201905092915050565b6000819050602082019050919050565b6000819050919050565b61053d8161052a565b82525050565b600061054f8383610534565b60208301905092915050565b6000602082019050919050565b6000610573826104fe565b61057d8185610509565b93506105888361051a565b8060005b838110156105b95781516105a08882610543565b97506105ab8361055b565b92505060018101905061058c565b5085935050505092915050565b600060208201905081810360008301526105e08184610568565b905092915050565b6000604051905090565b600080fd5b600080fd5b6106058161052a565b811461061057600080fd5b50565b600081359050610622816105fc565b92915050565b6000806040838503121561063f5761063e6105f2565b5b600061064d85828601610613565b925050602061065e85828601610613565b9150509250929050565b6106718161052a565b82525050565b600060208201905061068c6000830184610668565b92915050565b600080fd5b6000601f19601f8301169050919050565b7f4e487b7100000000000000000000000000000000000000000000000000000000600052604160045260246000fd5b6106e082610697565b810181811067ffffffffffffffff821117156106ff576106fe6106a8565b5b80604052505050565b60006107126105e8565b905061071e82826106d7565b919050565b600067ffffffffffffffff82111561073e5761073d6106a8565b5b602082029050602081019050919050565b600080fd5b600061076761076284610723565b610708565b9050808382526020820190506020840283018581111561078a5761078961074f565b5b835b818110156107b3578061079f8882610613565b84526020840193505060208101905061078c565b5050509392505050565b600082601f8301126107d2576107d1610692565b5b81356107e2848260208601610754565b91505092915050565b600060208284031215610801576108006105f2565b5b600082013567ffffffffffffffff81111561081f5761081e6105f7565b5b61082b848285016107bd565b91505092915050565b60006020828403121561084a576108496105f2565b5b600061085884828501610613565b91505092915050565b60008115159050919050565b61087681610861565b82525050565b6000602082019050610891600083018461086d565b92915050565b7f4e487b7100000000000000000000000000000000000000000000000000000000600052601160045260246000fd5b60006108d18261052a565b91507fffffffffffffffffffffffffffffffffffffffffffffffffffffffffffffffff820361090357610902610897565b5b600182019050919050565b60006109198261052a565b91506109248361052a565b925082820190508082111561093c5761093b610897565b5b92915050565b7f4e487b7100000000000000000000000000000000000000000000000000000000600052603260045260246000fd5b600061097c8261052a565b91506109878361052a565b925082820390508181111561099f5761099e610897565b5b92915050565b60006109b08261052a565b9150600082036109c3576109c2610897565b5b60018203905091905056fea264697066735822122090a7f0d8605c50f470a44b176f4f90c53bc91874d501b4b34a1110530913de5564736f6c63430008190033",
					"opcodes": "PUSH1 0x80 PUSH1 0x40 MSTORE CALLVALUE DUP1 ISZERO PUSH1 0xF JUMPI PUSH1 0x0 DUP1 REVERT JUMPDEST POP PUSH2 0xA04 DUP1 PUSH2 0x1F PUSH1 0x0 CODECOPY PUSH1 0x0 RETURN INVALID PUSH1 0x80 PUSH1 0x40 MSTORE CALLVALUE DUP1 ISZERO PUSH2 0x10 JUMPI PUSH1 0x0 DUP1 REVERT JUMPDEST POP PUSH1 0x4 CALLDATASIZE LT PUSH2 0x93 JUMPI PUSH1 0x0 CALLDATALOAD PUSH1 0xE0 SHR DUP1 PUSH4 0x6297206F GT PUSH2 0x66 JUMPI DUP1 PUSH4 0x6297206F EQ PUSH2 0x122 JUMPI DUP1 PUSH4 0x8AB605E5 EQ PUSH2 0x152 JUMPI DUP1 PUSH4 0x9BC0168A EQ PUSH2 0x182 JUMPI DUP1 PUSH4 0xD504EA1D EQ PUSH2 0x1B2 JUMPI DUP1 PUSH4 0xDE152F8D EQ PUSH2 0x1D0 JUMPI PUSH2 0x93 JUMP JUMPDEST DUP1 PUSH4 0xF55BD12 EQ PUSH2 0x98 JUMPI DUP1 PUSH4 0x28766320 EQ PUSH2 0xB6 JUMPI DUP1 PUSH4 0x2BBACAAA EQ PUSH2 0xE6 JUMPI DUP1 PUSH4 0x5D14639D EQ PUSH2 0x104 JUMPI JUMPDEST PUSH1 0x0 DUP1 REVERT JUMPDEST PUSH2 0xA0 PUSH2 0x1EE JUMP JUMPDEST PUSH1 0x40 MLOAD PUSH2 0xAD SWAP2 SWAP1 PUSH2 0x5C6 JUMP JUMPDEST PUSH1 0x40 MLOAD DUP1 SWAP2 SUB SWAP1 RETURN JUMPDEST PUSH2 0xD0 PUSH1 0x4 DUP1 CALLDATASIZE SUB DUP2 ADD SWAP1 PUSH2 0xCB SWAP2 SWAP1 PUSH2 0x628 JUMP JUMPDEST PUSH2 0x2A1 JUMP JUMPDEST PUSH1 0x40 MLOAD PUSH2 0xDD SWAP2 SWAP1 PUSH2 0x677 JUMP JUMPDEST PUSH1 0x40 MLOAD DUP1 SWAP2 SUB SWAP1 RETURN JUMPDEST PUSH2 0xEE PUSH2 0x2BB JUMP JUMPDEST PUSH1 0x40 MLOAD PUSH2 0xFB SWAP2 SWAP1 PUSH2 0x677 JUMP JUMPDEST PUSH1 0x40 MLOAD DUP1 SWAP2 SUB SWAP1 RETURN JUMPDEST PUSH2 0x10C PUSH2 0x2F1 JUMP JUMPDEST PUSH1 0x40 MLOAD PUSH2 0x119 SWAP2 SWAP1 PUSH2 0x677 JUMP JUMPDEST PUSH1 0x40 MLOAD DUP1 SWAP2 SUB SWAP1 RETURN JUMPDEST PUSH2 0x13C PUSH1 0x4 DUP1 CALLDATASIZE SUB DUP2 ADD SWAP1 PUSH2 0x137 SWAP2 SWAP1 PUSH2 0x7EB JUMP JUMPDEST PUSH2 0x32D JUMP JUMPDEST PUSH1 0x40 MLOAD PUSH2 0x149 SWAP2 SWAP1 PUSH2 0x5C6 JUMP JUMPDEST PUSH1 0x40 MLOAD DUP1 SWAP2 SUB SWAP1 RETURN JUMPDEST PUSH2 0x16C PUSH1 0x4 DUP1 CALLDATASIZE SUB DUP2 ADD SWAP1 PUSH2 0x167 SWAP2 SWAP1 PUSH2 0x834 JUMP JUMPDEST PUSH2 0x430 JUMP JUMPDEST PUSH1 0x40 MLOAD PUSH2 0x179 SWAP2 SWAP1 PUSH2 0x87C JUMP JUMPDEST PUSH1 0x40 MLOAD DUP1 SWAP2 SUB SWAP1 RETURN JUMPDEST PUSH2 0x19C PUSH1 0x4 DUP1 CALLDATASIZE SUB DUP2 ADD SWAP1 PUSH2 0x197 SWAP2 SWAP1 PUSH2 0x834 JUMP JUMPDEST PUSH2 0x44C JUMP JUMPDEST PUSH1 0x40 MLOAD PUSH2 0x1A9 SWAP2 SWAP1 PUSH2 0x677 JUMP JUMPDEST PUSH1 0x40 MLOAD DUP1 SWAP2 SUB SWAP1 RETURN JUMPDEST PUSH2 0x1BA PUSH2 0x470 JUMP JUMPDEST PUSH1 0x40 MLOAD PUSH2 0x1C7 SWAP2 SWAP1 PUSH2 0x5C6 JUMP JUMPDEST PUSH1 0x40 MLOAD DUP1 SWAP2 SUB SWAP1 RETURN JUMPDEST PUSH2 0x1D8 PUSH2 0x4C8 JUMP JUMPDEST PUSH1 0x40 MLOAD PUSH2 0x1E5 SWAP2 SWAP1 PUSH2 0x677 JUMP JUMPDEST PUSH1 0x40 MLOAD DUP1 SWAP2 SUB SWAP1 RETURN JUMPDEST PUSH1 0x60 PUSH1 0x0 JUMPDEST PUSH1 0xA DUP2 LT ISZERO PUSH2 0x24A JUMPI DUP1 DUP1 PUSH2 0x207 SWAP1 PUSH2 0x8C6 JUMP JUMPDEST SWAP2 POP POP PUSH1 0x2 DUP2 SUB ISZERO PUSH2 0x1F3 JUMPI PUSH1 0x4 DUP2 SUB ISZERO PUSH2 0x24A JUMPI PUSH1 0x0 DUP2 SWAP1 DUP1 PUSH1 0x1 DUP2 SLOAD ADD DUP1 DUP3 SSTORE DUP1 SWAP2 POP POP PUSH1 0x1 SWAP1 SUB SWAP1 PUSH1 0x0 MSTORE PUSH1 0x20 PUSH1 0x0 KECCAK256 ADD PUSH1 0x0 SWAP1 SWAP2 SWAP1 SWAP2 SWAP1 SWAP2 POP SSTORE PUSH2 0x1F3 JUMP JUMPDEST PUSH1 0x0 DUP1 SLOAD DUP1 PUSH1 0x20 MUL PUSH1 0x20 ADD PUSH1 0x40 MLOAD SWAP1 DUP2 ADD PUSH1 0x40 MSTORE DUP1 SWAP3 SWAP2 SWAP1 DUP2 DUP2 MSTORE PUSH1 0x20 ADD DUP3 DUP1 SLOAD DUP1 ISZERO PUSH2 0x296 JUMPI PUSH1 0x20 MUL DUP3 ADD SWAP2 SWAP1 PUSH1 0x0 MSTORE PUSH1 0x20 PUSH1 0x0 KECCAK256 SWAP1 JUMPDEST DUP2 SLOAD DUP2 MSTORE PUSH1 0x20 ADD SWAP1 PUSH1 0x1 ADD SWAP1 DUP1 DUP4 GT PUSH2 0x282 JUMPI JUMPDEST POP POP POP POP POP SWAP2 POP POP SWAP1 JUMP JUMPDEST PUSH1 0x0 DUP2 DUP4 LT ISZERO PUSH2 0x2B1 JUMPI DUP2 PUSH2 0x2B3 JUMP JUMPDEST DUP3 JUMPDEST SWAP1 POP SWAP3 SWAP2 POP POP JUMP JUMPDEST PUSH1 0x0 DUP1 PUSH1 0x0 SWAP1 POP PUSH1 0x0 JUMPDEST DUP1 DUP3 PUSH2 0x2D1 SWAP2 SWAP1 PUSH2 0x90E JUMP JUMPDEST SWAP2 POP DUP1 DUP1 PUSH2 0x2DE SWAP1 PUSH2 0x8C6 JUMP JUMPDEST SWAP2 POP POP PUSH1 0xA DUP2 LT PUSH2 0x2C5 JUMPI DUP2 SWAP3 POP POP POP SWAP1 JUMP JUMPDEST PUSH1 0x0 DUP1 PUSH1 0x0 SWAP1 POP PUSH1 0x0 JUMPDEST PUSH1 0xA DUP2 LT ISZERO PUSH2 0x325 JUMPI DUP1 DUP3 PUSH2 0x310 SWAP2 SWAP1 PUSH2 0x90E JUMP JUMPDEST SWAP2 POP DUP1 DUP1 PUSH2 0x31D SWAP1 PUSH2 0x8C6 JUMP JUMPDEST SWAP2 POP POP PUSH2 0x2FB JUMP JUMPDEST DUP2 SWAP3 POP POP POP SWAP1 JUMP JUMPDEST PUSH1 0x60 PUSH1 0x0 PUSH1 0x1 SWAP1 POP JUMPDEST DUP3 MLOAD DUP2 LT ISZERO PUSH2 0x427 JUMPI PUSH1 0x0 DUP4 DUP3 DUP2 MLOAD DUP2 LT PUSH2 0x354 JUMPI PUSH2 0x353 PUSH2 0x942 JUMP JUMPDEST JUMPDEST PUSH1 0x20 MUL PUSH1 0x20 ADD ADD MLOAD SWAP1 POP PUSH1 0x0 DUP3 SWAP1 POP JUMPDEST PUSH1 0x1 DUP2 LT ISZERO DUP1 ISZERO PUSH2 0x39A JUMPI POP DUP2 DUP6 PUSH1 0x1 DUP4 PUSH2 0x37F SWAP2 SWAP1 PUSH2 0x971 JUMP JUMPDEST DUP2 MLOAD DUP2 LT PUSH2 0x390 JUMPI PUSH2 0x38F PUSH2 0x942 JUMP JUMPDEST JUMPDEST PUSH1 0x20 MUL PUSH1 0x20 ADD ADD MLOAD GT JUMPDEST ISZERO PUSH2 0x3F8 JUMPI DUP5 PUSH1 0x1 DUP3 PUSH2 0x3AD SWAP2 SWAP1 PUSH2 0x971 JUMP JUMPDEST DUP2 MLOAD DUP2 LT PUSH2 0x3BE JUMPI PUSH2 0x3BD PUSH2 0x942 JUMP JUMPDEST JUMPDEST PUSH1 0x20 MUL PUSH1 0x20 ADD ADD MLOAD DUP6 DUP3 DUP2 MLOAD DUP2 LT PUSH2 0x3D9 JUMPI PUSH2 0x3D8 PUSH2 0x942 JUMP JUMPDEST JUMPDEST PUSH1 0x20 MUL PUSH1 0x20 ADD ADD DUP2 DUP2 MSTORE POP POP DUP1 DUP1 PUSH2 0x3F0 SWAP1 PUSH2 0x9A5 JUMP JUMPDEST SWAP2 POP POP PUSH2 0x364 JUMP JUMPDEST DUP2 DUP6 DUP3 DUP2 MLOAD DUP2 LT PUSH2 0x40C JUMPI PUSH2 0x40B PUSH2 0x942 JUMP JUMPDEST JUMPDEST PUSH1 0x20 MUL PUSH1 0x20 ADD ADD DUP2 DUP2 MSTORE POP POP POP POP DUP1 DUP1 PUSH1 0x1 ADD SWAP2 POP POP PUSH2 0x336 JUMP JUMPDEST POP DUP2 SWAP1 POP SWAP2 SWAP1 POP JUMP JUMPDEST PUSH1 0x0 DUP1 DUP3 SUB PUSH2 0x442 JUMPI PUSH1 0x1 SWAP1 POP PUSH2 0x447 JUMP JUMPDEST PUSH1 0x0 SWAP1 POP JUMPDEST SWAP2 SWAP1 POP JUMP JUMPDEST PUSH1 0x0 DUP2 DUP2 SLOAD DUP2 LT PUSH2 0x45C JUMPI PUSH1 0x0 DUP1 REVERT JUMPDEST SWAP1 PUSH1 0x0 MSTORE PUSH1 0x20 PUSH1 0x0 KECCAK256 ADD PUSH1 0x0 SWAP2 POP SWAP1 POP SLOAD DUP2 JUMP JUMPDEST PUSH1 0x60 PUSH1 0x0 DUP1 SLOAD DUP1 PUSH1 0x20 MUL PUSH1 0x20 ADD PUSH1 0x40 MLOAD SWAP1 DUP2 ADD PUSH1 0x40 MSTORE DUP1 SWAP3 SWAP2 SWAP1 DUP2 DUP2 MSTORE PUSH1 0x20 ADD DUP3 DUP1 SLOAD DUP1 ISZERO PUSH2 0x4BE JUMPI PUSH1 0x20 MUL DUP3 ADD SWAP2 SWAP1 PUSH1 0x0 MSTORE PUSH1 0x20 PUSH1 0x0 KECCAK256 SWAP1 JUMPDEST DUP2 SLOAD DUP2 MSTORE PUSH1 0x20 ADD SWAP1 PUSH1 0x1 ADD SWAP1 DUP1 DUP4 GT PUSH2 0x4AA JUMPI JUMPDEST POP POP POP POP POP SWAP1 POP SWAP1 JUMP JUMPDEST PUSH1 0x0 DUP1 PUSH1 0x0 SWAP1 POP PUSH1 0x0 JUMPDEST PUSH1 0xA DUP2 LT ISZERO PUSH2 0x4F6 JUMPI DUP1 DUP3 PUSH2 0x4E7 SWAP2 SWAP1 PUSH2 0x90E JUMP JUMPDEST SWAP2 POP DUP1 DUP1 PUSH1 0x1 ADD SWAP2 POP POP PUSH2 0x4D2 JUMP JUMPDEST POP DUP1 SWAP2 POP POP SWAP1 JUMP JUMPDEST PUSH1 0x0 DUP2 MLOAD SWAP1 POP SWAP2 SWAP1 POP JUMP JUMPDEST PUSH1 0x0 DUP3 DUP3 MSTORE PUSH1 0x20 DUP3 ADD SWAP1 POP SWAP3 SWAP2 POP POP JUMP JUMPDEST PUSH1 0x0 DUP2 SWAP1 POP PUSH1 0x20 DUP3 ADD SWAP1 POP SWAP2 SWAP1 POP JUMP JUMPDEST PUSH1 0x0 DUP2 SWAP1 POP SWAP2 SWAP1 POP JUMP JUMPDEST PUSH2 0x53D DUP2 PUSH2 0x52A JUMP JUMPDEST DUP3 MSTORE POP POP JUMP JUMPDEST PUSH1 0x0 PUSH2 0x54F DUP4 DUP4 PUSH2 0x534 JUMP JUMPDEST PUSH1 0x20 DUP4 ADD SWAP1 POP SWAP3 SWAP2 POP POP JUMP JUMPDEST PUSH1 0x0 PUSH1 0x20 DUP3 ADD SWAP1 POP SWAP2 SWAP1 POP JUMP JUMPDEST PUSH1 0x0 PUSH2 0x573 DUP3 PUSH2 0x4FE JUMP JUMPDEST PUSH2 0x57D DUP2 DUP6 PUSH2 0x509 JUMP JUMPDEST SWAP4 POP PUSH2 0x588 DUP4 PUSH2 0x51A JUMP JUMPDEST DUP1 PUSH1 0x0 JUMPDEST DUP4 DUP2 LT ISZERO PUSH2 0x5B9 JUMPI DUP2 MLOAD PUSH2 0x5A0 DUP9 DUP3 PUSH2 0x543 JUMP JUMPDEST SWAP8 POP PUSH2 0x5AB DUP4 PUSH2 0x55B JUMP JUMPDEST SWAP3 POP POP PUSH1 0x1 DUP2 ADD SWAP1 POP PUSH2 0x58C JUMP JUMPDEST POP DUP6 SWAP4 POP POP POP POP SWAP3 SWAP2 POP POP JUMP JUMPDEST PUSH1 0x0 PUSH1 0x20 DUP3 ADD SWAP1 POP DUP2 DUP2 SUB PUSH1 0x0 DUP4 ADD MSTORE PUSH2 0x5E0 DUP2 DUP5 PUSH2 0x568 JUMP JUMPDEST SWAP1 POP SWAP3 SWAP2 POP POP JUMP JUMPDEST PUSH1 0x0 PUSH1 0x40 MLOAD SWAP1 POP SWAP1 JUMP JUMPDEST PUSH1 0x0 DUP1 REVERT JUMPDEST PUSH1 0x0 DUP1 REVERT JUMPDEST PUSH2 0x605 DUP2 PUSH2 0x52A JUMP JUMPDEST DUP2 EQ PUSH2 0x610 JUMPI PUSH1 0x0 DUP1 REVERT JUMPDEST POP JUMP JUMPDEST PUSH1 0x0 DUP2 CALLDATALOAD SWAP1 POP PUSH2 0x622 DUP2 PUSH2 0x5FC JUMP JUMPDEST SWAP3 SWAP2 POP POP JUMP JUMPDEST PUSH1 0x0 DUP1 PUSH1 0x40 DUP4 DUP6 SUB SLT ISZERO PUSH2 0x63F JUMPI PUSH2 0x63E PUSH2 0x5F2 JUMP JUMPDEST JUMPDEST PUSH1 0x0 PUSH2 0x64D DUP6 DUP3 DUP7 ADD PUSH2 0x613 JUMP JUMPDEST SWAP3 POP POP PUSH1 0x20 PUSH2 0x65E DUP6 DUP3 DUP7 ADD PUSH2 0x613 JUMP JUMPDEST SWAP2 POP POP SWAP3 POP SWAP3 SWAP1 POP JUMP JUMPDEST PUSH2 0x671 DUP2 PUSH2 0x52A JUMP JUMPDEST DUP3 MSTORE POP POP JUMP JUMPDEST PUSH1 0x0 PUSH1 0x20 DUP3 ADD SWAP1 POP PUSH2 0x68C PUSH1 0x0 DUP4 ADD DUP5 PUSH2 0x668 JUMP JUMPDEST SWAP3 SWAP2 POP POP JUMP JUMPDEST PUSH1 0x0 DUP1 REVERT JUMPDEST PUSH1 0x0 PUSH1 0x1F NOT PUSH1 0x1F DUP4 ADD AND SWAP1 POP SWAP2 SWAP1 POP JUMP JUMPDEST PUSH32 0x4E487B7100000000000000000000000000000000000000000000000000000000 PUSH1 0x0 MSTORE PUSH1 0x41 PUSH1 0x4 MSTORE PUSH1 0x24 PUSH1 0x0 REVERT JUMPDEST PUSH2 0x6E0 DUP3 PUSH2 0x697 JUMP JUMPDEST DUP2 ADD DUP2 DUP2 LT PUSH8 0xFFFFFFFFFFFFFFFF DUP3 GT OR ISZERO PUSH2 0x6FF JUMPI PUSH2 0x6FE PUSH2 0x6A8 JUMP JUMPDEST JUMPDEST DUP1 PUSH1 0x40 MSTORE POP POP POP JUMP JUMPDEST PUSH1 0x0 PUSH2 0x712 PUSH2 0x5E8 JUMP JUMPDEST SWAP1 POP PUSH2 0x71E DUP3 DUP3 PUSH2 0x6D7 JUMP JUMPDEST SWAP2 SWAP1 POP JUMP JUMPDEST PUSH1 0x0 PUSH8 0xFFFFFFFFFFFFFFFF DUP3 GT ISZERO PUSH2 0x73E JUMPI PUSH2 0x73D PUSH2 0x6A8 JUMP JUMPDEST JUMPDEST PUSH1 0x20 DUP3 MUL SWAP1 POP PUSH1 0x20 DUP2 ADD SWAP1 POP SWAP2 SWAP1 POP JUMP JUMPDEST PUSH1 0x0 DUP1 REVERT JUMPDEST PUSH1 0x0 PUSH2 0x767 PUSH2 0x762 DUP5 PUSH2 0x723 JUMP JUMPDEST PUSH2 0x708 JUMP JUMPDEST SWAP1 POP DUP1 DUP4 DUP3 MSTORE PUSH1 0x20 DUP3 ADD SWAP1 POP PUSH1 0x20 DUP5 MUL DUP4 ADD DUP6 DUP2 GT ISZERO PUSH2 0x78A JUMPI PUSH2 0x789 PUSH2 0x74F JUMP JUMPDEST JUMPDEST DUP4 JUMPDEST DUP2 DUP2 LT ISZERO PUSH2 0x7B3 JUMPI DUP1 PUSH2 0x79F DUP9 DUP3 PUSH2 0x613 JUMP JUMPDEST DUP5 MSTORE PUSH1 0x20 DUP5 ADD SWAP4 POP POP PUSH1 0x20 DUP2 ADD SWAP1 POP PUSH2 0x78C JUMP JUMPDEST POP POP POP SWAP4 SWAP3 POP POP POP JUMP JUMPDEST PUSH1 0x0 DUP3 PUSH1 0x1F DUP4 ADD SLT PUSH2 0x7D2 JUMPI PUSH2 0x7D1 PUSH2 0x692 JUMP JUMPDEST JUMPDEST DUP2 CALLDATALOAD PUSH2 0x7E2 DUP5 DUP3 PUSH1 0x20 DUP7 ADD PUSH2 0x754 JUMP JUMPDEST SWAP2 POP POP SWAP3 SWAP2 POP POP JUMP JUMPDEST PUSH1 0x0 PUSH1 0x20 DUP3 DUP5 SUB SLT ISZERO PUSH2 0x801 JUMPI PUSH2 0x800 PUSH2 0x5F2 JUMP JUMPDEST JUMPDEST PUSH1 0x0 DUP3 ADD CALLDATALOAD PUSH8 0xFFFFFFFFFFFFFFFF DUP2 GT ISZERO PUSH2 0x81F JUMPI PUSH2 0x81E PUSH2 0x5F7 JUMP JUMPDEST JUMPDEST PUSH2 0x82B DUP5 DUP3 DUP6 ADD PUSH2 0x7BD JUMP JUMPDEST SWAP2 POP POP SWAP3 SWAP2 POP POP JUMP JUMPDEST PUSH1 0x0 PUSH1 0x20 DUP3 DUP5 SUB SLT ISZERO PUSH2 0x84A JUMPI PUSH2 0x849 PUSH2 0x5F2 JUMP JUMPDEST JUMPDEST PUSH1 0x0 PUSH2 0x858 DUP5 DUP3 DUP6 ADD PUSH2 0x613 JUMP JUMPDEST SWAP2 POP POP SWAP3 SWAP2 POP POP JUMP JUMPDEST PUSH1 0x0 DUP2 ISZERO ISZERO SWAP1 POP SWAP2 SWAP1 POP JUMP JUMPDEST PUSH2 0x876 DUP2 PUSH2 0x861 JUMP JUMPDEST DUP3 MSTORE POP POP JUMP JUMPDEST PUSH1 0x0 PUSH1 0x20 DUP3 ADD SWAP1 POP PUSH2 0x891 PUSH1 0x0 DUP4 ADD DUP5 PUSH2 0x86D JUMP JUMPDEST SWAP3 SWAP2 POP POP JUMP JUMPDEST PUSH32 0x4E487B7100000000000000000000000000000000000000000000000000000000 PUSH1 0x0 MSTORE PUSH1 0x11 PUSH1 0x4 MSTORE PUSH1 0x24 PUSH1 0x0 REVERT JUMPDEST PUSH1 0x0 PUSH2 0x8D1 DUP3 PUSH2 0x52A JUMP JUMPDEST SWAP2 POP PUSH32 0xFFFFFFFFFFFFFFFFFFFFFFFFFFFFFFFFFFFFFFFFFFFFFFFFFFFFFFFFFFFFFFFF DUP3 SUB PUSH2 0x903 JUMPI PUSH2 0x902 PUSH2 0x897 JUMP JUMPDEST JUMPDEST PUSH1 0x1 DUP3 ADD SWAP1 POP SWAP2 SWAP1 POP JUMP JUMPDEST PUSH1 0x0 PUSH2 0x919 DUP3 PUSH2 0x52A JUMP JUMPDEST SWAP2 POP PUSH2 0x924 DUP4 PUSH2 0x52A JUMP JUMPDEST SWAP3 POP DUP3 DUP3 ADD SWAP1 POP DUP1 DUP3 GT ISZERO PUSH2 0x93C JUMPI PUSH2 0x93B PUSH2 0x897 JUMP JUMPDEST JUMPDEST SWAP3 SWAP2 POP POP JUMP JUMPDEST PUSH32 0x4E487B7100000000000000000000000000000000000000000000000000000000 PUSH1 0x0 MSTORE PUSH1 0x32 PUSH1 0x4 MSTORE PUSH1 0x24 PUSH1 0x0 REVERT JUMPDEST PUSH1 0x0 PUSH2 0x97C DUP3 PUSH2 0x52A JUMP JUMPDEST SWAP2 POP PUSH2 0x987 DUP4 PUSH2 0x52A JUMP JUMPDEST SWAP3 POP DUP3 DUP3 SUB SWAP1 POP DUP2 DUP2 GT ISZERO PUSH2 0x99F JUMPI PUSH2 0x99E PUSH2 0x897 JUMP JUMPDEST JUMPDEST SWAP3 SWAP2 POP POP JUMP JUMPDEST PUSH1 0x0 PUSH2 0x9B0 DUP3 PUSH2 0x52A JUMP JUMPDEST SWAP2 POP PUSH1 0x0 DUP3 SUB PUSH2 0x9C3 JUMPI PUSH2 0x9C2 PUSH2 0x897 JUMP JUMPDEST JUMPDEST PUSH1 0x1 DUP3 SUB SWAP1 POP SWAP2 SWAP1 POP JUMP INVALID LOG2 PUSH5 0x6970667358 0x22 SLT KECCAK256 SWAP1 0xA7 CREATE 0xD8 PUSH1 0x5C POP DELEGATECALL PUSH17 0xA44B176F4F90C53BC91874D501B4B34A11 LT MSTORE8 MULMOD SGT 0xDE SSTORE PUSH5 0x736F6C6343 STOP ADDMOD NOT STOP CALLER "
				},
				"gasEstimates": {
					"creation": {
						"codeDepositCost": "512800",
						"executionCost": "549",
						"totalCost": "513349"
					},
					"external": {
						"_array(uint256)": "infinite",
						"arrayTest()": "infinite",
						"doWhileTest()": "infinite",
						"forTest()": "infinite",
						"getArray()": "infinite",
						"ifTest(uint256)": "664",
						"insertionSort(uint256[])": "infinite",
						"ternaryTest(uint256,uint256)": "infinite",
						"whileTest()": "infinite"
					}
				},
				"methodIdentifiers": {
					"_array(uint256)": "9bc0168a",
					"arrayTest()": "0f55bd12",
					"doWhileTest()": "2bbacaaa",
					"forTest()": "de152f8d",
					"getArray()": "d504ea1d",
					"ifTest(uint256)": "8ab605e5",
					"insertionSort(uint256[])": "6297206f",
					"ternaryTest(uint256,uint256)": "28766320",
					"whileTest()": "5d14639d"
				}
			},
			"storageLayout": {
				"storage": [
					{
						"astId": 125,
						"contract": "contracts/10_InsertionSort.sol:InsertionSort",
						"label": "_array",
						"offset": 0,
						"slot": "0",
						"type": "t_array(t_uint256)dyn_storage"
					}
				],
				"types": {
					"t_array(t_uint256)dyn_storage": {
						"base": "t_uint256",
						"encoding": "dynamic_array",
						"label": "uint256[]",
						"numberOfBytes": "32"
					},
					"t_uint256": {
						"encoding": "inplace",
						"label": "uint256",
						"numberOfBytes": "32"
					}
				}
			},
			"userdoc": {
				"kind": "user",
				"methods": {},
				"version": 1
			}
		}
	}
}