{
	"contracts/15_Errors.sol": {
		"Errors": {
			"abi": [
				{
					"inputs": [
						{
							"internalType": "uint256",
							"name": "value",
							"type": "uint256"
						}
					],
					"name": "ErrorTest",
					"type": "error"
				},
				{
					"inputs": [
						{
							"internalType": "uint256",
							"name": "_int",
							"type": "uint256"
						}
					],
					"name": "assertTest",
					"outputs": [
						{
							"internalType": "uint256",
							"name": "",
							"type": "uint256"
						}
					],
					"stateMutability": "pure",
					"type": "function"
				},
				{
					"inputs": [
						{
							"internalType": "uint256",
							"name": "_int",
							"type": "uint256"
						}
					],
					"name": "errorTest",
					"outputs": [
						{
							"internalType": "uint256",
							"name": "",
							"type": "uint256"
						}
					],
					"stateMutability": "pure",
					"type": "function"
				},
				{
					"inputs": [
						{
							"internalType": "uint256",
							"name": "_int",
							"type": "uint256"
						}
					],
					"name": "requireTest",
					"outputs": [
						{
							"internalType": "uint256",
							"name": "",
							"type": "uint256"
						}
					],
					"stateMutability": "pure",
					"type": "function"
				}
			],
			"devdoc": {
				"kind": "dev",
				"methods": {},
				"version": 1
			},
			"evm": {
				"assembly": "    /* \"contracts/15_Errors.sol\":89:949  contract Errors {... */\n  mstore(0x40, 0x80)\n  callvalue\n  dup1\n  iszero\n  tag_1\n  jumpi\n  0x00\n  dup1\n  revert\ntag_1:\n  pop\n  dataSize(sub_0)\n  dup1\n  dataOffset(sub_0)\n  0x00\n  codecopy\n  0x00\n  return\nstop\n\nsub_0: assembly {\n        /* \"contracts/15_Errors.sol\":89:949  contract Errors {... */\n      mstore(0x40, 0x80)\n      callvalue\n      dup1\n      iszero\n      tag_1\n      jumpi\n      0x00\n      dup1\n      revert\n    tag_1:\n      pop\n      jumpi(tag_2, lt(calldatasize, 0x04))\n      shr(0xe0, calldataload(0x00))\n      dup1\n      0x06edc75f\n      eq\n      tag_3\n      jumpi\n      dup1\n      0x148b677f\n      eq\n      tag_4\n      jumpi\n      dup1\n      0x7c63519e\n      eq\n      tag_5\n      jumpi\n    tag_2:\n      0x00\n      dup1\n      revert\n        /* \"contracts/15_Errors.sol\":358:508  function errorTest(uint _int) public pure returns(uint){... */\n    tag_3:\n      tag_6\n      0x04\n      dup1\n      calldatasize\n      sub\n      dup2\n      add\n      swap1\n      tag_7\n      swap2\n      swap1\n      tag_8\n      jump\t// in\n    tag_7:\n      tag_9\n      jump\t// in\n    tag_6:\n      mload(0x40)\n      tag_10\n      swap2\n      swap1\n      tag_11\n      jump\t// in\n    tag_10:\n      mload(0x40)\n      dup1\n      swap2\n      sub\n      swap1\n      return\n        /* \"contracts/15_Errors.sol\":570:695  function requireTest(uint _int) public pure returns(uint){... */\n    tag_4:\n      tag_12\n      0x04\n      dup1\n      calldatasize\n      sub\n      dup2\n      add\n      swap1\n      tag_13\n      swap2\n      swap1\n      tag_8\n      jump\t// in\n    tag_13:\n      tag_14\n      jump\t// in\n    tag_12:\n      mload(0x40)\n      tag_15\n      swap2\n      swap1\n      tag_11\n      jump\t// in\n    tag_15:\n      mload(0x40)\n      dup1\n      swap2\n      sub\n      swap1\n      return\n        /* \"contracts/15_Errors.sol\":757:866  function assertTest(uint _int) public pure returns(uint){... */\n    tag_5:\n      tag_16\n      0x04\n      dup1\n      calldatasize\n      sub\n      dup2\n      add\n      swap1\n      tag_17\n      swap2\n      swap1\n      tag_8\n      jump\t// in\n    tag_17:\n      tag_18\n      jump\t// in\n    tag_16:\n      mload(0x40)\n      tag_19\n      swap2\n      swap1\n      tag_11\n      jump\t// in\n    tag_19:\n      mload(0x40)\n      dup1\n      swap2\n      sub\n      swap1\n      return\n        /* \"contracts/15_Errors.sol\":358:508  function errorTest(uint _int) public pure returns(uint){... */\n    tag_9:\n        /* \"contracts/15_Errors.sol\":408:412  uint */\n      0x00\n        /* \"contracts/15_Errors.sol\":432:433  1 */\n      0x01\n        /* \"contracts/15_Errors.sol\":426:430  _int */\n      dup3\n        /* \"contracts/15_Errors.sol\":426:433  _int==1 */\n      sub\n        /* \"contracts/15_Errors.sol\":423:480  if(_int==1){... */\n      tag_21\n      jumpi\n        /* \"contracts/15_Errors.sol\":465:468  123 */\n      0x7b\n        /* \"contracts/15_Errors.sol\":455:469  ErrorTest(123) */\n      mload(0x40)\n      0x461023cc00000000000000000000000000000000000000000000000000000000\n      dup2\n      mstore\n      0x04\n      add\n      tag_22\n      swap2\n      swap1\n      tag_23\n      jump\t// in\n    tag_22:\n      mload(0x40)\n      dup1\n      swap2\n      sub\n      swap1\n      revert\n        /* \"contracts/15_Errors.sol\":423:480  if(_int==1){... */\n    tag_21:\n        /* \"contracts/15_Errors.sol\":497:501  _int */\n      dup2\n        /* \"contracts/15_Errors.sol\":490:501  return _int */\n      swap1\n      pop\n        /* \"contracts/15_Errors.sol\":358:508  function errorTest(uint _int) public pure returns(uint){... */\n      swap2\n      swap1\n      pop\n      jump\t// out\n        /* \"contracts/15_Errors.sol\":570:695  function requireTest(uint _int) public pure returns(uint){... */\n    tag_14:\n        /* \"contracts/15_Errors.sol\":622:626  uint */\n      0x00\n        /* \"contracts/15_Errors.sol\":651:652  1 */\n      0x01\n        /* \"contracts/15_Errors.sol\":645:649  _int */\n      dup3\n        /* \"contracts/15_Errors.sol\":645:652  _int!=1 */\n      sub\n        /* \"contracts/15_Errors.sol\":637:667  require(_int!=1, \"Some Error\") */\n      tag_25\n      jumpi\n      mload(0x40)\n      0x08c379a000000000000000000000000000000000000000000000000000000000\n      dup2\n      mstore\n      0x04\n      add\n      tag_26\n      swap1\n      tag_27\n      jump\t// in\n    tag_26:\n      mload(0x40)\n      dup1\n      swap2\n      sub\n      swap1\n      revert\n    tag_25:\n        /* \"contracts/15_Errors.sol\":684:688  _int */\n      dup2\n        /* \"contracts/15_Errors.sol\":677:688  return _int */\n      swap1\n      pop\n        /* \"contracts/15_Errors.sol\":570:695  function requireTest(uint _int) public pure returns(uint){... */\n      swap2\n      swap1\n      pop\n      jump\t// out\n        /* \"contracts/15_Errors.sol\":757:866  function assertTest(uint _int) public pure returns(uint){... */\n    tag_18:\n        /* \"contracts/15_Errors.sol\":808:812  uint */\n      0x00\n        /* \"contracts/15_Errors.sol\":836:837  1 */\n      0x01\n        /* \"contracts/15_Errors.sol\":830:834  _int */\n      dup3\n        /* \"contracts/15_Errors.sol\":830:837  _int!=1 */\n      sub\n        /* \"contracts/15_Errors.sol\":823:838  assert(_int!=1) */\n      tag_29\n      jumpi\n      tag_30\n      tag_31\n      jump\t// in\n    tag_30:\n    tag_29:\n        /* \"contracts/15_Errors.sol\":855:859  _int */\n      dup2\n        /* \"contracts/15_Errors.sol\":848:859  return _int */\n      swap1\n      pop\n        /* \"contracts/15_Errors.sol\":757:866  function assertTest(uint _int) public pure returns(uint){... */\n      swap2\n      swap1\n      pop\n      jump\t// out\n        /* \"#utility.yul\":88:205   */\n    tag_33:\n        /* \"#utility.yul\":197:198   */\n      0x00\n        /* \"#utility.yul\":194:195   */\n      dup1\n        /* \"#utility.yul\":187:199   */\n      revert\n        /* \"#utility.yul\":334:411   */\n    tag_35:\n        /* \"#utility.yul\":371:378   */\n      0x00\n        /* \"#utility.yul\":400:405   */\n      dup2\n        /* \"#utility.yul\":389:405   */\n      swap1\n      pop\n        /* \"#utility.yul\":334:411   */\n      swap2\n      swap1\n      pop\n      jump\t// out\n        /* \"#utility.yul\":417:539   */\n    tag_36:\n        /* \"#utility.yul\":490:514   */\n      tag_52\n        /* \"#utility.yul\":508:513   */\n      dup2\n        /* \"#utility.yul\":490:514   */\n      tag_35\n      jump\t// in\n    tag_52:\n        /* \"#utility.yul\":483:488   */\n      dup2\n        /* \"#utility.yul\":480:515   */\n      eq\n        /* \"#utility.yul\":470:533   */\n      tag_53\n      jumpi\n        /* \"#utility.yul\":529:530   */\n      0x00\n        /* \"#utility.yul\":526:527   */\n      dup1\n        /* \"#utility.yul\":519:531   */\n      revert\n        /* \"#utility.yul\":470:533   */\n    tag_53:\n        /* \"#utility.yul\":417:539   */\n      pop\n      jump\t// out\n        /* \"#utility.yul\":545:684   */\n    tag_37:\n        /* \"#utility.yul\":591:596   */\n      0x00\n        /* \"#utility.yul\":629:635   */\n      dup2\n        /* \"#utility.yul\":616:636   */\n      calldataload\n        /* \"#utility.yul\":607:636   */\n      swap1\n      pop\n        /* \"#utility.yul\":645:678   */\n      tag_55\n        /* \"#utility.yul\":672:677   */\n      dup2\n        /* \"#utility.yul\":645:678   */\n      tag_36\n      jump\t// in\n    tag_55:\n        /* \"#utility.yul\":545:684   */\n      swap3\n      swap2\n      pop\n      pop\n      jump\t// out\n        /* \"#utility.yul\":690:1019   */\n    tag_8:\n        /* \"#utility.yul\":749:755   */\n      0x00\n        /* \"#utility.yul\":798:800   */\n      0x20\n        /* \"#utility.yul\":786:795   */\n      dup3\n        /* \"#utility.yul\":777:784   */\n      dup5\n        /* \"#utility.yul\":773:796   */\n      sub\n        /* \"#utility.yul\":769:801   */\n      slt\n        /* \"#utility.yul\":766:885   */\n      iszero\n      tag_57\n      jumpi\n        /* \"#utility.yul\":804:883   */\n      tag_58\n      tag_33\n      jump\t// in\n    tag_58:\n        /* \"#utility.yul\":766:885   */\n    tag_57:\n        /* \"#utility.yul\":924:925   */\n      0x00\n        /* \"#utility.yul\":949:1002   */\n      tag_59\n        /* \"#utility.yul\":994:1001   */\n      dup5\n        /* \"#utility.yul\":985:991   */\n      dup3\n        /* \"#utility.yul\":974:983   */\n      dup6\n        /* \"#utility.yul\":970:992   */\n      add\n        /* \"#utility.yul\":949:1002   */\n      tag_37\n      jump\t// in\n    tag_59:\n        /* \"#utility.yul\":939:1002   */\n      swap2\n      pop\n        /* \"#utility.yul\":895:1012   */\n      pop\n        /* \"#utility.yul\":690:1019   */\n      swap3\n      swap2\n      pop\n      pop\n      jump\t// out\n        /* \"#utility.yul\":1025:1143   */\n    tag_38:\n        /* \"#utility.yul\":1112:1136   */\n      tag_61\n        /* \"#utility.yul\":1130:1135   */\n      dup2\n        /* \"#utility.yul\":1112:1136   */\n      tag_35\n      jump\t// in\n    tag_61:\n        /* \"#utility.yul\":1107:1110   */\n      dup3\n        /* \"#utility.yul\":1100:1137   */\n      mstore\n        /* \"#utility.yul\":1025:1143   */\n      pop\n      pop\n      jump\t// out\n        /* \"#utility.yul\":1149:1371   */\n    tag_11:\n        /* \"#utility.yul\":1242:1246   */\n      0x00\n        /* \"#utility.yul\":1280:1282   */\n      0x20\n        /* \"#utility.yul\":1269:1278   */\n      dup3\n        /* \"#utility.yul\":1265:1283   */\n      add\n        /* \"#utility.yul\":1257:1283   */\n      swap1\n      pop\n        /* \"#utility.yul\":1293:1364   */\n      tag_63\n        /* \"#utility.yul\":1361:1362   */\n      0x00\n        /* \"#utility.yul\":1350:1359   */\n      dup4\n        /* \"#utility.yul\":1346:1363   */\n      add\n        /* \"#utility.yul\":1337:1343   */\n      dup5\n        /* \"#utility.yul\":1293:1364   */\n      tag_38\n      jump\t// in\n    tag_63:\n        /* \"#utility.yul\":1149:1371   */\n      swap3\n      swap2\n      pop\n      pop\n      jump\t// out\n        /* \"#utility.yul\":1377:1464   */\n    tag_39:\n        /* \"#utility.yul\":1424:1431   */\n      0x00\n        /* \"#utility.yul\":1453:1458   */\n      dup2\n        /* \"#utility.yul\":1442:1458   */\n      swap1\n      pop\n        /* \"#utility.yul\":1377:1464   */\n      swap2\n      swap1\n      pop\n      jump\t// out\n        /* \"#utility.yul\":1470:1530   */\n    tag_40:\n        /* \"#utility.yul\":1498:1501   */\n      0x00\n        /* \"#utility.yul\":1519:1524   */\n      dup2\n        /* \"#utility.yul\":1512:1524   */\n      swap1\n      pop\n        /* \"#utility.yul\":1470:1530   */\n      swap2\n      swap1\n      pop\n      jump\t// out\n        /* \"#utility.yul\":1536:1698   */\n    tag_41:\n        /* \"#utility.yul\":1596:1605   */\n      0x00\n        /* \"#utility.yul\":1629:1692   */\n      tag_67\n        /* \"#utility.yul\":1647:1691   */\n      tag_68\n        /* \"#utility.yul\":1656:1690   */\n      tag_69\n        /* \"#utility.yul\":1684:1689   */\n      dup5\n        /* \"#utility.yul\":1656:1690   */\n      tag_39\n      jump\t// in\n    tag_69:\n        /* \"#utility.yul\":1647:1691   */\n      tag_40\n      jump\t// in\n    tag_68:\n        /* \"#utility.yul\":1629:1692   */\n      tag_35\n      jump\t// in\n    tag_67:\n        /* \"#utility.yul\":1616:1692   */\n      swap1\n      pop\n        /* \"#utility.yul\":1536:1698   */\n      swap2\n      swap1\n      pop\n      jump\t// out\n        /* \"#utility.yul\":1704:1855   */\n    tag_42:\n        /* \"#utility.yul\":1801:1848   */\n      tag_71\n        /* \"#utility.yul\":1842:1847   */\n      dup2\n        /* \"#utility.yul\":1801:1848   */\n      tag_41\n      jump\t// in\n    tag_71:\n        /* \"#utility.yul\":1796:1799   */\n      dup3\n        /* \"#utility.yul\":1789:1849   */\n      mstore\n        /* \"#utility.yul\":1704:1855   */\n      pop\n      pop\n      jump\t// out\n        /* \"#utility.yul\":1861:2103   */\n    tag_23:\n        /* \"#utility.yul\":1964:1968   */\n      0x00\n        /* \"#utility.yul\":2002:2004   */\n      0x20\n        /* \"#utility.yul\":1991:2000   */\n      dup3\n        /* \"#utility.yul\":1987:2005   */\n      add\n        /* \"#utility.yul\":1979:2005   */\n      swap1\n      pop\n        /* \"#utility.yul\":2015:2096   */\n      tag_73\n        /* \"#utility.yul\":2093:2094   */\n      0x00\n        /* \"#utility.yul\":2082:2091   */\n      dup4\n        /* \"#utility.yul\":2078:2095   */\n      add\n        /* \"#utility.yul\":2069:2075   */\n      dup5\n        /* \"#utility.yul\":2015:2096   */\n      tag_42\n      jump\t// in\n    tag_73:\n        /* \"#utility.yul\":1861:2103   */\n      swap3\n      swap2\n      pop\n      pop\n      jump\t// out\n        /* \"#utility.yul\":2109:2278   */\n    tag_43:\n        /* \"#utility.yul\":2193:2204   */\n      0x00\n        /* \"#utility.yul\":2227:2233   */\n      dup3\n        /* \"#utility.yul\":2222:2225   */\n      dup3\n        /* \"#utility.yul\":2215:2234   */\n      mstore\n        /* \"#utility.yul\":2267:2271   */\n      0x20\n        /* \"#utility.yul\":2262:2265   */\n      dup3\n        /* \"#utility.yul\":2258:2272   */\n      add\n        /* \"#utility.yul\":2243:2272   */\n      swap1\n      pop\n        /* \"#utility.yul\":2109:2278   */\n      swap3\n      swap2\n      pop\n      pop\n      jump\t// out\n        /* \"#utility.yul\":2284:2444   */\n    tag_44:\n        /* \"#utility.yul\":2424:2436   */\n      0x536f6d65204572726f7200000000000000000000000000000000000000000000\n        /* \"#utility.yul\":2420:2421   */\n      0x00\n        /* \"#utility.yul\":2412:2418   */\n      dup3\n        /* \"#utility.yul\":2408:2422   */\n      add\n        /* \"#utility.yul\":2401:2437   */\n      mstore\n        /* \"#utility.yul\":2284:2444   */\n      pop\n      jump\t// out\n        /* \"#utility.yul\":2450:2816   */\n    tag_45:\n        /* \"#utility.yul\":2592:2595   */\n      0x00\n        /* \"#utility.yul\":2613:2680   */\n      tag_77\n        /* \"#utility.yul\":2677:2679   */\n      0x0a\n        /* \"#utility.yul\":2672:2675   */\n      dup4\n        /* \"#utility.yul\":2613:2680   */\n      tag_43\n      jump\t// in\n    tag_77:\n        /* \"#utility.yul\":2606:2680   */\n      swap2\n      pop\n        /* \"#utility.yul\":2689:2782   */\n      tag_78\n        /* \"#utility.yul\":2778:2781   */\n      dup3\n        /* \"#utility.yul\":2689:2782   */\n      tag_44\n      jump\t// in\n    tag_78:\n        /* \"#utility.yul\":2807:2809   */\n      0x20\n        /* \"#utility.yul\":2802:2805   */\n      dup3\n        /* \"#utility.yul\":2798:2810   */\n      add\n        /* \"#utility.yul\":2791:2810   */\n      swap1\n      pop\n        /* \"#utility.yul\":2450:2816   */\n      swap2\n      swap1\n      pop\n      jump\t// out\n        /* \"#utility.yul\":2822:3241   */\n    tag_27:\n        /* \"#utility.yul\":2988:2992   */\n      0x00\n        /* \"#utility.yul\":3026:3028   */\n      0x20\n        /* \"#utility.yul\":3015:3024   */\n      dup3\n        /* \"#utility.yul\":3011:3029   */\n      add\n        /* \"#utility.yul\":3003:3029   */\n      swap1\n      pop\n        /* \"#utility.yul\":3075:3084   */\n      dup2\n        /* \"#utility.yul\":3069:3073   */\n      dup2\n        /* \"#utility.yul\":3065:3085   */\n      sub\n        /* \"#utility.yul\":3061:3062   */\n      0x00\n        /* \"#utility.yul\":3050:3059   */\n      dup4\n        /* \"#utility.yul\":3046:3063   */\n      add\n        /* \"#utility.yul\":3039:3086   */\n      mstore\n        /* \"#utility.yul\":3103:3234   */\n      tag_80\n        /* \"#utility.yul\":3229:3233   */\n      dup2\n        /* \"#utility.yul\":3103:3234   */\n      tag_45\n      jump\t// in\n    tag_80:\n        /* \"#utility.yul\":3095:3234   */\n      swap1\n      pop\n        /* \"#utility.yul\":2822:3241   */\n      swap2\n      swap1\n      pop\n      jump\t// out\n        /* \"#utility.yul\":3247:3427   */\n    tag_31:\n        /* \"#utility.yul\":3295:3372   */\n      0x4e487b7100000000000000000000000000000000000000000000000000000000\n        /* \"#utility.yul\":3292:3293   */\n      0x00\n        /* \"#utility.yul\":3285:3373   */\n      mstore\n        /* \"#utility.yul\":3392:3396   */\n      0x01\n        /* \"#utility.yul\":3389:3390   */\n      0x04\n        /* \"#utility.yul\":3382:3397   */\n      mstore\n        /* \"#utility.yul\":3416:3420   */\n      0x24\n        /* \"#utility.yul\":3413:3414   */\n      0x00\n        /* \"#utility.yul\":3406:3421   */\n      revert\n\n    auxdata: 0xa26469706673582212205d173aa9b511e32e87175fe8eb4572d70162623b7ae4ae2c067fca6902a055f064736f6c63430008190033\n}\n",
				"bytecode": {
					"linkReferences": {},
					"object": "6080604052348015600f57600080fd5b506103628061001f6000396000f3fe608060405234801561001057600080fd5b50600436106100415760003560e01c806306edc75f14610046578063148b677f146100765780637c63519e146100a6575b600080fd5b610060600480360381019061005b91906101c9565b6100d6565b60405161006d9190610205565b60405180910390f35b610090600480360381019061008b91906101c9565b610126565b60405161009d9190610205565b60405180910390f35b6100c060048036038101906100bb91906101c9565b610173565b6040516100cd9190610205565b60405180910390f35b60006001820361011e57607b6040517f461023cc0000000000000000000000000000000000000000000000000000000081526004016101159190610265565b60405180910390fd5b819050919050565b60006001820361016b576040517f08c379a0000000000000000000000000000000000000000000000000000000008152600401610162906102dd565b60405180910390fd5b819050919050565b600060018203610186576101856102fd565b5b819050919050565b600080fd5b6000819050919050565b6101a681610193565b81146101b157600080fd5b50565b6000813590506101c38161019d565b92915050565b6000602082840312156101df576101de61018e565b5b60006101ed848285016101b4565b91505092915050565b6101ff81610193565b82525050565b600060208201905061021a60008301846101f6565b92915050565b6000819050919050565b6000819050919050565b600061024f61024a61024584610220565b61022a565b610193565b9050919050565b61025f81610234565b82525050565b600060208201905061027a6000830184610256565b92915050565b600082825260208201905092915050565b7f536f6d65204572726f7200000000000000000000000000000000000000000000600082015250565b60006102c7600a83610280565b91506102d282610291565b602082019050919050565b600060208201905081810360008301526102f6816102ba565b9050919050565b7f4e487b7100000000000000000000000000000000000000000000000000000000600052600160045260246000fdfea26469706673582212205d173aa9b511e32e87175fe8eb4572d70162623b7ae4ae2c067fca6902a055f064736f6c63430008190033",
					"opcodes": "PUSH1 0x80 PUSH1 0x40 MSTORE CALLVALUE DUP1 ISZERO PUSH1 0xF JUMPI PUSH1 0x0 DUP1 REVERT JUMPDEST POP PUSH2 0x362 DUP1 PUSH2 0x1F PUSH1 0x0 CODECOPY PUSH1 0x0 RETURN INVALID PUSH1 0x80 PUSH1 0x40 MSTORE CALLVALUE DUP1 ISZERO PUSH2 0x10 JUMPI PUSH1 0x0 DUP1 REVERT JUMPDEST POP PUSH1 0x4 CALLDATASIZE LT PUSH2 0x41 JUMPI PUSH1 0x0 CALLDATALOAD PUSH1 0xE0 SHR DUP1 PUSH4 0x6EDC75F EQ PUSH2 0x46 JUMPI DUP1 PUSH4 0x148B677F EQ PUSH2 0x76 JUMPI DUP1 PUSH4 0x7C63519E EQ PUSH2 0xA6 JUMPI JUMPDEST PUSH1 0x0 DUP1 REVERT JUMPDEST PUSH2 0x60 PUSH1 0x4 DUP1 CALLDATASIZE SUB DUP2 ADD SWAP1 PUSH2 0x5B SWAP2 SWAP1 PUSH2 0x1C9 JUMP JUMPDEST PUSH2 0xD6 JUMP JUMPDEST PUSH1 0x40 MLOAD PUSH2 0x6D SWAP2 SWAP1 PUSH2 0x205 JUMP JUMPDEST PUSH1 0x40 MLOAD DUP1 SWAP2 SUB SWAP1 RETURN JUMPDEST PUSH2 0x90 PUSH1 0x4 DUP1 CALLDATASIZE SUB DUP2 ADD SWAP1 PUSH2 0x8B SWAP2 SWAP1 PUSH2 0x1C9 JUMP JUMPDEST PUSH2 0x126 JUMP JUMPDEST PUSH1 0x40 MLOAD PUSH2 0x9D SWAP2 SWAP1 PUSH2 0x205 JUMP JUMPDEST PUSH1 0x40 MLOAD DUP1 SWAP2 SUB SWAP1 RETURN JUMPDEST PUSH2 0xC0 PUSH1 0x4 DUP1 CALLDATASIZE SUB DUP2 ADD SWAP1 PUSH2 0xBB SWAP2 SWAP1 PUSH2 0x1C9 JUMP JUMPDEST PUSH2 0x173 JUMP JUMPDEST PUSH1 0x40 MLOAD PUSH2 0xCD SWAP2 SWAP1 PUSH2 0x205 JUMP JUMPDEST PUSH1 0x40 MLOAD DUP1 SWAP2 SUB SWAP1 RETURN JUMPDEST PUSH1 0x0 PUSH1 0x1 DUP3 SUB PUSH2 0x11E JUMPI PUSH1 0x7B PUSH1 0x40 MLOAD PUSH32 0x461023CC00000000000000000000000000000000000000000000000000000000 DUP2 MSTORE PUSH1 0x4 ADD PUSH2 0x115 SWAP2 SWAP1 PUSH2 0x265 JUMP JUMPDEST PUSH1 0x40 MLOAD DUP1 SWAP2 SUB SWAP1 REVERT JUMPDEST DUP2 SWAP1 POP SWAP2 SWAP1 POP JUMP JUMPDEST PUSH1 0x0 PUSH1 0x1 DUP3 SUB PUSH2 0x16B JUMPI PUSH1 0x40 MLOAD PUSH32 0x8C379A000000000000000000000000000000000000000000000000000000000 DUP2 MSTORE PUSH1 0x4 ADD PUSH2 0x162 SWAP1 PUSH2 0x2DD JUMP JUMPDEST PUSH1 0x40 MLOAD DUP1 SWAP2 SUB SWAP1 REVERT JUMPDEST DUP2 SWAP1 POP SWAP2 SWAP1 POP JUMP JUMPDEST PUSH1 0x0 PUSH1 0x1 DUP3 SUB PUSH2 0x186 JUMPI PUSH2 0x185 PUSH2 0x2FD JUMP JUMPDEST JUMPDEST DUP2 SWAP1 POP SWAP2 SWAP1 POP JUMP JUMPDEST PUSH1 0x0 DUP1 REVERT JUMPDEST PUSH1 0x0 DUP2 SWAP1 POP SWAP2 SWAP1 POP JUMP JUMPDEST PUSH2 0x1A6 DUP2 PUSH2 0x193 JUMP JUMPDEST DUP2 EQ PUSH2 0x1B1 JUMPI PUSH1 0x0 DUP1 REVERT JUMPDEST POP JUMP JUMPDEST PUSH1 0x0 DUP2 CALLDATALOAD SWAP1 POP PUSH2 0x1C3 DUP2 PUSH2 0x19D JUMP JUMPDEST SWAP3 SWAP2 POP POP JUMP JUMPDEST PUSH1 0x0 PUSH1 0x20 DUP3 DUP5 SUB SLT ISZERO PUSH2 0x1DF JUMPI PUSH2 0x1DE PUSH2 0x18E JUMP JUMPDEST JUMPDEST PUSH1 0x0 PUSH2 0x1ED DUP5 DUP3 DUP6 ADD PUSH2 0x1B4 JUMP JUMPDEST SWAP2 POP POP SWAP3 SWAP2 POP POP JUMP JUMPDEST PUSH2 0x1FF DUP2 PUSH2 0x193 JUMP JUMPDEST DUP3 MSTORE POP POP JUMP JUMPDEST PUSH1 0x0 PUSH1 0x20 DUP3 ADD SWAP1 POP PUSH2 0x21A PUSH1 0x0 DUP4 ADD DUP5 PUSH2 0x1F6 JUMP JUMPDEST SWAP3 SWAP2 POP POP JUMP JUMPDEST PUSH1 0x0 DUP2 SWAP1 POP SWAP2 SWAP1 POP JUMP JUMPDEST PUSH1 0x0 DUP2 SWAP1 POP SWAP2 SWAP1 POP JUMP JUMPDEST PUSH1 0x0 PUSH2 0x24F PUSH2 0x24A PUSH2 0x245 DUP5 PUSH2 0x220 JUMP JUMPDEST PUSH2 0x22A JUMP JUMPDEST PUSH2 0x193 JUMP JUMPDEST SWAP1 POP SWAP2 SWAP1 POP JUMP JUMPDEST PUSH2 0x25F DUP2 PUSH2 0x234 JUMP JUMPDEST DUP3 MSTORE POP POP JUMP JUMPDEST PUSH1 0x0 PUSH1 0x20 DUP3 ADD SWAP1 POP PUSH2 0x27A PUSH1 0x0 DUP4 ADD DUP5 PUSH2 0x256 JUMP JUMPDEST SWAP3 SWAP2 POP POP JUMP JUMPDEST PUSH1 0x0 DUP3 DUP3 MSTORE PUSH1 0x20 DUP3 ADD SWAP1 POP SWAP3 SWAP2 POP POP JUMP JUMPDEST PUSH32 0x536F6D65204572726F7200000000000000000000000000000000000000000000 PUSH1 0x0 DUP3 ADD MSTORE POP JUMP JUMPDEST PUSH1 0x0 PUSH2 0x2C7 PUSH1 0xA DUP4 PUSH2 0x280 JUMP JUMPDEST SWAP2 POP PUSH2 0x2D2 DUP3 PUSH2 0x291 JUMP JUMPDEST PUSH1 0x20 DUP3 ADD SWAP1 POP SWAP2 SWAP1 POP JUMP JUMPDEST PUSH1 0x0 PUSH1 0x20 DUP3 ADD SWAP1 POP DUP2 DUP2 SUB PUSH1 0x0 DUP4 ADD MSTORE PUSH2 0x2F6 DUP2 PUSH2 0x2BA JUMP JUMPDEST SWAP1 POP SWAP2 SWAP1 POP JUMP JUMPDEST PUSH32 0x4E487B7100000000000000000000000000000000000000000000000000000000 PUSH1 0x0 MSTORE PUSH1 0x1 PUSH1 0x4 MSTORE PUSH1 0x24 PUSH1 0x0 REVERT INVALID LOG2 PUSH5 0x6970667358 0x22 SLT KECCAK256 TSTORE OR GASPRICE 0xA9 0xB5 GT 0xE3 0x2E DUP8 OR PUSH0 0xE8 0xEB GASLIMIT PUSH19 0xD70162623B7AE4AE2C067FCA6902A055F06473 PUSH16 0x6C634300081900330000000000000000 "
				},
				"gasEstimates": {
					"creation": {
						"codeDepositCost": "173200",
						"executionCost": "220",
						"totalCost": "173420"
					},
					"external": {
						"assertTest(uint256)": "infinite",
						"errorTest(uint256)": "infinite",
						"requireTest(uint256)": "infinite"
					}
				},
				"methodIdentifiers": {
					"assertTest(uint256)": "7c63519e",
					"errorTest(uint256)": "06edc75f",
					"requireTest(uint256)": "148b677f"
				}
			},
			"storageLayout": {
				"storage": [],
				"types": null
			},
			"userdoc": {
				"kind": "user",
				"methods": {},
				"version": 1
			}
		}
	}
}