{
	"contracts/5_DataStorage.sol": {
		"DataStorage": {
			"abi": [
				{
					"inputs": [
						{
							"internalType": "uint256[]",
							"name": "_x",
							"type": "uint256[]"
						}
					],
					"name": "fCalldata",
					"outputs": [
						{
							"internalType": "uint256[]",
							"name": "",
							"type": "uint256[]"
						}
					],
					"stateMutability": "pure",
					"type": "function"
				},
				{
					"inputs": [
						{
							"internalType": "uint256[]",
							"name": "_x",
							"type": "uint256[]"
						}
					],
					"name": "fMemory",
					"outputs": [
						{
							"internalType": "uint256[]",
							"name": "",
							"type": "uint256[]"
						}
					],
					"stateMutability": "pure",
					"type": "function"
				},
				{
					"inputs": [],
					"name": "fMemoryToMemory",
					"outputs": [
						{
							"internalType": "uint256",
							"name": "",
							"type": "uint256"
						}
					],
					"stateMutability": "pure",
					"type": "function"
				},
				{
					"inputs": [],
					"name": "fMemoryToSorage",
					"outputs": [
						{
							"internalType": "uint256",
							"name": "_int",
							"type": "uint256"
						}
					],
					"stateMutability": "nonpayable",
					"type": "function"
				},
				{
					"inputs": [],
					"name": "fStorageToMemory",
					"outputs": [],
					"stateMutability": "view",
					"type": "function"
				},
				{
					"inputs": [],
					"name": "fStorageToSorage",
					"outputs": [],
					"stateMutability": "nonpayable",
					"type": "function"
				},
				{
					"inputs": [],
					"name": "getX",
					"outputs": [
						{
							"internalType": "uint256[]",
							"name": "",
							"type": "uint256[]"
						}
					],
					"stateMutability": "view",
					"type": "function"
				},
				{
					"inputs": [
						{
							"internalType": "uint256",
							"name": "",
							"type": "uint256"
						}
					],
					"name": "x",
					"outputs": [
						{
							"internalType": "uint256",
							"name": "",
							"type": "uint256"
						}
					],
					"stateMutability": "view",
					"type": "function"
				}
			],
			"devdoc": {
				"kind": "dev",
				"methods": {},
				"version": 1
			},
			"evm": {
				"assembly": "    /* \"contracts/5_DataStorage.sol\":486:2561  contract DataStorage {... */\n  mstore(0x40, 0x80)\n    /* \"contracts/5_DataStorage.sol\":513:540  uint[] public x = [1, 2, 3] */\n  mload(0x40)\n  dup1\n  0x60\n  add\n  0x40\n  mstore\n  dup1\n    /* \"contracts/5_DataStorage.sol\":532:533  1 */\n  0x01\n    /* \"contracts/5_DataStorage.sol\":513:540  uint[] public x = [1, 2, 3] */\n  0xff\n  and\n  dup2\n  mstore\n  0x20\n  add\n    /* \"contracts/5_DataStorage.sol\":535:536  2 */\n  0x02\n    /* \"contracts/5_DataStorage.sol\":513:540  uint[] public x = [1, 2, 3] */\n  0xff\n  and\n  dup2\n  mstore\n  0x20\n  add\n    /* \"contracts/5_DataStorage.sol\":538:539  3 */\n  0x03\n    /* \"contracts/5_DataStorage.sol\":513:540  uint[] public x = [1, 2, 3] */\n  0xff\n  and\n  dup2\n  mstore\n  pop\n  0x00\n  swap1\n  0x03\n  tag_1\n  swap3\n  swap2\n  swap1\n  tag_2\n  jump\t// in\ntag_1:\n  pop\n    /* \"contracts/5_DataStorage.sol\":486:2561  contract DataStorage {... */\n  callvalue\n  dup1\n  iszero\n  tag_3\n  jumpi\n  0x00\n  dup1\n  revert\ntag_3:\n  pop\n  jump(tag_4)\ntag_2:\n  dup3\n  dup1\n  sload\n  dup3\n  dup3\n  sstore\n  swap1\n  0x00\n  mstore\n  keccak256(0x00, 0x20)\n  swap1\n  dup2\n  add\n  swap3\n  dup3\n  iszero\n  tag_5\n  jumpi\n  swap2\n  0x20\n  mul\n  dup3\n  add\ntag_6:\n  dup3\n  dup2\n  gt\n  iszero\n  tag_7\n  jumpi\n  dup3\n  mload\n  dup3\n  swap1\n  0xff\n  and\n  swap1\n  sstore\n  swap2\n  0x20\n  add\n  swap2\n  swap1\n  0x01\n  add\n  swap1\n  jump(tag_6)\ntag_7:\ntag_5:\n  pop\n  swap1\n  pop\n  tag_8\n  swap2\n  swap1\n  tag_9\n  jump\t// in\ntag_8:\n  pop\n  swap1\n  jump\t// out\ntag_9:\ntag_10:\n  dup1\n  dup3\n  gt\n  iszero\n  tag_11\n  jumpi\n  0x00\n  dup2\n  0x00\n  swap1\n  sstore\n  pop\n  0x01\n  add\n  jump(tag_10)\ntag_11:\n  pop\n  swap1\n  jump\t// out\ntag_4:\n  dataSize(sub_0)\n  dup1\n  dataOffset(sub_0)\n  0x00\n  codecopy\n  0x00\n  return\nstop\n\nsub_0: assembly {\n        /* \"contracts/5_DataStorage.sol\":486:2561  contract DataStorage {... */\n      mstore(0x40, 0x80)\n      callvalue\n      dup1\n      iszero\n      tag_1\n      jumpi\n      0x00\n      dup1\n      revert\n    tag_1:\n      pop\n      jumpi(tag_2, lt(calldatasize, 0x04))\n      shr(0xe0, calldataload(0x00))\n      dup1\n      0x5197c7aa\n      gt\n      tag_11\n      jumpi\n      dup1\n      0x5197c7aa\n      eq\n      tag_7\n      jumpi\n      dup1\n      0x9b1a379c\n      eq\n      tag_8\n      jumpi\n      dup1\n      0xa3125c08\n      eq\n      tag_9\n      jumpi\n      dup1\n      0xae4ee941\n      eq\n      tag_10\n      jumpi\n      jump(tag_2)\n    tag_11:\n      dup1\n      0x16ef614f\n      eq\n      tag_3\n      jumpi\n      dup1\n      0x36fe2e34\n      eq\n      tag_4\n      jumpi\n      dup1\n      0x3f4263ef\n      eq\n      tag_5\n      jumpi\n      dup1\n      0x48d1c0aa\n      eq\n      tag_6\n      jumpi\n    tag_2:\n      0x00\n      dup1\n      revert\n        /* \"contracts/5_DataStorage.sol\":852:964  function fMemory(uint[] memory _x) public pure returns(uint[] memory){... */\n    tag_3:\n      tag_12\n      0x04\n      dup1\n      calldatasize\n      sub\n      dup2\n      add\n      swap1\n      tag_13\n      swap2\n      swap1\n      tag_14\n      jump\t// in\n    tag_13:\n      tag_15\n      jump\t// in\n    tag_12:\n      mload(0x40)\n      tag_16\n      swap2\n      swap1\n      tag_17\n      jump\t// in\n    tag_16:\n      mload(0x40)\n      dup1\n      swap2\n      sub\n      swap1\n      return\n        /* \"contracts/5_DataStorage.sol\":1450:1664  function fMemoryToMemory() public pure returns(uint){... */\n    tag_4:\n      tag_18\n      tag_19\n      jump\t// in\n    tag_18:\n      mload(0x40)\n      tag_20\n      swap2\n      swap1\n      tag_21\n      jump\t// in\n    tag_20:\n      mload(0x40)\n      dup1\n      swap2\n      sub\n      swap1\n      return\n        /* \"contracts/5_DataStorage.sol\":513:540  uint[] public x = [1, 2, 3] */\n    tag_5:\n      tag_22\n      0x04\n      dup1\n      calldatasize\n      sub\n      dup2\n      add\n      swap1\n      tag_23\n      swap2\n      swap1\n      tag_24\n      jump\t// in\n    tag_23:\n      tag_25\n      jump\t// in\n    tag_22:\n      mload(0x40)\n      tag_26\n      swap2\n      swap1\n      tag_21\n      jump\t// in\n    tag_26:\n      mload(0x40)\n      dup1\n      swap2\n      sub\n      swap1\n      return\n        /* \"contracts/5_DataStorage.sol\":1257:1364  function fStorageToMemory() public view{... */\n    tag_6:\n      tag_27\n      tag_28\n      jump\t// in\n    tag_27:\n      stop\n        /* \"contracts/5_DataStorage.sol\":551:626  function getX() public view returns(uint[] memory){... */\n    tag_7:\n      tag_29\n      tag_30\n      jump\t// in\n    tag_29:\n      mload(0x40)\n      tag_31\n      swap2\n      swap1\n      tag_17\n      jump\t// in\n    tag_31:\n      mload(0x40)\n      dup1\n      swap2\n      sub\n      swap1\n      return\n        /* \"contracts/5_DataStorage.sol\":679:800  function fCalldata(uint[] calldata _x) public pure returns(uint[] calldata){... */\n    tag_8:\n      tag_32\n      0x04\n      dup1\n      calldatasize\n      sub\n      dup2\n      add\n      swap1\n      tag_33\n      swap2\n      swap1\n      tag_34\n      jump\t// in\n    tag_33:\n      tag_35\n      jump\t// in\n    tag_32:\n      mload(0x40)\n      tag_36\n      swap3\n      swap2\n      swap1\n      tag_37\n      jump\t// in\n    tag_36:\n      mload(0x40)\n      dup1\n      swap2\n      sub\n      swap1\n      return\n        /* \"contracts/5_DataStorage.sol\":1049:1155  function fStorageToSorage() public {... */\n    tag_9:\n      tag_38\n      tag_39\n      jump\t// in\n    tag_38:\n      stop\n        /* \"contracts/5_DataStorage.sol\":1754:1943  function fMemoryToSorage() public returns(uint _int){... */\n    tag_10:\n      tag_40\n      tag_41\n      jump\t// in\n    tag_40:\n      mload(0x40)\n      tag_42\n      swap2\n      swap1\n      tag_21\n      jump\t// in\n    tag_42:\n      mload(0x40)\n      dup1\n      swap2\n      sub\n      swap1\n      return\n        /* \"contracts/5_DataStorage.sol\":852:964  function fMemory(uint[] memory _x) public pure returns(uint[] memory){... */\n    tag_15:\n        /* \"contracts/5_DataStorage.sol\":907:920  uint[] memory */\n      0x60\n        /* \"contracts/5_DataStorage.sol\":937:938  0 */\n      0x00\n        /* \"contracts/5_DataStorage.sol\":931:933  _x */\n      dup3\n        /* \"contracts/5_DataStorage.sol\":934:935  0 */\n      0x00\n        /* \"contracts/5_DataStorage.sol\":931:936  _x[0] */\n      dup2\n      mload\n      dup2\n      lt\n      tag_44\n      jumpi\n      tag_45\n      tag_46\n      jump\t// in\n    tag_45:\n    tag_44:\n      0x20\n      mul\n      0x20\n      add\n      add\n        /* \"contracts/5_DataStorage.sol\":931:938  _x[0]=0 */\n      dup2\n      dup2\n      mstore\n      pop\n      pop\n        /* \"contracts/5_DataStorage.sol\":955:957  _x */\n      dup2\n        /* \"contracts/5_DataStorage.sol\":948:957  return _x */\n      swap1\n      pop\n        /* \"contracts/5_DataStorage.sol\":852:964  function fMemory(uint[] memory _x) public pure returns(uint[] memory){... */\n      swap2\n      swap1\n      pop\n      jump\t// out\n        /* \"contracts/5_DataStorage.sol\":1450:1664  function fMemoryToMemory() public pure returns(uint){... */\n    tag_19:\n        /* \"contracts/5_DataStorage.sol\":1497:1501  uint */\n      0x00\n        /* \"contracts/5_DataStorage.sol\":1512:1534  uint[3] memory xMemory */\n      dup1\n        /* \"contracts/5_DataStorage.sol\":1512:1562  uint[3] memory xMemory = [uint(1),uint(2),uint(3)] */\n      mload(0x40)\n      dup1\n      0x60\n      add\n      0x40\n      mstore\n      dup1\n        /* \"contracts/5_DataStorage.sol\":1543:1544  1 */\n      0x01\n        /* \"contracts/5_DataStorage.sol\":1512:1562  uint[3] memory xMemory = [uint(1),uint(2),uint(3)] */\n      dup2\n      mstore\n      0x20\n      add\n        /* \"contracts/5_DataStorage.sol\":1551:1552  2 */\n      0x02\n        /* \"contracts/5_DataStorage.sol\":1512:1562  uint[3] memory xMemory = [uint(1),uint(2),uint(3)] */\n      dup2\n      mstore\n      0x20\n      add\n        /* \"contracts/5_DataStorage.sol\":1559:1560  3 */\n      0x03\n        /* \"contracts/5_DataStorage.sol\":1512:1562  uint[3] memory xMemory = [uint(1),uint(2),uint(3)] */\n      dup2\n      mstore\n      pop\n      swap1\n      pop\n        /* \"contracts/5_DataStorage.sol\":1572:1594  uint[3] memory yMemory */\n      0x00\n        /* \"contracts/5_DataStorage.sol\":1597:1604  xMemory */\n      dup2\n        /* \"contracts/5_DataStorage.sol\":1572:1604  uint[3] memory yMemory = xMemory */\n      swap1\n      pop\n        /* \"contracts/5_DataStorage.sol\":1627:1630  300 */\n      0x012c\n        /* \"contracts/5_DataStorage.sol\":1614:1621  yMemory */\n      dup2\n        /* \"contracts/5_DataStorage.sol\":1622:1623  0 */\n      0x00\n        /* \"contracts/5_DataStorage.sol\":1614:1624  yMemory[0] */\n      0x03\n      dup2\n      lt\n      tag_48\n      jumpi\n      tag_49\n      tag_46\n      jump\t// in\n    tag_49:\n    tag_48:\n      0x20\n      mul\n      add\n        /* \"contracts/5_DataStorage.sol\":1614:1630  yMemory[0] = 300 */\n      dup2\n      dup2\n      mstore\n      pop\n      pop\n        /* \"contracts/5_DataStorage.sol\":1647:1654  xMemory */\n      dup2\n        /* \"contracts/5_DataStorage.sol\":1655:1656  0 */\n      0x00\n        /* \"contracts/5_DataStorage.sol\":1647:1657  xMemory[0] */\n      0x03\n      dup2\n      lt\n      tag_50\n      jumpi\n      tag_51\n      tag_46\n      jump\t// in\n    tag_51:\n    tag_50:\n      0x20\n      mul\n      add\n      mload\n        /* \"contracts/5_DataStorage.sol\":1640:1657  return xMemory[0] */\n      swap3\n      pop\n      pop\n      pop\n        /* \"contracts/5_DataStorage.sol\":1450:1664  function fMemoryToMemory() public pure returns(uint){... */\n      swap1\n      jump\t// out\n        /* \"contracts/5_DataStorage.sol\":513:540  uint[] public x = [1, 2, 3] */\n    tag_25:\n      0x00\n      dup2\n      dup2\n      sload\n      dup2\n      lt\n      tag_52\n      jumpi\n      0x00\n      dup1\n      revert\n    tag_52:\n      swap1\n      0x00\n      mstore\n      keccak256(0x00, 0x20)\n      add\n      0x00\n      swap2\n      pop\n      swap1\n      pop\n      sload\n      dup2\n      jump\t// out\n        /* \"contracts/5_DataStorage.sol\":1257:1364  function fStorageToMemory() public view{... */\n    tag_28:\n        /* \"contracts/5_DataStorage.sol\":1306:1327  uint[] memory xMemory */\n      0x00\n        /* \"contracts/5_DataStorage.sol\":1330:1331  x */\n      dup1\n        /* \"contracts/5_DataStorage.sol\":1306:1331  uint[] memory xMemory = x */\n      dup1\n      sload\n      dup1\n      0x20\n      mul\n      0x20\n      add\n      mload(0x40)\n      swap1\n      dup2\n      add\n      0x40\n      mstore\n      dup1\n      swap3\n      swap2\n      swap1\n      dup2\n      dup2\n      mstore\n      0x20\n      add\n      dup3\n      dup1\n      sload\n      dup1\n      iszero\n      tag_55\n      jumpi\n      0x20\n      mul\n      dup3\n      add\n      swap2\n      swap1\n      0x00\n      mstore\n      keccak256(0x00, 0x20)\n      swap1\n    tag_56:\n      dup2\n      sload\n      dup2\n      mstore\n      0x20\n      add\n      swap1\n      0x01\n      add\n      swap1\n      dup1\n      dup4\n      gt\n      tag_56\n      jumpi\n    tag_55:\n      pop\n      pop\n      pop\n      pop\n      pop\n      swap1\n      pop\n        /* \"contracts/5_DataStorage.sol\":1354:1357  200 */\n      0xc8\n        /* \"contracts/5_DataStorage.sol\":1341:1348  xMemory */\n      dup2\n        /* \"contracts/5_DataStorage.sol\":1349:1350  0 */\n      0x00\n        /* \"contracts/5_DataStorage.sol\":1341:1351  xMemory[0] */\n      dup2\n      mload\n      dup2\n      lt\n      tag_57\n      jumpi\n      tag_58\n      tag_46\n      jump\t// in\n    tag_58:\n    tag_57:\n      0x20\n      mul\n      0x20\n      add\n      add\n        /* \"contracts/5_DataStorage.sol\":1341:1357  xMemory[0] = 200 */\n      dup2\n      dup2\n      mstore\n      pop\n      pop\n        /* \"contracts/5_DataStorage.sol\":1296:1364  {... */\n      pop\n        /* \"contracts/5_DataStorage.sol\":1257:1364  function fStorageToMemory() public view{... */\n      jump\t// out\n        /* \"contracts/5_DataStorage.sol\":551:626  function getX() public view returns(uint[] memory){... */\n    tag_30:\n        /* \"contracts/5_DataStorage.sol\":587:600  uint[] memory */\n      0x60\n        /* \"contracts/5_DataStorage.sol\":618:619  x */\n      0x00\n        /* \"contracts/5_DataStorage.sol\":611:619  return x */\n      dup1\n      sload\n      dup1\n      0x20\n      mul\n      0x20\n      add\n      mload(0x40)\n      swap1\n      dup2\n      add\n      0x40\n      mstore\n      dup1\n      swap3\n      swap2\n      swap1\n      dup2\n      dup2\n      mstore\n      0x20\n      add\n      dup3\n      dup1\n      sload\n      dup1\n      iszero\n      tag_60\n      jumpi\n      0x20\n      mul\n      dup3\n      add\n      swap2\n      swap1\n      0x00\n      mstore\n      keccak256(0x00, 0x20)\n      swap1\n    tag_61:\n      dup2\n      sload\n      dup2\n      mstore\n      0x20\n      add\n      swap1\n      0x01\n      add\n      swap1\n      dup1\n      dup4\n      gt\n      tag_61\n      jumpi\n    tag_60:\n      pop\n      pop\n      pop\n      pop\n      pop\n      swap1\n      pop\n        /* \"contracts/5_DataStorage.sol\":551:626  function getX() public view returns(uint[] memory){... */\n      swap1\n      jump\t// out\n        /* \"contracts/5_DataStorage.sol\":679:800  function fCalldata(uint[] calldata _x) public pure returns(uint[] calldata){... */\n    tag_35:\n        /* \"contracts/5_DataStorage.sol\":738:753  uint[] calldata */\n      calldatasize\n      0x00\n        /* \"contracts/5_DataStorage.sol\":791:793  _x */\n      dup4\n      dup4\n        /* \"contracts/5_DataStorage.sol\":784:793  return _x */\n      swap2\n      pop\n      swap2\n      pop\n        /* \"contracts/5_DataStorage.sol\":679:800  function fCalldata(uint[] calldata _x) public pure returns(uint[] calldata){... */\n      swap3\n      pop\n      swap3\n      swap1\n      pop\n      jump\t// out\n        /* \"contracts/5_DataStorage.sol\":1049:1155  function fStorageToSorage() public {... */\n    tag_39:\n        /* \"contracts/5_DataStorage.sol\":1094:1117  uint[] storage xStorage */\n      0x00\n        /* \"contracts/5_DataStorage.sol\":1145:1148  100 */\n      0x64\n        /* \"contracts/5_DataStorage.sol\":1131:1139  xStorage */\n      dup2\n        /* \"contracts/5_DataStorage.sol\":1140:1141  0 */\n      0x00\n        /* \"contracts/5_DataStorage.sol\":1131:1142  xStorage[0] */\n      dup2\n      sload\n      dup2\n      lt\n      tag_64\n      jumpi\n      tag_65\n      tag_46\n      jump\t// in\n    tag_65:\n    tag_64:\n      swap1\n      0x00\n      mstore\n      keccak256(0x00, 0x20)\n      add\n        /* \"contracts/5_DataStorage.sol\":1131:1148  xStorage[0] = 100 */\n      dup2\n      swap1\n      sstore\n      pop\n        /* \"contracts/5_DataStorage.sol\":1084:1155  {... */\n      pop\n        /* \"contracts/5_DataStorage.sol\":1049:1155  function fStorageToSorage() public {... */\n      jump\t// out\n        /* \"contracts/5_DataStorage.sol\":1754:1943  function fMemoryToSorage() public returns(uint _int){... */\n    tag_41:\n        /* \"contracts/5_DataStorage.sol\":1796:1805  uint _int */\n      0x00\n        /* \"contracts/5_DataStorage.sol\":1816:1838  uint[3] memory xMemory */\n      dup1\n        /* \"contracts/5_DataStorage.sol\":1816:1872  uint[3] memory xMemory = [uint(100),uint(200),uint(300)] */\n      mload(0x40)\n      dup1\n      0x60\n      add\n      0x40\n      mstore\n      dup1\n        /* \"contracts/5_DataStorage.sol\":1847:1850  100 */\n      0x64\n        /* \"contracts/5_DataStorage.sol\":1816:1872  uint[3] memory xMemory = [uint(100),uint(200),uint(300)] */\n      dup2\n      mstore\n      0x20\n      add\n        /* \"contracts/5_DataStorage.sol\":1857:1860  200 */\n      0xc8\n        /* \"contracts/5_DataStorage.sol\":1816:1872  uint[3] memory xMemory = [uint(100),uint(200),uint(300)] */\n      dup2\n      mstore\n      0x20\n      add\n        /* \"contracts/5_DataStorage.sol\":1867:1870  300 */\n      0x012c\n        /* \"contracts/5_DataStorage.sol\":1816:1872  uint[3] memory xMemory = [uint(100),uint(200),uint(300)] */\n      dup2\n      mstore\n      pop\n      swap1\n      pop\n        /* \"contracts/5_DataStorage.sol\":1886:1893  xMemory */\n      dup1\n        /* \"contracts/5_DataStorage.sol\":1882:1883  x */\n      0x00\n        /* \"contracts/5_DataStorage.sol\":1882:1893  x = xMemory */\n      swap1\n      0x03\n      tag_68\n      swap3\n      swap2\n      swap1\n      tag_69\n      jump\t// in\n    tag_68:\n      pop\n        /* \"contracts/5_DataStorage.sol\":1908:1909  0 */\n      0x00\n        /* \"contracts/5_DataStorage.sol\":1903:1904  x */\n      dup1\n        /* \"contracts/5_DataStorage.sol\":1905:1906  0 */\n      0x00\n        /* \"contracts/5_DataStorage.sol\":1903:1907  x[0] */\n      dup2\n      sload\n      dup2\n      lt\n      tag_70\n      jumpi\n      tag_71\n      tag_46\n      jump\t// in\n    tag_71:\n    tag_70:\n      swap1\n      0x00\n      mstore\n      keccak256(0x00, 0x20)\n      add\n        /* \"contracts/5_DataStorage.sol\":1903:1909  x[0]=0 */\n      dup2\n      swap1\n      sstore\n      pop\n        /* \"contracts/5_DataStorage.sol\":1926:1933  xMemory */\n      dup1\n        /* \"contracts/5_DataStorage.sol\":1934:1935  0 */\n      0x00\n        /* \"contracts/5_DataStorage.sol\":1926:1936  xMemory[0] */\n      0x03\n      dup2\n      lt\n      tag_73\n      jumpi\n      tag_74\n      tag_46\n      jump\t// in\n    tag_74:\n    tag_73:\n      0x20\n      mul\n      add\n      mload\n        /* \"contracts/5_DataStorage.sol\":1919:1936  _int = xMemory[0] */\n      swap2\n      pop\n        /* \"contracts/5_DataStorage.sol\":1806:1943  {... */\n      pop\n        /* \"contracts/5_DataStorage.sol\":1754:1943  function fMemoryToSorage() public returns(uint _int){... */\n      swap1\n      jump\t// out\n    tag_69:\n      dup3\n      dup1\n      sload\n      dup3\n      dup3\n      sstore\n      swap1\n      0x00\n      mstore\n      keccak256(0x00, 0x20)\n      swap1\n      dup2\n      add\n      swap3\n      dup3\n      iszero\n      tag_75\n      jumpi\n      swap2\n      0x20\n      mul\n      dup3\n      add\n    tag_76:\n      dup3\n      dup2\n      gt\n      iszero\n      tag_77\n      jumpi\n      dup3\n      mload\n      dup3\n      sstore\n      swap2\n      0x20\n      add\n      swap2\n      swap1\n      0x01\n      add\n      swap1\n      jump(tag_76)\n    tag_77:\n    tag_75:\n      pop\n      swap1\n      pop\n      tag_78\n      swap2\n      swap1\n      tag_79\n      jump\t// in\n    tag_78:\n      pop\n      swap1\n      jump\t// out\n    tag_79:\n    tag_80:\n      dup1\n      dup3\n      gt\n      iszero\n      tag_81\n      jumpi\n      0x00\n      dup2\n      0x00\n      swap1\n      sstore\n      pop\n      0x01\n      add\n      jump(tag_80)\n    tag_81:\n      pop\n      swap1\n      jump\t// out\n        /* \"#utility.yul\":7:82   */\n    tag_82:\n        /* \"#utility.yul\":40:46   */\n      0x00\n        /* \"#utility.yul\":73:75   */\n      0x40\n        /* \"#utility.yul\":67:76   */\n      mload\n        /* \"#utility.yul\":57:76   */\n      swap1\n      pop\n        /* \"#utility.yul\":7:82   */\n      swap1\n      jump\t// out\n        /* \"#utility.yul\":88:205   */\n    tag_83:\n        /* \"#utility.yul\":197:198   */\n      0x00\n        /* \"#utility.yul\":194:195   */\n      dup1\n        /* \"#utility.yul\":187:199   */\n      revert\n        /* \"#utility.yul\":211:328   */\n    tag_84:\n        /* \"#utility.yul\":320:321   */\n      0x00\n        /* \"#utility.yul\":317:318   */\n      dup1\n        /* \"#utility.yul\":310:322   */\n      revert\n        /* \"#utility.yul\":334:451   */\n    tag_85:\n        /* \"#utility.yul\":443:444   */\n      0x00\n        /* \"#utility.yul\":440:441   */\n      dup1\n        /* \"#utility.yul\":433:445   */\n      revert\n        /* \"#utility.yul\":457:559   */\n    tag_86:\n        /* \"#utility.yul\":498:504   */\n      0x00\n        /* \"#utility.yul\":549:551   */\n      0x1f\n        /* \"#utility.yul\":545:552   */\n      not\n        /* \"#utility.yul\":540:542   */\n      0x1f\n        /* \"#utility.yul\":533:538   */\n      dup4\n        /* \"#utility.yul\":529:543   */\n      add\n        /* \"#utility.yul\":525:553   */\n      and\n        /* \"#utility.yul\":515:553   */\n      swap1\n      pop\n        /* \"#utility.yul\":457:559   */\n      swap2\n      swap1\n      pop\n      jump\t// out\n        /* \"#utility.yul\":565:745   */\n    tag_87:\n        /* \"#utility.yul\":613:690   */\n      0x4e487b7100000000000000000000000000000000000000000000000000000000\n        /* \"#utility.yul\":610:611   */\n      0x00\n        /* \"#utility.yul\":603:691   */\n      mstore\n        /* \"#utility.yul\":710:714   */\n      0x41\n        /* \"#utility.yul\":707:708   */\n      0x04\n        /* \"#utility.yul\":700:715   */\n      mstore\n        /* \"#utility.yul\":734:738   */\n      0x24\n        /* \"#utility.yul\":731:732   */\n      0x00\n        /* \"#utility.yul\":724:739   */\n      revert\n        /* \"#utility.yul\":751:1032   */\n    tag_88:\n        /* \"#utility.yul\":834:861   */\n      tag_118\n        /* \"#utility.yul\":856:860   */\n      dup3\n        /* \"#utility.yul\":834:861   */\n      tag_86\n      jump\t// in\n    tag_118:\n        /* \"#utility.yul\":826:832   */\n      dup2\n        /* \"#utility.yul\":822:862   */\n      add\n        /* \"#utility.yul\":964:970   */\n      dup2\n        /* \"#utility.yul\":952:962   */\n      dup2\n        /* \"#utility.yul\":949:971   */\n      lt\n        /* \"#utility.yul\":928:946   */\n      0xffffffffffffffff\n        /* \"#utility.yul\":916:926   */\n      dup3\n        /* \"#utility.yul\":913:947   */\n      gt\n        /* \"#utility.yul\":910:972   */\n      or\n        /* \"#utility.yul\":907:995   */\n      iszero\n      tag_119\n      jumpi\n        /* \"#utility.yul\":975:993   */\n      tag_120\n      tag_87\n      jump\t// in\n    tag_120:\n        /* \"#utility.yul\":907:995   */\n    tag_119:\n        /* \"#utility.yul\":1015:1025   */\n      dup1\n        /* \"#utility.yul\":1011:1013   */\n      0x40\n        /* \"#utility.yul\":1004:1026   */\n      mstore\n        /* \"#utility.yul\":794:1032   */\n      pop\n        /* \"#utility.yul\":751:1032   */\n      pop\n      pop\n      jump\t// out\n        /* \"#utility.yul\":1038:1167   */\n    tag_89:\n        /* \"#utility.yul\":1072:1078   */\n      0x00\n        /* \"#utility.yul\":1099:1119   */\n      tag_122\n      tag_82\n      jump\t// in\n    tag_122:\n        /* \"#utility.yul\":1089:1119   */\n      swap1\n      pop\n        /* \"#utility.yul\":1128:1161   */\n      tag_123\n        /* \"#utility.yul\":1156:1160   */\n      dup3\n        /* \"#utility.yul\":1148:1154   */\n      dup3\n        /* \"#utility.yul\":1128:1161   */\n      tag_88\n      jump\t// in\n    tag_123:\n        /* \"#utility.yul\":1038:1167   */\n      swap2\n      swap1\n      pop\n      jump\t// out\n        /* \"#utility.yul\":1173:1484   */\n    tag_90:\n        /* \"#utility.yul\":1250:1254   */\n      0x00\n        /* \"#utility.yul\":1340:1358   */\n      0xffffffffffffffff\n        /* \"#utility.yul\":1332:1338   */\n      dup3\n        /* \"#utility.yul\":1329:1359   */\n      gt\n        /* \"#utility.yul\":1326:1382   */\n      iszero\n      tag_125\n      jumpi\n        /* \"#utility.yul\":1362:1380   */\n      tag_126\n      tag_87\n      jump\t// in\n    tag_126:\n        /* \"#utility.yul\":1326:1382   */\n    tag_125:\n        /* \"#utility.yul\":1412:1416   */\n      0x20\n        /* \"#utility.yul\":1404:1410   */\n      dup3\n        /* \"#utility.yul\":1400:1417   */\n      mul\n        /* \"#utility.yul\":1392:1417   */\n      swap1\n      pop\n        /* \"#utility.yul\":1472:1476   */\n      0x20\n        /* \"#utility.yul\":1466:1470   */\n      dup2\n        /* \"#utility.yul\":1462:1477   */\n      add\n        /* \"#utility.yul\":1454:1477   */\n      swap1\n      pop\n        /* \"#utility.yul\":1173:1484   */\n      swap2\n      swap1\n      pop\n      jump\t// out\n        /* \"#utility.yul\":1490:1607   */\n    tag_91:\n        /* \"#utility.yul\":1599:1600   */\n      0x00\n        /* \"#utility.yul\":1596:1597   */\n      dup1\n        /* \"#utility.yul\":1589:1601   */\n      revert\n        /* \"#utility.yul\":1613:1690   */\n    tag_92:\n        /* \"#utility.yul\":1650:1657   */\n      0x00\n        /* \"#utility.yul\":1679:1684   */\n      dup2\n        /* \"#utility.yul\":1668:1684   */\n      swap1\n      pop\n        /* \"#utility.yul\":1613:1690   */\n      swap2\n      swap1\n      pop\n      jump\t// out\n        /* \"#utility.yul\":1696:1818   */\n    tag_93:\n        /* \"#utility.yul\":1769:1793   */\n      tag_130\n        /* \"#utility.yul\":1787:1792   */\n      dup2\n        /* \"#utility.yul\":1769:1793   */\n      tag_92\n      jump\t// in\n    tag_130:\n        /* \"#utility.yul\":1762:1767   */\n      dup2\n        /* \"#utility.yul\":1759:1794   */\n      eq\n        /* \"#utility.yul\":1749:1812   */\n      tag_131\n      jumpi\n        /* \"#utility.yul\":1808:1809   */\n      0x00\n        /* \"#utility.yul\":1805:1806   */\n      dup1\n        /* \"#utility.yul\":1798:1810   */\n      revert\n        /* \"#utility.yul\":1749:1812   */\n    tag_131:\n        /* \"#utility.yul\":1696:1818   */\n      pop\n      jump\t// out\n        /* \"#utility.yul\":1824:1963   */\n    tag_94:\n        /* \"#utility.yul\":1870:1875   */\n      0x00\n        /* \"#utility.yul\":1908:1914   */\n      dup2\n        /* \"#utility.yul\":1895:1915   */\n      calldataload\n        /* \"#utility.yul\":1886:1915   */\n      swap1\n      pop\n        /* \"#utility.yul\":1924:1957   */\n      tag_133\n        /* \"#utility.yul\":1951:1956   */\n      dup2\n        /* \"#utility.yul\":1924:1957   */\n      tag_93\n      jump\t// in\n    tag_133:\n        /* \"#utility.yul\":1824:1963   */\n      swap3\n      swap2\n      pop\n      pop\n      jump\t// out\n        /* \"#utility.yul\":1986:2696   */\n    tag_95:\n        /* \"#utility.yul\":2082:2087   */\n      0x00\n        /* \"#utility.yul\":2107:2188   */\n      tag_135\n        /* \"#utility.yul\":2123:2187   */\n      tag_136\n        /* \"#utility.yul\":2180:2186   */\n      dup5\n        /* \"#utility.yul\":2123:2187   */\n      tag_90\n      jump\t// in\n    tag_136:\n        /* \"#utility.yul\":2107:2188   */\n      tag_89\n      jump\t// in\n    tag_135:\n        /* \"#utility.yul\":2098:2188   */\n      swap1\n      pop\n        /* \"#utility.yul\":2208:2213   */\n      dup1\n        /* \"#utility.yul\":2237:2243   */\n      dup4\n        /* \"#utility.yul\":2230:2235   */\n      dup3\n        /* \"#utility.yul\":2223:2244   */\n      mstore\n        /* \"#utility.yul\":2271:2275   */\n      0x20\n        /* \"#utility.yul\":2264:2269   */\n      dup3\n        /* \"#utility.yul\":2260:2276   */\n      add\n        /* \"#utility.yul\":2253:2276   */\n      swap1\n      pop\n        /* \"#utility.yul\":2324:2328   */\n      0x20\n        /* \"#utility.yul\":2316:2322   */\n      dup5\n        /* \"#utility.yul\":2312:2329   */\n      mul\n        /* \"#utility.yul\":2304:2310   */\n      dup4\n        /* \"#utility.yul\":2300:2330   */\n      add\n        /* \"#utility.yul\":2353:2356   */\n      dup6\n        /* \"#utility.yul\":2345:2351   */\n      dup2\n        /* \"#utility.yul\":2342:2357   */\n      gt\n        /* \"#utility.yul\":2339:2461   */\n      iszero\n      tag_137\n      jumpi\n        /* \"#utility.yul\":2372:2451   */\n      tag_138\n      tag_91\n      jump\t// in\n    tag_138:\n        /* \"#utility.yul\":2339:2461   */\n    tag_137:\n        /* \"#utility.yul\":2487:2493   */\n      dup4\n        /* \"#utility.yul\":2470:2690   */\n    tag_139:\n        /* \"#utility.yul\":2504:2510   */\n      dup2\n        /* \"#utility.yul\":2499:2502   */\n      dup2\n        /* \"#utility.yul\":2496:2511   */\n      lt\n        /* \"#utility.yul\":2470:2690   */\n      iszero\n      tag_141\n      jumpi\n        /* \"#utility.yul\":2579:2582   */\n      dup1\n        /* \"#utility.yul\":2608:2645   */\n      tag_142\n        /* \"#utility.yul\":2641:2644   */\n      dup9\n        /* \"#utility.yul\":2629:2639   */\n      dup3\n        /* \"#utility.yul\":2608:2645   */\n      tag_94\n      jump\t// in\n    tag_142:\n        /* \"#utility.yul\":2603:2606   */\n      dup5\n        /* \"#utility.yul\":2596:2646   */\n      mstore\n        /* \"#utility.yul\":2675:2679   */\n      0x20\n        /* \"#utility.yul\":2670:2673   */\n      dup5\n        /* \"#utility.yul\":2666:2680   */\n      add\n        /* \"#utility.yul\":2659:2680   */\n      swap4\n      pop\n        /* \"#utility.yul\":2546:2690   */\n      pop\n        /* \"#utility.yul\":2530:2534   */\n      0x20\n        /* \"#utility.yul\":2525:2528   */\n      dup2\n        /* \"#utility.yul\":2521:2535   */\n      add\n        /* \"#utility.yul\":2514:2535   */\n      swap1\n      pop\n        /* \"#utility.yul\":2470:2690   */\n      jump(tag_139)\n    tag_141:\n        /* \"#utility.yul\":2474:2495   */\n      pop\n        /* \"#utility.yul\":2088:2696   */\n      pop\n      pop\n        /* \"#utility.yul\":1986:2696   */\n      swap4\n      swap3\n      pop\n      pop\n      pop\n      jump\t// out\n        /* \"#utility.yul\":2719:3089   */\n    tag_96:\n        /* \"#utility.yul\":2790:2795   */\n      0x00\n        /* \"#utility.yul\":2839:2842   */\n      dup3\n        /* \"#utility.yul\":2832:2836   */\n      0x1f\n        /* \"#utility.yul\":2824:2830   */\n      dup4\n        /* \"#utility.yul\":2820:2837   */\n      add\n        /* \"#utility.yul\":2816:2843   */\n      slt\n        /* \"#utility.yul\":2806:2928   */\n      tag_144\n      jumpi\n        /* \"#utility.yul\":2847:2926   */\n      tag_145\n      tag_85\n      jump\t// in\n    tag_145:\n        /* \"#utility.yul\":2806:2928   */\n    tag_144:\n        /* \"#utility.yul\":2964:2970   */\n      dup2\n        /* \"#utility.yul\":2951:2971   */\n      calldataload\n        /* \"#utility.yul\":2989:3083   */\n      tag_146\n        /* \"#utility.yul\":3079:3082   */\n      dup5\n        /* \"#utility.yul\":3071:3077   */\n      dup3\n        /* \"#utility.yul\":3064:3068   */\n      0x20\n        /* \"#utility.yul\":3056:3062   */\n      dup7\n        /* \"#utility.yul\":3052:3069   */\n      add\n        /* \"#utility.yul\":2989:3083   */\n      tag_95\n      jump\t// in\n    tag_146:\n        /* \"#utility.yul\":2980:3083   */\n      swap2\n      pop\n        /* \"#utility.yul\":2796:3089   */\n      pop\n        /* \"#utility.yul\":2719:3089   */\n      swap3\n      swap2\n      pop\n      pop\n      jump\t// out\n        /* \"#utility.yul\":3095:3634   */\n    tag_14:\n        /* \"#utility.yul\":3179:3185   */\n      0x00\n        /* \"#utility.yul\":3228:3230   */\n      0x20\n        /* \"#utility.yul\":3216:3225   */\n      dup3\n        /* \"#utility.yul\":3207:3214   */\n      dup5\n        /* \"#utility.yul\":3203:3226   */\n      sub\n        /* \"#utility.yul\":3199:3231   */\n      slt\n        /* \"#utility.yul\":3196:3315   */\n      iszero\n      tag_148\n      jumpi\n        /* \"#utility.yul\":3234:3313   */\n      tag_149\n      tag_83\n      jump\t// in\n    tag_149:\n        /* \"#utility.yul\":3196:3315   */\n    tag_148:\n        /* \"#utility.yul\":3382:3383   */\n      0x00\n        /* \"#utility.yul\":3371:3380   */\n      dup3\n        /* \"#utility.yul\":3367:3384   */\n      add\n        /* \"#utility.yul\":3354:3385   */\n      calldataload\n        /* \"#utility.yul\":3412:3430   */\n      0xffffffffffffffff\n        /* \"#utility.yul\":3404:3410   */\n      dup2\n        /* \"#utility.yul\":3401:3431   */\n      gt\n        /* \"#utility.yul\":3398:3515   */\n      iszero\n      tag_150\n      jumpi\n        /* \"#utility.yul\":3434:3513   */\n      tag_151\n      tag_84\n      jump\t// in\n    tag_151:\n        /* \"#utility.yul\":3398:3515   */\n    tag_150:\n        /* \"#utility.yul\":3539:3617   */\n      tag_152\n        /* \"#utility.yul\":3609:3616   */\n      dup5\n        /* \"#utility.yul\":3600:3606   */\n      dup3\n        /* \"#utility.yul\":3589:3598   */\n      dup6\n        /* \"#utility.yul\":3585:3607   */\n      add\n        /* \"#utility.yul\":3539:3617   */\n      tag_96\n      jump\t// in\n    tag_152:\n        /* \"#utility.yul\":3529:3617   */\n      swap2\n      pop\n        /* \"#utility.yul\":3325:3627   */\n      pop\n        /* \"#utility.yul\":3095:3634   */\n      swap3\n      swap2\n      pop\n      pop\n      jump\t// out\n        /* \"#utility.yul\":3640:3754   */\n    tag_97:\n        /* \"#utility.yul\":3707:3713   */\n      0x00\n        /* \"#utility.yul\":3741:3746   */\n      dup2\n        /* \"#utility.yul\":3735:3747   */\n      mload\n        /* \"#utility.yul\":3725:3747   */\n      swap1\n      pop\n        /* \"#utility.yul\":3640:3754   */\n      swap2\n      swap1\n      pop\n      jump\t// out\n        /* \"#utility.yul\":3760:3944   */\n    tag_98:\n        /* \"#utility.yul\":3859:3870   */\n      0x00\n        /* \"#utility.yul\":3893:3899   */\n      dup3\n        /* \"#utility.yul\":3888:3891   */\n      dup3\n        /* \"#utility.yul\":3881:3900   */\n      mstore\n        /* \"#utility.yul\":3933:3937   */\n      0x20\n        /* \"#utility.yul\":3928:3931   */\n      dup3\n        /* \"#utility.yul\":3924:3938   */\n      add\n        /* \"#utility.yul\":3909:3938   */\n      swap1\n      pop\n        /* \"#utility.yul\":3760:3944   */\n      swap3\n      swap2\n      pop\n      pop\n      jump\t// out\n        /* \"#utility.yul\":3950:4082   */\n    tag_99:\n        /* \"#utility.yul\":4017:4021   */\n      0x00\n        /* \"#utility.yul\":4040:4043   */\n      dup2\n        /* \"#utility.yul\":4032:4043   */\n      swap1\n      pop\n        /* \"#utility.yul\":4070:4074   */\n      0x20\n        /* \"#utility.yul\":4065:4068   */\n      dup3\n        /* \"#utility.yul\":4061:4075   */\n      add\n        /* \"#utility.yul\":4053:4075   */\n      swap1\n      pop\n        /* \"#utility.yul\":3950:4082   */\n      swap2\n      swap1\n      pop\n      jump\t// out\n        /* \"#utility.yul\":4088:4196   */\n    tag_100:\n        /* \"#utility.yul\":4165:4189   */\n      tag_157\n        /* \"#utility.yul\":4183:4188   */\n      dup2\n        /* \"#utility.yul\":4165:4189   */\n      tag_92\n      jump\t// in\n    tag_157:\n        /* \"#utility.yul\":4160:4163   */\n      dup3\n        /* \"#utility.yul\":4153:4190   */\n      mstore\n        /* \"#utility.yul\":4088:4196   */\n      pop\n      pop\n      jump\t// out\n        /* \"#utility.yul\":4202:4381   */\n    tag_101:\n        /* \"#utility.yul\":4271:4281   */\n      0x00\n        /* \"#utility.yul\":4292:4338   */\n      tag_159\n        /* \"#utility.yul\":4334:4337   */\n      dup4\n        /* \"#utility.yul\":4326:4332   */\n      dup4\n        /* \"#utility.yul\":4292:4338   */\n      tag_100\n      jump\t// in\n    tag_159:\n        /* \"#utility.yul\":4370:4374   */\n      0x20\n        /* \"#utility.yul\":4365:4368   */\n      dup4\n        /* \"#utility.yul\":4361:4375   */\n      add\n        /* \"#utility.yul\":4347:4375   */\n      swap1\n      pop\n        /* \"#utility.yul\":4202:4381   */\n      swap3\n      swap2\n      pop\n      pop\n      jump\t// out\n        /* \"#utility.yul\":4387:4500   */\n    tag_102:\n        /* \"#utility.yul\":4457:4461   */\n      0x00\n        /* \"#utility.yul\":4489:4493   */\n      0x20\n        /* \"#utility.yul\":4484:4487   */\n      dup3\n        /* \"#utility.yul\":4480:4494   */\n      add\n        /* \"#utility.yul\":4472:4494   */\n      swap1\n      pop\n        /* \"#utility.yul\":4387:4500   */\n      swap2\n      swap1\n      pop\n      jump\t// out\n        /* \"#utility.yul\":4536:5268   */\n    tag_103:\n        /* \"#utility.yul\":4655:4658   */\n      0x00\n        /* \"#utility.yul\":4684:4738   */\n      tag_162\n        /* \"#utility.yul\":4732:4737   */\n      dup3\n        /* \"#utility.yul\":4684:4738   */\n      tag_97\n      jump\t// in\n    tag_162:\n        /* \"#utility.yul\":4754:4840   */\n      tag_163\n        /* \"#utility.yul\":4833:4839   */\n      dup2\n        /* \"#utility.yul\":4828:4831   */\n      dup6\n        /* \"#utility.yul\":4754:4840   */\n      tag_98\n      jump\t// in\n    tag_163:\n        /* \"#utility.yul\":4747:4840   */\n      swap4\n      pop\n        /* \"#utility.yul\":4864:4920   */\n      tag_164\n        /* \"#utility.yul\":4914:4919   */\n      dup4\n        /* \"#utility.yul\":4864:4920   */\n      tag_99\n      jump\t// in\n    tag_164:\n        /* \"#utility.yul\":4943:4950   */\n      dup1\n        /* \"#utility.yul\":4974:4975   */\n      0x00\n        /* \"#utility.yul\":4959:5243   */\n    tag_165:\n        /* \"#utility.yul\":4984:4990   */\n      dup4\n        /* \"#utility.yul\":4981:4982   */\n      dup2\n        /* \"#utility.yul\":4978:4991   */\n      lt\n        /* \"#utility.yul\":4959:5243   */\n      iszero\n      tag_167\n      jumpi\n        /* \"#utility.yul\":5060:5066   */\n      dup2\n        /* \"#utility.yul\":5054:5067   */\n      mload\n        /* \"#utility.yul\":5087:5150   */\n      tag_168\n        /* \"#utility.yul\":5146:5149   */\n      dup9\n        /* \"#utility.yul\":5131:5144   */\n      dup3\n        /* \"#utility.yul\":5087:5150   */\n      tag_101\n      jump\t// in\n    tag_168:\n        /* \"#utility.yul\":5080:5150   */\n      swap8\n      pop\n        /* \"#utility.yul\":5173:5233   */\n      tag_169\n        /* \"#utility.yul\":5226:5232   */\n      dup4\n        /* \"#utility.yul\":5173:5233   */\n      tag_102\n      jump\t// in\n    tag_169:\n        /* \"#utility.yul\":5163:5233   */\n      swap3\n      pop\n        /* \"#utility.yul\":5019:5243   */\n      pop\n        /* \"#utility.yul\":5006:5007   */\n      0x01\n        /* \"#utility.yul\":5003:5004   */\n      dup2\n        /* \"#utility.yul\":4999:5008   */\n      add\n        /* \"#utility.yul\":4994:5008   */\n      swap1\n      pop\n        /* \"#utility.yul\":4959:5243   */\n      jump(tag_165)\n    tag_167:\n        /* \"#utility.yul\":4963:4977   */\n      pop\n        /* \"#utility.yul\":5259:5262   */\n      dup6\n        /* \"#utility.yul\":5252:5262   */\n      swap4\n      pop\n        /* \"#utility.yul\":4660:5268   */\n      pop\n      pop\n      pop\n        /* \"#utility.yul\":4536:5268   */\n      swap3\n      swap2\n      pop\n      pop\n      jump\t// out\n        /* \"#utility.yul\":5274:5647   */\n    tag_17:\n        /* \"#utility.yul\":5417:5421   */\n      0x00\n        /* \"#utility.yul\":5455:5457   */\n      0x20\n        /* \"#utility.yul\":5444:5453   */\n      dup3\n        /* \"#utility.yul\":5440:5458   */\n      add\n        /* \"#utility.yul\":5432:5458   */\n      swap1\n      pop\n        /* \"#utility.yul\":5504:5513   */\n      dup2\n        /* \"#utility.yul\":5498:5502   */\n      dup2\n        /* \"#utility.yul\":5494:5514   */\n      sub\n        /* \"#utility.yul\":5490:5491   */\n      0x00\n        /* \"#utility.yul\":5479:5488   */\n      dup4\n        /* \"#utility.yul\":5475:5492   */\n      add\n        /* \"#utility.yul\":5468:5515   */\n      mstore\n        /* \"#utility.yul\":5532:5640   */\n      tag_171\n        /* \"#utility.yul\":5635:5639   */\n      dup2\n        /* \"#utility.yul\":5626:5632   */\n      dup5\n        /* \"#utility.yul\":5532:5640   */\n      tag_103\n      jump\t// in\n    tag_171:\n        /* \"#utility.yul\":5524:5640   */\n      swap1\n      pop\n        /* \"#utility.yul\":5274:5647   */\n      swap3\n      swap2\n      pop\n      pop\n      jump\t// out\n        /* \"#utility.yul\":5653:5771   */\n    tag_104:\n        /* \"#utility.yul\":5740:5764   */\n      tag_173\n        /* \"#utility.yul\":5758:5763   */\n      dup2\n        /* \"#utility.yul\":5740:5764   */\n      tag_92\n      jump\t// in\n    tag_173:\n        /* \"#utility.yul\":5735:5738   */\n      dup3\n        /* \"#utility.yul\":5728:5765   */\n      mstore\n        /* \"#utility.yul\":5653:5771   */\n      pop\n      pop\n      jump\t// out\n        /* \"#utility.yul\":5777:5999   */\n    tag_21:\n        /* \"#utility.yul\":5870:5874   */\n      0x00\n        /* \"#utility.yul\":5908:5910   */\n      0x20\n        /* \"#utility.yul\":5897:5906   */\n      dup3\n        /* \"#utility.yul\":5893:5911   */\n      add\n        /* \"#utility.yul\":5885:5911   */\n      swap1\n      pop\n        /* \"#utility.yul\":5921:5992   */\n      tag_175\n        /* \"#utility.yul\":5989:5990   */\n      0x00\n        /* \"#utility.yul\":5978:5987   */\n      dup4\n        /* \"#utility.yul\":5974:5991   */\n      add\n        /* \"#utility.yul\":5965:5971   */\n      dup5\n        /* \"#utility.yul\":5921:5992   */\n      tag_104\n      jump\t// in\n    tag_175:\n        /* \"#utility.yul\":5777:5999   */\n      swap3\n      swap2\n      pop\n      pop\n      jump\t// out\n        /* \"#utility.yul\":6005:6334   */\n    tag_24:\n        /* \"#utility.yul\":6064:6070   */\n      0x00\n        /* \"#utility.yul\":6113:6115   */\n      0x20\n        /* \"#utility.yul\":6101:6110   */\n      dup3\n        /* \"#utility.yul\":6092:6099   */\n      dup5\n        /* \"#utility.yul\":6088:6111   */\n      sub\n        /* \"#utility.yul\":6084:6116   */\n      slt\n        /* \"#utility.yul\":6081:6200   */\n      iszero\n      tag_177\n      jumpi\n        /* \"#utility.yul\":6119:6198   */\n      tag_178\n      tag_83\n      jump\t// in\n    tag_178:\n        /* \"#utility.yul\":6081:6200   */\n    tag_177:\n        /* \"#utility.yul\":6239:6240   */\n      0x00\n        /* \"#utility.yul\":6264:6317   */\n      tag_179\n        /* \"#utility.yul\":6309:6316   */\n      dup5\n        /* \"#utility.yul\":6300:6306   */\n      dup3\n        /* \"#utility.yul\":6289:6298   */\n      dup6\n        /* \"#utility.yul\":6285:6307   */\n      add\n        /* \"#utility.yul\":6264:6317   */\n      tag_94\n      jump\t// in\n    tag_179:\n        /* \"#utility.yul\":6254:6317   */\n      swap2\n      pop\n        /* \"#utility.yul\":6210:6327   */\n      pop\n        /* \"#utility.yul\":6005:6334   */\n      swap3\n      swap2\n      pop\n      pop\n      jump\t// out\n        /* \"#utility.yul\":6340:6457   */\n    tag_105:\n        /* \"#utility.yul\":6449:6450   */\n      0x00\n        /* \"#utility.yul\":6446:6447   */\n      dup1\n        /* \"#utility.yul\":6439:6451   */\n      revert\n        /* \"#utility.yul\":6480:7048   */\n    tag_106:\n        /* \"#utility.yul\":6553:6561   */\n      0x00\n        /* \"#utility.yul\":6563:6569   */\n      dup1\n        /* \"#utility.yul\":6613:6616   */\n      dup4\n        /* \"#utility.yul\":6606:6610   */\n      0x1f\n        /* \"#utility.yul\":6598:6604   */\n      dup5\n        /* \"#utility.yul\":6594:6611   */\n      add\n        /* \"#utility.yul\":6590:6617   */\n      slt\n        /* \"#utility.yul\":6580:6702   */\n      tag_182\n      jumpi\n        /* \"#utility.yul\":6621:6700   */\n      tag_183\n      tag_85\n      jump\t// in\n    tag_183:\n        /* \"#utility.yul\":6580:6702   */\n    tag_182:\n        /* \"#utility.yul\":6734:6740   */\n      dup3\n        /* \"#utility.yul\":6721:6741   */\n      calldataload\n        /* \"#utility.yul\":6711:6741   */\n      swap1\n      pop\n        /* \"#utility.yul\":6764:6782   */\n      0xffffffffffffffff\n        /* \"#utility.yul\":6756:6762   */\n      dup2\n        /* \"#utility.yul\":6753:6783   */\n      gt\n        /* \"#utility.yul\":6750:6867   */\n      iszero\n      tag_184\n      jumpi\n        /* \"#utility.yul\":6786:6865   */\n      tag_185\n      tag_105\n      jump\t// in\n    tag_185:\n        /* \"#utility.yul\":6750:6867   */\n    tag_184:\n        /* \"#utility.yul\":6900:6904   */\n      0x20\n        /* \"#utility.yul\":6892:6898   */\n      dup4\n        /* \"#utility.yul\":6888:6905   */\n      add\n        /* \"#utility.yul\":6876:6905   */\n      swap2\n      pop\n        /* \"#utility.yul\":6954:6957   */\n      dup4\n        /* \"#utility.yul\":6946:6950   */\n      0x20\n        /* \"#utility.yul\":6938:6944   */\n      dup3\n        /* \"#utility.yul\":6934:6951   */\n      mul\n        /* \"#utility.yul\":6924:6932   */\n      dup4\n        /* \"#utility.yul\":6920:6952   */\n      add\n        /* \"#utility.yul\":6917:6958   */\n      gt\n        /* \"#utility.yul\":6914:7042   */\n      iszero\n      tag_186\n      jumpi\n        /* \"#utility.yul\":6961:7040   */\n      tag_187\n      tag_91\n      jump\t// in\n    tag_187:\n        /* \"#utility.yul\":6914:7042   */\n    tag_186:\n        /* \"#utility.yul\":6480:7048   */\n      swap3\n      pop\n      swap3\n      swap1\n      pop\n      jump\t// out\n        /* \"#utility.yul\":7054:7613   */\n    tag_34:\n        /* \"#utility.yul\":7140:7146   */\n      0x00\n        /* \"#utility.yul\":7148:7154   */\n      dup1\n        /* \"#utility.yul\":7197:7199   */\n      0x20\n        /* \"#utility.yul\":7185:7194   */\n      dup4\n        /* \"#utility.yul\":7176:7183   */\n      dup6\n        /* \"#utility.yul\":7172:7195   */\n      sub\n        /* \"#utility.yul\":7168:7200   */\n      slt\n        /* \"#utility.yul\":7165:7284   */\n      iszero\n      tag_189\n      jumpi\n        /* \"#utility.yul\":7203:7282   */\n      tag_190\n      tag_83\n      jump\t// in\n    tag_190:\n        /* \"#utility.yul\":7165:7284   */\n    tag_189:\n        /* \"#utility.yul\":7351:7352   */\n      0x00\n        /* \"#utility.yul\":7340:7349   */\n      dup4\n        /* \"#utility.yul\":7336:7353   */\n      add\n        /* \"#utility.yul\":7323:7354   */\n      calldataload\n        /* \"#utility.yul\":7381:7399   */\n      0xffffffffffffffff\n        /* \"#utility.yul\":7373:7379   */\n      dup2\n        /* \"#utility.yul\":7370:7400   */\n      gt\n        /* \"#utility.yul\":7367:7484   */\n      iszero\n      tag_191\n      jumpi\n        /* \"#utility.yul\":7403:7482   */\n      tag_192\n      tag_84\n      jump\t// in\n    tag_192:\n        /* \"#utility.yul\":7367:7484   */\n    tag_191:\n        /* \"#utility.yul\":7516:7596   */\n      tag_193\n        /* \"#utility.yul\":7588:7595   */\n      dup6\n        /* \"#utility.yul\":7579:7585   */\n      dup3\n        /* \"#utility.yul\":7568:7577   */\n      dup7\n        /* \"#utility.yul\":7564:7586   */\n      add\n        /* \"#utility.yul\":7516:7596   */\n      tag_106\n      jump\t// in\n    tag_193:\n        /* \"#utility.yul\":7498:7596   */\n      swap3\n      pop\n      swap3\n      pop\n        /* \"#utility.yul\":7294:7606   */\n      pop\n        /* \"#utility.yul\":7054:7613   */\n      swap3\n      pop\n      swap3\n      swap1\n      pop\n      jump\t// out\n        /* \"#utility.yul\":7619:7736   */\n    tag_107:\n        /* \"#utility.yul\":7728:7729   */\n      0x00\n        /* \"#utility.yul\":7725:7726   */\n      dup1\n        /* \"#utility.yul\":7718:7730   */\n      revert\n        /* \"#utility.yul\":7742:7841   */\n    tag_108:\n        /* \"#utility.yul\":7827:7833   */\n      dup3\n        /* \"#utility.yul\":7822:7825   */\n      dup2\n        /* \"#utility.yul\":7817:7820   */\n      dup4\n        /* \"#utility.yul\":7804:7834   */\n      calldatacopy\n        /* \"#utility.yul\":7742:7841   */\n      pop\n      pop\n      pop\n      jump\t// out\n        /* \"#utility.yul\":7877:8414   */\n    tag_109:\n        /* \"#utility.yul\":8005:8008   */\n      0x00\n        /* \"#utility.yul\":8026:8112   */\n      tag_197\n        /* \"#utility.yul\":8105:8111   */\n      dup4\n        /* \"#utility.yul\":8100:8103   */\n      dup6\n        /* \"#utility.yul\":8026:8112   */\n      tag_98\n      jump\t// in\n    tag_197:\n        /* \"#utility.yul\":8019:8112   */\n      swap4\n      pop\n        /* \"#utility.yul\":8136:8202   */\n      0x07ffffffffffffffffffffffffffffffffffffffffffffffffffffffffffffff\n        /* \"#utility.yul\":8128:8134   */\n      dup4\n        /* \"#utility.yul\":8125:8203   */\n      gt\n        /* \"#utility.yul\":8122:8287   */\n      iszero\n      tag_198\n      jumpi\n        /* \"#utility.yul\":8206:8285   */\n      tag_199\n      tag_107\n      jump\t// in\n    tag_199:\n        /* \"#utility.yul\":8122:8287   */\n    tag_198:\n        /* \"#utility.yul\":8318:8322   */\n      0x20\n        /* \"#utility.yul\":8310:8316   */\n      dup4\n        /* \"#utility.yul\":8306:8323   */\n      mul\n        /* \"#utility.yul\":8296:8323   */\n      swap3\n      pop\n        /* \"#utility.yul\":8333:8376   */\n      tag_200\n        /* \"#utility.yul\":8369:8375   */\n      dup4\n        /* \"#utility.yul\":8364:8367   */\n      dup6\n        /* \"#utility.yul\":8357:8362   */\n      dup5\n        /* \"#utility.yul\":8333:8376   */\n      tag_108\n      jump\t// in\n    tag_200:\n        /* \"#utility.yul\":8401:8407   */\n      dup3\n        /* \"#utility.yul\":8396:8399   */\n      dup5\n        /* \"#utility.yul\":8392:8408   */\n      add\n        /* \"#utility.yul\":8385:8408   */\n      swap1\n      pop\n        /* \"#utility.yul\":7877:8414   */\n      swap4\n      swap3\n      pop\n      pop\n      pop\n      jump\t// out\n        /* \"#utility.yul\":8420:8813   */\n    tag_37:\n        /* \"#utility.yul\":8573:8577   */\n      0x00\n        /* \"#utility.yul\":8611:8613   */\n      0x20\n        /* \"#utility.yul\":8600:8609   */\n      dup3\n        /* \"#utility.yul\":8596:8614   */\n      add\n        /* \"#utility.yul\":8588:8614   */\n      swap1\n      pop\n        /* \"#utility.yul\":8660:8669   */\n      dup2\n        /* \"#utility.yul\":8654:8658   */\n      dup2\n        /* \"#utility.yul\":8650:8670   */\n      sub\n        /* \"#utility.yul\":8646:8647   */\n      0x00\n        /* \"#utility.yul\":8635:8644   */\n      dup4\n        /* \"#utility.yul\":8631:8648   */\n      add\n        /* \"#utility.yul\":8624:8671   */\n      mstore\n        /* \"#utility.yul\":8688:8806   */\n      tag_202\n        /* \"#utility.yul\":8801:8805   */\n      dup2\n        /* \"#utility.yul\":8792:8798   */\n      dup5\n        /* \"#utility.yul\":8784:8790   */\n      dup7\n        /* \"#utility.yul\":8688:8806   */\n      tag_109\n      jump\t// in\n    tag_202:\n        /* \"#utility.yul\":8680:8806   */\n      swap1\n      pop\n        /* \"#utility.yul\":8420:8813   */\n      swap4\n      swap3\n      pop\n      pop\n      pop\n      jump\t// out\n        /* \"#utility.yul\":8819:8999   */\n    tag_46:\n        /* \"#utility.yul\":8867:8944   */\n      0x4e487b7100000000000000000000000000000000000000000000000000000000\n        /* \"#utility.yul\":8864:8865   */\n      0x00\n        /* \"#utility.yul\":8857:8945   */\n      mstore\n        /* \"#utility.yul\":8964:8968   */\n      0x32\n        /* \"#utility.yul\":8961:8962   */\n      0x04\n        /* \"#utility.yul\":8954:8969   */\n      mstore\n        /* \"#utility.yul\":8988:8992   */\n      0x24\n        /* \"#utility.yul\":8985:8986   */\n      0x00\n        /* \"#utility.yul\":8978:8993   */\n      revert\n\n    auxdata: 0xa264697066735822122072fae3471422b858ab73d9acc3e98f667bafb02a2e39ecaf2dc3a7097aac27d764736f6c63430008190033\n}\n",
				"bytecode": {
					"linkReferences": {},
					"object": "60806040526040518060600160405280600160ff168152602001600260ff168152602001600360ff168152505f90600360389291906048565b503480156043575f80fd5b5060ac565b828054828255905f5260205f209081019282156084579160200282015b828111156083578251829060ff169055916020019190600101906065565b5b509050608f91906093565b5090565b5b8082111560a8575f815f9055506001016094565b5090565b6108a2806100b95f395ff3fe608060405234801561000f575f80fd5b5060043610610086575f3560e01c80635197c7aa116100595780635197c7aa146101125780639b1a379c14610130578063a3125c0814610161578063ae4ee9411461016b57610086565b806316ef614f1461008a57806336fe2e34146100ba5780633f4263ef146100d857806348d1c0aa14610108575b5f80fd5b6100a4600480360381019061009f91906105a0565b610189565b6040516100b1919061069e565b60405180910390f35b6100c26101b3565b6040516100cf91906106cd565b60405180910390f35b6100f260048036038101906100ed91906106e6565b610217565b6040516100ff91906106cd565b60405180910390f35b610110610236565b005b61011a6102ab565b604051610127919061069e565b60405180910390f35b61014a6004803603810190610145919061076a565b610300565b60405161015892919061081d565b60405180910390f35b61016961030f565b005b610173610334565b60405161018091906106cd565b60405180910390f35b60605f825f8151811061019f5761019e61083f565b5b602002602001018181525050819050919050565b5f8060405180606001604052806001815260200160028152602001600381525090505f81905061012c815f600381106101ef576101ee61083f565b5b602002018181525050815f6003811061020b5761020a61083f565b5b60200201519250505090565b5f8181548110610225575f80fd5b905f5260205f20015f915090505481565b5f8080548060200260200160405190810160405280929190818152602001828054801561028057602002820191905f5260205f20905b81548152602001906001019080831161026c575b5050505050905060c8815f8151811061029c5761029b61083f565b5b60200260200101818152505050565b60605f8054806020026020016040519081016040528092919081815260200182805480156102f657602002820191905f5260205f20905b8154815260200190600101908083116102e2575b5050505050905090565b365f8383915091509250929050565b5f6064815f815481106103255761032461083f565b5b905f5260205f20018190555050565b5f8060405180606001604052806064815260200160c8815260200161012c8152509050805f9060036103679291906103a6565b505f805f8154811061037c5761037b61083f565b5b905f5260205f200181905550805f6003811061039b5761039a61083f565b5b602002015191505090565b828054828255905f5260205f209081019282156103e0579160200282015b828111156103df5782518255916020019190600101906103c4565b5b5090506103ed91906103f1565b5090565b5b80821115610408575f815f9055506001016103f2565b5090565b5f604051905090565b5f80fd5b5f80fd5b5f80fd5b5f601f19601f8301169050919050565b7f4e487b71000000000000000000000000000000000000000000000000000000005f52604160045260245ffd5b61046782610421565b810181811067ffffffffffffffff8211171561048657610485610431565b5b80604052505050565b5f61049861040c565b90506104a4828261045e565b919050565b5f67ffffffffffffffff8211156104c3576104c2610431565b5b602082029050602081019050919050565b5f80fd5b5f819050919050565b6104ea816104d8565b81146104f4575f80fd5b50565b5f81359050610505816104e1565b92915050565b5f61051d610518846104a9565b61048f565b905080838252602082019050602084028301858111156105405761053f6104d4565b5b835b81811015610569578061055588826104f7565b845260208401935050602081019050610542565b5050509392505050565b5f82601f8301126105875761058661041d565b5b813561059784826020860161050b565b91505092915050565b5f602082840312156105b5576105b4610415565b5b5f82013567ffffffffffffffff8111156105d2576105d1610419565b5b6105de84828501610573565b91505092915050565b5f81519050919050565b5f82825260208201905092915050565b5f819050602082019050919050565b610619816104d8565b82525050565b5f61062a8383610610565b60208301905092915050565b5f602082019050919050565b5f61064c826105e7565b61065681856105f1565b935061066183610601565b805f5b83811015610691578151610678888261061f565b975061068383610636565b925050600181019050610664565b5085935050505092915050565b5f6020820190508181035f8301526106b68184610642565b905092915050565b6106c7816104d8565b82525050565b5f6020820190506106e05f8301846106be565b92915050565b5f602082840312156106fb576106fa610415565b5b5f610708848285016104f7565b91505092915050565b5f80fd5b5f8083601f84011261072a5761072961041d565b5b8235905067ffffffffffffffff81111561074757610746610711565b5b602083019150836020820283011115610763576107626104d4565b5b9250929050565b5f80602083850312156107805761077f610415565b5b5f83013567ffffffffffffffff81111561079d5761079c610419565b5b6107a985828601610715565b92509250509250929050565b5f80fd5b82818337505050565b5f6107cd83856105f1565b93507f07ffffffffffffffffffffffffffffffffffffffffffffffffffffffffffffff831115610800576107ff6107b5565b5b6020830292506108118385846107b9565b82840190509392505050565b5f6020820190508181035f8301526108368184866107c2565b90509392505050565b7f4e487b71000000000000000000000000000000000000000000000000000000005f52603260045260245ffdfea264697066735822122072fae3471422b858ab73d9acc3e98f667bafb02a2e39ecaf2dc3a7097aac27d764736f6c63430008190033",
					"opcodes": "PUSH1 0x80 PUSH1 0x40 MSTORE PUSH1 0x40 MLOAD DUP1 PUSH1 0x60 ADD PUSH1 0x40 MSTORE DUP1 PUSH1 0x1 PUSH1 0xFF AND DUP2 MSTORE PUSH1 0x20 ADD PUSH1 0x2 PUSH1 0xFF AND DUP2 MSTORE PUSH1 0x20 ADD PUSH1 0x3 PUSH1 0xFF AND DUP2 MSTORE POP PUSH0 SWAP1 PUSH1 0x3 PUSH1 0x38 SWAP3 SWAP2 SWAP1 PUSH1 0x48 JUMP JUMPDEST POP CALLVALUE DUP1 ISZERO PUSH1 0x43 JUMPI PUSH0 DUP1 REVERT JUMPDEST POP PUSH1 0xAC JUMP JUMPDEST DUP3 DUP1 SLOAD DUP3 DUP3 SSTORE SWAP1 PUSH0 MSTORE PUSH1 0x20 PUSH0 KECCAK256 SWAP1 DUP2 ADD SWAP3 DUP3 ISZERO PUSH1 0x84 JUMPI SWAP2 PUSH1 0x20 MUL DUP3 ADD JUMPDEST DUP3 DUP2 GT ISZERO PUSH1 0x83 JUMPI DUP3 MLOAD DUP3 SWAP1 PUSH1 0xFF AND SWAP1 SSTORE SWAP2 PUSH1 0x20 ADD SWAP2 SWAP1 PUSH1 0x1 ADD SWAP1 PUSH1 0x65 JUMP JUMPDEST JUMPDEST POP SWAP1 POP PUSH1 0x8F SWAP2 SWAP1 PUSH1 0x93 JUMP JUMPDEST POP SWAP1 JUMP JUMPDEST JUMPDEST DUP1 DUP3 GT ISZERO PUSH1 0xA8 JUMPI PUSH0 DUP2 PUSH0 SWAP1 SSTORE POP PUSH1 0x1 ADD PUSH1 0x94 JUMP JUMPDEST POP SWAP1 JUMP JUMPDEST PUSH2 0x8A2 DUP1 PUSH2 0xB9 PUSH0 CODECOPY PUSH0 RETURN INVALID PUSH1 0x80 PUSH1 0x40 MSTORE CALLVALUE DUP1 ISZERO PUSH2 0xF JUMPI PUSH0 DUP1 REVERT JUMPDEST POP PUSH1 0x4 CALLDATASIZE LT PUSH2 0x86 JUMPI PUSH0 CALLDATALOAD PUSH1 0xE0 SHR DUP1 PUSH4 0x5197C7AA GT PUSH2 0x59 JUMPI DUP1 PUSH4 0x5197C7AA EQ PUSH2 0x112 JUMPI DUP1 PUSH4 0x9B1A379C EQ PUSH2 0x130 JUMPI DUP1 PUSH4 0xA3125C08 EQ PUSH2 0x161 JUMPI DUP1 PUSH4 0xAE4EE941 EQ PUSH2 0x16B JUMPI PUSH2 0x86 JUMP JUMPDEST DUP1 PUSH4 0x16EF614F EQ PUSH2 0x8A JUMPI DUP1 PUSH4 0x36FE2E34 EQ PUSH2 0xBA JUMPI DUP1 PUSH4 0x3F4263EF EQ PUSH2 0xD8 JUMPI DUP1 PUSH4 0x48D1C0AA EQ PUSH2 0x108 JUMPI JUMPDEST PUSH0 DUP1 REVERT JUMPDEST PUSH2 0xA4 PUSH1 0x4 DUP1 CALLDATASIZE SUB DUP2 ADD SWAP1 PUSH2 0x9F SWAP2 SWAP1 PUSH2 0x5A0 JUMP JUMPDEST PUSH2 0x189 JUMP JUMPDEST PUSH1 0x40 MLOAD PUSH2 0xB1 SWAP2 SWAP1 PUSH2 0x69E JUMP JUMPDEST PUSH1 0x40 MLOAD DUP1 SWAP2 SUB SWAP1 RETURN JUMPDEST PUSH2 0xC2 PUSH2 0x1B3 JUMP JUMPDEST PUSH1 0x40 MLOAD PUSH2 0xCF SWAP2 SWAP1 PUSH2 0x6CD JUMP JUMPDEST PUSH1 0x40 MLOAD DUP1 SWAP2 SUB SWAP1 RETURN JUMPDEST PUSH2 0xF2 PUSH1 0x4 DUP1 CALLDATASIZE SUB DUP2 ADD SWAP1 PUSH2 0xED SWAP2 SWAP1 PUSH2 0x6E6 JUMP JUMPDEST PUSH2 0x217 JUMP JUMPDEST PUSH1 0x40 MLOAD PUSH2 0xFF SWAP2 SWAP1 PUSH2 0x6CD JUMP JUMPDEST PUSH1 0x40 MLOAD DUP1 SWAP2 SUB SWAP1 RETURN JUMPDEST PUSH2 0x110 PUSH2 0x236 JUMP JUMPDEST STOP JUMPDEST PUSH2 0x11A PUSH2 0x2AB JUMP JUMPDEST PUSH1 0x40 MLOAD PUSH2 0x127 SWAP2 SWAP1 PUSH2 0x69E JUMP JUMPDEST PUSH1 0x40 MLOAD DUP1 SWAP2 SUB SWAP1 RETURN JUMPDEST PUSH2 0x14A PUSH1 0x4 DUP1 CALLDATASIZE SUB DUP2 ADD SWAP1 PUSH2 0x145 SWAP2 SWAP1 PUSH2 0x76A JUMP JUMPDEST PUSH2 0x300 JUMP JUMPDEST PUSH1 0x40 MLOAD PUSH2 0x158 SWAP3 SWAP2 SWAP1 PUSH2 0x81D JUMP JUMPDEST PUSH1 0x40 MLOAD DUP1 SWAP2 SUB SWAP1 RETURN JUMPDEST PUSH2 0x169 PUSH2 0x30F JUMP JUMPDEST STOP JUMPDEST PUSH2 0x173 PUSH2 0x334 JUMP JUMPDEST PUSH1 0x40 MLOAD PUSH2 0x180 SWAP2 SWAP1 PUSH2 0x6CD JUMP JUMPDEST PUSH1 0x40 MLOAD DUP1 SWAP2 SUB SWAP1 RETURN JUMPDEST PUSH1 0x60 PUSH0 DUP3 PUSH0 DUP2 MLOAD DUP2 LT PUSH2 0x19F JUMPI PUSH2 0x19E PUSH2 0x83F JUMP JUMPDEST JUMPDEST PUSH1 0x20 MUL PUSH1 0x20 ADD ADD DUP2 DUP2 MSTORE POP POP DUP2 SWAP1 POP SWAP2 SWAP1 POP JUMP JUMPDEST PUSH0 DUP1 PUSH1 0x40 MLOAD DUP1 PUSH1 0x60 ADD PUSH1 0x40 MSTORE DUP1 PUSH1 0x1 DUP2 MSTORE PUSH1 0x20 ADD PUSH1 0x2 DUP2 MSTORE PUSH1 0x20 ADD PUSH1 0x3 DUP2 MSTORE POP SWAP1 POP PUSH0 DUP2 SWAP1 POP PUSH2 0x12C DUP2 PUSH0 PUSH1 0x3 DUP2 LT PUSH2 0x1EF JUMPI PUSH2 0x1EE PUSH2 0x83F JUMP JUMPDEST JUMPDEST PUSH1 0x20 MUL ADD DUP2 DUP2 MSTORE POP POP DUP2 PUSH0 PUSH1 0x3 DUP2 LT PUSH2 0x20B JUMPI PUSH2 0x20A PUSH2 0x83F JUMP JUMPDEST JUMPDEST PUSH1 0x20 MUL ADD MLOAD SWAP3 POP POP POP SWAP1 JUMP JUMPDEST PUSH0 DUP2 DUP2 SLOAD DUP2 LT PUSH2 0x225 JUMPI PUSH0 DUP1 REVERT JUMPDEST SWAP1 PUSH0 MSTORE PUSH1 0x20 PUSH0 KECCAK256 ADD PUSH0 SWAP2 POP SWAP1 POP SLOAD DUP2 JUMP JUMPDEST PUSH0 DUP1 DUP1 SLOAD DUP1 PUSH1 0x20 MUL PUSH1 0x20 ADD PUSH1 0x40 MLOAD SWAP1 DUP2 ADD PUSH1 0x40 MSTORE DUP1 SWAP3 SWAP2 SWAP1 DUP2 DUP2 MSTORE PUSH1 0x20 ADD DUP3 DUP1 SLOAD DUP1 ISZERO PUSH2 0x280 JUMPI PUSH1 0x20 MUL DUP3 ADD SWAP2 SWAP1 PUSH0 MSTORE PUSH1 0x20 PUSH0 KECCAK256 SWAP1 JUMPDEST DUP2 SLOAD DUP2 MSTORE PUSH1 0x20 ADD SWAP1 PUSH1 0x1 ADD SWAP1 DUP1 DUP4 GT PUSH2 0x26C JUMPI JUMPDEST POP POP POP POP POP SWAP1 POP PUSH1 0xC8 DUP2 PUSH0 DUP2 MLOAD DUP2 LT PUSH2 0x29C JUMPI PUSH2 0x29B PUSH2 0x83F JUMP JUMPDEST JUMPDEST PUSH1 0x20 MUL PUSH1 0x20 ADD ADD DUP2 DUP2 MSTORE POP POP POP JUMP JUMPDEST PUSH1 0x60 PUSH0 DUP1 SLOAD DUP1 PUSH1 0x20 MUL PUSH1 0x20 ADD PUSH1 0x40 MLOAD SWAP1 DUP2 ADD PUSH1 0x40 MSTORE DUP1 SWAP3 SWAP2 SWAP1 DUP2 DUP2 MSTORE PUSH1 0x20 ADD DUP3 DUP1 SLOAD DUP1 ISZERO PUSH2 0x2F6 JUMPI PUSH1 0x20 MUL DUP3 ADD SWAP2 SWAP1 PUSH0 MSTORE PUSH1 0x20 PUSH0 KECCAK256 SWAP1 JUMPDEST DUP2 SLOAD DUP2 MSTORE PUSH1 0x20 ADD SWAP1 PUSH1 0x1 ADD SWAP1 DUP1 DUP4 GT PUSH2 0x2E2 JUMPI JUMPDEST POP POP POP POP POP SWAP1 POP SWAP1 JUMP JUMPDEST CALLDATASIZE PUSH0 DUP4 DUP4 SWAP2 POP SWAP2 POP SWAP3 POP SWAP3 SWAP1 POP JUMP JUMPDEST PUSH0 PUSH1 0x64 DUP2 PUSH0 DUP2 SLOAD DUP2 LT PUSH2 0x325 JUMPI PUSH2 0x324 PUSH2 0x83F JUMP JUMPDEST JUMPDEST SWAP1 PUSH0 MSTORE PUSH1 0x20 PUSH0 KECCAK256 ADD DUP2 SWAP1 SSTORE POP POP JUMP JUMPDEST PUSH0 DUP1 PUSH1 0x40 MLOAD DUP1 PUSH1 0x60 ADD PUSH1 0x40 MSTORE DUP1 PUSH1 0x64 DUP2 MSTORE PUSH1 0x20 ADD PUSH1 0xC8 DUP2 MSTORE PUSH1 0x20 ADD PUSH2 0x12C DUP2 MSTORE POP SWAP1 POP DUP1 PUSH0 SWAP1 PUSH1 0x3 PUSH2 0x367 SWAP3 SWAP2 SWAP1 PUSH2 0x3A6 JUMP JUMPDEST POP PUSH0 DUP1 PUSH0 DUP2 SLOAD DUP2 LT PUSH2 0x37C JUMPI PUSH2 0x37B PUSH2 0x83F JUMP JUMPDEST JUMPDEST SWAP1 PUSH0 MSTORE PUSH1 0x20 PUSH0 KECCAK256 ADD DUP2 SWAP1 SSTORE POP DUP1 PUSH0 PUSH1 0x3 DUP2 LT PUSH2 0x39B JUMPI PUSH2 0x39A PUSH2 0x83F JUMP JUMPDEST JUMPDEST PUSH1 0x20 MUL ADD MLOAD SWAP2 POP POP SWAP1 JUMP JUMPDEST DUP3 DUP1 SLOAD DUP3 DUP3 SSTORE SWAP1 PUSH0 MSTORE PUSH1 0x20 PUSH0 KECCAK256 SWAP1 DUP2 ADD SWAP3 DUP3 ISZERO PUSH2 0x3E0 JUMPI SWAP2 PUSH1 0x20 MUL DUP3 ADD JUMPDEST DUP3 DUP2 GT ISZERO PUSH2 0x3DF JUMPI DUP3 MLOAD DUP3 SSTORE SWAP2 PUSH1 0x20 ADD SWAP2 SWAP1 PUSH1 0x1 ADD SWAP1 PUSH2 0x3C4 JUMP JUMPDEST JUMPDEST POP SWAP1 POP PUSH2 0x3ED SWAP2 SWAP1 PUSH2 0x3F1 JUMP JUMPDEST POP SWAP1 JUMP JUMPDEST JUMPDEST DUP1 DUP3 GT ISZERO PUSH2 0x408 JUMPI PUSH0 DUP2 PUSH0 SWAP1 SSTORE POP PUSH1 0x1 ADD PUSH2 0x3F2 JUMP JUMPDEST POP SWAP1 JUMP JUMPDEST PUSH0 PUSH1 0x40 MLOAD SWAP1 POP SWAP1 JUMP JUMPDEST PUSH0 DUP1 REVERT JUMPDEST PUSH0 DUP1 REVERT JUMPDEST PUSH0 DUP1 REVERT JUMPDEST PUSH0 PUSH1 0x1F NOT PUSH1 0x1F DUP4 ADD AND SWAP1 POP SWAP2 SWAP1 POP JUMP JUMPDEST PUSH32 0x4E487B7100000000000000000000000000000000000000000000000000000000 PUSH0 MSTORE PUSH1 0x41 PUSH1 0x4 MSTORE PUSH1 0x24 PUSH0 REVERT JUMPDEST PUSH2 0x467 DUP3 PUSH2 0x421 JUMP JUMPDEST DUP2 ADD DUP2 DUP2 LT PUSH8 0xFFFFFFFFFFFFFFFF DUP3 GT OR ISZERO PUSH2 0x486 JUMPI PUSH2 0x485 PUSH2 0x431 JUMP JUMPDEST JUMPDEST DUP1 PUSH1 0x40 MSTORE POP POP POP JUMP JUMPDEST PUSH0 PUSH2 0x498 PUSH2 0x40C JUMP JUMPDEST SWAP1 POP PUSH2 0x4A4 DUP3 DUP3 PUSH2 0x45E JUMP JUMPDEST SWAP2 SWAP1 POP JUMP JUMPDEST PUSH0 PUSH8 0xFFFFFFFFFFFFFFFF DUP3 GT ISZERO PUSH2 0x4C3 JUMPI PUSH2 0x4C2 PUSH2 0x431 JUMP JUMPDEST JUMPDEST PUSH1 0x20 DUP3 MUL SWAP1 POP PUSH1 0x20 DUP2 ADD SWAP1 POP SWAP2 SWAP1 POP JUMP JUMPDEST PUSH0 DUP1 REVERT JUMPDEST PUSH0 DUP2 SWAP1 POP SWAP2 SWAP1 POP JUMP JUMPDEST PUSH2 0x4EA DUP2 PUSH2 0x4D8 JUMP JUMPDEST DUP2 EQ PUSH2 0x4F4 JUMPI PUSH0 DUP1 REVERT JUMPDEST POP JUMP JUMPDEST PUSH0 DUP2 CALLDATALOAD SWAP1 POP PUSH2 0x505 DUP2 PUSH2 0x4E1 JUMP JUMPDEST SWAP3 SWAP2 POP POP JUMP JUMPDEST PUSH0 PUSH2 0x51D PUSH2 0x518 DUP5 PUSH2 0x4A9 JUMP JUMPDEST PUSH2 0x48F JUMP JUMPDEST SWAP1 POP DUP1 DUP4 DUP3 MSTORE PUSH1 0x20 DUP3 ADD SWAP1 POP PUSH1 0x20 DUP5 MUL DUP4 ADD DUP6 DUP2 GT ISZERO PUSH2 0x540 JUMPI PUSH2 0x53F PUSH2 0x4D4 JUMP JUMPDEST JUMPDEST DUP4 JUMPDEST DUP2 DUP2 LT ISZERO PUSH2 0x569 JUMPI DUP1 PUSH2 0x555 DUP9 DUP3 PUSH2 0x4F7 JUMP JUMPDEST DUP5 MSTORE PUSH1 0x20 DUP5 ADD SWAP4 POP POP PUSH1 0x20 DUP2 ADD SWAP1 POP PUSH2 0x542 JUMP JUMPDEST POP POP POP SWAP4 SWAP3 POP POP POP JUMP JUMPDEST PUSH0 DUP3 PUSH1 0x1F DUP4 ADD SLT PUSH2 0x587 JUMPI PUSH2 0x586 PUSH2 0x41D JUMP JUMPDEST JUMPDEST DUP2 CALLDATALOAD PUSH2 0x597 DUP5 DUP3 PUSH1 0x20 DUP7 ADD PUSH2 0x50B JUMP JUMPDEST SWAP2 POP POP SWAP3 SWAP2 POP POP JUMP JUMPDEST PUSH0 PUSH1 0x20 DUP3 DUP5 SUB SLT ISZERO PUSH2 0x5B5 JUMPI PUSH2 0x5B4 PUSH2 0x415 JUMP JUMPDEST JUMPDEST PUSH0 DUP3 ADD CALLDATALOAD PUSH8 0xFFFFFFFFFFFFFFFF DUP2 GT ISZERO PUSH2 0x5D2 JUMPI PUSH2 0x5D1 PUSH2 0x419 JUMP JUMPDEST JUMPDEST PUSH2 0x5DE DUP5 DUP3 DUP6 ADD PUSH2 0x573 JUMP JUMPDEST SWAP2 POP POP SWAP3 SWAP2 POP POP JUMP JUMPDEST PUSH0 DUP2 MLOAD SWAP1 POP SWAP2 SWAP1 POP JUMP JUMPDEST PUSH0 DUP3 DUP3 MSTORE PUSH1 0x20 DUP3 ADD SWAP1 POP SWAP3 SWAP2 POP POP JUMP JUMPDEST PUSH0 DUP2 SWAP1 POP PUSH1 0x20 DUP3 ADD SWAP1 POP SWAP2 SWAP1 POP JUMP JUMPDEST PUSH2 0x619 DUP2 PUSH2 0x4D8 JUMP JUMPDEST DUP3 MSTORE POP POP JUMP JUMPDEST PUSH0 PUSH2 0x62A DUP4 DUP4 PUSH2 0x610 JUMP JUMPDEST PUSH1 0x20 DUP4 ADD SWAP1 POP SWAP3 SWAP2 POP POP JUMP JUMPDEST PUSH0 PUSH1 0x20 DUP3 ADD SWAP1 POP SWAP2 SWAP1 POP JUMP JUMPDEST PUSH0 PUSH2 0x64C DUP3 PUSH2 0x5E7 JUMP JUMPDEST PUSH2 0x656 DUP2 DUP6 PUSH2 0x5F1 JUMP JUMPDEST SWAP4 POP PUSH2 0x661 DUP4 PUSH2 0x601 JUMP JUMPDEST DUP1 PUSH0 JUMPDEST DUP4 DUP2 LT ISZERO PUSH2 0x691 JUMPI DUP2 MLOAD PUSH2 0x678 DUP9 DUP3 PUSH2 0x61F JUMP JUMPDEST SWAP8 POP PUSH2 0x683 DUP4 PUSH2 0x636 JUMP JUMPDEST SWAP3 POP POP PUSH1 0x1 DUP2 ADD SWAP1 POP PUSH2 0x664 JUMP JUMPDEST POP DUP6 SWAP4 POP POP POP POP SWAP3 SWAP2 POP POP JUMP JUMPDEST PUSH0 PUSH1 0x20 DUP3 ADD SWAP1 POP DUP2 DUP2 SUB PUSH0 DUP4 ADD MSTORE PUSH2 0x6B6 DUP2 DUP5 PUSH2 0x642 JUMP JUMPDEST SWAP1 POP SWAP3 SWAP2 POP POP JUMP JUMPDEST PUSH2 0x6C7 DUP2 PUSH2 0x4D8 JUMP JUMPDEST DUP3 MSTORE POP POP JUMP JUMPDEST PUSH0 PUSH1 0x20 DUP3 ADD SWAP1 POP PUSH2 0x6E0 PUSH0 DUP4 ADD DUP5 PUSH2 0x6BE JUMP JUMPDEST SWAP3 SWAP2 POP POP JUMP JUMPDEST PUSH0 PUSH1 0x20 DUP3 DUP5 SUB SLT ISZERO PUSH2 0x6FB JUMPI PUSH2 0x6FA PUSH2 0x415 JUMP JUMPDEST JUMPDEST PUSH0 PUSH2 0x708 DUP5 DUP3 DUP6 ADD PUSH2 0x4F7 JUMP JUMPDEST SWAP2 POP POP SWAP3 SWAP2 POP POP JUMP JUMPDEST PUSH0 DUP1 REVERT JUMPDEST PUSH0 DUP1 DUP4 PUSH1 0x1F DUP5 ADD SLT PUSH2 0x72A JUMPI PUSH2 0x729 PUSH2 0x41D JUMP JUMPDEST JUMPDEST DUP3 CALLDATALOAD SWAP1 POP PUSH8 0xFFFFFFFFFFFFFFFF DUP2 GT ISZERO PUSH2 0x747 JUMPI PUSH2 0x746 PUSH2 0x711 JUMP JUMPDEST JUMPDEST PUSH1 0x20 DUP4 ADD SWAP2 POP DUP4 PUSH1 0x20 DUP3 MUL DUP4 ADD GT ISZERO PUSH2 0x763 JUMPI PUSH2 0x762 PUSH2 0x4D4 JUMP JUMPDEST JUMPDEST SWAP3 POP SWAP3 SWAP1 POP JUMP JUMPDEST PUSH0 DUP1 PUSH1 0x20 DUP4 DUP6 SUB SLT ISZERO PUSH2 0x780 JUMPI PUSH2 0x77F PUSH2 0x415 JUMP JUMPDEST JUMPDEST PUSH0 DUP4 ADD CALLDATALOAD PUSH8 0xFFFFFFFFFFFFFFFF DUP2 GT ISZERO PUSH2 0x79D JUMPI PUSH2 0x79C PUSH2 0x419 JUMP JUMPDEST JUMPDEST PUSH2 0x7A9 DUP6 DUP3 DUP7 ADD PUSH2 0x715 JUMP JUMPDEST SWAP3 POP SWAP3 POP POP SWAP3 POP SWAP3 SWAP1 POP JUMP JUMPDEST PUSH0 DUP1 REVERT JUMPDEST DUP3 DUP2 DUP4 CALLDATACOPY POP POP POP JUMP JUMPDEST PUSH0 PUSH2 0x7CD DUP4 DUP6 PUSH2 0x5F1 JUMP JUMPDEST SWAP4 POP PUSH32 0x7FFFFFFFFFFFFFFFFFFFFFFFFFFFFFFFFFFFFFFFFFFFFFFFFFFFFFFFFFFFFFF DUP4 GT ISZERO PUSH2 0x800 JUMPI PUSH2 0x7FF PUSH2 0x7B5 JUMP JUMPDEST JUMPDEST PUSH1 0x20 DUP4 MUL SWAP3 POP PUSH2 0x811 DUP4 DUP6 DUP5 PUSH2 0x7B9 JUMP JUMPDEST DUP3 DUP5 ADD SWAP1 POP SWAP4 SWAP3 POP POP POP JUMP JUMPDEST PUSH0 PUSH1 0x20 DUP3 ADD SWAP1 POP DUP2 DUP2 SUB PUSH0 DUP4 ADD MSTORE PUSH2 0x836 DUP2 DUP5 DUP7 PUSH2 0x7C2 JUMP JUMPDEST SWAP1 POP SWAP4 SWAP3 POP POP POP JUMP JUMPDEST PUSH32 0x4E487B7100000000000000000000000000000000000000000000000000000000 PUSH0 MSTORE PUSH1 0x32 PUSH1 0x4 MSTORE PUSH1 0x24 PUSH0 REVERT INVALID LOG2 PUSH5 0x6970667358 0x22 SLT KECCAK256 PUSH19 0xFAE3471422B858AB73D9ACC3E98F667BAFB02A 0x2E CODECOPY 0xEC 0xAF 0x2D 0xC3 0xA7 MULMOD PUSH27 0xAC27D764736F6C6343000819003300000000000000000000000000 "
				},
				"gasEstimates": {
					"creation": {
						"codeDepositCost": "442000",
						"executionCost": "infinite",
						"totalCost": "infinite"
					},
					"external": {
						"fCalldata(uint256[])": "infinite",
						"fMemory(uint256[])": "infinite",
						"fMemoryToMemory()": "545",
						"fMemoryToSorage()": "infinite",
						"fStorageToMemory()": "infinite",
						"fStorageToSorage()": "24482",
						"getX()": "infinite",
						"x(uint256)": "infinite"
					}
				},
				"methodIdentifiers": {
					"fCalldata(uint256[])": "9b1a379c",
					"fMemory(uint256[])": "16ef614f",
					"fMemoryToMemory()": "36fe2e34",
					"fMemoryToSorage()": "ae4ee941",
					"fStorageToMemory()": "48d1c0aa",
					"fStorageToSorage()": "a3125c08",
					"getX()": "5197c7aa",
					"x(uint256)": "3f4263ef"
				}
			},
			"storageLayout": {
				"storage": [
					{
						"astId": 8,
						"contract": "contracts/5_DataStorage.sol:DataStorage",
						"label": "x",
						"offset": 0,
						"slot": "0",
						"type": "t_array(t_uint256)dyn_storage"
					}
				],
				"types": {
					"t_array(t_uint256)dyn_storage": {
						"base": "t_uint256",
						"encoding": "dynamic_array",
						"label": "uint256[]",
						"numberOfBytes": "32"
					},
					"t_uint256": {
						"encoding": "inplace",
						"label": "uint256",
						"numberOfBytes": "32"
					}
				}
			},
			"userdoc": {
				"kind": "user",
				"methods": {},
				"version": 1
			}
		}
	}
}