{
	"contracts/31_Erc20.sol": {
		"ERC20": {
			"abi": [
				{
					"inputs": [
						{
							"internalType": "string",
							"name": "_name",
							"type": "string"
						},
						{
							"internalType": "string",
							"name": "_symbol",
							"type": "string"
						}
					],
					"stateMutability": "payable",
					"type": "constructor"
				},
				{
					"anonymous": false,
					"inputs": [
						{
							"indexed": true,
							"internalType": "address",
							"name": "owner",
							"type": "address"
						},
						{
							"indexed": true,
							"internalType": "address",
							"name": "spender",
							"type": "address"
						},
						{
							"indexed": false,
							"internalType": "uint256",
							"name": "value",
							"type": "uint256"
						}
					],
					"name": "Approval",
					"type": "event"
				},
				{
					"anonymous": false,
					"inputs": [
						{
							"indexed": true,
							"internalType": "address",
							"name": "from",
							"type": "address"
						},
						{
							"indexed": true,
							"internalType": "address",
							"name": "to",
							"type": "address"
						},
						{
							"indexed": false,
							"internalType": "uint256",
							"name": "value",
							"type": "uint256"
						}
					],
					"name": "Transfer",
					"type": "event"
				},
				{
					"inputs": [
						{
							"internalType": "address",
							"name": "",
							"type": "address"
						},
						{
							"internalType": "address",
							"name": "",
							"type": "address"
						}
					],
					"name": "allowance",
					"outputs": [
						{
							"internalType": "uint256",
							"name": "",
							"type": "uint256"
						}
					],
					"stateMutability": "view",
					"type": "function"
				},
				{
					"inputs": [
						{
							"internalType": "address",
							"name": "spender",
							"type": "address"
						},
						{
							"internalType": "uint256",
							"name": "amount",
							"type": "uint256"
						}
					],
					"name": "approve",
					"outputs": [
						{
							"internalType": "bool",
							"name": "",
							"type": "bool"
						}
					],
					"stateMutability": "nonpayable",
					"type": "function"
				},
				{
					"inputs": [
						{
							"internalType": "address",
							"name": "",
							"type": "address"
						}
					],
					"name": "balanceOf",
					"outputs": [
						{
							"internalType": "uint256",
							"name": "",
							"type": "uint256"
						}
					],
					"stateMutability": "view",
					"type": "function"
				},
				{
					"inputs": [
						{
							"internalType": "uint256",
							"name": "amount",
							"type": "uint256"
						}
					],
					"name": "burn",
					"outputs": [],
					"stateMutability": "nonpayable",
					"type": "function"
				},
				{
					"inputs": [],
					"name": "decimals",
					"outputs": [
						{
							"internalType": "uint8",
							"name": "",
							"type": "uint8"
						}
					],
					"stateMutability": "view",
					"type": "function"
				},
				{
					"inputs": [
						{
							"internalType": "uint256",
							"name": "amount",
							"type": "uint256"
						}
					],
					"name": "mint",
					"outputs": [],
					"stateMutability": "nonpayable",
					"type": "function"
				},
				{
					"inputs": [],
					"name": "name",
					"outputs": [
						{
							"internalType": "string",
							"name": "",
							"type": "string"
						}
					],
					"stateMutability": "view",
					"type": "function"
				},
				{
					"inputs": [],
					"name": "symbol",
					"outputs": [
						{
							"internalType": "string",
							"name": "",
							"type": "string"
						}
					],
					"stateMutability": "view",
					"type": "function"
				},
				{
					"inputs": [],
					"name": "totalSupply",
					"outputs": [
						{
							"internalType": "uint256",
							"name": "",
							"type": "uint256"
						}
					],
					"stateMutability": "view",
					"type": "function"
				},
				{
					"inputs": [
						{
							"internalType": "address",
							"name": "recipient",
							"type": "address"
						},
						{
							"internalType": "uint256",
							"name": "amount",
							"type": "uint256"
						}
					],
					"name": "transfer",
					"outputs": [
						{
							"internalType": "bool",
							"name": "",
							"type": "bool"
						}
					],
					"stateMutability": "nonpayable",
					"type": "function"
				},
				{
					"inputs": [
						{
							"internalType": "address",
							"name": "sender",
							"type": "address"
						},
						{
							"internalType": "address",
							"name": "recipient",
							"type": "address"
						},
						{
							"internalType": "uint256",
							"name": "amount",
							"type": "uint256"
						}
					],
					"name": "transferFrom",
					"outputs": [
						{
							"internalType": "bool",
							"name": "",
							"type": "bool"
						}
					],
					"stateMutability": "nonpayable",
					"type": "function"
				}
			],
			"devdoc": {
				"events": {
					"Approval(address,address,uint256)": {
						"details": "Emitted when the allowance of a `spender` for an `owner` is set by a call to {approve}. `value` is the new allowance."
					},
					"Transfer(address,address,uint256)": {
						"details": "Emitted when `value` tokens are moved from one account (`from`) to another (`to`). Note that `value` may be zero."
					}
				},
				"kind": "dev",
				"methods": {},
				"stateVariables": {
					"allowance": {
						"details": "Returns the remaining number of tokens that `spender` will be allowed to spend on behalf of `owner` through {transferFrom}. This is zero by default. This value changes when {approve} or {transferFrom} are called."
					},
					"balanceOf": {
						"details": "Returns the value of tokens owned by `account`."
					},
					"totalSupply": {
						"details": "Returns the value of tokens in existence."
					}
				},
				"version": 1
			},
			"evm": {
				"assembly": "    /* \"contracts/31_Erc20.sol\":1302:2863  contract ERC20 is IERC20{... */\n  mstore(0x40, 0x80)\n    /* \"contracts/31_Erc20.sol\":1602:1604  18 */\n  0x12\n    /* \"contracts/31_Erc20.sol\":1578:1604  uint8 public decimals = 18 */\n  0x05\n  exp(0x0100, 0x00)\n  dup2\n  sload\n  dup2\n  0xff\n  mul\n  not\n  and\n  swap1\n  dup4\n  0xff\n  and\n  mul\n  or\n  swap1\n  sstore\n  pop\n    /* \"contracts/31_Erc20.sol\":1611:1731  constructor(string memory _name, string memory _symbol) payable  {... */\n  mload(0x40)\n  sub(codesize, bytecodeSize)\n  dup1\n  bytecodeSize\n  dup4\n  codecopy\n  dup2\n  dup2\n  add\n  0x40\n  mstore\n  dup2\n  add\n  swap1\n  tag_1\n  swap2\n  swap1\n  tag_2\n  jump\t// in\ntag_1:\n    /* \"contracts/31_Erc20.sol\":1693:1698  _name */\n  dup2\n    /* \"contracts/31_Erc20.sol\":1686:1690  name */\n  0x03\n    /* \"contracts/31_Erc20.sol\":1686:1698  name = _name */\n  swap1\n  dup2\n  tag_5\n  swap2\n  swap1\n  tag_6\n  jump\t// in\ntag_5:\n  pop\n    /* \"contracts/31_Erc20.sol\":1717:1724  _symbol */\n  dup1\n    /* \"contracts/31_Erc20.sol\":1708:1714  symbol */\n  0x04\n    /* \"contracts/31_Erc20.sol\":1708:1724  symbol = _symbol */\n  swap1\n  dup2\n  tag_7\n  swap2\n  swap1\n  tag_6\n  jump\t// in\ntag_7:\n  pop\n    /* \"contracts/31_Erc20.sol\":1611:1731  constructor(string memory _name, string memory _symbol) payable  {... */\n  pop\n  pop\n    /* \"contracts/31_Erc20.sol\":1302:2863  contract ERC20 is IERC20{... */\n  jump(tag_8)\n    /* \"#utility.yul\":7:82   */\ntag_9:\n    /* \"#utility.yul\":40:46   */\n  0x00\n    /* \"#utility.yul\":73:75   */\n  0x40\n    /* \"#utility.yul\":67:76   */\n  mload\n    /* \"#utility.yul\":57:76   */\n  swap1\n  pop\n    /* \"#utility.yul\":7:82   */\n  swap1\n  jump\t// out\n    /* \"#utility.yul\":88:205   */\ntag_10:\n    /* \"#utility.yul\":197:198   */\n  0x00\n    /* \"#utility.yul\":194:195   */\n  dup1\n    /* \"#utility.yul\":187:199   */\n  revert\n    /* \"#utility.yul\":211:328   */\ntag_11:\n    /* \"#utility.yul\":320:321   */\n  0x00\n    /* \"#utility.yul\":317:318   */\n  dup1\n    /* \"#utility.yul\":310:322   */\n  revert\n    /* \"#utility.yul\":334:451   */\ntag_12:\n    /* \"#utility.yul\":443:444   */\n  0x00\n    /* \"#utility.yul\":440:441   */\n  dup1\n    /* \"#utility.yul\":433:445   */\n  revert\n    /* \"#utility.yul\":457:574   */\ntag_13:\n    /* \"#utility.yul\":566:567   */\n  0x00\n    /* \"#utility.yul\":563:564   */\n  dup1\n    /* \"#utility.yul\":556:568   */\n  revert\n    /* \"#utility.yul\":580:682   */\ntag_14:\n    /* \"#utility.yul\":621:627   */\n  0x00\n    /* \"#utility.yul\":672:674   */\n  0x1f\n    /* \"#utility.yul\":668:675   */\n  not\n    /* \"#utility.yul\":663:665   */\n  0x1f\n    /* \"#utility.yul\":656:661   */\n  dup4\n    /* \"#utility.yul\":652:666   */\n  add\n    /* \"#utility.yul\":648:676   */\n  and\n    /* \"#utility.yul\":638:676   */\n  swap1\n  pop\n    /* \"#utility.yul\":580:682   */\n  swap2\n  swap1\n  pop\n  jump\t// out\n    /* \"#utility.yul\":688:868   */\ntag_15:\n    /* \"#utility.yul\":736:813   */\n  0x4e487b7100000000000000000000000000000000000000000000000000000000\n    /* \"#utility.yul\":733:734   */\n  0x00\n    /* \"#utility.yul\":726:814   */\n  mstore\n    /* \"#utility.yul\":833:837   */\n  0x41\n    /* \"#utility.yul\":830:831   */\n  0x04\n    /* \"#utility.yul\":823:838   */\n  mstore\n    /* \"#utility.yul\":857:861   */\n  0x24\n    /* \"#utility.yul\":854:855   */\n  0x00\n    /* \"#utility.yul\":847:862   */\n  revert\n    /* \"#utility.yul\":874:1155   */\ntag_16:\n    /* \"#utility.yul\":957:984   */\n  tag_50\n    /* \"#utility.yul\":979:983   */\n  dup3\n    /* \"#utility.yul\":957:984   */\n  tag_14\n  jump\t// in\ntag_50:\n    /* \"#utility.yul\":949:955   */\n  dup2\n    /* \"#utility.yul\":945:985   */\n  add\n    /* \"#utility.yul\":1087:1093   */\n  dup2\n    /* \"#utility.yul\":1075:1085   */\n  dup2\n    /* \"#utility.yul\":1072:1094   */\n  lt\n    /* \"#utility.yul\":1051:1069   */\n  0xffffffffffffffff\n    /* \"#utility.yul\":1039:1049   */\n  dup3\n    /* \"#utility.yul\":1036:1070   */\n  gt\n    /* \"#utility.yul\":1033:1095   */\n  or\n    /* \"#utility.yul\":1030:1118   */\n  iszero\n  tag_51\n  jumpi\n    /* \"#utility.yul\":1098:1116   */\n  tag_52\n  tag_15\n  jump\t// in\ntag_52:\n    /* \"#utility.yul\":1030:1118   */\ntag_51:\n    /* \"#utility.yul\":1138:1148   */\n  dup1\n    /* \"#utility.yul\":1134:1136   */\n  0x40\n    /* \"#utility.yul\":1127:1149   */\n  mstore\n    /* \"#utility.yul\":917:1155   */\n  pop\n    /* \"#utility.yul\":874:1155   */\n  pop\n  pop\n  jump\t// out\n    /* \"#utility.yul\":1161:1290   */\ntag_17:\n    /* \"#utility.yul\":1195:1201   */\n  0x00\n    /* \"#utility.yul\":1222:1242   */\n  tag_54\n  tag_9\n  jump\t// in\ntag_54:\n    /* \"#utility.yul\":1212:1242   */\n  swap1\n  pop\n    /* \"#utility.yul\":1251:1284   */\n  tag_55\n    /* \"#utility.yul\":1279:1283   */\n  dup3\n    /* \"#utility.yul\":1271:1277   */\n  dup3\n    /* \"#utility.yul\":1251:1284   */\n  tag_16\n  jump\t// in\ntag_55:\n    /* \"#utility.yul\":1161:1290   */\n  swap2\n  swap1\n  pop\n  jump\t// out\n    /* \"#utility.yul\":1296:1604   */\ntag_18:\n    /* \"#utility.yul\":1358:1362   */\n  0x00\n    /* \"#utility.yul\":1448:1466   */\n  0xffffffffffffffff\n    /* \"#utility.yul\":1440:1446   */\n  dup3\n    /* \"#utility.yul\":1437:1467   */\n  gt\n    /* \"#utility.yul\":1434:1490   */\n  iszero\n  tag_57\n  jumpi\n    /* \"#utility.yul\":1470:1488   */\n  tag_58\n  tag_15\n  jump\t// in\ntag_58:\n    /* \"#utility.yul\":1434:1490   */\ntag_57:\n    /* \"#utility.yul\":1508:1537   */\n  tag_59\n    /* \"#utility.yul\":1530:1536   */\n  dup3\n    /* \"#utility.yul\":1508:1537   */\n  tag_14\n  jump\t// in\ntag_59:\n    /* \"#utility.yul\":1500:1537   */\n  swap1\n  pop\n    /* \"#utility.yul\":1592:1596   */\n  0x20\n    /* \"#utility.yul\":1586:1590   */\n  dup2\n    /* \"#utility.yul\":1582:1597   */\n  add\n    /* \"#utility.yul\":1574:1597   */\n  swap1\n  pop\n    /* \"#utility.yul\":1296:1604   */\n  swap2\n  swap1\n  pop\n  jump\t// out\n    /* \"#utility.yul\":1610:1858   */\ntag_19:\n    /* \"#utility.yul\":1692:1693   */\n  0x00\n    /* \"#utility.yul\":1702:1815   */\ntag_61:\n    /* \"#utility.yul\":1716:1722   */\n  dup4\n    /* \"#utility.yul\":1713:1714   */\n  dup2\n    /* \"#utility.yul\":1710:1723   */\n  lt\n    /* \"#utility.yul\":1702:1815   */\n  iszero\n  tag_63\n  jumpi\n    /* \"#utility.yul\":1801:1802   */\n  dup1\n    /* \"#utility.yul\":1796:1799   */\n  dup3\n    /* \"#utility.yul\":1792:1803   */\n  add\n    /* \"#utility.yul\":1786:1804   */\n  mload\n    /* \"#utility.yul\":1782:1783   */\n  dup2\n    /* \"#utility.yul\":1777:1780   */\n  dup5\n    /* \"#utility.yul\":1773:1784   */\n  add\n    /* \"#utility.yul\":1766:1805   */\n  mstore\n    /* \"#utility.yul\":1738:1740   */\n  0x20\n    /* \"#utility.yul\":1735:1736   */\n  dup2\n    /* \"#utility.yul\":1731:1741   */\n  add\n    /* \"#utility.yul\":1726:1741   */\n  swap1\n  pop\n    /* \"#utility.yul\":1702:1815   */\n  jump(tag_61)\ntag_63:\n    /* \"#utility.yul\":1849:1850   */\n  0x00\n    /* \"#utility.yul\":1840:1846   */\n  dup5\n    /* \"#utility.yul\":1835:1838   */\n  dup5\n    /* \"#utility.yul\":1831:1847   */\n  add\n    /* \"#utility.yul\":1824:1851   */\n  mstore\n    /* \"#utility.yul\":1672:1858   */\n  pop\n    /* \"#utility.yul\":1610:1858   */\n  pop\n  pop\n  pop\n  jump\t// out\n    /* \"#utility.yul\":1864:2298   */\ntag_20:\n    /* \"#utility.yul\":1953:1958   */\n  0x00\n    /* \"#utility.yul\":1978:2044   */\n  tag_65\n    /* \"#utility.yul\":1994:2043   */\n  tag_66\n    /* \"#utility.yul\":2036:2042   */\n  dup5\n    /* \"#utility.yul\":1994:2043   */\n  tag_18\n  jump\t// in\ntag_66:\n    /* \"#utility.yul\":1978:2044   */\n  tag_17\n  jump\t// in\ntag_65:\n    /* \"#utility.yul\":1969:2044   */\n  swap1\n  pop\n    /* \"#utility.yul\":2067:2073   */\n  dup3\n    /* \"#utility.yul\":2060:2065   */\n  dup2\n    /* \"#utility.yul\":2053:2074   */\n  mstore\n    /* \"#utility.yul\":2105:2109   */\n  0x20\n    /* \"#utility.yul\":2098:2103   */\n  dup2\n    /* \"#utility.yul\":2094:2110   */\n  add\n    /* \"#utility.yul\":2143:2146   */\n  dup5\n    /* \"#utility.yul\":2134:2140   */\n  dup5\n    /* \"#utility.yul\":2129:2132   */\n  dup5\n    /* \"#utility.yul\":2125:2141   */\n  add\n    /* \"#utility.yul\":2122:2147   */\n  gt\n    /* \"#utility.yul\":2119:2231   */\n  iszero\n  tag_67\n  jumpi\n    /* \"#utility.yul\":2150:2229   */\n  tag_68\n  tag_13\n  jump\t// in\ntag_68:\n    /* \"#utility.yul\":2119:2231   */\ntag_67:\n    /* \"#utility.yul\":2240:2292   */\n  tag_69\n    /* \"#utility.yul\":2285:2291   */\n  dup5\n    /* \"#utility.yul\":2280:2283   */\n  dup3\n    /* \"#utility.yul\":2275:2278   */\n  dup6\n    /* \"#utility.yul\":2240:2292   */\n  tag_19\n  jump\t// in\ntag_69:\n    /* \"#utility.yul\":1959:2298   */\n  pop\n    /* \"#utility.yul\":1864:2298   */\n  swap4\n  swap3\n  pop\n  pop\n  pop\n  jump\t// out\n    /* \"#utility.yul\":2318:2673   */\ntag_21:\n    /* \"#utility.yul\":2385:2390   */\n  0x00\n    /* \"#utility.yul\":2434:2437   */\n  dup3\n    /* \"#utility.yul\":2427:2431   */\n  0x1f\n    /* \"#utility.yul\":2419:2425   */\n  dup4\n    /* \"#utility.yul\":2415:2432   */\n  add\n    /* \"#utility.yul\":2411:2438   */\n  slt\n    /* \"#utility.yul\":2401:2523   */\n  tag_71\n  jumpi\n    /* \"#utility.yul\":2442:2521   */\n  tag_72\n  tag_12\n  jump\t// in\ntag_72:\n    /* \"#utility.yul\":2401:2523   */\ntag_71:\n    /* \"#utility.yul\":2552:2558   */\n  dup2\n    /* \"#utility.yul\":2546:2559   */\n  mload\n    /* \"#utility.yul\":2577:2667   */\n  tag_73\n    /* \"#utility.yul\":2663:2666   */\n  dup5\n    /* \"#utility.yul\":2655:2661   */\n  dup3\n    /* \"#utility.yul\":2648:2652   */\n  0x20\n    /* \"#utility.yul\":2640:2646   */\n  dup7\n    /* \"#utility.yul\":2636:2653   */\n  add\n    /* \"#utility.yul\":2577:2667   */\n  tag_20\n  jump\t// in\ntag_73:\n    /* \"#utility.yul\":2568:2667   */\n  swap2\n  pop\n    /* \"#utility.yul\":2391:2673   */\n  pop\n    /* \"#utility.yul\":2318:2673   */\n  swap3\n  swap2\n  pop\n  pop\n  jump\t// out\n    /* \"#utility.yul\":2679:3532   */\ntag_2:\n    /* \"#utility.yul\":2778:2784   */\n  0x00\n    /* \"#utility.yul\":2786:2792   */\n  dup1\n    /* \"#utility.yul\":2835:2837   */\n  0x40\n    /* \"#utility.yul\":2823:2832   */\n  dup4\n    /* \"#utility.yul\":2814:2821   */\n  dup6\n    /* \"#utility.yul\":2810:2833   */\n  sub\n    /* \"#utility.yul\":2806:2838   */\n  slt\n    /* \"#utility.yul\":2803:2922   */\n  iszero\n  tag_75\n  jumpi\n    /* \"#utility.yul\":2841:2920   */\n  tag_76\n  tag_10\n  jump\t// in\ntag_76:\n    /* \"#utility.yul\":2803:2922   */\ntag_75:\n    /* \"#utility.yul\":2982:2983   */\n  0x00\n    /* \"#utility.yul\":2971:2980   */\n  dup4\n    /* \"#utility.yul\":2967:2984   */\n  add\n    /* \"#utility.yul\":2961:2985   */\n  mload\n    /* \"#utility.yul\":3012:3030   */\n  0xffffffffffffffff\n    /* \"#utility.yul\":3004:3010   */\n  dup2\n    /* \"#utility.yul\":3001:3031   */\n  gt\n    /* \"#utility.yul\":2998:3115   */\n  iszero\n  tag_77\n  jumpi\n    /* \"#utility.yul\":3034:3113   */\n  tag_78\n  tag_11\n  jump\t// in\ntag_78:\n    /* \"#utility.yul\":2998:3115   */\ntag_77:\n    /* \"#utility.yul\":3139:3213   */\n  tag_79\n    /* \"#utility.yul\":3205:3212   */\n  dup6\n    /* \"#utility.yul\":3196:3202   */\n  dup3\n    /* \"#utility.yul\":3185:3194   */\n  dup7\n    /* \"#utility.yul\":3181:3203   */\n  add\n    /* \"#utility.yul\":3139:3213   */\n  tag_21\n  jump\t// in\ntag_79:\n    /* \"#utility.yul\":3129:3213   */\n  swap3\n  pop\n    /* \"#utility.yul\":2932:3223   */\n  pop\n    /* \"#utility.yul\":3283:3285   */\n  0x20\n    /* \"#utility.yul\":3272:3281   */\n  dup4\n    /* \"#utility.yul\":3268:3286   */\n  add\n    /* \"#utility.yul\":3262:3287   */\n  mload\n    /* \"#utility.yul\":3314:3332   */\n  0xffffffffffffffff\n    /* \"#utility.yul\":3306:3312   */\n  dup2\n    /* \"#utility.yul\":3303:3333   */\n  gt\n    /* \"#utility.yul\":3300:3417   */\n  iszero\n  tag_80\n  jumpi\n    /* \"#utility.yul\":3336:3415   */\n  tag_81\n  tag_11\n  jump\t// in\ntag_81:\n    /* \"#utility.yul\":3300:3417   */\ntag_80:\n    /* \"#utility.yul\":3441:3515   */\n  tag_82\n    /* \"#utility.yul\":3507:3514   */\n  dup6\n    /* \"#utility.yul\":3498:3504   */\n  dup3\n    /* \"#utility.yul\":3487:3496   */\n  dup7\n    /* \"#utility.yul\":3483:3505   */\n  add\n    /* \"#utility.yul\":3441:3515   */\n  tag_21\n  jump\t// in\ntag_82:\n    /* \"#utility.yul\":3431:3515   */\n  swap2\n  pop\n    /* \"#utility.yul\":3233:3525   */\n  pop\n    /* \"#utility.yul\":2679:3532   */\n  swap3\n  pop\n  swap3\n  swap1\n  pop\n  jump\t// out\n    /* \"#utility.yul\":3538:3637   */\ntag_22:\n    /* \"#utility.yul\":3590:3596   */\n  0x00\n    /* \"#utility.yul\":3624:3629   */\n  dup2\n    /* \"#utility.yul\":3618:3630   */\n  mload\n    /* \"#utility.yul\":3608:3630   */\n  swap1\n  pop\n    /* \"#utility.yul\":3538:3637   */\n  swap2\n  swap1\n  pop\n  jump\t// out\n    /* \"#utility.yul\":3643:3823   */\ntag_23:\n    /* \"#utility.yul\":3691:3768   */\n  0x4e487b7100000000000000000000000000000000000000000000000000000000\n    /* \"#utility.yul\":3688:3689   */\n  0x00\n    /* \"#utility.yul\":3681:3769   */\n  mstore\n    /* \"#utility.yul\":3788:3792   */\n  0x22\n    /* \"#utility.yul\":3785:3786   */\n  0x04\n    /* \"#utility.yul\":3778:3793   */\n  mstore\n    /* \"#utility.yul\":3812:3816   */\n  0x24\n    /* \"#utility.yul\":3809:3810   */\n  0x00\n    /* \"#utility.yul\":3802:3817   */\n  revert\n    /* \"#utility.yul\":3829:4149   */\ntag_24:\n    /* \"#utility.yul\":3873:3879   */\n  0x00\n    /* \"#utility.yul\":3910:3911   */\n  0x02\n    /* \"#utility.yul\":3904:3908   */\n  dup3\n    /* \"#utility.yul\":3900:3912   */\n  div\n    /* \"#utility.yul\":3890:3912   */\n  swap1\n  pop\n    /* \"#utility.yul\":3957:3958   */\n  0x01\n    /* \"#utility.yul\":3951:3955   */\n  dup3\n    /* \"#utility.yul\":3947:3959   */\n  and\n    /* \"#utility.yul\":3978:3996   */\n  dup1\n    /* \"#utility.yul\":3968:4049   */\n  tag_86\n  jumpi\n    /* \"#utility.yul\":4034:4038   */\n  0x7f\n    /* \"#utility.yul\":4026:4032   */\n  dup3\n    /* \"#utility.yul\":4022:4039   */\n  and\n    /* \"#utility.yul\":4012:4039   */\n  swap2\n  pop\n    /* \"#utility.yul\":3968:4049   */\ntag_86:\n    /* \"#utility.yul\":4096:4098   */\n  0x20\n    /* \"#utility.yul\":4088:4094   */\n  dup3\n    /* \"#utility.yul\":4085:4099   */\n  lt\n    /* \"#utility.yul\":4065:4083   */\n  dup2\n    /* \"#utility.yul\":4062:4100   */\n  sub\n    /* \"#utility.yul\":4059:4143   */\n  tag_87\n  jumpi\n    /* \"#utility.yul\":4115:4133   */\n  tag_88\n  tag_23\n  jump\t// in\ntag_88:\n    /* \"#utility.yul\":4059:4143   */\ntag_87:\n    /* \"#utility.yul\":3880:4149   */\n  pop\n    /* \"#utility.yul\":3829:4149   */\n  swap2\n  swap1\n  pop\n  jump\t// out\n    /* \"#utility.yul\":4155:4296   */\ntag_25:\n    /* \"#utility.yul\":4204:4208   */\n  0x00\n    /* \"#utility.yul\":4227:4230   */\n  dup2\n    /* \"#utility.yul\":4219:4230   */\n  swap1\n  pop\n    /* \"#utility.yul\":4250:4253   */\n  dup2\n    /* \"#utility.yul\":4247:4248   */\n  0x00\n    /* \"#utility.yul\":4240:4254   */\n  mstore\n    /* \"#utility.yul\":4284:4288   */\n  0x20\n    /* \"#utility.yul\":4281:4282   */\n  0x00\n    /* \"#utility.yul\":4271:4289   */\n  keccak256\n    /* \"#utility.yul\":4263:4289   */\n  swap1\n  pop\n    /* \"#utility.yul\":4155:4296   */\n  swap2\n  swap1\n  pop\n  jump\t// out\n    /* \"#utility.yul\":4302:4395   */\ntag_26:\n    /* \"#utility.yul\":4339:4345   */\n  0x00\n    /* \"#utility.yul\":4386:4388   */\n  0x20\n    /* \"#utility.yul\":4381:4383   */\n  0x1f\n    /* \"#utility.yul\":4374:4379   */\n  dup4\n    /* \"#utility.yul\":4370:4384   */\n  add\n    /* \"#utility.yul\":4366:4389   */\n  div\n    /* \"#utility.yul\":4356:4389   */\n  swap1\n  pop\n    /* \"#utility.yul\":4302:4395   */\n  swap2\n  swap1\n  pop\n  jump\t// out\n    /* \"#utility.yul\":4401:4508   */\ntag_27:\n    /* \"#utility.yul\":4445:4453   */\n  0x00\n    /* \"#utility.yul\":4495:4500   */\n  dup3\n    /* \"#utility.yul\":4489:4493   */\n  dup3\n    /* \"#utility.yul\":4485:4501   */\n  shl\n    /* \"#utility.yul\":4464:4501   */\n  swap1\n  pop\n    /* \"#utility.yul\":4401:4508   */\n  swap3\n  swap2\n  pop\n  pop\n  jump\t// out\n    /* \"#utility.yul\":4514:4907   */\ntag_28:\n    /* \"#utility.yul\":4583:4589   */\n  0x00\n    /* \"#utility.yul\":4633:4634   */\n  0x08\n    /* \"#utility.yul\":4621:4631   */\n  dup4\n    /* \"#utility.yul\":4617:4635   */\n  mul\n    /* \"#utility.yul\":4656:4753   */\n  tag_93\n    /* \"#utility.yul\":4686:4752   */\n  0xffffffffffffffffffffffffffffffffffffffffffffffffffffffffffffffff\n    /* \"#utility.yul\":4675:4684   */\n  dup3\n    /* \"#utility.yul\":4656:4753   */\n  tag_27\n  jump\t// in\ntag_93:\n    /* \"#utility.yul\":4774:4813   */\n  tag_94\n    /* \"#utility.yul\":4804:4812   */\n  dup7\n    /* \"#utility.yul\":4793:4802   */\n  dup4\n    /* \"#utility.yul\":4774:4813   */\n  tag_27\n  jump\t// in\ntag_94:\n    /* \"#utility.yul\":4762:4813   */\n  swap6\n  pop\n    /* \"#utility.yul\":4846:4850   */\n  dup1\n    /* \"#utility.yul\":4842:4851   */\n  not\n    /* \"#utility.yul\":4835:4840   */\n  dup5\n    /* \"#utility.yul\":4831:4852   */\n  and\n    /* \"#utility.yul\":4822:4852   */\n  swap4\n  pop\n    /* \"#utility.yul\":4895:4899   */\n  dup1\n    /* \"#utility.yul\":4885:4893   */\n  dup7\n    /* \"#utility.yul\":4881:4900   */\n  and\n    /* \"#utility.yul\":4874:4879   */\n  dup5\n    /* \"#utility.yul\":4871:4901   */\n  or\n    /* \"#utility.yul\":4861:4901   */\n  swap3\n  pop\n    /* \"#utility.yul\":4590:4907   */\n  pop\n  pop\n    /* \"#utility.yul\":4514:4907   */\n  swap4\n  swap3\n  pop\n  pop\n  pop\n  jump\t// out\n    /* \"#utility.yul\":4913:4990   */\ntag_29:\n    /* \"#utility.yul\":4950:4957   */\n  0x00\n    /* \"#utility.yul\":4979:4984   */\n  dup2\n    /* \"#utility.yul\":4968:4984   */\n  swap1\n  pop\n    /* \"#utility.yul\":4913:4990   */\n  swap2\n  swap1\n  pop\n  jump\t// out\n    /* \"#utility.yul\":4996:5056   */\ntag_30:\n    /* \"#utility.yul\":5024:5027   */\n  0x00\n    /* \"#utility.yul\":5045:5050   */\n  dup2\n    /* \"#utility.yul\":5038:5050   */\n  swap1\n  pop\n    /* \"#utility.yul\":4996:5056   */\n  swap2\n  swap1\n  pop\n  jump\t// out\n    /* \"#utility.yul\":5062:5204   */\ntag_31:\n    /* \"#utility.yul\":5112:5121   */\n  0x00\n    /* \"#utility.yul\":5145:5198   */\n  tag_98\n    /* \"#utility.yul\":5163:5197   */\n  tag_99\n    /* \"#utility.yul\":5172:5196   */\n  tag_100\n    /* \"#utility.yul\":5190:5195   */\n  dup5\n    /* \"#utility.yul\":5172:5196   */\n  tag_29\n  jump\t// in\ntag_100:\n    /* \"#utility.yul\":5163:5197   */\n  tag_30\n  jump\t// in\ntag_99:\n    /* \"#utility.yul\":5145:5198   */\n  tag_29\n  jump\t// in\ntag_98:\n    /* \"#utility.yul\":5132:5198   */\n  swap1\n  pop\n    /* \"#utility.yul\":5062:5204   */\n  swap2\n  swap1\n  pop\n  jump\t// out\n    /* \"#utility.yul\":5210:5285   */\ntag_32:\n    /* \"#utility.yul\":5253:5256   */\n  0x00\n    /* \"#utility.yul\":5274:5279   */\n  dup2\n    /* \"#utility.yul\":5267:5279   */\n  swap1\n  pop\n    /* \"#utility.yul\":5210:5285   */\n  swap2\n  swap1\n  pop\n  jump\t// out\n    /* \"#utility.yul\":5291:5560   */\ntag_33:\n    /* \"#utility.yul\":5401:5440   */\n  tag_103\n    /* \"#utility.yul\":5432:5439   */\n  dup4\n    /* \"#utility.yul\":5401:5440   */\n  tag_31\n  jump\t// in\ntag_103:\n    /* \"#utility.yul\":5462:5553   */\n  tag_104\n    /* \"#utility.yul\":5511:5552   */\n  tag_105\n    /* \"#utility.yul\":5535:5551   */\n  dup3\n    /* \"#utility.yul\":5511:5552   */\n  tag_32\n  jump\t// in\ntag_105:\n    /* \"#utility.yul\":5503:5509   */\n  dup5\n    /* \"#utility.yul\":5496:5500   */\n  dup5\n    /* \"#utility.yul\":5490:5501   */\n  sload\n    /* \"#utility.yul\":5462:5553   */\n  tag_28\n  jump\t// in\ntag_104:\n    /* \"#utility.yul\":5456:5460   */\n  dup3\n    /* \"#utility.yul\":5449:5554   */\n  sstore\n    /* \"#utility.yul\":5367:5560   */\n  pop\n    /* \"#utility.yul\":5291:5560   */\n  pop\n  pop\n  pop\n  jump\t// out\n    /* \"#utility.yul\":5566:5639   */\ntag_34:\n    /* \"#utility.yul\":5611:5614   */\n  0x00\n    /* \"#utility.yul\":5566:5639   */\n  swap1\n  jump\t// out\n    /* \"#utility.yul\":5645:5834   */\ntag_35:\n    /* \"#utility.yul\":5722:5754   */\n  tag_108\n  tag_34\n  jump\t// in\ntag_108:\n    /* \"#utility.yul\":5763:5828   */\n  tag_109\n    /* \"#utility.yul\":5821:5827   */\n  dup2\n    /* \"#utility.yul\":5813:5819   */\n  dup5\n    /* \"#utility.yul\":5807:5811   */\n  dup5\n    /* \"#utility.yul\":5763:5828   */\n  tag_33\n  jump\t// in\ntag_109:\n    /* \"#utility.yul\":5698:5834   */\n  pop\n    /* \"#utility.yul\":5645:5834   */\n  pop\n  pop\n  jump\t// out\n    /* \"#utility.yul\":5840:6026   */\ntag_36:\n    /* \"#utility.yul\":5900:6020   */\ntag_111:\n    /* \"#utility.yul\":5917:5920   */\n  dup2\n    /* \"#utility.yul\":5910:5915   */\n  dup2\n    /* \"#utility.yul\":5907:5921   */\n  lt\n    /* \"#utility.yul\":5900:6020   */\n  iszero\n  tag_113\n  jumpi\n    /* \"#utility.yul\":5971:6010   */\n  tag_114\n    /* \"#utility.yul\":6008:6009   */\n  0x00\n    /* \"#utility.yul\":6001:6006   */\n  dup3\n    /* \"#utility.yul\":5971:6010   */\n  tag_35\n  jump\t// in\ntag_114:\n    /* \"#utility.yul\":5944:5945   */\n  0x01\n    /* \"#utility.yul\":5937:5942   */\n  dup2\n    /* \"#utility.yul\":5933:5946   */\n  add\n    /* \"#utility.yul\":5924:5946   */\n  swap1\n  pop\n    /* \"#utility.yul\":5900:6020   */\n  jump(tag_111)\ntag_113:\n    /* \"#utility.yul\":5840:6026   */\n  pop\n  pop\n  jump\t// out\n    /* \"#utility.yul\":6032:6575   */\ntag_37:\n    /* \"#utility.yul\":6133:6135   */\n  0x1f\n    /* \"#utility.yul\":6128:6131   */\n  dup3\n    /* \"#utility.yul\":6125:6136   */\n  gt\n    /* \"#utility.yul\":6122:6568   */\n  iszero\n  tag_116\n  jumpi\n    /* \"#utility.yul\":6167:6205   */\n  tag_117\n    /* \"#utility.yul\":6199:6204   */\n  dup2\n    /* \"#utility.yul\":6167:6205   */\n  tag_25\n  jump\t// in\ntag_117:\n    /* \"#utility.yul\":6251:6280   */\n  tag_118\n    /* \"#utility.yul\":6269:6279   */\n  dup5\n    /* \"#utility.yul\":6251:6280   */\n  tag_26\n  jump\t// in\ntag_118:\n    /* \"#utility.yul\":6241:6249   */\n  dup2\n    /* \"#utility.yul\":6237:6281   */\n  add\n    /* \"#utility.yul\":6434:6436   */\n  0x20\n    /* \"#utility.yul\":6422:6432   */\n  dup6\n    /* \"#utility.yul\":6419:6437   */\n  lt\n    /* \"#utility.yul\":6416:6465   */\n  iszero\n  tag_119\n  jumpi\n    /* \"#utility.yul\":6455:6463   */\n  dup2\n    /* \"#utility.yul\":6440:6463   */\n  swap1\n  pop\n    /* \"#utility.yul\":6416:6465   */\ntag_119:\n    /* \"#utility.yul\":6478:6558   */\n  tag_120\n    /* \"#utility.yul\":6534:6556   */\n  tag_121\n    /* \"#utility.yul\":6552:6555   */\n  dup6\n    /* \"#utility.yul\":6534:6556   */\n  tag_26\n  jump\t// in\ntag_121:\n    /* \"#utility.yul\":6524:6532   */\n  dup4\n    /* \"#utility.yul\":6520:6557   */\n  add\n    /* \"#utility.yul\":6507:6518   */\n  dup3\n    /* \"#utility.yul\":6478:6558   */\n  tag_36\n  jump\t// in\ntag_120:\n    /* \"#utility.yul\":6137:6568   */\n  pop\n  pop\n    /* \"#utility.yul\":6122:6568   */\ntag_116:\n    /* \"#utility.yul\":6032:6575   */\n  pop\n  pop\n  pop\n  jump\t// out\n    /* \"#utility.yul\":6581:6698   */\ntag_38:\n    /* \"#utility.yul\":6635:6643   */\n  0x00\n    /* \"#utility.yul\":6685:6690   */\n  dup3\n    /* \"#utility.yul\":6679:6683   */\n  dup3\n    /* \"#utility.yul\":6675:6691   */\n  shr\n    /* \"#utility.yul\":6654:6691   */\n  swap1\n  pop\n    /* \"#utility.yul\":6581:6698   */\n  swap3\n  swap2\n  pop\n  pop\n  jump\t// out\n    /* \"#utility.yul\":6704:6873   */\ntag_39:\n    /* \"#utility.yul\":6748:6754   */\n  0x00\n    /* \"#utility.yul\":6781:6832   */\n  tag_124\n    /* \"#utility.yul\":6829:6830   */\n  0x00\n    /* \"#utility.yul\":6825:6831   */\n  not\n    /* \"#utility.yul\":6817:6822   */\n  dup5\n    /* \"#utility.yul\":6814:6815   */\n  0x08\n    /* \"#utility.yul\":6810:6823   */\n  mul\n    /* \"#utility.yul\":6781:6832   */\n  tag_38\n  jump\t// in\ntag_124:\n    /* \"#utility.yul\":6777:6833   */\n  not\n    /* \"#utility.yul\":6862:6866   */\n  dup1\n    /* \"#utility.yul\":6856:6860   */\n  dup4\n    /* \"#utility.yul\":6852:6867   */\n  and\n    /* \"#utility.yul\":6842:6867   */\n  swap2\n  pop\n    /* \"#utility.yul\":6755:6873   */\n  pop\n    /* \"#utility.yul\":6704:6873   */\n  swap3\n  swap2\n  pop\n  pop\n  jump\t// out\n    /* \"#utility.yul\":6878:7173   */\ntag_40:\n    /* \"#utility.yul\":6954:6958   */\n  0x00\n    /* \"#utility.yul\":7100:7129   */\n  tag_126\n    /* \"#utility.yul\":7125:7128   */\n  dup4\n    /* \"#utility.yul\":7119:7123   */\n  dup4\n    /* \"#utility.yul\":7100:7129   */\n  tag_39\n  jump\t// in\ntag_126:\n    /* \"#utility.yul\":7092:7129   */\n  swap2\n  pop\n    /* \"#utility.yul\":7162:7165   */\n  dup3\n    /* \"#utility.yul\":7159:7160   */\n  0x02\n    /* \"#utility.yul\":7155:7166   */\n  mul\n    /* \"#utility.yul\":7149:7153   */\n  dup3\n    /* \"#utility.yul\":7146:7167   */\n  or\n    /* \"#utility.yul\":7138:7167   */\n  swap1\n  pop\n    /* \"#utility.yul\":6878:7173   */\n  swap3\n  swap2\n  pop\n  pop\n  jump\t// out\n    /* \"#utility.yul\":7178:8573   */\ntag_6:\n    /* \"#utility.yul\":7295:7332   */\n  tag_128\n    /* \"#utility.yul\":7328:7331   */\n  dup3\n    /* \"#utility.yul\":7295:7332   */\n  tag_22\n  jump\t// in\ntag_128:\n    /* \"#utility.yul\":7397:7415   */\n  0xffffffffffffffff\n    /* \"#utility.yul\":7389:7395   */\n  dup2\n    /* \"#utility.yul\":7386:7416   */\n  gt\n    /* \"#utility.yul\":7383:7439   */\n  iszero\n  tag_129\n  jumpi\n    /* \"#utility.yul\":7419:7437   */\n  tag_130\n  tag_15\n  jump\t// in\ntag_130:\n    /* \"#utility.yul\":7383:7439   */\ntag_129:\n    /* \"#utility.yul\":7463:7501   */\n  tag_131\n    /* \"#utility.yul\":7495:7499   */\n  dup3\n    /* \"#utility.yul\":7489:7500   */\n  sload\n    /* \"#utility.yul\":7463:7501   */\n  tag_24\n  jump\t// in\ntag_131:\n    /* \"#utility.yul\":7548:7615   */\n  tag_132\n    /* \"#utility.yul\":7608:7614   */\n  dup3\n    /* \"#utility.yul\":7600:7606   */\n  dup3\n    /* \"#utility.yul\":7594:7598   */\n  dup6\n    /* \"#utility.yul\":7548:7615   */\n  tag_37\n  jump\t// in\ntag_132:\n    /* \"#utility.yul\":7642:7643   */\n  0x00\n    /* \"#utility.yul\":7666:7670   */\n  0x20\n    /* \"#utility.yul\":7653:7670   */\n  swap1\n  pop\n    /* \"#utility.yul\":7698:7700   */\n  0x1f\n    /* \"#utility.yul\":7690:7696   */\n  dup4\n    /* \"#utility.yul\":7687:7701   */\n  gt\n    /* \"#utility.yul\":7715:7716   */\n  0x01\n    /* \"#utility.yul\":7710:8328   */\n  dup2\n  eq\n  tag_134\n  jumpi\n    /* \"#utility.yul\":8372:8373   */\n  0x00\n    /* \"#utility.yul\":8389:8395   */\n  dup5\n    /* \"#utility.yul\":8386:8463   */\n  iszero\n  tag_135\n  jumpi\n    /* \"#utility.yul\":8438:8447   */\n  dup3\n    /* \"#utility.yul\":8433:8436   */\n  dup8\n    /* \"#utility.yul\":8429:8448   */\n  add\n    /* \"#utility.yul\":8423:8449   */\n  mload\n    /* \"#utility.yul\":8414:8449   */\n  swap1\n  pop\n    /* \"#utility.yul\":8386:8463   */\ntag_135:\n    /* \"#utility.yul\":8489:8556   */\n  tag_136\n    /* \"#utility.yul\":8549:8555   */\n  dup6\n    /* \"#utility.yul\":8542:8547   */\n  dup3\n    /* \"#utility.yul\":8489:8556   */\n  tag_40\n  jump\t// in\ntag_136:\n    /* \"#utility.yul\":8483:8487   */\n  dup7\n    /* \"#utility.yul\":8476:8557   */\n  sstore\n    /* \"#utility.yul\":8345:8567   */\n  pop\n    /* \"#utility.yul\":7680:8567   */\n  jump(tag_133)\n    /* \"#utility.yul\":7710:8328   */\ntag_134:\n    /* \"#utility.yul\":7762:7766   */\n  0x1f\n    /* \"#utility.yul\":7758:7767   */\n  not\n    /* \"#utility.yul\":7750:7756   */\n  dup5\n    /* \"#utility.yul\":7746:7768   */\n  and\n    /* \"#utility.yul\":7796:7833   */\n  tag_137\n    /* \"#utility.yul\":7828:7832   */\n  dup7\n    /* \"#utility.yul\":7796:7833   */\n  tag_25\n  jump\t// in\ntag_137:\n    /* \"#utility.yul\":7855:7856   */\n  0x00\n    /* \"#utility.yul\":7869:8077   */\ntag_138:\n    /* \"#utility.yul\":7883:7890   */\n  dup3\n    /* \"#utility.yul\":7880:7881   */\n  dup2\n    /* \"#utility.yul\":7877:7891   */\n  lt\n    /* \"#utility.yul\":7869:8077   */\n  iszero\n  tag_140\n  jumpi\n    /* \"#utility.yul\":7962:7971   */\n  dup5\n    /* \"#utility.yul\":7957:7960   */\n  dup10\n    /* \"#utility.yul\":7953:7972   */\n  add\n    /* \"#utility.yul\":7947:7973   */\n  mload\n    /* \"#utility.yul\":7939:7945   */\n  dup3\n    /* \"#utility.yul\":7932:7974   */\n  sstore\n    /* \"#utility.yul\":8013:8014   */\n  0x01\n    /* \"#utility.yul\":8005:8011   */\n  dup3\n    /* \"#utility.yul\":8001:8015   */\n  add\n    /* \"#utility.yul\":7991:8015   */\n  swap2\n  pop\n    /* \"#utility.yul\":8060:8062   */\n  0x20\n    /* \"#utility.yul\":8049:8058   */\n  dup6\n    /* \"#utility.yul\":8045:8063   */\n  add\n    /* \"#utility.yul\":8032:8063   */\n  swap5\n  pop\n    /* \"#utility.yul\":7906:7910   */\n  0x20\n    /* \"#utility.yul\":7903:7904   */\n  dup2\n    /* \"#utility.yul\":7899:7911   */\n  add\n    /* \"#utility.yul\":7894:7911   */\n  swap1\n  pop\n    /* \"#utility.yul\":7869:8077   */\n  jump(tag_138)\ntag_140:\n    /* \"#utility.yul\":8105:8111   */\n  dup7\n    /* \"#utility.yul\":8096:8103   */\n  dup4\n    /* \"#utility.yul\":8093:8112   */\n  lt\n    /* \"#utility.yul\":8090:8269   */\n  iszero\n  tag_141\n  jumpi\n    /* \"#utility.yul\":8163:8172   */\n  dup5\n    /* \"#utility.yul\":8158:8161   */\n  dup10\n    /* \"#utility.yul\":8154:8173   */\n  add\n    /* \"#utility.yul\":8148:8174   */\n  mload\n    /* \"#utility.yul\":8206:8254   */\n  tag_142\n    /* \"#utility.yul\":8248:8252   */\n  0x1f\n    /* \"#utility.yul\":8240:8246   */\n  dup10\n    /* \"#utility.yul\":8236:8253   */\n  and\n    /* \"#utility.yul\":8225:8234   */\n  dup3\n    /* \"#utility.yul\":8206:8254   */\n  tag_39\n  jump\t// in\ntag_142:\n    /* \"#utility.yul\":8198:8204   */\n  dup4\n    /* \"#utility.yul\":8191:8255   */\n  sstore\n    /* \"#utility.yul\":8113:8269   */\n  pop\n    /* \"#utility.yul\":8090:8269   */\ntag_141:\n    /* \"#utility.yul\":8315:8316   */\n  0x01\n    /* \"#utility.yul\":8311:8312   */\n  0x02\n    /* \"#utility.yul\":8303:8309   */\n  dup9\n    /* \"#utility.yul\":8299:8313   */\n  mul\n    /* \"#utility.yul\":8295:8317   */\n  add\n    /* \"#utility.yul\":8289:8293   */\n  dup9\n    /* \"#utility.yul\":8282:8318   */\n  sstore\n    /* \"#utility.yul\":7717:8328   */\n  pop\n  pop\n  pop\n    /* \"#utility.yul\":7680:8567   */\ntag_133:\n  pop\n    /* \"#utility.yul\":7270:8573   */\n  pop\n  pop\n  pop\n    /* \"#utility.yul\":7178:8573   */\n  pop\n  pop\n  jump\t// out\n    /* \"contracts/31_Erc20.sol\":1302:2863  contract ERC20 is IERC20{... */\ntag_8:\n  dataSize(sub_0)\n  dup1\n  dataOffset(sub_0)\n  0x00\n  codecopy\n  0x00\n  return\nstop\n\nsub_0: assembly {\n        /* \"contracts/31_Erc20.sol\":1302:2863  contract ERC20 is IERC20{... */\n      mstore(0x40, 0x80)\n      callvalue\n      dup1\n      iszero\n      tag_1\n      jumpi\n      0x00\n      dup1\n      revert\n    tag_1:\n      pop\n      jumpi(tag_2, lt(calldatasize, 0x04))\n      shr(0xe0, calldataload(0x00))\n      dup1\n      0x42966c68\n      gt\n      tag_14\n      jumpi\n      dup1\n      0x42966c68\n      eq\n      tag_8\n      jumpi\n      dup1\n      0x70a08231\n      eq\n      tag_9\n      jumpi\n      dup1\n      0x95d89b41\n      eq\n      tag_10\n      jumpi\n      dup1\n      0xa0712d68\n      eq\n      tag_11\n      jumpi\n      dup1\n      0xa9059cbb\n      eq\n      tag_12\n      jumpi\n      dup1\n      0xdd62ed3e\n      eq\n      tag_13\n      jumpi\n      jump(tag_2)\n    tag_14:\n      dup1\n      0x06fdde03\n      eq\n      tag_3\n      jumpi\n      dup1\n      0x095ea7b3\n      eq\n      tag_4\n      jumpi\n      dup1\n      0x18160ddd\n      eq\n      tag_5\n      jumpi\n      dup1\n      0x23b872dd\n      eq\n      tag_6\n      jumpi\n      dup1\n      0x313ce567\n      eq\n      tag_7\n      jumpi\n    tag_2:\n      0x00\n      dup1\n      revert\n        /* \"contracts/31_Erc20.sol\":1528:1546  string public name */\n    tag_3:\n      tag_15\n      tag_16\n      jump\t// in\n    tag_15:\n      mload(0x40)\n      tag_17\n      swap2\n      swap1\n      tag_18\n      jump\t// in\n    tag_17:\n      mload(0x40)\n      dup1\n      swap2\n      sub\n      swap1\n      return\n        /* \"contracts/31_Erc20.sol\":1988:2195  function approve(address spender, uint amount) external override returns(bool){... */\n    tag_4:\n      tag_19\n      0x04\n      dup1\n      calldatasize\n      sub\n      dup2\n      add\n      swap1\n      tag_20\n      swap2\n      swap1\n      tag_21\n      jump\t// in\n    tag_20:\n      tag_22\n      jump\t// in\n    tag_19:\n      mload(0x40)\n      tag_23\n      swap2\n      swap1\n      tag_24\n      jump\t// in\n    tag_23:\n      mload(0x40)\n      dup1\n      swap2\n      sub\n      swap1\n      return\n        /* \"contracts/31_Erc20.sol\":1487:1522  uint256 public override totalSupply */\n    tag_5:\n      tag_25\n      tag_26\n      jump\t// in\n    tag_25:\n      mload(0x40)\n      tag_27\n      swap2\n      swap1\n      tag_28\n      jump\t// in\n    tag_27:\n      mload(0x40)\n      dup1\n      swap2\n      sub\n      swap1\n      return\n        /* \"contracts/31_Erc20.sol\":2201:2510  function transferFrom(address sender, address recipient, uint256 amount) external override returns(bool){... */\n    tag_6:\n      tag_29\n      0x04\n      dup1\n      calldatasize\n      sub\n      dup2\n      add\n      swap1\n      tag_30\n      swap2\n      swap1\n      tag_31\n      jump\t// in\n    tag_30:\n      tag_32\n      jump\t// in\n    tag_29:\n      mload(0x40)\n      tag_33\n      swap2\n      swap1\n      tag_24\n      jump\t// in\n    tag_33:\n      mload(0x40)\n      dup1\n      swap2\n      sub\n      swap1\n      return\n        /* \"contracts/31_Erc20.sol\":1578:1604  uint8 public decimals = 18 */\n    tag_7:\n      tag_34\n      tag_35\n      jump\t// in\n    tag_34:\n      mload(0x40)\n      tag_36\n      swap2\n      swap1\n      tag_37\n      jump\t// in\n    tag_36:\n      mload(0x40)\n      dup1\n      swap2\n      sub\n      swap1\n      return\n        /* \"contracts/31_Erc20.sol\":2691:2861  function burn(uint amount) external {... */\n    tag_8:\n      tag_38\n      0x04\n      dup1\n      calldatasize\n      sub\n      dup2\n      add\n      swap1\n      tag_39\n      swap2\n      swap1\n      tag_40\n      jump\t// in\n    tag_39:\n      tag_41\n      jump\t// in\n    tag_38:\n      stop\n        /* \"contracts/31_Erc20.sol\":1332:1383  mapping(address=>uint256) public override balanceOf */\n    tag_9:\n      tag_42\n      0x04\n      dup1\n      calldatasize\n      sub\n      dup2\n      add\n      swap1\n      tag_43\n      swap2\n      swap1\n      tag_44\n      jump\t// in\n    tag_43:\n      tag_45\n      jump\t// in\n    tag_42:\n      mload(0x40)\n      tag_46\n      swap2\n      swap1\n      tag_28\n      jump\t// in\n    tag_46:\n      mload(0x40)\n      dup1\n      swap2\n      sub\n      swap1\n      return\n        /* \"contracts/31_Erc20.sol\":1552:1572  string public symbol */\n    tag_10:\n      tag_47\n      tag_48\n      jump\t// in\n    tag_47:\n      mload(0x40)\n      tag_49\n      swap2\n      swap1\n      tag_18\n      jump\t// in\n    tag_49:\n      mload(0x40)\n      dup1\n      swap2\n      sub\n      swap1\n      return\n        /* \"contracts/31_Erc20.sol\":2516:2685  function mint(uint amount) external {... */\n    tag_11:\n      tag_50\n      0x04\n      dup1\n      calldatasize\n      sub\n      dup2\n      add\n      swap1\n      tag_51\n      swap2\n      swap1\n      tag_40\n      jump\t// in\n    tag_51:\n      tag_52\n      jump\t// in\n    tag_50:\n      stop\n        /* \"contracts/31_Erc20.sol\":1737:1982  function transfer(address recipient, uint amount) external override returns (bool){... */\n    tag_12:\n      tag_53\n      0x04\n      dup1\n      calldatasize\n      sub\n      dup2\n      add\n      swap1\n      tag_54\n      swap2\n      swap1\n      tag_21\n      jump\t// in\n    tag_54:\n      tag_55\n      jump\t// in\n    tag_53:\n      mload(0x40)\n      tag_56\n      swap2\n      swap1\n      tag_24\n      jump\t// in\n    tag_56:\n      mload(0x40)\n      dup1\n      swap2\n      sub\n      swap1\n      return\n        /* \"contracts/31_Erc20.sol\":1389:1458  mapping(address=>mapping(address=>uint256)) public override allowance */\n    tag_13:\n      tag_57\n      0x04\n      dup1\n      calldatasize\n      sub\n      dup2\n      add\n      swap1\n      tag_58\n      swap2\n      swap1\n      tag_59\n      jump\t// in\n    tag_58:\n      tag_60\n      jump\t// in\n    tag_57:\n      mload(0x40)\n      tag_61\n      swap2\n      swap1\n      tag_28\n      jump\t// in\n    tag_61:\n      mload(0x40)\n      dup1\n      swap2\n      sub\n      swap1\n      return\n        /* \"contracts/31_Erc20.sol\":1528:1546  string public name */\n    tag_16:\n      0x03\n      dup1\n      sload\n      tag_62\n      swap1\n      tag_63\n      jump\t// in\n    tag_62:\n      dup1\n      0x1f\n      add\n      0x20\n      dup1\n      swap2\n      div\n      mul\n      0x20\n      add\n      mload(0x40)\n      swap1\n      dup2\n      add\n      0x40\n      mstore\n      dup1\n      swap3\n      swap2\n      swap1\n      dup2\n      dup2\n      mstore\n      0x20\n      add\n      dup3\n      dup1\n      sload\n      tag_64\n      swap1\n      tag_63\n      jump\t// in\n    tag_64:\n      dup1\n      iszero\n      tag_65\n      jumpi\n      dup1\n      0x1f\n      lt\n      tag_66\n      jumpi\n      0x0100\n      dup1\n      dup4\n      sload\n      div\n      mul\n      dup4\n      mstore\n      swap2\n      0x20\n      add\n      swap2\n      jump(tag_65)\n    tag_66:\n      dup3\n      add\n      swap2\n      swap1\n      0x00\n      mstore\n      keccak256(0x00, 0x20)\n      swap1\n    tag_67:\n      dup2\n      sload\n      dup2\n      mstore\n      swap1\n      0x01\n      add\n      swap1\n      0x20\n      add\n      dup1\n      dup4\n      gt\n      tag_67\n      jumpi\n      dup3\n      swap1\n      sub\n      0x1f\n      and\n      dup3\n      add\n      swap2\n    tag_65:\n      pop\n      pop\n      pop\n      pop\n      pop\n      dup2\n      jump\t// out\n        /* \"contracts/31_Erc20.sol\":1988:2195  function approve(address spender, uint amount) external override returns(bool){... */\n    tag_22:\n        /* \"contracts/31_Erc20.sol\":2061:2065  bool */\n      0x00\n        /* \"contracts/31_Erc20.sol\":2109:2115  amount */\n      dup2\n        /* \"contracts/31_Erc20.sol\":2076:2085  allowance */\n      0x01\n        /* \"contracts/31_Erc20.sol\":2076:2097  allowance[msg.sender] */\n      0x00\n        /* \"contracts/31_Erc20.sol\":2086:2096  msg.sender */\n      caller\n        /* \"contracts/31_Erc20.sol\":2076:2097  allowance[msg.sender] */\n      0xffffffffffffffffffffffffffffffffffffffff\n      and\n      0xffffffffffffffffffffffffffffffffffffffff\n      and\n      dup2\n      mstore\n      0x20\n      add\n      swap1\n      dup2\n      mstore\n      0x20\n      add\n      0x00\n      keccak256\n        /* \"contracts/31_Erc20.sol\":2076:2106  allowance[msg.sender][spender] */\n      0x00\n        /* \"contracts/31_Erc20.sol\":2098:2105  spender */\n      dup6\n        /* \"contracts/31_Erc20.sol\":2076:2106  allowance[msg.sender][spender] */\n      0xffffffffffffffffffffffffffffffffffffffff\n      and\n      0xffffffffffffffffffffffffffffffffffffffff\n      and\n      dup2\n      mstore\n      0x20\n      add\n      swap1\n      dup2\n      mstore\n      0x20\n      add\n      0x00\n      keccak256\n        /* \"contracts/31_Erc20.sol\":2076:2115  allowance[msg.sender][spender] = amount */\n      dup2\n      swap1\n      sstore\n      pop\n        /* \"contracts/31_Erc20.sol\":2151:2158  spender */\n      dup3\n        /* \"contracts/31_Erc20.sol\":2130:2167  Approval(msg.sender, spender, amount) */\n      0xffffffffffffffffffffffffffffffffffffffff\n      and\n        /* \"contracts/31_Erc20.sol\":2139:2149  msg.sender */\n      caller\n        /* \"contracts/31_Erc20.sol\":2130:2167  Approval(msg.sender, spender, amount) */\n      0xffffffffffffffffffffffffffffffffffffffff\n      and\n      0x8c5be1e5ebec7d5bd14f71427d1e84f3dd0314c0f7b2291e5b200ac8c7c3b925\n        /* \"contracts/31_Erc20.sol\":2160:2166  amount */\n      dup5\n        /* \"contracts/31_Erc20.sol\":2130:2167  Approval(msg.sender, spender, amount) */\n      mload(0x40)\n      tag_69\n      swap2\n      swap1\n      tag_28\n      jump\t// in\n    tag_69:\n      mload(0x40)\n      dup1\n      swap2\n      sub\n      swap1\n      log3\n        /* \"contracts/31_Erc20.sol\":2184:2188  true */\n      0x01\n        /* \"contracts/31_Erc20.sol\":2177:2188  return true */\n      swap1\n      pop\n        /* \"contracts/31_Erc20.sol\":1988:2195  function approve(address spender, uint amount) external override returns(bool){... */\n      swap3\n      swap2\n      pop\n      pop\n      jump\t// out\n        /* \"contracts/31_Erc20.sol\":1487:1522  uint256 public override totalSupply */\n    tag_26:\n      sload(0x02)\n      dup2\n      jump\t// out\n        /* \"contracts/31_Erc20.sol\":2201:2510  function transferFrom(address sender, address recipient, uint256 amount) external override returns(bool){... */\n    tag_32:\n        /* \"contracts/31_Erc20.sol\":2300:2304  bool */\n      0x00\n        /* \"contracts/31_Erc20.sol\":2348:2354  amount */\n      dup2\n        /* \"contracts/31_Erc20.sol\":2315:2324  allowance */\n      0x01\n        /* \"contracts/31_Erc20.sol\":2315:2332  allowance[sender] */\n      0x00\n        /* \"contracts/31_Erc20.sol\":2325:2331  sender */\n      dup7\n        /* \"contracts/31_Erc20.sol\":2315:2332  allowance[sender] */\n      0xffffffffffffffffffffffffffffffffffffffff\n      and\n      0xffffffffffffffffffffffffffffffffffffffff\n      and\n      dup2\n      mstore\n      0x20\n      add\n      swap1\n      dup2\n      mstore\n      0x20\n      add\n      0x00\n      keccak256\n        /* \"contracts/31_Erc20.sol\":2315:2344  allowance[sender][msg.sender] */\n      0x00\n        /* \"contracts/31_Erc20.sol\":2333:2343  msg.sender */\n      caller\n        /* \"contracts/31_Erc20.sol\":2315:2344  allowance[sender][msg.sender] */\n      0xffffffffffffffffffffffffffffffffffffffff\n      and\n      0xffffffffffffffffffffffffffffffffffffffff\n      and\n      dup2\n      mstore\n      0x20\n      add\n      swap1\n      dup2\n      mstore\n      0x20\n      add\n      0x00\n      keccak256\n      0x00\n        /* \"contracts/31_Erc20.sol\":2315:2354  allowance[sender][msg.sender] -= amount */\n      dup3\n      dup3\n      sload\n      tag_71\n      swap2\n      swap1\n      tag_72\n      jump\t// in\n    tag_71:\n      swap3\n      pop\n      pop\n      dup2\n      swap1\n      sstore\n      pop\n        /* \"contracts/31_Erc20.sol\":2385:2391  amount */\n      dup2\n        /* \"contracts/31_Erc20.sol\":2364:2373  balanceOf */\n      0x00\n        /* \"contracts/31_Erc20.sol\":2364:2381  balanceOf[sender] */\n      dup1\n        /* \"contracts/31_Erc20.sol\":2374:2380  sender */\n      dup7\n        /* \"contracts/31_Erc20.sol\":2364:2381  balanceOf[sender] */\n      0xffffffffffffffffffffffffffffffffffffffff\n      and\n      0xffffffffffffffffffffffffffffffffffffffff\n      and\n      dup2\n      mstore\n      0x20\n      add\n      swap1\n      dup2\n      mstore\n      0x20\n      add\n      0x00\n      keccak256\n      0x00\n        /* \"contracts/31_Erc20.sol\":2364:2391  balanceOf[sender] -= amount */\n      dup3\n      dup3\n      sload\n      tag_73\n      swap2\n      swap1\n      tag_72\n      jump\t// in\n    tag_73:\n      swap3\n      pop\n      pop\n      dup2\n      swap1\n      sstore\n      pop\n        /* \"contracts/31_Erc20.sol\":2425:2431  amount */\n      dup2\n        /* \"contracts/31_Erc20.sol\":2401:2410  balanceOf */\n      0x00\n        /* \"contracts/31_Erc20.sol\":2401:2421  balanceOf[recipient] */\n      dup1\n        /* \"contracts/31_Erc20.sol\":2411:2420  recipient */\n      dup6\n        /* \"contracts/31_Erc20.sol\":2401:2421  balanceOf[recipient] */\n      0xffffffffffffffffffffffffffffffffffffffff\n      and\n      0xffffffffffffffffffffffffffffffffffffffff\n      and\n      dup2\n      mstore\n      0x20\n      add\n      swap1\n      dup2\n      mstore\n      0x20\n      add\n      0x00\n      keccak256\n      0x00\n        /* \"contracts/31_Erc20.sol\":2401:2431  balanceOf[recipient] += amount */\n      dup3\n      dup3\n      sload\n      tag_74\n      swap2\n      swap1\n      tag_75\n      jump\t// in\n    tag_74:\n      swap3\n      pop\n      pop\n      dup2\n      swap1\n      sstore\n      pop\n        /* \"contracts/31_Erc20.sol\":2464:2473  recipient */\n      dup3\n        /* \"contracts/31_Erc20.sol\":2447:2482  Transfer(sender, recipient, amount) */\n      0xffffffffffffffffffffffffffffffffffffffff\n      and\n        /* \"contracts/31_Erc20.sol\":2456:2462  sender */\n      dup5\n        /* \"contracts/31_Erc20.sol\":2447:2482  Transfer(sender, recipient, amount) */\n      0xffffffffffffffffffffffffffffffffffffffff\n      and\n      0xddf252ad1be2c89b69c2b068fc378daa952ba7f163c4a11628f55a4df523b3ef\n        /* \"contracts/31_Erc20.sol\":2475:2481  amount */\n      dup5\n        /* \"contracts/31_Erc20.sol\":2447:2482  Transfer(sender, recipient, amount) */\n      mload(0x40)\n      tag_76\n      swap2\n      swap1\n      tag_28\n      jump\t// in\n    tag_76:\n      mload(0x40)\n      dup1\n      swap2\n      sub\n      swap1\n      log3\n        /* \"contracts/31_Erc20.sol\":2499:2503  true */\n      0x01\n        /* \"contracts/31_Erc20.sol\":2492:2503  return true */\n      swap1\n      pop\n        /* \"contracts/31_Erc20.sol\":2201:2510  function transferFrom(address sender, address recipient, uint256 amount) external override returns(bool){... */\n      swap4\n      swap3\n      pop\n      pop\n      pop\n      jump\t// out\n        /* \"contracts/31_Erc20.sol\":1578:1604  uint8 public decimals = 18 */\n    tag_35:\n      0x05\n      0x00\n      swap1\n      sload\n      swap1\n      0x0100\n      exp\n      swap1\n      div\n      0xff\n      and\n      dup2\n      jump\t// out\n        /* \"contracts/31_Erc20.sol\":2691:2861  function burn(uint amount) external {... */\n    tag_41:\n        /* \"contracts/31_Erc20.sol\":2762:2768  amount */\n      dup1\n        /* \"contracts/31_Erc20.sol\":2737:2746  balanceOf */\n      0x00\n        /* \"contracts/31_Erc20.sol\":2737:2758  balanceOf[msg.sender] */\n      dup1\n        /* \"contracts/31_Erc20.sol\":2747:2757  msg.sender */\n      caller\n        /* \"contracts/31_Erc20.sol\":2737:2758  balanceOf[msg.sender] */\n      0xffffffffffffffffffffffffffffffffffffffff\n      and\n      0xffffffffffffffffffffffffffffffffffffffff\n      and\n      dup2\n      mstore\n      0x20\n      add\n      swap1\n      dup2\n      mstore\n      0x20\n      add\n      0x00\n      keccak256\n      0x00\n        /* \"contracts/31_Erc20.sol\":2737:2768  balanceOf[msg.sender] -= amount */\n      dup3\n      dup3\n      sload\n      tag_78\n      swap2\n      swap1\n      tag_72\n      jump\t// in\n    tag_78:\n      swap3\n      pop\n      pop\n      dup2\n      swap1\n      sstore\n      pop\n        /* \"contracts/31_Erc20.sol\":2793:2799  amount */\n      dup1\n        /* \"contracts/31_Erc20.sol\":2778:2789  totalSupply */\n      0x02\n      0x00\n        /* \"contracts/31_Erc20.sol\":2778:2799  totalSupply -= amount */\n      dup3\n      dup3\n      sload\n      tag_79\n      swap2\n      swap1\n      tag_72\n      jump\t// in\n    tag_79:\n      swap3\n      pop\n      pop\n      dup2\n      swap1\n      sstore\n      pop\n        /* \"contracts/31_Erc20.sol\":2843:2844  0 */\n      0x00\n        /* \"contracts/31_Erc20.sol\":2814:2854  Transfer(msg.sender, address(0), amount) */\n      0xffffffffffffffffffffffffffffffffffffffff\n      and\n        /* \"contracts/31_Erc20.sol\":2823:2833  msg.sender */\n      caller\n        /* \"contracts/31_Erc20.sol\":2814:2854  Transfer(msg.sender, address(0), amount) */\n      0xffffffffffffffffffffffffffffffffffffffff\n      and\n      0xddf252ad1be2c89b69c2b068fc378daa952ba7f163c4a11628f55a4df523b3ef\n        /* \"contracts/31_Erc20.sol\":2847:2853  amount */\n      dup4\n        /* \"contracts/31_Erc20.sol\":2814:2854  Transfer(msg.sender, address(0), amount) */\n      mload(0x40)\n      tag_80\n      swap2\n      swap1\n      tag_28\n      jump\t// in\n    tag_80:\n      mload(0x40)\n      dup1\n      swap2\n      sub\n      swap1\n      log3\n        /* \"contracts/31_Erc20.sol\":2691:2861  function burn(uint amount) external {... */\n      pop\n      jump\t// out\n        /* \"contracts/31_Erc20.sol\":1332:1383  mapping(address=>uint256) public override balanceOf */\n    tag_45:\n      mstore(0x20, 0x00)\n      dup1\n      0x00\n      mstore\n      keccak256(0x00, 0x40)\n      0x00\n      swap2\n      pop\n      swap1\n      pop\n      sload\n      dup2\n      jump\t// out\n        /* \"contracts/31_Erc20.sol\":1552:1572  string public symbol */\n    tag_48:\n      0x04\n      dup1\n      sload\n      tag_81\n      swap1\n      tag_63\n      jump\t// in\n    tag_81:\n      dup1\n      0x1f\n      add\n      0x20\n      dup1\n      swap2\n      div\n      mul\n      0x20\n      add\n      mload(0x40)\n      swap1\n      dup2\n      add\n      0x40\n      mstore\n      dup1\n      swap3\n      swap2\n      swap1\n      dup2\n      dup2\n      mstore\n      0x20\n      add\n      dup3\n      dup1\n      sload\n      tag_82\n      swap1\n      tag_63\n      jump\t// in\n    tag_82:\n      dup1\n      iszero\n      tag_83\n      jumpi\n      dup1\n      0x1f\n      lt\n      tag_84\n      jumpi\n      0x0100\n      dup1\n      dup4\n      sload\n      div\n      mul\n      dup4\n      mstore\n      swap2\n      0x20\n      add\n      swap2\n      jump(tag_83)\n    tag_84:\n      dup3\n      add\n      swap2\n      swap1\n      0x00\n      mstore\n      keccak256(0x00, 0x20)\n      swap1\n    tag_85:\n      dup2\n      sload\n      dup2\n      mstore\n      swap1\n      0x01\n      add\n      swap1\n      0x20\n      add\n      dup1\n      dup4\n      gt\n      tag_85\n      jumpi\n      dup3\n      swap1\n      sub\n      0x1f\n      and\n      dup3\n      add\n      swap2\n    tag_83:\n      pop\n      pop\n      pop\n      pop\n      pop\n      dup2\n      jump\t// out\n        /* \"contracts/31_Erc20.sol\":2516:2685  function mint(uint amount) external {... */\n    tag_52:\n        /* \"contracts/31_Erc20.sol\":2587:2593  amount */\n      dup1\n        /* \"contracts/31_Erc20.sol\":2562:2571  balanceOf */\n      0x00\n        /* \"contracts/31_Erc20.sol\":2562:2583  balanceOf[msg.sender] */\n      dup1\n        /* \"contracts/31_Erc20.sol\":2572:2582  msg.sender */\n      caller\n        /* \"contracts/31_Erc20.sol\":2562:2583  balanceOf[msg.sender] */\n      0xffffffffffffffffffffffffffffffffffffffff\n      and\n      0xffffffffffffffffffffffffffffffffffffffff\n      and\n      dup2\n      mstore\n      0x20\n      add\n      swap1\n      dup2\n      mstore\n      0x20\n      add\n      0x00\n      keccak256\n      0x00\n        /* \"contracts/31_Erc20.sol\":2562:2593  balanceOf[msg.sender] += amount */\n      dup3\n      dup3\n      sload\n      tag_87\n      swap2\n      swap1\n      tag_75\n      jump\t// in\n    tag_87:\n      swap3\n      pop\n      pop\n      dup2\n      swap1\n      sstore\n      pop\n        /* \"contracts/31_Erc20.sol\":2616:2622  amount */\n      dup1\n        /* \"contracts/31_Erc20.sol\":2603:2614  totalSupply */\n      0x02\n      0x00\n        /* \"contracts/31_Erc20.sol\":2603:2622  totalSupply+=amount */\n      dup3\n      dup3\n      sload\n      tag_88\n      swap2\n      swap1\n      tag_75\n      jump\t// in\n    tag_88:\n      swap3\n      pop\n      pop\n      dup2\n      swap1\n      sstore\n      pop\n        /* \"contracts/31_Erc20.sol\":2659:2669  msg.sender */\n      caller\n        /* \"contracts/31_Erc20.sol\":2638:2678  Transfer(address(0), msg.sender, amount) */\n      0xffffffffffffffffffffffffffffffffffffffff\n      and\n        /* \"contracts/31_Erc20.sol\":2655:2656  0 */\n      0x00\n        /* \"contracts/31_Erc20.sol\":2638:2678  Transfer(address(0), msg.sender, amount) */\n      0xffffffffffffffffffffffffffffffffffffffff\n      and\n      0xddf252ad1be2c89b69c2b068fc378daa952ba7f163c4a11628f55a4df523b3ef\n        /* \"contracts/31_Erc20.sol\":2671:2677  amount */\n      dup4\n        /* \"contracts/31_Erc20.sol\":2638:2678  Transfer(address(0), msg.sender, amount) */\n      mload(0x40)\n      tag_89\n      swap2\n      swap1\n      tag_28\n      jump\t// in\n    tag_89:\n      mload(0x40)\n      dup1\n      swap2\n      sub\n      swap1\n      log3\n        /* \"contracts/31_Erc20.sol\":2516:2685  function mint(uint amount) external {... */\n      pop\n      jump\t// out\n        /* \"contracts/31_Erc20.sol\":1737:1982  function transfer(address recipient, uint amount) external override returns (bool){... */\n    tag_55:\n        /* \"contracts/31_Erc20.sol\":1814:1818  bool */\n      0x00\n        /* \"contracts/31_Erc20.sol\":1854:1860  amount */\n      dup2\n        /* \"contracts/31_Erc20.sol\":1829:1838  balanceOf */\n      0x00\n        /* \"contracts/31_Erc20.sol\":1829:1850  balanceOf[msg.sender] */\n      dup1\n        /* \"contracts/31_Erc20.sol\":1839:1849  msg.sender */\n      caller\n        /* \"contracts/31_Erc20.sol\":1829:1850  balanceOf[msg.sender] */\n      0xffffffffffffffffffffffffffffffffffffffff\n      and\n      0xffffffffffffffffffffffffffffffffffffffff\n      and\n      dup2\n      mstore\n      0x20\n      add\n      swap1\n      dup2\n      mstore\n      0x20\n      add\n      0x00\n      keccak256\n      0x00\n        /* \"contracts/31_Erc20.sol\":1829:1860  balanceOf[msg.sender] -= amount */\n      dup3\n      dup3\n      sload\n      tag_91\n      swap2\n      swap1\n      tag_72\n      jump\t// in\n    tag_91:\n      swap3\n      pop\n      pop\n      dup2\n      swap1\n      sstore\n      pop\n        /* \"contracts/31_Erc20.sol\":1894:1900  amount */\n      dup2\n        /* \"contracts/31_Erc20.sol\":1870:1879  balanceOf */\n      0x00\n        /* \"contracts/31_Erc20.sol\":1870:1890  balanceOf[recipient] */\n      dup1\n        /* \"contracts/31_Erc20.sol\":1880:1889  recipient */\n      dup6\n        /* \"contracts/31_Erc20.sol\":1870:1890  balanceOf[recipient] */\n      0xffffffffffffffffffffffffffffffffffffffff\n      and\n      0xffffffffffffffffffffffffffffffffffffffff\n      and\n      dup2\n      mstore\n      0x20\n      add\n      swap1\n      dup2\n      mstore\n      0x20\n      add\n      0x00\n      keccak256\n      0x00\n        /* \"contracts/31_Erc20.sol\":1870:1900  balanceOf[recipient] += amount */\n      dup3\n      dup3\n      sload\n      tag_92\n      swap2\n      swap1\n      tag_75\n      jump\t// in\n    tag_92:\n      swap3\n      pop\n      pop\n      dup2\n      swap1\n      sstore\n      pop\n        /* \"contracts/31_Erc20.sol\":1936:1945  recipient */\n      dup3\n        /* \"contracts/31_Erc20.sol\":1915:1954  Transfer(msg.sender, recipient, amount) */\n      0xffffffffffffffffffffffffffffffffffffffff\n      and\n        /* \"contracts/31_Erc20.sol\":1924:1934  msg.sender */\n      caller\n        /* \"contracts/31_Erc20.sol\":1915:1954  Transfer(msg.sender, recipient, amount) */\n      0xffffffffffffffffffffffffffffffffffffffff\n      and\n      0xddf252ad1be2c89b69c2b068fc378daa952ba7f163c4a11628f55a4df523b3ef\n        /* \"contracts/31_Erc20.sol\":1947:1953  amount */\n      dup5\n        /* \"contracts/31_Erc20.sol\":1915:1954  Transfer(msg.sender, recipient, amount) */\n      mload(0x40)\n      tag_93\n      swap2\n      swap1\n      tag_28\n      jump\t// in\n    tag_93:\n      mload(0x40)\n      dup1\n      swap2\n      sub\n      swap1\n      log3\n        /* \"contracts/31_Erc20.sol\":1971:1975  true */\n      0x01\n        /* \"contracts/31_Erc20.sol\":1964:1975  return true */\n      swap1\n      pop\n        /* \"contracts/31_Erc20.sol\":1737:1982  function transfer(address recipient, uint amount) external override returns (bool){... */\n      swap3\n      swap2\n      pop\n      pop\n      jump\t// out\n        /* \"contracts/31_Erc20.sol\":1389:1458  mapping(address=>mapping(address=>uint256)) public override allowance */\n    tag_60:\n      mstore(0x20, 0x01)\n      dup2\n      0x00\n      mstore\n      mstore(0x20, keccak256(0x00, 0x40))\n      dup1\n      0x00\n      mstore\n      keccak256(0x00, 0x40)\n      0x00\n      swap2\n      pop\n      swap2\n      pop\n      pop\n      sload\n      dup2\n      jump\t// out\n        /* \"#utility.yul\":7:106   */\n    tag_94:\n        /* \"#utility.yul\":59:65   */\n      0x00\n        /* \"#utility.yul\":93:98   */\n      dup2\n        /* \"#utility.yul\":87:99   */\n      mload\n        /* \"#utility.yul\":77:99   */\n      swap1\n      pop\n        /* \"#utility.yul\":7:106   */\n      swap2\n      swap1\n      pop\n      jump\t// out\n        /* \"#utility.yul\":112:281   */\n    tag_95:\n        /* \"#utility.yul\":196:207   */\n      0x00\n        /* \"#utility.yul\":230:236   */\n      dup3\n        /* \"#utility.yul\":225:228   */\n      dup3\n        /* \"#utility.yul\":218:237   */\n      mstore\n        /* \"#utility.yul\":270:274   */\n      0x20\n        /* \"#utility.yul\":265:268   */\n      dup3\n        /* \"#utility.yul\":261:275   */\n      add\n        /* \"#utility.yul\":246:275   */\n      swap1\n      pop\n        /* \"#utility.yul\":112:281   */\n      swap3\n      swap2\n      pop\n      pop\n      jump\t// out\n        /* \"#utility.yul\":287:535   */\n    tag_96:\n        /* \"#utility.yul\":369:370   */\n      0x00\n        /* \"#utility.yul\":379:492   */\n    tag_120:\n        /* \"#utility.yul\":393:399   */\n      dup4\n        /* \"#utility.yul\":390:391   */\n      dup2\n        /* \"#utility.yul\":387:400   */\n      lt\n        /* \"#utility.yul\":379:492   */\n      iszero\n      tag_122\n      jumpi\n        /* \"#utility.yul\":478:479   */\n      dup1\n        /* \"#utility.yul\":473:476   */\n      dup3\n        /* \"#utility.yul\":469:480   */\n      add\n        /* \"#utility.yul\":463:481   */\n      mload\n        /* \"#utility.yul\":459:460   */\n      dup2\n        /* \"#utility.yul\":454:457   */\n      dup5\n        /* \"#utility.yul\":450:461   */\n      add\n        /* \"#utility.yul\":443:482   */\n      mstore\n        /* \"#utility.yul\":415:417   */\n      0x20\n        /* \"#utility.yul\":412:413   */\n      dup2\n        /* \"#utility.yul\":408:418   */\n      add\n        /* \"#utility.yul\":403:418   */\n      swap1\n      pop\n        /* \"#utility.yul\":379:492   */\n      jump(tag_120)\n    tag_122:\n        /* \"#utility.yul\":526:527   */\n      0x00\n        /* \"#utility.yul\":517:523   */\n      dup5\n        /* \"#utility.yul\":512:515   */\n      dup5\n        /* \"#utility.yul\":508:524   */\n      add\n        /* \"#utility.yul\":501:528   */\n      mstore\n        /* \"#utility.yul\":349:535   */\n      pop\n        /* \"#utility.yul\":287:535   */\n      pop\n      pop\n      pop\n      jump\t// out\n        /* \"#utility.yul\":541:643   */\n    tag_97:\n        /* \"#utility.yul\":582:588   */\n      0x00\n        /* \"#utility.yul\":633:635   */\n      0x1f\n        /* \"#utility.yul\":629:636   */\n      not\n        /* \"#utility.yul\":624:626   */\n      0x1f\n        /* \"#utility.yul\":617:622   */\n      dup4\n        /* \"#utility.yul\":613:627   */\n      add\n        /* \"#utility.yul\":609:637   */\n      and\n        /* \"#utility.yul\":599:637   */\n      swap1\n      pop\n        /* \"#utility.yul\":541:643   */\n      swap2\n      swap1\n      pop\n      jump\t// out\n        /* \"#utility.yul\":649:1026   */\n    tag_98:\n        /* \"#utility.yul\":737:740   */\n      0x00\n        /* \"#utility.yul\":765:804   */\n      tag_125\n        /* \"#utility.yul\":798:803   */\n      dup3\n        /* \"#utility.yul\":765:804   */\n      tag_94\n      jump\t// in\n    tag_125:\n        /* \"#utility.yul\":820:891   */\n      tag_126\n        /* \"#utility.yul\":884:890   */\n      dup2\n        /* \"#utility.yul\":879:882   */\n      dup6\n        /* \"#utility.yul\":820:891   */\n      tag_95\n      jump\t// in\n    tag_126:\n        /* \"#utility.yul\":813:891   */\n      swap4\n      pop\n        /* \"#utility.yul\":900:965   */\n      tag_127\n        /* \"#utility.yul\":958:964   */\n      dup2\n        /* \"#utility.yul\":953:956   */\n      dup6\n        /* \"#utility.yul\":946:950   */\n      0x20\n        /* \"#utility.yul\":939:944   */\n      dup7\n        /* \"#utility.yul\":935:951   */\n      add\n        /* \"#utility.yul\":900:965   */\n      tag_96\n      jump\t// in\n    tag_127:\n        /* \"#utility.yul\":990:1019   */\n      tag_128\n        /* \"#utility.yul\":1012:1018   */\n      dup2\n        /* \"#utility.yul\":990:1019   */\n      tag_97\n      jump\t// in\n    tag_128:\n        /* \"#utility.yul\":985:988   */\n      dup5\n        /* \"#utility.yul\":981:1020   */\n      add\n        /* \"#utility.yul\":974:1020   */\n      swap2\n      pop\n        /* \"#utility.yul\":741:1026   */\n      pop\n        /* \"#utility.yul\":649:1026   */\n      swap3\n      swap2\n      pop\n      pop\n      jump\t// out\n        /* \"#utility.yul\":1032:1345   */\n    tag_18:\n        /* \"#utility.yul\":1145:1149   */\n      0x00\n        /* \"#utility.yul\":1183:1185   */\n      0x20\n        /* \"#utility.yul\":1172:1181   */\n      dup3\n        /* \"#utility.yul\":1168:1186   */\n      add\n        /* \"#utility.yul\":1160:1186   */\n      swap1\n      pop\n        /* \"#utility.yul\":1232:1241   */\n      dup2\n        /* \"#utility.yul\":1226:1230   */\n      dup2\n        /* \"#utility.yul\":1222:1242   */\n      sub\n        /* \"#utility.yul\":1218:1219   */\n      0x00\n        /* \"#utility.yul\":1207:1216   */\n      dup4\n        /* \"#utility.yul\":1203:1220   */\n      add\n        /* \"#utility.yul\":1196:1243   */\n      mstore\n        /* \"#utility.yul\":1260:1338   */\n      tag_130\n        /* \"#utility.yul\":1333:1337   */\n      dup2\n        /* \"#utility.yul\":1324:1330   */\n      dup5\n        /* \"#utility.yul\":1260:1338   */\n      tag_98\n      jump\t// in\n    tag_130:\n        /* \"#utility.yul\":1252:1338   */\n      swap1\n      pop\n        /* \"#utility.yul\":1032:1345   */\n      swap3\n      swap2\n      pop\n      pop\n      jump\t// out\n        /* \"#utility.yul\":1432:1549   */\n    tag_100:\n        /* \"#utility.yul\":1541:1542   */\n      0x00\n        /* \"#utility.yul\":1538:1539   */\n      dup1\n        /* \"#utility.yul\":1531:1543   */\n      revert\n        /* \"#utility.yul\":1678:1804   */\n    tag_102:\n        /* \"#utility.yul\":1715:1722   */\n      0x00\n        /* \"#utility.yul\":1755:1797   */\n      0xffffffffffffffffffffffffffffffffffffffff\n        /* \"#utility.yul\":1748:1753   */\n      dup3\n        /* \"#utility.yul\":1744:1798   */\n      and\n        /* \"#utility.yul\":1733:1798   */\n      swap1\n      pop\n        /* \"#utility.yul\":1678:1804   */\n      swap2\n      swap1\n      pop\n      jump\t// out\n        /* \"#utility.yul\":1810:1906   */\n    tag_103:\n        /* \"#utility.yul\":1847:1854   */\n      0x00\n        /* \"#utility.yul\":1876:1900   */\n      tag_136\n        /* \"#utility.yul\":1894:1899   */\n      dup3\n        /* \"#utility.yul\":1876:1900   */\n      tag_102\n      jump\t// in\n    tag_136:\n        /* \"#utility.yul\":1865:1900   */\n      swap1\n      pop\n        /* \"#utility.yul\":1810:1906   */\n      swap2\n      swap1\n      pop\n      jump\t// out\n        /* \"#utility.yul\":1912:2034   */\n    tag_104:\n        /* \"#utility.yul\":1985:2009   */\n      tag_138\n        /* \"#utility.yul\":2003:2008   */\n      dup2\n        /* \"#utility.yul\":1985:2009   */\n      tag_103\n      jump\t// in\n    tag_138:\n        /* \"#utility.yul\":1978:1983   */\n      dup2\n        /* \"#utility.yul\":1975:2010   */\n      eq\n        /* \"#utility.yul\":1965:2028   */\n      tag_139\n      jumpi\n        /* \"#utility.yul\":2024:2025   */\n      0x00\n        /* \"#utility.yul\":2021:2022   */\n      dup1\n        /* \"#utility.yul\":2014:2026   */\n      revert\n        /* \"#utility.yul\":1965:2028   */\n    tag_139:\n        /* \"#utility.yul\":1912:2034   */\n      pop\n      jump\t// out\n        /* \"#utility.yul\":2040:2179   */\n    tag_105:\n        /* \"#utility.yul\":2086:2091   */\n      0x00\n        /* \"#utility.yul\":2124:2130   */\n      dup2\n        /* \"#utility.yul\":2111:2131   */\n      calldataload\n        /* \"#utility.yul\":2102:2131   */\n      swap1\n      pop\n        /* \"#utility.yul\":2140:2173   */\n      tag_141\n        /* \"#utility.yul\":2167:2172   */\n      dup2\n        /* \"#utility.yul\":2140:2173   */\n      tag_104\n      jump\t// in\n    tag_141:\n        /* \"#utility.yul\":2040:2179   */\n      swap3\n      swap2\n      pop\n      pop\n      jump\t// out\n        /* \"#utility.yul\":2185:2262   */\n    tag_106:\n        /* \"#utility.yul\":2222:2229   */\n      0x00\n        /* \"#utility.yul\":2251:2256   */\n      dup2\n        /* \"#utility.yul\":2240:2256   */\n      swap1\n      pop\n        /* \"#utility.yul\":2185:2262   */\n      swap2\n      swap1\n      pop\n      jump\t// out\n        /* \"#utility.yul\":2268:2390   */\n    tag_107:\n        /* \"#utility.yul\":2341:2365   */\n      tag_144\n        /* \"#utility.yul\":2359:2364   */\n      dup2\n        /* \"#utility.yul\":2341:2365   */\n      tag_106\n      jump\t// in\n    tag_144:\n        /* \"#utility.yul\":2334:2339   */\n      dup2\n        /* \"#utility.yul\":2331:2366   */\n      eq\n        /* \"#utility.yul\":2321:2384   */\n      tag_145\n      jumpi\n        /* \"#utility.yul\":2380:2381   */\n      0x00\n        /* \"#utility.yul\":2377:2378   */\n      dup1\n        /* \"#utility.yul\":2370:2382   */\n      revert\n        /* \"#utility.yul\":2321:2384   */\n    tag_145:\n        /* \"#utility.yul\":2268:2390   */\n      pop\n      jump\t// out\n        /* \"#utility.yul\":2396:2535   */\n    tag_108:\n        /* \"#utility.yul\":2442:2447   */\n      0x00\n        /* \"#utility.yul\":2480:2486   */\n      dup2\n        /* \"#utility.yul\":2467:2487   */\n      calldataload\n        /* \"#utility.yul\":2458:2487   */\n      swap1\n      pop\n        /* \"#utility.yul\":2496:2529   */\n      tag_147\n        /* \"#utility.yul\":2523:2528   */\n      dup2\n        /* \"#utility.yul\":2496:2529   */\n      tag_107\n      jump\t// in\n    tag_147:\n        /* \"#utility.yul\":2396:2535   */\n      swap3\n      swap2\n      pop\n      pop\n      jump\t// out\n        /* \"#utility.yul\":2541:3015   */\n    tag_21:\n        /* \"#utility.yul\":2609:2615   */\n      0x00\n        /* \"#utility.yul\":2617:2623   */\n      dup1\n        /* \"#utility.yul\":2666:2668   */\n      0x40\n        /* \"#utility.yul\":2654:2663   */\n      dup4\n        /* \"#utility.yul\":2645:2652   */\n      dup6\n        /* \"#utility.yul\":2641:2664   */\n      sub\n        /* \"#utility.yul\":2637:2669   */\n      slt\n        /* \"#utility.yul\":2634:2753   */\n      iszero\n      tag_149\n      jumpi\n        /* \"#utility.yul\":2672:2751   */\n      tag_150\n      tag_100\n      jump\t// in\n    tag_150:\n        /* \"#utility.yul\":2634:2753   */\n    tag_149:\n        /* \"#utility.yul\":2792:2793   */\n      0x00\n        /* \"#utility.yul\":2817:2870   */\n      tag_151\n        /* \"#utility.yul\":2862:2869   */\n      dup6\n        /* \"#utility.yul\":2853:2859   */\n      dup3\n        /* \"#utility.yul\":2842:2851   */\n      dup7\n        /* \"#utility.yul\":2838:2860   */\n      add\n        /* \"#utility.yul\":2817:2870   */\n      tag_105\n      jump\t// in\n    tag_151:\n        /* \"#utility.yul\":2807:2870   */\n      swap3\n      pop\n        /* \"#utility.yul\":2763:2880   */\n      pop\n        /* \"#utility.yul\":2919:2921   */\n      0x20\n        /* \"#utility.yul\":2945:2998   */\n      tag_152\n        /* \"#utility.yul\":2990:2997   */\n      dup6\n        /* \"#utility.yul\":2981:2987   */\n      dup3\n        /* \"#utility.yul\":2970:2979   */\n      dup7\n        /* \"#utility.yul\":2966:2988   */\n      add\n        /* \"#utility.yul\":2945:2998   */\n      tag_108\n      jump\t// in\n    tag_152:\n        /* \"#utility.yul\":2935:2998   */\n      swap2\n      pop\n        /* \"#utility.yul\":2890:3008   */\n      pop\n        /* \"#utility.yul\":2541:3015   */\n      swap3\n      pop\n      swap3\n      swap1\n      pop\n      jump\t// out\n        /* \"#utility.yul\":3021:3111   */\n    tag_109:\n        /* \"#utility.yul\":3055:3062   */\n      0x00\n        /* \"#utility.yul\":3098:3103   */\n      dup2\n        /* \"#utility.yul\":3091:3104   */\n      iszero\n        /* \"#utility.yul\":3084:3105   */\n      iszero\n        /* \"#utility.yul\":3073:3105   */\n      swap1\n      pop\n        /* \"#utility.yul\":3021:3111   */\n      swap2\n      swap1\n      pop\n      jump\t// out\n        /* \"#utility.yul\":3117:3226   */\n    tag_110:\n        /* \"#utility.yul\":3198:3219   */\n      tag_155\n        /* \"#utility.yul\":3213:3218   */\n      dup2\n        /* \"#utility.yul\":3198:3219   */\n      tag_109\n      jump\t// in\n    tag_155:\n        /* \"#utility.yul\":3193:3196   */\n      dup3\n        /* \"#utility.yul\":3186:3220   */\n      mstore\n        /* \"#utility.yul\":3117:3226   */\n      pop\n      pop\n      jump\t// out\n        /* \"#utility.yul\":3232:3442   */\n    tag_24:\n        /* \"#utility.yul\":3319:3323   */\n      0x00\n        /* \"#utility.yul\":3357:3359   */\n      0x20\n        /* \"#utility.yul\":3346:3355   */\n      dup3\n        /* \"#utility.yul\":3342:3360   */\n      add\n        /* \"#utility.yul\":3334:3360   */\n      swap1\n      pop\n        /* \"#utility.yul\":3370:3435   */\n      tag_157\n        /* \"#utility.yul\":3432:3433   */\n      0x00\n        /* \"#utility.yul\":3421:3430   */\n      dup4\n        /* \"#utility.yul\":3417:3434   */\n      add\n        /* \"#utility.yul\":3408:3414   */\n      dup5\n        /* \"#utility.yul\":3370:3435   */\n      tag_110\n      jump\t// in\n    tag_157:\n        /* \"#utility.yul\":3232:3442   */\n      swap3\n      swap2\n      pop\n      pop\n      jump\t// out\n        /* \"#utility.yul\":3448:3566   */\n    tag_111:\n        /* \"#utility.yul\":3535:3559   */\n      tag_159\n        /* \"#utility.yul\":3553:3558   */\n      dup2\n        /* \"#utility.yul\":3535:3559   */\n      tag_106\n      jump\t// in\n    tag_159:\n        /* \"#utility.yul\":3530:3533   */\n      dup3\n        /* \"#utility.yul\":3523:3560   */\n      mstore\n        /* \"#utility.yul\":3448:3566   */\n      pop\n      pop\n      jump\t// out\n        /* \"#utility.yul\":3572:3794   */\n    tag_28:\n        /* \"#utility.yul\":3665:3669   */\n      0x00\n        /* \"#utility.yul\":3703:3705   */\n      0x20\n        /* \"#utility.yul\":3692:3701   */\n      dup3\n        /* \"#utility.yul\":3688:3706   */\n      add\n        /* \"#utility.yul\":3680:3706   */\n      swap1\n      pop\n        /* \"#utility.yul\":3716:3787   */\n      tag_161\n        /* \"#utility.yul\":3784:3785   */\n      0x00\n        /* \"#utility.yul\":3773:3782   */\n      dup4\n        /* \"#utility.yul\":3769:3786   */\n      add\n        /* \"#utility.yul\":3760:3766   */\n      dup5\n        /* \"#utility.yul\":3716:3787   */\n      tag_111\n      jump\t// in\n    tag_161:\n        /* \"#utility.yul\":3572:3794   */\n      swap3\n      swap2\n      pop\n      pop\n      jump\t// out\n        /* \"#utility.yul\":3800:4419   */\n    tag_31:\n        /* \"#utility.yul\":3877:3883   */\n      0x00\n        /* \"#utility.yul\":3885:3891   */\n      dup1\n        /* \"#utility.yul\":3893:3899   */\n      0x00\n        /* \"#utility.yul\":3942:3944   */\n      0x60\n        /* \"#utility.yul\":3930:3939   */\n      dup5\n        /* \"#utility.yul\":3921:3928   */\n      dup7\n        /* \"#utility.yul\":3917:3940   */\n      sub\n        /* \"#utility.yul\":3913:3945   */\n      slt\n        /* \"#utility.yul\":3910:4029   */\n      iszero\n      tag_163\n      jumpi\n        /* \"#utility.yul\":3948:4027   */\n      tag_164\n      tag_100\n      jump\t// in\n    tag_164:\n        /* \"#utility.yul\":3910:4029   */\n    tag_163:\n        /* \"#utility.yul\":4068:4069   */\n      0x00\n        /* \"#utility.yul\":4093:4146   */\n      tag_165\n        /* \"#utility.yul\":4138:4145   */\n      dup7\n        /* \"#utility.yul\":4129:4135   */\n      dup3\n        /* \"#utility.yul\":4118:4127   */\n      dup8\n        /* \"#utility.yul\":4114:4136   */\n      add\n        /* \"#utility.yul\":4093:4146   */\n      tag_105\n      jump\t// in\n    tag_165:\n        /* \"#utility.yul\":4083:4146   */\n      swap4\n      pop\n        /* \"#utility.yul\":4039:4156   */\n      pop\n        /* \"#utility.yul\":4195:4197   */\n      0x20\n        /* \"#utility.yul\":4221:4274   */\n      tag_166\n        /* \"#utility.yul\":4266:4273   */\n      dup7\n        /* \"#utility.yul\":4257:4263   */\n      dup3\n        /* \"#utility.yul\":4246:4255   */\n      dup8\n        /* \"#utility.yul\":4242:4264   */\n      add\n        /* \"#utility.yul\":4221:4274   */\n      tag_105\n      jump\t// in\n    tag_166:\n        /* \"#utility.yul\":4211:4274   */\n      swap3\n      pop\n        /* \"#utility.yul\":4166:4284   */\n      pop\n        /* \"#utility.yul\":4323:4325   */\n      0x40\n        /* \"#utility.yul\":4349:4402   */\n      tag_167\n        /* \"#utility.yul\":4394:4401   */\n      dup7\n        /* \"#utility.yul\":4385:4391   */\n      dup3\n        /* \"#utility.yul\":4374:4383   */\n      dup8\n        /* \"#utility.yul\":4370:4392   */\n      add\n        /* \"#utility.yul\":4349:4402   */\n      tag_108\n      jump\t// in\n    tag_167:\n        /* \"#utility.yul\":4339:4402   */\n      swap2\n      pop\n        /* \"#utility.yul\":4294:4412   */\n      pop\n        /* \"#utility.yul\":3800:4419   */\n      swap3\n      pop\n      swap3\n      pop\n      swap3\n      jump\t// out\n        /* \"#utility.yul\":4425:4511   */\n    tag_112:\n        /* \"#utility.yul\":4460:4467   */\n      0x00\n        /* \"#utility.yul\":4500:4504   */\n      0xff\n        /* \"#utility.yul\":4493:4498   */\n      dup3\n        /* \"#utility.yul\":4489:4505   */\n      and\n        /* \"#utility.yul\":4478:4505   */\n      swap1\n      pop\n        /* \"#utility.yul\":4425:4511   */\n      swap2\n      swap1\n      pop\n      jump\t// out\n        /* \"#utility.yul\":4517:4629   */\n    tag_113:\n        /* \"#utility.yul\":4600:4622   */\n      tag_170\n        /* \"#utility.yul\":4616:4621   */\n      dup2\n        /* \"#utility.yul\":4600:4622   */\n      tag_112\n      jump\t// in\n    tag_170:\n        /* \"#utility.yul\":4595:4598   */\n      dup3\n        /* \"#utility.yul\":4588:4623   */\n      mstore\n        /* \"#utility.yul\":4517:4629   */\n      pop\n      pop\n      jump\t// out\n        /* \"#utility.yul\":4635:4849   */\n    tag_37:\n        /* \"#utility.yul\":4724:4728   */\n      0x00\n        /* \"#utility.yul\":4762:4764   */\n      0x20\n        /* \"#utility.yul\":4751:4760   */\n      dup3\n        /* \"#utility.yul\":4747:4765   */\n      add\n        /* \"#utility.yul\":4739:4765   */\n      swap1\n      pop\n        /* \"#utility.yul\":4775:4842   */\n      tag_172\n        /* \"#utility.yul\":4839:4840   */\n      0x00\n        /* \"#utility.yul\":4828:4837   */\n      dup4\n        /* \"#utility.yul\":4824:4841   */\n      add\n        /* \"#utility.yul\":4815:4821   */\n      dup5\n        /* \"#utility.yul\":4775:4842   */\n      tag_113\n      jump\t// in\n    tag_172:\n        /* \"#utility.yul\":4635:4849   */\n      swap3\n      swap2\n      pop\n      pop\n      jump\t// out\n        /* \"#utility.yul\":4855:5184   */\n    tag_40:\n        /* \"#utility.yul\":4914:4920   */\n      0x00\n        /* \"#utility.yul\":4963:4965   */\n      0x20\n        /* \"#utility.yul\":4951:4960   */\n      dup3\n        /* \"#utility.yul\":4942:4949   */\n      dup5\n        /* \"#utility.yul\":4938:4961   */\n      sub\n        /* \"#utility.yul\":4934:4966   */\n      slt\n        /* \"#utility.yul\":4931:5050   */\n      iszero\n      tag_174\n      jumpi\n        /* \"#utility.yul\":4969:5048   */\n      tag_175\n      tag_100\n      jump\t// in\n    tag_175:\n        /* \"#utility.yul\":4931:5050   */\n    tag_174:\n        /* \"#utility.yul\":5089:5090   */\n      0x00\n        /* \"#utility.yul\":5114:5167   */\n      tag_176\n        /* \"#utility.yul\":5159:5166   */\n      dup5\n        /* \"#utility.yul\":5150:5156   */\n      dup3\n        /* \"#utility.yul\":5139:5148   */\n      dup6\n        /* \"#utility.yul\":5135:5157   */\n      add\n        /* \"#utility.yul\":5114:5167   */\n      tag_108\n      jump\t// in\n    tag_176:\n        /* \"#utility.yul\":5104:5167   */\n      swap2\n      pop\n        /* \"#utility.yul\":5060:5177   */\n      pop\n        /* \"#utility.yul\":4855:5184   */\n      swap3\n      swap2\n      pop\n      pop\n      jump\t// out\n        /* \"#utility.yul\":5190:5519   */\n    tag_44:\n        /* \"#utility.yul\":5249:5255   */\n      0x00\n        /* \"#utility.yul\":5298:5300   */\n      0x20\n        /* \"#utility.yul\":5286:5295   */\n      dup3\n        /* \"#utility.yul\":5277:5284   */\n      dup5\n        /* \"#utility.yul\":5273:5296   */\n      sub\n        /* \"#utility.yul\":5269:5301   */\n      slt\n        /* \"#utility.yul\":5266:5385   */\n      iszero\n      tag_178\n      jumpi\n        /* \"#utility.yul\":5304:5383   */\n      tag_179\n      tag_100\n      jump\t// in\n    tag_179:\n        /* \"#utility.yul\":5266:5385   */\n    tag_178:\n        /* \"#utility.yul\":5424:5425   */\n      0x00\n        /* \"#utility.yul\":5449:5502   */\n      tag_180\n        /* \"#utility.yul\":5494:5501   */\n      dup5\n        /* \"#utility.yul\":5485:5491   */\n      dup3\n        /* \"#utility.yul\":5474:5483   */\n      dup6\n        /* \"#utility.yul\":5470:5492   */\n      add\n        /* \"#utility.yul\":5449:5502   */\n      tag_105\n      jump\t// in\n    tag_180:\n        /* \"#utility.yul\":5439:5502   */\n      swap2\n      pop\n        /* \"#utility.yul\":5395:5512   */\n      pop\n        /* \"#utility.yul\":5190:5519   */\n      swap3\n      swap2\n      pop\n      pop\n      jump\t// out\n        /* \"#utility.yul\":5525:5999   */\n    tag_59:\n        /* \"#utility.yul\":5593:5599   */\n      0x00\n        /* \"#utility.yul\":5601:5607   */\n      dup1\n        /* \"#utility.yul\":5650:5652   */\n      0x40\n        /* \"#utility.yul\":5638:5647   */\n      dup4\n        /* \"#utility.yul\":5629:5636   */\n      dup6\n        /* \"#utility.yul\":5625:5648   */\n      sub\n        /* \"#utility.yul\":5621:5653   */\n      slt\n        /* \"#utility.yul\":5618:5737   */\n      iszero\n      tag_182\n      jumpi\n        /* \"#utility.yul\":5656:5735   */\n      tag_183\n      tag_100\n      jump\t// in\n    tag_183:\n        /* \"#utility.yul\":5618:5737   */\n    tag_182:\n        /* \"#utility.yul\":5776:5777   */\n      0x00\n        /* \"#utility.yul\":5801:5854   */\n      tag_184\n        /* \"#utility.yul\":5846:5853   */\n      dup6\n        /* \"#utility.yul\":5837:5843   */\n      dup3\n        /* \"#utility.yul\":5826:5835   */\n      dup7\n        /* \"#utility.yul\":5822:5844   */\n      add\n        /* \"#utility.yul\":5801:5854   */\n      tag_105\n      jump\t// in\n    tag_184:\n        /* \"#utility.yul\":5791:5854   */\n      swap3\n      pop\n        /* \"#utility.yul\":5747:5864   */\n      pop\n        /* \"#utility.yul\":5903:5905   */\n      0x20\n        /* \"#utility.yul\":5929:5982   */\n      tag_185\n        /* \"#utility.yul\":5974:5981   */\n      dup6\n        /* \"#utility.yul\":5965:5971   */\n      dup3\n        /* \"#utility.yul\":5954:5963   */\n      dup7\n        /* \"#utility.yul\":5950:5972   */\n      add\n        /* \"#utility.yul\":5929:5982   */\n      tag_105\n      jump\t// in\n    tag_185:\n        /* \"#utility.yul\":5919:5982   */\n      swap2\n      pop\n        /* \"#utility.yul\":5874:5992   */\n      pop\n        /* \"#utility.yul\":5525:5999   */\n      swap3\n      pop\n      swap3\n      swap1\n      pop\n      jump\t// out\n        /* \"#utility.yul\":6005:6185   */\n    tag_114:\n        /* \"#utility.yul\":6053:6130   */\n      0x4e487b7100000000000000000000000000000000000000000000000000000000\n        /* \"#utility.yul\":6050:6051   */\n      0x00\n        /* \"#utility.yul\":6043:6131   */\n      mstore\n        /* \"#utility.yul\":6150:6154   */\n      0x22\n        /* \"#utility.yul\":6147:6148   */\n      0x04\n        /* \"#utility.yul\":6140:6155   */\n      mstore\n        /* \"#utility.yul\":6174:6178   */\n      0x24\n        /* \"#utility.yul\":6171:6172   */\n      0x00\n        /* \"#utility.yul\":6164:6179   */\n      revert\n        /* \"#utility.yul\":6191:6511   */\n    tag_63:\n        /* \"#utility.yul\":6235:6241   */\n      0x00\n        /* \"#utility.yul\":6272:6273   */\n      0x02\n        /* \"#utility.yul\":6266:6270   */\n      dup3\n        /* \"#utility.yul\":6262:6274   */\n      div\n        /* \"#utility.yul\":6252:6274   */\n      swap1\n      pop\n        /* \"#utility.yul\":6319:6320   */\n      0x01\n        /* \"#utility.yul\":6313:6317   */\n      dup3\n        /* \"#utility.yul\":6309:6321   */\n      and\n        /* \"#utility.yul\":6340:6358   */\n      dup1\n        /* \"#utility.yul\":6330:6411   */\n      tag_188\n      jumpi\n        /* \"#utility.yul\":6396:6400   */\n      0x7f\n        /* \"#utility.yul\":6388:6394   */\n      dup3\n        /* \"#utility.yul\":6384:6401   */\n      and\n        /* \"#utility.yul\":6374:6401   */\n      swap2\n      pop\n        /* \"#utility.yul\":6330:6411   */\n    tag_188:\n        /* \"#utility.yul\":6458:6460   */\n      0x20\n        /* \"#utility.yul\":6450:6456   */\n      dup3\n        /* \"#utility.yul\":6447:6461   */\n      lt\n        /* \"#utility.yul\":6427:6445   */\n      dup2\n        /* \"#utility.yul\":6424:6462   */\n      sub\n        /* \"#utility.yul\":6421:6505   */\n      tag_189\n      jumpi\n        /* \"#utility.yul\":6477:6495   */\n      tag_190\n      tag_114\n      jump\t// in\n    tag_190:\n        /* \"#utility.yul\":6421:6505   */\n    tag_189:\n        /* \"#utility.yul\":6242:6511   */\n      pop\n        /* \"#utility.yul\":6191:6511   */\n      swap2\n      swap1\n      pop\n      jump\t// out\n        /* \"#utility.yul\":6517:6697   */\n    tag_115:\n        /* \"#utility.yul\":6565:6642   */\n      0x4e487b7100000000000000000000000000000000000000000000000000000000\n        /* \"#utility.yul\":6562:6563   */\n      0x00\n        /* \"#utility.yul\":6555:6643   */\n      mstore\n        /* \"#utility.yul\":6662:6666   */\n      0x11\n        /* \"#utility.yul\":6659:6660   */\n      0x04\n        /* \"#utility.yul\":6652:6667   */\n      mstore\n        /* \"#utility.yul\":6686:6690   */\n      0x24\n        /* \"#utility.yul\":6683:6684   */\n      0x00\n        /* \"#utility.yul\":6676:6691   */\n      revert\n        /* \"#utility.yul\":6703:6897   */\n    tag_72:\n        /* \"#utility.yul\":6743:6747   */\n      0x00\n        /* \"#utility.yul\":6763:6783   */\n      tag_193\n        /* \"#utility.yul\":6781:6782   */\n      dup3\n        /* \"#utility.yul\":6763:6783   */\n      tag_106\n      jump\t// in\n    tag_193:\n        /* \"#utility.yul\":6758:6783   */\n      swap2\n      pop\n        /* \"#utility.yul\":6797:6817   */\n      tag_194\n        /* \"#utility.yul\":6815:6816   */\n      dup4\n        /* \"#utility.yul\":6797:6817   */\n      tag_106\n      jump\t// in\n    tag_194:\n        /* \"#utility.yul\":6792:6817   */\n      swap3\n      pop\n        /* \"#utility.yul\":6841:6842   */\n      dup3\n        /* \"#utility.yul\":6838:6839   */\n      dup3\n        /* \"#utility.yul\":6834:6843   */\n      sub\n        /* \"#utility.yul\":6826:6843   */\n      swap1\n      pop\n        /* \"#utility.yul\":6865:6866   */\n      dup2\n        /* \"#utility.yul\":6859:6863   */\n      dup2\n        /* \"#utility.yul\":6856:6867   */\n      gt\n        /* \"#utility.yul\":6853:6890   */\n      iszero\n      tag_195\n      jumpi\n        /* \"#utility.yul\":6870:6888   */\n      tag_196\n      tag_115\n      jump\t// in\n    tag_196:\n        /* \"#utility.yul\":6853:6890   */\n    tag_195:\n        /* \"#utility.yul\":6703:6897   */\n      swap3\n      swap2\n      pop\n      pop\n      jump\t// out\n        /* \"#utility.yul\":6903:7094   */\n    tag_75:\n        /* \"#utility.yul\":6943:6946   */\n      0x00\n        /* \"#utility.yul\":6962:6982   */\n      tag_198\n        /* \"#utility.yul\":6980:6981   */\n      dup3\n        /* \"#utility.yul\":6962:6982   */\n      tag_106\n      jump\t// in\n    tag_198:\n        /* \"#utility.yul\":6957:6982   */\n      swap2\n      pop\n        /* \"#utility.yul\":6996:7016   */\n      tag_199\n        /* \"#utility.yul\":7014:7015   */\n      dup4\n        /* \"#utility.yul\":6996:7016   */\n      tag_106\n      jump\t// in\n    tag_199:\n        /* \"#utility.yul\":6991:7016   */\n      swap3\n      pop\n        /* \"#utility.yul\":7039:7040   */\n      dup3\n        /* \"#utility.yul\":7036:7037   */\n      dup3\n        /* \"#utility.yul\":7032:7041   */\n      add\n        /* \"#utility.yul\":7025:7041   */\n      swap1\n      pop\n        /* \"#utility.yul\":7060:7063   */\n      dup1\n        /* \"#utility.yul\":7057:7058   */\n      dup3\n        /* \"#utility.yul\":7054:7064   */\n      gt\n        /* \"#utility.yul\":7051:7087   */\n      iszero\n      tag_200\n      jumpi\n        /* \"#utility.yul\":7067:7085   */\n      tag_201\n      tag_115\n      jump\t// in\n    tag_201:\n        /* \"#utility.yul\":7051:7087   */\n    tag_200:\n        /* \"#utility.yul\":6903:7094   */\n      swap3\n      swap2\n      pop\n      pop\n      jump\t// out\n\n    auxdata: 0xa2646970667358221220b3b8aeae6b89b074353a683bd9449ffeb8451d2d8dec76a81e3d5b804e5c5c5364736f6c63430008190033\n}\n",
				"bytecode": {
					"linkReferences": {},
					"object": "60806040526012600560006101000a81548160ff021916908360ff1602179055506040516112bd3803806112bd833981810160405281019061004191906101dd565b81600390816100509190610476565b5080600490816100609190610476565b505050610548565b6000604051905090565b600080fd5b600080fd5b600080fd5b600080fd5b6000601f19601f8301169050919050565b7f4e487b7100000000000000000000000000000000000000000000000000000000600052604160045260246000fd5b6100cf82610086565b810181811067ffffffffffffffff821117156100ee576100ed610097565b5b80604052505050565b6000610101610068565b905061010d82826100c6565b919050565b600067ffffffffffffffff82111561012d5761012c610097565b5b61013682610086565b9050602081019050919050565b60005b83811015610161578082015181840152602081019050610146565b60008484015250505050565b600061018061017b84610112565b6100f7565b90508281526020810184848401111561019c5761019b610081565b5b6101a7848285610143565b509392505050565b600082601f8301126101c4576101c361007c565b5b81516101d484826020860161016d565b91505092915050565b600080604083850312156101f4576101f3610072565b5b600083015167ffffffffffffffff81111561021257610211610077565b5b61021e858286016101af565b925050602083015167ffffffffffffffff81111561023f5761023e610077565b5b61024b858286016101af565b9150509250929050565b600081519050919050565b7f4e487b7100000000000000000000000000000000000000000000000000000000600052602260045260246000fd5b600060028204905060018216806102a757607f821691505b6020821081036102ba576102b9610260565b5b50919050565b60008190508160005260206000209050919050565b60006020601f8301049050919050565b600082821b905092915050565b6000600883026103227fffffffffffffffffffffffffffffffffffffffffffffffffffffffffffffffff826102e5565b61032c86836102e5565b95508019841693508086168417925050509392505050565b6000819050919050565b6000819050919050565b600061037361036e61036984610344565b61034e565b610344565b9050919050565b6000819050919050565b61038d83610358565b6103a16103998261037a565b8484546102f2565b825550505050565b600090565b6103b66103a9565b6103c1818484610384565b505050565b5b818110156103e5576103da6000826103ae565b6001810190506103c7565b5050565b601f82111561042a576103fb816102c0565b610404846102d5565b81016020851015610413578190505b61042761041f856102d5565b8301826103c6565b50505b505050565b600082821c905092915050565b600061044d6000198460080261042f565b1980831691505092915050565b6000610466838361043c565b9150826002028217905092915050565b61047f82610255565b67ffffffffffffffff81111561049857610497610097565b5b6104a2825461028f565b6104ad8282856103e9565b600060209050601f8311600181146104e057600084156104ce578287015190505b6104d8858261045a565b865550610540565b601f1984166104ee866102c0565b60005b82811015610516578489015182556001820191506020850194506020810190506104f1565b86831015610533578489015161052f601f89168261043c565b8355505b6001600288020188555050505b505050505050565b610d66806105576000396000f3fe608060405234801561001057600080fd5b50600436106100a95760003560e01c806342966c681161007157806342966c681461016857806370a082311461018457806395d89b41146101b4578063a0712d68146101d2578063a9059cbb146101ee578063dd62ed3e1461021e576100a9565b806306fdde03146100ae578063095ea7b3146100cc57806318160ddd146100fc57806323b872dd1461011a578063313ce5671461014a575b600080fd5b6100b661024e565b6040516100c391906109ba565b60405180910390f35b6100e660048036038101906100e19190610a75565b6102dc565b6040516100f39190610ad0565b60405180910390f35b6101046103ce565b6040516101119190610afa565b60405180910390f35b610134600480360381019061012f9190610b15565b6103d4565b6040516101419190610ad0565b60405180910390f35b610152610583565b60405161015f9190610b84565b60405180910390f35b610182600480360381019061017d9190610b9f565b610596565b005b61019e60048036038101906101999190610bcc565b61066d565b6040516101ab9190610afa565b60405180910390f35b6101bc610685565b6040516101c991906109ba565b60405180910390f35b6101ec60048036038101906101e79190610b9f565b610713565b005b61020860048036038101906102039190610a75565b6107ea565b6040516102159190610ad0565b60405180910390f35b61023860048036038101906102339190610bf9565b610905565b6040516102459190610afa565b60405180910390f35b6003805461025b90610c68565b80601f016020809104026020016040519081016040528092919081815260200182805461028790610c68565b80156102d45780601f106102a9576101008083540402835291602001916102d4565b820191906000526020600020905b8154815290600101906020018083116102b757829003601f168201915b505050505081565b600081600160003373ffffffffffffffffffffffffffffffffffffffff1673ffffffffffffffffffffffffffffffffffffffff16815260200190815260200160002060008573ffffffffffffffffffffffffffffffffffffffff1673ffffffffffffffffffffffffffffffffffffffff168152602001908152602001600020819055508273ffffffffffffffffffffffffffffffffffffffff163373ffffffffffffffffffffffffffffffffffffffff167f8c5be1e5ebec7d5bd14f71427d1e84f3dd0314c0f7b2291e5b200ac8c7c3b925846040516103bc9190610afa565b60405180910390a36001905092915050565b60025481565b600081600160008673ffffffffffffffffffffffffffffffffffffffff1673ffffffffffffffffffffffffffffffffffffffff16815260200190815260200160002060003373ffffffffffffffffffffffffffffffffffffffff1673ffffffffffffffffffffffffffffffffffffffff16815260200190815260200160002060008282546104629190610cc8565b92505081905550816000808673ffffffffffffffffffffffffffffffffffffffff1673ffffffffffffffffffffffffffffffffffffffff16815260200190815260200160002060008282546104b79190610cc8565b92505081905550816000808573ffffffffffffffffffffffffffffffffffffffff1673ffffffffffffffffffffffffffffffffffffffff168152602001908152602001600020600082825461050c9190610cfc565b925050819055508273ffffffffffffffffffffffffffffffffffffffff168473ffffffffffffffffffffffffffffffffffffffff167fddf252ad1be2c89b69c2b068fc378daa952ba7f163c4a11628f55a4df523b3ef846040516105709190610afa565b60405180910390a3600190509392505050565b600560009054906101000a900460ff1681565b806000803373ffffffffffffffffffffffffffffffffffffffff1673ffffffffffffffffffffffffffffffffffffffff16815260200190815260200160002060008282546105e49190610cc8565b9250508190555080600260008282546105fd9190610cc8565b92505081905550600073ffffffffffffffffffffffffffffffffffffffff163373ffffffffffffffffffffffffffffffffffffffff167fddf252ad1be2c89b69c2b068fc378daa952ba7f163c4a11628f55a4df523b3ef836040516106629190610afa565b60405180910390a350565b60006020528060005260406000206000915090505481565b6004805461069290610c68565b80601f01602080910402602001604051908101604052809291908181526020018280546106be90610c68565b801561070b5780601f106106e05761010080835404028352916020019161070b565b820191906000526020600020905b8154815290600101906020018083116106ee57829003601f168201915b505050505081565b806000803373ffffffffffffffffffffffffffffffffffffffff1673ffffffffffffffffffffffffffffffffffffffff16815260200190815260200160002060008282546107619190610cfc565b92505081905550806002600082825461077a9190610cfc565b925050819055503373ffffffffffffffffffffffffffffffffffffffff16600073ffffffffffffffffffffffffffffffffffffffff167fddf252ad1be2c89b69c2b068fc378daa952ba7f163c4a11628f55a4df523b3ef836040516107df9190610afa565b60405180910390a350565b6000816000803373ffffffffffffffffffffffffffffffffffffffff1673ffffffffffffffffffffffffffffffffffffffff168152602001908152602001600020600082825461083a9190610cc8565b92505081905550816000808573ffffffffffffffffffffffffffffffffffffffff1673ffffffffffffffffffffffffffffffffffffffff168152602001908152602001600020600082825461088f9190610cfc565b925050819055508273ffffffffffffffffffffffffffffffffffffffff163373ffffffffffffffffffffffffffffffffffffffff167fddf252ad1be2c89b69c2b068fc378daa952ba7f163c4a11628f55a4df523b3ef846040516108f39190610afa565b60405180910390a36001905092915050565b6001602052816000526040600020602052806000526040600020600091509150505481565b600081519050919050565b600082825260208201905092915050565b60005b83811015610964578082015181840152602081019050610949565b60008484015250505050565b6000601f19601f8301169050919050565b600061098c8261092a565b6109968185610935565b93506109a6818560208601610946565b6109af81610970565b840191505092915050565b600060208201905081810360008301526109d48184610981565b905092915050565b600080fd5b600073ffffffffffffffffffffffffffffffffffffffff82169050919050565b6000610a0c826109e1565b9050919050565b610a1c81610a01565b8114610a2757600080fd5b50565b600081359050610a3981610a13565b92915050565b6000819050919050565b610a5281610a3f565b8114610a5d57600080fd5b50565b600081359050610a6f81610a49565b92915050565b60008060408385031215610a8c57610a8b6109dc565b5b6000610a9a85828601610a2a565b9250506020610aab85828601610a60565b9150509250929050565b60008115159050919050565b610aca81610ab5565b82525050565b6000602082019050610ae56000830184610ac1565b92915050565b610af481610a3f565b82525050565b6000602082019050610b0f6000830184610aeb565b92915050565b600080600060608486031215610b2e57610b2d6109dc565b5b6000610b3c86828701610a2a565b9350506020610b4d86828701610a2a565b9250506040610b5e86828701610a60565b9150509250925092565b600060ff82169050919050565b610b7e81610b68565b82525050565b6000602082019050610b996000830184610b75565b92915050565b600060208284031215610bb557610bb46109dc565b5b6000610bc384828501610a60565b91505092915050565b600060208284031215610be257610be16109dc565b5b6000610bf084828501610a2a565b91505092915050565b60008060408385031215610c1057610c0f6109dc565b5b6000610c1e85828601610a2a565b9250506020610c2f85828601610a2a565b9150509250929050565b7f4e487b7100000000000000000000000000000000000000000000000000000000600052602260045260246000fd5b60006002820490506001821680610c8057607f821691505b602082108103610c9357610c92610c39565b5b50919050565b7f4e487b7100000000000000000000000000000000000000000000000000000000600052601160045260246000fd5b6000610cd382610a3f565b9150610cde83610a3f565b9250828203905081811115610cf657610cf5610c99565b5b92915050565b6000610d0782610a3f565b9150610d1283610a3f565b9250828201905080821115610d2a57610d29610c99565b5b9291505056fea2646970667358221220b3b8aeae6b89b074353a683bd9449ffeb8451d2d8dec76a81e3d5b804e5c5c5364736f6c63430008190033",
					"opcodes": "PUSH1 0x80 PUSH1 0x40 MSTORE PUSH1 0x12 PUSH1 0x5 PUSH1 0x0 PUSH2 0x100 EXP DUP2 SLOAD DUP2 PUSH1 0xFF MUL NOT AND SWAP1 DUP4 PUSH1 0xFF AND MUL OR SWAP1 SSTORE POP PUSH1 0x40 MLOAD PUSH2 0x12BD CODESIZE SUB DUP1 PUSH2 0x12BD DUP4 CODECOPY DUP2 DUP2 ADD PUSH1 0x40 MSTORE DUP2 ADD SWAP1 PUSH2 0x41 SWAP2 SWAP1 PUSH2 0x1DD JUMP JUMPDEST DUP2 PUSH1 0x3 SWAP1 DUP2 PUSH2 0x50 SWAP2 SWAP1 PUSH2 0x476 JUMP JUMPDEST POP DUP1 PUSH1 0x4 SWAP1 DUP2 PUSH2 0x60 SWAP2 SWAP1 PUSH2 0x476 JUMP JUMPDEST POP POP POP PUSH2 0x548 JUMP JUMPDEST PUSH1 0x0 PUSH1 0x40 MLOAD SWAP1 POP SWAP1 JUMP JUMPDEST PUSH1 0x0 DUP1 REVERT JUMPDEST PUSH1 0x0 DUP1 REVERT JUMPDEST PUSH1 0x0 DUP1 REVERT JUMPDEST PUSH1 0x0 DUP1 REVERT JUMPDEST PUSH1 0x0 PUSH1 0x1F NOT PUSH1 0x1F DUP4 ADD AND SWAP1 POP SWAP2 SWAP1 POP JUMP JUMPDEST PUSH32 0x4E487B7100000000000000000000000000000000000000000000000000000000 PUSH1 0x0 MSTORE PUSH1 0x41 PUSH1 0x4 MSTORE PUSH1 0x24 PUSH1 0x0 REVERT JUMPDEST PUSH2 0xCF DUP3 PUSH2 0x86 JUMP JUMPDEST DUP2 ADD DUP2 DUP2 LT PUSH8 0xFFFFFFFFFFFFFFFF DUP3 GT OR ISZERO PUSH2 0xEE JUMPI PUSH2 0xED PUSH2 0x97 JUMP JUMPDEST JUMPDEST DUP1 PUSH1 0x40 MSTORE POP POP POP JUMP JUMPDEST PUSH1 0x0 PUSH2 0x101 PUSH2 0x68 JUMP JUMPDEST SWAP1 POP PUSH2 0x10D DUP3 DUP3 PUSH2 0xC6 JUMP JUMPDEST SWAP2 SWAP1 POP JUMP JUMPDEST PUSH1 0x0 PUSH8 0xFFFFFFFFFFFFFFFF DUP3 GT ISZERO PUSH2 0x12D JUMPI PUSH2 0x12C PUSH2 0x97 JUMP JUMPDEST JUMPDEST PUSH2 0x136 DUP3 PUSH2 0x86 JUMP JUMPDEST SWAP1 POP PUSH1 0x20 DUP2 ADD SWAP1 POP SWAP2 SWAP1 POP JUMP JUMPDEST PUSH1 0x0 JUMPDEST DUP4 DUP2 LT ISZERO PUSH2 0x161 JUMPI DUP1 DUP3 ADD MLOAD DUP2 DUP5 ADD MSTORE PUSH1 0x20 DUP2 ADD SWAP1 POP PUSH2 0x146 JUMP JUMPDEST PUSH1 0x0 DUP5 DUP5 ADD MSTORE POP POP POP POP JUMP JUMPDEST PUSH1 0x0 PUSH2 0x180 PUSH2 0x17B DUP5 PUSH2 0x112 JUMP JUMPDEST PUSH2 0xF7 JUMP JUMPDEST SWAP1 POP DUP3 DUP2 MSTORE PUSH1 0x20 DUP2 ADD DUP5 DUP5 DUP5 ADD GT ISZERO PUSH2 0x19C JUMPI PUSH2 0x19B PUSH2 0x81 JUMP JUMPDEST JUMPDEST PUSH2 0x1A7 DUP5 DUP3 DUP6 PUSH2 0x143 JUMP JUMPDEST POP SWAP4 SWAP3 POP POP POP JUMP JUMPDEST PUSH1 0x0 DUP3 PUSH1 0x1F DUP4 ADD SLT PUSH2 0x1C4 JUMPI PUSH2 0x1C3 PUSH2 0x7C JUMP JUMPDEST JUMPDEST DUP2 MLOAD PUSH2 0x1D4 DUP5 DUP3 PUSH1 0x20 DUP7 ADD PUSH2 0x16D JUMP JUMPDEST SWAP2 POP POP SWAP3 SWAP2 POP POP JUMP JUMPDEST PUSH1 0x0 DUP1 PUSH1 0x40 DUP4 DUP6 SUB SLT ISZERO PUSH2 0x1F4 JUMPI PUSH2 0x1F3 PUSH2 0x72 JUMP JUMPDEST JUMPDEST PUSH1 0x0 DUP4 ADD MLOAD PUSH8 0xFFFFFFFFFFFFFFFF DUP2 GT ISZERO PUSH2 0x212 JUMPI PUSH2 0x211 PUSH2 0x77 JUMP JUMPDEST JUMPDEST PUSH2 0x21E DUP6 DUP3 DUP7 ADD PUSH2 0x1AF JUMP JUMPDEST SWAP3 POP POP PUSH1 0x20 DUP4 ADD MLOAD PUSH8 0xFFFFFFFFFFFFFFFF DUP2 GT ISZERO PUSH2 0x23F JUMPI PUSH2 0x23E PUSH2 0x77 JUMP JUMPDEST JUMPDEST PUSH2 0x24B DUP6 DUP3 DUP7 ADD PUSH2 0x1AF JUMP JUMPDEST SWAP2 POP POP SWAP3 POP SWAP3 SWAP1 POP JUMP JUMPDEST PUSH1 0x0 DUP2 MLOAD SWAP1 POP SWAP2 SWAP1 POP JUMP JUMPDEST PUSH32 0x4E487B7100000000000000000000000000000000000000000000000000000000 PUSH1 0x0 MSTORE PUSH1 0x22 PUSH1 0x4 MSTORE PUSH1 0x24 PUSH1 0x0 REVERT JUMPDEST PUSH1 0x0 PUSH1 0x2 DUP3 DIV SWAP1 POP PUSH1 0x1 DUP3 AND DUP1 PUSH2 0x2A7 JUMPI PUSH1 0x7F DUP3 AND SWAP2 POP JUMPDEST PUSH1 0x20 DUP3 LT DUP2 SUB PUSH2 0x2BA JUMPI PUSH2 0x2B9 PUSH2 0x260 JUMP JUMPDEST JUMPDEST POP SWAP2 SWAP1 POP JUMP JUMPDEST PUSH1 0x0 DUP2 SWAP1 POP DUP2 PUSH1 0x0 MSTORE PUSH1 0x20 PUSH1 0x0 KECCAK256 SWAP1 POP SWAP2 SWAP1 POP JUMP JUMPDEST PUSH1 0x0 PUSH1 0x20 PUSH1 0x1F DUP4 ADD DIV SWAP1 POP SWAP2 SWAP1 POP JUMP JUMPDEST PUSH1 0x0 DUP3 DUP3 SHL SWAP1 POP SWAP3 SWAP2 POP POP JUMP JUMPDEST PUSH1 0x0 PUSH1 0x8 DUP4 MUL PUSH2 0x322 PUSH32 0xFFFFFFFFFFFFFFFFFFFFFFFFFFFFFFFFFFFFFFFFFFFFFFFFFFFFFFFFFFFFFFFF DUP3 PUSH2 0x2E5 JUMP JUMPDEST PUSH2 0x32C DUP7 DUP4 PUSH2 0x2E5 JUMP JUMPDEST SWAP6 POP DUP1 NOT DUP5 AND SWAP4 POP DUP1 DUP7 AND DUP5 OR SWAP3 POP POP POP SWAP4 SWAP3 POP POP POP JUMP JUMPDEST PUSH1 0x0 DUP2 SWAP1 POP SWAP2 SWAP1 POP JUMP JUMPDEST PUSH1 0x0 DUP2 SWAP1 POP SWAP2 SWAP1 POP JUMP JUMPDEST PUSH1 0x0 PUSH2 0x373 PUSH2 0x36E PUSH2 0x369 DUP5 PUSH2 0x344 JUMP JUMPDEST PUSH2 0x34E JUMP JUMPDEST PUSH2 0x344 JUMP JUMPDEST SWAP1 POP SWAP2 SWAP1 POP JUMP JUMPDEST PUSH1 0x0 DUP2 SWAP1 POP SWAP2 SWAP1 POP JUMP JUMPDEST PUSH2 0x38D DUP4 PUSH2 0x358 JUMP JUMPDEST PUSH2 0x3A1 PUSH2 0x399 DUP3 PUSH2 0x37A JUMP JUMPDEST DUP5 DUP5 SLOAD PUSH2 0x2F2 JUMP JUMPDEST DUP3 SSTORE POP POP POP POP JUMP JUMPDEST PUSH1 0x0 SWAP1 JUMP JUMPDEST PUSH2 0x3B6 PUSH2 0x3A9 JUMP JUMPDEST PUSH2 0x3C1 DUP2 DUP5 DUP5 PUSH2 0x384 JUMP JUMPDEST POP POP POP JUMP JUMPDEST JUMPDEST DUP2 DUP2 LT ISZERO PUSH2 0x3E5 JUMPI PUSH2 0x3DA PUSH1 0x0 DUP3 PUSH2 0x3AE JUMP JUMPDEST PUSH1 0x1 DUP2 ADD SWAP1 POP PUSH2 0x3C7 JUMP JUMPDEST POP POP JUMP JUMPDEST PUSH1 0x1F DUP3 GT ISZERO PUSH2 0x42A JUMPI PUSH2 0x3FB DUP2 PUSH2 0x2C0 JUMP JUMPDEST PUSH2 0x404 DUP5 PUSH2 0x2D5 JUMP JUMPDEST DUP2 ADD PUSH1 0x20 DUP6 LT ISZERO PUSH2 0x413 JUMPI DUP2 SWAP1 POP JUMPDEST PUSH2 0x427 PUSH2 0x41F DUP6 PUSH2 0x2D5 JUMP JUMPDEST DUP4 ADD DUP3 PUSH2 0x3C6 JUMP JUMPDEST POP POP JUMPDEST POP POP POP JUMP JUMPDEST PUSH1 0x0 DUP3 DUP3 SHR SWAP1 POP SWAP3 SWAP2 POP POP JUMP JUMPDEST PUSH1 0x0 PUSH2 0x44D PUSH1 0x0 NOT DUP5 PUSH1 0x8 MUL PUSH2 0x42F JUMP JUMPDEST NOT DUP1 DUP4 AND SWAP2 POP POP SWAP3 SWAP2 POP POP JUMP JUMPDEST PUSH1 0x0 PUSH2 0x466 DUP4 DUP4 PUSH2 0x43C JUMP JUMPDEST SWAP2 POP DUP3 PUSH1 0x2 MUL DUP3 OR SWAP1 POP SWAP3 SWAP2 POP POP JUMP JUMPDEST PUSH2 0x47F DUP3 PUSH2 0x255 JUMP JUMPDEST PUSH8 0xFFFFFFFFFFFFFFFF DUP2 GT ISZERO PUSH2 0x498 JUMPI PUSH2 0x497 PUSH2 0x97 JUMP JUMPDEST JUMPDEST PUSH2 0x4A2 DUP3 SLOAD PUSH2 0x28F JUMP JUMPDEST PUSH2 0x4AD DUP3 DUP3 DUP6 PUSH2 0x3E9 JUMP JUMPDEST PUSH1 0x0 PUSH1 0x20 SWAP1 POP PUSH1 0x1F DUP4 GT PUSH1 0x1 DUP2 EQ PUSH2 0x4E0 JUMPI PUSH1 0x0 DUP5 ISZERO PUSH2 0x4CE JUMPI DUP3 DUP8 ADD MLOAD SWAP1 POP JUMPDEST PUSH2 0x4D8 DUP6 DUP3 PUSH2 0x45A JUMP JUMPDEST DUP7 SSTORE POP PUSH2 0x540 JUMP JUMPDEST PUSH1 0x1F NOT DUP5 AND PUSH2 0x4EE DUP7 PUSH2 0x2C0 JUMP JUMPDEST PUSH1 0x0 JUMPDEST DUP3 DUP2 LT ISZERO PUSH2 0x516 JUMPI DUP5 DUP10 ADD MLOAD DUP3 SSTORE PUSH1 0x1 DUP3 ADD SWAP2 POP PUSH1 0x20 DUP6 ADD SWAP5 POP PUSH1 0x20 DUP2 ADD SWAP1 POP PUSH2 0x4F1 JUMP JUMPDEST DUP7 DUP4 LT ISZERO PUSH2 0x533 JUMPI DUP5 DUP10 ADD MLOAD PUSH2 0x52F PUSH1 0x1F DUP10 AND DUP3 PUSH2 0x43C JUMP JUMPDEST DUP4 SSTORE POP JUMPDEST PUSH1 0x1 PUSH1 0x2 DUP9 MUL ADD DUP9 SSTORE POP POP POP JUMPDEST POP POP POP POP POP POP JUMP JUMPDEST PUSH2 0xD66 DUP1 PUSH2 0x557 PUSH1 0x0 CODECOPY PUSH1 0x0 RETURN INVALID PUSH1 0x80 PUSH1 0x40 MSTORE CALLVALUE DUP1 ISZERO PUSH2 0x10 JUMPI PUSH1 0x0 DUP1 REVERT JUMPDEST POP PUSH1 0x4 CALLDATASIZE LT PUSH2 0xA9 JUMPI PUSH1 0x0 CALLDATALOAD PUSH1 0xE0 SHR DUP1 PUSH4 0x42966C68 GT PUSH2 0x71 JUMPI DUP1 PUSH4 0x42966C68 EQ PUSH2 0x168 JUMPI DUP1 PUSH4 0x70A08231 EQ PUSH2 0x184 JUMPI DUP1 PUSH4 0x95D89B41 EQ PUSH2 0x1B4 JUMPI DUP1 PUSH4 0xA0712D68 EQ PUSH2 0x1D2 JUMPI DUP1 PUSH4 0xA9059CBB EQ PUSH2 0x1EE JUMPI DUP1 PUSH4 0xDD62ED3E EQ PUSH2 0x21E JUMPI PUSH2 0xA9 JUMP JUMPDEST DUP1 PUSH4 0x6FDDE03 EQ PUSH2 0xAE JUMPI DUP1 PUSH4 0x95EA7B3 EQ PUSH2 0xCC JUMPI DUP1 PUSH4 0x18160DDD EQ PUSH2 0xFC JUMPI DUP1 PUSH4 0x23B872DD EQ PUSH2 0x11A JUMPI DUP1 PUSH4 0x313CE567 EQ PUSH2 0x14A JUMPI JUMPDEST PUSH1 0x0 DUP1 REVERT JUMPDEST PUSH2 0xB6 PUSH2 0x24E JUMP JUMPDEST PUSH1 0x40 MLOAD PUSH2 0xC3 SWAP2 SWAP1 PUSH2 0x9BA JUMP JUMPDEST PUSH1 0x40 MLOAD DUP1 SWAP2 SUB SWAP1 RETURN JUMPDEST PUSH2 0xE6 PUSH1 0x4 DUP1 CALLDATASIZE SUB DUP2 ADD SWAP1 PUSH2 0xE1 SWAP2 SWAP1 PUSH2 0xA75 JUMP JUMPDEST PUSH2 0x2DC JUMP JUMPDEST PUSH1 0x40 MLOAD PUSH2 0xF3 SWAP2 SWAP1 PUSH2 0xAD0 JUMP JUMPDEST PUSH1 0x40 MLOAD DUP1 SWAP2 SUB SWAP1 RETURN JUMPDEST PUSH2 0x104 PUSH2 0x3CE JUMP JUMPDEST PUSH1 0x40 MLOAD PUSH2 0x111 SWAP2 SWAP1 PUSH2 0xAFA JUMP JUMPDEST PUSH1 0x40 MLOAD DUP1 SWAP2 SUB SWAP1 RETURN JUMPDEST PUSH2 0x134 PUSH1 0x4 DUP1 CALLDATASIZE SUB DUP2 ADD SWAP1 PUSH2 0x12F SWAP2 SWAP1 PUSH2 0xB15 JUMP JUMPDEST PUSH2 0x3D4 JUMP JUMPDEST PUSH1 0x40 MLOAD PUSH2 0x141 SWAP2 SWAP1 PUSH2 0xAD0 JUMP JUMPDEST PUSH1 0x40 MLOAD DUP1 SWAP2 SUB SWAP1 RETURN JUMPDEST PUSH2 0x152 PUSH2 0x583 JUMP JUMPDEST PUSH1 0x40 MLOAD PUSH2 0x15F SWAP2 SWAP1 PUSH2 0xB84 JUMP JUMPDEST PUSH1 0x40 MLOAD DUP1 SWAP2 SUB SWAP1 RETURN JUMPDEST PUSH2 0x182 PUSH1 0x4 DUP1 CALLDATASIZE SUB DUP2 ADD SWAP1 PUSH2 0x17D SWAP2 SWAP1 PUSH2 0xB9F JUMP JUMPDEST PUSH2 0x596 JUMP JUMPDEST STOP JUMPDEST PUSH2 0x19E PUSH1 0x4 DUP1 CALLDATASIZE SUB DUP2 ADD SWAP1 PUSH2 0x199 SWAP2 SWAP1 PUSH2 0xBCC JUMP JUMPDEST PUSH2 0x66D JUMP JUMPDEST PUSH1 0x40 MLOAD PUSH2 0x1AB SWAP2 SWAP1 PUSH2 0xAFA JUMP JUMPDEST PUSH1 0x40 MLOAD DUP1 SWAP2 SUB SWAP1 RETURN JUMPDEST PUSH2 0x1BC PUSH2 0x685 JUMP JUMPDEST PUSH1 0x40 MLOAD PUSH2 0x1C9 SWAP2 SWAP1 PUSH2 0x9BA JUMP JUMPDEST PUSH1 0x40 MLOAD DUP1 SWAP2 SUB SWAP1 RETURN JUMPDEST PUSH2 0x1EC PUSH1 0x4 DUP1 CALLDATASIZE SUB DUP2 ADD SWAP1 PUSH2 0x1E7 SWAP2 SWAP1 PUSH2 0xB9F JUMP JUMPDEST PUSH2 0x713 JUMP JUMPDEST STOP JUMPDEST PUSH2 0x208 PUSH1 0x4 DUP1 CALLDATASIZE SUB DUP2 ADD SWAP1 PUSH2 0x203 SWAP2 SWAP1 PUSH2 0xA75 JUMP JUMPDEST PUSH2 0x7EA JUMP JUMPDEST PUSH1 0x40 MLOAD PUSH2 0x215 SWAP2 SWAP1 PUSH2 0xAD0 JUMP JUMPDEST PUSH1 0x40 MLOAD DUP1 SWAP2 SUB SWAP1 RETURN JUMPDEST PUSH2 0x238 PUSH1 0x4 DUP1 CALLDATASIZE SUB DUP2 ADD SWAP1 PUSH2 0x233 SWAP2 SWAP1 PUSH2 0xBF9 JUMP JUMPDEST PUSH2 0x905 JUMP JUMPDEST PUSH1 0x40 MLOAD PUSH2 0x245 SWAP2 SWAP1 PUSH2 0xAFA JUMP JUMPDEST PUSH1 0x40 MLOAD DUP1 SWAP2 SUB SWAP1 RETURN JUMPDEST PUSH1 0x3 DUP1 SLOAD PUSH2 0x25B SWAP1 PUSH2 0xC68 JUMP JUMPDEST DUP1 PUSH1 0x1F ADD PUSH1 0x20 DUP1 SWAP2 DIV MUL PUSH1 0x20 ADD PUSH1 0x40 MLOAD SWAP1 DUP2 ADD PUSH1 0x40 MSTORE DUP1 SWAP3 SWAP2 SWAP1 DUP2 DUP2 MSTORE PUSH1 0x20 ADD DUP3 DUP1 SLOAD PUSH2 0x287 SWAP1 PUSH2 0xC68 JUMP JUMPDEST DUP1 ISZERO PUSH2 0x2D4 JUMPI DUP1 PUSH1 0x1F LT PUSH2 0x2A9 JUMPI PUSH2 0x100 DUP1 DUP4 SLOAD DIV MUL DUP4 MSTORE SWAP2 PUSH1 0x20 ADD SWAP2 PUSH2 0x2D4 JUMP JUMPDEST DUP3 ADD SWAP2 SWAP1 PUSH1 0x0 MSTORE PUSH1 0x20 PUSH1 0x0 KECCAK256 SWAP1 JUMPDEST DUP2 SLOAD DUP2 MSTORE SWAP1 PUSH1 0x1 ADD SWAP1 PUSH1 0x20 ADD DUP1 DUP4 GT PUSH2 0x2B7 JUMPI DUP3 SWAP1 SUB PUSH1 0x1F AND DUP3 ADD SWAP2 JUMPDEST POP POP POP POP POP DUP2 JUMP JUMPDEST PUSH1 0x0 DUP2 PUSH1 0x1 PUSH1 0x0 CALLER PUSH20 0xFFFFFFFFFFFFFFFFFFFFFFFFFFFFFFFFFFFFFFFF AND PUSH20 0xFFFFFFFFFFFFFFFFFFFFFFFFFFFFFFFFFFFFFFFF AND DUP2 MSTORE PUSH1 0x20 ADD SWAP1 DUP2 MSTORE PUSH1 0x20 ADD PUSH1 0x0 KECCAK256 PUSH1 0x0 DUP6 PUSH20 0xFFFFFFFFFFFFFFFFFFFFFFFFFFFFFFFFFFFFFFFF AND PUSH20 0xFFFFFFFFFFFFFFFFFFFFFFFFFFFFFFFFFFFFFFFF AND DUP2 MSTORE PUSH1 0x20 ADD SWAP1 DUP2 MSTORE PUSH1 0x20 ADD PUSH1 0x0 KECCAK256 DUP2 SWAP1 SSTORE POP DUP3 PUSH20 0xFFFFFFFFFFFFFFFFFFFFFFFFFFFFFFFFFFFFFFFF AND CALLER PUSH20 0xFFFFFFFFFFFFFFFFFFFFFFFFFFFFFFFFFFFFFFFF AND PUSH32 0x8C5BE1E5EBEC7D5BD14F71427D1E84F3DD0314C0F7B2291E5B200AC8C7C3B925 DUP5 PUSH1 0x40 MLOAD PUSH2 0x3BC SWAP2 SWAP1 PUSH2 0xAFA JUMP JUMPDEST PUSH1 0x40 MLOAD DUP1 SWAP2 SUB SWAP1 LOG3 PUSH1 0x1 SWAP1 POP SWAP3 SWAP2 POP POP JUMP JUMPDEST PUSH1 0x2 SLOAD DUP2 JUMP JUMPDEST PUSH1 0x0 DUP2 PUSH1 0x1 PUSH1 0x0 DUP7 PUSH20 0xFFFFFFFFFFFFFFFFFFFFFFFFFFFFFFFFFFFFFFFF AND PUSH20 0xFFFFFFFFFFFFFFFFFFFFFFFFFFFFFFFFFFFFFFFF AND DUP2 MSTORE PUSH1 0x20 ADD SWAP1 DUP2 MSTORE PUSH1 0x20 ADD PUSH1 0x0 KECCAK256 PUSH1 0x0 CALLER PUSH20 0xFFFFFFFFFFFFFFFFFFFFFFFFFFFFFFFFFFFFFFFF AND PUSH20 0xFFFFFFFFFFFFFFFFFFFFFFFFFFFFFFFFFFFFFFFF AND DUP2 MSTORE PUSH1 0x20 ADD SWAP1 DUP2 MSTORE PUSH1 0x20 ADD PUSH1 0x0 KECCAK256 PUSH1 0x0 DUP3 DUP3 SLOAD PUSH2 0x462 SWAP2 SWAP1 PUSH2 0xCC8 JUMP JUMPDEST SWAP3 POP POP DUP2 SWAP1 SSTORE POP DUP2 PUSH1 0x0 DUP1 DUP7 PUSH20 0xFFFFFFFFFFFFFFFFFFFFFFFFFFFFFFFFFFFFFFFF AND PUSH20 0xFFFFFFFFFFFFFFFFFFFFFFFFFFFFFFFFFFFFFFFF AND DUP2 MSTORE PUSH1 0x20 ADD SWAP1 DUP2 MSTORE PUSH1 0x20 ADD PUSH1 0x0 KECCAK256 PUSH1 0x0 DUP3 DUP3 SLOAD PUSH2 0x4B7 SWAP2 SWAP1 PUSH2 0xCC8 JUMP JUMPDEST SWAP3 POP POP DUP2 SWAP1 SSTORE POP DUP2 PUSH1 0x0 DUP1 DUP6 PUSH20 0xFFFFFFFFFFFFFFFFFFFFFFFFFFFFFFFFFFFFFFFF AND PUSH20 0xFFFFFFFFFFFFFFFFFFFFFFFFFFFFFFFFFFFFFFFF AND DUP2 MSTORE PUSH1 0x20 ADD SWAP1 DUP2 MSTORE PUSH1 0x20 ADD PUSH1 0x0 KECCAK256 PUSH1 0x0 DUP3 DUP3 SLOAD PUSH2 0x50C SWAP2 SWAP1 PUSH2 0xCFC JUMP JUMPDEST SWAP3 POP POP DUP2 SWAP1 SSTORE POP DUP3 PUSH20 0xFFFFFFFFFFFFFFFFFFFFFFFFFFFFFFFFFFFFFFFF AND DUP5 PUSH20 0xFFFFFFFFFFFFFFFFFFFFFFFFFFFFFFFFFFFFFFFF AND PUSH32 0xDDF252AD1BE2C89B69C2B068FC378DAA952BA7F163C4A11628F55A4DF523B3EF DUP5 PUSH1 0x40 MLOAD PUSH2 0x570 SWAP2 SWAP1 PUSH2 0xAFA JUMP JUMPDEST PUSH1 0x40 MLOAD DUP1 SWAP2 SUB SWAP1 LOG3 PUSH1 0x1 SWAP1 POP SWAP4 SWAP3 POP POP POP JUMP JUMPDEST PUSH1 0x5 PUSH1 0x0 SWAP1 SLOAD SWAP1 PUSH2 0x100 EXP SWAP1 DIV PUSH1 0xFF AND DUP2 JUMP JUMPDEST DUP1 PUSH1 0x0 DUP1 CALLER PUSH20 0xFFFFFFFFFFFFFFFFFFFFFFFFFFFFFFFFFFFFFFFF AND PUSH20 0xFFFFFFFFFFFFFFFFFFFFFFFFFFFFFFFFFFFFFFFF AND DUP2 MSTORE PUSH1 0x20 ADD SWAP1 DUP2 MSTORE PUSH1 0x20 ADD PUSH1 0x0 KECCAK256 PUSH1 0x0 DUP3 DUP3 SLOAD PUSH2 0x5E4 SWAP2 SWAP1 PUSH2 0xCC8 JUMP JUMPDEST SWAP3 POP POP DUP2 SWAP1 SSTORE POP DUP1 PUSH1 0x2 PUSH1 0x0 DUP3 DUP3 SLOAD PUSH2 0x5FD SWAP2 SWAP1 PUSH2 0xCC8 JUMP JUMPDEST SWAP3 POP POP DUP2 SWAP1 SSTORE POP PUSH1 0x0 PUSH20 0xFFFFFFFFFFFFFFFFFFFFFFFFFFFFFFFFFFFFFFFF AND CALLER PUSH20 0xFFFFFFFFFFFFFFFFFFFFFFFFFFFFFFFFFFFFFFFF AND PUSH32 0xDDF252AD1BE2C89B69C2B068FC378DAA952BA7F163C4A11628F55A4DF523B3EF DUP4 PUSH1 0x40 MLOAD PUSH2 0x662 SWAP2 SWAP1 PUSH2 0xAFA JUMP JUMPDEST PUSH1 0x40 MLOAD DUP1 SWAP2 SUB SWAP1 LOG3 POP JUMP JUMPDEST PUSH1 0x0 PUSH1 0x20 MSTORE DUP1 PUSH1 0x0 MSTORE PUSH1 0x40 PUSH1 0x0 KECCAK256 PUSH1 0x0 SWAP2 POP SWAP1 POP SLOAD DUP2 JUMP JUMPDEST PUSH1 0x4 DUP1 SLOAD PUSH2 0x692 SWAP1 PUSH2 0xC68 JUMP JUMPDEST DUP1 PUSH1 0x1F ADD PUSH1 0x20 DUP1 SWAP2 DIV MUL PUSH1 0x20 ADD PUSH1 0x40 MLOAD SWAP1 DUP2 ADD PUSH1 0x40 MSTORE DUP1 SWAP3 SWAP2 SWAP1 DUP2 DUP2 MSTORE PUSH1 0x20 ADD DUP3 DUP1 SLOAD PUSH2 0x6BE SWAP1 PUSH2 0xC68 JUMP JUMPDEST DUP1 ISZERO PUSH2 0x70B JUMPI DUP1 PUSH1 0x1F LT PUSH2 0x6E0 JUMPI PUSH2 0x100 DUP1 DUP4 SLOAD DIV MUL DUP4 MSTORE SWAP2 PUSH1 0x20 ADD SWAP2 PUSH2 0x70B JUMP JUMPDEST DUP3 ADD SWAP2 SWAP1 PUSH1 0x0 MSTORE PUSH1 0x20 PUSH1 0x0 KECCAK256 SWAP1 JUMPDEST DUP2 SLOAD DUP2 MSTORE SWAP1 PUSH1 0x1 ADD SWAP1 PUSH1 0x20 ADD DUP1 DUP4 GT PUSH2 0x6EE JUMPI DUP3 SWAP1 SUB PUSH1 0x1F AND DUP3 ADD SWAP2 JUMPDEST POP POP POP POP POP DUP2 JUMP JUMPDEST DUP1 PUSH1 0x0 DUP1 CALLER PUSH20 0xFFFFFFFFFFFFFFFFFFFFFFFFFFFFFFFFFFFFFFFF AND PUSH20 0xFFFFFFFFFFFFFFFFFFFFFFFFFFFFFFFFFFFFFFFF AND DUP2 MSTORE PUSH1 0x20 ADD SWAP1 DUP2 MSTORE PUSH1 0x20 ADD PUSH1 0x0 KECCAK256 PUSH1 0x0 DUP3 DUP3 SLOAD PUSH2 0x761 SWAP2 SWAP1 PUSH2 0xCFC JUMP JUMPDEST SWAP3 POP POP DUP2 SWAP1 SSTORE POP DUP1 PUSH1 0x2 PUSH1 0x0 DUP3 DUP3 SLOAD PUSH2 0x77A SWAP2 SWAP1 PUSH2 0xCFC JUMP JUMPDEST SWAP3 POP POP DUP2 SWAP1 SSTORE POP CALLER PUSH20 0xFFFFFFFFFFFFFFFFFFFFFFFFFFFFFFFFFFFFFFFF AND PUSH1 0x0 PUSH20 0xFFFFFFFFFFFFFFFFFFFFFFFFFFFFFFFFFFFFFFFF AND PUSH32 0xDDF252AD1BE2C89B69C2B068FC378DAA952BA7F163C4A11628F55A4DF523B3EF DUP4 PUSH1 0x40 MLOAD PUSH2 0x7DF SWAP2 SWAP1 PUSH2 0xAFA JUMP JUMPDEST PUSH1 0x40 MLOAD DUP1 SWAP2 SUB SWAP1 LOG3 POP JUMP JUMPDEST PUSH1 0x0 DUP2 PUSH1 0x0 DUP1 CALLER PUSH20 0xFFFFFFFFFFFFFFFFFFFFFFFFFFFFFFFFFFFFFFFF AND PUSH20 0xFFFFFFFFFFFFFFFFFFFFFFFFFFFFFFFFFFFFFFFF AND DUP2 MSTORE PUSH1 0x20 ADD SWAP1 DUP2 MSTORE PUSH1 0x20 ADD PUSH1 0x0 KECCAK256 PUSH1 0x0 DUP3 DUP3 SLOAD PUSH2 0x83A SWAP2 SWAP1 PUSH2 0xCC8 JUMP JUMPDEST SWAP3 POP POP DUP2 SWAP1 SSTORE POP DUP2 PUSH1 0x0 DUP1 DUP6 PUSH20 0xFFFFFFFFFFFFFFFFFFFFFFFFFFFFFFFFFFFFFFFF AND PUSH20 0xFFFFFFFFFFFFFFFFFFFFFFFFFFFFFFFFFFFFFFFF AND DUP2 MSTORE PUSH1 0x20 ADD SWAP1 DUP2 MSTORE PUSH1 0x20 ADD PUSH1 0x0 KECCAK256 PUSH1 0x0 DUP3 DUP3 SLOAD PUSH2 0x88F SWAP2 SWAP1 PUSH2 0xCFC JUMP JUMPDEST SWAP3 POP POP DUP2 SWAP1 SSTORE POP DUP3 PUSH20 0xFFFFFFFFFFFFFFFFFFFFFFFFFFFFFFFFFFFFFFFF AND CALLER PUSH20 0xFFFFFFFFFFFFFFFFFFFFFFFFFFFFFFFFFFFFFFFF AND PUSH32 0xDDF252AD1BE2C89B69C2B068FC378DAA952BA7F163C4A11628F55A4DF523B3EF DUP5 PUSH1 0x40 MLOAD PUSH2 0x8F3 SWAP2 SWAP1 PUSH2 0xAFA JUMP JUMPDEST PUSH1 0x40 MLOAD DUP1 SWAP2 SUB SWAP1 LOG3 PUSH1 0x1 SWAP1 POP SWAP3 SWAP2 POP POP JUMP JUMPDEST PUSH1 0x1 PUSH1 0x20 MSTORE DUP2 PUSH1 0x0 MSTORE PUSH1 0x40 PUSH1 0x0 KECCAK256 PUSH1 0x20 MSTORE DUP1 PUSH1 0x0 MSTORE PUSH1 0x40 PUSH1 0x0 KECCAK256 PUSH1 0x0 SWAP2 POP SWAP2 POP POP SLOAD DUP2 JUMP JUMPDEST PUSH1 0x0 DUP2 MLOAD SWAP1 POP SWAP2 SWAP1 POP JUMP JUMPDEST PUSH1 0x0 DUP3 DUP3 MSTORE PUSH1 0x20 DUP3 ADD SWAP1 POP SWAP3 SWAP2 POP POP JUMP JUMPDEST PUSH1 0x0 JUMPDEST DUP4 DUP2 LT ISZERO PUSH2 0x964 JUMPI DUP1 DUP3 ADD MLOAD DUP2 DUP5 ADD MSTORE PUSH1 0x20 DUP2 ADD SWAP1 POP PUSH2 0x949 JUMP JUMPDEST PUSH1 0x0 DUP5 DUP5 ADD MSTORE POP POP POP POP JUMP JUMPDEST PUSH1 0x0 PUSH1 0x1F NOT PUSH1 0x1F DUP4 ADD AND SWAP1 POP SWAP2 SWAP1 POP JUMP JUMPDEST PUSH1 0x0 PUSH2 0x98C DUP3 PUSH2 0x92A JUMP JUMPDEST PUSH2 0x996 DUP2 DUP6 PUSH2 0x935 JUMP JUMPDEST SWAP4 POP PUSH2 0x9A6 DUP2 DUP6 PUSH1 0x20 DUP7 ADD PUSH2 0x946 JUMP JUMPDEST PUSH2 0x9AF DUP2 PUSH2 0x970 JUMP JUMPDEST DUP5 ADD SWAP2 POP POP SWAP3 SWAP2 POP POP JUMP JUMPDEST PUSH1 0x0 PUSH1 0x20 DUP3 ADD SWAP1 POP DUP2 DUP2 SUB PUSH1 0x0 DUP4 ADD MSTORE PUSH2 0x9D4 DUP2 DUP5 PUSH2 0x981 JUMP JUMPDEST SWAP1 POP SWAP3 SWAP2 POP POP JUMP JUMPDEST PUSH1 0x0 DUP1 REVERT JUMPDEST PUSH1 0x0 PUSH20 0xFFFFFFFFFFFFFFFFFFFFFFFFFFFFFFFFFFFFFFFF DUP3 AND SWAP1 POP SWAP2 SWAP1 POP JUMP JUMPDEST PUSH1 0x0 PUSH2 0xA0C DUP3 PUSH2 0x9E1 JUMP JUMPDEST SWAP1 POP SWAP2 SWAP1 POP JUMP JUMPDEST PUSH2 0xA1C DUP2 PUSH2 0xA01 JUMP JUMPDEST DUP2 EQ PUSH2 0xA27 JUMPI PUSH1 0x0 DUP1 REVERT JUMPDEST POP JUMP JUMPDEST PUSH1 0x0 DUP2 CALLDATALOAD SWAP1 POP PUSH2 0xA39 DUP2 PUSH2 0xA13 JUMP JUMPDEST SWAP3 SWAP2 POP POP JUMP JUMPDEST PUSH1 0x0 DUP2 SWAP1 POP SWAP2 SWAP1 POP JUMP JUMPDEST PUSH2 0xA52 DUP2 PUSH2 0xA3F JUMP JUMPDEST DUP2 EQ PUSH2 0xA5D JUMPI PUSH1 0x0 DUP1 REVERT JUMPDEST POP JUMP JUMPDEST PUSH1 0x0 DUP2 CALLDATALOAD SWAP1 POP PUSH2 0xA6F DUP2 PUSH2 0xA49 JUMP JUMPDEST SWAP3 SWAP2 POP POP JUMP JUMPDEST PUSH1 0x0 DUP1 PUSH1 0x40 DUP4 DUP6 SUB SLT ISZERO PUSH2 0xA8C JUMPI PUSH2 0xA8B PUSH2 0x9DC JUMP JUMPDEST JUMPDEST PUSH1 0x0 PUSH2 0xA9A DUP6 DUP3 DUP7 ADD PUSH2 0xA2A JUMP JUMPDEST SWAP3 POP POP PUSH1 0x20 PUSH2 0xAAB DUP6 DUP3 DUP7 ADD PUSH2 0xA60 JUMP JUMPDEST SWAP2 POP POP SWAP3 POP SWAP3 SWAP1 POP JUMP JUMPDEST PUSH1 0x0 DUP2 ISZERO ISZERO SWAP1 POP SWAP2 SWAP1 POP JUMP JUMPDEST PUSH2 0xACA DUP2 PUSH2 0xAB5 JUMP JUMPDEST DUP3 MSTORE POP POP JUMP JUMPDEST PUSH1 0x0 PUSH1 0x20 DUP3 ADD SWAP1 POP PUSH2 0xAE5 PUSH1 0x0 DUP4 ADD DUP5 PUSH2 0xAC1 JUMP JUMPDEST SWAP3 SWAP2 POP POP JUMP JUMPDEST PUSH2 0xAF4 DUP2 PUSH2 0xA3F JUMP JUMPDEST DUP3 MSTORE POP POP JUMP JUMPDEST PUSH1 0x0 PUSH1 0x20 DUP3 ADD SWAP1 POP PUSH2 0xB0F PUSH1 0x0 DUP4 ADD DUP5 PUSH2 0xAEB JUMP JUMPDEST SWAP3 SWAP2 POP POP JUMP JUMPDEST PUSH1 0x0 DUP1 PUSH1 0x0 PUSH1 0x60 DUP5 DUP7 SUB SLT ISZERO PUSH2 0xB2E JUMPI PUSH2 0xB2D PUSH2 0x9DC JUMP JUMPDEST JUMPDEST PUSH1 0x0 PUSH2 0xB3C DUP7 DUP3 DUP8 ADD PUSH2 0xA2A JUMP JUMPDEST SWAP4 POP POP PUSH1 0x20 PUSH2 0xB4D DUP7 DUP3 DUP8 ADD PUSH2 0xA2A JUMP JUMPDEST SWAP3 POP POP PUSH1 0x40 PUSH2 0xB5E DUP7 DUP3 DUP8 ADD PUSH2 0xA60 JUMP JUMPDEST SWAP2 POP POP SWAP3 POP SWAP3 POP SWAP3 JUMP JUMPDEST PUSH1 0x0 PUSH1 0xFF DUP3 AND SWAP1 POP SWAP2 SWAP1 POP JUMP JUMPDEST PUSH2 0xB7E DUP2 PUSH2 0xB68 JUMP JUMPDEST DUP3 MSTORE POP POP JUMP JUMPDEST PUSH1 0x0 PUSH1 0x20 DUP3 ADD SWAP1 POP PUSH2 0xB99 PUSH1 0x0 DUP4 ADD DUP5 PUSH2 0xB75 JUMP JUMPDEST SWAP3 SWAP2 POP POP JUMP JUMPDEST PUSH1 0x0 PUSH1 0x20 DUP3 DUP5 SUB SLT ISZERO PUSH2 0xBB5 JUMPI PUSH2 0xBB4 PUSH2 0x9DC JUMP JUMPDEST JUMPDEST PUSH1 0x0 PUSH2 0xBC3 DUP5 DUP3 DUP6 ADD PUSH2 0xA60 JUMP JUMPDEST SWAP2 POP POP SWAP3 SWAP2 POP POP JUMP JUMPDEST PUSH1 0x0 PUSH1 0x20 DUP3 DUP5 SUB SLT ISZERO PUSH2 0xBE2 JUMPI PUSH2 0xBE1 PUSH2 0x9DC JUMP JUMPDEST JUMPDEST PUSH1 0x0 PUSH2 0xBF0 DUP5 DUP3 DUP6 ADD PUSH2 0xA2A JUMP JUMPDEST SWAP2 POP POP SWAP3 SWAP2 POP POP JUMP JUMPDEST PUSH1 0x0 DUP1 PUSH1 0x40 DUP4 DUP6 SUB SLT ISZERO PUSH2 0xC10 JUMPI PUSH2 0xC0F PUSH2 0x9DC JUMP JUMPDEST JUMPDEST PUSH1 0x0 PUSH2 0xC1E DUP6 DUP3 DUP7 ADD PUSH2 0xA2A JUMP JUMPDEST SWAP3 POP POP PUSH1 0x20 PUSH2 0xC2F DUP6 DUP3 DUP7 ADD PUSH2 0xA2A JUMP JUMPDEST SWAP2 POP POP SWAP3 POP SWAP3 SWAP1 POP JUMP JUMPDEST PUSH32 0x4E487B7100000000000000000000000000000000000000000000000000000000 PUSH1 0x0 MSTORE PUSH1 0x22 PUSH1 0x4 MSTORE PUSH1 0x24 PUSH1 0x0 REVERT JUMPDEST PUSH1 0x0 PUSH1 0x2 DUP3 DIV SWAP1 POP PUSH1 0x1 DUP3 AND DUP1 PUSH2 0xC80 JUMPI PUSH1 0x7F DUP3 AND SWAP2 POP JUMPDEST PUSH1 0x20 DUP3 LT DUP2 SUB PUSH2 0xC93 JUMPI PUSH2 0xC92 PUSH2 0xC39 JUMP JUMPDEST JUMPDEST POP SWAP2 SWAP1 POP JUMP JUMPDEST PUSH32 0x4E487B7100000000000000000000000000000000000000000000000000000000 PUSH1 0x0 MSTORE PUSH1 0x11 PUSH1 0x4 MSTORE PUSH1 0x24 PUSH1 0x0 REVERT JUMPDEST PUSH1 0x0 PUSH2 0xCD3 DUP3 PUSH2 0xA3F JUMP JUMPDEST SWAP2 POP PUSH2 0xCDE DUP4 PUSH2 0xA3F JUMP JUMPDEST SWAP3 POP DUP3 DUP3 SUB SWAP1 POP DUP2 DUP2 GT ISZERO PUSH2 0xCF6 JUMPI PUSH2 0xCF5 PUSH2 0xC99 JUMP JUMPDEST JUMPDEST SWAP3 SWAP2 POP POP JUMP JUMPDEST PUSH1 0x0 PUSH2 0xD07 DUP3 PUSH2 0xA3F JUMP JUMPDEST SWAP2 POP PUSH2 0xD12 DUP4 PUSH2 0xA3F JUMP JUMPDEST SWAP3 POP DUP3 DUP3 ADD SWAP1 POP DUP1 DUP3 GT ISZERO PUSH2 0xD2A JUMPI PUSH2 0xD29 PUSH2 0xC99 JUMP JUMPDEST JUMPDEST SWAP3 SWAP2 POP POP JUMP INVALID LOG2 PUSH5 0x6970667358 0x22 SLT KECCAK256 0xB3 0xB8 0xAE 0xAE PUSH12 0x89B074353A683BD9449FFEB8 GASLIMIT SAR 0x2D DUP14 0xEC PUSH23 0xA81E3D5B804E5C5C5364736F6C63430008190033000000 "
				},
				"gasEstimates": {
					"creation": {
						"codeDepositCost": "686000",
						"executionCost": "infinite",
						"totalCost": "infinite"
					},
					"external": {
						"allowance(address,address)": "infinite",
						"approve(address,uint256)": "infinite",
						"balanceOf(address)": "2836",
						"burn(uint256)": "infinite",
						"decimals()": "2560",
						"mint(uint256)": "infinite",
						"name()": "infinite",
						"symbol()": "infinite",
						"totalSupply()": "2474",
						"transfer(address,uint256)": "infinite",
						"transferFrom(address,address,uint256)": "infinite"
					}
				},
				"methodIdentifiers": {
					"allowance(address,address)": "dd62ed3e",
					"approve(address,uint256)": "095ea7b3",
					"balanceOf(address)": "70a08231",
					"burn(uint256)": "42966c68",
					"decimals()": "313ce567",
					"mint(uint256)": "a0712d68",
					"name()": "06fdde03",
					"symbol()": "95d89b41",
					"totalSupply()": "18160ddd",
					"transfer(address,uint256)": "a9059cbb",
					"transferFrom(address,address,uint256)": "23b872dd"
				}
			},
			"storageLayout": {
				"storage": [
					{
						"astId": 9,
						"contract": "contracts/31_Erc20.sol:ERC20",
						"label": "balanceOf",
						"offset": 0,
						"slot": "0",
						"type": "t_mapping(t_address,t_uint256)"
					},
					{
						"astId": 16,
						"contract": "contracts/31_Erc20.sol:ERC20",
						"label": "allowance",
						"offset": 0,
						"slot": "1",
						"type": "t_mapping(t_address,t_mapping(t_address,t_uint256))"
					},
					{
						"astId": 19,
						"contract": "contracts/31_Erc20.sol:ERC20",
						"label": "totalSupply",
						"offset": 0,
						"slot": "2",
						"type": "t_uint256"
					},
					{
						"astId": 21,
						"contract": "contracts/31_Erc20.sol:ERC20",
						"label": "name",
						"offset": 0,
						"slot": "3",
						"type": "t_string_storage"
					},
					{
						"astId": 23,
						"contract": "contracts/31_Erc20.sol:ERC20",
						"label": "symbol",
						"offset": 0,
						"slot": "4",
						"type": "t_string_storage"
					},
					{
						"astId": 26,
						"contract": "contracts/31_Erc20.sol:ERC20",
						"label": "decimals",
						"offset": 0,
						"slot": "5",
						"type": "t_uint8"
					}
				],
				"types": {
					"t_address": {
						"encoding": "inplace",
						"label": "address",
						"numberOfBytes": "20"
					},
					"t_mapping(t_address,t_mapping(t_address,t_uint256))": {
						"encoding": "mapping",
						"key": "t_address",
						"label": "mapping(address => mapping(address => uint256))",
						"numberOfBytes": "32",
						"value": "t_mapping(t_address,t_uint256)"
					},
					"t_mapping(t_address,t_uint256)": {
						"encoding": "mapping",
						"key": "t_address",
						"label": "mapping(address => uint256)",
						"numberOfBytes": "32",
						"value": "t_uint256"
					},
					"t_string_storage": {
						"encoding": "bytes",
						"label": "string",
						"numberOfBytes": "32"
					},
					"t_uint256": {
						"encoding": "inplace",
						"label": "uint256",
						"numberOfBytes": "32"
					},
					"t_uint8": {
						"encoding": "inplace",
						"label": "uint8",
						"numberOfBytes": "1"
					}
				}
			},
			"userdoc": {
				"kind": "user",
				"methods": {},
				"version": 1
			}
		}
	}
}