{
	"contracts/7_Mapping.sol": {
		"Mapping": {
			"abi": [
				{
					"inputs": [
						{
							"internalType": "uint256",
							"name": "",
							"type": "uint256"
						}
					],
					"name": "mapping1",
					"outputs": [
						{
							"internalType": "address",
							"name": "",
							"type": "address"
						}
					],
					"stateMutability": "view",
					"type": "function"
				},
				{
					"inputs": [
						{
							"internalType": "address",
							"name": "",
							"type": "address"
						}
					],
					"name": "mapping2",
					"outputs": [
						{
							"internalType": "address",
							"name": "",
							"type": "address"
						}
					],
					"stateMutability": "view",
					"type": "function"
				},
				{
					"inputs": [
						{
							"internalType": "uint256",
							"name": "",
							"type": "uint256"
						}
					],
					"name": "mapping3",
					"outputs": [
						{
							"internalType": "uint256",
							"name": "id",
							"type": "uint256"
						},
						{
							"internalType": "uint256",
							"name": "score",
							"type": "uint256"
						}
					],
					"stateMutability": "view",
					"type": "function"
				},
				{
					"inputs": [
						{
							"internalType": "uint256",
							"name": "key",
							"type": "uint256"
						},
						{
							"internalType": "address",
							"name": "value",
							"type": "address"
						}
					],
					"name": "setMappingValue",
					"outputs": [],
					"stateMutability": "nonpayable",
					"type": "function"
				}
			],
			"devdoc": {
				"kind": "dev",
				"methods": {},
				"version": 1
			},
			"evm": {
				"assembly": "    /* \"contracts/7_Mapping.sol\":73:1155  contract Mapping {... */\n  mstore(0x40, 0x80)\n  callvalue\n  dup1\n  iszero\n  tag_1\n  jumpi\n  0x00\n  dup1\n  revert\ntag_1:\n  pop\n  dataSize(sub_0)\n  dup1\n  dataOffset(sub_0)\n  0x00\n  codecopy\n  0x00\n  return\nstop\n\nsub_0: assembly {\n        /* \"contracts/7_Mapping.sol\":73:1155  contract Mapping {... */\n      mstore(0x40, 0x80)\n      callvalue\n      dup1\n      iszero\n      tag_1\n      jumpi\n      0x00\n      dup1\n      revert\n    tag_1:\n      pop\n      jumpi(tag_2, lt(calldatasize, 0x04))\n      shr(0xe0, calldataload(0x00))\n      dup1\n      0x4fb1c441\n      eq\n      tag_3\n      jumpi\n      dup1\n      0x5c4a56ed\n      eq\n      tag_4\n      jumpi\n      dup1\n      0x74897462\n      eq\n      tag_5\n      jumpi\n      dup1\n      0xf9f9d624\n      eq\n      tag_6\n      jumpi\n    tag_2:\n      0x00\n      dup1\n      revert\n        /* \"contracts/7_Mapping.sol\":513:551  mapping(uint=>Student) public mapping3 */\n    tag_3:\n      tag_7\n      0x04\n      dup1\n      calldatasize\n      sub\n      dup2\n      add\n      swap1\n      tag_8\n      swap2\n      swap1\n      tag_9\n      jump\t// in\n    tag_8:\n      tag_10\n      jump\t// in\n    tag_7:\n      mload(0x40)\n      tag_11\n      swap3\n      swap2\n      swap1\n      tag_12\n      jump\t// in\n    tag_11:\n      mload(0x40)\n      dup1\n      swap2\n      sub\n      swap1\n      return\n        /* \"contracts/7_Mapping.sol\":211:252  mapping(address=>address) public mapping2 */\n    tag_4:\n      tag_13\n      0x04\n      dup1\n      calldatasize\n      sub\n      dup2\n      add\n      swap1\n      tag_14\n      swap2\n      swap1\n      tag_15\n      jump\t// in\n    tag_14:\n      tag_16\n      jump\t// in\n    tag_13:\n      mload(0x40)\n      tag_17\n      swap2\n      swap1\n      tag_18\n      jump\t// in\n    tag_17:\n      mload(0x40)\n      dup1\n      swap2\n      sub\n      swap1\n      return\n        /* \"contracts/7_Mapping.sol\":851:945  function setMappingValue(uint key, address value) public{... */\n    tag_5:\n      tag_19\n      0x04\n      dup1\n      calldatasize\n      sub\n      dup2\n      add\n      swap1\n      tag_20\n      swap2\n      swap1\n      tag_21\n      jump\t// in\n    tag_20:\n      tag_22\n      jump\t// in\n    tag_19:\n      stop\n        /* \"contracts/7_Mapping.sol\":167:205  mapping(uint=>address) public mapping1 */\n    tag_6:\n      tag_23\n      0x04\n      dup1\n      calldatasize\n      sub\n      dup2\n      add\n      swap1\n      tag_24\n      swap2\n      swap1\n      tag_9\n      jump\t// in\n    tag_24:\n      tag_25\n      jump\t// in\n    tag_23:\n      mload(0x40)\n      tag_26\n      swap2\n      swap1\n      tag_18\n      jump\t// in\n    tag_26:\n      mload(0x40)\n      dup1\n      swap2\n      sub\n      swap1\n      return\n        /* \"contracts/7_Mapping.sol\":513:551  mapping(uint=>Student) public mapping3 */\n    tag_10:\n      mstore(0x20, 0x02)\n      dup1\n      0x00\n      mstore\n      keccak256(0x00, 0x40)\n      0x00\n      swap2\n      pop\n      swap1\n      pop\n      dup1\n      0x00\n      add\n      sload\n      swap1\n      dup1\n      0x01\n      add\n      sload\n      swap1\n      pop\n      dup3\n      jump\t// out\n        /* \"contracts/7_Mapping.sol\":211:252  mapping(address=>address) public mapping2 */\n    tag_16:\n      mstore(0x20, 0x01)\n      dup1\n      0x00\n      mstore\n      keccak256(0x00, 0x40)\n      0x00\n      swap2\n      pop\n      sload\n      swap1\n      0x0100\n      exp\n      swap1\n      div\n      0xffffffffffffffffffffffffffffffffffffffff\n      and\n      dup2\n      jump\t// out\n        /* \"contracts/7_Mapping.sol\":851:945  function setMappingValue(uint key, address value) public{... */\n    tag_22:\n        /* \"contracts/7_Mapping.sol\":933:938  value */\n      dup1\n        /* \"contracts/7_Mapping.sol\":917:925  mapping1 */\n      0x00\n        /* \"contracts/7_Mapping.sol\":917:930  mapping1[key] */\n      dup1\n        /* \"contracts/7_Mapping.sol\":926:929  key */\n      dup5\n        /* \"contracts/7_Mapping.sol\":917:930  mapping1[key] */\n      dup2\n      mstore\n      0x20\n      add\n      swap1\n      dup2\n      mstore\n      0x20\n      add\n      0x00\n      keccak256\n      0x00\n        /* \"contracts/7_Mapping.sol\":917:938  mapping1[key] = value */\n      0x0100\n      exp\n      dup2\n      sload\n      dup2\n      0xffffffffffffffffffffffffffffffffffffffff\n      mul\n      not\n      and\n      swap1\n      dup4\n      0xffffffffffffffffffffffffffffffffffffffff\n      and\n      mul\n      or\n      swap1\n      sstore\n      pop\n        /* \"contracts/7_Mapping.sol\":851:945  function setMappingValue(uint key, address value) public{... */\n      pop\n      pop\n      jump\t// out\n        /* \"contracts/7_Mapping.sol\":167:205  mapping(uint=>address) public mapping1 */\n    tag_25:\n      mstore(0x20, 0x00)\n      dup1\n      0x00\n      mstore\n      keccak256(0x00, 0x40)\n      0x00\n      swap2\n      pop\n      sload\n      swap1\n      0x0100\n      exp\n      swap1\n      div\n      0xffffffffffffffffffffffffffffffffffffffff\n      and\n      dup2\n      jump\t// out\n        /* \"#utility.yul\":88:205   */\n    tag_29:\n        /* \"#utility.yul\":197:198   */\n      0x00\n        /* \"#utility.yul\":194:195   */\n      dup1\n        /* \"#utility.yul\":187:199   */\n      revert\n        /* \"#utility.yul\":334:411   */\n    tag_31:\n        /* \"#utility.yul\":371:378   */\n      0x00\n        /* \"#utility.yul\":400:405   */\n      dup2\n        /* \"#utility.yul\":389:405   */\n      swap1\n      pop\n        /* \"#utility.yul\":334:411   */\n      swap2\n      swap1\n      pop\n      jump\t// out\n        /* \"#utility.yul\":417:539   */\n    tag_32:\n        /* \"#utility.yul\":490:514   */\n      tag_46\n        /* \"#utility.yul\":508:513   */\n      dup2\n        /* \"#utility.yul\":490:514   */\n      tag_31\n      jump\t// in\n    tag_46:\n        /* \"#utility.yul\":483:488   */\n      dup2\n        /* \"#utility.yul\":480:515   */\n      eq\n        /* \"#utility.yul\":470:533   */\n      tag_47\n      jumpi\n        /* \"#utility.yul\":529:530   */\n      0x00\n        /* \"#utility.yul\":526:527   */\n      dup1\n        /* \"#utility.yul\":519:531   */\n      revert\n        /* \"#utility.yul\":470:533   */\n    tag_47:\n        /* \"#utility.yul\":417:539   */\n      pop\n      jump\t// out\n        /* \"#utility.yul\":545:684   */\n    tag_33:\n        /* \"#utility.yul\":591:596   */\n      0x00\n        /* \"#utility.yul\":629:635   */\n      dup2\n        /* \"#utility.yul\":616:636   */\n      calldataload\n        /* \"#utility.yul\":607:636   */\n      swap1\n      pop\n        /* \"#utility.yul\":645:678   */\n      tag_49\n        /* \"#utility.yul\":672:677   */\n      dup2\n        /* \"#utility.yul\":645:678   */\n      tag_32\n      jump\t// in\n    tag_49:\n        /* \"#utility.yul\":545:684   */\n      swap3\n      swap2\n      pop\n      pop\n      jump\t// out\n        /* \"#utility.yul\":690:1019   */\n    tag_9:\n        /* \"#utility.yul\":749:755   */\n      0x00\n        /* \"#utility.yul\":798:800   */\n      0x20\n        /* \"#utility.yul\":786:795   */\n      dup3\n        /* \"#utility.yul\":777:784   */\n      dup5\n        /* \"#utility.yul\":773:796   */\n      sub\n        /* \"#utility.yul\":769:801   */\n      slt\n        /* \"#utility.yul\":766:885   */\n      iszero\n      tag_51\n      jumpi\n        /* \"#utility.yul\":804:883   */\n      tag_52\n      tag_29\n      jump\t// in\n    tag_52:\n        /* \"#utility.yul\":766:885   */\n    tag_51:\n        /* \"#utility.yul\":924:925   */\n      0x00\n        /* \"#utility.yul\":949:1002   */\n      tag_53\n        /* \"#utility.yul\":994:1001   */\n      dup5\n        /* \"#utility.yul\":985:991   */\n      dup3\n        /* \"#utility.yul\":974:983   */\n      dup6\n        /* \"#utility.yul\":970:992   */\n      add\n        /* \"#utility.yul\":949:1002   */\n      tag_33\n      jump\t// in\n    tag_53:\n        /* \"#utility.yul\":939:1002   */\n      swap2\n      pop\n        /* \"#utility.yul\":895:1012   */\n      pop\n        /* \"#utility.yul\":690:1019   */\n      swap3\n      swap2\n      pop\n      pop\n      jump\t// out\n        /* \"#utility.yul\":1025:1143   */\n    tag_34:\n        /* \"#utility.yul\":1112:1136   */\n      tag_55\n        /* \"#utility.yul\":1130:1135   */\n      dup2\n        /* \"#utility.yul\":1112:1136   */\n      tag_31\n      jump\t// in\n    tag_55:\n        /* \"#utility.yul\":1107:1110   */\n      dup3\n        /* \"#utility.yul\":1100:1137   */\n      mstore\n        /* \"#utility.yul\":1025:1143   */\n      pop\n      pop\n      jump\t// out\n        /* \"#utility.yul\":1149:1481   */\n    tag_12:\n        /* \"#utility.yul\":1270:1274   */\n      0x00\n        /* \"#utility.yul\":1308:1310   */\n      0x40\n        /* \"#utility.yul\":1297:1306   */\n      dup3\n        /* \"#utility.yul\":1293:1311   */\n      add\n        /* \"#utility.yul\":1285:1311   */\n      swap1\n      pop\n        /* \"#utility.yul\":1321:1392   */\n      tag_57\n        /* \"#utility.yul\":1389:1390   */\n      0x00\n        /* \"#utility.yul\":1378:1387   */\n      dup4\n        /* \"#utility.yul\":1374:1391   */\n      add\n        /* \"#utility.yul\":1365:1371   */\n      dup6\n        /* \"#utility.yul\":1321:1392   */\n      tag_34\n      jump\t// in\n    tag_57:\n        /* \"#utility.yul\":1402:1474   */\n      tag_58\n        /* \"#utility.yul\":1470:1472   */\n      0x20\n        /* \"#utility.yul\":1459:1468   */\n      dup4\n        /* \"#utility.yul\":1455:1473   */\n      add\n        /* \"#utility.yul\":1446:1452   */\n      dup5\n        /* \"#utility.yul\":1402:1474   */\n      tag_34\n      jump\t// in\n    tag_58:\n        /* \"#utility.yul\":1149:1481   */\n      swap4\n      swap3\n      pop\n      pop\n      pop\n      jump\t// out\n        /* \"#utility.yul\":1487:1613   */\n    tag_35:\n        /* \"#utility.yul\":1524:1531   */\n      0x00\n        /* \"#utility.yul\":1564:1606   */\n      0xffffffffffffffffffffffffffffffffffffffff\n        /* \"#utility.yul\":1557:1562   */\n      dup3\n        /* \"#utility.yul\":1553:1607   */\n      and\n        /* \"#utility.yul\":1542:1607   */\n      swap1\n      pop\n        /* \"#utility.yul\":1487:1613   */\n      swap2\n      swap1\n      pop\n      jump\t// out\n        /* \"#utility.yul\":1619:1715   */\n    tag_36:\n        /* \"#utility.yul\":1656:1663   */\n      0x00\n        /* \"#utility.yul\":1685:1709   */\n      tag_61\n        /* \"#utility.yul\":1703:1708   */\n      dup3\n        /* \"#utility.yul\":1685:1709   */\n      tag_35\n      jump\t// in\n    tag_61:\n        /* \"#utility.yul\":1674:1709   */\n      swap1\n      pop\n        /* \"#utility.yul\":1619:1715   */\n      swap2\n      swap1\n      pop\n      jump\t// out\n        /* \"#utility.yul\":1721:1843   */\n    tag_37:\n        /* \"#utility.yul\":1794:1818   */\n      tag_63\n        /* \"#utility.yul\":1812:1817   */\n      dup2\n        /* \"#utility.yul\":1794:1818   */\n      tag_36\n      jump\t// in\n    tag_63:\n        /* \"#utility.yul\":1787:1792   */\n      dup2\n        /* \"#utility.yul\":1784:1819   */\n      eq\n        /* \"#utility.yul\":1774:1837   */\n      tag_64\n      jumpi\n        /* \"#utility.yul\":1833:1834   */\n      0x00\n        /* \"#utility.yul\":1830:1831   */\n      dup1\n        /* \"#utility.yul\":1823:1835   */\n      revert\n        /* \"#utility.yul\":1774:1837   */\n    tag_64:\n        /* \"#utility.yul\":1721:1843   */\n      pop\n      jump\t// out\n        /* \"#utility.yul\":1849:1988   */\n    tag_38:\n        /* \"#utility.yul\":1895:1900   */\n      0x00\n        /* \"#utility.yul\":1933:1939   */\n      dup2\n        /* \"#utility.yul\":1920:1940   */\n      calldataload\n        /* \"#utility.yul\":1911:1940   */\n      swap1\n      pop\n        /* \"#utility.yul\":1949:1982   */\n      tag_66\n        /* \"#utility.yul\":1976:1981   */\n      dup2\n        /* \"#utility.yul\":1949:1982   */\n      tag_37\n      jump\t// in\n    tag_66:\n        /* \"#utility.yul\":1849:1988   */\n      swap3\n      swap2\n      pop\n      pop\n      jump\t// out\n        /* \"#utility.yul\":1994:2323   */\n    tag_15:\n        /* \"#utility.yul\":2053:2059   */\n      0x00\n        /* \"#utility.yul\":2102:2104   */\n      0x20\n        /* \"#utility.yul\":2090:2099   */\n      dup3\n        /* \"#utility.yul\":2081:2088   */\n      dup5\n        /* \"#utility.yul\":2077:2100   */\n      sub\n        /* \"#utility.yul\":2073:2105   */\n      slt\n        /* \"#utility.yul\":2070:2189   */\n      iszero\n      tag_68\n      jumpi\n        /* \"#utility.yul\":2108:2187   */\n      tag_69\n      tag_29\n      jump\t// in\n    tag_69:\n        /* \"#utility.yul\":2070:2189   */\n    tag_68:\n        /* \"#utility.yul\":2228:2229   */\n      0x00\n        /* \"#utility.yul\":2253:2306   */\n      tag_70\n        /* \"#utility.yul\":2298:2305   */\n      dup5\n        /* \"#utility.yul\":2289:2295   */\n      dup3\n        /* \"#utility.yul\":2278:2287   */\n      dup6\n        /* \"#utility.yul\":2274:2296   */\n      add\n        /* \"#utility.yul\":2253:2306   */\n      tag_38\n      jump\t// in\n    tag_70:\n        /* \"#utility.yul\":2243:2306   */\n      swap2\n      pop\n        /* \"#utility.yul\":2199:2316   */\n      pop\n        /* \"#utility.yul\":1994:2323   */\n      swap3\n      swap2\n      pop\n      pop\n      jump\t// out\n        /* \"#utility.yul\":2329:2447   */\n    tag_39:\n        /* \"#utility.yul\":2416:2440   */\n      tag_72\n        /* \"#utility.yul\":2434:2439   */\n      dup2\n        /* \"#utility.yul\":2416:2440   */\n      tag_36\n      jump\t// in\n    tag_72:\n        /* \"#utility.yul\":2411:2414   */\n      dup3\n        /* \"#utility.yul\":2404:2441   */\n      mstore\n        /* \"#utility.yul\":2329:2447   */\n      pop\n      pop\n      jump\t// out\n        /* \"#utility.yul\":2453:2675   */\n    tag_18:\n        /* \"#utility.yul\":2546:2550   */\n      0x00\n        /* \"#utility.yul\":2584:2586   */\n      0x20\n        /* \"#utility.yul\":2573:2582   */\n      dup3\n        /* \"#utility.yul\":2569:2587   */\n      add\n        /* \"#utility.yul\":2561:2587   */\n      swap1\n      pop\n        /* \"#utility.yul\":2597:2668   */\n      tag_74\n        /* \"#utility.yul\":2665:2666   */\n      0x00\n        /* \"#utility.yul\":2654:2663   */\n      dup4\n        /* \"#utility.yul\":2650:2667   */\n      add\n        /* \"#utility.yul\":2641:2647   */\n      dup5\n        /* \"#utility.yul\":2597:2668   */\n      tag_39\n      jump\t// in\n    tag_74:\n        /* \"#utility.yul\":2453:2675   */\n      swap3\n      swap2\n      pop\n      pop\n      jump\t// out\n        /* \"#utility.yul\":2681:3155   */\n    tag_21:\n        /* \"#utility.yul\":2749:2755   */\n      0x00\n        /* \"#utility.yul\":2757:2763   */\n      dup1\n        /* \"#utility.yul\":2806:2808   */\n      0x40\n        /* \"#utility.yul\":2794:2803   */\n      dup4\n        /* \"#utility.yul\":2785:2792   */\n      dup6\n        /* \"#utility.yul\":2781:2804   */\n      sub\n        /* \"#utility.yul\":2777:2809   */\n      slt\n        /* \"#utility.yul\":2774:2893   */\n      iszero\n      tag_76\n      jumpi\n        /* \"#utility.yul\":2812:2891   */\n      tag_77\n      tag_29\n      jump\t// in\n    tag_77:\n        /* \"#utility.yul\":2774:2893   */\n    tag_76:\n        /* \"#utility.yul\":2932:2933   */\n      0x00\n        /* \"#utility.yul\":2957:3010   */\n      tag_78\n        /* \"#utility.yul\":3002:3009   */\n      dup6\n        /* \"#utility.yul\":2993:2999   */\n      dup3\n        /* \"#utility.yul\":2982:2991   */\n      dup7\n        /* \"#utility.yul\":2978:3000   */\n      add\n        /* \"#utility.yul\":2957:3010   */\n      tag_33\n      jump\t// in\n    tag_78:\n        /* \"#utility.yul\":2947:3010   */\n      swap3\n      pop\n        /* \"#utility.yul\":2903:3020   */\n      pop\n        /* \"#utility.yul\":3059:3061   */\n      0x20\n        /* \"#utility.yul\":3085:3138   */\n      tag_79\n        /* \"#utility.yul\":3130:3137   */\n      dup6\n        /* \"#utility.yul\":3121:3127   */\n      dup3\n        /* \"#utility.yul\":3110:3119   */\n      dup7\n        /* \"#utility.yul\":3106:3128   */\n      add\n        /* \"#utility.yul\":3085:3138   */\n      tag_38\n      jump\t// in\n    tag_79:\n        /* \"#utility.yul\":3075:3138   */\n      swap2\n      pop\n        /* \"#utility.yul\":3030:3148   */\n      pop\n        /* \"#utility.yul\":2681:3155   */\n      swap3\n      pop\n      swap3\n      swap1\n      pop\n      jump\t// out\n\n    auxdata: 0xa2646970667358221220f2b3a300e56115874f3444c12e6b004f49a640e8ccb5bf02b16d805728ba7e0c64736f6c63430008190033\n}\n",
				"bytecode": {
					"linkReferences": {},
					"object": "6080604052348015600e575f80fd5b506103858061001c5f395ff3fe608060405234801561000f575f80fd5b506004361061004a575f3560e01c80634fb1c4411461004e5780635c4a56ed1461007f57806374897462146100af578063f9f9d624146100cb575b5f80fd5b61006860048036038101906100639190610203565b6100fb565b60405161007692919061023d565b60405180910390f35b610099600480360381019061009491906102be565b61011b565b6040516100a691906102f8565b60405180910390f35b6100c960048036038101906100c49190610311565b61014b565b005b6100e560048036038101906100e09190610203565b61019d565b6040516100f291906102f8565b60405180910390f35b6002602052805f5260405f205f91509050805f0154908060010154905082565b6001602052805f5260405f205f915054906101000a900473ffffffffffffffffffffffffffffffffffffffff1681565b805f808481526020019081526020015f205f6101000a81548173ffffffffffffffffffffffffffffffffffffffff021916908373ffffffffffffffffffffffffffffffffffffffff1602179055505050565b5f602052805f5260405f205f915054906101000a900473ffffffffffffffffffffffffffffffffffffffff1681565b5f80fd5b5f819050919050565b6101e2816101d0565b81146101ec575f80fd5b50565b5f813590506101fd816101d9565b92915050565b5f60208284031215610218576102176101cc565b5b5f610225848285016101ef565b91505092915050565b610237816101d0565b82525050565b5f6040820190506102505f83018561022e565b61025d602083018461022e565b9392505050565b5f73ffffffffffffffffffffffffffffffffffffffff82169050919050565b5f61028d82610264565b9050919050565b61029d81610283565b81146102a7575f80fd5b50565b5f813590506102b881610294565b92915050565b5f602082840312156102d3576102d26101cc565b5b5f6102e0848285016102aa565b91505092915050565b6102f281610283565b82525050565b5f60208201905061030b5f8301846102e9565b92915050565b5f8060408385031215610327576103266101cc565b5b5f610334858286016101ef565b9250506020610345858286016102aa565b915050925092905056fea2646970667358221220f2b3a300e56115874f3444c12e6b004f49a640e8ccb5bf02b16d805728ba7e0c64736f6c63430008190033",
					"opcodes": "PUSH1 0x80 PUSH1 0x40 MSTORE CALLVALUE DUP1 ISZERO PUSH1 0xE JUMPI PUSH0 DUP1 REVERT JUMPDEST POP PUSH2 0x385 DUP1 PUSH2 0x1C PUSH0 CODECOPY PUSH0 RETURN INVALID PUSH1 0x80 PUSH1 0x40 MSTORE CALLVALUE DUP1 ISZERO PUSH2 0xF JUMPI PUSH0 DUP1 REVERT JUMPDEST POP PUSH1 0x4 CALLDATASIZE LT PUSH2 0x4A JUMPI PUSH0 CALLDATALOAD PUSH1 0xE0 SHR DUP1 PUSH4 0x4FB1C441 EQ PUSH2 0x4E JUMPI DUP1 PUSH4 0x5C4A56ED EQ PUSH2 0x7F JUMPI DUP1 PUSH4 0x74897462 EQ PUSH2 0xAF JUMPI DUP1 PUSH4 0xF9F9D624 EQ PUSH2 0xCB JUMPI JUMPDEST PUSH0 DUP1 REVERT JUMPDEST PUSH2 0x68 PUSH1 0x4 DUP1 CALLDATASIZE SUB DUP2 ADD SWAP1 PUSH2 0x63 SWAP2 SWAP1 PUSH2 0x203 JUMP JUMPDEST PUSH2 0xFB JUMP JUMPDEST PUSH1 0x40 MLOAD PUSH2 0x76 SWAP3 SWAP2 SWAP1 PUSH2 0x23D JUMP JUMPDEST PUSH1 0x40 MLOAD DUP1 SWAP2 SUB SWAP1 RETURN JUMPDEST PUSH2 0x99 PUSH1 0x4 DUP1 CALLDATASIZE SUB DUP2 ADD SWAP1 PUSH2 0x94 SWAP2 SWAP1 PUSH2 0x2BE JUMP JUMPDEST PUSH2 0x11B JUMP JUMPDEST PUSH1 0x40 MLOAD PUSH2 0xA6 SWAP2 SWAP1 PUSH2 0x2F8 JUMP JUMPDEST PUSH1 0x40 MLOAD DUP1 SWAP2 SUB SWAP1 RETURN JUMPDEST PUSH2 0xC9 PUSH1 0x4 DUP1 CALLDATASIZE SUB DUP2 ADD SWAP1 PUSH2 0xC4 SWAP2 SWAP1 PUSH2 0x311 JUMP JUMPDEST PUSH2 0x14B JUMP JUMPDEST STOP JUMPDEST PUSH2 0xE5 PUSH1 0x4 DUP1 CALLDATASIZE SUB DUP2 ADD SWAP1 PUSH2 0xE0 SWAP2 SWAP1 PUSH2 0x203 JUMP JUMPDEST PUSH2 0x19D JUMP JUMPDEST PUSH1 0x40 MLOAD PUSH2 0xF2 SWAP2 SWAP1 PUSH2 0x2F8 JUMP JUMPDEST PUSH1 0x40 MLOAD DUP1 SWAP2 SUB SWAP1 RETURN JUMPDEST PUSH1 0x2 PUSH1 0x20 MSTORE DUP1 PUSH0 MSTORE PUSH1 0x40 PUSH0 KECCAK256 PUSH0 SWAP2 POP SWAP1 POP DUP1 PUSH0 ADD SLOAD SWAP1 DUP1 PUSH1 0x1 ADD SLOAD SWAP1 POP DUP3 JUMP JUMPDEST PUSH1 0x1 PUSH1 0x20 MSTORE DUP1 PUSH0 MSTORE PUSH1 0x40 PUSH0 KECCAK256 PUSH0 SWAP2 POP SLOAD SWAP1 PUSH2 0x100 EXP SWAP1 DIV PUSH20 0xFFFFFFFFFFFFFFFFFFFFFFFFFFFFFFFFFFFFFFFF AND DUP2 JUMP JUMPDEST DUP1 PUSH0 DUP1 DUP5 DUP2 MSTORE PUSH1 0x20 ADD SWAP1 DUP2 MSTORE PUSH1 0x20 ADD PUSH0 KECCAK256 PUSH0 PUSH2 0x100 EXP DUP2 SLOAD DUP2 PUSH20 0xFFFFFFFFFFFFFFFFFFFFFFFFFFFFFFFFFFFFFFFF MUL NOT AND SWAP1 DUP4 PUSH20 0xFFFFFFFFFFFFFFFFFFFFFFFFFFFFFFFFFFFFFFFF AND MUL OR SWAP1 SSTORE POP POP POP JUMP JUMPDEST PUSH0 PUSH1 0x20 MSTORE DUP1 PUSH0 MSTORE PUSH1 0x40 PUSH0 KECCAK256 PUSH0 SWAP2 POP SLOAD SWAP1 PUSH2 0x100 EXP SWAP1 DIV PUSH20 0xFFFFFFFFFFFFFFFFFFFFFFFFFFFFFFFFFFFFFFFF AND DUP2 JUMP JUMPDEST PUSH0 DUP1 REVERT JUMPDEST PUSH0 DUP2 SWAP1 POP SWAP2 SWAP1 POP JUMP JUMPDEST PUSH2 0x1E2 DUP2 PUSH2 0x1D0 JUMP JUMPDEST DUP2 EQ PUSH2 0x1EC JUMPI PUSH0 DUP1 REVERT JUMPDEST POP JUMP JUMPDEST PUSH0 DUP2 CALLDATALOAD SWAP1 POP PUSH2 0x1FD DUP2 PUSH2 0x1D9 JUMP JUMPDEST SWAP3 SWAP2 POP POP JUMP JUMPDEST PUSH0 PUSH1 0x20 DUP3 DUP5 SUB SLT ISZERO PUSH2 0x218 JUMPI PUSH2 0x217 PUSH2 0x1CC JUMP JUMPDEST JUMPDEST PUSH0 PUSH2 0x225 DUP5 DUP3 DUP6 ADD PUSH2 0x1EF JUMP JUMPDEST SWAP2 POP POP SWAP3 SWAP2 POP POP JUMP JUMPDEST PUSH2 0x237 DUP2 PUSH2 0x1D0 JUMP JUMPDEST DUP3 MSTORE POP POP JUMP JUMPDEST PUSH0 PUSH1 0x40 DUP3 ADD SWAP1 POP PUSH2 0x250 PUSH0 DUP4 ADD DUP6 PUSH2 0x22E JUMP JUMPDEST PUSH2 0x25D PUSH1 0x20 DUP4 ADD DUP5 PUSH2 0x22E JUMP JUMPDEST SWAP4 SWAP3 POP POP POP JUMP JUMPDEST PUSH0 PUSH20 0xFFFFFFFFFFFFFFFFFFFFFFFFFFFFFFFFFFFFFFFF DUP3 AND SWAP1 POP SWAP2 SWAP1 POP JUMP JUMPDEST PUSH0 PUSH2 0x28D DUP3 PUSH2 0x264 JUMP JUMPDEST SWAP1 POP SWAP2 SWAP1 POP JUMP JUMPDEST PUSH2 0x29D DUP2 PUSH2 0x283 JUMP JUMPDEST DUP2 EQ PUSH2 0x2A7 JUMPI PUSH0 DUP1 REVERT JUMPDEST POP JUMP JUMPDEST PUSH0 DUP2 CALLDATALOAD SWAP1 POP PUSH2 0x2B8 DUP2 PUSH2 0x294 JUMP JUMPDEST SWAP3 SWAP2 POP POP JUMP JUMPDEST PUSH0 PUSH1 0x20 DUP3 DUP5 SUB SLT ISZERO PUSH2 0x2D3 JUMPI PUSH2 0x2D2 PUSH2 0x1CC JUMP JUMPDEST JUMPDEST PUSH0 PUSH2 0x2E0 DUP5 DUP3 DUP6 ADD PUSH2 0x2AA JUMP JUMPDEST SWAP2 POP POP SWAP3 SWAP2 POP POP JUMP JUMPDEST PUSH2 0x2F2 DUP2 PUSH2 0x283 JUMP JUMPDEST DUP3 MSTORE POP POP JUMP JUMPDEST PUSH0 PUSH1 0x20 DUP3 ADD SWAP1 POP PUSH2 0x30B PUSH0 DUP4 ADD DUP5 PUSH2 0x2E9 JUMP JUMPDEST SWAP3 SWAP2 POP POP JUMP JUMPDEST PUSH0 DUP1 PUSH1 0x40 DUP4 DUP6 SUB SLT ISZERO PUSH2 0x327 JUMPI PUSH2 0x326 PUSH2 0x1CC JUMP JUMPDEST JUMPDEST PUSH0 PUSH2 0x334 DUP6 DUP3 DUP7 ADD PUSH2 0x1EF JUMP JUMPDEST SWAP3 POP POP PUSH1 0x20 PUSH2 0x345 DUP6 DUP3 DUP7 ADD PUSH2 0x2AA JUMP JUMPDEST SWAP2 POP POP SWAP3 POP SWAP3 SWAP1 POP JUMP INVALID LOG2 PUSH5 0x6970667358 0x22 SLT KECCAK256 CALLCODE 0xB3 LOG3 STOP 0xE5 PUSH2 0x1587 0x4F CALLVALUE PREVRANDAO 0xC1 0x2E PUSH12 0x4F49A640E8CCB5BF02B16D DUP1 JUMPI 0x28 0xBA PUSH31 0xC64736F6C6343000819003300000000000000000000000000000000000000 "
				},
				"gasEstimates": {
					"creation": {
						"codeDepositCost": "180200",
						"executionCost": "224",
						"totalCost": "180424"
					},
					"external": {
						"mapping1(uint256)": "2870",
						"mapping2(address)": "infinite",
						"mapping3(uint256)": "infinite",
						"setMappingValue(uint256,address)": "24984"
					}
				},
				"methodIdentifiers": {
					"mapping1(uint256)": "f9f9d624",
					"mapping2(address)": "5c4a56ed",
					"mapping3(uint256)": "4fb1c441",
					"setMappingValue(uint256,address)": "74897462"
				}
			},
			"storageLayout": {
				"storage": [
					{
						"astId": 5,
						"contract": "contracts/7_Mapping.sol:Mapping",
						"label": "mapping1",
						"offset": 0,
						"slot": "0",
						"type": "t_mapping(t_uint256,t_address)"
					},
					{
						"astId": 9,
						"contract": "contracts/7_Mapping.sol:Mapping",
						"label": "mapping2",
						"offset": 0,
						"slot": "1",
						"type": "t_mapping(t_address,t_address)"
					},
					{
						"astId": 19,
						"contract": "contracts/7_Mapping.sol:Mapping",
						"label": "mapping3",
						"offset": 0,
						"slot": "2",
						"type": "t_mapping(t_uint256,t_struct(Student)14_storage)"
					}
				],
				"types": {
					"t_address": {
						"encoding": "inplace",
						"label": "address",
						"numberOfBytes": "20"
					},
					"t_mapping(t_address,t_address)": {
						"encoding": "mapping",
						"key": "t_address",
						"label": "mapping(address => address)",
						"numberOfBytes": "32",
						"value": "t_address"
					},
					"t_mapping(t_uint256,t_address)": {
						"encoding": "mapping",
						"key": "t_uint256",
						"label": "mapping(uint256 => address)",
						"numberOfBytes": "32",
						"value": "t_address"
					},
					"t_mapping(t_uint256,t_struct(Student)14_storage)": {
						"encoding": "mapping",
						"key": "t_uint256",
						"label": "mapping(uint256 => struct Mapping.Student)",
						"numberOfBytes": "32",
						"value": "t_struct(Student)14_storage"
					},
					"t_struct(Student)14_storage": {
						"encoding": "inplace",
						"label": "struct Mapping.Student",
						"members": [
							{
								"astId": 11,
								"contract": "contracts/7_Mapping.sol:Mapping",
								"label": "id",
								"offset": 0,
								"slot": "0",
								"type": "t_uint256"
							},
							{
								"astId": 13,
								"contract": "contracts/7_Mapping.sol:Mapping",
								"label": "score",
								"offset": 0,
								"slot": "1",
								"type": "t_uint256"
							}
						],
						"numberOfBytes": "64"
					},
					"t_uint256": {
						"encoding": "inplace",
						"label": "uint256",
						"numberOfBytes": "32"
					}
				}
			},
			"userdoc": {
				"kind": "user",
				"methods": {},
				"version": 1
			}
		}
	}
}