{
	"contracts/46_ProxyContract.sol": {
		"Caller": {
			"abi": [
				{
					"inputs": [
						{
							"internalType": "address",
							"name": "proxy_",
							"type": "address"
						}
					],
					"stateMutability": "nonpayable",
					"type": "constructor"
				},
				{
					"inputs": [],
					"name": "increment",
					"outputs": [
						{
							"internalType": "uint256",
							"name": "",
							"type": "uint256"
						}
					],
					"stateMutability": "nonpayable",
					"type": "function"
				},
				{
					"inputs": [],
					"name": "proxy",
					"outputs": [
						{
							"internalType": "address",
							"name": "",
							"type": "address"
						}
					],
					"stateMutability": "view",
					"type": "function"
				}
			],
			"devdoc": {
				"details": "Caller合约，调用代理合约，并获取执行结果",
				"kind": "dev",
				"methods": {},
				"version": 1
			},
			"evm": {
				"assembly": "    /* \"contracts/46_ProxyContract.sol\":2824:3185  contract Caller{... */\n  mstore(0x40, 0x80)\n    /* \"contracts/46_ProxyContract.sol\":2894:2952  constructor(address proxy_){... */\n  callvalue\n  dup1\n  iszero\n  tag_1\n  jumpi\n  0x00\n  dup1\n  revert\ntag_1:\n  pop\n  mload(0x40)\n  sub(codesize, bytecodeSize)\n  dup1\n  bytecodeSize\n  dup4\n  codecopy\n  dup2\n  dup2\n  add\n  0x40\n  mstore\n  dup2\n  add\n  swap1\n  tag_2\n  swap2\n  swap1\n  tag_3\n  jump\t// in\ntag_2:\n    /* \"contracts/46_ProxyContract.sol\":2939:2945  proxy_ */\n  dup1\n    /* \"contracts/46_ProxyContract.sol\":2931:2936  proxy */\n  0x00\n  dup1\n    /* \"contracts/46_ProxyContract.sol\":2931:2945  proxy = proxy_ */\n  0x0100\n  exp\n  dup2\n  sload\n  dup2\n  0xffffffffffffffffffffffffffffffffffffffff\n  mul\n  not\n  and\n  swap1\n  dup4\n  0xffffffffffffffffffffffffffffffffffffffff\n  and\n  mul\n  or\n  swap1\n  sstore\n  pop\n    /* \"contracts/46_ProxyContract.sol\":2894:2952  constructor(address proxy_){... */\n  pop\n    /* \"contracts/46_ProxyContract.sol\":2824:3185  contract Caller{... */\n  jump(tag_6)\n    /* \"#utility.yul\":88:205   */\ntag_8:\n    /* \"#utility.yul\":197:198   */\n  0x00\n    /* \"#utility.yul\":194:195   */\n  dup1\n    /* \"#utility.yul\":187:199   */\n  revert\n    /* \"#utility.yul\":334:460   */\ntag_10:\n    /* \"#utility.yul\":371:378   */\n  0x00\n    /* \"#utility.yul\":411:453   */\n  0xffffffffffffffffffffffffffffffffffffffff\n    /* \"#utility.yul\":404:409   */\n  dup3\n    /* \"#utility.yul\":400:454   */\n  and\n    /* \"#utility.yul\":389:454   */\n  swap1\n  pop\n    /* \"#utility.yul\":334:460   */\n  swap2\n  swap1\n  pop\n  jump\t// out\n    /* \"#utility.yul\":466:562   */\ntag_11:\n    /* \"#utility.yul\":503:510   */\n  0x00\n    /* \"#utility.yul\":532:556   */\n  tag_20\n    /* \"#utility.yul\":550:555   */\n  dup3\n    /* \"#utility.yul\":532:556   */\n  tag_10\n  jump\t// in\ntag_20:\n    /* \"#utility.yul\":521:556   */\n  swap1\n  pop\n    /* \"#utility.yul\":466:562   */\n  swap2\n  swap1\n  pop\n  jump\t// out\n    /* \"#utility.yul\":568:690   */\ntag_12:\n    /* \"#utility.yul\":641:665   */\n  tag_22\n    /* \"#utility.yul\":659:664   */\n  dup2\n    /* \"#utility.yul\":641:665   */\n  tag_11\n  jump\t// in\ntag_22:\n    /* \"#utility.yul\":634:639   */\n  dup2\n    /* \"#utility.yul\":631:666   */\n  eq\n    /* \"#utility.yul\":621:684   */\n  tag_23\n  jumpi\n    /* \"#utility.yul\":680:681   */\n  0x00\n    /* \"#utility.yul\":677:678   */\n  dup1\n    /* \"#utility.yul\":670:682   */\n  revert\n    /* \"#utility.yul\":621:684   */\ntag_23:\n    /* \"#utility.yul\":568:690   */\n  pop\n  jump\t// out\n    /* \"#utility.yul\":696:839   */\ntag_13:\n    /* \"#utility.yul\":753:758   */\n  0x00\n    /* \"#utility.yul\":784:790   */\n  dup2\n    /* \"#utility.yul\":778:791   */\n  mload\n    /* \"#utility.yul\":769:791   */\n  swap1\n  pop\n    /* \"#utility.yul\":800:833   */\n  tag_25\n    /* \"#utility.yul\":827:832   */\n  dup2\n    /* \"#utility.yul\":800:833   */\n  tag_12\n  jump\t// in\ntag_25:\n    /* \"#utility.yul\":696:839   */\n  swap3\n  swap2\n  pop\n  pop\n  jump\t// out\n    /* \"#utility.yul\":845:1196   */\ntag_3:\n    /* \"#utility.yul\":915:921   */\n  0x00\n    /* \"#utility.yul\":964:966   */\n  0x20\n    /* \"#utility.yul\":952:961   */\n  dup3\n    /* \"#utility.yul\":943:950   */\n  dup5\n    /* \"#utility.yul\":939:962   */\n  sub\n    /* \"#utility.yul\":935:967   */\n  slt\n    /* \"#utility.yul\":932:1051   */\n  iszero\n  tag_27\n  jumpi\n    /* \"#utility.yul\":970:1049   */\n  tag_28\n  tag_8\n  jump\t// in\ntag_28:\n    /* \"#utility.yul\":932:1051   */\ntag_27:\n    /* \"#utility.yul\":1090:1091   */\n  0x00\n    /* \"#utility.yul\":1115:1179   */\n  tag_29\n    /* \"#utility.yul\":1171:1178   */\n  dup5\n    /* \"#utility.yul\":1162:1168   */\n  dup3\n    /* \"#utility.yul\":1151:1160   */\n  dup6\n    /* \"#utility.yul\":1147:1169   */\n  add\n    /* \"#utility.yul\":1115:1179   */\n  tag_13\n  jump\t// in\ntag_29:\n    /* \"#utility.yul\":1105:1179   */\n  swap2\n  pop\n    /* \"#utility.yul\":1061:1189   */\n  pop\n    /* \"#utility.yul\":845:1196   */\n  swap3\n  swap2\n  pop\n  pop\n  jump\t// out\n    /* \"contracts/46_ProxyContract.sol\":2824:3185  contract Caller{... */\ntag_6:\n  dataSize(sub_0)\n  dup1\n  dataOffset(sub_0)\n  0x00\n  codecopy\n  0x00\n  return\nstop\n\nsub_0: assembly {\n        /* \"contracts/46_ProxyContract.sol\":2824:3185  contract Caller{... */\n      mstore(0x40, 0x80)\n      callvalue\n      dup1\n      iszero\n      tag_1\n      jumpi\n      0x00\n      dup1\n      revert\n    tag_1:\n      pop\n      jumpi(tag_2, lt(calldatasize, 0x04))\n      shr(0xe0, calldataload(0x00))\n      dup1\n      0xd09de08a\n      eq\n      tag_3\n      jumpi\n      dup1\n      0xec556889\n      eq\n      tag_4\n      jumpi\n    tag_2:\n      0x00\n      dup1\n      revert\n        /* \"contracts/46_ProxyContract.sol\":3007:3183  function increment() external returns(uint) {... */\n    tag_3:\n      tag_5\n      tag_6\n      jump\t// in\n    tag_5:\n      mload(0x40)\n      tag_7\n      swap2\n      swap1\n      tag_8\n      jump\t// in\n    tag_7:\n      mload(0x40)\n      dup1\n      swap2\n      sub\n      swap1\n      return\n        /* \"contracts/46_ProxyContract.sol\":2845:2865  address public proxy */\n    tag_4:\n      tag_9\n      tag_10\n      jump\t// in\n    tag_9:\n      mload(0x40)\n      tag_11\n      swap2\n      swap1\n      tag_12\n      jump\t// in\n    tag_11:\n      mload(0x40)\n      dup1\n      swap2\n      sub\n      swap1\n      return\n        /* \"contracts/46_ProxyContract.sol\":3007:3183  function increment() external returns(uint) {... */\n    tag_6:\n        /* \"contracts/46_ProxyContract.sol\":3045:3049  uint */\n      0x00\n        /* \"contracts/46_ProxyContract.sol\":3065:3082  bytes memory data */\n      dup1\n        /* \"contracts/46_ProxyContract.sol\":3086:3091  proxy */\n      0x00\n      dup1\n      sload\n      swap1\n      0x0100\n      exp\n      swap1\n      div\n      0xffffffffffffffffffffffffffffffffffffffff\n      and\n        /* \"contracts/46_ProxyContract.sol\":3086:3096  proxy.call */\n      0xffffffffffffffffffffffffffffffffffffffff\n      and\n        /* \"contracts/46_ProxyContract.sol\":3097:3135  abi.encodeWithSignature(\"increment()\") */\n      add(0x24, mload(0x40))\n      mload(0x40)\n      0x20\n      dup2\n      dup4\n      sub\n      sub\n      dup2\n      mstore\n      swap1\n      0x40\n      mstore\n      and(not(0xffffffffffffffffffffffffffffffffffffffffffffffffffffffff), 0xd09de08a00000000000000000000000000000000000000000000000000000000)\n      0x20\n      dup3\n      add\n      dup1\n      mload\n      0xffffffffffffffffffffffffffffffffffffffffffffffffffffffff\n      dup4\n      dup2\n      dup4\n      and\n      or\n      dup4\n      mstore\n      pop\n      pop\n      pop\n      pop\n        /* \"contracts/46_ProxyContract.sol\":3086:3136  proxy.call(abi.encodeWithSignature(\"increment()\")) */\n      mload(0x40)\n      tag_14\n      swap2\n      swap1\n      tag_15\n      jump\t// in\n    tag_14:\n      0x00\n      mload(0x40)\n      dup1\n      dup4\n      sub\n      dup2\n      0x00\n      dup7\n      gas\n      call\n      swap2\n      pop\n      pop\n      returndatasize\n      dup1\n      0x00\n      dup2\n      eq\n      tag_18\n      jumpi\n      mload(0x40)\n      swap2\n      pop\n      and(add(returndatasize, 0x3f), not(0x1f))\n      dup3\n      add\n      0x40\n      mstore\n      returndatasize\n      dup3\n      mstore\n      returndatasize\n      0x00\n      0x20\n      dup5\n      add\n      returndatacopy\n      jump(tag_17)\n    tag_18:\n      0x60\n      swap2\n      pop\n    tag_17:\n      pop\n        /* \"contracts/46_ProxyContract.sol\":3061:3136  ( , bytes memory data) = proxy.call(abi.encodeWithSignature(\"increment()\")) */\n      swap2\n      pop\n      pop\n        /* \"contracts/46_ProxyContract.sol\":3164:3168  data */\n      dup1\n        /* \"contracts/46_ProxyContract.sol\":3153:3176  abi.decode(data,(uint)) */\n      dup1\n      0x20\n      add\n      swap1\n      mload\n      dup2\n      add\n      swap1\n      tag_19\n      swap2\n      swap1\n      tag_20\n      jump\t// in\n    tag_19:\n        /* \"contracts/46_ProxyContract.sol\":3146:3176  return abi.decode(data,(uint)) */\n      swap2\n      pop\n      pop\n        /* \"contracts/46_ProxyContract.sol\":3007:3183  function increment() external returns(uint) {... */\n      swap1\n      jump\t// out\n        /* \"contracts/46_ProxyContract.sol\":2845:2865  address public proxy */\n    tag_10:\n      0x00\n      dup1\n      sload\n      swap1\n      0x0100\n      exp\n      swap1\n      div\n      0xffffffffffffffffffffffffffffffffffffffff\n      and\n      dup2\n      jump\t// out\n        /* \"#utility.yul\":7:84   */\n    tag_21:\n        /* \"#utility.yul\":44:51   */\n      0x00\n        /* \"#utility.yul\":73:78   */\n      dup2\n        /* \"#utility.yul\":62:78   */\n      swap1\n      pop\n        /* \"#utility.yul\":7:84   */\n      swap2\n      swap1\n      pop\n      jump\t// out\n        /* \"#utility.yul\":90:208   */\n    tag_22:\n        /* \"#utility.yul\":177:201   */\n      tag_38\n        /* \"#utility.yul\":195:200   */\n      dup2\n        /* \"#utility.yul\":177:201   */\n      tag_21\n      jump\t// in\n    tag_38:\n        /* \"#utility.yul\":172:175   */\n      dup3\n        /* \"#utility.yul\":165:202   */\n      mstore\n        /* \"#utility.yul\":90:208   */\n      pop\n      pop\n      jump\t// out\n        /* \"#utility.yul\":214:436   */\n    tag_8:\n        /* \"#utility.yul\":307:311   */\n      0x00\n        /* \"#utility.yul\":345:347   */\n      0x20\n        /* \"#utility.yul\":334:343   */\n      dup3\n        /* \"#utility.yul\":330:348   */\n      add\n        /* \"#utility.yul\":322:348   */\n      swap1\n      pop\n        /* \"#utility.yul\":358:429   */\n      tag_40\n        /* \"#utility.yul\":426:427   */\n      0x00\n        /* \"#utility.yul\":415:424   */\n      dup4\n        /* \"#utility.yul\":411:428   */\n      add\n        /* \"#utility.yul\":402:408   */\n      dup5\n        /* \"#utility.yul\":358:429   */\n      tag_22\n      jump\t// in\n    tag_40:\n        /* \"#utility.yul\":214:436   */\n      swap3\n      swap2\n      pop\n      pop\n      jump\t// out\n        /* \"#utility.yul\":442:568   */\n    tag_23:\n        /* \"#utility.yul\":479:486   */\n      0x00\n        /* \"#utility.yul\":519:561   */\n      0xffffffffffffffffffffffffffffffffffffffff\n        /* \"#utility.yul\":512:517   */\n      dup3\n        /* \"#utility.yul\":508:562   */\n      and\n        /* \"#utility.yul\":497:562   */\n      swap1\n      pop\n        /* \"#utility.yul\":442:568   */\n      swap2\n      swap1\n      pop\n      jump\t// out\n        /* \"#utility.yul\":574:670   */\n    tag_24:\n        /* \"#utility.yul\":611:618   */\n      0x00\n        /* \"#utility.yul\":640:664   */\n      tag_43\n        /* \"#utility.yul\":658:663   */\n      dup3\n        /* \"#utility.yul\":640:664   */\n      tag_23\n      jump\t// in\n    tag_43:\n        /* \"#utility.yul\":629:664   */\n      swap1\n      pop\n        /* \"#utility.yul\":574:670   */\n      swap2\n      swap1\n      pop\n      jump\t// out\n        /* \"#utility.yul\":676:794   */\n    tag_25:\n        /* \"#utility.yul\":763:787   */\n      tag_45\n        /* \"#utility.yul\":781:786   */\n      dup2\n        /* \"#utility.yul\":763:787   */\n      tag_24\n      jump\t// in\n    tag_45:\n        /* \"#utility.yul\":758:761   */\n      dup3\n        /* \"#utility.yul\":751:788   */\n      mstore\n        /* \"#utility.yul\":676:794   */\n      pop\n      pop\n      jump\t// out\n        /* \"#utility.yul\":800:1022   */\n    tag_12:\n        /* \"#utility.yul\":893:897   */\n      0x00\n        /* \"#utility.yul\":931:933   */\n      0x20\n        /* \"#utility.yul\":920:929   */\n      dup3\n        /* \"#utility.yul\":916:934   */\n      add\n        /* \"#utility.yul\":908:934   */\n      swap1\n      pop\n        /* \"#utility.yul\":944:1015   */\n      tag_47\n        /* \"#utility.yul\":1012:1013   */\n      0x00\n        /* \"#utility.yul\":1001:1010   */\n      dup4\n        /* \"#utility.yul\":997:1014   */\n      add\n        /* \"#utility.yul\":988:994   */\n      dup5\n        /* \"#utility.yul\":944:1015   */\n      tag_25\n      jump\t// in\n    tag_47:\n        /* \"#utility.yul\":800:1022   */\n      swap3\n      swap2\n      pop\n      pop\n      jump\t// out\n        /* \"#utility.yul\":1028:1126   */\n    tag_26:\n        /* \"#utility.yul\":1079:1085   */\n      0x00\n        /* \"#utility.yul\":1113:1118   */\n      dup2\n        /* \"#utility.yul\":1107:1119   */\n      mload\n        /* \"#utility.yul\":1097:1119   */\n      swap1\n      pop\n        /* \"#utility.yul\":1028:1126   */\n      swap2\n      swap1\n      pop\n      jump\t// out\n        /* \"#utility.yul\":1132:1279   */\n    tag_27:\n        /* \"#utility.yul\":1233:1244   */\n      0x00\n        /* \"#utility.yul\":1270:1273   */\n      dup2\n        /* \"#utility.yul\":1255:1273   */\n      swap1\n      pop\n        /* \"#utility.yul\":1132:1279   */\n      swap3\n      swap2\n      pop\n      pop\n      jump\t// out\n        /* \"#utility.yul\":1285:1533   */\n    tag_28:\n        /* \"#utility.yul\":1367:1368   */\n      0x00\n        /* \"#utility.yul\":1377:1490   */\n    tag_51:\n        /* \"#utility.yul\":1391:1397   */\n      dup4\n        /* \"#utility.yul\":1388:1389   */\n      dup2\n        /* \"#utility.yul\":1385:1398   */\n      lt\n        /* \"#utility.yul\":1377:1490   */\n      iszero\n      tag_53\n      jumpi\n        /* \"#utility.yul\":1476:1477   */\n      dup1\n        /* \"#utility.yul\":1471:1474   */\n      dup3\n        /* \"#utility.yul\":1467:1478   */\n      add\n        /* \"#utility.yul\":1461:1479   */\n      mload\n        /* \"#utility.yul\":1457:1458   */\n      dup2\n        /* \"#utility.yul\":1452:1455   */\n      dup5\n        /* \"#utility.yul\":1448:1459   */\n      add\n        /* \"#utility.yul\":1441:1480   */\n      mstore\n        /* \"#utility.yul\":1413:1415   */\n      0x20\n        /* \"#utility.yul\":1410:1411   */\n      dup2\n        /* \"#utility.yul\":1406:1416   */\n      add\n        /* \"#utility.yul\":1401:1416   */\n      swap1\n      pop\n        /* \"#utility.yul\":1377:1490   */\n      jump(tag_51)\n    tag_53:\n        /* \"#utility.yul\":1524:1525   */\n      0x00\n        /* \"#utility.yul\":1515:1521   */\n      dup5\n        /* \"#utility.yul\":1510:1513   */\n      dup5\n        /* \"#utility.yul\":1506:1522   */\n      add\n        /* \"#utility.yul\":1499:1526   */\n      mstore\n        /* \"#utility.yul\":1347:1533   */\n      pop\n        /* \"#utility.yul\":1285:1533   */\n      pop\n      pop\n      pop\n      jump\t// out\n        /* \"#utility.yul\":1539:1925   */\n    tag_29:\n        /* \"#utility.yul\":1643:1646   */\n      0x00\n        /* \"#utility.yul\":1671:1709   */\n      tag_55\n        /* \"#utility.yul\":1703:1708   */\n      dup3\n        /* \"#utility.yul\":1671:1709   */\n      tag_26\n      jump\t// in\n    tag_55:\n        /* \"#utility.yul\":1725:1813   */\n      tag_56\n        /* \"#utility.yul\":1806:1812   */\n      dup2\n        /* \"#utility.yul\":1801:1804   */\n      dup6\n        /* \"#utility.yul\":1725:1813   */\n      tag_27\n      jump\t// in\n    tag_56:\n        /* \"#utility.yul\":1718:1813   */\n      swap4\n      pop\n        /* \"#utility.yul\":1822:1887   */\n      tag_57\n        /* \"#utility.yul\":1880:1886   */\n      dup2\n        /* \"#utility.yul\":1875:1878   */\n      dup6\n        /* \"#utility.yul\":1868:1872   */\n      0x20\n        /* \"#utility.yul\":1861:1866   */\n      dup7\n        /* \"#utility.yul\":1857:1873   */\n      add\n        /* \"#utility.yul\":1822:1887   */\n      tag_28\n      jump\t// in\n    tag_57:\n        /* \"#utility.yul\":1912:1918   */\n      dup1\n        /* \"#utility.yul\":1907:1910   */\n      dup5\n        /* \"#utility.yul\":1903:1919   */\n      add\n        /* \"#utility.yul\":1896:1919   */\n      swap2\n      pop\n        /* \"#utility.yul\":1647:1925   */\n      pop\n        /* \"#utility.yul\":1539:1925   */\n      swap3\n      swap2\n      pop\n      pop\n      jump\t// out\n        /* \"#utility.yul\":1931:2202   */\n    tag_15:\n        /* \"#utility.yul\":2061:2064   */\n      0x00\n        /* \"#utility.yul\":2083:2176   */\n      tag_59\n        /* \"#utility.yul\":2172:2175   */\n      dup3\n        /* \"#utility.yul\":2163:2169   */\n      dup5\n        /* \"#utility.yul\":2083:2176   */\n      tag_29\n      jump\t// in\n    tag_59:\n        /* \"#utility.yul\":2076:2176   */\n      swap2\n      pop\n        /* \"#utility.yul\":2193:2196   */\n      dup2\n        /* \"#utility.yul\":2186:2196   */\n      swap1\n      pop\n        /* \"#utility.yul\":1931:2202   */\n      swap3\n      swap2\n      pop\n      pop\n      jump\t// out\n        /* \"#utility.yul\":2289:2406   */\n    tag_31:\n        /* \"#utility.yul\":2398:2399   */\n      0x00\n        /* \"#utility.yul\":2395:2396   */\n      dup1\n        /* \"#utility.yul\":2388:2400   */\n      revert\n        /* \"#utility.yul\":2535:2657   */\n    tag_33:\n        /* \"#utility.yul\":2608:2632   */\n      tag_64\n        /* \"#utility.yul\":2626:2631   */\n      dup2\n        /* \"#utility.yul\":2608:2632   */\n      tag_21\n      jump\t// in\n    tag_64:\n        /* \"#utility.yul\":2601:2606   */\n      dup2\n        /* \"#utility.yul\":2598:2633   */\n      eq\n        /* \"#utility.yul\":2588:2651   */\n      tag_65\n      jumpi\n        /* \"#utility.yul\":2647:2648   */\n      0x00\n        /* \"#utility.yul\":2644:2645   */\n      dup1\n        /* \"#utility.yul\":2637:2649   */\n      revert\n        /* \"#utility.yul\":2588:2651   */\n    tag_65:\n        /* \"#utility.yul\":2535:2657   */\n      pop\n      jump\t// out\n        /* \"#utility.yul\":2663:2806   */\n    tag_34:\n        /* \"#utility.yul\":2720:2725   */\n      0x00\n        /* \"#utility.yul\":2751:2757   */\n      dup2\n        /* \"#utility.yul\":2745:2758   */\n      mload\n        /* \"#utility.yul\":2736:2758   */\n      swap1\n      pop\n        /* \"#utility.yul\":2767:2800   */\n      tag_67\n        /* \"#utility.yul\":2794:2799   */\n      dup2\n        /* \"#utility.yul\":2767:2800   */\n      tag_33\n      jump\t// in\n    tag_67:\n        /* \"#utility.yul\":2663:2806   */\n      swap3\n      swap2\n      pop\n      pop\n      jump\t// out\n        /* \"#utility.yul\":2812:3163   */\n    tag_20:\n        /* \"#utility.yul\":2882:2888   */\n      0x00\n        /* \"#utility.yul\":2931:2933   */\n      0x20\n        /* \"#utility.yul\":2919:2928   */\n      dup3\n        /* \"#utility.yul\":2910:2917   */\n      dup5\n        /* \"#utility.yul\":2906:2929   */\n      sub\n        /* \"#utility.yul\":2902:2934   */\n      slt\n        /* \"#utility.yul\":2899:3018   */\n      iszero\n      tag_69\n      jumpi\n        /* \"#utility.yul\":2937:3016   */\n      tag_70\n      tag_31\n      jump\t// in\n    tag_70:\n        /* \"#utility.yul\":2899:3018   */\n    tag_69:\n        /* \"#utility.yul\":3057:3058   */\n      0x00\n        /* \"#utility.yul\":3082:3146   */\n      tag_71\n        /* \"#utility.yul\":3138:3145   */\n      dup5\n        /* \"#utility.yul\":3129:3135   */\n      dup3\n        /* \"#utility.yul\":3118:3127   */\n      dup6\n        /* \"#utility.yul\":3114:3136   */\n      add\n        /* \"#utility.yul\":3082:3146   */\n      tag_34\n      jump\t// in\n    tag_71:\n        /* \"#utility.yul\":3072:3146   */\n      swap2\n      pop\n        /* \"#utility.yul\":3028:3156   */\n      pop\n        /* \"#utility.yul\":2812:3163   */\n      swap3\n      swap2\n      pop\n      pop\n      jump\t// out\n\n    auxdata: 0xa26469706673582212205982ee5d70a940151d31b0bba4ba36777a1c1cddf5cdc8994ba96b2fa0bd9eb364736f6c63430008190033\n}\n",
				"bytecode": {
					"linkReferences": {},
					"object": "608060405234801561001057600080fd5b50604051610488380380610488833981810160405281019061003291906100db565b806000806101000a81548173ffffffffffffffffffffffffffffffffffffffff021916908373ffffffffffffffffffffffffffffffffffffffff16021790555050610108565b600080fd5b600073ffffffffffffffffffffffffffffffffffffffff82169050919050565b60006100a88261007d565b9050919050565b6100b88161009d565b81146100c357600080fd5b50565b6000815190506100d5816100af565b92915050565b6000602082840312156100f1576100f0610078565b5b60006100ff848285016100c6565b91505092915050565b610371806101176000396000f3fe608060405234801561001057600080fd5b50600436106100365760003560e01c8063d09de08a1461003b578063ec55688914610059575b600080fd5b610043610077565b60405161005091906101de565b60405180910390f35b6100616101a1565b60405161006e919061023a565b60405180910390f35b60008060008054906101000a900473ffffffffffffffffffffffffffffffffffffffff1673ffffffffffffffffffffffffffffffffffffffff166040516024016040516020818303038152906040527fd09de08a000000000000000000000000000000000000000000000000000000007bffffffffffffffffffffffffffffffffffffffffffffffffffffffff19166020820180517bffffffffffffffffffffffffffffffffffffffffffffffffffffffff838183161783525050505060405161014191906102c6565b6000604051808303816000865af19150503d806000811461017e576040519150601f19603f3d011682016040523d82523d6000602084013e610183565b606091505b509150508080602001905181019061019b919061030e565b91505090565b60008054906101000a900473ffffffffffffffffffffffffffffffffffffffff1681565b6000819050919050565b6101d8816101c5565b82525050565b60006020820190506101f360008301846101cf565b92915050565b600073ffffffffffffffffffffffffffffffffffffffff82169050919050565b6000610224826101f9565b9050919050565b61023481610219565b82525050565b600060208201905061024f600083018461022b565b92915050565b600081519050919050565b600081905092915050565b60005b8381101561028957808201518184015260208101905061026e565b60008484015250505050565b60006102a082610255565b6102aa8185610260565b93506102ba81856020860161026b565b80840191505092915050565b60006102d28284610295565b915081905092915050565b600080fd5b6102eb816101c5565b81146102f657600080fd5b50565b600081519050610308816102e2565b92915050565b600060208284031215610324576103236102dd565b5b6000610332848285016102f9565b9150509291505056fea26469706673582212205982ee5d70a940151d31b0bba4ba36777a1c1cddf5cdc8994ba96b2fa0bd9eb364736f6c63430008190033",
					"opcodes": "PUSH1 0x80 PUSH1 0x40 MSTORE CALLVALUE DUP1 ISZERO PUSH2 0x10 JUMPI PUSH1 0x0 DUP1 REVERT JUMPDEST POP PUSH1 0x40 MLOAD PUSH2 0x488 CODESIZE SUB DUP1 PUSH2 0x488 DUP4 CODECOPY DUP2 DUP2 ADD PUSH1 0x40 MSTORE DUP2 ADD SWAP1 PUSH2 0x32 SWAP2 SWAP1 PUSH2 0xDB JUMP JUMPDEST DUP1 PUSH1 0x0 DUP1 PUSH2 0x100 EXP DUP2 SLOAD DUP2 PUSH20 0xFFFFFFFFFFFFFFFFFFFFFFFFFFFFFFFFFFFFFFFF MUL NOT AND SWAP1 DUP4 PUSH20 0xFFFFFFFFFFFFFFFFFFFFFFFFFFFFFFFFFFFFFFFF AND MUL OR SWAP1 SSTORE POP POP PUSH2 0x108 JUMP JUMPDEST PUSH1 0x0 DUP1 REVERT JUMPDEST PUSH1 0x0 PUSH20 0xFFFFFFFFFFFFFFFFFFFFFFFFFFFFFFFFFFFFFFFF DUP3 AND SWAP1 POP SWAP2 SWAP1 POP JUMP JUMPDEST PUSH1 0x0 PUSH2 0xA8 DUP3 PUSH2 0x7D JUMP JUMPDEST SWAP1 POP SWAP2 SWAP1 POP JUMP JUMPDEST PUSH2 0xB8 DUP2 PUSH2 0x9D JUMP JUMPDEST DUP2 EQ PUSH2 0xC3 JUMPI PUSH1 0x0 DUP1 REVERT JUMPDEST POP JUMP JUMPDEST PUSH1 0x0 DUP2 MLOAD SWAP1 POP PUSH2 0xD5 DUP2 PUSH2 0xAF JUMP JUMPDEST SWAP3 SWAP2 POP POP JUMP JUMPDEST PUSH1 0x0 PUSH1 0x20 DUP3 DUP5 SUB SLT ISZERO PUSH2 0xF1 JUMPI PUSH2 0xF0 PUSH2 0x78 JUMP JUMPDEST JUMPDEST PUSH1 0x0 PUSH2 0xFF DUP5 DUP3 DUP6 ADD PUSH2 0xC6 JUMP JUMPDEST SWAP2 POP POP SWAP3 SWAP2 POP POP JUMP JUMPDEST PUSH2 0x371 DUP1 PUSH2 0x117 PUSH1 0x0 CODECOPY PUSH1 0x0 RETURN INVALID PUSH1 0x80 PUSH1 0x40 MSTORE CALLVALUE DUP1 ISZERO PUSH2 0x10 JUMPI PUSH1 0x0 DUP1 REVERT JUMPDEST POP PUSH1 0x4 CALLDATASIZE LT PUSH2 0x36 JUMPI PUSH1 0x0 CALLDATALOAD PUSH1 0xE0 SHR DUP1 PUSH4 0xD09DE08A EQ PUSH2 0x3B JUMPI DUP1 PUSH4 0xEC556889 EQ PUSH2 0x59 JUMPI JUMPDEST PUSH1 0x0 DUP1 REVERT JUMPDEST PUSH2 0x43 PUSH2 0x77 JUMP JUMPDEST PUSH1 0x40 MLOAD PUSH2 0x50 SWAP2 SWAP1 PUSH2 0x1DE JUMP JUMPDEST PUSH1 0x40 MLOAD DUP1 SWAP2 SUB SWAP1 RETURN JUMPDEST PUSH2 0x61 PUSH2 0x1A1 JUMP JUMPDEST PUSH1 0x40 MLOAD PUSH2 0x6E SWAP2 SWAP1 PUSH2 0x23A JUMP JUMPDEST PUSH1 0x40 MLOAD DUP1 SWAP2 SUB SWAP1 RETURN JUMPDEST PUSH1 0x0 DUP1 PUSH1 0x0 DUP1 SLOAD SWAP1 PUSH2 0x100 EXP SWAP1 DIV PUSH20 0xFFFFFFFFFFFFFFFFFFFFFFFFFFFFFFFFFFFFFFFF AND PUSH20 0xFFFFFFFFFFFFFFFFFFFFFFFFFFFFFFFFFFFFFFFF AND PUSH1 0x40 MLOAD PUSH1 0x24 ADD PUSH1 0x40 MLOAD PUSH1 0x20 DUP2 DUP4 SUB SUB DUP2 MSTORE SWAP1 PUSH1 0x40 MSTORE PUSH32 0xD09DE08A00000000000000000000000000000000000000000000000000000000 PUSH28 0xFFFFFFFFFFFFFFFFFFFFFFFFFFFFFFFFFFFFFFFFFFFFFFFFFFFFFFFF NOT AND PUSH1 0x20 DUP3 ADD DUP1 MLOAD PUSH28 0xFFFFFFFFFFFFFFFFFFFFFFFFFFFFFFFFFFFFFFFFFFFFFFFFFFFFFFFF DUP4 DUP2 DUP4 AND OR DUP4 MSTORE POP POP POP POP PUSH1 0x40 MLOAD PUSH2 0x141 SWAP2 SWAP1 PUSH2 0x2C6 JUMP JUMPDEST PUSH1 0x0 PUSH1 0x40 MLOAD DUP1 DUP4 SUB DUP2 PUSH1 0x0 DUP7 GAS CALL SWAP2 POP POP RETURNDATASIZE DUP1 PUSH1 0x0 DUP2 EQ PUSH2 0x17E JUMPI PUSH1 0x40 MLOAD SWAP2 POP PUSH1 0x1F NOT PUSH1 0x3F RETURNDATASIZE ADD AND DUP3 ADD PUSH1 0x40 MSTORE RETURNDATASIZE DUP3 MSTORE RETURNDATASIZE PUSH1 0x0 PUSH1 0x20 DUP5 ADD RETURNDATACOPY PUSH2 0x183 JUMP JUMPDEST PUSH1 0x60 SWAP2 POP JUMPDEST POP SWAP2 POP POP DUP1 DUP1 PUSH1 0x20 ADD SWAP1 MLOAD DUP2 ADD SWAP1 PUSH2 0x19B SWAP2 SWAP1 PUSH2 0x30E JUMP JUMPDEST SWAP2 POP POP SWAP1 JUMP JUMPDEST PUSH1 0x0 DUP1 SLOAD SWAP1 PUSH2 0x100 EXP SWAP1 DIV PUSH20 0xFFFFFFFFFFFFFFFFFFFFFFFFFFFFFFFFFFFFFFFF AND DUP2 JUMP JUMPDEST PUSH1 0x0 DUP2 SWAP1 POP SWAP2 SWAP1 POP JUMP JUMPDEST PUSH2 0x1D8 DUP2 PUSH2 0x1C5 JUMP JUMPDEST DUP3 MSTORE POP POP JUMP JUMPDEST PUSH1 0x0 PUSH1 0x20 DUP3 ADD SWAP1 POP PUSH2 0x1F3 PUSH1 0x0 DUP4 ADD DUP5 PUSH2 0x1CF JUMP JUMPDEST SWAP3 SWAP2 POP POP JUMP JUMPDEST PUSH1 0x0 PUSH20 0xFFFFFFFFFFFFFFFFFFFFFFFFFFFFFFFFFFFFFFFF DUP3 AND SWAP1 POP SWAP2 SWAP1 POP JUMP JUMPDEST PUSH1 0x0 PUSH2 0x224 DUP3 PUSH2 0x1F9 JUMP JUMPDEST SWAP1 POP SWAP2 SWAP1 POP JUMP JUMPDEST PUSH2 0x234 DUP2 PUSH2 0x219 JUMP JUMPDEST DUP3 MSTORE POP POP JUMP JUMPDEST PUSH1 0x0 PUSH1 0x20 DUP3 ADD SWAP1 POP PUSH2 0x24F PUSH1 0x0 DUP4 ADD DUP5 PUSH2 0x22B JUMP JUMPDEST SWAP3 SWAP2 POP POP JUMP JUMPDEST PUSH1 0x0 DUP2 MLOAD SWAP1 POP SWAP2 SWAP1 POP JUMP JUMPDEST PUSH1 0x0 DUP2 SWAP1 POP SWAP3 SWAP2 POP POP JUMP JUMPDEST PUSH1 0x0 JUMPDEST DUP4 DUP2 LT ISZERO PUSH2 0x289 JUMPI DUP1 DUP3 ADD MLOAD DUP2 DUP5 ADD MSTORE PUSH1 0x20 DUP2 ADD SWAP1 POP PUSH2 0x26E JUMP JUMPDEST PUSH1 0x0 DUP5 DUP5 ADD MSTORE POP POP POP POP JUMP JUMPDEST PUSH1 0x0 PUSH2 0x2A0 DUP3 PUSH2 0x255 JUMP JUMPDEST PUSH2 0x2AA DUP2 DUP6 PUSH2 0x260 JUMP JUMPDEST SWAP4 POP PUSH2 0x2BA DUP2 DUP6 PUSH1 0x20 DUP7 ADD PUSH2 0x26B JUMP JUMPDEST DUP1 DUP5 ADD SWAP2 POP POP SWAP3 SWAP2 POP POP JUMP JUMPDEST PUSH1 0x0 PUSH2 0x2D2 DUP3 DUP5 PUSH2 0x295 JUMP JUMPDEST SWAP2 POP DUP2 SWAP1 POP SWAP3 SWAP2 POP POP JUMP JUMPDEST PUSH1 0x0 DUP1 REVERT JUMPDEST PUSH2 0x2EB DUP2 PUSH2 0x1C5 JUMP JUMPDEST DUP2 EQ PUSH2 0x2F6 JUMPI PUSH1 0x0 DUP1 REVERT JUMPDEST POP JUMP JUMPDEST PUSH1 0x0 DUP2 MLOAD SWAP1 POP PUSH2 0x308 DUP2 PUSH2 0x2E2 JUMP JUMPDEST SWAP3 SWAP2 POP POP JUMP JUMPDEST PUSH1 0x0 PUSH1 0x20 DUP3 DUP5 SUB SLT ISZERO PUSH2 0x324 JUMPI PUSH2 0x323 PUSH2 0x2DD JUMP JUMPDEST JUMPDEST PUSH1 0x0 PUSH2 0x332 DUP5 DUP3 DUP6 ADD PUSH2 0x2F9 JUMP JUMPDEST SWAP2 POP POP SWAP3 SWAP2 POP POP JUMP INVALID LOG2 PUSH5 0x6970667358 0x22 SLT KECCAK256 MSIZE DUP3 0xEE TSTORE PUSH17 0xA940151D31B0BBA4BA36777A1C1CDDF5CD 0xC8 SWAP10 0x4B 0xA9 PUSH12 0x2FA0BD9EB364736F6C634300 ADDMOD NOT STOP CALLER "
				},
				"gasEstimates": {
					"creation": {
						"codeDepositCost": "176200",
						"executionCost": "infinite",
						"totalCost": "infinite"
					},
					"external": {
						"increment()": "infinite",
						"proxy()": "2511"
					}
				},
				"methodIdentifiers": {
					"increment()": "d09de08a",
					"proxy()": "ec556889"
				}
			},
			"storageLayout": {
				"storage": [
					{
						"astId": 53,
						"contract": "contracts/46_ProxyContract.sol:Caller",
						"label": "proxy",
						"offset": 0,
						"slot": "0",
						"type": "t_address"
					}
				],
				"types": {
					"t_address": {
						"encoding": "inplace",
						"label": "address",
						"numberOfBytes": "20"
					}
				}
			},
			"userdoc": {
				"kind": "user",
				"methods": {},
				"version": 1
			}
		}
	}
}