{
	"contracts/4_FunctionReturn.sol": {
		"FunctionReturn": {
			"abi": [
				{
					"inputs": [],
					"name": "DestructionReturn",
					"outputs": [
						{
							"internalType": "uint256",
							"name": "",
							"type": "uint256"
						},
						{
							"internalType": "uint256[3]",
							"name": "",
							"type": "uint256[3]"
						}
					],
					"stateMutability": "pure",
					"type": "function"
				},
				{
					"inputs": [],
					"name": "returnMultiple",
					"outputs": [
						{
							"internalType": "uint256",
							"name": "",
							"type": "uint256"
						},
						{
							"internalType": "bool",
							"name": "",
							"type": "bool"
						},
						{
							"internalType": "uint256[3]",
							"name": "",
							"type": "uint256[3]"
						}
					],
					"stateMutability": "pure",
					"type": "function"
				},
				{
					"inputs": [],
					"name": "returnNamed",
					"outputs": [
						{
							"internalType": "uint256",
							"name": "_number",
							"type": "uint256"
						},
						{
							"internalType": "bool",
							"name": "_bool",
							"type": "bool"
						},
						{
							"internalType": "uint256[3]",
							"name": "_array",
							"type": "uint256[3]"
						}
					],
					"stateMutability": "pure",
					"type": "function"
				}
			],
			"devdoc": {
				"kind": "dev",
				"methods": {},
				"version": 1
			},
			"evm": {
				"assembly": "    /* \"contracts/4_FunctionReturn.sol\":135:1127  contract FunctionReturn {... */\n  mstore(0x40, 0x80)\n  callvalue\n  dup1\n  iszero\n  tag_1\n  jumpi\n  0x00\n  dup1\n  revert\ntag_1:\n  pop\n  dataSize(sub_0)\n  dup1\n  dataOffset(sub_0)\n  0x00\n  codecopy\n  0x00\n  return\nstop\n\nsub_0: assembly {\n        /* \"contracts/4_FunctionReturn.sol\":135:1127  contract FunctionReturn {... */\n      mstore(0x40, 0x80)\n      callvalue\n      dup1\n      iszero\n      tag_1\n      jumpi\n      0x00\n      dup1\n      revert\n    tag_1:\n      pop\n      jumpi(tag_2, lt(calldatasize, 0x04))\n      shr(0xe0, calldataload(0x00))\n      dup1\n      0x3dece511\n      eq\n      tag_3\n      jumpi\n      dup1\n      0x4f184695\n      eq\n      tag_4\n      jumpi\n      dup1\n      0xe61e4008\n      eq\n      tag_5\n      jumpi\n    tag_2:\n      0x00\n      dup1\n      revert\n        /* \"contracts/4_FunctionReturn.sol\":464:647  function returnNamed() public pure returns(uint256 _number, bool _bool, uint256[3] memory _array){... */\n    tag_3:\n      tag_6\n      tag_7\n      jump\t// in\n    tag_6:\n      mload(0x40)\n      tag_8\n      swap4\n      swap3\n      swap2\n      swap1\n      tag_9\n      jump\t// in\n    tag_8:\n      mload(0x40)\n      dup1\n      swap2\n      sub\n      swap1\n      return\n        /* \"contracts/4_FunctionReturn.sol\":872:1125  function DestructionReturn() public pure  returns(uint256, uint256[3] memory){... */\n    tag_4:\n      tag_10\n      tag_11\n      jump\t// in\n    tag_10:\n      mload(0x40)\n      tag_12\n      swap3\n      swap2\n      swap1\n      tag_13\n      jump\t// in\n    tag_12:\n      mload(0x40)\n      dup1\n      swap2\n      sub\n      swap1\n      return\n        /* \"contracts/4_FunctionReturn.sol\":232:362  function returnMultiple() public pure returns(uint256, bool, uint256[3] memory){... */\n    tag_5:\n      tag_14\n      tag_15\n      jump\t// in\n    tag_14:\n      mload(0x40)\n      tag_16\n      swap4\n      swap3\n      swap2\n      swap1\n      tag_9\n      jump\t// in\n    tag_16:\n      mload(0x40)\n      dup1\n      swap2\n      sub\n      swap1\n      return\n        /* \"contracts/4_FunctionReturn.sol\":464:647  function returnNamed() public pure returns(uint256 _number, bool _bool, uint256[3] memory _array){... */\n    tag_7:\n        /* \"contracts/4_FunctionReturn.sol\":507:522  uint256 _number */\n      0x00\n        /* \"contracts/4_FunctionReturn.sol\":524:534  bool _bool */\n      dup1\n        /* \"contracts/4_FunctionReturn.sol\":536:560  uint256[3] memory _array */\n      tag_17\n      tag_18\n      jump\t// in\n    tag_17:\n        /* \"contracts/4_FunctionReturn.sol\":581:582  2 */\n      0x02\n        /* \"contracts/4_FunctionReturn.sol\":571:582  _number = 2 */\n      swap3\n      pop\n        /* \"contracts/4_FunctionReturn.sol\":600:605  false */\n      0x00\n        /* \"contracts/4_FunctionReturn.sol\":592:605  _bool = false */\n      swap2\n      pop\n        /* \"contracts/4_FunctionReturn.sol\":615:640  _array = [uint256(9),2,1] */\n      mload(0x40)\n      dup1\n      0x60\n      add\n      0x40\n      mstore\n      dup1\n        /* \"contracts/4_FunctionReturn.sol\":633:634  9 */\n      0x09\n        /* \"contracts/4_FunctionReturn.sol\":615:640  _array = [uint256(9),2,1] */\n      dup2\n      mstore\n      0x20\n      add\n        /* \"contracts/4_FunctionReturn.sol\":636:637  2 */\n      0x02\n        /* \"contracts/4_FunctionReturn.sol\":615:640  _array = [uint256(9),2,1] */\n      dup2\n      mstore\n      0x20\n      add\n        /* \"contracts/4_FunctionReturn.sol\":638:639  1 */\n      0x01\n        /* \"contracts/4_FunctionReturn.sol\":615:640  _array = [uint256(9),2,1] */\n      dup2\n      mstore\n      pop\n      swap1\n      pop\n        /* \"contracts/4_FunctionReturn.sol\":464:647  function returnNamed() public pure returns(uint256 _number, bool _bool, uint256[3] memory _array){... */\n      swap1\n      swap2\n      swap3\n      jump\t// out\n        /* \"contracts/4_FunctionReturn.sol\":872:1125  function DestructionReturn() public pure  returns(uint256, uint256[3] memory){... */\n    tag_11:\n        /* \"contracts/4_FunctionReturn.sol\":922:929  uint256 */\n      0x00\n        /* \"contracts/4_FunctionReturn.sol\":931:948  uint256[3] memory */\n      tag_20\n      tag_18\n      jump\t// in\n    tag_20:\n        /* \"contracts/4_FunctionReturn.sol\":959:974  uint256 _number */\n      0x00\n        /* \"contracts/4_FunctionReturn.sol\":984:1008  uint256[3] memory _array */\n      tag_22\n      tag_18\n      jump\t// in\n    tag_22:\n        /* \"contracts/4_FunctionReturn.sol\":1032:1048  returnMultiple() */\n      tag_23\n        /* \"contracts/4_FunctionReturn.sol\":1032:1046  returnMultiple */\n      tag_15\n        /* \"contracts/4_FunctionReturn.sol\":1032:1048  returnMultiple() */\n      jump\t// in\n    tag_23:\n        /* \"contracts/4_FunctionReturn.sol\":1018:1048  (_number,,) = returnMultiple() */\n      swap1\n      pop\n      pop\n      dup1\n      swap3\n      pop\n      pop\n        /* \"contracts/4_FunctionReturn.sol\":1071:1084  returnNamed() */\n      tag_24\n        /* \"contracts/4_FunctionReturn.sol\":1071:1082  returnNamed */\n      tag_7\n        /* \"contracts/4_FunctionReturn.sol\":1071:1084  returnNamed() */\n      jump\t// in\n    tag_24:\n        /* \"contracts/4_FunctionReturn.sol\":1058:1084  (,,_array) = returnNamed() */\n      swap1\n      swap2\n      pop\n      swap1\n      pop\n      dup1\n      swap2\n      pop\n      pop\n        /* \"contracts/4_FunctionReturn.sol\":1102:1109  _number */\n      dup2\n        /* \"contracts/4_FunctionReturn.sol\":1111:1117  _array */\n      dup2\n        /* \"contracts/4_FunctionReturn.sol\":1094:1118  return (_number, _array) */\n      swap4\n      pop\n      swap4\n      pop\n      pop\n      pop\n        /* \"contracts/4_FunctionReturn.sol\":872:1125  function DestructionReturn() public pure  returns(uint256, uint256[3] memory){... */\n      swap1\n      swap2\n      jump\t// out\n        /* \"contracts/4_FunctionReturn.sol\":232:362  function returnMultiple() public pure returns(uint256, bool, uint256[3] memory){... */\n    tag_15:\n        /* \"contracts/4_FunctionReturn.sol\":278:285  uint256 */\n      0x00\n        /* \"contracts/4_FunctionReturn.sol\":287:291  bool */\n      dup1\n        /* \"contracts/4_FunctionReturn.sol\":293:310  uint256[3] memory */\n      tag_25\n      tag_18\n      jump\t// in\n    tag_25:\n        /* \"contracts/4_FunctionReturn.sol\":329:330  5 */\n      0x05\n        /* \"contracts/4_FunctionReturn.sol\":332:336  true */\n      0x01\n        /* \"contracts/4_FunctionReturn.sol\":321:355  return (5, true, [uint256(1),2,3]) */\n      mload(0x40)\n      dup1\n      0x60\n      add\n      0x40\n      mstore\n      dup1\n        /* \"contracts/4_FunctionReturn.sol\":347:348  1 */\n      0x01\n        /* \"contracts/4_FunctionReturn.sol\":321:355  return (5, true, [uint256(1),2,3]) */\n      dup2\n      mstore\n      0x20\n      add\n        /* \"contracts/4_FunctionReturn.sol\":350:351  2 */\n      0x02\n        /* \"contracts/4_FunctionReturn.sol\":321:355  return (5, true, [uint256(1),2,3]) */\n      dup2\n      mstore\n      0x20\n      add\n        /* \"contracts/4_FunctionReturn.sol\":352:353  3 */\n      0x03\n        /* \"contracts/4_FunctionReturn.sol\":321:355  return (5, true, [uint256(1),2,3]) */\n      dup2\n      mstore\n      pop\n      swap3\n      pop\n      swap3\n      pop\n      swap3\n      pop\n        /* \"contracts/4_FunctionReturn.sol\":232:362  function returnMultiple() public pure returns(uint256, bool, uint256[3] memory){... */\n      swap1\n      swap2\n      swap3\n      jump\t// out\n    tag_18:\n      mload(0x40)\n      dup1\n      0x60\n      add\n      0x40\n      mstore\n      dup1\n      0x03\n      swap1\n      0x20\n      dup3\n      mul\n      dup1\n      calldatasize\n      dup4\n      calldatacopy\n      dup1\n      dup3\n      add\n      swap2\n      pop\n      pop\n      swap1\n      pop\n      pop\n      swap1\n      jump\t// out\n        /* \"#utility.yul\":7:84   */\n    tag_27:\n        /* \"#utility.yul\":44:51   */\n      0x00\n        /* \"#utility.yul\":73:78   */\n      dup2\n        /* \"#utility.yul\":62:78   */\n      swap1\n      pop\n        /* \"#utility.yul\":7:84   */\n      swap2\n      swap1\n      pop\n      jump\t// out\n        /* \"#utility.yul\":90:208   */\n    tag_28:\n        /* \"#utility.yul\":177:201   */\n      tag_41\n        /* \"#utility.yul\":195:200   */\n      dup2\n        /* \"#utility.yul\":177:201   */\n      tag_27\n      jump\t// in\n    tag_41:\n        /* \"#utility.yul\":172:175   */\n      dup3\n        /* \"#utility.yul\":165:202   */\n      mstore\n        /* \"#utility.yul\":90:208   */\n      pop\n      pop\n      jump\t// out\n        /* \"#utility.yul\":214:304   */\n    tag_29:\n        /* \"#utility.yul\":248:255   */\n      0x00\n        /* \"#utility.yul\":291:296   */\n      dup2\n        /* \"#utility.yul\":284:297   */\n      iszero\n        /* \"#utility.yul\":277:298   */\n      iszero\n        /* \"#utility.yul\":266:298   */\n      swap1\n      pop\n        /* \"#utility.yul\":214:304   */\n      swap2\n      swap1\n      pop\n      jump\t// out\n        /* \"#utility.yul\":310:419   */\n    tag_30:\n        /* \"#utility.yul\":391:412   */\n      tag_44\n        /* \"#utility.yul\":406:411   */\n      dup2\n        /* \"#utility.yul\":391:412   */\n      tag_29\n      jump\t// in\n    tag_44:\n        /* \"#utility.yul\":386:389   */\n      dup3\n        /* \"#utility.yul\":379:413   */\n      mstore\n        /* \"#utility.yul\":310:419   */\n      pop\n      pop\n      jump\t// out\n        /* \"#utility.yul\":425:529   */\n    tag_31:\n        /* \"#utility.yul\":490:496   */\n      0x00\n        /* \"#utility.yul\":518:522   */\n      0x03\n        /* \"#utility.yul\":508:522   */\n      swap1\n      pop\n        /* \"#utility.yul\":425:529   */\n      swap2\n      swap1\n      pop\n      jump\t// out\n        /* \"#utility.yul\":535:678   */\n    tag_32:\n        /* \"#utility.yul\":632:643   */\n      0x00\n        /* \"#utility.yul\":669:672   */\n      dup2\n        /* \"#utility.yul\":654:672   */\n      swap1\n      pop\n        /* \"#utility.yul\":535:678   */\n      swap3\n      swap2\n      pop\n      pop\n      jump\t// out\n        /* \"#utility.yul\":684:782   */\n    tag_33:\n        /* \"#utility.yul\":749:753   */\n      0x00\n        /* \"#utility.yul\":772:775   */\n      dup2\n        /* \"#utility.yul\":764:775   */\n      swap1\n      pop\n        /* \"#utility.yul\":684:782   */\n      swap2\n      swap1\n      pop\n      jump\t// out\n        /* \"#utility.yul\":788:896   */\n    tag_34:\n        /* \"#utility.yul\":865:889   */\n      tag_49\n        /* \"#utility.yul\":883:888   */\n      dup2\n        /* \"#utility.yul\":865:889   */\n      tag_27\n      jump\t// in\n    tag_49:\n        /* \"#utility.yul\":860:863   */\n      dup3\n        /* \"#utility.yul\":853:890   */\n      mstore\n        /* \"#utility.yul\":788:896   */\n      pop\n      pop\n      jump\t// out\n        /* \"#utility.yul\":902:1081   */\n    tag_35:\n        /* \"#utility.yul\":971:981   */\n      0x00\n        /* \"#utility.yul\":992:1038   */\n      tag_51\n        /* \"#utility.yul\":1034:1037   */\n      dup4\n        /* \"#utility.yul\":1026:1032   */\n      dup4\n        /* \"#utility.yul\":992:1038   */\n      tag_34\n      jump\t// in\n    tag_51:\n        /* \"#utility.yul\":1070:1074   */\n      0x20\n        /* \"#utility.yul\":1065:1068   */\n      dup4\n        /* \"#utility.yul\":1061:1075   */\n      add\n        /* \"#utility.yul\":1047:1075   */\n      swap1\n      pop\n        /* \"#utility.yul\":902:1081   */\n      swap3\n      swap2\n      pop\n      pop\n      jump\t// out\n        /* \"#utility.yul\":1087:1198   */\n    tag_36:\n        /* \"#utility.yul\":1155:1159   */\n      0x00\n        /* \"#utility.yul\":1187:1191   */\n      0x20\n        /* \"#utility.yul\":1182:1185   */\n      dup3\n        /* \"#utility.yul\":1178:1192   */\n      add\n        /* \"#utility.yul\":1170:1192   */\n      swap1\n      pop\n        /* \"#utility.yul\":1087:1198   */\n      swap2\n      swap1\n      pop\n      jump\t// out\n        /* \"#utility.yul\":1236:1930   */\n    tag_37:\n        /* \"#utility.yul\":1372:1424   */\n      tag_54\n        /* \"#utility.yul\":1418:1423   */\n      dup2\n        /* \"#utility.yul\":1372:1424   */\n      tag_31\n      jump\t// in\n    tag_54:\n        /* \"#utility.yul\":1440:1524   */\n      tag_55\n        /* \"#utility.yul\":1517:1523   */\n      dup2\n        /* \"#utility.yul\":1512:1515   */\n      dup5\n        /* \"#utility.yul\":1440:1524   */\n      tag_32\n      jump\t// in\n    tag_55:\n        /* \"#utility.yul\":1433:1524   */\n      swap3\n      pop\n        /* \"#utility.yul\":1548:1602   */\n      tag_56\n        /* \"#utility.yul\":1596:1601   */\n      dup3\n        /* \"#utility.yul\":1548:1602   */\n      tag_33\n      jump\t// in\n    tag_56:\n        /* \"#utility.yul\":1625:1632   */\n      dup1\n        /* \"#utility.yul\":1656:1657   */\n      0x00\n        /* \"#utility.yul\":1641:1923   */\n    tag_57:\n        /* \"#utility.yul\":1666:1672   */\n      dup4\n        /* \"#utility.yul\":1663:1664   */\n      dup2\n        /* \"#utility.yul\":1660:1673   */\n      lt\n        /* \"#utility.yul\":1641:1923   */\n      iszero\n      tag_59\n      jumpi\n        /* \"#utility.yul\":1742:1748   */\n      dup2\n        /* \"#utility.yul\":1736:1749   */\n      mload\n        /* \"#utility.yul\":1769:1832   */\n      tag_60\n        /* \"#utility.yul\":1828:1831   */\n      dup8\n        /* \"#utility.yul\":1813:1826   */\n      dup3\n        /* \"#utility.yul\":1769:1832   */\n      tag_35\n      jump\t// in\n    tag_60:\n        /* \"#utility.yul\":1762:1832   */\n      swap7\n      pop\n        /* \"#utility.yul\":1855:1913   */\n      tag_61\n        /* \"#utility.yul\":1906:1912   */\n      dup4\n        /* \"#utility.yul\":1855:1913   */\n      tag_36\n      jump\t// in\n    tag_61:\n        /* \"#utility.yul\":1845:1913   */\n      swap3\n      pop\n        /* \"#utility.yul\":1701:1923   */\n      pop\n        /* \"#utility.yul\":1688:1689   */\n      0x01\n        /* \"#utility.yul\":1685:1686   */\n      dup2\n        /* \"#utility.yul\":1681:1690   */\n      add\n        /* \"#utility.yul\":1676:1690   */\n      swap1\n      pop\n        /* \"#utility.yul\":1641:1923   */\n      jump(tag_57)\n    tag_59:\n        /* \"#utility.yul\":1645:1659   */\n      pop\n        /* \"#utility.yul\":1348:1930   */\n      pop\n      pop\n      pop\n        /* \"#utility.yul\":1236:1930   */\n      pop\n      pop\n      jump\t// out\n        /* \"#utility.yul\":1936:2459   */\n    tag_9:\n        /* \"#utility.yul\":2125:2129   */\n      0x00\n        /* \"#utility.yul\":2163:2166   */\n      0xa0\n        /* \"#utility.yul\":2152:2161   */\n      dup3\n        /* \"#utility.yul\":2148:2167   */\n      add\n        /* \"#utility.yul\":2140:2167   */\n      swap1\n      pop\n        /* \"#utility.yul\":2177:2248   */\n      tag_63\n        /* \"#utility.yul\":2245:2246   */\n      0x00\n        /* \"#utility.yul\":2234:2243   */\n      dup4\n        /* \"#utility.yul\":2230:2247   */\n      add\n        /* \"#utility.yul\":2221:2227   */\n      dup7\n        /* \"#utility.yul\":2177:2248   */\n      tag_28\n      jump\t// in\n    tag_63:\n        /* \"#utility.yul\":2258:2324   */\n      tag_64\n        /* \"#utility.yul\":2320:2322   */\n      0x20\n        /* \"#utility.yul\":2309:2318   */\n      dup4\n        /* \"#utility.yul\":2305:2323   */\n      add\n        /* \"#utility.yul\":2296:2302   */\n      dup6\n        /* \"#utility.yul\":2258:2324   */\n      tag_30\n      jump\t// in\n    tag_64:\n        /* \"#utility.yul\":2334:2452   */\n      tag_65\n        /* \"#utility.yul\":2448:2450   */\n      0x40\n        /* \"#utility.yul\":2437:2446   */\n      dup4\n        /* \"#utility.yul\":2433:2451   */\n      add\n        /* \"#utility.yul\":2424:2430   */\n      dup5\n        /* \"#utility.yul\":2334:2452   */\n      tag_37\n      jump\t// in\n    tag_65:\n        /* \"#utility.yul\":1936:2459   */\n      swap5\n      swap4\n      pop\n      pop\n      pop\n      pop\n      jump\t// out\n        /* \"#utility.yul\":2465:2890   */\n    tag_13:\n        /* \"#utility.yul\":2632:2636   */\n      0x00\n        /* \"#utility.yul\":2670:2673   */\n      0x80\n        /* \"#utility.yul\":2659:2668   */\n      dup3\n        /* \"#utility.yul\":2655:2674   */\n      add\n        /* \"#utility.yul\":2647:2674   */\n      swap1\n      pop\n        /* \"#utility.yul\":2684:2755   */\n      tag_67\n        /* \"#utility.yul\":2752:2753   */\n      0x00\n        /* \"#utility.yul\":2741:2750   */\n      dup4\n        /* \"#utility.yul\":2737:2754   */\n      add\n        /* \"#utility.yul\":2728:2734   */\n      dup6\n        /* \"#utility.yul\":2684:2755   */\n      tag_28\n      jump\t// in\n    tag_67:\n        /* \"#utility.yul\":2765:2883   */\n      tag_68\n        /* \"#utility.yul\":2879:2881   */\n      0x20\n        /* \"#utility.yul\":2868:2877   */\n      dup4\n        /* \"#utility.yul\":2864:2882   */\n      add\n        /* \"#utility.yul\":2855:2861   */\n      dup5\n        /* \"#utility.yul\":2765:2883   */\n      tag_37\n      jump\t// in\n    tag_68:\n        /* \"#utility.yul\":2465:2890   */\n      swap4\n      swap3\n      pop\n      pop\n      pop\n      jump\t// out\n\n    auxdata: 0xa2646970667358221220f8ca50966a924910b29f46398e9917a1de393faeb4718b390ce5e9f16bc1390b64736f6c63430008190033\n}\n",
				"bytecode": {
					"linkReferences": {},
					"object": "6080604052348015600e575f80fd5b506102d88061001c5f395ff3fe608060405234801561000f575f80fd5b506004361061003f575f3560e01c80633dece511146100435780634f18469514610063578063e61e400814610082575b5f80fd5b61004b6100a2565b60405161005a93929190610246565b60405180910390f35b61006b6100d8565b60405161007992919061027b565b60405180910390f35b61008a610116565b60405161009993929190610246565b60405180910390f35b5f806100ac61014d565b600292505f91506040518060600160405280600981526020016002815260200160018152509050909192565b5f6100e161014d565b5f6100ea61014d565b6100f2610116565b905050809250506101016100a2565b90915090508091505081819350935050509091565b5f8061012061014d565b60056001604051806060016040528060018152602001600281526020016003815250925092509250909192565b6040518060600160405280600390602082028036833780820191505090505090565b5f819050919050565b6101818161016f565b82525050565b5f8115159050919050565b61019b81610187565b82525050565b5f60039050919050565b5f81905092915050565b5f819050919050565b6101c78161016f565b82525050565b5f6101d883836101be565b60208301905092915050565b5f602082019050919050565b6101f9816101a1565b61020381846101ab565b925061020e826101b5565b805f5b8381101561023e57815161022587826101cd565b9650610230836101e4565b925050600181019050610211565b505050505050565b5f60a0820190506102595f830186610178565b6102666020830185610192565b61027360408301846101f0565b949350505050565b5f60808201905061028e5f830185610178565b61029b60208301846101f0565b939250505056fea2646970667358221220f8ca50966a924910b29f46398e9917a1de393faeb4718b390ce5e9f16bc1390b64736f6c63430008190033",
					"opcodes": "PUSH1 0x80 PUSH1 0x40 MSTORE CALLVALUE DUP1 ISZERO PUSH1 0xE JUMPI PUSH0 DUP1 REVERT JUMPDEST POP PUSH2 0x2D8 DUP1 PUSH2 0x1C PUSH0 CODECOPY PUSH0 RETURN INVALID PUSH1 0x80 PUSH1 0x40 MSTORE CALLVALUE DUP1 ISZERO PUSH2 0xF JUMPI PUSH0 DUP1 REVERT JUMPDEST POP PUSH1 0x4 CALLDATASIZE LT PUSH2 0x3F JUMPI PUSH0 CALLDATALOAD PUSH1 0xE0 SHR DUP1 PUSH4 0x3DECE511 EQ PUSH2 0x43 JUMPI DUP1 PUSH4 0x4F184695 EQ PUSH2 0x63 JUMPI DUP1 PUSH4 0xE61E4008 EQ PUSH2 0x82 JUMPI JUMPDEST PUSH0 DUP1 REVERT JUMPDEST PUSH2 0x4B PUSH2 0xA2 JUMP JUMPDEST PUSH1 0x40 MLOAD PUSH2 0x5A SWAP4 SWAP3 SWAP2 SWAP1 PUSH2 0x246 JUMP JUMPDEST PUSH1 0x40 MLOAD DUP1 SWAP2 SUB SWAP1 RETURN JUMPDEST PUSH2 0x6B PUSH2 0xD8 JUMP JUMPDEST PUSH1 0x40 MLOAD PUSH2 0x79 SWAP3 SWAP2 SWAP1 PUSH2 0x27B JUMP JUMPDEST PUSH1 0x40 MLOAD DUP1 SWAP2 SUB SWAP1 RETURN JUMPDEST PUSH2 0x8A PUSH2 0x116 JUMP JUMPDEST PUSH1 0x40 MLOAD PUSH2 0x99 SWAP4 SWAP3 SWAP2 SWAP1 PUSH2 0x246 JUMP JUMPDEST PUSH1 0x40 MLOAD DUP1 SWAP2 SUB SWAP1 RETURN JUMPDEST PUSH0 DUP1 PUSH2 0xAC PUSH2 0x14D JUMP JUMPDEST PUSH1 0x2 SWAP3 POP PUSH0 SWAP2 POP PUSH1 0x40 MLOAD DUP1 PUSH1 0x60 ADD PUSH1 0x40 MSTORE DUP1 PUSH1 0x9 DUP2 MSTORE PUSH1 0x20 ADD PUSH1 0x2 DUP2 MSTORE PUSH1 0x20 ADD PUSH1 0x1 DUP2 MSTORE POP SWAP1 POP SWAP1 SWAP2 SWAP3 JUMP JUMPDEST PUSH0 PUSH2 0xE1 PUSH2 0x14D JUMP JUMPDEST PUSH0 PUSH2 0xEA PUSH2 0x14D JUMP JUMPDEST PUSH2 0xF2 PUSH2 0x116 JUMP JUMPDEST SWAP1 POP POP DUP1 SWAP3 POP POP PUSH2 0x101 PUSH2 0xA2 JUMP JUMPDEST SWAP1 SWAP2 POP SWAP1 POP DUP1 SWAP2 POP POP DUP2 DUP2 SWAP4 POP SWAP4 POP POP POP SWAP1 SWAP2 JUMP JUMPDEST PUSH0 DUP1 PUSH2 0x120 PUSH2 0x14D JUMP JUMPDEST PUSH1 0x5 PUSH1 0x1 PUSH1 0x40 MLOAD DUP1 PUSH1 0x60 ADD PUSH1 0x40 MSTORE DUP1 PUSH1 0x1 DUP2 MSTORE PUSH1 0x20 ADD PUSH1 0x2 DUP2 MSTORE PUSH1 0x20 ADD PUSH1 0x3 DUP2 MSTORE POP SWAP3 POP SWAP3 POP SWAP3 POP SWAP1 SWAP2 SWAP3 JUMP JUMPDEST PUSH1 0x40 MLOAD DUP1 PUSH1 0x60 ADD PUSH1 0x40 MSTORE DUP1 PUSH1 0x3 SWAP1 PUSH1 0x20 DUP3 MUL DUP1 CALLDATASIZE DUP4 CALLDATACOPY DUP1 DUP3 ADD SWAP2 POP POP SWAP1 POP POP SWAP1 JUMP JUMPDEST PUSH0 DUP2 SWAP1 POP SWAP2 SWAP1 POP JUMP JUMPDEST PUSH2 0x181 DUP2 PUSH2 0x16F JUMP JUMPDEST DUP3 MSTORE POP POP JUMP JUMPDEST PUSH0 DUP2 ISZERO ISZERO SWAP1 POP SWAP2 SWAP1 POP JUMP JUMPDEST PUSH2 0x19B DUP2 PUSH2 0x187 JUMP JUMPDEST DUP3 MSTORE POP POP JUMP JUMPDEST PUSH0 PUSH1 0x3 SWAP1 POP SWAP2 SWAP1 POP JUMP JUMPDEST PUSH0 DUP2 SWAP1 POP SWAP3 SWAP2 POP POP JUMP JUMPDEST PUSH0 DUP2 SWAP1 POP SWAP2 SWAP1 POP JUMP JUMPDEST PUSH2 0x1C7 DUP2 PUSH2 0x16F JUMP JUMPDEST DUP3 MSTORE POP POP JUMP JUMPDEST PUSH0 PUSH2 0x1D8 DUP4 DUP4 PUSH2 0x1BE JUMP JUMPDEST PUSH1 0x20 DUP4 ADD SWAP1 POP SWAP3 SWAP2 POP POP JUMP JUMPDEST PUSH0 PUSH1 0x20 DUP3 ADD SWAP1 POP SWAP2 SWAP1 POP JUMP JUMPDEST PUSH2 0x1F9 DUP2 PUSH2 0x1A1 JUMP JUMPDEST PUSH2 0x203 DUP2 DUP5 PUSH2 0x1AB JUMP JUMPDEST SWAP3 POP PUSH2 0x20E DUP3 PUSH2 0x1B5 JUMP JUMPDEST DUP1 PUSH0 JUMPDEST DUP4 DUP2 LT ISZERO PUSH2 0x23E JUMPI DUP2 MLOAD PUSH2 0x225 DUP8 DUP3 PUSH2 0x1CD JUMP JUMPDEST SWAP7 POP PUSH2 0x230 DUP4 PUSH2 0x1E4 JUMP JUMPDEST SWAP3 POP POP PUSH1 0x1 DUP2 ADD SWAP1 POP PUSH2 0x211 JUMP JUMPDEST POP POP POP POP POP POP JUMP JUMPDEST PUSH0 PUSH1 0xA0 DUP3 ADD SWAP1 POP PUSH2 0x259 PUSH0 DUP4 ADD DUP7 PUSH2 0x178 JUMP JUMPDEST PUSH2 0x266 PUSH1 0x20 DUP4 ADD DUP6 PUSH2 0x192 JUMP JUMPDEST PUSH2 0x273 PUSH1 0x40 DUP4 ADD DUP5 PUSH2 0x1F0 JUMP JUMPDEST SWAP5 SWAP4 POP POP POP POP JUMP JUMPDEST PUSH0 PUSH1 0x80 DUP3 ADD SWAP1 POP PUSH2 0x28E PUSH0 DUP4 ADD DUP6 PUSH2 0x178 JUMP JUMPDEST PUSH2 0x29B PUSH1 0x20 DUP4 ADD DUP5 PUSH2 0x1F0 JUMP JUMPDEST SWAP4 SWAP3 POP POP POP JUMP INVALID LOG2 PUSH5 0x6970667358 0x22 SLT KECCAK256 0xF8 0xCA POP SWAP7 PUSH11 0x924910B29F46398E9917A1 0xDE CODECOPY EXTCODEHASH 0xAE 0xB4 PUSH18 0x8B390CE5E9F16BC1390B64736F6C63430008 NOT STOP CALLER "
				},
				"gasEstimates": {
					"creation": {
						"codeDepositCost": "145600",
						"executionCost": "188",
						"totalCost": "145788"
					},
					"external": {
						"DestructionReturn()": "infinite",
						"returnMultiple()": "infinite",
						"returnNamed()": "infinite"
					}
				},
				"methodIdentifiers": {
					"DestructionReturn()": "4f184695",
					"returnMultiple()": "e61e4008",
					"returnNamed()": "3dece511"
				}
			},
			"storageLayout": {
				"storage": [],
				"types": null
			},
			"userdoc": {
				"kind": "user",
				"methods": {},
				"version": 1
			}
		}
	}
}