{
	"contracts/16_Overloading.sol": {
		"Overloading": {
			"abi": [
				{
					"inputs": [],
					"name": "c",
					"outputs": [],
					"stateMutability": "pure",
					"type": "function"
				},
				{
					"inputs": [],
					"name": "doSomething",
					"outputs": [
						{
							"internalType": "string",
							"name": "",
							"type": "string"
						}
					],
					"stateMutability": "pure",
					"type": "function"
				},
				{
					"inputs": [
						{
							"internalType": "string",
							"name": "something",
							"type": "string"
						}
					],
					"name": "doSomething",
					"outputs": [
						{
							"internalType": "string",
							"name": "",
							"type": "string"
						}
					],
					"stateMutability": "pure",
					"type": "function"
				},
				{
					"inputs": [
						{
							"internalType": "uint8",
							"name": "_int",
							"type": "uint8"
						}
					],
					"name": "f",
					"outputs": [
						{
							"internalType": "uint8",
							"name": "",
							"type": "uint8"
						}
					],
					"stateMutability": "pure",
					"type": "function"
				},
				{
					"inputs": [
						{
							"internalType": "uint256",
							"name": "_int",
							"type": "uint256"
						}
					],
					"name": "f",
					"outputs": [
						{
							"internalType": "uint256",
							"name": "",
							"type": "uint256"
						}
					],
					"stateMutability": "pure",
					"type": "function"
				}
			],
			"devdoc": {
				"kind": "dev",
				"methods": {},
				"version": 1
			},
			"evm": {
				"assembly": "    /* \"contracts/16_Overloading.sol\":57:646  contract Overloading {... */\n  mstore(0x40, 0x80)\n  callvalue\n  dup1\n  iszero\n  tag_1\n  jumpi\n  0x00\n  dup1\n  revert\ntag_1:\n  pop\n  dataSize(sub_0)\n  dup1\n  dataOffset(sub_0)\n  0x00\n  codecopy\n  0x00\n  return\nstop\n\nsub_0: assembly {\n        /* \"contracts/16_Overloading.sol\":57:646  contract Overloading {... */\n      mstore(0x40, 0x80)\n      callvalue\n      dup1\n      iszero\n      tag_1\n      jumpi\n      0x00\n      dup1\n      revert\n    tag_1:\n      pop\n      jumpi(tag_2, lt(calldatasize, 0x04))\n      shr(0xe0, calldataload(0x00))\n      dup1\n      0x3120d434\n      eq\n      tag_3\n      jumpi\n      dup1\n      0x82692679\n      eq\n      tag_4\n      jumpi\n      dup1\n      0x8ae3048e\n      eq\n      tag_5\n      jumpi\n      dup1\n      0xb3de648b\n      eq\n      tag_6\n      jumpi\n      dup1\n      0xc3da42b8\n      eq\n      tag_7\n      jumpi\n    tag_2:\n      0x00\n      dup1\n      revert\n        /* \"contracts/16_Overloading.sol\":422:501  function f(uint8 _int) public pure returns(uint8){... */\n    tag_3:\n      tag_8\n      0x04\n      dup1\n      calldatasize\n      sub\n      dup2\n      add\n      swap1\n      tag_9\n      swap2\n      swap1\n      tag_10\n      jump\t// in\n    tag_9:\n      tag_11\n      jump\t// in\n    tag_8:\n      mload(0x40)\n      tag_12\n      swap2\n      swap1\n      tag_13\n      jump\t// in\n    tag_12:\n      mload(0x40)\n      dup1\n      swap2\n      sub\n      swap1\n      return\n        /* \"contracts/16_Overloading.sol\":207:297  function doSomething() public pure returns(string memory){... */\n    tag_4:\n      tag_14\n      tag_15\n      jump\t// in\n    tag_14:\n      mload(0x40)\n      tag_16\n      swap2\n      swap1\n      tag_17\n      jump\t// in\n    tag_16:\n      mload(0x40)\n      dup1\n      swap2\n      sub\n      swap1\n      return\n        /* \"contracts/16_Overloading.sol\":303:416  function doSomething(string memory something) public pure returns(string memory){... */\n    tag_5:\n      tag_18\n      0x04\n      dup1\n      calldatasize\n      sub\n      dup2\n      add\n      swap1\n      tag_19\n      swap2\n      swap1\n      tag_20\n      jump\t// in\n    tag_19:\n      tag_21\n      jump\t// in\n    tag_18:\n      mload(0x40)\n      tag_22\n      swap2\n      swap1\n      tag_17\n      jump\t// in\n    tag_22:\n      mload(0x40)\n      dup1\n      swap2\n      sub\n      swap1\n      return\n        /* \"contracts/16_Overloading.sol\":507:590  function f(uint256 _int) public pure returns(uint256){... */\n    tag_6:\n      tag_23\n      0x04\n      dup1\n      calldatasize\n      sub\n      dup2\n      add\n      swap1\n      tag_24\n      swap2\n      swap1\n      tag_25\n      jump\t// in\n    tag_24:\n      tag_26\n      jump\t// in\n    tag_23:\n      mload(0x40)\n      tag_27\n      swap2\n      swap1\n      tag_28\n      jump\t// in\n    tag_27:\n      mload(0x40)\n      dup1\n      swap2\n      sub\n      swap1\n      return\n        /* \"contracts/16_Overloading.sol\":596:644  function c() public pure {... */\n    tag_7:\n      tag_29\n      tag_30\n      jump\t// in\n    tag_29:\n      stop\n        /* \"contracts/16_Overloading.sol\":422:501  function f(uint8 _int) public pure returns(uint8){... */\n    tag_11:\n        /* \"contracts/16_Overloading.sol\":465:470  uint8 */\n      0x00\n        /* \"contracts/16_Overloading.sol\":493:494  1 */\n      0x01\n        /* \"contracts/16_Overloading.sol\":488:492  _int */\n      dup3\n        /* \"contracts/16_Overloading.sol\":488:494  _int+1 */\n      tag_32\n      swap2\n      swap1\n      tag_33\n      jump\t// in\n    tag_32:\n        /* \"contracts/16_Overloading.sol\":481:494  return _int+1 */\n      swap1\n      pop\n        /* \"contracts/16_Overloading.sol\":422:501  function f(uint8 _int) public pure returns(uint8){... */\n      swap2\n      swap1\n      pop\n      jump\t// out\n        /* \"contracts/16_Overloading.sol\":207:297  function doSomething() public pure returns(string memory){... */\n    tag_15:\n        /* \"contracts/16_Overloading.sol\":250:263  string memory */\n      0x60\n        /* \"contracts/16_Overloading.sol\":274:290  return \"to do 1\" */\n      mload(0x40)\n      dup1\n      0x40\n      add\n      0x40\n      mstore\n      dup1\n      0x07\n      dup2\n      mstore\n      0x20\n      add\n      0x746f20646f203100000000000000000000000000000000000000000000000000\n      dup2\n      mstore\n      pop\n      swap1\n      pop\n        /* \"contracts/16_Overloading.sol\":207:297  function doSomething() public pure returns(string memory){... */\n      swap1\n      jump\t// out\n        /* \"contracts/16_Overloading.sol\":303:416  function doSomething(string memory something) public pure returns(string memory){... */\n    tag_21:\n        /* \"contracts/16_Overloading.sol\":369:382  string memory */\n      0x60\n        /* \"contracts/16_Overloading.sol\":400:409  something */\n      dup2\n        /* \"contracts/16_Overloading.sol\":393:409  return something */\n      swap1\n      pop\n        /* \"contracts/16_Overloading.sol\":303:416  function doSomething(string memory something) public pure returns(string memory){... */\n      swap2\n      swap1\n      pop\n      jump\t// out\n        /* \"contracts/16_Overloading.sol\":507:590  function f(uint256 _int) public pure returns(uint256){... */\n    tag_26:\n        /* \"contracts/16_Overloading.sol\":552:559  uint256 */\n      0x00\n        /* \"contracts/16_Overloading.sol\":582:583  2 */\n      0x02\n        /* \"contracts/16_Overloading.sol\":577:581  _int */\n      dup3\n        /* \"contracts/16_Overloading.sol\":577:583  _int+2 */\n      tag_37\n      swap2\n      swap1\n      tag_38\n      jump\t// in\n    tag_37:\n        /* \"contracts/16_Overloading.sol\":570:583  return _int+2 */\n      swap1\n      pop\n        /* \"contracts/16_Overloading.sol\":507:590  function f(uint256 _int) public pure returns(uint256){... */\n      swap2\n      swap1\n      pop\n      jump\t// out\n        /* \"contracts/16_Overloading.sol\":596:644  function c() public pure {... */\n    tag_30:\n        /* \"contracts/16_Overloading.sol\":631:637  f(500) */\n      tag_40\n        /* \"contracts/16_Overloading.sol\":633:636  500 */\n      0x01f4\n        /* \"contracts/16_Overloading.sol\":631:632  f */\n      tag_26\n        /* \"contracts/16_Overloading.sol\":631:637  f(500) */\n      jump\t// in\n    tag_40:\n      pop\n        /* \"contracts/16_Overloading.sol\":596:644  function c() public pure {... */\n      jump\t// out\n        /* \"#utility.yul\":7:82   */\n    tag_41:\n        /* \"#utility.yul\":40:46   */\n      0x00\n        /* \"#utility.yul\":73:75   */\n      0x40\n        /* \"#utility.yul\":67:76   */\n      mload\n        /* \"#utility.yul\":57:76   */\n      swap1\n      pop\n        /* \"#utility.yul\":7:82   */\n      swap1\n      jump\t// out\n        /* \"#utility.yul\":88:205   */\n    tag_42:\n        /* \"#utility.yul\":197:198   */\n      0x00\n        /* \"#utility.yul\":194:195   */\n      dup1\n        /* \"#utility.yul\":187:199   */\n      revert\n        /* \"#utility.yul\":211:328   */\n    tag_43:\n        /* \"#utility.yul\":320:321   */\n      0x00\n        /* \"#utility.yul\":317:318   */\n      dup1\n        /* \"#utility.yul\":310:322   */\n      revert\n        /* \"#utility.yul\":334:420   */\n    tag_44:\n        /* \"#utility.yul\":369:376   */\n      0x00\n        /* \"#utility.yul\":409:413   */\n      0xff\n        /* \"#utility.yul\":402:407   */\n      dup3\n        /* \"#utility.yul\":398:414   */\n      and\n        /* \"#utility.yul\":387:414   */\n      swap1\n      pop\n        /* \"#utility.yul\":334:420   */\n      swap2\n      swap1\n      pop\n      jump\t// out\n        /* \"#utility.yul\":426:544   */\n    tag_45:\n        /* \"#utility.yul\":497:519   */\n      tag_73\n        /* \"#utility.yul\":513:518   */\n      dup2\n        /* \"#utility.yul\":497:519   */\n      tag_44\n      jump\t// in\n    tag_73:\n        /* \"#utility.yul\":490:495   */\n      dup2\n        /* \"#utility.yul\":487:520   */\n      eq\n        /* \"#utility.yul\":477:538   */\n      tag_74\n      jumpi\n        /* \"#utility.yul\":534:535   */\n      0x00\n        /* \"#utility.yul\":531:532   */\n      dup1\n        /* \"#utility.yul\":524:536   */\n      revert\n        /* \"#utility.yul\":477:538   */\n    tag_74:\n        /* \"#utility.yul\":426:544   */\n      pop\n      jump\t// out\n        /* \"#utility.yul\":550:685   */\n    tag_46:\n        /* \"#utility.yul\":594:599   */\n      0x00\n        /* \"#utility.yul\":632:638   */\n      dup2\n        /* \"#utility.yul\":619:639   */\n      calldataload\n        /* \"#utility.yul\":610:639   */\n      swap1\n      pop\n        /* \"#utility.yul\":648:679   */\n      tag_76\n        /* \"#utility.yul\":673:678   */\n      dup2\n        /* \"#utility.yul\":648:679   */\n      tag_45\n      jump\t// in\n    tag_76:\n        /* \"#utility.yul\":550:685   */\n      swap3\n      swap2\n      pop\n      pop\n      jump\t// out\n        /* \"#utility.yul\":691:1016   */\n    tag_10:\n        /* \"#utility.yul\":748:754   */\n      0x00\n        /* \"#utility.yul\":797:799   */\n      0x20\n        /* \"#utility.yul\":785:794   */\n      dup3\n        /* \"#utility.yul\":776:783   */\n      dup5\n        /* \"#utility.yul\":772:795   */\n      sub\n        /* \"#utility.yul\":768:800   */\n      slt\n        /* \"#utility.yul\":765:884   */\n      iszero\n      tag_78\n      jumpi\n        /* \"#utility.yul\":803:882   */\n      tag_79\n      tag_42\n      jump\t// in\n    tag_79:\n        /* \"#utility.yul\":765:884   */\n    tag_78:\n        /* \"#utility.yul\":923:924   */\n      0x00\n        /* \"#utility.yul\":948:999   */\n      tag_80\n        /* \"#utility.yul\":991:998   */\n      dup5\n        /* \"#utility.yul\":982:988   */\n      dup3\n        /* \"#utility.yul\":971:980   */\n      dup6\n        /* \"#utility.yul\":967:989   */\n      add\n        /* \"#utility.yul\":948:999   */\n      tag_46\n      jump\t// in\n    tag_80:\n        /* \"#utility.yul\":938:999   */\n      swap2\n      pop\n        /* \"#utility.yul\":894:1009   */\n      pop\n        /* \"#utility.yul\":691:1016   */\n      swap3\n      swap2\n      pop\n      pop\n      jump\t// out\n        /* \"#utility.yul\":1022:1134   */\n    tag_47:\n        /* \"#utility.yul\":1105:1127   */\n      tag_82\n        /* \"#utility.yul\":1121:1126   */\n      dup2\n        /* \"#utility.yul\":1105:1127   */\n      tag_44\n      jump\t// in\n    tag_82:\n        /* \"#utility.yul\":1100:1103   */\n      dup3\n        /* \"#utility.yul\":1093:1128   */\n      mstore\n        /* \"#utility.yul\":1022:1134   */\n      pop\n      pop\n      jump\t// out\n        /* \"#utility.yul\":1140:1354   */\n    tag_13:\n        /* \"#utility.yul\":1229:1233   */\n      0x00\n        /* \"#utility.yul\":1267:1269   */\n      0x20\n        /* \"#utility.yul\":1256:1265   */\n      dup3\n        /* \"#utility.yul\":1252:1270   */\n      add\n        /* \"#utility.yul\":1244:1270   */\n      swap1\n      pop\n        /* \"#utility.yul\":1280:1347   */\n      tag_84\n        /* \"#utility.yul\":1344:1345   */\n      0x00\n        /* \"#utility.yul\":1333:1342   */\n      dup4\n        /* \"#utility.yul\":1329:1346   */\n      add\n        /* \"#utility.yul\":1320:1326   */\n      dup5\n        /* \"#utility.yul\":1280:1347   */\n      tag_47\n      jump\t// in\n    tag_84:\n        /* \"#utility.yul\":1140:1354   */\n      swap3\n      swap2\n      pop\n      pop\n      jump\t// out\n        /* \"#utility.yul\":1360:1459   */\n    tag_48:\n        /* \"#utility.yul\":1412:1418   */\n      0x00\n        /* \"#utility.yul\":1446:1451   */\n      dup2\n        /* \"#utility.yul\":1440:1452   */\n      mload\n        /* \"#utility.yul\":1430:1452   */\n      swap1\n      pop\n        /* \"#utility.yul\":1360:1459   */\n      swap2\n      swap1\n      pop\n      jump\t// out\n        /* \"#utility.yul\":1465:1634   */\n    tag_49:\n        /* \"#utility.yul\":1549:1560   */\n      0x00\n        /* \"#utility.yul\":1583:1589   */\n      dup3\n        /* \"#utility.yul\":1578:1581   */\n      dup3\n        /* \"#utility.yul\":1571:1590   */\n      mstore\n        /* \"#utility.yul\":1623:1627   */\n      0x20\n        /* \"#utility.yul\":1618:1621   */\n      dup3\n        /* \"#utility.yul\":1614:1628   */\n      add\n        /* \"#utility.yul\":1599:1628   */\n      swap1\n      pop\n        /* \"#utility.yul\":1465:1634   */\n      swap3\n      swap2\n      pop\n      pop\n      jump\t// out\n        /* \"#utility.yul\":1640:1888   */\n    tag_50:\n        /* \"#utility.yul\":1722:1723   */\n      0x00\n        /* \"#utility.yul\":1732:1845   */\n    tag_88:\n        /* \"#utility.yul\":1746:1752   */\n      dup4\n        /* \"#utility.yul\":1743:1744   */\n      dup2\n        /* \"#utility.yul\":1740:1753   */\n      lt\n        /* \"#utility.yul\":1732:1845   */\n      iszero\n      tag_90\n      jumpi\n        /* \"#utility.yul\":1831:1832   */\n      dup1\n        /* \"#utility.yul\":1826:1829   */\n      dup3\n        /* \"#utility.yul\":1822:1833   */\n      add\n        /* \"#utility.yul\":1816:1834   */\n      mload\n        /* \"#utility.yul\":1812:1813   */\n      dup2\n        /* \"#utility.yul\":1807:1810   */\n      dup5\n        /* \"#utility.yul\":1803:1814   */\n      add\n        /* \"#utility.yul\":1796:1835   */\n      mstore\n        /* \"#utility.yul\":1768:1770   */\n      0x20\n        /* \"#utility.yul\":1765:1766   */\n      dup2\n        /* \"#utility.yul\":1761:1771   */\n      add\n        /* \"#utility.yul\":1756:1771   */\n      swap1\n      pop\n        /* \"#utility.yul\":1732:1845   */\n      jump(tag_88)\n    tag_90:\n        /* \"#utility.yul\":1879:1880   */\n      0x00\n        /* \"#utility.yul\":1870:1876   */\n      dup5\n        /* \"#utility.yul\":1865:1868   */\n      dup5\n        /* \"#utility.yul\":1861:1877   */\n      add\n        /* \"#utility.yul\":1854:1881   */\n      mstore\n        /* \"#utility.yul\":1702:1888   */\n      pop\n        /* \"#utility.yul\":1640:1888   */\n      pop\n      pop\n      pop\n      jump\t// out\n        /* \"#utility.yul\":1894:1996   */\n    tag_51:\n        /* \"#utility.yul\":1935:1941   */\n      0x00\n        /* \"#utility.yul\":1986:1988   */\n      0x1f\n        /* \"#utility.yul\":1982:1989   */\n      not\n        /* \"#utility.yul\":1977:1979   */\n      0x1f\n        /* \"#utility.yul\":1970:1975   */\n      dup4\n        /* \"#utility.yul\":1966:1980   */\n      add\n        /* \"#utility.yul\":1962:1990   */\n      and\n        /* \"#utility.yul\":1952:1990   */\n      swap1\n      pop\n        /* \"#utility.yul\":1894:1996   */\n      swap2\n      swap1\n      pop\n      jump\t// out\n        /* \"#utility.yul\":2002:2379   */\n    tag_52:\n        /* \"#utility.yul\":2090:2093   */\n      0x00\n        /* \"#utility.yul\":2118:2157   */\n      tag_93\n        /* \"#utility.yul\":2151:2156   */\n      dup3\n        /* \"#utility.yul\":2118:2157   */\n      tag_48\n      jump\t// in\n    tag_93:\n        /* \"#utility.yul\":2173:2244   */\n      tag_94\n        /* \"#utility.yul\":2237:2243   */\n      dup2\n        /* \"#utility.yul\":2232:2235   */\n      dup6\n        /* \"#utility.yul\":2173:2244   */\n      tag_49\n      jump\t// in\n    tag_94:\n        /* \"#utility.yul\":2166:2244   */\n      swap4\n      pop\n        /* \"#utility.yul\":2253:2318   */\n      tag_95\n        /* \"#utility.yul\":2311:2317   */\n      dup2\n        /* \"#utility.yul\":2306:2309   */\n      dup6\n        /* \"#utility.yul\":2299:2303   */\n      0x20\n        /* \"#utility.yul\":2292:2297   */\n      dup7\n        /* \"#utility.yul\":2288:2304   */\n      add\n        /* \"#utility.yul\":2253:2318   */\n      tag_50\n      jump\t// in\n    tag_95:\n        /* \"#utility.yul\":2343:2372   */\n      tag_96\n        /* \"#utility.yul\":2365:2371   */\n      dup2\n        /* \"#utility.yul\":2343:2372   */\n      tag_51\n      jump\t// in\n    tag_96:\n        /* \"#utility.yul\":2338:2341   */\n      dup5\n        /* \"#utility.yul\":2334:2373   */\n      add\n        /* \"#utility.yul\":2327:2373   */\n      swap2\n      pop\n        /* \"#utility.yul\":2094:2379   */\n      pop\n        /* \"#utility.yul\":2002:2379   */\n      swap3\n      swap2\n      pop\n      pop\n      jump\t// out\n        /* \"#utility.yul\":2385:2698   */\n    tag_17:\n        /* \"#utility.yul\":2498:2502   */\n      0x00\n        /* \"#utility.yul\":2536:2538   */\n      0x20\n        /* \"#utility.yul\":2525:2534   */\n      dup3\n        /* \"#utility.yul\":2521:2539   */\n      add\n        /* \"#utility.yul\":2513:2539   */\n      swap1\n      pop\n        /* \"#utility.yul\":2585:2594   */\n      dup2\n        /* \"#utility.yul\":2579:2583   */\n      dup2\n        /* \"#utility.yul\":2575:2595   */\n      sub\n        /* \"#utility.yul\":2571:2572   */\n      0x00\n        /* \"#utility.yul\":2560:2569   */\n      dup4\n        /* \"#utility.yul\":2556:2573   */\n      add\n        /* \"#utility.yul\":2549:2596   */\n      mstore\n        /* \"#utility.yul\":2613:2691   */\n      tag_98\n        /* \"#utility.yul\":2686:2690   */\n      dup2\n        /* \"#utility.yul\":2677:2683   */\n      dup5\n        /* \"#utility.yul\":2613:2691   */\n      tag_52\n      jump\t// in\n    tag_98:\n        /* \"#utility.yul\":2605:2691   */\n      swap1\n      pop\n        /* \"#utility.yul\":2385:2698   */\n      swap3\n      swap2\n      pop\n      pop\n      jump\t// out\n        /* \"#utility.yul\":2704:2821   */\n    tag_53:\n        /* \"#utility.yul\":2813:2814   */\n      0x00\n        /* \"#utility.yul\":2810:2811   */\n      dup1\n        /* \"#utility.yul\":2803:2815   */\n      revert\n        /* \"#utility.yul\":2827:2944   */\n    tag_54:\n        /* \"#utility.yul\":2936:2937   */\n      0x00\n        /* \"#utility.yul\":2933:2934   */\n      dup1\n        /* \"#utility.yul\":2926:2938   */\n      revert\n        /* \"#utility.yul\":2950:3130   */\n    tag_55:\n        /* \"#utility.yul\":2998:3075   */\n      0x4e487b7100000000000000000000000000000000000000000000000000000000\n        /* \"#utility.yul\":2995:2996   */\n      0x00\n        /* \"#utility.yul\":2988:3076   */\n      mstore\n        /* \"#utility.yul\":3095:3099   */\n      0x41\n        /* \"#utility.yul\":3092:3093   */\n      0x04\n        /* \"#utility.yul\":3085:3100   */\n      mstore\n        /* \"#utility.yul\":3119:3123   */\n      0x24\n        /* \"#utility.yul\":3116:3117   */\n      0x00\n        /* \"#utility.yul\":3109:3124   */\n      revert\n        /* \"#utility.yul\":3136:3417   */\n    tag_56:\n        /* \"#utility.yul\":3219:3246   */\n      tag_103\n        /* \"#utility.yul\":3241:3245   */\n      dup3\n        /* \"#utility.yul\":3219:3246   */\n      tag_51\n      jump\t// in\n    tag_103:\n        /* \"#utility.yul\":3211:3217   */\n      dup2\n        /* \"#utility.yul\":3207:3247   */\n      add\n        /* \"#utility.yul\":3349:3355   */\n      dup2\n        /* \"#utility.yul\":3337:3347   */\n      dup2\n        /* \"#utility.yul\":3334:3356   */\n      lt\n        /* \"#utility.yul\":3313:3331   */\n      0xffffffffffffffff\n        /* \"#utility.yul\":3301:3311   */\n      dup3\n        /* \"#utility.yul\":3298:3332   */\n      gt\n        /* \"#utility.yul\":3295:3357   */\n      or\n        /* \"#utility.yul\":3292:3380   */\n      iszero\n      tag_104\n      jumpi\n        /* \"#utility.yul\":3360:3378   */\n      tag_105\n      tag_55\n      jump\t// in\n    tag_105:\n        /* \"#utility.yul\":3292:3380   */\n    tag_104:\n        /* \"#utility.yul\":3400:3410   */\n      dup1\n        /* \"#utility.yul\":3396:3398   */\n      0x40\n        /* \"#utility.yul\":3389:3411   */\n      mstore\n        /* \"#utility.yul\":3179:3417   */\n      pop\n        /* \"#utility.yul\":3136:3417   */\n      pop\n      pop\n      jump\t// out\n        /* \"#utility.yul\":3423:3552   */\n    tag_57:\n        /* \"#utility.yul\":3457:3463   */\n      0x00\n        /* \"#utility.yul\":3484:3504   */\n      tag_107\n      tag_41\n      jump\t// in\n    tag_107:\n        /* \"#utility.yul\":3474:3504   */\n      swap1\n      pop\n        /* \"#utility.yul\":3513:3546   */\n      tag_108\n        /* \"#utility.yul\":3541:3545   */\n      dup3\n        /* \"#utility.yul\":3533:3539   */\n      dup3\n        /* \"#utility.yul\":3513:3546   */\n      tag_56\n      jump\t// in\n    tag_108:\n        /* \"#utility.yul\":3423:3552   */\n      swap2\n      swap1\n      pop\n      jump\t// out\n        /* \"#utility.yul\":3558:3866   */\n    tag_58:\n        /* \"#utility.yul\":3620:3624   */\n      0x00\n        /* \"#utility.yul\":3710:3728   */\n      0xffffffffffffffff\n        /* \"#utility.yul\":3702:3708   */\n      dup3\n        /* \"#utility.yul\":3699:3729   */\n      gt\n        /* \"#utility.yul\":3696:3752   */\n      iszero\n      tag_110\n      jumpi\n        /* \"#utility.yul\":3732:3750   */\n      tag_111\n      tag_55\n      jump\t// in\n    tag_111:\n        /* \"#utility.yul\":3696:3752   */\n    tag_110:\n        /* \"#utility.yul\":3770:3799   */\n      tag_112\n        /* \"#utility.yul\":3792:3798   */\n      dup3\n        /* \"#utility.yul\":3770:3799   */\n      tag_51\n      jump\t// in\n    tag_112:\n        /* \"#utility.yul\":3762:3799   */\n      swap1\n      pop\n        /* \"#utility.yul\":3854:3858   */\n      0x20\n        /* \"#utility.yul\":3848:3852   */\n      dup2\n        /* \"#utility.yul\":3844:3859   */\n      add\n        /* \"#utility.yul\":3836:3859   */\n      swap1\n      pop\n        /* \"#utility.yul\":3558:3866   */\n      swap2\n      swap1\n      pop\n      jump\t// out\n        /* \"#utility.yul\":3872:4020   */\n    tag_59:\n        /* \"#utility.yul\":3970:3976   */\n      dup3\n        /* \"#utility.yul\":3965:3968   */\n      dup2\n        /* \"#utility.yul\":3960:3963   */\n      dup4\n        /* \"#utility.yul\":3947:3977   */\n      calldatacopy\n        /* \"#utility.yul\":4011:4012   */\n      0x00\n        /* \"#utility.yul\":4002:4008   */\n      dup4\n        /* \"#utility.yul\":3997:4000   */\n      dup4\n        /* \"#utility.yul\":3993:4009   */\n      add\n        /* \"#utility.yul\":3986:4013   */\n      mstore\n        /* \"#utility.yul\":3872:4020   */\n      pop\n      pop\n      pop\n      jump\t// out\n        /* \"#utility.yul\":4026:4451   */\n    tag_60:\n        /* \"#utility.yul\":4104:4109   */\n      0x00\n        /* \"#utility.yul\":4129:4195   */\n      tag_115\n        /* \"#utility.yul\":4145:4194   */\n      tag_116\n        /* \"#utility.yul\":4187:4193   */\n      dup5\n        /* \"#utility.yul\":4145:4194   */\n      tag_58\n      jump\t// in\n    tag_116:\n        /* \"#utility.yul\":4129:4195   */\n      tag_57\n      jump\t// in\n    tag_115:\n        /* \"#utility.yul\":4120:4195   */\n      swap1\n      pop\n        /* \"#utility.yul\":4218:4224   */\n      dup3\n        /* \"#utility.yul\":4211:4216   */\n      dup2\n        /* \"#utility.yul\":4204:4225   */\n      mstore\n        /* \"#utility.yul\":4256:4260   */\n      0x20\n        /* \"#utility.yul\":4249:4254   */\n      dup2\n        /* \"#utility.yul\":4245:4261   */\n      add\n        /* \"#utility.yul\":4294:4297   */\n      dup5\n        /* \"#utility.yul\":4285:4291   */\n      dup5\n        /* \"#utility.yul\":4280:4283   */\n      dup5\n        /* \"#utility.yul\":4276:4292   */\n      add\n        /* \"#utility.yul\":4273:4298   */\n      gt\n        /* \"#utility.yul\":4270:4382   */\n      iszero\n      tag_117\n      jumpi\n        /* \"#utility.yul\":4301:4380   */\n      tag_118\n      tag_54\n      jump\t// in\n    tag_118:\n        /* \"#utility.yul\":4270:4382   */\n    tag_117:\n        /* \"#utility.yul\":4391:4445   */\n      tag_119\n        /* \"#utility.yul\":4438:4444   */\n      dup5\n        /* \"#utility.yul\":4433:4436   */\n      dup3\n        /* \"#utility.yul\":4428:4431   */\n      dup6\n        /* \"#utility.yul\":4391:4445   */\n      tag_59\n      jump\t// in\n    tag_119:\n        /* \"#utility.yul\":4110:4451   */\n      pop\n        /* \"#utility.yul\":4026:4451   */\n      swap4\n      swap3\n      pop\n      pop\n      pop\n      jump\t// out\n        /* \"#utility.yul\":4471:4811   */\n    tag_61:\n        /* \"#utility.yul\":4527:4532   */\n      0x00\n        /* \"#utility.yul\":4576:4579   */\n      dup3\n        /* \"#utility.yul\":4569:4573   */\n      0x1f\n        /* \"#utility.yul\":4561:4567   */\n      dup4\n        /* \"#utility.yul\":4557:4574   */\n      add\n        /* \"#utility.yul\":4553:4580   */\n      slt\n        /* \"#utility.yul\":4543:4665   */\n      tag_121\n      jumpi\n        /* \"#utility.yul\":4584:4663   */\n      tag_122\n      tag_53\n      jump\t// in\n    tag_122:\n        /* \"#utility.yul\":4543:4665   */\n    tag_121:\n        /* \"#utility.yul\":4701:4707   */\n      dup2\n        /* \"#utility.yul\":4688:4708   */\n      calldataload\n        /* \"#utility.yul\":4726:4805   */\n      tag_123\n        /* \"#utility.yul\":4801:4804   */\n      dup5\n        /* \"#utility.yul\":4793:4799   */\n      dup3\n        /* \"#utility.yul\":4786:4790   */\n      0x20\n        /* \"#utility.yul\":4778:4784   */\n      dup7\n        /* \"#utility.yul\":4774:4791   */\n      add\n        /* \"#utility.yul\":4726:4805   */\n      tag_60\n      jump\t// in\n    tag_123:\n        /* \"#utility.yul\":4717:4805   */\n      swap2\n      pop\n        /* \"#utility.yul\":4533:4811   */\n      pop\n        /* \"#utility.yul\":4471:4811   */\n      swap3\n      swap2\n      pop\n      pop\n      jump\t// out\n        /* \"#utility.yul\":4817:5326   */\n    tag_20:\n        /* \"#utility.yul\":4886:4892   */\n      0x00\n        /* \"#utility.yul\":4935:4937   */\n      0x20\n        /* \"#utility.yul\":4923:4932   */\n      dup3\n        /* \"#utility.yul\":4914:4921   */\n      dup5\n        /* \"#utility.yul\":4910:4933   */\n      sub\n        /* \"#utility.yul\":4906:4938   */\n      slt\n        /* \"#utility.yul\":4903:5022   */\n      iszero\n      tag_125\n      jumpi\n        /* \"#utility.yul\":4941:5020   */\n      tag_126\n      tag_42\n      jump\t// in\n    tag_126:\n        /* \"#utility.yul\":4903:5022   */\n    tag_125:\n        /* \"#utility.yul\":5089:5090   */\n      0x00\n        /* \"#utility.yul\":5078:5087   */\n      dup3\n        /* \"#utility.yul\":5074:5091   */\n      add\n        /* \"#utility.yul\":5061:5092   */\n      calldataload\n        /* \"#utility.yul\":5119:5137   */\n      0xffffffffffffffff\n        /* \"#utility.yul\":5111:5117   */\n      dup2\n        /* \"#utility.yul\":5108:5138   */\n      gt\n        /* \"#utility.yul\":5105:5222   */\n      iszero\n      tag_127\n      jumpi\n        /* \"#utility.yul\":5141:5220   */\n      tag_128\n      tag_43\n      jump\t// in\n    tag_128:\n        /* \"#utility.yul\":5105:5222   */\n    tag_127:\n        /* \"#utility.yul\":5246:5309   */\n      tag_129\n        /* \"#utility.yul\":5301:5308   */\n      dup5\n        /* \"#utility.yul\":5292:5298   */\n      dup3\n        /* \"#utility.yul\":5281:5290   */\n      dup6\n        /* \"#utility.yul\":5277:5299   */\n      add\n        /* \"#utility.yul\":5246:5309   */\n      tag_61\n      jump\t// in\n    tag_129:\n        /* \"#utility.yul\":5236:5309   */\n      swap2\n      pop\n        /* \"#utility.yul\":5032:5319   */\n      pop\n        /* \"#utility.yul\":4817:5326   */\n      swap3\n      swap2\n      pop\n      pop\n      jump\t// out\n        /* \"#utility.yul\":5332:5409   */\n    tag_62:\n        /* \"#utility.yul\":5369:5376   */\n      0x00\n        /* \"#utility.yul\":5398:5403   */\n      dup2\n        /* \"#utility.yul\":5387:5403   */\n      swap1\n      pop\n        /* \"#utility.yul\":5332:5409   */\n      swap2\n      swap1\n      pop\n      jump\t// out\n        /* \"#utility.yul\":5415:5537   */\n    tag_63:\n        /* \"#utility.yul\":5488:5512   */\n      tag_132\n        /* \"#utility.yul\":5506:5511   */\n      dup2\n        /* \"#utility.yul\":5488:5512   */\n      tag_62\n      jump\t// in\n    tag_132:\n        /* \"#utility.yul\":5481:5486   */\n      dup2\n        /* \"#utility.yul\":5478:5513   */\n      eq\n        /* \"#utility.yul\":5468:5531   */\n      tag_133\n      jumpi\n        /* \"#utility.yul\":5527:5528   */\n      0x00\n        /* \"#utility.yul\":5524:5525   */\n      dup1\n        /* \"#utility.yul\":5517:5529   */\n      revert\n        /* \"#utility.yul\":5468:5531   */\n    tag_133:\n        /* \"#utility.yul\":5415:5537   */\n      pop\n      jump\t// out\n        /* \"#utility.yul\":5543:5682   */\n    tag_64:\n        /* \"#utility.yul\":5589:5594   */\n      0x00\n        /* \"#utility.yul\":5627:5633   */\n      dup2\n        /* \"#utility.yul\":5614:5634   */\n      calldataload\n        /* \"#utility.yul\":5605:5634   */\n      swap1\n      pop\n        /* \"#utility.yul\":5643:5676   */\n      tag_135\n        /* \"#utility.yul\":5670:5675   */\n      dup2\n        /* \"#utility.yul\":5643:5676   */\n      tag_63\n      jump\t// in\n    tag_135:\n        /* \"#utility.yul\":5543:5682   */\n      swap3\n      swap2\n      pop\n      pop\n      jump\t// out\n        /* \"#utility.yul\":5688:6017   */\n    tag_25:\n        /* \"#utility.yul\":5747:5753   */\n      0x00\n        /* \"#utility.yul\":5796:5798   */\n      0x20\n        /* \"#utility.yul\":5784:5793   */\n      dup3\n        /* \"#utility.yul\":5775:5782   */\n      dup5\n        /* \"#utility.yul\":5771:5794   */\n      sub\n        /* \"#utility.yul\":5767:5799   */\n      slt\n        /* \"#utility.yul\":5764:5883   */\n      iszero\n      tag_137\n      jumpi\n        /* \"#utility.yul\":5802:5881   */\n      tag_138\n      tag_42\n      jump\t// in\n    tag_138:\n        /* \"#utility.yul\":5764:5883   */\n    tag_137:\n        /* \"#utility.yul\":5922:5923   */\n      0x00\n        /* \"#utility.yul\":5947:6000   */\n      tag_139\n        /* \"#utility.yul\":5992:5999   */\n      dup5\n        /* \"#utility.yul\":5983:5989   */\n      dup3\n        /* \"#utility.yul\":5972:5981   */\n      dup6\n        /* \"#utility.yul\":5968:5990   */\n      add\n        /* \"#utility.yul\":5947:6000   */\n      tag_64\n      jump\t// in\n    tag_139:\n        /* \"#utility.yul\":5937:6000   */\n      swap2\n      pop\n        /* \"#utility.yul\":5893:6010   */\n      pop\n        /* \"#utility.yul\":5688:6017   */\n      swap3\n      swap2\n      pop\n      pop\n      jump\t// out\n        /* \"#utility.yul\":6023:6141   */\n    tag_65:\n        /* \"#utility.yul\":6110:6134   */\n      tag_141\n        /* \"#utility.yul\":6128:6133   */\n      dup2\n        /* \"#utility.yul\":6110:6134   */\n      tag_62\n      jump\t// in\n    tag_141:\n        /* \"#utility.yul\":6105:6108   */\n      dup3\n        /* \"#utility.yul\":6098:6135   */\n      mstore\n        /* \"#utility.yul\":6023:6141   */\n      pop\n      pop\n      jump\t// out\n        /* \"#utility.yul\":6147:6369   */\n    tag_28:\n        /* \"#utility.yul\":6240:6244   */\n      0x00\n        /* \"#utility.yul\":6278:6280   */\n      0x20\n        /* \"#utility.yul\":6267:6276   */\n      dup3\n        /* \"#utility.yul\":6263:6281   */\n      add\n        /* \"#utility.yul\":6255:6281   */\n      swap1\n      pop\n        /* \"#utility.yul\":6291:6362   */\n      tag_143\n        /* \"#utility.yul\":6359:6360   */\n      0x00\n        /* \"#utility.yul\":6348:6357   */\n      dup4\n        /* \"#utility.yul\":6344:6361   */\n      add\n        /* \"#utility.yul\":6335:6341   */\n      dup5\n        /* \"#utility.yul\":6291:6362   */\n      tag_65\n      jump\t// in\n    tag_143:\n        /* \"#utility.yul\":6147:6369   */\n      swap3\n      swap2\n      pop\n      pop\n      jump\t// out\n        /* \"#utility.yul\":6375:6555   */\n    tag_66:\n        /* \"#utility.yul\":6423:6500   */\n      0x4e487b7100000000000000000000000000000000000000000000000000000000\n        /* \"#utility.yul\":6420:6421   */\n      0x00\n        /* \"#utility.yul\":6413:6501   */\n      mstore\n        /* \"#utility.yul\":6520:6524   */\n      0x11\n        /* \"#utility.yul\":6517:6518   */\n      0x04\n        /* \"#utility.yul\":6510:6525   */\n      mstore\n        /* \"#utility.yul\":6544:6548   */\n      0x24\n        /* \"#utility.yul\":6541:6542   */\n      0x00\n        /* \"#utility.yul\":6534:6549   */\n      revert\n        /* \"#utility.yul\":6561:6749   */\n    tag_33:\n        /* \"#utility.yul\":6599:6602   */\n      0x00\n        /* \"#utility.yul\":6618:6636   */\n      tag_146\n        /* \"#utility.yul\":6634:6635   */\n      dup3\n        /* \"#utility.yul\":6618:6636   */\n      tag_44\n      jump\t// in\n    tag_146:\n        /* \"#utility.yul\":6613:6636   */\n      swap2\n      pop\n        /* \"#utility.yul\":6650:6668   */\n      tag_147\n        /* \"#utility.yul\":6666:6667   */\n      dup4\n        /* \"#utility.yul\":6650:6668   */\n      tag_44\n      jump\t// in\n    tag_147:\n        /* \"#utility.yul\":6645:6668   */\n      swap3\n      pop\n        /* \"#utility.yul\":6691:6692   */\n      dup3\n        /* \"#utility.yul\":6688:6689   */\n      dup3\n        /* \"#utility.yul\":6684:6693   */\n      add\n        /* \"#utility.yul\":6677:6693   */\n      swap1\n      pop\n        /* \"#utility.yul\":6714:6718   */\n      0xff\n        /* \"#utility.yul\":6709:6712   */\n      dup2\n        /* \"#utility.yul\":6706:6719   */\n      gt\n        /* \"#utility.yul\":6703:6742   */\n      iszero\n      tag_148\n      jumpi\n        /* \"#utility.yul\":6722:6740   */\n      tag_149\n      tag_66\n      jump\t// in\n    tag_149:\n        /* \"#utility.yul\":6703:6742   */\n    tag_148:\n        /* \"#utility.yul\":6561:6749   */\n      swap3\n      swap2\n      pop\n      pop\n      jump\t// out\n        /* \"#utility.yul\":6755:6946   */\n    tag_38:\n        /* \"#utility.yul\":6795:6798   */\n      0x00\n        /* \"#utility.yul\":6814:6834   */\n      tag_151\n        /* \"#utility.yul\":6832:6833   */\n      dup3\n        /* \"#utility.yul\":6814:6834   */\n      tag_62\n      jump\t// in\n    tag_151:\n        /* \"#utility.yul\":6809:6834   */\n      swap2\n      pop\n        /* \"#utility.yul\":6848:6868   */\n      tag_152\n        /* \"#utility.yul\":6866:6867   */\n      dup4\n        /* \"#utility.yul\":6848:6868   */\n      tag_62\n      jump\t// in\n    tag_152:\n        /* \"#utility.yul\":6843:6868   */\n      swap3\n      pop\n        /* \"#utility.yul\":6891:6892   */\n      dup3\n        /* \"#utility.yul\":6888:6889   */\n      dup3\n        /* \"#utility.yul\":6884:6893   */\n      add\n        /* \"#utility.yul\":6877:6893   */\n      swap1\n      pop\n        /* \"#utility.yul\":6912:6915   */\n      dup1\n        /* \"#utility.yul\":6909:6910   */\n      dup3\n        /* \"#utility.yul\":6906:6916   */\n      gt\n        /* \"#utility.yul\":6903:6939   */\n      iszero\n      tag_153\n      jumpi\n        /* \"#utility.yul\":6919:6937   */\n      tag_154\n      tag_66\n      jump\t// in\n    tag_154:\n        /* \"#utility.yul\":6903:6939   */\n    tag_153:\n        /* \"#utility.yul\":6755:6946   */\n      swap3\n      swap2\n      pop\n      pop\n      jump\t// out\n\n    auxdata: 0xa2646970667358221220f9d41efd7e7c7fbad450a307ab3f72ce1f8a74ae194beb35a770da06b058ce5364736f6c63430008190033\n}\n",
				"bytecode": {
					"linkReferences": {},
					"object": "6080604052348015600f57600080fd5b506105c48061001f6000396000f3fe608060405234801561001057600080fd5b50600436106100575760003560e01c80633120d4341461005c578063826926791461008c5780638ae3048e146100aa578063b3de648b146100da578063c3da42b81461010a575b600080fd5b610076600480360381019061007191906101e2565b610114565b604051610083919061021e565b60405180910390f35b61009461012a565b6040516100a191906102c9565b60405180910390f35b6100c460048036038101906100bf9190610420565b610167565b6040516100d191906102c9565b60405180910390f35b6100f460048036038101906100ef919061049f565b610171565b60405161010191906104db565b60405180910390f35b610112610187565b005b60006001826101239190610525565b9050919050565b60606040518060400160405280600781526020017f746f20646f203100000000000000000000000000000000000000000000000000815250905090565b6060819050919050565b6000600282610180919061055a565b9050919050565b6101926101f4610171565b50565b6000604051905090565b600080fd5b600080fd5b600060ff82169050919050565b6101bf816101a9565b81146101ca57600080fd5b50565b6000813590506101dc816101b6565b92915050565b6000602082840312156101f8576101f761019f565b5b6000610206848285016101cd565b91505092915050565b610218816101a9565b82525050565b6000602082019050610233600083018461020f565b92915050565b600081519050919050565b600082825260208201905092915050565b60005b83811015610273578082015181840152602081019050610258565b60008484015250505050565b6000601f19601f8301169050919050565b600061029b82610239565b6102a58185610244565b93506102b5818560208601610255565b6102be8161027f565b840191505092915050565b600060208201905081810360008301526102e38184610290565b905092915050565b600080fd5b600080fd5b7f4e487b7100000000000000000000000000000000000000000000000000000000600052604160045260246000fd5b61032d8261027f565b810181811067ffffffffffffffff8211171561034c5761034b6102f5565b5b80604052505050565b600061035f610195565b905061036b8282610324565b919050565b600067ffffffffffffffff82111561038b5761038a6102f5565b5b6103948261027f565b9050602081019050919050565b82818337600083830152505050565b60006103c36103be84610370565b610355565b9050828152602081018484840111156103df576103de6102f0565b5b6103ea8482856103a1565b509392505050565b600082601f830112610407576104066102eb565b5b81356104178482602086016103b0565b91505092915050565b6000602082840312156104365761043561019f565b5b600082013567ffffffffffffffff811115610454576104536101a4565b5b610460848285016103f2565b91505092915050565b6000819050919050565b61047c81610469565b811461048757600080fd5b50565b60008135905061049981610473565b92915050565b6000602082840312156104b5576104b461019f565b5b60006104c38482850161048a565b91505092915050565b6104d581610469565b82525050565b60006020820190506104f060008301846104cc565b92915050565b7f4e487b7100000000000000000000000000000000000000000000000000000000600052601160045260246000fd5b6000610530826101a9565b915061053b836101a9565b9250828201905060ff811115610554576105536104f6565b5b92915050565b600061056582610469565b915061057083610469565b9250828201905080821115610588576105876104f6565b5b9291505056fea2646970667358221220f9d41efd7e7c7fbad450a307ab3f72ce1f8a74ae194beb35a770da06b058ce5364736f6c63430008190033",
					"opcodes": "PUSH1 0x80 PUSH1 0x40 MSTORE CALLVALUE DUP1 ISZERO PUSH1 0xF JUMPI PUSH1 0x0 DUP1 REVERT JUMPDEST POP PUSH2 0x5C4 DUP1 PUSH2 0x1F PUSH1 0x0 CODECOPY PUSH1 0x0 RETURN INVALID PUSH1 0x80 PUSH1 0x40 MSTORE CALLVALUE DUP1 ISZERO PUSH2 0x10 JUMPI PUSH1 0x0 DUP1 REVERT JUMPDEST POP PUSH1 0x4 CALLDATASIZE LT PUSH2 0x57 JUMPI PUSH1 0x0 CALLDATALOAD PUSH1 0xE0 SHR DUP1 PUSH4 0x3120D434 EQ PUSH2 0x5C JUMPI DUP1 PUSH4 0x82692679 EQ PUSH2 0x8C JUMPI DUP1 PUSH4 0x8AE3048E EQ PUSH2 0xAA JUMPI DUP1 PUSH4 0xB3DE648B EQ PUSH2 0xDA JUMPI DUP1 PUSH4 0xC3DA42B8 EQ PUSH2 0x10A JUMPI JUMPDEST PUSH1 0x0 DUP1 REVERT JUMPDEST PUSH2 0x76 PUSH1 0x4 DUP1 CALLDATASIZE SUB DUP2 ADD SWAP1 PUSH2 0x71 SWAP2 SWAP1 PUSH2 0x1E2 JUMP JUMPDEST PUSH2 0x114 JUMP JUMPDEST PUSH1 0x40 MLOAD PUSH2 0x83 SWAP2 SWAP1 PUSH2 0x21E JUMP JUMPDEST PUSH1 0x40 MLOAD DUP1 SWAP2 SUB SWAP1 RETURN JUMPDEST PUSH2 0x94 PUSH2 0x12A JUMP JUMPDEST PUSH1 0x40 MLOAD PUSH2 0xA1 SWAP2 SWAP1 PUSH2 0x2C9 JUMP JUMPDEST PUSH1 0x40 MLOAD DUP1 SWAP2 SUB SWAP1 RETURN JUMPDEST PUSH2 0xC4 PUSH1 0x4 DUP1 CALLDATASIZE SUB DUP2 ADD SWAP1 PUSH2 0xBF SWAP2 SWAP1 PUSH2 0x420 JUMP JUMPDEST PUSH2 0x167 JUMP JUMPDEST PUSH1 0x40 MLOAD PUSH2 0xD1 SWAP2 SWAP1 PUSH2 0x2C9 JUMP JUMPDEST PUSH1 0x40 MLOAD DUP1 SWAP2 SUB SWAP1 RETURN JUMPDEST PUSH2 0xF4 PUSH1 0x4 DUP1 CALLDATASIZE SUB DUP2 ADD SWAP1 PUSH2 0xEF SWAP2 SWAP1 PUSH2 0x49F JUMP JUMPDEST PUSH2 0x171 JUMP JUMPDEST PUSH1 0x40 MLOAD PUSH2 0x101 SWAP2 SWAP1 PUSH2 0x4DB JUMP JUMPDEST PUSH1 0x40 MLOAD DUP1 SWAP2 SUB SWAP1 RETURN JUMPDEST PUSH2 0x112 PUSH2 0x187 JUMP JUMPDEST STOP JUMPDEST PUSH1 0x0 PUSH1 0x1 DUP3 PUSH2 0x123 SWAP2 SWAP1 PUSH2 0x525 JUMP JUMPDEST SWAP1 POP SWAP2 SWAP1 POP JUMP JUMPDEST PUSH1 0x60 PUSH1 0x40 MLOAD DUP1 PUSH1 0x40 ADD PUSH1 0x40 MSTORE DUP1 PUSH1 0x7 DUP2 MSTORE PUSH1 0x20 ADD PUSH32 0x746F20646F203100000000000000000000000000000000000000000000000000 DUP2 MSTORE POP SWAP1 POP SWAP1 JUMP JUMPDEST PUSH1 0x60 DUP2 SWAP1 POP SWAP2 SWAP1 POP JUMP JUMPDEST PUSH1 0x0 PUSH1 0x2 DUP3 PUSH2 0x180 SWAP2 SWAP1 PUSH2 0x55A JUMP JUMPDEST SWAP1 POP SWAP2 SWAP1 POP JUMP JUMPDEST PUSH2 0x192 PUSH2 0x1F4 PUSH2 0x171 JUMP JUMPDEST POP JUMP JUMPDEST PUSH1 0x0 PUSH1 0x40 MLOAD SWAP1 POP SWAP1 JUMP JUMPDEST PUSH1 0x0 DUP1 REVERT JUMPDEST PUSH1 0x0 DUP1 REVERT JUMPDEST PUSH1 0x0 PUSH1 0xFF DUP3 AND SWAP1 POP SWAP2 SWAP1 POP JUMP JUMPDEST PUSH2 0x1BF DUP2 PUSH2 0x1A9 JUMP JUMPDEST DUP2 EQ PUSH2 0x1CA JUMPI PUSH1 0x0 DUP1 REVERT JUMPDEST POP JUMP JUMPDEST PUSH1 0x0 DUP2 CALLDATALOAD SWAP1 POP PUSH2 0x1DC DUP2 PUSH2 0x1B6 JUMP JUMPDEST SWAP3 SWAP2 POP POP JUMP JUMPDEST PUSH1 0x0 PUSH1 0x20 DUP3 DUP5 SUB SLT ISZERO PUSH2 0x1F8 JUMPI PUSH2 0x1F7 PUSH2 0x19F JUMP JUMPDEST JUMPDEST PUSH1 0x0 PUSH2 0x206 DUP5 DUP3 DUP6 ADD PUSH2 0x1CD JUMP JUMPDEST SWAP2 POP POP SWAP3 SWAP2 POP POP JUMP JUMPDEST PUSH2 0x218 DUP2 PUSH2 0x1A9 JUMP JUMPDEST DUP3 MSTORE POP POP JUMP JUMPDEST PUSH1 0x0 PUSH1 0x20 DUP3 ADD SWAP1 POP PUSH2 0x233 PUSH1 0x0 DUP4 ADD DUP5 PUSH2 0x20F JUMP JUMPDEST SWAP3 SWAP2 POP POP JUMP JUMPDEST PUSH1 0x0 DUP2 MLOAD SWAP1 POP SWAP2 SWAP1 POP JUMP JUMPDEST PUSH1 0x0 DUP3 DUP3 MSTORE PUSH1 0x20 DUP3 ADD SWAP1 POP SWAP3 SWAP2 POP POP JUMP JUMPDEST PUSH1 0x0 JUMPDEST DUP4 DUP2 LT ISZERO PUSH2 0x273 JUMPI DUP1 DUP3 ADD MLOAD DUP2 DUP5 ADD MSTORE PUSH1 0x20 DUP2 ADD SWAP1 POP PUSH2 0x258 JUMP JUMPDEST PUSH1 0x0 DUP5 DUP5 ADD MSTORE POP POP POP POP JUMP JUMPDEST PUSH1 0x0 PUSH1 0x1F NOT PUSH1 0x1F DUP4 ADD AND SWAP1 POP SWAP2 SWAP1 POP JUMP JUMPDEST PUSH1 0x0 PUSH2 0x29B DUP3 PUSH2 0x239 JUMP JUMPDEST PUSH2 0x2A5 DUP2 DUP6 PUSH2 0x244 JUMP JUMPDEST SWAP4 POP PUSH2 0x2B5 DUP2 DUP6 PUSH1 0x20 DUP7 ADD PUSH2 0x255 JUMP JUMPDEST PUSH2 0x2BE DUP2 PUSH2 0x27F JUMP JUMPDEST DUP5 ADD SWAP2 POP POP SWAP3 SWAP2 POP POP JUMP JUMPDEST PUSH1 0x0 PUSH1 0x20 DUP3 ADD SWAP1 POP DUP2 DUP2 SUB PUSH1 0x0 DUP4 ADD MSTORE PUSH2 0x2E3 DUP2 DUP5 PUSH2 0x290 JUMP JUMPDEST SWAP1 POP SWAP3 SWAP2 POP POP JUMP JUMPDEST PUSH1 0x0 DUP1 REVERT JUMPDEST PUSH1 0x0 DUP1 REVERT JUMPDEST PUSH32 0x4E487B7100000000000000000000000000000000000000000000000000000000 PUSH1 0x0 MSTORE PUSH1 0x41 PUSH1 0x4 MSTORE PUSH1 0x24 PUSH1 0x0 REVERT JUMPDEST PUSH2 0x32D DUP3 PUSH2 0x27F JUMP JUMPDEST DUP2 ADD DUP2 DUP2 LT PUSH8 0xFFFFFFFFFFFFFFFF DUP3 GT OR ISZERO PUSH2 0x34C JUMPI PUSH2 0x34B PUSH2 0x2F5 JUMP JUMPDEST JUMPDEST DUP1 PUSH1 0x40 MSTORE POP POP POP JUMP JUMPDEST PUSH1 0x0 PUSH2 0x35F PUSH2 0x195 JUMP JUMPDEST SWAP1 POP PUSH2 0x36B DUP3 DUP3 PUSH2 0x324 JUMP JUMPDEST SWAP2 SWAP1 POP JUMP JUMPDEST PUSH1 0x0 PUSH8 0xFFFFFFFFFFFFFFFF DUP3 GT ISZERO PUSH2 0x38B JUMPI PUSH2 0x38A PUSH2 0x2F5 JUMP JUMPDEST JUMPDEST PUSH2 0x394 DUP3 PUSH2 0x27F JUMP JUMPDEST SWAP1 POP PUSH1 0x20 DUP2 ADD SWAP1 POP SWAP2 SWAP1 POP JUMP JUMPDEST DUP3 DUP2 DUP4 CALLDATACOPY PUSH1 0x0 DUP4 DUP4 ADD MSTORE POP POP POP JUMP JUMPDEST PUSH1 0x0 PUSH2 0x3C3 PUSH2 0x3BE DUP5 PUSH2 0x370 JUMP JUMPDEST PUSH2 0x355 JUMP JUMPDEST SWAP1 POP DUP3 DUP2 MSTORE PUSH1 0x20 DUP2 ADD DUP5 DUP5 DUP5 ADD GT ISZERO PUSH2 0x3DF JUMPI PUSH2 0x3DE PUSH2 0x2F0 JUMP JUMPDEST JUMPDEST PUSH2 0x3EA DUP5 DUP3 DUP6 PUSH2 0x3A1 JUMP JUMPDEST POP SWAP4 SWAP3 POP POP POP JUMP JUMPDEST PUSH1 0x0 DUP3 PUSH1 0x1F DUP4 ADD SLT PUSH2 0x407 JUMPI PUSH2 0x406 PUSH2 0x2EB JUMP JUMPDEST JUMPDEST DUP2 CALLDATALOAD PUSH2 0x417 DUP5 DUP3 PUSH1 0x20 DUP7 ADD PUSH2 0x3B0 JUMP JUMPDEST SWAP2 POP POP SWAP3 SWAP2 POP POP JUMP JUMPDEST PUSH1 0x0 PUSH1 0x20 DUP3 DUP5 SUB SLT ISZERO PUSH2 0x436 JUMPI PUSH2 0x435 PUSH2 0x19F JUMP JUMPDEST JUMPDEST PUSH1 0x0 DUP3 ADD CALLDATALOAD PUSH8 0xFFFFFFFFFFFFFFFF DUP2 GT ISZERO PUSH2 0x454 JUMPI PUSH2 0x453 PUSH2 0x1A4 JUMP JUMPDEST JUMPDEST PUSH2 0x460 DUP5 DUP3 DUP6 ADD PUSH2 0x3F2 JUMP JUMPDEST SWAP2 POP POP SWAP3 SWAP2 POP POP JUMP JUMPDEST PUSH1 0x0 DUP2 SWAP1 POP SWAP2 SWAP1 POP JUMP JUMPDEST PUSH2 0x47C DUP2 PUSH2 0x469 JUMP JUMPDEST DUP2 EQ PUSH2 0x487 JUMPI PUSH1 0x0 DUP1 REVERT JUMPDEST POP JUMP JUMPDEST PUSH1 0x0 DUP2 CALLDATALOAD SWAP1 POP PUSH2 0x499 DUP2 PUSH2 0x473 JUMP JUMPDEST SWAP3 SWAP2 POP POP JUMP JUMPDEST PUSH1 0x0 PUSH1 0x20 DUP3 DUP5 SUB SLT ISZERO PUSH2 0x4B5 JUMPI PUSH2 0x4B4 PUSH2 0x19F JUMP JUMPDEST JUMPDEST PUSH1 0x0 PUSH2 0x4C3 DUP5 DUP3 DUP6 ADD PUSH2 0x48A JUMP JUMPDEST SWAP2 POP POP SWAP3 SWAP2 POP POP JUMP JUMPDEST PUSH2 0x4D5 DUP2 PUSH2 0x469 JUMP JUMPDEST DUP3 MSTORE POP POP JUMP JUMPDEST PUSH1 0x0 PUSH1 0x20 DUP3 ADD SWAP1 POP PUSH2 0x4F0 PUSH1 0x0 DUP4 ADD DUP5 PUSH2 0x4CC JUMP JUMPDEST SWAP3 SWAP2 POP POP JUMP JUMPDEST PUSH32 0x4E487B7100000000000000000000000000000000000000000000000000000000 PUSH1 0x0 MSTORE PUSH1 0x11 PUSH1 0x4 MSTORE PUSH1 0x24 PUSH1 0x0 REVERT JUMPDEST PUSH1 0x0 PUSH2 0x530 DUP3 PUSH2 0x1A9 JUMP JUMPDEST SWAP2 POP PUSH2 0x53B DUP4 PUSH2 0x1A9 JUMP JUMPDEST SWAP3 POP DUP3 DUP3 ADD SWAP1 POP PUSH1 0xFF DUP2 GT ISZERO PUSH2 0x554 JUMPI PUSH2 0x553 PUSH2 0x4F6 JUMP JUMPDEST JUMPDEST SWAP3 SWAP2 POP POP JUMP JUMPDEST PUSH1 0x0 PUSH2 0x565 DUP3 PUSH2 0x469 JUMP JUMPDEST SWAP2 POP PUSH2 0x570 DUP4 PUSH2 0x469 JUMP JUMPDEST SWAP3 POP DUP3 DUP3 ADD SWAP1 POP DUP1 DUP3 GT ISZERO PUSH2 0x588 JUMPI PUSH2 0x587 PUSH2 0x4F6 JUMP JUMPDEST JUMPDEST SWAP3 SWAP2 POP POP JUMP INVALID LOG2 PUSH5 0x6970667358 0x22 SLT KECCAK256 0xF9 0xD4 0x1E REVERT PUSH31 0x7C7FBAD450A307AB3F72CE1F8A74AE194BEB35A770DA06B058CE5364736F6C PUSH4 0x43000819 STOP CALLER "
				},
				"gasEstimates": {
					"creation": {
						"codeDepositCost": "295200",
						"executionCost": "337",
						"totalCost": "295537"
					},
					"external": {
						"c()": "infinite",
						"doSomething()": "infinite",
						"doSomething(string)": "infinite",
						"f(uint256)": "infinite",
						"f(uint8)": "infinite"
					}
				},
				"methodIdentifiers": {
					"c()": "c3da42b8",
					"doSomething()": "82692679",
					"doSomething(string)": "8ae3048e",
					"f(uint256)": "b3de648b",
					"f(uint8)": "3120d434"
				}
			},
			"storageLayout": {
				"storage": [],
				"types": null
			},
			"userdoc": {
				"kind": "user",
				"methods": {},
				"version": 1
			}
		}
	}
}