{
	"contracts/34_ERC721.sol": {
		"ERC721": {
			"abi": [
				{
					"inputs": [
						{
							"internalType": "string",
							"name": "name_",
							"type": "string"
						},
						{
							"internalType": "string",
							"name": "symbol_",
							"type": "string"
						}
					],
					"stateMutability": "nonpayable",
					"type": "constructor"
				},
				{
					"anonymous": false,
					"inputs": [
						{
							"indexed": true,
							"internalType": "address",
							"name": "owner",
							"type": "address"
						},
						{
							"indexed": true,
							"internalType": "address",
							"name": "approved",
							"type": "address"
						},
						{
							"indexed": true,
							"internalType": "uint256",
							"name": "tokenId",
							"type": "uint256"
						}
					],
					"name": "Approval",
					"type": "event"
				},
				{
					"anonymous": false,
					"inputs": [
						{
							"indexed": true,
							"internalType": "address",
							"name": "owner",
							"type": "address"
						},
						{
							"indexed": true,
							"internalType": "address",
							"name": "operator",
							"type": "address"
						},
						{
							"indexed": false,
							"internalType": "bool",
							"name": "approved",
							"type": "bool"
						}
					],
					"name": "ApprovalForAll",
					"type": "event"
				},
				{
					"anonymous": false,
					"inputs": [
						{
							"indexed": true,
							"internalType": "address",
							"name": "from",
							"type": "address"
						},
						{
							"indexed": true,
							"internalType": "address",
							"name": "to",
							"type": "address"
						},
						{
							"indexed": true,
							"internalType": "uint256",
							"name": "tokenId",
							"type": "uint256"
						}
					],
					"name": "Transfer",
					"type": "event"
				},
				{
					"inputs": [
						{
							"internalType": "address",
							"name": "to",
							"type": "address"
						},
						{
							"internalType": "uint256",
							"name": "tokenId",
							"type": "uint256"
						}
					],
					"name": "_mint",
					"outputs": [],
					"stateMutability": "nonpayable",
					"type": "function"
				},
				{
					"inputs": [
						{
							"internalType": "address",
							"name": "to",
							"type": "address"
						},
						{
							"internalType": "uint256",
							"name": "tokenId",
							"type": "uint256"
						}
					],
					"name": "approve",
					"outputs": [],
					"stateMutability": "nonpayable",
					"type": "function"
				},
				{
					"inputs": [
						{
							"internalType": "address",
							"name": "owner",
							"type": "address"
						}
					],
					"name": "balanceOf",
					"outputs": [
						{
							"internalType": "uint256",
							"name": "",
							"type": "uint256"
						}
					],
					"stateMutability": "view",
					"type": "function"
				},
				{
					"inputs": [
						{
							"internalType": "uint256",
							"name": "tokenId",
							"type": "uint256"
						}
					],
					"name": "getApproved",
					"outputs": [
						{
							"internalType": "address",
							"name": "",
							"type": "address"
						}
					],
					"stateMutability": "view",
					"type": "function"
				},
				{
					"inputs": [
						{
							"internalType": "address",
							"name": "owner",
							"type": "address"
						},
						{
							"internalType": "address",
							"name": "operator",
							"type": "address"
						}
					],
					"name": "isApprovedForAll",
					"outputs": [
						{
							"internalType": "bool",
							"name": "",
							"type": "bool"
						}
					],
					"stateMutability": "view",
					"type": "function"
				},
				{
					"inputs": [
						{
							"internalType": "address",
							"name": "_addr",
							"type": "address"
						}
					],
					"name": "isContract",
					"outputs": [
						{
							"internalType": "bool",
							"name": "",
							"type": "bool"
						}
					],
					"stateMutability": "view",
					"type": "function"
				},
				{
					"inputs": [],
					"name": "name",
					"outputs": [
						{
							"internalType": "string",
							"name": "",
							"type": "string"
						}
					],
					"stateMutability": "view",
					"type": "function"
				},
				{
					"inputs": [
						{
							"internalType": "uint256",
							"name": "tokenId",
							"type": "uint256"
						}
					],
					"name": "ownerOf",
					"outputs": [
						{
							"internalType": "address",
							"name": "owner",
							"type": "address"
						}
					],
					"stateMutability": "view",
					"type": "function"
				},
				{
					"inputs": [
						{
							"internalType": "address",
							"name": "from",
							"type": "address"
						},
						{
							"internalType": "address",
							"name": "to",
							"type": "address"
						},
						{
							"internalType": "uint256",
							"name": "tokenId",
							"type": "uint256"
						}
					],
					"name": "safeTransferFrom",
					"outputs": [],
					"stateMutability": "nonpayable",
					"type": "function"
				},
				{
					"inputs": [
						{
							"internalType": "address",
							"name": "from",
							"type": "address"
						},
						{
							"internalType": "address",
							"name": "to",
							"type": "address"
						},
						{
							"internalType": "uint256",
							"name": "tokenId",
							"type": "uint256"
						},
						{
							"internalType": "bytes",
							"name": "_data",
							"type": "bytes"
						}
					],
					"name": "safeTransferFrom",
					"outputs": [],
					"stateMutability": "nonpayable",
					"type": "function"
				},
				{
					"inputs": [
						{
							"internalType": "address",
							"name": "operator",
							"type": "address"
						},
						{
							"internalType": "bool",
							"name": "approved",
							"type": "bool"
						}
					],
					"name": "setApprovalForAll",
					"outputs": [],
					"stateMutability": "nonpayable",
					"type": "function"
				},
				{
					"inputs": [
						{
							"internalType": "bytes4",
							"name": "interfaceId",
							"type": "bytes4"
						}
					],
					"name": "supportsInterface",
					"outputs": [
						{
							"internalType": "bool",
							"name": "",
							"type": "bool"
						}
					],
					"stateMutability": "pure",
					"type": "function"
				},
				{
					"inputs": [],
					"name": "symbol",
					"outputs": [
						{
							"internalType": "string",
							"name": "",
							"type": "string"
						}
					],
					"stateMutability": "view",
					"type": "function"
				},
				{
					"inputs": [
						{
							"internalType": "uint256",
							"name": "tokenId",
							"type": "uint256"
						}
					],
					"name": "tokenURI",
					"outputs": [
						{
							"internalType": "string",
							"name": "",
							"type": "string"
						}
					],
					"stateMutability": "view",
					"type": "function"
				},
				{
					"inputs": [
						{
							"internalType": "address",
							"name": "from",
							"type": "address"
						},
						{
							"internalType": "address",
							"name": "to",
							"type": "address"
						},
						{
							"internalType": "uint256",
							"name": "tokenId",
							"type": "uint256"
						}
					],
					"name": "transferFrom",
					"outputs": [],
					"stateMutability": "nonpayable",
					"type": "function"
				}
			],
			"devdoc": {
				"events": {
					"Approval(address,address,uint256)": {
						"details": "Emitted when `owner` enables `approved` to manage the `tokenId` token."
					},
					"ApprovalForAll(address,address,bool)": {
						"details": "Emitted when `owner` enables or disables (`approved`) `operator` to manage all of its assets."
					},
					"Transfer(address,address,uint256)": {
						"details": "Emitted when `tokenId` token is transferred from `from` to `to`."
					}
				},
				"kind": "dev",
				"methods": {
					"approve(address,uint256)": {
						"details": "Gives permission to `to` to transfer `tokenId` token to another account. The approval is cleared when the token is transferred. Only a single account can be approved at a time, so approving the zero address clears previous approvals. Requirements: - The caller must own the token or be an approved operator. - `tokenId` must exist. Emits an {Approval} event."
					},
					"balanceOf(address)": {
						"details": "Returns the number of tokens in ``owner``'s account."
					},
					"getApproved(uint256)": {
						"details": "Returns the account approved for `tokenId` token. Requirements: - `tokenId` must exist."
					},
					"isApprovedForAll(address,address)": {
						"details": "Returns if the `operator` is allowed to manage all of the assets of `owner`. See {setApprovalForAll}"
					},
					"ownerOf(uint256)": {
						"details": "Returns the owner of the `tokenId` token. Requirements: - `tokenId` must exist."
					},
					"safeTransferFrom(address,address,uint256)": {
						"details": "Safely transfers `tokenId` token from `from` to `to`, checking first that contract recipients are aware of the ERC721 protocol to prevent tokens from being forever locked. Requirements: - `from` cannot be the zero address. - `to` cannot be the zero address. - `tokenId` token must exist and be owned by `from`. - If the caller is not `from`, it must have been allowed to move this token by either {approve} or   {setApprovalForAll}. - If `to` refers to a smart contract, it must implement {IERC721Receiver-onERC721Received}, which is called upon   a safe transfer. Emits a {Transfer} event."
					},
					"setApprovalForAll(address,bool)": {
						"details": "Approve or remove `operator` as an operator for the caller. Operators can call {transferFrom} or {safeTransferFrom} for any token owned by the caller. Requirements: - The `operator` cannot be the address zero. Emits an {ApprovalForAll} event."
					},
					"supportsInterface(bytes4)": {
						"details": "Returns true if this contract implements the interface defined by `interfaceId`. See the corresponding https://eips.ethereum.org/EIPS/eip-165#how-interfaces-are-identified[EIP section] to learn more about how these ids are created. This function call must use less than 30 000 gas."
					},
					"transferFrom(address,address,uint256)": {
						"details": "Transfers `tokenId` token from `from` to `to`. WARNING: Note that the caller is responsible to confirm that the recipient is capable of receiving ERC721 or else they may be permanently lost. Usage of {safeTransferFrom} prevents loss, though the caller must understand this adds an external call which potentially creates a reentrancy vulnerability. Requirements: - `from` cannot be the zero address. - `to` cannot be the zero address. - `tokenId` token must be owned by `from`. - If the caller is not `from`, it must be approved to move this token by either {approve} or {setApprovalForAll}. Emits a {Transfer} event."
					}
				},
				"stateVariables": {
					"name": {
						"details": "Returns the token collection name."
					},
					"symbol": {
						"details": "Returns the token collection symbol."
					}
				},
				"version": 1
			},
			"evm": {
				"assembly": "    /* \"contracts/34_ERC721.sol\":1333:10527  contract ERC721 is IERC721, IERC721Metadata{... */\n  mstore(0x40, 0x80)\n    /* \"contracts/34_ERC721.sol\":2146:2257  constructor(string memory name_, string memory symbol_) {... */\n  callvalue\n  dup1\n  iszero\n  tag_1\n  jumpi\n  0x00\n  dup1\n  revert\ntag_1:\n  pop\n  mload(0x40)\n  sub(codesize, bytecodeSize)\n  dup1\n  bytecodeSize\n  dup4\n  codecopy\n  dup2\n  dup2\n  add\n  0x40\n  mstore\n  dup2\n  add\n  swap1\n  tag_2\n  swap2\n  swap1\n  tag_3\n  jump\t// in\ntag_2:\n    /* \"contracts/34_ERC721.sol\":2219:2224  name_ */\n  dup2\n    /* \"contracts/34_ERC721.sol\":2212:2216  name */\n  0x00\n    /* \"contracts/34_ERC721.sol\":2212:2224  name = name_ */\n  swap1\n  dup2\n  tag_6\n  swap2\n  swap1\n  tag_7\n  jump\t// in\ntag_6:\n  pop\n    /* \"contracts/34_ERC721.sol\":2243:2250  symbol_ */\n  dup1\n    /* \"contracts/34_ERC721.sol\":2234:2240  symbol */\n  0x01\n    /* \"contracts/34_ERC721.sol\":2234:2250  symbol = symbol_ */\n  swap1\n  dup2\n  tag_8\n  swap2\n  swap1\n  tag_7\n  jump\t// in\ntag_8:\n  pop\n    /* \"contracts/34_ERC721.sol\":2146:2257  constructor(string memory name_, string memory symbol_) {... */\n  pop\n  pop\n    /* \"contracts/34_ERC721.sol\":1333:10527  contract ERC721 is IERC721, IERC721Metadata{... */\n  jump(tag_9)\n    /* \"#utility.yul\":7:82   */\ntag_10:\n    /* \"#utility.yul\":40:46   */\n  0x00\n    /* \"#utility.yul\":73:75   */\n  0x40\n    /* \"#utility.yul\":67:76   */\n  mload\n    /* \"#utility.yul\":57:76   */\n  swap1\n  pop\n    /* \"#utility.yul\":7:82   */\n  swap1\n  jump\t// out\n    /* \"#utility.yul\":88:205   */\ntag_11:\n    /* \"#utility.yul\":197:198   */\n  0x00\n    /* \"#utility.yul\":194:195   */\n  dup1\n    /* \"#utility.yul\":187:199   */\n  revert\n    /* \"#utility.yul\":211:328   */\ntag_12:\n    /* \"#utility.yul\":320:321   */\n  0x00\n    /* \"#utility.yul\":317:318   */\n  dup1\n    /* \"#utility.yul\":310:322   */\n  revert\n    /* \"#utility.yul\":334:451   */\ntag_13:\n    /* \"#utility.yul\":443:444   */\n  0x00\n    /* \"#utility.yul\":440:441   */\n  dup1\n    /* \"#utility.yul\":433:445   */\n  revert\n    /* \"#utility.yul\":457:574   */\ntag_14:\n    /* \"#utility.yul\":566:567   */\n  0x00\n    /* \"#utility.yul\":563:564   */\n  dup1\n    /* \"#utility.yul\":556:568   */\n  revert\n    /* \"#utility.yul\":580:682   */\ntag_15:\n    /* \"#utility.yul\":621:627   */\n  0x00\n    /* \"#utility.yul\":672:674   */\n  0x1f\n    /* \"#utility.yul\":668:675   */\n  not\n    /* \"#utility.yul\":663:665   */\n  0x1f\n    /* \"#utility.yul\":656:661   */\n  dup4\n    /* \"#utility.yul\":652:666   */\n  add\n    /* \"#utility.yul\":648:676   */\n  and\n    /* \"#utility.yul\":638:676   */\n  swap1\n  pop\n    /* \"#utility.yul\":580:682   */\n  swap2\n  swap1\n  pop\n  jump\t// out\n    /* \"#utility.yul\":688:868   */\ntag_16:\n    /* \"#utility.yul\":736:813   */\n  0x4e487b7100000000000000000000000000000000000000000000000000000000\n    /* \"#utility.yul\":733:734   */\n  0x00\n    /* \"#utility.yul\":726:814   */\n  mstore\n    /* \"#utility.yul\":833:837   */\n  0x41\n    /* \"#utility.yul\":830:831   */\n  0x04\n    /* \"#utility.yul\":823:838   */\n  mstore\n    /* \"#utility.yul\":857:861   */\n  0x24\n    /* \"#utility.yul\":854:855   */\n  0x00\n    /* \"#utility.yul\":847:862   */\n  revert\n    /* \"#utility.yul\":874:1155   */\ntag_17:\n    /* \"#utility.yul\":957:984   */\n  tag_51\n    /* \"#utility.yul\":979:983   */\n  dup3\n    /* \"#utility.yul\":957:984   */\n  tag_15\n  jump\t// in\ntag_51:\n    /* \"#utility.yul\":949:955   */\n  dup2\n    /* \"#utility.yul\":945:985   */\n  add\n    /* \"#utility.yul\":1087:1093   */\n  dup2\n    /* \"#utility.yul\":1075:1085   */\n  dup2\n    /* \"#utility.yul\":1072:1094   */\n  lt\n    /* \"#utility.yul\":1051:1069   */\n  0xffffffffffffffff\n    /* \"#utility.yul\":1039:1049   */\n  dup3\n    /* \"#utility.yul\":1036:1070   */\n  gt\n    /* \"#utility.yul\":1033:1095   */\n  or\n    /* \"#utility.yul\":1030:1118   */\n  iszero\n  tag_52\n  jumpi\n    /* \"#utility.yul\":1098:1116   */\n  tag_53\n  tag_16\n  jump\t// in\ntag_53:\n    /* \"#utility.yul\":1030:1118   */\ntag_52:\n    /* \"#utility.yul\":1138:1148   */\n  dup1\n    /* \"#utility.yul\":1134:1136   */\n  0x40\n    /* \"#utility.yul\":1127:1149   */\n  mstore\n    /* \"#utility.yul\":917:1155   */\n  pop\n    /* \"#utility.yul\":874:1155   */\n  pop\n  pop\n  jump\t// out\n    /* \"#utility.yul\":1161:1290   */\ntag_18:\n    /* \"#utility.yul\":1195:1201   */\n  0x00\n    /* \"#utility.yul\":1222:1242   */\n  tag_55\n  tag_10\n  jump\t// in\ntag_55:\n    /* \"#utility.yul\":1212:1242   */\n  swap1\n  pop\n    /* \"#utility.yul\":1251:1284   */\n  tag_56\n    /* \"#utility.yul\":1279:1283   */\n  dup3\n    /* \"#utility.yul\":1271:1277   */\n  dup3\n    /* \"#utility.yul\":1251:1284   */\n  tag_17\n  jump\t// in\ntag_56:\n    /* \"#utility.yul\":1161:1290   */\n  swap2\n  swap1\n  pop\n  jump\t// out\n    /* \"#utility.yul\":1296:1604   */\ntag_19:\n    /* \"#utility.yul\":1358:1362   */\n  0x00\n    /* \"#utility.yul\":1448:1466   */\n  0xffffffffffffffff\n    /* \"#utility.yul\":1440:1446   */\n  dup3\n    /* \"#utility.yul\":1437:1467   */\n  gt\n    /* \"#utility.yul\":1434:1490   */\n  iszero\n  tag_58\n  jumpi\n    /* \"#utility.yul\":1470:1488   */\n  tag_59\n  tag_16\n  jump\t// in\ntag_59:\n    /* \"#utility.yul\":1434:1490   */\ntag_58:\n    /* \"#utility.yul\":1508:1537   */\n  tag_60\n    /* \"#utility.yul\":1530:1536   */\n  dup3\n    /* \"#utility.yul\":1508:1537   */\n  tag_15\n  jump\t// in\ntag_60:\n    /* \"#utility.yul\":1500:1537   */\n  swap1\n  pop\n    /* \"#utility.yul\":1592:1596   */\n  0x20\n    /* \"#utility.yul\":1586:1590   */\n  dup2\n    /* \"#utility.yul\":1582:1597   */\n  add\n    /* \"#utility.yul\":1574:1597   */\n  swap1\n  pop\n    /* \"#utility.yul\":1296:1604   */\n  swap2\n  swap1\n  pop\n  jump\t// out\n    /* \"#utility.yul\":1610:1858   */\ntag_20:\n    /* \"#utility.yul\":1692:1693   */\n  0x00\n    /* \"#utility.yul\":1702:1815   */\ntag_62:\n    /* \"#utility.yul\":1716:1722   */\n  dup4\n    /* \"#utility.yul\":1713:1714   */\n  dup2\n    /* \"#utility.yul\":1710:1723   */\n  lt\n    /* \"#utility.yul\":1702:1815   */\n  iszero\n  tag_64\n  jumpi\n    /* \"#utility.yul\":1801:1802   */\n  dup1\n    /* \"#utility.yul\":1796:1799   */\n  dup3\n    /* \"#utility.yul\":1792:1803   */\n  add\n    /* \"#utility.yul\":1786:1804   */\n  mload\n    /* \"#utility.yul\":1782:1783   */\n  dup2\n    /* \"#utility.yul\":1777:1780   */\n  dup5\n    /* \"#utility.yul\":1773:1784   */\n  add\n    /* \"#utility.yul\":1766:1805   */\n  mstore\n    /* \"#utility.yul\":1738:1740   */\n  0x20\n    /* \"#utility.yul\":1735:1736   */\n  dup2\n    /* \"#utility.yul\":1731:1741   */\n  add\n    /* \"#utility.yul\":1726:1741   */\n  swap1\n  pop\n    /* \"#utility.yul\":1702:1815   */\n  jump(tag_62)\ntag_64:\n    /* \"#utility.yul\":1849:1850   */\n  0x00\n    /* \"#utility.yul\":1840:1846   */\n  dup5\n    /* \"#utility.yul\":1835:1838   */\n  dup5\n    /* \"#utility.yul\":1831:1847   */\n  add\n    /* \"#utility.yul\":1824:1851   */\n  mstore\n    /* \"#utility.yul\":1672:1858   */\n  pop\n    /* \"#utility.yul\":1610:1858   */\n  pop\n  pop\n  pop\n  jump\t// out\n    /* \"#utility.yul\":1864:2298   */\ntag_21:\n    /* \"#utility.yul\":1953:1958   */\n  0x00\n    /* \"#utility.yul\":1978:2044   */\n  tag_66\n    /* \"#utility.yul\":1994:2043   */\n  tag_67\n    /* \"#utility.yul\":2036:2042   */\n  dup5\n    /* \"#utility.yul\":1994:2043   */\n  tag_19\n  jump\t// in\ntag_67:\n    /* \"#utility.yul\":1978:2044   */\n  tag_18\n  jump\t// in\ntag_66:\n    /* \"#utility.yul\":1969:2044   */\n  swap1\n  pop\n    /* \"#utility.yul\":2067:2073   */\n  dup3\n    /* \"#utility.yul\":2060:2065   */\n  dup2\n    /* \"#utility.yul\":2053:2074   */\n  mstore\n    /* \"#utility.yul\":2105:2109   */\n  0x20\n    /* \"#utility.yul\":2098:2103   */\n  dup2\n    /* \"#utility.yul\":2094:2110   */\n  add\n    /* \"#utility.yul\":2143:2146   */\n  dup5\n    /* \"#utility.yul\":2134:2140   */\n  dup5\n    /* \"#utility.yul\":2129:2132   */\n  dup5\n    /* \"#utility.yul\":2125:2141   */\n  add\n    /* \"#utility.yul\":2122:2147   */\n  gt\n    /* \"#utility.yul\":2119:2231   */\n  iszero\n  tag_68\n  jumpi\n    /* \"#utility.yul\":2150:2229   */\n  tag_69\n  tag_14\n  jump\t// in\ntag_69:\n    /* \"#utility.yul\":2119:2231   */\ntag_68:\n    /* \"#utility.yul\":2240:2292   */\n  tag_70\n    /* \"#utility.yul\":2285:2291   */\n  dup5\n    /* \"#utility.yul\":2280:2283   */\n  dup3\n    /* \"#utility.yul\":2275:2278   */\n  dup6\n    /* \"#utility.yul\":2240:2292   */\n  tag_20\n  jump\t// in\ntag_70:\n    /* \"#utility.yul\":1959:2298   */\n  pop\n    /* \"#utility.yul\":1864:2298   */\n  swap4\n  swap3\n  pop\n  pop\n  pop\n  jump\t// out\n    /* \"#utility.yul\":2318:2673   */\ntag_22:\n    /* \"#utility.yul\":2385:2390   */\n  0x00\n    /* \"#utility.yul\":2434:2437   */\n  dup3\n    /* \"#utility.yul\":2427:2431   */\n  0x1f\n    /* \"#utility.yul\":2419:2425   */\n  dup4\n    /* \"#utility.yul\":2415:2432   */\n  add\n    /* \"#utility.yul\":2411:2438   */\n  slt\n    /* \"#utility.yul\":2401:2523   */\n  tag_72\n  jumpi\n    /* \"#utility.yul\":2442:2521   */\n  tag_73\n  tag_13\n  jump\t// in\ntag_73:\n    /* \"#utility.yul\":2401:2523   */\ntag_72:\n    /* \"#utility.yul\":2552:2558   */\n  dup2\n    /* \"#utility.yul\":2546:2559   */\n  mload\n    /* \"#utility.yul\":2577:2667   */\n  tag_74\n    /* \"#utility.yul\":2663:2666   */\n  dup5\n    /* \"#utility.yul\":2655:2661   */\n  dup3\n    /* \"#utility.yul\":2648:2652   */\n  0x20\n    /* \"#utility.yul\":2640:2646   */\n  dup7\n    /* \"#utility.yul\":2636:2653   */\n  add\n    /* \"#utility.yul\":2577:2667   */\n  tag_21\n  jump\t// in\ntag_74:\n    /* \"#utility.yul\":2568:2667   */\n  swap2\n  pop\n    /* \"#utility.yul\":2391:2673   */\n  pop\n    /* \"#utility.yul\":2318:2673   */\n  swap3\n  swap2\n  pop\n  pop\n  jump\t// out\n    /* \"#utility.yul\":2679:3532   */\ntag_3:\n    /* \"#utility.yul\":2778:2784   */\n  0x00\n    /* \"#utility.yul\":2786:2792   */\n  dup1\n    /* \"#utility.yul\":2835:2837   */\n  0x40\n    /* \"#utility.yul\":2823:2832   */\n  dup4\n    /* \"#utility.yul\":2814:2821   */\n  dup6\n    /* \"#utility.yul\":2810:2833   */\n  sub\n    /* \"#utility.yul\":2806:2838   */\n  slt\n    /* \"#utility.yul\":2803:2922   */\n  iszero\n  tag_76\n  jumpi\n    /* \"#utility.yul\":2841:2920   */\n  tag_77\n  tag_11\n  jump\t// in\ntag_77:\n    /* \"#utility.yul\":2803:2922   */\ntag_76:\n    /* \"#utility.yul\":2982:2983   */\n  0x00\n    /* \"#utility.yul\":2971:2980   */\n  dup4\n    /* \"#utility.yul\":2967:2984   */\n  add\n    /* \"#utility.yul\":2961:2985   */\n  mload\n    /* \"#utility.yul\":3012:3030   */\n  0xffffffffffffffff\n    /* \"#utility.yul\":3004:3010   */\n  dup2\n    /* \"#utility.yul\":3001:3031   */\n  gt\n    /* \"#utility.yul\":2998:3115   */\n  iszero\n  tag_78\n  jumpi\n    /* \"#utility.yul\":3034:3113   */\n  tag_79\n  tag_12\n  jump\t// in\ntag_79:\n    /* \"#utility.yul\":2998:3115   */\ntag_78:\n    /* \"#utility.yul\":3139:3213   */\n  tag_80\n    /* \"#utility.yul\":3205:3212   */\n  dup6\n    /* \"#utility.yul\":3196:3202   */\n  dup3\n    /* \"#utility.yul\":3185:3194   */\n  dup7\n    /* \"#utility.yul\":3181:3203   */\n  add\n    /* \"#utility.yul\":3139:3213   */\n  tag_22\n  jump\t// in\ntag_80:\n    /* \"#utility.yul\":3129:3213   */\n  swap3\n  pop\n    /* \"#utility.yul\":2932:3223   */\n  pop\n    /* \"#utility.yul\":3283:3285   */\n  0x20\n    /* \"#utility.yul\":3272:3281   */\n  dup4\n    /* \"#utility.yul\":3268:3286   */\n  add\n    /* \"#utility.yul\":3262:3287   */\n  mload\n    /* \"#utility.yul\":3314:3332   */\n  0xffffffffffffffff\n    /* \"#utility.yul\":3306:3312   */\n  dup2\n    /* \"#utility.yul\":3303:3333   */\n  gt\n    /* \"#utility.yul\":3300:3417   */\n  iszero\n  tag_81\n  jumpi\n    /* \"#utility.yul\":3336:3415   */\n  tag_82\n  tag_12\n  jump\t// in\ntag_82:\n    /* \"#utility.yul\":3300:3417   */\ntag_81:\n    /* \"#utility.yul\":3441:3515   */\n  tag_83\n    /* \"#utility.yul\":3507:3514   */\n  dup6\n    /* \"#utility.yul\":3498:3504   */\n  dup3\n    /* \"#utility.yul\":3487:3496   */\n  dup7\n    /* \"#utility.yul\":3483:3505   */\n  add\n    /* \"#utility.yul\":3441:3515   */\n  tag_22\n  jump\t// in\ntag_83:\n    /* \"#utility.yul\":3431:3515   */\n  swap2\n  pop\n    /* \"#utility.yul\":3233:3525   */\n  pop\n    /* \"#utility.yul\":2679:3532   */\n  swap3\n  pop\n  swap3\n  swap1\n  pop\n  jump\t// out\n    /* \"#utility.yul\":3538:3637   */\ntag_23:\n    /* \"#utility.yul\":3590:3596   */\n  0x00\n    /* \"#utility.yul\":3624:3629   */\n  dup2\n    /* \"#utility.yul\":3618:3630   */\n  mload\n    /* \"#utility.yul\":3608:3630   */\n  swap1\n  pop\n    /* \"#utility.yul\":3538:3637   */\n  swap2\n  swap1\n  pop\n  jump\t// out\n    /* \"#utility.yul\":3643:3823   */\ntag_24:\n    /* \"#utility.yul\":3691:3768   */\n  0x4e487b7100000000000000000000000000000000000000000000000000000000\n    /* \"#utility.yul\":3688:3689   */\n  0x00\n    /* \"#utility.yul\":3681:3769   */\n  mstore\n    /* \"#utility.yul\":3788:3792   */\n  0x22\n    /* \"#utility.yul\":3785:3786   */\n  0x04\n    /* \"#utility.yul\":3778:3793   */\n  mstore\n    /* \"#utility.yul\":3812:3816   */\n  0x24\n    /* \"#utility.yul\":3809:3810   */\n  0x00\n    /* \"#utility.yul\":3802:3817   */\n  revert\n    /* \"#utility.yul\":3829:4149   */\ntag_25:\n    /* \"#utility.yul\":3873:3879   */\n  0x00\n    /* \"#utility.yul\":3910:3911   */\n  0x02\n    /* \"#utility.yul\":3904:3908   */\n  dup3\n    /* \"#utility.yul\":3900:3912   */\n  div\n    /* \"#utility.yul\":3890:3912   */\n  swap1\n  pop\n    /* \"#utility.yul\":3957:3958   */\n  0x01\n    /* \"#utility.yul\":3951:3955   */\n  dup3\n    /* \"#utility.yul\":3947:3959   */\n  and\n    /* \"#utility.yul\":3978:3996   */\n  dup1\n    /* \"#utility.yul\":3968:4049   */\n  tag_87\n  jumpi\n    /* \"#utility.yul\":4034:4038   */\n  0x7f\n    /* \"#utility.yul\":4026:4032   */\n  dup3\n    /* \"#utility.yul\":4022:4039   */\n  and\n    /* \"#utility.yul\":4012:4039   */\n  swap2\n  pop\n    /* \"#utility.yul\":3968:4049   */\ntag_87:\n    /* \"#utility.yul\":4096:4098   */\n  0x20\n    /* \"#utility.yul\":4088:4094   */\n  dup3\n    /* \"#utility.yul\":4085:4099   */\n  lt\n    /* \"#utility.yul\":4065:4083   */\n  dup2\n    /* \"#utility.yul\":4062:4100   */\n  sub\n    /* \"#utility.yul\":4059:4143   */\n  tag_88\n  jumpi\n    /* \"#utility.yul\":4115:4133   */\n  tag_89\n  tag_24\n  jump\t// in\ntag_89:\n    /* \"#utility.yul\":4059:4143   */\ntag_88:\n    /* \"#utility.yul\":3880:4149   */\n  pop\n    /* \"#utility.yul\":3829:4149   */\n  swap2\n  swap1\n  pop\n  jump\t// out\n    /* \"#utility.yul\":4155:4296   */\ntag_26:\n    /* \"#utility.yul\":4204:4208   */\n  0x00\n    /* \"#utility.yul\":4227:4230   */\n  dup2\n    /* \"#utility.yul\":4219:4230   */\n  swap1\n  pop\n    /* \"#utility.yul\":4250:4253   */\n  dup2\n    /* \"#utility.yul\":4247:4248   */\n  0x00\n    /* \"#utility.yul\":4240:4254   */\n  mstore\n    /* \"#utility.yul\":4284:4288   */\n  0x20\n    /* \"#utility.yul\":4281:4282   */\n  0x00\n    /* \"#utility.yul\":4271:4289   */\n  keccak256\n    /* \"#utility.yul\":4263:4289   */\n  swap1\n  pop\n    /* \"#utility.yul\":4155:4296   */\n  swap2\n  swap1\n  pop\n  jump\t// out\n    /* \"#utility.yul\":4302:4395   */\ntag_27:\n    /* \"#utility.yul\":4339:4345   */\n  0x00\n    /* \"#utility.yul\":4386:4388   */\n  0x20\n    /* \"#utility.yul\":4381:4383   */\n  0x1f\n    /* \"#utility.yul\":4374:4379   */\n  dup4\n    /* \"#utility.yul\":4370:4384   */\n  add\n    /* \"#utility.yul\":4366:4389   */\n  div\n    /* \"#utility.yul\":4356:4389   */\n  swap1\n  pop\n    /* \"#utility.yul\":4302:4395   */\n  swap2\n  swap1\n  pop\n  jump\t// out\n    /* \"#utility.yul\":4401:4508   */\ntag_28:\n    /* \"#utility.yul\":4445:4453   */\n  0x00\n    /* \"#utility.yul\":4495:4500   */\n  dup3\n    /* \"#utility.yul\":4489:4493   */\n  dup3\n    /* \"#utility.yul\":4485:4501   */\n  shl\n    /* \"#utility.yul\":4464:4501   */\n  swap1\n  pop\n    /* \"#utility.yul\":4401:4508   */\n  swap3\n  swap2\n  pop\n  pop\n  jump\t// out\n    /* \"#utility.yul\":4514:4907   */\ntag_29:\n    /* \"#utility.yul\":4583:4589   */\n  0x00\n    /* \"#utility.yul\":4633:4634   */\n  0x08\n    /* \"#utility.yul\":4621:4631   */\n  dup4\n    /* \"#utility.yul\":4617:4635   */\n  mul\n    /* \"#utility.yul\":4656:4753   */\n  tag_94\n    /* \"#utility.yul\":4686:4752   */\n  0xffffffffffffffffffffffffffffffffffffffffffffffffffffffffffffffff\n    /* \"#utility.yul\":4675:4684   */\n  dup3\n    /* \"#utility.yul\":4656:4753   */\n  tag_28\n  jump\t// in\ntag_94:\n    /* \"#utility.yul\":4774:4813   */\n  tag_95\n    /* \"#utility.yul\":4804:4812   */\n  dup7\n    /* \"#utility.yul\":4793:4802   */\n  dup4\n    /* \"#utility.yul\":4774:4813   */\n  tag_28\n  jump\t// in\ntag_95:\n    /* \"#utility.yul\":4762:4813   */\n  swap6\n  pop\n    /* \"#utility.yul\":4846:4850   */\n  dup1\n    /* \"#utility.yul\":4842:4851   */\n  not\n    /* \"#utility.yul\":4835:4840   */\n  dup5\n    /* \"#utility.yul\":4831:4852   */\n  and\n    /* \"#utility.yul\":4822:4852   */\n  swap4\n  pop\n    /* \"#utility.yul\":4895:4899   */\n  dup1\n    /* \"#utility.yul\":4885:4893   */\n  dup7\n    /* \"#utility.yul\":4881:4900   */\n  and\n    /* \"#utility.yul\":4874:4879   */\n  dup5\n    /* \"#utility.yul\":4871:4901   */\n  or\n    /* \"#utility.yul\":4861:4901   */\n  swap3\n  pop\n    /* \"#utility.yul\":4590:4907   */\n  pop\n  pop\n    /* \"#utility.yul\":4514:4907   */\n  swap4\n  swap3\n  pop\n  pop\n  pop\n  jump\t// out\n    /* \"#utility.yul\":4913:4990   */\ntag_30:\n    /* \"#utility.yul\":4950:4957   */\n  0x00\n    /* \"#utility.yul\":4979:4984   */\n  dup2\n    /* \"#utility.yul\":4968:4984   */\n  swap1\n  pop\n    /* \"#utility.yul\":4913:4990   */\n  swap2\n  swap1\n  pop\n  jump\t// out\n    /* \"#utility.yul\":4996:5056   */\ntag_31:\n    /* \"#utility.yul\":5024:5027   */\n  0x00\n    /* \"#utility.yul\":5045:5050   */\n  dup2\n    /* \"#utility.yul\":5038:5050   */\n  swap1\n  pop\n    /* \"#utility.yul\":4996:5056   */\n  swap2\n  swap1\n  pop\n  jump\t// out\n    /* \"#utility.yul\":5062:5204   */\ntag_32:\n    /* \"#utility.yul\":5112:5121   */\n  0x00\n    /* \"#utility.yul\":5145:5198   */\n  tag_99\n    /* \"#utility.yul\":5163:5197   */\n  tag_100\n    /* \"#utility.yul\":5172:5196   */\n  tag_101\n    /* \"#utility.yul\":5190:5195   */\n  dup5\n    /* \"#utility.yul\":5172:5196   */\n  tag_30\n  jump\t// in\ntag_101:\n    /* \"#utility.yul\":5163:5197   */\n  tag_31\n  jump\t// in\ntag_100:\n    /* \"#utility.yul\":5145:5198   */\n  tag_30\n  jump\t// in\ntag_99:\n    /* \"#utility.yul\":5132:5198   */\n  swap1\n  pop\n    /* \"#utility.yul\":5062:5204   */\n  swap2\n  swap1\n  pop\n  jump\t// out\n    /* \"#utility.yul\":5210:5285   */\ntag_33:\n    /* \"#utility.yul\":5253:5256   */\n  0x00\n    /* \"#utility.yul\":5274:5279   */\n  dup2\n    /* \"#utility.yul\":5267:5279   */\n  swap1\n  pop\n    /* \"#utility.yul\":5210:5285   */\n  swap2\n  swap1\n  pop\n  jump\t// out\n    /* \"#utility.yul\":5291:5560   */\ntag_34:\n    /* \"#utility.yul\":5401:5440   */\n  tag_104\n    /* \"#utility.yul\":5432:5439   */\n  dup4\n    /* \"#utility.yul\":5401:5440   */\n  tag_32\n  jump\t// in\ntag_104:\n    /* \"#utility.yul\":5462:5553   */\n  tag_105\n    /* \"#utility.yul\":5511:5552   */\n  tag_106\n    /* \"#utility.yul\":5535:5551   */\n  dup3\n    /* \"#utility.yul\":5511:5552   */\n  tag_33\n  jump\t// in\ntag_106:\n    /* \"#utility.yul\":5503:5509   */\n  dup5\n    /* \"#utility.yul\":5496:5500   */\n  dup5\n    /* \"#utility.yul\":5490:5501   */\n  sload\n    /* \"#utility.yul\":5462:5553   */\n  tag_29\n  jump\t// in\ntag_105:\n    /* \"#utility.yul\":5456:5460   */\n  dup3\n    /* \"#utility.yul\":5449:5554   */\n  sstore\n    /* \"#utility.yul\":5367:5560   */\n  pop\n    /* \"#utility.yul\":5291:5560   */\n  pop\n  pop\n  pop\n  jump\t// out\n    /* \"#utility.yul\":5566:5639   */\ntag_35:\n    /* \"#utility.yul\":5611:5614   */\n  0x00\n    /* \"#utility.yul\":5566:5639   */\n  swap1\n  jump\t// out\n    /* \"#utility.yul\":5645:5834   */\ntag_36:\n    /* \"#utility.yul\":5722:5754   */\n  tag_109\n  tag_35\n  jump\t// in\ntag_109:\n    /* \"#utility.yul\":5763:5828   */\n  tag_110\n    /* \"#utility.yul\":5821:5827   */\n  dup2\n    /* \"#utility.yul\":5813:5819   */\n  dup5\n    /* \"#utility.yul\":5807:5811   */\n  dup5\n    /* \"#utility.yul\":5763:5828   */\n  tag_34\n  jump\t// in\ntag_110:\n    /* \"#utility.yul\":5698:5834   */\n  pop\n    /* \"#utility.yul\":5645:5834   */\n  pop\n  pop\n  jump\t// out\n    /* \"#utility.yul\":5840:6026   */\ntag_37:\n    /* \"#utility.yul\":5900:6020   */\ntag_112:\n    /* \"#utility.yul\":5917:5920   */\n  dup2\n    /* \"#utility.yul\":5910:5915   */\n  dup2\n    /* \"#utility.yul\":5907:5921   */\n  lt\n    /* \"#utility.yul\":5900:6020   */\n  iszero\n  tag_114\n  jumpi\n    /* \"#utility.yul\":5971:6010   */\n  tag_115\n    /* \"#utility.yul\":6008:6009   */\n  0x00\n    /* \"#utility.yul\":6001:6006   */\n  dup3\n    /* \"#utility.yul\":5971:6010   */\n  tag_36\n  jump\t// in\ntag_115:\n    /* \"#utility.yul\":5944:5945   */\n  0x01\n    /* \"#utility.yul\":5937:5942   */\n  dup2\n    /* \"#utility.yul\":5933:5946   */\n  add\n    /* \"#utility.yul\":5924:5946   */\n  swap1\n  pop\n    /* \"#utility.yul\":5900:6020   */\n  jump(tag_112)\ntag_114:\n    /* \"#utility.yul\":5840:6026   */\n  pop\n  pop\n  jump\t// out\n    /* \"#utility.yul\":6032:6575   */\ntag_38:\n    /* \"#utility.yul\":6133:6135   */\n  0x1f\n    /* \"#utility.yul\":6128:6131   */\n  dup3\n    /* \"#utility.yul\":6125:6136   */\n  gt\n    /* \"#utility.yul\":6122:6568   */\n  iszero\n  tag_117\n  jumpi\n    /* \"#utility.yul\":6167:6205   */\n  tag_118\n    /* \"#utility.yul\":6199:6204   */\n  dup2\n    /* \"#utility.yul\":6167:6205   */\n  tag_26\n  jump\t// in\ntag_118:\n    /* \"#utility.yul\":6251:6280   */\n  tag_119\n    /* \"#utility.yul\":6269:6279   */\n  dup5\n    /* \"#utility.yul\":6251:6280   */\n  tag_27\n  jump\t// in\ntag_119:\n    /* \"#utility.yul\":6241:6249   */\n  dup2\n    /* \"#utility.yul\":6237:6281   */\n  add\n    /* \"#utility.yul\":6434:6436   */\n  0x20\n    /* \"#utility.yul\":6422:6432   */\n  dup6\n    /* \"#utility.yul\":6419:6437   */\n  lt\n    /* \"#utility.yul\":6416:6465   */\n  iszero\n  tag_120\n  jumpi\n    /* \"#utility.yul\":6455:6463   */\n  dup2\n    /* \"#utility.yul\":6440:6463   */\n  swap1\n  pop\n    /* \"#utility.yul\":6416:6465   */\ntag_120:\n    /* \"#utility.yul\":6478:6558   */\n  tag_121\n    /* \"#utility.yul\":6534:6556   */\n  tag_122\n    /* \"#utility.yul\":6552:6555   */\n  dup6\n    /* \"#utility.yul\":6534:6556   */\n  tag_27\n  jump\t// in\ntag_122:\n    /* \"#utility.yul\":6524:6532   */\n  dup4\n    /* \"#utility.yul\":6520:6557   */\n  add\n    /* \"#utility.yul\":6507:6518   */\n  dup3\n    /* \"#utility.yul\":6478:6558   */\n  tag_37\n  jump\t// in\ntag_121:\n    /* \"#utility.yul\":6137:6568   */\n  pop\n  pop\n    /* \"#utility.yul\":6122:6568   */\ntag_117:\n    /* \"#utility.yul\":6032:6575   */\n  pop\n  pop\n  pop\n  jump\t// out\n    /* \"#utility.yul\":6581:6698   */\ntag_39:\n    /* \"#utility.yul\":6635:6643   */\n  0x00\n    /* \"#utility.yul\":6685:6690   */\n  dup3\n    /* \"#utility.yul\":6679:6683   */\n  dup3\n    /* \"#utility.yul\":6675:6691   */\n  shr\n    /* \"#utility.yul\":6654:6691   */\n  swap1\n  pop\n    /* \"#utility.yul\":6581:6698   */\n  swap3\n  swap2\n  pop\n  pop\n  jump\t// out\n    /* \"#utility.yul\":6704:6873   */\ntag_40:\n    /* \"#utility.yul\":6748:6754   */\n  0x00\n    /* \"#utility.yul\":6781:6832   */\n  tag_125\n    /* \"#utility.yul\":6829:6830   */\n  0x00\n    /* \"#utility.yul\":6825:6831   */\n  not\n    /* \"#utility.yul\":6817:6822   */\n  dup5\n    /* \"#utility.yul\":6814:6815   */\n  0x08\n    /* \"#utility.yul\":6810:6823   */\n  mul\n    /* \"#utility.yul\":6781:6832   */\n  tag_39\n  jump\t// in\ntag_125:\n    /* \"#utility.yul\":6777:6833   */\n  not\n    /* \"#utility.yul\":6862:6866   */\n  dup1\n    /* \"#utility.yul\":6856:6860   */\n  dup4\n    /* \"#utility.yul\":6852:6867   */\n  and\n    /* \"#utility.yul\":6842:6867   */\n  swap2\n  pop\n    /* \"#utility.yul\":6755:6873   */\n  pop\n    /* \"#utility.yul\":6704:6873   */\n  swap3\n  swap2\n  pop\n  pop\n  jump\t// out\n    /* \"#utility.yul\":6878:7173   */\ntag_41:\n    /* \"#utility.yul\":6954:6958   */\n  0x00\n    /* \"#utility.yul\":7100:7129   */\n  tag_127\n    /* \"#utility.yul\":7125:7128   */\n  dup4\n    /* \"#utility.yul\":7119:7123   */\n  dup4\n    /* \"#utility.yul\":7100:7129   */\n  tag_40\n  jump\t// in\ntag_127:\n    /* \"#utility.yul\":7092:7129   */\n  swap2\n  pop\n    /* \"#utility.yul\":7162:7165   */\n  dup3\n    /* \"#utility.yul\":7159:7160   */\n  0x02\n    /* \"#utility.yul\":7155:7166   */\n  mul\n    /* \"#utility.yul\":7149:7153   */\n  dup3\n    /* \"#utility.yul\":7146:7167   */\n  or\n    /* \"#utility.yul\":7138:7167   */\n  swap1\n  pop\n    /* \"#utility.yul\":6878:7173   */\n  swap3\n  swap2\n  pop\n  pop\n  jump\t// out\n    /* \"#utility.yul\":7178:8573   */\ntag_7:\n    /* \"#utility.yul\":7295:7332   */\n  tag_129\n    /* \"#utility.yul\":7328:7331   */\n  dup3\n    /* \"#utility.yul\":7295:7332   */\n  tag_23\n  jump\t// in\ntag_129:\n    /* \"#utility.yul\":7397:7415   */\n  0xffffffffffffffff\n    /* \"#utility.yul\":7389:7395   */\n  dup2\n    /* \"#utility.yul\":7386:7416   */\n  gt\n    /* \"#utility.yul\":7383:7439   */\n  iszero\n  tag_130\n  jumpi\n    /* \"#utility.yul\":7419:7437   */\n  tag_131\n  tag_16\n  jump\t// in\ntag_131:\n    /* \"#utility.yul\":7383:7439   */\ntag_130:\n    /* \"#utility.yul\":7463:7501   */\n  tag_132\n    /* \"#utility.yul\":7495:7499   */\n  dup3\n    /* \"#utility.yul\":7489:7500   */\n  sload\n    /* \"#utility.yul\":7463:7501   */\n  tag_25\n  jump\t// in\ntag_132:\n    /* \"#utility.yul\":7548:7615   */\n  tag_133\n    /* \"#utility.yul\":7608:7614   */\n  dup3\n    /* \"#utility.yul\":7600:7606   */\n  dup3\n    /* \"#utility.yul\":7594:7598   */\n  dup6\n    /* \"#utility.yul\":7548:7615   */\n  tag_38\n  jump\t// in\ntag_133:\n    /* \"#utility.yul\":7642:7643   */\n  0x00\n    /* \"#utility.yul\":7666:7670   */\n  0x20\n    /* \"#utility.yul\":7653:7670   */\n  swap1\n  pop\n    /* \"#utility.yul\":7698:7700   */\n  0x1f\n    /* \"#utility.yul\":7690:7696   */\n  dup4\n    /* \"#utility.yul\":7687:7701   */\n  gt\n    /* \"#utility.yul\":7715:7716   */\n  0x01\n    /* \"#utility.yul\":7710:8328   */\n  dup2\n  eq\n  tag_135\n  jumpi\n    /* \"#utility.yul\":8372:8373   */\n  0x00\n    /* \"#utility.yul\":8389:8395   */\n  dup5\n    /* \"#utility.yul\":8386:8463   */\n  iszero\n  tag_136\n  jumpi\n    /* \"#utility.yul\":8438:8447   */\n  dup3\n    /* \"#utility.yul\":8433:8436   */\n  dup8\n    /* \"#utility.yul\":8429:8448   */\n  add\n    /* \"#utility.yul\":8423:8449   */\n  mload\n    /* \"#utility.yul\":8414:8449   */\n  swap1\n  pop\n    /* \"#utility.yul\":8386:8463   */\ntag_136:\n    /* \"#utility.yul\":8489:8556   */\n  tag_137\n    /* \"#utility.yul\":8549:8555   */\n  dup6\n    /* \"#utility.yul\":8542:8547   */\n  dup3\n    /* \"#utility.yul\":8489:8556   */\n  tag_41\n  jump\t// in\ntag_137:\n    /* \"#utility.yul\":8483:8487   */\n  dup7\n    /* \"#utility.yul\":8476:8557   */\n  sstore\n    /* \"#utility.yul\":8345:8567   */\n  pop\n    /* \"#utility.yul\":7680:8567   */\n  jump(tag_134)\n    /* \"#utility.yul\":7710:8328   */\ntag_135:\n    /* \"#utility.yul\":7762:7766   */\n  0x1f\n    /* \"#utility.yul\":7758:7767   */\n  not\n    /* \"#utility.yul\":7750:7756   */\n  dup5\n    /* \"#utility.yul\":7746:7768   */\n  and\n    /* \"#utility.yul\":7796:7833   */\n  tag_138\n    /* \"#utility.yul\":7828:7832   */\n  dup7\n    /* \"#utility.yul\":7796:7833   */\n  tag_26\n  jump\t// in\ntag_138:\n    /* \"#utility.yul\":7855:7856   */\n  0x00\n    /* \"#utility.yul\":7869:8077   */\ntag_139:\n    /* \"#utility.yul\":7883:7890   */\n  dup3\n    /* \"#utility.yul\":7880:7881   */\n  dup2\n    /* \"#utility.yul\":7877:7891   */\n  lt\n    /* \"#utility.yul\":7869:8077   */\n  iszero\n  tag_141\n  jumpi\n    /* \"#utility.yul\":7962:7971   */\n  dup5\n    /* \"#utility.yul\":7957:7960   */\n  dup10\n    /* \"#utility.yul\":7953:7972   */\n  add\n    /* \"#utility.yul\":7947:7973   */\n  mload\n    /* \"#utility.yul\":7939:7945   */\n  dup3\n    /* \"#utility.yul\":7932:7974   */\n  sstore\n    /* \"#utility.yul\":8013:8014   */\n  0x01\n    /* \"#utility.yul\":8005:8011   */\n  dup3\n    /* \"#utility.yul\":8001:8015   */\n  add\n    /* \"#utility.yul\":7991:8015   */\n  swap2\n  pop\n    /* \"#utility.yul\":8060:8062   */\n  0x20\n    /* \"#utility.yul\":8049:8058   */\n  dup6\n    /* \"#utility.yul\":8045:8063   */\n  add\n    /* \"#utility.yul\":8032:8063   */\n  swap5\n  pop\n    /* \"#utility.yul\":7906:7910   */\n  0x20\n    /* \"#utility.yul\":7903:7904   */\n  dup2\n    /* \"#utility.yul\":7899:7911   */\n  add\n    /* \"#utility.yul\":7894:7911   */\n  swap1\n  pop\n    /* \"#utility.yul\":7869:8077   */\n  jump(tag_139)\ntag_141:\n    /* \"#utility.yul\":8105:8111   */\n  dup7\n    /* \"#utility.yul\":8096:8103   */\n  dup4\n    /* \"#utility.yul\":8093:8112   */\n  lt\n    /* \"#utility.yul\":8090:8269   */\n  iszero\n  tag_142\n  jumpi\n    /* \"#utility.yul\":8163:8172   */\n  dup5\n    /* \"#utility.yul\":8158:8161   */\n  dup10\n    /* \"#utility.yul\":8154:8173   */\n  add\n    /* \"#utility.yul\":8148:8174   */\n  mload\n    /* \"#utility.yul\":8206:8254   */\n  tag_143\n    /* \"#utility.yul\":8248:8252   */\n  0x1f\n    /* \"#utility.yul\":8240:8246   */\n  dup10\n    /* \"#utility.yul\":8236:8253   */\n  and\n    /* \"#utility.yul\":8225:8234   */\n  dup3\n    /* \"#utility.yul\":8206:8254   */\n  tag_40\n  jump\t// in\ntag_143:\n    /* \"#utility.yul\":8198:8204   */\n  dup4\n    /* \"#utility.yul\":8191:8255   */\n  sstore\n    /* \"#utility.yul\":8113:8269   */\n  pop\n    /* \"#utility.yul\":8090:8269   */\ntag_142:\n    /* \"#utility.yul\":8315:8316   */\n  0x01\n    /* \"#utility.yul\":8311:8312   */\n  0x02\n    /* \"#utility.yul\":8303:8309   */\n  dup9\n    /* \"#utility.yul\":8299:8313   */\n  mul\n    /* \"#utility.yul\":8295:8317   */\n  add\n    /* \"#utility.yul\":8289:8293   */\n  dup9\n    /* \"#utility.yul\":8282:8318   */\n  sstore\n    /* \"#utility.yul\":7717:8328   */\n  pop\n  pop\n  pop\n    /* \"#utility.yul\":7680:8567   */\ntag_134:\n  pop\n    /* \"#utility.yul\":7270:8573   */\n  pop\n  pop\n  pop\n    /* \"#utility.yul\":7178:8573   */\n  pop\n  pop\n  jump\t// out\n    /* \"contracts/34_ERC721.sol\":1333:10527  contract ERC721 is IERC721, IERC721Metadata{... */\ntag_9:\n  dataSize(sub_0)\n  dup1\n  dataOffset(sub_0)\n  0x00\n  codecopy\n  0x00\n  return\nstop\n\nsub_0: assembly {\n        /* \"contracts/34_ERC721.sol\":1333:10527  contract ERC721 is IERC721, IERC721Metadata{... */\n      mstore(0x40, 0x80)\n      callvalue\n      dup1\n      iszero\n      tag_1\n      jumpi\n      0x00\n      dup1\n      revert\n    tag_1:\n      pop\n      jumpi(tag_2, lt(calldatasize, 0x04))\n      shr(0xe0, calldataload(0x00))\n      dup1\n      0x4e6ec247\n      gt\n      tag_18\n      jumpi\n      dup1\n      0xa22cb465\n      gt\n      tag_19\n      jumpi\n      dup1\n      0xa22cb465\n      eq\n      tag_14\n      jumpi\n      dup1\n      0xb88d4fde\n      eq\n      tag_15\n      jumpi\n      dup1\n      0xc87b56dd\n      eq\n      tag_16\n      jumpi\n      dup1\n      0xe985e9c5\n      eq\n      tag_17\n      jumpi\n      jump(tag_2)\n    tag_19:\n      dup1\n      0x4e6ec247\n      eq\n      tag_10\n      jumpi\n      dup1\n      0x6352211e\n      eq\n      tag_11\n      jumpi\n      dup1\n      0x70a08231\n      eq\n      tag_12\n      jumpi\n      dup1\n      0x95d89b41\n      eq\n      tag_13\n      jumpi\n      jump(tag_2)\n    tag_18:\n      dup1\n      0x095ea7b3\n      gt\n      tag_20\n      jumpi\n      dup1\n      0x095ea7b3\n      eq\n      tag_6\n      jumpi\n      dup1\n      0x16279055\n      eq\n      tag_7\n      jumpi\n      dup1\n      0x23b872dd\n      eq\n      tag_8\n      jumpi\n      dup1\n      0x42842e0e\n      eq\n      tag_9\n      jumpi\n      jump(tag_2)\n    tag_20:\n      dup1\n      0x01ffc9a7\n      eq\n      tag_3\n      jumpi\n      dup1\n      0x06fdde03\n      eq\n      tag_4\n      jumpi\n      dup1\n      0x081812fc\n      eq\n      tag_5\n      jumpi\n    tag_2:\n      0x00\n      dup1\n      revert\n        /* \"contracts/34_ERC721.sol\":2307:2624  function supportsInterface(bytes4 interfaceId)... */\n    tag_3:\n      tag_21\n      0x04\n      dup1\n      calldatasize\n      sub\n      dup2\n      add\n      swap1\n      tag_22\n      swap2\n      swap1\n      tag_23\n      jump\t// in\n    tag_22:\n      tag_24\n      jump\t// in\n    tag_21:\n      mload(0x40)\n      tag_25\n      swap2\n      swap1\n      tag_26\n      jump\t// in\n    tag_25:\n      mload(0x40)\n      dup1\n      swap2\n      sub\n      swap1\n      return\n        /* \"contracts/34_ERC721.sol\":1552:1579  string public override name */\n    tag_4:\n      tag_27\n      tag_28\n      jump\t// in\n    tag_27:\n      mload(0x40)\n      tag_29\n      swap2\n      swap1\n      tag_30\n      jump\t// in\n    tag_29:\n      mload(0x40)\n      dup1\n      swap2\n      sub\n      swap1\n      return\n        /* \"contracts/34_ERC721.sol\":4123:4319  function getApproved(uint tokenId) external view override returns (address) {... */\n    tag_5:\n      tag_31\n      0x04\n      dup1\n      calldatasize\n      sub\n      dup2\n      add\n      swap1\n      tag_32\n      swap2\n      swap1\n      tag_33\n      jump\t// in\n    tag_32:\n      tag_34\n      jump\t// in\n    tag_31:\n      mload(0x40)\n      tag_35\n      swap2\n      swap1\n      tag_36\n      jump\t// in\n    tag_35:\n      mload(0x40)\n      dup1\n      swap2\n      sub\n      swap1\n      return\n        /* \"contracts/34_ERC721.sol\":4793:5088  function approve(address to, uint tokenId) external override {... */\n    tag_6:\n      tag_37\n      0x04\n      dup1\n      calldatasize\n      sub\n      dup2\n      add\n      swap1\n      tag_38\n      swap2\n      swap1\n      tag_39\n      jump\t// in\n    tag_38:\n      tag_40\n      jump\t// in\n    tag_37:\n      stop\n        /* \"contracts/34_ERC721.sol\":2630:2815  function isContract(address _addr) public  view returns (bool){... */\n    tag_7:\n      tag_41\n      0x04\n      dup1\n      calldatasize\n      sub\n      dup2\n      add\n      swap1\n      tag_42\n      swap2\n      swap1\n      tag_43\n      jump\t// in\n    tag_42:\n      tag_44\n      jump\t// in\n    tag_41:\n      mload(0x40)\n      tag_45\n      swap2\n      swap1\n      tag_26\n      jump\t// in\n    tag_45:\n      mload(0x40)\n      dup1\n      swap2\n      sub\n      swap1\n      return\n        /* \"contracts/34_ERC721.sol\":6206:6535  function transferFrom(... */\n    tag_8:\n      tag_46\n      0x04\n      dup1\n      calldatasize\n      sub\n      dup2\n      add\n      swap1\n      tag_47\n      swap2\n      swap1\n      tag_48\n      jump\t// in\n    tag_47:\n      tag_49\n      jump\t// in\n    tag_46:\n      stop\n        /* \"contracts/34_ERC721.sol\":7800:7970  function safeTransferFrom(... */\n    tag_9:\n      tag_50\n      0x04\n      dup1\n      calldatasize\n      sub\n      dup2\n      add\n      swap1\n      tag_51\n      swap2\n      swap1\n      tag_48\n      jump\t// in\n    tag_51:\n      tag_52\n      jump\t// in\n    tag_50:\n      stop\n        /* \"contracts/34_ERC721.sol\":8414:8711  function _mint(address to, uint tokenId)  public {... */\n    tag_10:\n      tag_53\n      0x04\n      dup1\n      calldatasize\n      sub\n      dup2\n      add\n      swap1\n      tag_54\n      swap2\n      swap1\n      tag_39\n      jump\t// in\n    tag_54:\n      tag_55\n      jump\t// in\n    tag_53:\n      stop\n        /* \"contracts/34_ERC721.sol\":3165:3343  function ownerOf(uint tokenId) public view override returns (address owner) {... */\n    tag_11:\n      tag_56\n      0x04\n      dup1\n      calldatasize\n      sub\n      dup2\n      add\n      swap1\n      tag_57\n      swap2\n      swap1\n      tag_33\n      jump\t// in\n    tag_57:\n      tag_58\n      jump\t// in\n    tag_56:\n      mload(0x40)\n      tag_59\n      swap2\n      swap1\n      tag_36\n      jump\t// in\n    tag_59:\n      mload(0x40)\n      dup1\n      swap2\n      sub\n      swap1\n      return\n        /* \"contracts/34_ERC721.sol\":2908:3082  function balanceOf(address owner) external view override returns (uint) {... */\n    tag_12:\n      tag_60\n      0x04\n      dup1\n      calldatasize\n      sub\n      dup2\n      add\n      swap1\n      tag_61\n      swap2\n      swap1\n      tag_43\n      jump\t// in\n    tag_61:\n      tag_62\n      jump\t// in\n    tag_60:\n      mload(0x40)\n      tag_63\n      swap2\n      swap1\n      tag_64\n      jump\t// in\n    tag_63:\n      mload(0x40)\n      dup1\n      swap2\n      sub\n      swap1\n      return\n        /* \"contracts/34_ERC721.sol\":1604:1633  string public override symbol */\n    tag_13:\n      tag_65\n      tag_66\n      jump\t// in\n    tag_65:\n      mload(0x40)\n      tag_67\n      swap2\n      swap1\n      tag_30\n      jump\t// in\n    tag_67:\n      mload(0x40)\n      dup1\n      swap2\n      sub\n      swap1\n      return\n        /* \"contracts/34_ERC721.sol\":3814:4021  function setApprovalForAll(address operator, bool approved) external override {... */\n    tag_14:\n      tag_68\n      0x04\n      dup1\n      calldatasize\n      sub\n      dup2\n      add\n      swap1\n      tag_69\n      swap2\n      swap1\n      tag_70\n      jump\t// in\n    tag_69:\n      tag_71\n      jump\t// in\n    tag_68:\n      stop\n        /* \"contracts/34_ERC721.sol\":7388:7758  function safeTransferFrom(... */\n    tag_15:\n      tag_72\n      0x04\n      dup1\n      calldatasize\n      sub\n      dup2\n      add\n      swap1\n      tag_73\n      swap2\n      swap1\n      tag_74\n      jump\t// in\n    tag_73:\n      tag_75\n      jump\t// in\n    tag_72:\n      stop\n        /* \"contracts/34_ERC721.sol\":9910:10221  function tokenURI(uint256 tokenId) public view virtual override returns (string memory) {... */\n    tag_16:\n      tag_76\n      0x04\n      dup1\n      calldatasize\n      sub\n      dup2\n      add\n      swap1\n      tag_77\n      swap2\n      swap1\n      tag_33\n      jump\t// in\n    tag_77:\n      tag_78\n      jump\t// in\n    tag_76:\n      mload(0x40)\n      tag_79\n      swap2\n      swap1\n      tag_30\n      jump\t// in\n    tag_79:\n      mload(0x40)\n      dup1\n      swap2\n      sub\n      swap1\n      return\n        /* \"contracts/34_ERC721.sol\":3492:3684  function isApprovedForAll(address owner, address operator)... */\n    tag_17:\n      tag_80\n      0x04\n      dup1\n      calldatasize\n      sub\n      dup2\n      add\n      swap1\n      tag_81\n      swap2\n      swap1\n      tag_82\n      jump\t// in\n    tag_81:\n      tag_83\n      jump\t// in\n    tag_80:\n      mload(0x40)\n      tag_84\n      swap2\n      swap1\n      tag_26\n      jump\t// in\n    tag_84:\n      mload(0x40)\n      dup1\n      swap2\n      sub\n      swap1\n      return\n        /* \"contracts/34_ERC721.sol\":2307:2624  function supportsInterface(bytes4 interfaceId)... */\n    tag_24:\n        /* \"contracts/34_ERC721.sol\":2418:2422  bool */\n      0x00\n        /* \"contracts/34_ERC721.sol\":2472:2497  type(IERC721).interfaceId */\n      0x80ac58cd00000000000000000000000000000000000000000000000000000000\n        /* \"contracts/34_ERC721.sol\":2457:2497  interfaceId == type(IERC721).interfaceId */\n      not(0xffffffffffffffffffffffffffffffffffffffffffffffffffffffff)\n      and\n        /* \"contracts/34_ERC721.sol\":2457:2468  interfaceId */\n      dup3\n        /* \"contracts/34_ERC721.sol\":2457:2497  interfaceId == type(IERC721).interfaceId */\n      not(0xffffffffffffffffffffffffffffffffffffffffffffffffffffffff)\n      and\n      eq\n        /* \"contracts/34_ERC721.sol\":2457:2553  interfaceId == type(IERC721).interfaceId ||... */\n      dup1\n      tag_86\n      jumpi\n      pop\n        /* \"contracts/34_ERC721.sol\":2528:2553  type(IERC165).interfaceId */\n      0x01ffc9a700000000000000000000000000000000000000000000000000000000\n        /* \"contracts/34_ERC721.sol\":2513:2553  interfaceId == type(IERC165).interfaceId */\n      not(0xffffffffffffffffffffffffffffffffffffffffffffffffffffffff)\n      and\n        /* \"contracts/34_ERC721.sol\":2513:2524  interfaceId */\n      dup3\n        /* \"contracts/34_ERC721.sol\":2513:2553  interfaceId == type(IERC165).interfaceId */\n      not(0xffffffffffffffffffffffffffffffffffffffffffffffffffffffff)\n      and\n      eq\n        /* \"contracts/34_ERC721.sol\":2457:2553  interfaceId == type(IERC721).interfaceId ||... */\n    tag_86:\n        /* \"contracts/34_ERC721.sol\":2457:2617  interfaceId == type(IERC721).interfaceId ||... */\n      dup1\n      tag_87\n      jumpi\n      pop\n        /* \"contracts/34_ERC721.sol\":2584:2617  type(IERC721Metadata).interfaceId */\n      0x5b5e139f00000000000000000000000000000000000000000000000000000000\n        /* \"contracts/34_ERC721.sol\":2569:2617  interfaceId == type(IERC721Metadata).interfaceId */\n      not(0xffffffffffffffffffffffffffffffffffffffffffffffffffffffff)\n      and\n        /* \"contracts/34_ERC721.sol\":2569:2580  interfaceId */\n      dup3\n        /* \"contracts/34_ERC721.sol\":2569:2617  interfaceId == type(IERC721Metadata).interfaceId */\n      not(0xffffffffffffffffffffffffffffffffffffffffffffffffffffffff)\n      and\n      eq\n        /* \"contracts/34_ERC721.sol\":2457:2617  interfaceId == type(IERC721).interfaceId ||... */\n    tag_87:\n        /* \"contracts/34_ERC721.sol\":2438:2617  return... */\n      swap1\n      pop\n        /* \"contracts/34_ERC721.sol\":2307:2624  function supportsInterface(bytes4 interfaceId)... */\n      swap2\n      swap1\n      pop\n      jump\t// out\n        /* \"contracts/34_ERC721.sol\":1552:1579  string public override name */\n    tag_28:\n      0x00\n      dup1\n      sload\n      tag_88\n      swap1\n      tag_89\n      jump\t// in\n    tag_88:\n      dup1\n      0x1f\n      add\n      0x20\n      dup1\n      swap2\n      div\n      mul\n      0x20\n      add\n      mload(0x40)\n      swap1\n      dup2\n      add\n      0x40\n      mstore\n      dup1\n      swap3\n      swap2\n      swap1\n      dup2\n      dup2\n      mstore\n      0x20\n      add\n      dup3\n      dup1\n      sload\n      tag_90\n      swap1\n      tag_89\n      jump\t// in\n    tag_90:\n      dup1\n      iszero\n      tag_91\n      jumpi\n      dup1\n      0x1f\n      lt\n      tag_92\n      jumpi\n      0x0100\n      dup1\n      dup4\n      sload\n      div\n      mul\n      dup4\n      mstore\n      swap2\n      0x20\n      add\n      swap2\n      jump(tag_91)\n    tag_92:\n      dup3\n      add\n      swap2\n      swap1\n      0x00\n      mstore\n      keccak256(0x00, 0x20)\n      swap1\n    tag_93:\n      dup2\n      sload\n      dup2\n      mstore\n      swap1\n      0x01\n      add\n      swap1\n      0x20\n      add\n      dup1\n      dup4\n      gt\n      tag_93\n      jumpi\n      dup3\n      swap1\n      sub\n      0x1f\n      and\n      dup3\n      add\n      swap2\n    tag_91:\n      pop\n      pop\n      pop\n      pop\n      pop\n      dup2\n      jump\t// out\n        /* \"contracts/34_ERC721.sol\":4123:4319  function getApproved(uint tokenId) external view override returns (address) {... */\n    tag_34:\n        /* \"contracts/34_ERC721.sol\":4190:4197  address */\n      0x00\n        /* \"contracts/34_ERC721.sol\":4245:4246  0 */\n      dup1\n        /* \"contracts/34_ERC721.sol\":4217:4247  _owners[tokenId] != address(0) */\n      0xffffffffffffffffffffffffffffffffffffffff\n      and\n        /* \"contracts/34_ERC721.sol\":4217:4224  _owners */\n      0x02\n        /* \"contracts/34_ERC721.sol\":4217:4233  _owners[tokenId] */\n      0x00\n        /* \"contracts/34_ERC721.sol\":4225:4232  tokenId */\n      dup5\n        /* \"contracts/34_ERC721.sol\":4217:4233  _owners[tokenId] */\n      dup2\n      mstore\n      0x20\n      add\n      swap1\n      dup2\n      mstore\n      0x20\n      add\n      0x00\n      keccak256\n      0x00\n      swap1\n      sload\n      swap1\n      0x0100\n      exp\n      swap1\n      div\n      0xffffffffffffffffffffffffffffffffffffffff\n      and\n        /* \"contracts/34_ERC721.sol\":4217:4247  _owners[tokenId] != address(0) */\n      0xffffffffffffffffffffffffffffffffffffffff\n      and\n      sub\n        /* \"contracts/34_ERC721.sol\":4209:4271  require(_owners[tokenId] != address(0), \"token doesn't exist\") */\n      tag_95\n      jumpi\n      mload(0x40)\n      0x08c379a000000000000000000000000000000000000000000000000000000000\n      dup2\n      mstore\n      0x04\n      add\n      tag_96\n      swap1\n      tag_97\n      jump\t// in\n    tag_96:\n      mload(0x40)\n      dup1\n      swap2\n      sub\n      swap1\n      revert\n    tag_95:\n        /* \"contracts/34_ERC721.sol\":4288:4303  _tokenApprovals */\n      0x04\n        /* \"contracts/34_ERC721.sol\":4288:4312  _tokenApprovals[tokenId] */\n      0x00\n        /* \"contracts/34_ERC721.sol\":4304:4311  tokenId */\n      dup4\n        /* \"contracts/34_ERC721.sol\":4288:4312  _tokenApprovals[tokenId] */\n      dup2\n      mstore\n      0x20\n      add\n      swap1\n      dup2\n      mstore\n      0x20\n      add\n      0x00\n      keccak256\n      0x00\n      swap1\n      sload\n      swap1\n      0x0100\n      exp\n      swap1\n      div\n      0xffffffffffffffffffffffffffffffffffffffff\n      and\n        /* \"contracts/34_ERC721.sol\":4281:4312  return _tokenApprovals[tokenId] */\n      swap1\n      pop\n        /* \"contracts/34_ERC721.sol\":4123:4319  function getApproved(uint tokenId) external view override returns (address) {... */\n      swap2\n      swap1\n      pop\n      jump\t// out\n        /* \"contracts/34_ERC721.sol\":4793:5088  function approve(address to, uint tokenId) external override {... */\n    tag_40:\n        /* \"contracts/34_ERC721.sol\":4864:4877  address owner */\n      0x00\n        /* \"contracts/34_ERC721.sol\":4880:4887  _owners */\n      0x02\n        /* \"contracts/34_ERC721.sol\":4880:4896  _owners[tokenId] */\n      0x00\n        /* \"contracts/34_ERC721.sol\":4888:4895  tokenId */\n      dup4\n        /* \"contracts/34_ERC721.sol\":4880:4896  _owners[tokenId] */\n      dup2\n      mstore\n      0x20\n      add\n      swap1\n      dup2\n      mstore\n      0x20\n      add\n      0x00\n      keccak256\n      0x00\n      swap1\n      sload\n      swap1\n      0x0100\n      exp\n      swap1\n      div\n      0xffffffffffffffffffffffffffffffffffffffff\n      and\n        /* \"contracts/34_ERC721.sol\":4864:4896  address owner = _owners[tokenId] */\n      swap1\n      pop\n        /* \"contracts/34_ERC721.sol\":4941:4946  owner */\n      dup1\n        /* \"contracts/34_ERC721.sol\":4927:4946  msg.sender == owner */\n      0xffffffffffffffffffffffffffffffffffffffff\n      and\n        /* \"contracts/34_ERC721.sol\":4927:4937  msg.sender */\n      caller\n        /* \"contracts/34_ERC721.sol\":4927:4946  msg.sender == owner */\n      0xffffffffffffffffffffffffffffffffffffffff\n      and\n      eq\n        /* \"contracts/34_ERC721.sol\":4927:4987  msg.sender == owner || _operatorApprovals[owner][msg.sender] */\n      dup1\n      tag_99\n      jumpi\n      pop\n        /* \"contracts/34_ERC721.sol\":4950:4968  _operatorApprovals */\n      0x05\n        /* \"contracts/34_ERC721.sol\":4950:4975  _operatorApprovals[owner] */\n      0x00\n        /* \"contracts/34_ERC721.sol\":4969:4974  owner */\n      dup3\n        /* \"contracts/34_ERC721.sol\":4950:4975  _operatorApprovals[owner] */\n      0xffffffffffffffffffffffffffffffffffffffff\n      and\n      0xffffffffffffffffffffffffffffffffffffffff\n      and\n      dup2\n      mstore\n      0x20\n      add\n      swap1\n      dup2\n      mstore\n      0x20\n      add\n      0x00\n      keccak256\n        /* \"contracts/34_ERC721.sol\":4950:4987  _operatorApprovals[owner][msg.sender] */\n      0x00\n        /* \"contracts/34_ERC721.sol\":4976:4986  msg.sender */\n      caller\n        /* \"contracts/34_ERC721.sol\":4950:4987  _operatorApprovals[owner][msg.sender] */\n      0xffffffffffffffffffffffffffffffffffffffff\n      and\n      0xffffffffffffffffffffffffffffffffffffffff\n      and\n      dup2\n      mstore\n      0x20\n      add\n      swap1\n      dup2\n      mstore\n      0x20\n      add\n      0x00\n      keccak256\n      0x00\n      swap1\n      sload\n      swap1\n      0x0100\n      exp\n      swap1\n      div\n      0xff\n      and\n        /* \"contracts/34_ERC721.sol\":4927:4987  msg.sender == owner || _operatorApprovals[owner][msg.sender] */\n    tag_99:\n        /* \"contracts/34_ERC721.sol\":4906:5043  require(... */\n      tag_100\n      jumpi\n      mload(0x40)\n      0x08c379a000000000000000000000000000000000000000000000000000000000\n      dup2\n      mstore\n      0x04\n      add\n      tag_101\n      swap1\n      tag_102\n      jump\t// in\n    tag_101:\n      mload(0x40)\n      dup1\n      swap2\n      sub\n      swap1\n      revert\n    tag_100:\n        /* \"contracts/34_ERC721.sol\":5053:5081  _approve(owner, to, tokenId) */\n      tag_103\n        /* \"contracts/34_ERC721.sol\":5062:5067  owner */\n      dup2\n        /* \"contracts/34_ERC721.sol\":5069:5071  to */\n      dup5\n        /* \"contracts/34_ERC721.sol\":5073:5080  tokenId */\n      dup5\n        /* \"contracts/34_ERC721.sol\":5053:5061  _approve */\n      tag_104\n        /* \"contracts/34_ERC721.sol\":5053:5081  _approve(owner, to, tokenId) */\n      jump\t// in\n    tag_103:\n        /* \"contracts/34_ERC721.sol\":4854:5088  {... */\n      pop\n        /* \"contracts/34_ERC721.sol\":4793:5088  function approve(address to, uint tokenId) external override {... */\n      pop\n      pop\n      jump\t// out\n        /* \"contracts/34_ERC721.sol\":2630:2815  function isContract(address _addr) public  view returns (bool){... */\n    tag_44:\n        /* \"contracts/34_ERC721.sol\":2687:2691  bool */\n      0x00\n        /* \"contracts/34_ERC721.sol\":2702:2713  uint32 size */\n      dup1\n        /* \"contracts/34_ERC721.sol\":2766:2771  _addr */\n      dup3\n        /* \"contracts/34_ERC721.sol\":2754:2772  extcodesize(_addr) */\n      extcodesize\n        /* \"contracts/34_ERC721.sol\":2746:2772  size := extcodesize(_addr) */\n      swap1\n      pop\n        /* \"contracts/34_ERC721.sol\":2806:2807  0 */\n      0x00\n        /* \"contracts/34_ERC721.sol\":2799:2803  size */\n      dup2\n        /* \"contracts/34_ERC721.sol\":2799:2807  size > 0 */\n      0xffffffff\n      and\n      gt\n        /* \"contracts/34_ERC721.sol\":2791:2808  return (size > 0) */\n      swap2\n      pop\n      pop\n        /* \"contracts/34_ERC721.sol\":2630:2815  function isContract(address _addr) public  view returns (bool){... */\n      swap2\n      swap1\n      pop\n      jump\t// out\n        /* \"contracts/34_ERC721.sol\":6206:6535  function transferFrom(... */\n    tag_49:\n        /* \"contracts/34_ERC721.sol\":6326:6339  address owner */\n      0x00\n        /* \"contracts/34_ERC721.sol\":6342:6358  ownerOf(tokenId) */\n      tag_107\n        /* \"contracts/34_ERC721.sol\":6350:6357  tokenId */\n      dup3\n        /* \"contracts/34_ERC721.sol\":6342:6349  ownerOf */\n      tag_58\n        /* \"contracts/34_ERC721.sol\":6342:6358  ownerOf(tokenId) */\n      jump\t// in\n    tag_107:\n        /* \"contracts/34_ERC721.sol\":6326:6358  address owner = ownerOf(tokenId) */\n      swap1\n      pop\n        /* \"contracts/34_ERC721.sol\":6389:6435  _isApprovedOrOwner(owner, msg.sender, tokenId) */\n      tag_108\n        /* \"contracts/34_ERC721.sol\":6408:6413  owner */\n      dup2\n        /* \"contracts/34_ERC721.sol\":6415:6425  msg.sender */\n      caller\n        /* \"contracts/34_ERC721.sol\":6427:6434  tokenId */\n      dup5\n        /* \"contracts/34_ERC721.sol\":6389:6407  _isApprovedOrOwner */\n      tag_109\n        /* \"contracts/34_ERC721.sol\":6389:6435  _isApprovedOrOwner(owner, msg.sender, tokenId) */\n      jump\t// in\n    tag_108:\n        /* \"contracts/34_ERC721.sol\":6368:6483  require(... */\n      tag_110\n      jumpi\n      mload(0x40)\n      0x08c379a000000000000000000000000000000000000000000000000000000000\n      dup2\n      mstore\n      0x04\n      add\n      tag_111\n      swap1\n      tag_112\n      jump\t// in\n    tag_111:\n      mload(0x40)\n      dup1\n      swap2\n      sub\n      swap1\n      revert\n    tag_110:\n        /* \"contracts/34_ERC721.sol\":6493:6528  _transfer(owner, from, to, tokenId) */\n      tag_113\n        /* \"contracts/34_ERC721.sol\":6503:6508  owner */\n      dup2\n        /* \"contracts/34_ERC721.sol\":6510:6514  from */\n      dup6\n        /* \"contracts/34_ERC721.sol\":6516:6518  to */\n      dup6\n        /* \"contracts/34_ERC721.sol\":6520:6527  tokenId */\n      dup6\n        /* \"contracts/34_ERC721.sol\":6493:6502  _transfer */\n      tag_114\n        /* \"contracts/34_ERC721.sol\":6493:6528  _transfer(owner, from, to, tokenId) */\n      jump\t// in\n    tag_113:\n        /* \"contracts/34_ERC721.sol\":6316:6535  {... */\n      pop\n        /* \"contracts/34_ERC721.sol\":6206:6535  function transferFrom(... */\n      pop\n      pop\n      pop\n      jump\t// out\n        /* \"contracts/34_ERC721.sol\":7800:7970  function safeTransferFrom(... */\n    tag_52:\n        /* \"contracts/34_ERC721.sol\":7924:7963  safeTransferFrom(from, to, tokenId, \"\") */\n      tag_116\n        /* \"contracts/34_ERC721.sol\":7941:7945  from */\n      dup4\n        /* \"contracts/34_ERC721.sol\":7947:7949  to */\n      dup4\n        /* \"contracts/34_ERC721.sol\":7951:7958  tokenId */\n      dup4\n        /* \"contracts/34_ERC721.sol\":7924:7963  safeTransferFrom(from, to, tokenId, \"\") */\n      mload(0x40)\n      dup1\n      0x20\n      add\n      0x40\n      mstore\n      dup1\n      0x00\n      dup2\n      mstore\n      pop\n        /* \"contracts/34_ERC721.sol\":7924:7940  safeTransferFrom */\n      tag_75\n        /* \"contracts/34_ERC721.sol\":7924:7963  safeTransferFrom(from, to, tokenId, \"\") */\n      jump\t// in\n    tag_116:\n        /* \"contracts/34_ERC721.sol\":7800:7970  function safeTransferFrom(... */\n      pop\n      pop\n      pop\n      jump\t// out\n        /* \"contracts/34_ERC721.sol\":8414:8711  function _mint(address to, uint tokenId)  public {... */\n    tag_55:\n        /* \"contracts/34_ERC721.sol\":8495:8496  0 */\n      0x00\n        /* \"contracts/34_ERC721.sol\":8481:8497  to != address(0) */\n      0xffffffffffffffffffffffffffffffffffffffff\n      and\n        /* \"contracts/34_ERC721.sol\":8481:8483  to */\n      dup3\n        /* \"contracts/34_ERC721.sol\":8481:8497  to != address(0) */\n      0xffffffffffffffffffffffffffffffffffffffff\n      and\n      sub\n        /* \"contracts/34_ERC721.sol\":8473:8522  require(to != address(0), \"mint to zero address\") */\n      tag_118\n      jumpi\n      mload(0x40)\n      0x08c379a000000000000000000000000000000000000000000000000000000000\n      dup2\n      mstore\n      0x04\n      add\n      tag_119\n      swap1\n      tag_120\n      jump\t// in\n    tag_119:\n      mload(0x40)\n      dup1\n      swap2\n      sub\n      swap1\n      revert\n    tag_118:\n        /* \"contracts/34_ERC721.sol\":8568:8569  0 */\n      0x00\n        /* \"contracts/34_ERC721.sol\":8540:8570  _owners[tokenId] == address(0) */\n      0xffffffffffffffffffffffffffffffffffffffff\n      and\n        /* \"contracts/34_ERC721.sol\":8540:8547  _owners */\n      0x02\n        /* \"contracts/34_ERC721.sol\":8540:8556  _owners[tokenId] */\n      0x00\n        /* \"contracts/34_ERC721.sol\":8548:8555  tokenId */\n      dup4\n        /* \"contracts/34_ERC721.sol\":8540:8556  _owners[tokenId] */\n      dup2\n      mstore\n      0x20\n      add\n      swap1\n      dup2\n      mstore\n      0x20\n      add\n      0x00\n      keccak256\n      0x00\n      swap1\n      sload\n      swap1\n      0x0100\n      exp\n      swap1\n      div\n      0xffffffffffffffffffffffffffffffffffffffff\n      and\n        /* \"contracts/34_ERC721.sol\":8540:8570  _owners[tokenId] == address(0) */\n      0xffffffffffffffffffffffffffffffffffffffff\n      and\n      eq\n        /* \"contracts/34_ERC721.sol\":8532:8595  require(_owners[tokenId] == address(0), \"token already minted\") */\n      tag_121\n      jumpi\n      mload(0x40)\n      0x08c379a000000000000000000000000000000000000000000000000000000000\n      dup2\n      mstore\n      0x04\n      add\n      tag_122\n      swap1\n      tag_123\n      jump\t// in\n    tag_122:\n      mload(0x40)\n      dup1\n      swap2\n      sub\n      swap1\n      revert\n    tag_121:\n        /* \"contracts/34_ERC721.sol\":8623:8624  1 */\n      0x01\n        /* \"contracts/34_ERC721.sol\":8606:8615  _balances */\n      0x03\n        /* \"contracts/34_ERC721.sol\":8606:8619  _balances[to] */\n      0x00\n        /* \"contracts/34_ERC721.sol\":8616:8618  to */\n      dup5\n        /* \"contracts/34_ERC721.sol\":8606:8619  _balances[to] */\n      0xffffffffffffffffffffffffffffffffffffffff\n      and\n      0xffffffffffffffffffffffffffffffffffffffff\n      and\n      dup2\n      mstore\n      0x20\n      add\n      swap1\n      dup2\n      mstore\n      0x20\n      add\n      0x00\n      keccak256\n      0x00\n        /* \"contracts/34_ERC721.sol\":8606:8624  _balances[to] += 1 */\n      dup3\n      dup3\n      sload\n      tag_124\n      swap2\n      swap1\n      tag_125\n      jump\t// in\n    tag_124:\n      swap3\n      pop\n      pop\n      dup2\n      swap1\n      sstore\n      pop\n        /* \"contracts/34_ERC721.sol\":8653:8655  to */\n      dup2\n        /* \"contracts/34_ERC721.sol\":8634:8641  _owners */\n      0x02\n        /* \"contracts/34_ERC721.sol\":8634:8650  _owners[tokenId] */\n      0x00\n        /* \"contracts/34_ERC721.sol\":8642:8649  tokenId */\n      dup4\n        /* \"contracts/34_ERC721.sol\":8634:8650  _owners[tokenId] */\n      dup2\n      mstore\n      0x20\n      add\n      swap1\n      dup2\n      mstore\n      0x20\n      add\n      0x00\n      keccak256\n      0x00\n        /* \"contracts/34_ERC721.sol\":8634:8655  _owners[tokenId] = to */\n      0x0100\n      exp\n      dup2\n      sload\n      dup2\n      0xffffffffffffffffffffffffffffffffffffffff\n      mul\n      not\n      and\n      swap1\n      dup4\n      0xffffffffffffffffffffffffffffffffffffffff\n      and\n      mul\n      or\n      swap1\n      sstore\n      pop\n        /* \"contracts/34_ERC721.sol\":8696:8703  tokenId */\n      dup1\n        /* \"contracts/34_ERC721.sol\":8692:8694  to */\n      dup3\n        /* \"contracts/34_ERC721.sol\":8671:8704  Transfer(address(0), to, tokenId) */\n      0xffffffffffffffffffffffffffffffffffffffff\n      and\n        /* \"contracts/34_ERC721.sol\":8688:8689  0 */\n      0x00\n        /* \"contracts/34_ERC721.sol\":8671:8704  Transfer(address(0), to, tokenId) */\n      0xffffffffffffffffffffffffffffffffffffffff\n      and\n      0xddf252ad1be2c89b69c2b068fc378daa952ba7f163c4a11628f55a4df523b3ef\n      mload(0x40)\n      mload(0x40)\n      dup1\n      swap2\n      sub\n      swap1\n      log4\n        /* \"contracts/34_ERC721.sol\":8414:8711  function _mint(address to, uint tokenId)  public {... */\n      pop\n      pop\n      jump\t// out\n        /* \"contracts/34_ERC721.sol\":3165:3343  function ownerOf(uint tokenId) public view override returns (address owner) {... */\n    tag_58:\n        /* \"contracts/34_ERC721.sol\":3226:3239  address owner */\n      0x00\n        /* \"contracts/34_ERC721.sol\":3259:3266  _owners */\n      0x02\n        /* \"contracts/34_ERC721.sol\":3259:3275  _owners[tokenId] */\n      0x00\n        /* \"contracts/34_ERC721.sol\":3267:3274  tokenId */\n      dup4\n        /* \"contracts/34_ERC721.sol\":3259:3275  _owners[tokenId] */\n      dup2\n      mstore\n      0x20\n      add\n      swap1\n      dup2\n      mstore\n      0x20\n      add\n      0x00\n      keccak256\n      0x00\n      swap1\n      sload\n      swap1\n      0x0100\n      exp\n      swap1\n      div\n      0xffffffffffffffffffffffffffffffffffffffff\n      and\n        /* \"contracts/34_ERC721.sol\":3251:3275  owner = _owners[tokenId] */\n      swap1\n      pop\n        /* \"contracts/34_ERC721.sol\":3310:3311  0 */\n      0x00\n        /* \"contracts/34_ERC721.sol\":3293:3312  owner != address(0) */\n      0xffffffffffffffffffffffffffffffffffffffff\n      and\n        /* \"contracts/34_ERC721.sol\":3293:3298  owner */\n      dup2\n        /* \"contracts/34_ERC721.sol\":3293:3312  owner != address(0) */\n      0xffffffffffffffffffffffffffffffffffffffff\n      and\n      sub\n        /* \"contracts/34_ERC721.sol\":3285:3336  require(owner != address(0), \"token doesn't exist\") */\n      tag_127\n      jumpi\n      mload(0x40)\n      0x08c379a000000000000000000000000000000000000000000000000000000000\n      dup2\n      mstore\n      0x04\n      add\n      tag_128\n      swap1\n      tag_97\n      jump\t// in\n    tag_128:\n      mload(0x40)\n      dup1\n      swap2\n      sub\n      swap1\n      revert\n    tag_127:\n        /* \"contracts/34_ERC721.sol\":3165:3343  function ownerOf(uint tokenId) public view override returns (address owner) {... */\n      swap2\n      swap1\n      pop\n      jump\t// out\n        /* \"contracts/34_ERC721.sol\":2908:3082  function balanceOf(address owner) external view override returns (uint) {... */\n    tag_62:\n        /* \"contracts/34_ERC721.sol\":2974:2978  uint */\n      0x00\n        /* \"contracts/34_ERC721.sol\":3015:3016  0 */\n      dup1\n        /* \"contracts/34_ERC721.sol\":2998:3017  owner != address(0) */\n      0xffffffffffffffffffffffffffffffffffffffff\n      and\n        /* \"contracts/34_ERC721.sol\":2998:3003  owner */\n      dup3\n        /* \"contracts/34_ERC721.sol\":2998:3017  owner != address(0) */\n      0xffffffffffffffffffffffffffffffffffffffff\n      and\n      sub\n        /* \"contracts/34_ERC721.sol\":2990:3042  require(owner != address(0), \"owner = zero address\") */\n      tag_130\n      jumpi\n      mload(0x40)\n      0x08c379a000000000000000000000000000000000000000000000000000000000\n      dup2\n      mstore\n      0x04\n      add\n      tag_131\n      swap1\n      tag_132\n      jump\t// in\n    tag_131:\n      mload(0x40)\n      dup1\n      swap2\n      sub\n      swap1\n      revert\n    tag_130:\n        /* \"contracts/34_ERC721.sol\":3059:3068  _balances */\n      0x03\n        /* \"contracts/34_ERC721.sol\":3059:3075  _balances[owner] */\n      0x00\n        /* \"contracts/34_ERC721.sol\":3069:3074  owner */\n      dup4\n        /* \"contracts/34_ERC721.sol\":3059:3075  _balances[owner] */\n      0xffffffffffffffffffffffffffffffffffffffff\n      and\n      0xffffffffffffffffffffffffffffffffffffffff\n      and\n      dup2\n      mstore\n      0x20\n      add\n      swap1\n      dup2\n      mstore\n      0x20\n      add\n      0x00\n      keccak256\n      sload\n        /* \"contracts/34_ERC721.sol\":3052:3075  return _balances[owner] */\n      swap1\n      pop\n        /* \"contracts/34_ERC721.sol\":2908:3082  function balanceOf(address owner) external view override returns (uint) {... */\n      swap2\n      swap1\n      pop\n      jump\t// out\n        /* \"contracts/34_ERC721.sol\":1604:1633  string public override symbol */\n    tag_66:\n      0x01\n      dup1\n      sload\n      tag_133\n      swap1\n      tag_89\n      jump\t// in\n    tag_133:\n      dup1\n      0x1f\n      add\n      0x20\n      dup1\n      swap2\n      div\n      mul\n      0x20\n      add\n      mload(0x40)\n      swap1\n      dup2\n      add\n      0x40\n      mstore\n      dup1\n      swap3\n      swap2\n      swap1\n      dup2\n      dup2\n      mstore\n      0x20\n      add\n      dup3\n      dup1\n      sload\n      tag_134\n      swap1\n      tag_89\n      jump\t// in\n    tag_134:\n      dup1\n      iszero\n      tag_135\n      jumpi\n      dup1\n      0x1f\n      lt\n      tag_136\n      jumpi\n      0x0100\n      dup1\n      dup4\n      sload\n      div\n      mul\n      dup4\n      mstore\n      swap2\n      0x20\n      add\n      swap2\n      jump(tag_135)\n    tag_136:\n      dup3\n      add\n      swap2\n      swap1\n      0x00\n      mstore\n      keccak256(0x00, 0x20)\n      swap1\n    tag_137:\n      dup2\n      sload\n      dup2\n      mstore\n      swap1\n      0x01\n      add\n      swap1\n      0x20\n      add\n      dup1\n      dup4\n      gt\n      tag_137\n      jumpi\n      dup3\n      swap1\n      sub\n      0x1f\n      and\n      dup3\n      add\n      swap2\n    tag_135:\n      pop\n      pop\n      pop\n      pop\n      pop\n      dup2\n      jump\t// out\n        /* \"contracts/34_ERC721.sol\":3814:4021  function setApprovalForAll(address operator, bool approved) external override {... */\n    tag_71:\n        /* \"contracts/34_ERC721.sol\":3945:3953  approved */\n      dup1\n        /* \"contracts/34_ERC721.sol\":3902:3920  _operatorApprovals */\n      0x05\n        /* \"contracts/34_ERC721.sol\":3902:3932  _operatorApprovals[msg.sender] */\n      0x00\n        /* \"contracts/34_ERC721.sol\":3921:3931  msg.sender */\n      caller\n        /* \"contracts/34_ERC721.sol\":3902:3932  _operatorApprovals[msg.sender] */\n      0xffffffffffffffffffffffffffffffffffffffff\n      and\n      0xffffffffffffffffffffffffffffffffffffffff\n      and\n      dup2\n      mstore\n      0x20\n      add\n      swap1\n      dup2\n      mstore\n      0x20\n      add\n      0x00\n      keccak256\n        /* \"contracts/34_ERC721.sol\":3902:3942  _operatorApprovals[msg.sender][operator] */\n      0x00\n        /* \"contracts/34_ERC721.sol\":3933:3941  operator */\n      dup5\n        /* \"contracts/34_ERC721.sol\":3902:3942  _operatorApprovals[msg.sender][operator] */\n      0xffffffffffffffffffffffffffffffffffffffff\n      and\n      0xffffffffffffffffffffffffffffffffffffffff\n      and\n      dup2\n      mstore\n      0x20\n      add\n      swap1\n      dup2\n      mstore\n      0x20\n      add\n      0x00\n      keccak256\n      0x00\n        /* \"contracts/34_ERC721.sol\":3902:3953  _operatorApprovals[msg.sender][operator] = approved */\n      0x0100\n      exp\n      dup2\n      sload\n      dup2\n      0xff\n      mul\n      not\n      and\n      swap1\n      dup4\n      iszero\n      iszero\n      mul\n      or\n      swap1\n      sstore\n      pop\n        /* \"contracts/34_ERC721.sol\":3995:4003  operator */\n      dup2\n        /* \"contracts/34_ERC721.sol\":3968:4014  ApprovalForAll(msg.sender, operator, approved) */\n      0xffffffffffffffffffffffffffffffffffffffff\n      and\n        /* \"contracts/34_ERC721.sol\":3983:3993  msg.sender */\n      caller\n        /* \"contracts/34_ERC721.sol\":3968:4014  ApprovalForAll(msg.sender, operator, approved) */\n      0xffffffffffffffffffffffffffffffffffffffff\n      and\n      0x17307eab39ab6107e8899845ad3d59bd9653f200f220920489ca2b5937696c31\n        /* \"contracts/34_ERC721.sol\":4005:4013  approved */\n      dup4\n        /* \"contracts/34_ERC721.sol\":3968:4014  ApprovalForAll(msg.sender, operator, approved) */\n      mload(0x40)\n      tag_139\n      swap2\n      swap1\n      tag_26\n      jump\t// in\n    tag_139:\n      mload(0x40)\n      dup1\n      swap2\n      sub\n      swap1\n      log3\n        /* \"contracts/34_ERC721.sol\":3814:4021  function setApprovalForAll(address operator, bool approved) external override {... */\n      pop\n      pop\n      jump\t// out\n        /* \"contracts/34_ERC721.sol\":7388:7758  function safeTransferFrom(... */\n    tag_75:\n        /* \"contracts/34_ERC721.sol\":7538:7551  address owner */\n      0x00\n        /* \"contracts/34_ERC721.sol\":7554:7570  ownerOf(tokenId) */\n      tag_141\n        /* \"contracts/34_ERC721.sol\":7562:7569  tokenId */\n      dup4\n        /* \"contracts/34_ERC721.sol\":7554:7561  ownerOf */\n      tag_58\n        /* \"contracts/34_ERC721.sol\":7554:7570  ownerOf(tokenId) */\n      jump\t// in\n    tag_141:\n        /* \"contracts/34_ERC721.sol\":7538:7570  address owner = ownerOf(tokenId) */\n      swap1\n      pop\n        /* \"contracts/34_ERC721.sol\":7601:7647  _isApprovedOrOwner(owner, msg.sender, tokenId) */\n      tag_142\n        /* \"contracts/34_ERC721.sol\":7620:7625  owner */\n      dup2\n        /* \"contracts/34_ERC721.sol\":7627:7637  msg.sender */\n      caller\n        /* \"contracts/34_ERC721.sol\":7639:7646  tokenId */\n      dup6\n        /* \"contracts/34_ERC721.sol\":7601:7619  _isApprovedOrOwner */\n      tag_109\n        /* \"contracts/34_ERC721.sol\":7601:7647  _isApprovedOrOwner(owner, msg.sender, tokenId) */\n      jump\t// in\n    tag_142:\n        /* \"contracts/34_ERC721.sol\":7580:7695  require(... */\n      tag_143\n      jumpi\n      mload(0x40)\n      0x08c379a000000000000000000000000000000000000000000000000000000000\n      dup2\n      mstore\n      0x04\n      add\n      tag_144\n      swap1\n      tag_112\n      jump\t// in\n    tag_144:\n      mload(0x40)\n      dup1\n      swap2\n      sub\n      swap1\n      revert\n    tag_143:\n        /* \"contracts/34_ERC721.sol\":7705:7751  _safeTransfer(owner, from, to, tokenId, _data) */\n      tag_145\n        /* \"contracts/34_ERC721.sol\":7719:7724  owner */\n      dup2\n        /* \"contracts/34_ERC721.sol\":7726:7730  from */\n      dup7\n        /* \"contracts/34_ERC721.sol\":7732:7734  to */\n      dup7\n        /* \"contracts/34_ERC721.sol\":7736:7743  tokenId */\n      dup7\n        /* \"contracts/34_ERC721.sol\":7745:7750  _data */\n      dup7\n        /* \"contracts/34_ERC721.sol\":7705:7718  _safeTransfer */\n      tag_146\n        /* \"contracts/34_ERC721.sol\":7705:7751  _safeTransfer(owner, from, to, tokenId, _data) */\n      jump\t// in\n    tag_145:\n        /* \"contracts/34_ERC721.sol\":7528:7758  {... */\n      pop\n        /* \"contracts/34_ERC721.sol\":7388:7758  function safeTransferFrom(... */\n      pop\n      pop\n      pop\n      pop\n      jump\t// out\n        /* \"contracts/34_ERC721.sol\":9910:10221  function tokenURI(uint256 tokenId) public view virtual override returns (string memory) {... */\n    tag_78:\n        /* \"contracts/34_ERC721.sol\":9983:9996  string memory */\n      0x60\n        /* \"contracts/34_ERC721.sol\":10044:10045  0 */\n      0x00\n        /* \"contracts/34_ERC721.sol\":10016:10046  _owners[tokenId] != address(0) */\n      0xffffffffffffffffffffffffffffffffffffffff\n      and\n        /* \"contracts/34_ERC721.sol\":10016:10023  _owners */\n      0x02\n        /* \"contracts/34_ERC721.sol\":10016:10032  _owners[tokenId] */\n      0x00\n        /* \"contracts/34_ERC721.sol\":10024:10031  tokenId */\n      dup5\n        /* \"contracts/34_ERC721.sol\":10016:10032  _owners[tokenId] */\n      dup2\n      mstore\n      0x20\n      add\n      swap1\n      dup2\n      mstore\n      0x20\n      add\n      0x00\n      keccak256\n      0x00\n      swap1\n      sload\n      swap1\n      0x0100\n      exp\n      swap1\n      div\n      0xffffffffffffffffffffffffffffffffffffffff\n      and\n        /* \"contracts/34_ERC721.sol\":10016:10046  _owners[tokenId] != address(0) */\n      0xffffffffffffffffffffffffffffffffffffffff\n      and\n      sub\n        /* \"contracts/34_ERC721.sol\":10008:10066  require(_owners[tokenId] != address(0), \"Token Not Exist\") */\n      tag_148\n      jumpi\n      mload(0x40)\n      0x08c379a000000000000000000000000000000000000000000000000000000000\n      dup2\n      mstore\n      0x04\n      add\n      tag_149\n      swap1\n      tag_150\n      jump\t// in\n    tag_149:\n      mload(0x40)\n      dup1\n      swap2\n      sub\n      swap1\n      revert\n    tag_148:\n        /* \"contracts/34_ERC721.sol\":10077:10098  string memory baseURI */\n      0x00\n        /* \"contracts/34_ERC721.sol\":10101:10111  _baseURI() */\n      tag_151\n        /* \"contracts/34_ERC721.sol\":10101:10109  _baseURI */\n      tag_152\n        /* \"contracts/34_ERC721.sol\":10101:10111  _baseURI() */\n      jump\t// in\n    tag_151:\n        /* \"contracts/34_ERC721.sol\":10077:10111  string memory baseURI = _baseURI() */\n      swap1\n      pop\n        /* \"contracts/34_ERC721.sol\":10152:10153  0 */\n      0x00\n        /* \"contracts/34_ERC721.sol\":10134:10141  baseURI */\n      dup2\n        /* \"contracts/34_ERC721.sol\":10128:10149  bytes(baseURI).length */\n      mload\n        /* \"contracts/34_ERC721.sol\":10128:10153  bytes(baseURI).length > 0 */\n      gt\n        /* \"contracts/34_ERC721.sol\":10128:10214  bytes(baseURI).length > 0 ? string(abi.encodePacked(baseURI, tokenId.toString())) : \"\" */\n      tag_153\n      jumpi\n      mload(0x40)\n      dup1\n      0x20\n      add\n      0x40\n      mstore\n      dup1\n      0x00\n      dup2\n      mstore\n      pop\n      jump(tag_154)\n    tag_153:\n        /* \"contracts/34_ERC721.sol\":10180:10187  baseURI */\n      dup1\n        /* \"contracts/34_ERC721.sol\":10189:10207  tokenId.toString() */\n      tag_155\n        /* \"contracts/34_ERC721.sol\":10189:10196  tokenId */\n      dup5\n        /* \"contracts/34_ERC721.sol\":10189:10205  tokenId.toString */\n      tag_156\n        /* \"contracts/34_ERC721.sol\":10189:10207  tokenId.toString() */\n      jump\t// in\n    tag_155:\n        /* \"contracts/34_ERC721.sol\":10163:10208  abi.encodePacked(baseURI, tokenId.toString()) */\n      add(0x20, mload(0x40))\n      tag_157\n      swap3\n      swap2\n      swap1\n      tag_158\n      jump\t// in\n    tag_157:\n      mload(0x40)\n      0x20\n      dup2\n      dup4\n      sub\n      sub\n      dup2\n      mstore\n      swap1\n      0x40\n      mstore\n        /* \"contracts/34_ERC721.sol\":10128:10214  bytes(baseURI).length > 0 ? string(abi.encodePacked(baseURI, tokenId.toString())) : \"\" */\n    tag_154:\n        /* \"contracts/34_ERC721.sol\":10121:10214  return bytes(baseURI).length > 0 ? string(abi.encodePacked(baseURI, tokenId.toString())) : \"\" */\n      swap2\n      pop\n      pop\n        /* \"contracts/34_ERC721.sol\":9910:10221  function tokenURI(uint256 tokenId) public view virtual override returns (string memory) {... */\n      swap2\n      swap1\n      pop\n      jump\t// out\n        /* \"contracts/34_ERC721.sol\":3492:3684  function isApprovedForAll(address owner, address operator)... */\n    tag_83:\n        /* \"contracts/34_ERC721.sol\":3615:3619  bool */\n      0x00\n        /* \"contracts/34_ERC721.sol\":3642:3660  _operatorApprovals */\n      0x05\n        /* \"contracts/34_ERC721.sol\":3642:3667  _operatorApprovals[owner] */\n      0x00\n        /* \"contracts/34_ERC721.sol\":3661:3666  owner */\n      dup5\n        /* \"contracts/34_ERC721.sol\":3642:3667  _operatorApprovals[owner] */\n      0xffffffffffffffffffffffffffffffffffffffff\n      and\n      0xffffffffffffffffffffffffffffffffffffffff\n      and\n      dup2\n      mstore\n      0x20\n      add\n      swap1\n      dup2\n      mstore\n      0x20\n      add\n      0x00\n      keccak256\n        /* \"contracts/34_ERC721.sol\":3642:3677  _operatorApprovals[owner][operator] */\n      0x00\n        /* \"contracts/34_ERC721.sol\":3668:3676  operator */\n      dup4\n        /* \"contracts/34_ERC721.sol\":3642:3677  _operatorApprovals[owner][operator] */\n      0xffffffffffffffffffffffffffffffffffffffff\n      and\n      0xffffffffffffffffffffffffffffffffffffffff\n      and\n      dup2\n      mstore\n      0x20\n      add\n      swap1\n      dup2\n      mstore\n      0x20\n      add\n      0x00\n      keccak256\n      0x00\n      swap1\n      sload\n      swap1\n      0x0100\n      exp\n      swap1\n      div\n      0xff\n      and\n        /* \"contracts/34_ERC721.sol\":3635:3677  return _operatorApprovals[owner][operator] */\n      swap1\n      pop\n        /* \"contracts/34_ERC721.sol\":3492:3684  function isApprovedForAll(address owner, address operator)... */\n      swap3\n      swap2\n      pop\n      pop\n      jump\t// out\n        /* \"contracts/34_ERC721.sol\":4448:4634  function _approve(... */\n    tag_104:\n        /* \"contracts/34_ERC721.sol\":4582:4584  to */\n      dup2\n        /* \"contracts/34_ERC721.sol\":4555:4570  _tokenApprovals */\n      0x04\n        /* \"contracts/34_ERC721.sol\":4555:4579  _tokenApprovals[tokenId] */\n      0x00\n        /* \"contracts/34_ERC721.sol\":4571:4578  tokenId */\n      dup4\n        /* \"contracts/34_ERC721.sol\":4555:4579  _tokenApprovals[tokenId] */\n      dup2\n      mstore\n      0x20\n      add\n      swap1\n      dup2\n      mstore\n      0x20\n      add\n      0x00\n      keccak256\n      0x00\n        /* \"contracts/34_ERC721.sol\":4555:4584  _tokenApprovals[tokenId] = to */\n      0x0100\n      exp\n      dup2\n      sload\n      dup2\n      0xffffffffffffffffffffffffffffffffffffffff\n      mul\n      not\n      and\n      swap1\n      dup4\n      0xffffffffffffffffffffffffffffffffffffffff\n      and\n      mul\n      or\n      swap1\n      sstore\n      pop\n        /* \"contracts/34_ERC721.sol\":4619:4626  tokenId */\n      dup1\n        /* \"contracts/34_ERC721.sol\":4615:4617  to */\n      dup3\n        /* \"contracts/34_ERC721.sol\":4599:4627  Approval(owner, to, tokenId) */\n      0xffffffffffffffffffffffffffffffffffffffff\n      and\n        /* \"contracts/34_ERC721.sol\":4608:4613  owner */\n      dup5\n        /* \"contracts/34_ERC721.sol\":4599:4627  Approval(owner, to, tokenId) */\n      0xffffffffffffffffffffffffffffffffffffffff\n      and\n      0x8c5be1e5ebec7d5bd14f71427d1e84f3dd0314c0f7b2291e5b200ac8c7c3b925\n      mload(0x40)\n      mload(0x40)\n      dup1\n      swap2\n      sub\n      swap1\n      log4\n        /* \"contracts/34_ERC721.sol\":4448:4634  function _approve(... */\n      pop\n      pop\n      pop\n      jump\t// out\n        /* \"contracts/34_ERC721.sol\":5185:5460  function _isApprovedOrOwner(... */\n    tag_109:\n        /* \"contracts/34_ERC721.sol\":5311:5315  bool */\n      0x00\n        /* \"contracts/34_ERC721.sol\":5346:5351  owner */\n      dup4\n        /* \"contracts/34_ERC721.sol\":5335:5351  spender == owner */\n      0xffffffffffffffffffffffffffffffffffffffff\n      and\n        /* \"contracts/34_ERC721.sol\":5335:5342  spender */\n      dup4\n        /* \"contracts/34_ERC721.sol\":5335:5351  spender == owner */\n      0xffffffffffffffffffffffffffffffffffffffff\n      and\n      eq\n        /* \"contracts/34_ERC721.sol\":5335:5402  spender == owner ||... */\n      dup1\n      tag_162\n      jumpi\n      pop\n        /* \"contracts/34_ERC721.sol\":5395:5402  spender */\n      dup3\n        /* \"contracts/34_ERC721.sol\":5367:5402  _tokenApprovals[tokenId] == spender */\n      0xffffffffffffffffffffffffffffffffffffffff\n      and\n        /* \"contracts/34_ERC721.sol\":5367:5382  _tokenApprovals */\n      0x04\n        /* \"contracts/34_ERC721.sol\":5367:5391  _tokenApprovals[tokenId] */\n      0x00\n        /* \"contracts/34_ERC721.sol\":5383:5390  tokenId */\n      dup5\n        /* \"contracts/34_ERC721.sol\":5367:5391  _tokenApprovals[tokenId] */\n      dup2\n      mstore\n      0x20\n      add\n      swap1\n      dup2\n      mstore\n      0x20\n      add\n      0x00\n      keccak256\n      0x00\n      swap1\n      sload\n      swap1\n      0x0100\n      exp\n      swap1\n      div\n      0xffffffffffffffffffffffffffffffffffffffff\n      and\n        /* \"contracts/34_ERC721.sol\":5367:5402  _tokenApprovals[tokenId] == spender */\n      0xffffffffffffffffffffffffffffffffffffffff\n      and\n      eq\n        /* \"contracts/34_ERC721.sol\":5335:5402  spender == owner ||... */\n    tag_162:\n        /* \"contracts/34_ERC721.sol\":5335:5452  spender == owner ||... */\n      dup1\n      tag_163\n      jumpi\n      pop\n        /* \"contracts/34_ERC721.sol\":5418:5436  _operatorApprovals */\n      0x05\n        /* \"contracts/34_ERC721.sol\":5418:5443  _operatorApprovals[owner] */\n      0x00\n        /* \"contracts/34_ERC721.sol\":5437:5442  owner */\n      dup6\n        /* \"contracts/34_ERC721.sol\":5418:5443  _operatorApprovals[owner] */\n      0xffffffffffffffffffffffffffffffffffffffff\n      and\n      0xffffffffffffffffffffffffffffffffffffffff\n      and\n      dup2\n      mstore\n      0x20\n      add\n      swap1\n      dup2\n      mstore\n      0x20\n      add\n      0x00\n      keccak256\n        /* \"contracts/34_ERC721.sol\":5418:5452  _operatorApprovals[owner][spender] */\n      0x00\n        /* \"contracts/34_ERC721.sol\":5444:5451  spender */\n      dup5\n        /* \"contracts/34_ERC721.sol\":5418:5452  _operatorApprovals[owner][spender] */\n      0xffffffffffffffffffffffffffffffffffffffff\n      and\n      0xffffffffffffffffffffffffffffffffffffffff\n      and\n      dup2\n      mstore\n      0x20\n      add\n      swap1\n      dup2\n      mstore\n      0x20\n      add\n      0x00\n      keccak256\n      0x00\n      swap1\n      sload\n      swap1\n      0x0100\n      exp\n      swap1\n      div\n      0xff\n      and\n        /* \"contracts/34_ERC721.sol\":5335:5452  spender == owner ||... */\n    tag_163:\n        /* \"contracts/34_ERC721.sol\":5327:5453  return (spender == owner ||... */\n      swap1\n      pop\n        /* \"contracts/34_ERC721.sol\":5185:5460  function _isApprovedOrOwner(... */\n      swap4\n      swap3\n      pop\n      pop\n      pop\n      jump\t// out\n        /* \"contracts/34_ERC721.sol\":5681:6100  function _transfer(... */\n    tag_114:\n        /* \"contracts/34_ERC721.sol\":5827:5832  owner */\n      dup4\n        /* \"contracts/34_ERC721.sol\":5819:5832  from == owner */\n      0xffffffffffffffffffffffffffffffffffffffff\n      and\n        /* \"contracts/34_ERC721.sol\":5819:5823  from */\n      dup4\n        /* \"contracts/34_ERC721.sol\":5819:5832  from == owner */\n      0xffffffffffffffffffffffffffffffffffffffff\n      and\n      eq\n        /* \"contracts/34_ERC721.sol\":5811:5846  require(from == owner, \"not owner\") */\n      tag_165\n      jumpi\n      mload(0x40)\n      0x08c379a000000000000000000000000000000000000000000000000000000000\n      dup2\n      mstore\n      0x04\n      add\n      tag_166\n      swap1\n      tag_167\n      jump\t// in\n    tag_166:\n      mload(0x40)\n      dup1\n      swap2\n      sub\n      swap1\n      revert\n    tag_165:\n        /* \"contracts/34_ERC721.sol\":5878:5879  0 */\n      0x00\n        /* \"contracts/34_ERC721.sol\":5864:5880  to != address(0) */\n      0xffffffffffffffffffffffffffffffffffffffff\n      and\n        /* \"contracts/34_ERC721.sol\":5864:5866  to */\n      dup3\n        /* \"contracts/34_ERC721.sol\":5864:5880  to != address(0) */\n      0xffffffffffffffffffffffffffffffffffffffff\n      and\n      sub\n        /* \"contracts/34_ERC721.sol\":5856:5913  require(to != address(0), \"transfer to the zero address\") */\n      tag_168\n      jumpi\n      mload(0x40)\n      0x08c379a000000000000000000000000000000000000000000000000000000000\n      dup2\n      mstore\n      0x04\n      add\n      tag_169\n      swap1\n      tag_170\n      jump\t// in\n    tag_169:\n      mload(0x40)\n      dup1\n      swap2\n      sub\n      swap1\n      revert\n    tag_168:\n        /* \"contracts/34_ERC721.sol\":5924:5960  _approve(owner, address(0), tokenId) */\n      tag_171\n        /* \"contracts/34_ERC721.sol\":5933:5938  owner */\n      dup5\n        /* \"contracts/34_ERC721.sol\":5948:5949  0 */\n      0x00\n        /* \"contracts/34_ERC721.sol\":5952:5959  tokenId */\n      dup4\n        /* \"contracts/34_ERC721.sol\":5924:5932  _approve */\n      tag_104\n        /* \"contracts/34_ERC721.sol\":5924:5960  _approve(owner, address(0), tokenId) */\n      jump\t// in\n    tag_171:\n        /* \"contracts/34_ERC721.sol\":5990:5991  1 */\n      0x01\n        /* \"contracts/34_ERC721.sol\":5971:5980  _balances */\n      0x03\n        /* \"contracts/34_ERC721.sol\":5971:5986  _balances[from] */\n      0x00\n        /* \"contracts/34_ERC721.sol\":5981:5985  from */\n      dup6\n        /* \"contracts/34_ERC721.sol\":5971:5986  _balances[from] */\n      0xffffffffffffffffffffffffffffffffffffffff\n      and\n      0xffffffffffffffffffffffffffffffffffffffff\n      and\n      dup2\n      mstore\n      0x20\n      add\n      swap1\n      dup2\n      mstore\n      0x20\n      add\n      0x00\n      keccak256\n      0x00\n        /* \"contracts/34_ERC721.sol\":5971:5991  _balances[from] -= 1 */\n      dup3\n      dup3\n      sload\n      tag_172\n      swap2\n      swap1\n      tag_173\n      jump\t// in\n    tag_172:\n      swap3\n      pop\n      pop\n      dup2\n      swap1\n      sstore\n      pop\n        /* \"contracts/34_ERC721.sol\":6018:6019  1 */\n      0x01\n        /* \"contracts/34_ERC721.sol\":6001:6010  _balances */\n      0x03\n        /* \"contracts/34_ERC721.sol\":6001:6014  _balances[to] */\n      0x00\n        /* \"contracts/34_ERC721.sol\":6011:6013  to */\n      dup5\n        /* \"contracts/34_ERC721.sol\":6001:6014  _balances[to] */\n      0xffffffffffffffffffffffffffffffffffffffff\n      and\n      0xffffffffffffffffffffffffffffffffffffffff\n      and\n      dup2\n      mstore\n      0x20\n      add\n      swap1\n      dup2\n      mstore\n      0x20\n      add\n      0x00\n      keccak256\n      0x00\n        /* \"contracts/34_ERC721.sol\":6001:6019  _balances[to] += 1 */\n      dup3\n      dup3\n      sload\n      tag_174\n      swap2\n      swap1\n      tag_125\n      jump\t// in\n    tag_174:\n      swap3\n      pop\n      pop\n      dup2\n      swap1\n      sstore\n      pop\n        /* \"contracts/34_ERC721.sol\":6048:6050  to */\n      dup2\n        /* \"contracts/34_ERC721.sol\":6029:6036  _owners */\n      0x02\n        /* \"contracts/34_ERC721.sol\":6029:6045  _owners[tokenId] */\n      0x00\n        /* \"contracts/34_ERC721.sol\":6037:6044  tokenId */\n      dup4\n        /* \"contracts/34_ERC721.sol\":6029:6045  _owners[tokenId] */\n      dup2\n      mstore\n      0x20\n      add\n      swap1\n      dup2\n      mstore\n      0x20\n      add\n      0x00\n      keccak256\n      0x00\n        /* \"contracts/34_ERC721.sol\":6029:6050  _owners[tokenId] = to */\n      0x0100\n      exp\n      dup2\n      sload\n      dup2\n      0xffffffffffffffffffffffffffffffffffffffff\n      mul\n      not\n      and\n      swap1\n      dup4\n      0xffffffffffffffffffffffffffffffffffffffff\n      and\n      mul\n      or\n      swap1\n      sstore\n      pop\n        /* \"contracts/34_ERC721.sol\":6085:6092  tokenId */\n      dup1\n        /* \"contracts/34_ERC721.sol\":6081:6083  to */\n      dup3\n        /* \"contracts/34_ERC721.sol\":6066:6093  Transfer(from, to, tokenId) */\n      0xffffffffffffffffffffffffffffffffffffffff\n      and\n        /* \"contracts/34_ERC721.sol\":6075:6079  from */\n      dup5\n        /* \"contracts/34_ERC721.sol\":6066:6093  Transfer(from, to, tokenId) */\n      0xffffffffffffffffffffffffffffffffffffffff\n      and\n      0xddf252ad1be2c89b69c2b068fc378daa952ba7f163c4a11628f55a4df523b3ef\n      mload(0x40)\n      mload(0x40)\n      dup1\n      swap2\n      sub\n      swap1\n      log4\n        /* \"contracts/34_ERC721.sol\":5681:6100  function _transfer(... */\n      pop\n      pop\n      pop\n      pop\n      jump\t// out\n        /* \"contracts/34_ERC721.sol\":6984:7277  function _safeTransfer(... */\n    tag_146:\n        /* \"contracts/34_ERC721.sol\":7146:7181  _transfer(owner, from, to, tokenId) */\n      tag_176\n        /* \"contracts/34_ERC721.sol\":7156:7161  owner */\n      dup6\n        /* \"contracts/34_ERC721.sol\":7163:7167  from */\n      dup6\n        /* \"contracts/34_ERC721.sol\":7169:7171  to */\n      dup6\n        /* \"contracts/34_ERC721.sol\":7173:7180  tokenId */\n      dup6\n        /* \"contracts/34_ERC721.sol\":7146:7155  _transfer */\n      tag_114\n        /* \"contracts/34_ERC721.sol\":7146:7181  _transfer(owner, from, to, tokenId) */\n      jump\t// in\n    tag_176:\n        /* \"contracts/34_ERC721.sol\":7199:7247  _checkOnERC721Received(from, to, tokenId, _data) */\n      tag_177\n        /* \"contracts/34_ERC721.sol\":7222:7226  from */\n      dup5\n        /* \"contracts/34_ERC721.sol\":7228:7230  to */\n      dup5\n        /* \"contracts/34_ERC721.sol\":7232:7239  tokenId */\n      dup5\n        /* \"contracts/34_ERC721.sol\":7241:7246  _data */\n      dup5\n        /* \"contracts/34_ERC721.sol\":7199:7221  _checkOnERC721Received */\n      tag_178\n        /* \"contracts/34_ERC721.sol\":7199:7247  _checkOnERC721Received(from, to, tokenId, _data) */\n      jump\t// in\n    tag_177:\n        /* \"contracts/34_ERC721.sol\":7191:7270  require(_checkOnERC721Received(from, to, tokenId, _data), \"not ERC721Receiver\") */\n      tag_179\n      jumpi\n      mload(0x40)\n      0x08c379a000000000000000000000000000000000000000000000000000000000\n      dup2\n      mstore\n      0x04\n      add\n      tag_180\n      swap1\n      tag_181\n      jump\t// in\n    tag_180:\n      mload(0x40)\n      dup1\n      swap2\n      sub\n      swap1\n      revert\n    tag_179:\n        /* \"contracts/34_ERC721.sol\":6984:7277  function _safeTransfer(... */\n      pop\n      pop\n      pop\n      pop\n      pop\n      jump\t// out\n        /* \"contracts/34_ERC721.sol\":10433:10525  function _baseURI() internal view virtual returns (string memory) {... */\n    tag_152:\n        /* \"contracts/34_ERC721.sol\":10484:10497  string memory */\n      0x60\n        /* \"contracts/34_ERC721.sol\":10509:10518  return \"\" */\n      mload(0x40)\n      dup1\n      0x20\n      add\n      0x40\n      mstore\n      dup1\n      0x00\n      dup2\n      mstore\n      pop\n      swap1\n      pop\n        /* \"contracts/34_ERC721.sol\":10433:10525  function _baseURI() internal view virtual returns (string memory) {... */\n      swap1\n      jump\t// out\n        /* \"@openzeppelin/contracts/utils/Strings.sol\":637:1335  function toString(uint256 value) internal pure returns (string memory) {... */\n    tag_156:\n        /* \"@openzeppelin/contracts/utils/Strings.sol\":693:706  string memory */\n      0x60\n        /* \"@openzeppelin/contracts/utils/Strings.sol\":742:756  uint256 length */\n      0x00\n        /* \"@openzeppelin/contracts/utils/Strings.sol\":779:780  1 */\n      0x01\n        /* \"@openzeppelin/contracts/utils/Strings.sol\":759:776  Math.log10(value) */\n      tag_184\n        /* \"@openzeppelin/contracts/utils/Strings.sol\":770:775  value */\n      dup5\n        /* \"@openzeppelin/contracts/utils/Strings.sol\":759:769  Math.log10 */\n      tag_185\n        /* \"@openzeppelin/contracts/utils/Strings.sol\":759:776  Math.log10(value) */\n      jump\t// in\n    tag_184:\n        /* \"@openzeppelin/contracts/utils/Strings.sol\":759:780  Math.log10(value) + 1 */\n      add\n        /* \"@openzeppelin/contracts/utils/Strings.sol\":742:780  uint256 length = Math.log10(value) + 1 */\n      swap1\n      pop\n        /* \"@openzeppelin/contracts/utils/Strings.sol\":794:814  string memory buffer */\n      0x00\n        /* \"@openzeppelin/contracts/utils/Strings.sol\":828:834  length */\n      dup2\n        /* \"@openzeppelin/contracts/utils/Strings.sol\":817:835  new string(length) */\n      0xffffffffffffffff\n      dup2\n      gt\n      iszero\n      tag_186\n      jumpi\n      tag_187\n      tag_188\n      jump\t// in\n    tag_187:\n    tag_186:\n      mload(0x40)\n      swap1\n      dup1\n      dup3\n      mstore\n      dup1\n      0x1f\n      add\n      not(0x1f)\n      and\n      0x20\n      add\n      dup3\n      add\n      0x40\n      mstore\n      dup1\n      iszero\n      tag_189\n      jumpi\n      dup2\n      0x20\n      add\n      0x01\n      dup3\n      mul\n      dup1\n      calldatasize\n      dup4\n      calldatacopy\n      dup1\n      dup3\n      add\n      swap2\n      pop\n      pop\n      swap1\n      pop\n    tag_189:\n      pop\n        /* \"@openzeppelin/contracts/utils/Strings.sol\":794:835  string memory buffer = new string(length) */\n      swap1\n      pop\n        /* \"@openzeppelin/contracts/utils/Strings.sol\":849:860  uint256 ptr */\n      0x00\n        /* \"@openzeppelin/contracts/utils/Strings.sol\":975:981  length */\n      dup3\n        /* \"@openzeppelin/contracts/utils/Strings.sol\":971:973  32 */\n      0x20\n        /* \"@openzeppelin/contracts/utils/Strings.sol\":967:982  add(32, length) */\n      add\n        /* \"@openzeppelin/contracts/utils/Strings.sol\":959:965  buffer */\n      dup3\n        /* \"@openzeppelin/contracts/utils/Strings.sol\":955:983  add(buffer, add(32, length)) */\n      add\n        /* \"@openzeppelin/contracts/utils/Strings.sol\":948:983  ptr := add(buffer, add(32, length)) */\n      swap1\n      pop\n        /* \"@openzeppelin/contracts/utils/Strings.sol\":1010:1292  while (true) {... */\n    tag_190:\n        /* \"@openzeppelin/contracts/utils/Strings.sol\":1017:1021  true */\n      0x01\n        /* \"@openzeppelin/contracts/utils/Strings.sol\":1010:1292  while (true) {... */\n      iszero\n      tag_191\n      jumpi\n        /* \"@openzeppelin/contracts/utils/Strings.sol\":1041:1046  ptr-- */\n      dup1\n      dup1\n      0x01\n      swap1\n      sub\n      swap2\n      pop\n      pop\n        /* \"@openzeppelin/contracts/utils/Strings.sol\":1180:1190  HEX_DIGITS */\n      0x3031323334353637383961626364656600000000000000000000000000000000\n        /* \"@openzeppelin/contracts/utils/Strings.sol\":1175:1177  10 */\n      0x0a\n        /* \"@openzeppelin/contracts/utils/Strings.sol\":1168:1173  value */\n      dup7\n        /* \"@openzeppelin/contracts/utils/Strings.sol\":1164:1178  mod(value, 10) */\n      mod\n        /* \"@openzeppelin/contracts/utils/Strings.sol\":1159:1191  byte(mod(value, 10), HEX_DIGITS) */\n      byte\n        /* \"@openzeppelin/contracts/utils/Strings.sol\":1154:1157  ptr */\n      dup2\n        /* \"@openzeppelin/contracts/utils/Strings.sol\":1146:1192  mstore8(ptr, byte(mod(value, 10), HEX_DIGITS)) */\n      mstore8\n        /* \"@openzeppelin/contracts/utils/Strings.sol\":1236:1238  10 */\n      0x0a\n        /* \"@openzeppelin/contracts/utils/Strings.sol\":1227:1238  value /= 10 */\n      dup6\n      dup2\n      tag_192\n      jumpi\n      tag_193\n      tag_194\n      jump\t// in\n    tag_193:\n    tag_192:\n      div\n      swap5\n      pop\n        /* \"@openzeppelin/contracts/utils/Strings.sol\":1269:1270  0 */\n      0x00\n        /* \"@openzeppelin/contracts/utils/Strings.sol\":1260:1265  value */\n      dup6\n        /* \"@openzeppelin/contracts/utils/Strings.sol\":1260:1270  value == 0 */\n      sub\n        /* \"@openzeppelin/contracts/utils/Strings.sol\":1010:1292  while (true) {... */\n      tag_190\n        /* \"@openzeppelin/contracts/utils/Strings.sol\":1256:1277  if (value == 0) break */\n      jumpi\n        /* \"@openzeppelin/contracts/utils/Strings.sol\":1010:1292  while (true) {... */\n    tag_191:\n        /* \"@openzeppelin/contracts/utils/Strings.sol\":1312:1318  buffer */\n      dup2\n        /* \"@openzeppelin/contracts/utils/Strings.sol\":1305:1318  return buffer */\n      swap4\n      pop\n      pop\n      pop\n      pop\n        /* \"@openzeppelin/contracts/utils/Strings.sol\":637:1335  function toString(uint256 value) internal pure returns (string memory) {... */\n      swap2\n      swap1\n      pop\n      jump\t// out\n        /* \"contracts/34_ERC721.sol\":9330:9822  function _checkOnERC721Received(... */\n    tag_178:\n        /* \"contracts/34_ERC721.sol\":9477:9481  bool */\n      0x00\n        /* \"contracts/34_ERC721.sol\":9497:9511  isContract(to) */\n      tag_197\n        /* \"contracts/34_ERC721.sol\":9508:9510  to */\n      dup5\n        /* \"contracts/34_ERC721.sol\":9497:9507  isContract */\n      tag_44\n        /* \"contracts/34_ERC721.sol\":9497:9511  isContract(to) */\n      jump\t// in\n    tag_197:\n        /* \"contracts/34_ERC721.sol\":9493:9816  if (isContract(to)) {... */\n      iszero\n      tag_198\n      jumpi\n        /* \"contracts/34_ERC721.sol\":9722:9763  IERC721Receiver.onERC721Received.selector */\n      shl(0xe0, 0x150b7a02)\n        /* \"contracts/34_ERC721.sol\":9550:9763  IERC721Receiver(to).onERC721Received(... */\n      not(0xffffffffffffffffffffffffffffffffffffffffffffffffffffffff)\n      and\n        /* \"contracts/34_ERC721.sol\":9566:9568  to */\n      dup5\n        /* \"contracts/34_ERC721.sol\":9550:9586  IERC721Receiver(to).onERC721Received */\n      0xffffffffffffffffffffffffffffffffffffffff\n      and\n      0x150b7a02\n        /* \"contracts/34_ERC721.sol\":9608:9618  msg.sender */\n      caller\n        /* \"contracts/34_ERC721.sol\":9640:9644  from */\n      dup9\n        /* \"contracts/34_ERC721.sol\":9666:9673  tokenId */\n      dup8\n        /* \"contracts/34_ERC721.sol\":9695:9700  _data */\n      dup8\n        /* \"contracts/34_ERC721.sol\":9550:9718  IERC721Receiver(to).onERC721Received(... */\n      mload(0x40)\n      dup6\n      0xffffffff\n      and\n      0xe0\n      shl\n      dup2\n      mstore\n      0x04\n      add\n      tag_199\n      swap5\n      swap4\n      swap3\n      swap2\n      swap1\n      tag_200\n      jump\t// in\n    tag_199:\n      0x20\n      mload(0x40)\n      dup1\n      dup4\n      sub\n      dup2\n      0x00\n      dup8\n      gas\n      call\n      iszero\n      dup1\n      iszero\n      tag_202\n      jumpi\n      returndatasize\n      0x00\n      dup1\n      returndatacopy\n      revert(0x00, returndatasize)\n    tag_202:\n      pop\n      pop\n      pop\n      pop\n      mload(0x40)\n      returndatasize\n      not(0x1f)\n      0x1f\n      dup3\n      add\n      and\n      dup3\n      add\n      dup1\n      0x40\n      mstore\n      pop\n      dup2\n      add\n      swap1\n      tag_203\n      swap2\n      swap1\n      tag_204\n      jump\t// in\n    tag_203:\n        /* \"contracts/34_ERC721.sol\":9550:9763  IERC721Receiver(to).onERC721Received(... */\n      not(0xffffffffffffffffffffffffffffffffffffffffffffffffffffffff)\n      and\n      eq\n        /* \"contracts/34_ERC721.sol\":9527:9763  return... */\n      swap1\n      pop\n      jump(tag_196)\n        /* \"contracts/34_ERC721.sol\":9493:9816  if (isContract(to)) {... */\n    tag_198:\n        /* \"contracts/34_ERC721.sol\":9801:9805  true */\n      0x01\n        /* \"contracts/34_ERC721.sol\":9794:9805  return true */\n      swap1\n      pop\n        /* \"contracts/34_ERC721.sol\":9330:9822  function _checkOnERC721Received(... */\n    tag_196:\n      swap5\n      swap4\n      pop\n      pop\n      pop\n      pop\n      jump\t// out\n        /* \"@openzeppelin/contracts/utils/math/Math.sol\":12214:13130  function log10(uint256 value) internal pure returns (uint256) {... */\n    tag_185:\n        /* \"@openzeppelin/contracts/utils/math/Math.sol\":12267:12274  uint256 */\n      0x00\n        /* \"@openzeppelin/contracts/utils/math/Math.sol\":12286:12300  uint256 result */\n      dup1\n        /* \"@openzeppelin/contracts/utils/math/Math.sol\":12303:12304  0 */\n      0x00\n        /* \"@openzeppelin/contracts/utils/math/Math.sol\":12286:12304  uint256 result = 0 */\n      swap1\n      pop\n        /* \"@openzeppelin/contracts/utils/math/Math.sol\":12351:12359  10 ** 64 */\n      0x184f03e93ff9f4daa797ed6e38ed64bf6a1f010000000000000000\n        /* \"@openzeppelin/contracts/utils/math/Math.sol\":12342:12347  value */\n      dup4\n        /* \"@openzeppelin/contracts/utils/math/Math.sol\":12342:12359  value >= 10 ** 64 */\n      lt\n        /* \"@openzeppelin/contracts/utils/math/Math.sol\":12338:12441  if (value >= 10 ** 64) {... */\n      tag_207\n      jumpi\n        /* \"@openzeppelin/contracts/utils/math/Math.sol\":12388:12396  10 ** 64 */\n      0x184f03e93ff9f4daa797ed6e38ed64bf6a1f010000000000000000\n        /* \"@openzeppelin/contracts/utils/math/Math.sol\":12379:12396  value /= 10 ** 64 */\n      dup4\n      dup2\n      tag_208\n      jumpi\n      tag_209\n      tag_194\n      jump\t// in\n    tag_209:\n    tag_208:\n      div\n      swap3\n      pop\n        /* \"@openzeppelin/contracts/utils/math/Math.sol\":12424:12426  64 */\n      0x40\n        /* \"@openzeppelin/contracts/utils/math/Math.sol\":12414:12426  result += 64 */\n      dup2\n      add\n      swap1\n      pop\n        /* \"@openzeppelin/contracts/utils/math/Math.sol\":12338:12441  if (value >= 10 ** 64) {... */\n    tag_207:\n        /* \"@openzeppelin/contracts/utils/math/Math.sol\":12467:12475  10 ** 32 */\n      0x04ee2d6d415b85acef8100000000\n        /* \"@openzeppelin/contracts/utils/math/Math.sol\":12458:12463  value */\n      dup4\n        /* \"@openzeppelin/contracts/utils/math/Math.sol\":12458:12475  value >= 10 ** 32 */\n      lt\n        /* \"@openzeppelin/contracts/utils/math/Math.sol\":12454:12557  if (value >= 10 ** 32) {... */\n      tag_210\n      jumpi\n        /* \"@openzeppelin/contracts/utils/math/Math.sol\":12504:12512  10 ** 32 */\n      0x04ee2d6d415b85acef8100000000\n        /* \"@openzeppelin/contracts/utils/math/Math.sol\":12495:12512  value /= 10 ** 32 */\n      dup4\n      dup2\n      tag_211\n      jumpi\n      tag_212\n      tag_194\n      jump\t// in\n    tag_212:\n    tag_211:\n      div\n      swap3\n      pop\n        /* \"@openzeppelin/contracts/utils/math/Math.sol\":12540:12542  32 */\n      0x20\n        /* \"@openzeppelin/contracts/utils/math/Math.sol\":12530:12542  result += 32 */\n      dup2\n      add\n      swap1\n      pop\n        /* \"@openzeppelin/contracts/utils/math/Math.sol\":12454:12557  if (value >= 10 ** 32) {... */\n    tag_210:\n        /* \"@openzeppelin/contracts/utils/math/Math.sol\":12583:12591  10 ** 16 */\n      0x2386f26fc10000\n        /* \"@openzeppelin/contracts/utils/math/Math.sol\":12574:12579  value */\n      dup4\n        /* \"@openzeppelin/contracts/utils/math/Math.sol\":12574:12591  value >= 10 ** 16 */\n      lt\n        /* \"@openzeppelin/contracts/utils/math/Math.sol\":12570:12673  if (value >= 10 ** 16) {... */\n      tag_213\n      jumpi\n        /* \"@openzeppelin/contracts/utils/math/Math.sol\":12620:12628  10 ** 16 */\n      0x2386f26fc10000\n        /* \"@openzeppelin/contracts/utils/math/Math.sol\":12611:12628  value /= 10 ** 16 */\n      dup4\n      dup2\n      tag_214\n      jumpi\n      tag_215\n      tag_194\n      jump\t// in\n    tag_215:\n    tag_214:\n      div\n      swap3\n      pop\n        /* \"@openzeppelin/contracts/utils/math/Math.sol\":12656:12658  16 */\n      0x10\n        /* \"@openzeppelin/contracts/utils/math/Math.sol\":12646:12658  result += 16 */\n      dup2\n      add\n      swap1\n      pop\n        /* \"@openzeppelin/contracts/utils/math/Math.sol\":12570:12673  if (value >= 10 ** 16) {... */\n    tag_213:\n        /* \"@openzeppelin/contracts/utils/math/Math.sol\":12699:12706  10 ** 8 */\n      0x05f5e100\n        /* \"@openzeppelin/contracts/utils/math/Math.sol\":12690:12695  value */\n      dup4\n        /* \"@openzeppelin/contracts/utils/math/Math.sol\":12690:12706  value >= 10 ** 8 */\n      lt\n        /* \"@openzeppelin/contracts/utils/math/Math.sol\":12686:12786  if (value >= 10 ** 8) {... */\n      tag_216\n      jumpi\n        /* \"@openzeppelin/contracts/utils/math/Math.sol\":12735:12742  10 ** 8 */\n      0x05f5e100\n        /* \"@openzeppelin/contracts/utils/math/Math.sol\":12726:12742  value /= 10 ** 8 */\n      dup4\n      dup2\n      tag_217\n      jumpi\n      tag_218\n      tag_194\n      jump\t// in\n    tag_218:\n    tag_217:\n      div\n      swap3\n      pop\n        /* \"@openzeppelin/contracts/utils/math/Math.sol\":12770:12771  8 */\n      0x08\n        /* \"@openzeppelin/contracts/utils/math/Math.sol\":12760:12771  result += 8 */\n      dup2\n      add\n      swap1\n      pop\n        /* \"@openzeppelin/contracts/utils/math/Math.sol\":12686:12786  if (value >= 10 ** 8) {... */\n    tag_216:\n        /* \"@openzeppelin/contracts/utils/math/Math.sol\":12812:12819  10 ** 4 */\n      0x2710\n        /* \"@openzeppelin/contracts/utils/math/Math.sol\":12803:12808  value */\n      dup4\n        /* \"@openzeppelin/contracts/utils/math/Math.sol\":12803:12819  value >= 10 ** 4 */\n      lt\n        /* \"@openzeppelin/contracts/utils/math/Math.sol\":12799:12899  if (value >= 10 ** 4) {... */\n      tag_219\n      jumpi\n        /* \"@openzeppelin/contracts/utils/math/Math.sol\":12848:12855  10 ** 4 */\n      0x2710\n        /* \"@openzeppelin/contracts/utils/math/Math.sol\":12839:12855  value /= 10 ** 4 */\n      dup4\n      dup2\n      tag_220\n      jumpi\n      tag_221\n      tag_194\n      jump\t// in\n    tag_221:\n    tag_220:\n      div\n      swap3\n      pop\n        /* \"@openzeppelin/contracts/utils/math/Math.sol\":12883:12884  4 */\n      0x04\n        /* \"@openzeppelin/contracts/utils/math/Math.sol\":12873:12884  result += 4 */\n      dup2\n      add\n      swap1\n      pop\n        /* \"@openzeppelin/contracts/utils/math/Math.sol\":12799:12899  if (value >= 10 ** 4) {... */\n    tag_219:\n        /* \"@openzeppelin/contracts/utils/math/Math.sol\":12925:12932  10 ** 2 */\n      0x64\n        /* \"@openzeppelin/contracts/utils/math/Math.sol\":12916:12921  value */\n      dup4\n        /* \"@openzeppelin/contracts/utils/math/Math.sol\":12916:12932  value >= 10 ** 2 */\n      lt\n        /* \"@openzeppelin/contracts/utils/math/Math.sol\":12912:13012  if (value >= 10 ** 2) {... */\n      tag_222\n      jumpi\n        /* \"@openzeppelin/contracts/utils/math/Math.sol\":12961:12968  10 ** 2 */\n      0x64\n        /* \"@openzeppelin/contracts/utils/math/Math.sol\":12952:12968  value /= 10 ** 2 */\n      dup4\n      dup2\n      tag_223\n      jumpi\n      tag_224\n      tag_194\n      jump\t// in\n    tag_224:\n    tag_223:\n      div\n      swap3\n      pop\n        /* \"@openzeppelin/contracts/utils/math/Math.sol\":12996:12997  2 */\n      0x02\n        /* \"@openzeppelin/contracts/utils/math/Math.sol\":12986:12997  result += 2 */\n      dup2\n      add\n      swap1\n      pop\n        /* \"@openzeppelin/contracts/utils/math/Math.sol\":12912:13012  if (value >= 10 ** 2) {... */\n    tag_222:\n        /* \"@openzeppelin/contracts/utils/math/Math.sol\":13038:13045  10 ** 1 */\n      0x0a\n        /* \"@openzeppelin/contracts/utils/math/Math.sol\":13029:13034  value */\n      dup4\n        /* \"@openzeppelin/contracts/utils/math/Math.sol\":13029:13045  value >= 10 ** 1 */\n      lt\n        /* \"@openzeppelin/contracts/utils/math/Math.sol\":13025:13091  if (value >= 10 ** 1) {... */\n      tag_225\n      jumpi\n        /* \"@openzeppelin/contracts/utils/math/Math.sol\":13075:13076  1 */\n      0x01\n        /* \"@openzeppelin/contracts/utils/math/Math.sol\":13065:13076  result += 1 */\n      dup2\n      add\n      swap1\n      pop\n        /* \"@openzeppelin/contracts/utils/math/Math.sol\":13025:13091  if (value >= 10 ** 1) {... */\n    tag_225:\n        /* \"@openzeppelin/contracts/utils/math/Math.sol\":13117:13123  result */\n      dup1\n        /* \"@openzeppelin/contracts/utils/math/Math.sol\":13110:13123  return result */\n      swap2\n      pop\n      pop\n        /* \"@openzeppelin/contracts/utils/math/Math.sol\":12214:13130  function log10(uint256 value) internal pure returns (uint256) {... */\n      swap2\n      swap1\n      pop\n      jump\t// out\n        /* \"#utility.yul\":7:82   */\n    tag_226:\n        /* \"#utility.yul\":40:46   */\n      0x00\n        /* \"#utility.yul\":73:75   */\n      0x40\n        /* \"#utility.yul\":67:76   */\n      mload\n        /* \"#utility.yul\":57:76   */\n      swap1\n      pop\n        /* \"#utility.yul\":7:82   */\n      swap1\n      jump\t// out\n        /* \"#utility.yul\":88:205   */\n    tag_227:\n        /* \"#utility.yul\":197:198   */\n      0x00\n        /* \"#utility.yul\":194:195   */\n      dup1\n        /* \"#utility.yul\":187:199   */\n      revert\n        /* \"#utility.yul\":211:328   */\n    tag_228:\n        /* \"#utility.yul\":320:321   */\n      0x00\n        /* \"#utility.yul\":317:318   */\n      dup1\n        /* \"#utility.yul\":310:322   */\n      revert\n        /* \"#utility.yul\":334:483   */\n    tag_229:\n        /* \"#utility.yul\":370:377   */\n      0x00\n        /* \"#utility.yul\":410:476   */\n      0xffffffff00000000000000000000000000000000000000000000000000000000\n        /* \"#utility.yul\":403:408   */\n      dup3\n        /* \"#utility.yul\":399:477   */\n      and\n        /* \"#utility.yul\":388:477   */\n      swap1\n      pop\n        /* \"#utility.yul\":334:483   */\n      swap2\n      swap1\n      pop\n      jump\t// out\n        /* \"#utility.yul\":489:609   */\n    tag_230:\n        /* \"#utility.yul\":561:584   */\n      tag_292\n        /* \"#utility.yul\":578:583   */\n      dup2\n        /* \"#utility.yul\":561:584   */\n      tag_229\n      jump\t// in\n    tag_292:\n        /* \"#utility.yul\":554:559   */\n      dup2\n        /* \"#utility.yul\":551:585   */\n      eq\n        /* \"#utility.yul\":541:603   */\n      tag_293\n      jumpi\n        /* \"#utility.yul\":599:600   */\n      0x00\n        /* \"#utility.yul\":596:597   */\n      dup1\n        /* \"#utility.yul\":589:601   */\n      revert\n        /* \"#utility.yul\":541:603   */\n    tag_293:\n        /* \"#utility.yul\":489:609   */\n      pop\n      jump\t// out\n        /* \"#utility.yul\":615:752   */\n    tag_231:\n        /* \"#utility.yul\":660:665   */\n      0x00\n        /* \"#utility.yul\":698:704   */\n      dup2\n        /* \"#utility.yul\":685:705   */\n      calldataload\n        /* \"#utility.yul\":676:705   */\n      swap1\n      pop\n        /* \"#utility.yul\":714:746   */\n      tag_295\n        /* \"#utility.yul\":740:745   */\n      dup2\n        /* \"#utility.yul\":714:746   */\n      tag_230\n      jump\t// in\n    tag_295:\n        /* \"#utility.yul\":615:752   */\n      swap3\n      swap2\n      pop\n      pop\n      jump\t// out\n        /* \"#utility.yul\":758:1085   */\n    tag_23:\n        /* \"#utility.yul\":816:822   */\n      0x00\n        /* \"#utility.yul\":865:867   */\n      0x20\n        /* \"#utility.yul\":853:862   */\n      dup3\n        /* \"#utility.yul\":844:851   */\n      dup5\n        /* \"#utility.yul\":840:863   */\n      sub\n        /* \"#utility.yul\":836:868   */\n      slt\n        /* \"#utility.yul\":833:952   */\n      iszero\n      tag_297\n      jumpi\n        /* \"#utility.yul\":871:950   */\n      tag_298\n      tag_227\n      jump\t// in\n    tag_298:\n        /* \"#utility.yul\":833:952   */\n    tag_297:\n        /* \"#utility.yul\":991:992   */\n      0x00\n        /* \"#utility.yul\":1016:1068   */\n      tag_299\n        /* \"#utility.yul\":1060:1067   */\n      dup5\n        /* \"#utility.yul\":1051:1057   */\n      dup3\n        /* \"#utility.yul\":1040:1049   */\n      dup6\n        /* \"#utility.yul\":1036:1058   */\n      add\n        /* \"#utility.yul\":1016:1068   */\n      tag_231\n      jump\t// in\n    tag_299:\n        /* \"#utility.yul\":1006:1068   */\n      swap2\n      pop\n        /* \"#utility.yul\":962:1078   */\n      pop\n        /* \"#utility.yul\":758:1085   */\n      swap3\n      swap2\n      pop\n      pop\n      jump\t// out\n        /* \"#utility.yul\":1091:1181   */\n    tag_232:\n        /* \"#utility.yul\":1125:1132   */\n      0x00\n        /* \"#utility.yul\":1168:1173   */\n      dup2\n        /* \"#utility.yul\":1161:1174   */\n      iszero\n        /* \"#utility.yul\":1154:1175   */\n      iszero\n        /* \"#utility.yul\":1143:1175   */\n      swap1\n      pop\n        /* \"#utility.yul\":1091:1181   */\n      swap2\n      swap1\n      pop\n      jump\t// out\n        /* \"#utility.yul\":1187:1296   */\n    tag_233:\n        /* \"#utility.yul\":1268:1289   */\n      tag_302\n        /* \"#utility.yul\":1283:1288   */\n      dup2\n        /* \"#utility.yul\":1268:1289   */\n      tag_232\n      jump\t// in\n    tag_302:\n        /* \"#utility.yul\":1263:1266   */\n      dup3\n        /* \"#utility.yul\":1256:1290   */\n      mstore\n        /* \"#utility.yul\":1187:1296   */\n      pop\n      pop\n      jump\t// out\n        /* \"#utility.yul\":1302:1512   */\n    tag_26:\n        /* \"#utility.yul\":1389:1393   */\n      0x00\n        /* \"#utility.yul\":1427:1429   */\n      0x20\n        /* \"#utility.yul\":1416:1425   */\n      dup3\n        /* \"#utility.yul\":1412:1430   */\n      add\n        /* \"#utility.yul\":1404:1430   */\n      swap1\n      pop\n        /* \"#utility.yul\":1440:1505   */\n      tag_304\n        /* \"#utility.yul\":1502:1503   */\n      0x00\n        /* \"#utility.yul\":1491:1500   */\n      dup4\n        /* \"#utility.yul\":1487:1504   */\n      add\n        /* \"#utility.yul\":1478:1484   */\n      dup5\n        /* \"#utility.yul\":1440:1505   */\n      tag_233\n      jump\t// in\n    tag_304:\n        /* \"#utility.yul\":1302:1512   */\n      swap3\n      swap2\n      pop\n      pop\n      jump\t// out\n        /* \"#utility.yul\":1518:1617   */\n    tag_234:\n        /* \"#utility.yul\":1570:1576   */\n      0x00\n        /* \"#utility.yul\":1604:1609   */\n      dup2\n        /* \"#utility.yul\":1598:1610   */\n      mload\n        /* \"#utility.yul\":1588:1610   */\n      swap1\n      pop\n        /* \"#utility.yul\":1518:1617   */\n      swap2\n      swap1\n      pop\n      jump\t// out\n        /* \"#utility.yul\":1623:1792   */\n    tag_235:\n        /* \"#utility.yul\":1707:1718   */\n      0x00\n        /* \"#utility.yul\":1741:1747   */\n      dup3\n        /* \"#utility.yul\":1736:1739   */\n      dup3\n        /* \"#utility.yul\":1729:1748   */\n      mstore\n        /* \"#utility.yul\":1781:1785   */\n      0x20\n        /* \"#utility.yul\":1776:1779   */\n      dup3\n        /* \"#utility.yul\":1772:1786   */\n      add\n        /* \"#utility.yul\":1757:1786   */\n      swap1\n      pop\n        /* \"#utility.yul\":1623:1792   */\n      swap3\n      swap2\n      pop\n      pop\n      jump\t// out\n        /* \"#utility.yul\":1798:2046   */\n    tag_236:\n        /* \"#utility.yul\":1880:1881   */\n      0x00\n        /* \"#utility.yul\":1890:2003   */\n    tag_308:\n        /* \"#utility.yul\":1904:1910   */\n      dup4\n        /* \"#utility.yul\":1901:1902   */\n      dup2\n        /* \"#utility.yul\":1898:1911   */\n      lt\n        /* \"#utility.yul\":1890:2003   */\n      iszero\n      tag_310\n      jumpi\n        /* \"#utility.yul\":1989:1990   */\n      dup1\n        /* \"#utility.yul\":1984:1987   */\n      dup3\n        /* \"#utility.yul\":1980:1991   */\n      add\n        /* \"#utility.yul\":1974:1992   */\n      mload\n        /* \"#utility.yul\":1970:1971   */\n      dup2\n        /* \"#utility.yul\":1965:1968   */\n      dup5\n        /* \"#utility.yul\":1961:1972   */\n      add\n        /* \"#utility.yul\":1954:1993   */\n      mstore\n        /* \"#utility.yul\":1926:1928   */\n      0x20\n        /* \"#utility.yul\":1923:1924   */\n      dup2\n        /* \"#utility.yul\":1919:1929   */\n      add\n        /* \"#utility.yul\":1914:1929   */\n      swap1\n      pop\n        /* \"#utility.yul\":1890:2003   */\n      jump(tag_308)\n    tag_310:\n        /* \"#utility.yul\":2037:2038   */\n      0x00\n        /* \"#utility.yul\":2028:2034   */\n      dup5\n        /* \"#utility.yul\":2023:2026   */\n      dup5\n        /* \"#utility.yul\":2019:2035   */\n      add\n        /* \"#utility.yul\":2012:2039   */\n      mstore\n        /* \"#utility.yul\":1860:2046   */\n      pop\n        /* \"#utility.yul\":1798:2046   */\n      pop\n      pop\n      pop\n      jump\t// out\n        /* \"#utility.yul\":2052:2154   */\n    tag_237:\n        /* \"#utility.yul\":2093:2099   */\n      0x00\n        /* \"#utility.yul\":2144:2146   */\n      0x1f\n        /* \"#utility.yul\":2140:2147   */\n      not\n        /* \"#utility.yul\":2135:2137   */\n      0x1f\n        /* \"#utility.yul\":2128:2133   */\n      dup4\n        /* \"#utility.yul\":2124:2138   */\n      add\n        /* \"#utility.yul\":2120:2148   */\n      and\n        /* \"#utility.yul\":2110:2148   */\n      swap1\n      pop\n        /* \"#utility.yul\":2052:2154   */\n      swap2\n      swap1\n      pop\n      jump\t// out\n        /* \"#utility.yul\":2160:2537   */\n    tag_238:\n        /* \"#utility.yul\":2248:2251   */\n      0x00\n        /* \"#utility.yul\":2276:2315   */\n      tag_313\n        /* \"#utility.yul\":2309:2314   */\n      dup3\n        /* \"#utility.yul\":2276:2315   */\n      tag_234\n      jump\t// in\n    tag_313:\n        /* \"#utility.yul\":2331:2402   */\n      tag_314\n        /* \"#utility.yul\":2395:2401   */\n      dup2\n        /* \"#utility.yul\":2390:2393   */\n      dup6\n        /* \"#utility.yul\":2331:2402   */\n      tag_235\n      jump\t// in\n    tag_314:\n        /* \"#utility.yul\":2324:2402   */\n      swap4\n      pop\n        /* \"#utility.yul\":2411:2476   */\n      tag_315\n        /* \"#utility.yul\":2469:2475   */\n      dup2\n        /* \"#utility.yul\":2464:2467   */\n      dup6\n        /* \"#utility.yul\":2457:2461   */\n      0x20\n        /* \"#utility.yul\":2450:2455   */\n      dup7\n        /* \"#utility.yul\":2446:2462   */\n      add\n        /* \"#utility.yul\":2411:2476   */\n      tag_236\n      jump\t// in\n    tag_315:\n        /* \"#utility.yul\":2501:2530   */\n      tag_316\n        /* \"#utility.yul\":2523:2529   */\n      dup2\n        /* \"#utility.yul\":2501:2530   */\n      tag_237\n      jump\t// in\n    tag_316:\n        /* \"#utility.yul\":2496:2499   */\n      dup5\n        /* \"#utility.yul\":2492:2531   */\n      add\n        /* \"#utility.yul\":2485:2531   */\n      swap2\n      pop\n        /* \"#utility.yul\":2252:2537   */\n      pop\n        /* \"#utility.yul\":2160:2537   */\n      swap3\n      swap2\n      pop\n      pop\n      jump\t// out\n        /* \"#utility.yul\":2543:2856   */\n    tag_30:\n        /* \"#utility.yul\":2656:2660   */\n      0x00\n        /* \"#utility.yul\":2694:2696   */\n      0x20\n        /* \"#utility.yul\":2683:2692   */\n      dup3\n        /* \"#utility.yul\":2679:2697   */\n      add\n        /* \"#utility.yul\":2671:2697   */\n      swap1\n      pop\n        /* \"#utility.yul\":2743:2752   */\n      dup2\n        /* \"#utility.yul\":2737:2741   */\n      dup2\n        /* \"#utility.yul\":2733:2753   */\n      sub\n        /* \"#utility.yul\":2729:2730   */\n      0x00\n        /* \"#utility.yul\":2718:2727   */\n      dup4\n        /* \"#utility.yul\":2714:2731   */\n      add\n        /* \"#utility.yul\":2707:2754   */\n      mstore\n        /* \"#utility.yul\":2771:2849   */\n      tag_318\n        /* \"#utility.yul\":2844:2848   */\n      dup2\n        /* \"#utility.yul\":2835:2841   */\n      dup5\n        /* \"#utility.yul\":2771:2849   */\n      tag_238\n      jump\t// in\n    tag_318:\n        /* \"#utility.yul\":2763:2849   */\n      swap1\n      pop\n        /* \"#utility.yul\":2543:2856   */\n      swap3\n      swap2\n      pop\n      pop\n      jump\t// out\n        /* \"#utility.yul\":2862:2939   */\n    tag_239:\n        /* \"#utility.yul\":2899:2906   */\n      0x00\n        /* \"#utility.yul\":2928:2933   */\n      dup2\n        /* \"#utility.yul\":2917:2933   */\n      swap1\n      pop\n        /* \"#utility.yul\":2862:2939   */\n      swap2\n      swap1\n      pop\n      jump\t// out\n        /* \"#utility.yul\":2945:3067   */\n    tag_240:\n        /* \"#utility.yul\":3018:3042   */\n      tag_321\n        /* \"#utility.yul\":3036:3041   */\n      dup2\n        /* \"#utility.yul\":3018:3042   */\n      tag_239\n      jump\t// in\n    tag_321:\n        /* \"#utility.yul\":3011:3016   */\n      dup2\n        /* \"#utility.yul\":3008:3043   */\n      eq\n        /* \"#utility.yul\":2998:3061   */\n      tag_322\n      jumpi\n        /* \"#utility.yul\":3057:3058   */\n      0x00\n        /* \"#utility.yul\":3054:3055   */\n      dup1\n        /* \"#utility.yul\":3047:3059   */\n      revert\n        /* \"#utility.yul\":2998:3061   */\n    tag_322:\n        /* \"#utility.yul\":2945:3067   */\n      pop\n      jump\t// out\n        /* \"#utility.yul\":3073:3212   */\n    tag_241:\n        /* \"#utility.yul\":3119:3124   */\n      0x00\n        /* \"#utility.yul\":3157:3163   */\n      dup2\n        /* \"#utility.yul\":3144:3164   */\n      calldataload\n        /* \"#utility.yul\":3135:3164   */\n      swap1\n      pop\n        /* \"#utility.yul\":3173:3206   */\n      tag_324\n        /* \"#utility.yul\":3200:3205   */\n      dup2\n        /* \"#utility.yul\":3173:3206   */\n      tag_240\n      jump\t// in\n    tag_324:\n        /* \"#utility.yul\":3073:3212   */\n      swap3\n      swap2\n      pop\n      pop\n      jump\t// out\n        /* \"#utility.yul\":3218:3547   */\n    tag_33:\n        /* \"#utility.yul\":3277:3283   */\n      0x00\n        /* \"#utility.yul\":3326:3328   */\n      0x20\n        /* \"#utility.yul\":3314:3323   */\n      dup3\n        /* \"#utility.yul\":3305:3312   */\n      dup5\n        /* \"#utility.yul\":3301:3324   */\n      sub\n        /* \"#utility.yul\":3297:3329   */\n      slt\n        /* \"#utility.yul\":3294:3413   */\n      iszero\n      tag_326\n      jumpi\n        /* \"#utility.yul\":3332:3411   */\n      tag_327\n      tag_227\n      jump\t// in\n    tag_327:\n        /* \"#utility.yul\":3294:3413   */\n    tag_326:\n        /* \"#utility.yul\":3452:3453   */\n      0x00\n        /* \"#utility.yul\":3477:3530   */\n      tag_328\n        /* \"#utility.yul\":3522:3529   */\n      dup5\n        /* \"#utility.yul\":3513:3519   */\n      dup3\n        /* \"#utility.yul\":3502:3511   */\n      dup6\n        /* \"#utility.yul\":3498:3520   */\n      add\n        /* \"#utility.yul\":3477:3530   */\n      tag_241\n      jump\t// in\n    tag_328:\n        /* \"#utility.yul\":3467:3530   */\n      swap2\n      pop\n        /* \"#utility.yul\":3423:3540   */\n      pop\n        /* \"#utility.yul\":3218:3547   */\n      swap3\n      swap2\n      pop\n      pop\n      jump\t// out\n        /* \"#utility.yul\":3553:3679   */\n    tag_242:\n        /* \"#utility.yul\":3590:3597   */\n      0x00\n        /* \"#utility.yul\":3630:3672   */\n      0xffffffffffffffffffffffffffffffffffffffff\n        /* \"#utility.yul\":3623:3628   */\n      dup3\n        /* \"#utility.yul\":3619:3673   */\n      and\n        /* \"#utility.yul\":3608:3673   */\n      swap1\n      pop\n        /* \"#utility.yul\":3553:3679   */\n      swap2\n      swap1\n      pop\n      jump\t// out\n        /* \"#utility.yul\":3685:3781   */\n    tag_243:\n        /* \"#utility.yul\":3722:3729   */\n      0x00\n        /* \"#utility.yul\":3751:3775   */\n      tag_331\n        /* \"#utility.yul\":3769:3774   */\n      dup3\n        /* \"#utility.yul\":3751:3775   */\n      tag_242\n      jump\t// in\n    tag_331:\n        /* \"#utility.yul\":3740:3775   */\n      swap1\n      pop\n        /* \"#utility.yul\":3685:3781   */\n      swap2\n      swap1\n      pop\n      jump\t// out\n        /* \"#utility.yul\":3787:3905   */\n    tag_244:\n        /* \"#utility.yul\":3874:3898   */\n      tag_333\n        /* \"#utility.yul\":3892:3897   */\n      dup2\n        /* \"#utility.yul\":3874:3898   */\n      tag_243\n      jump\t// in\n    tag_333:\n        /* \"#utility.yul\":3869:3872   */\n      dup3\n        /* \"#utility.yul\":3862:3899   */\n      mstore\n        /* \"#utility.yul\":3787:3905   */\n      pop\n      pop\n      jump\t// out\n        /* \"#utility.yul\":3911:4133   */\n    tag_36:\n        /* \"#utility.yul\":4004:4008   */\n      0x00\n        /* \"#utility.yul\":4042:4044   */\n      0x20\n        /* \"#utility.yul\":4031:4040   */\n      dup3\n        /* \"#utility.yul\":4027:4045   */\n      add\n        /* \"#utility.yul\":4019:4045   */\n      swap1\n      pop\n        /* \"#utility.yul\":4055:4126   */\n      tag_335\n        /* \"#utility.yul\":4123:4124   */\n      0x00\n        /* \"#utility.yul\":4112:4121   */\n      dup4\n        /* \"#utility.yul\":4108:4125   */\n      add\n        /* \"#utility.yul\":4099:4105   */\n      dup5\n        /* \"#utility.yul\":4055:4126   */\n      tag_244\n      jump\t// in\n    tag_335:\n        /* \"#utility.yul\":3911:4133   */\n      swap3\n      swap2\n      pop\n      pop\n      jump\t// out\n        /* \"#utility.yul\":4139:4261   */\n    tag_245:\n        /* \"#utility.yul\":4212:4236   */\n      tag_337\n        /* \"#utility.yul\":4230:4235   */\n      dup2\n        /* \"#utility.yul\":4212:4236   */\n      tag_243\n      jump\t// in\n    tag_337:\n        /* \"#utility.yul\":4205:4210   */\n      dup2\n        /* \"#utility.yul\":4202:4237   */\n      eq\n        /* \"#utility.yul\":4192:4255   */\n      tag_338\n      jumpi\n        /* \"#utility.yul\":4251:4252   */\n      0x00\n        /* \"#utility.yul\":4248:4249   */\n      dup1\n        /* \"#utility.yul\":4241:4253   */\n      revert\n        /* \"#utility.yul\":4192:4255   */\n    tag_338:\n        /* \"#utility.yul\":4139:4261   */\n      pop\n      jump\t// out\n        /* \"#utility.yul\":4267:4406   */\n    tag_246:\n        /* \"#utility.yul\":4313:4318   */\n      0x00\n        /* \"#utility.yul\":4351:4357   */\n      dup2\n        /* \"#utility.yul\":4338:4358   */\n      calldataload\n        /* \"#utility.yul\":4329:4358   */\n      swap1\n      pop\n        /* \"#utility.yul\":4367:4400   */\n      tag_340\n        /* \"#utility.yul\":4394:4399   */\n      dup2\n        /* \"#utility.yul\":4367:4400   */\n      tag_245\n      jump\t// in\n    tag_340:\n        /* \"#utility.yul\":4267:4406   */\n      swap3\n      swap2\n      pop\n      pop\n      jump\t// out\n        /* \"#utility.yul\":4412:4886   */\n    tag_39:\n        /* \"#utility.yul\":4480:4486   */\n      0x00\n        /* \"#utility.yul\":4488:4494   */\n      dup1\n        /* \"#utility.yul\":4537:4539   */\n      0x40\n        /* \"#utility.yul\":4525:4534   */\n      dup4\n        /* \"#utility.yul\":4516:4523   */\n      dup6\n        /* \"#utility.yul\":4512:4535   */\n      sub\n        /* \"#utility.yul\":4508:4540   */\n      slt\n        /* \"#utility.yul\":4505:4624   */\n      iszero\n      tag_342\n      jumpi\n        /* \"#utility.yul\":4543:4622   */\n      tag_343\n      tag_227\n      jump\t// in\n    tag_343:\n        /* \"#utility.yul\":4505:4624   */\n    tag_342:\n        /* \"#utility.yul\":4663:4664   */\n      0x00\n        /* \"#utility.yul\":4688:4741   */\n      tag_344\n        /* \"#utility.yul\":4733:4740   */\n      dup6\n        /* \"#utility.yul\":4724:4730   */\n      dup3\n        /* \"#utility.yul\":4713:4722   */\n      dup7\n        /* \"#utility.yul\":4709:4731   */\n      add\n        /* \"#utility.yul\":4688:4741   */\n      tag_246\n      jump\t// in\n    tag_344:\n        /* \"#utility.yul\":4678:4741   */\n      swap3\n      pop\n        /* \"#utility.yul\":4634:4751   */\n      pop\n        /* \"#utility.yul\":4790:4792   */\n      0x20\n        /* \"#utility.yul\":4816:4869   */\n      tag_345\n        /* \"#utility.yul\":4861:4868   */\n      dup6\n        /* \"#utility.yul\":4852:4858   */\n      dup3\n        /* \"#utility.yul\":4841:4850   */\n      dup7\n        /* \"#utility.yul\":4837:4859   */\n      add\n        /* \"#utility.yul\":4816:4869   */\n      tag_241\n      jump\t// in\n    tag_345:\n        /* \"#utility.yul\":4806:4869   */\n      swap2\n      pop\n        /* \"#utility.yul\":4761:4879   */\n      pop\n        /* \"#utility.yul\":4412:4886   */\n      swap3\n      pop\n      swap3\n      swap1\n      pop\n      jump\t// out\n        /* \"#utility.yul\":4892:5221   */\n    tag_43:\n        /* \"#utility.yul\":4951:4957   */\n      0x00\n        /* \"#utility.yul\":5000:5002   */\n      0x20\n        /* \"#utility.yul\":4988:4997   */\n      dup3\n        /* \"#utility.yul\":4979:4986   */\n      dup5\n        /* \"#utility.yul\":4975:4998   */\n      sub\n        /* \"#utility.yul\":4971:5003   */\n      slt\n        /* \"#utility.yul\":4968:5087   */\n      iszero\n      tag_347\n      jumpi\n        /* \"#utility.yul\":5006:5085   */\n      tag_348\n      tag_227\n      jump\t// in\n    tag_348:\n        /* \"#utility.yul\":4968:5087   */\n    tag_347:\n        /* \"#utility.yul\":5126:5127   */\n      0x00\n        /* \"#utility.yul\":5151:5204   */\n      tag_349\n        /* \"#utility.yul\":5196:5203   */\n      dup5\n        /* \"#utility.yul\":5187:5193   */\n      dup3\n        /* \"#utility.yul\":5176:5185   */\n      dup6\n        /* \"#utility.yul\":5172:5194   */\n      add\n        /* \"#utility.yul\":5151:5204   */\n      tag_246\n      jump\t// in\n    tag_349:\n        /* \"#utility.yul\":5141:5204   */\n      swap2\n      pop\n        /* \"#utility.yul\":5097:5214   */\n      pop\n        /* \"#utility.yul\":4892:5221   */\n      swap3\n      swap2\n      pop\n      pop\n      jump\t// out\n        /* \"#utility.yul\":5227:5846   */\n    tag_48:\n        /* \"#utility.yul\":5304:5310   */\n      0x00\n        /* \"#utility.yul\":5312:5318   */\n      dup1\n        /* \"#utility.yul\":5320:5326   */\n      0x00\n        /* \"#utility.yul\":5369:5371   */\n      0x60\n        /* \"#utility.yul\":5357:5366   */\n      dup5\n        /* \"#utility.yul\":5348:5355   */\n      dup7\n        /* \"#utility.yul\":5344:5367   */\n      sub\n        /* \"#utility.yul\":5340:5372   */\n      slt\n        /* \"#utility.yul\":5337:5456   */\n      iszero\n      tag_351\n      jumpi\n        /* \"#utility.yul\":5375:5454   */\n      tag_352\n      tag_227\n      jump\t// in\n    tag_352:\n        /* \"#utility.yul\":5337:5456   */\n    tag_351:\n        /* \"#utility.yul\":5495:5496   */\n      0x00\n        /* \"#utility.yul\":5520:5573   */\n      tag_353\n        /* \"#utility.yul\":5565:5572   */\n      dup7\n        /* \"#utility.yul\":5556:5562   */\n      dup3\n        /* \"#utility.yul\":5545:5554   */\n      dup8\n        /* \"#utility.yul\":5541:5563   */\n      add\n        /* \"#utility.yul\":5520:5573   */\n      tag_246\n      jump\t// in\n    tag_353:\n        /* \"#utility.yul\":5510:5573   */\n      swap4\n      pop\n        /* \"#utility.yul\":5466:5583   */\n      pop\n        /* \"#utility.yul\":5622:5624   */\n      0x20\n        /* \"#utility.yul\":5648:5701   */\n      tag_354\n        /* \"#utility.yul\":5693:5700   */\n      dup7\n        /* \"#utility.yul\":5684:5690   */\n      dup3\n        /* \"#utility.yul\":5673:5682   */\n      dup8\n        /* \"#utility.yul\":5669:5691   */\n      add\n        /* \"#utility.yul\":5648:5701   */\n      tag_246\n      jump\t// in\n    tag_354:\n        /* \"#utility.yul\":5638:5701   */\n      swap3\n      pop\n        /* \"#utility.yul\":5593:5711   */\n      pop\n        /* \"#utility.yul\":5750:5752   */\n      0x40\n        /* \"#utility.yul\":5776:5829   */\n      tag_355\n        /* \"#utility.yul\":5821:5828   */\n      dup7\n        /* \"#utility.yul\":5812:5818   */\n      dup3\n        /* \"#utility.yul\":5801:5810   */\n      dup8\n        /* \"#utility.yul\":5797:5819   */\n      add\n        /* \"#utility.yul\":5776:5829   */\n      tag_241\n      jump\t// in\n    tag_355:\n        /* \"#utility.yul\":5766:5829   */\n      swap2\n      pop\n        /* \"#utility.yul\":5721:5839   */\n      pop\n        /* \"#utility.yul\":5227:5846   */\n      swap3\n      pop\n      swap3\n      pop\n      swap3\n      jump\t// out\n        /* \"#utility.yul\":5852:5970   */\n    tag_247:\n        /* \"#utility.yul\":5939:5963   */\n      tag_357\n        /* \"#utility.yul\":5957:5962   */\n      dup2\n        /* \"#utility.yul\":5939:5963   */\n      tag_239\n      jump\t// in\n    tag_357:\n        /* \"#utility.yul\":5934:5937   */\n      dup3\n        /* \"#utility.yul\":5927:5964   */\n      mstore\n        /* \"#utility.yul\":5852:5970   */\n      pop\n      pop\n      jump\t// out\n        /* \"#utility.yul\":5976:6198   */\n    tag_64:\n        /* \"#utility.yul\":6069:6073   */\n      0x00\n        /* \"#utility.yul\":6107:6109   */\n      0x20\n        /* \"#utility.yul\":6096:6105   */\n      dup3\n        /* \"#utility.yul\":6092:6110   */\n      add\n        /* \"#utility.yul\":6084:6110   */\n      swap1\n      pop\n        /* \"#utility.yul\":6120:6191   */\n      tag_359\n        /* \"#utility.yul\":6188:6189   */\n      0x00\n        /* \"#utility.yul\":6177:6186   */\n      dup4\n        /* \"#utility.yul\":6173:6190   */\n      add\n        /* \"#utility.yul\":6164:6170   */\n      dup5\n        /* \"#utility.yul\":6120:6191   */\n      tag_247\n      jump\t// in\n    tag_359:\n        /* \"#utility.yul\":5976:6198   */\n      swap3\n      swap2\n      pop\n      pop\n      jump\t// out\n        /* \"#utility.yul\":6204:6320   */\n    tag_248:\n        /* \"#utility.yul\":6274:6295   */\n      tag_361\n        /* \"#utility.yul\":6289:6294   */\n      dup2\n        /* \"#utility.yul\":6274:6295   */\n      tag_232\n      jump\t// in\n    tag_361:\n        /* \"#utility.yul\":6267:6272   */\n      dup2\n        /* \"#utility.yul\":6264:6296   */\n      eq\n        /* \"#utility.yul\":6254:6314   */\n      tag_362\n      jumpi\n        /* \"#utility.yul\":6310:6311   */\n      0x00\n        /* \"#utility.yul\":6307:6308   */\n      dup1\n        /* \"#utility.yul\":6300:6312   */\n      revert\n        /* \"#utility.yul\":6254:6314   */\n    tag_362:\n        /* \"#utility.yul\":6204:6320   */\n      pop\n      jump\t// out\n        /* \"#utility.yul\":6326:6459   */\n    tag_249:\n        /* \"#utility.yul\":6369:6374   */\n      0x00\n        /* \"#utility.yul\":6407:6413   */\n      dup2\n        /* \"#utility.yul\":6394:6414   */\n      calldataload\n        /* \"#utility.yul\":6385:6414   */\n      swap1\n      pop\n        /* \"#utility.yul\":6423:6453   */\n      tag_364\n        /* \"#utility.yul\":6447:6452   */\n      dup2\n        /* \"#utility.yul\":6423:6453   */\n      tag_248\n      jump\t// in\n    tag_364:\n        /* \"#utility.yul\":6326:6459   */\n      swap3\n      swap2\n      pop\n      pop\n      jump\t// out\n        /* \"#utility.yul\":6465:6933   */\n    tag_70:\n        /* \"#utility.yul\":6530:6536   */\n      0x00\n        /* \"#utility.yul\":6538:6544   */\n      dup1\n        /* \"#utility.yul\":6587:6589   */\n      0x40\n        /* \"#utility.yul\":6575:6584   */\n      dup4\n        /* \"#utility.yul\":6566:6573   */\n      dup6\n        /* \"#utility.yul\":6562:6585   */\n      sub\n        /* \"#utility.yul\":6558:6590   */\n      slt\n        /* \"#utility.yul\":6555:6674   */\n      iszero\n      tag_366\n      jumpi\n        /* \"#utility.yul\":6593:6672   */\n      tag_367\n      tag_227\n      jump\t// in\n    tag_367:\n        /* \"#utility.yul\":6555:6674   */\n    tag_366:\n        /* \"#utility.yul\":6713:6714   */\n      0x00\n        /* \"#utility.yul\":6738:6791   */\n      tag_368\n        /* \"#utility.yul\":6783:6790   */\n      dup6\n        /* \"#utility.yul\":6774:6780   */\n      dup3\n        /* \"#utility.yul\":6763:6772   */\n      dup7\n        /* \"#utility.yul\":6759:6781   */\n      add\n        /* \"#utility.yul\":6738:6791   */\n      tag_246\n      jump\t// in\n    tag_368:\n        /* \"#utility.yul\":6728:6791   */\n      swap3\n      pop\n        /* \"#utility.yul\":6684:6801   */\n      pop\n        /* \"#utility.yul\":6840:6842   */\n      0x20\n        /* \"#utility.yul\":6866:6916   */\n      tag_369\n        /* \"#utility.yul\":6908:6915   */\n      dup6\n        /* \"#utility.yul\":6899:6905   */\n      dup3\n        /* \"#utility.yul\":6888:6897   */\n      dup7\n        /* \"#utility.yul\":6884:6906   */\n      add\n        /* \"#utility.yul\":6866:6916   */\n      tag_249\n      jump\t// in\n    tag_369:\n        /* \"#utility.yul\":6856:6916   */\n      swap2\n      pop\n        /* \"#utility.yul\":6811:6926   */\n      pop\n        /* \"#utility.yul\":6465:6933   */\n      swap3\n      pop\n      swap3\n      swap1\n      pop\n      jump\t// out\n        /* \"#utility.yul\":6939:7056   */\n    tag_250:\n        /* \"#utility.yul\":7048:7049   */\n      0x00\n        /* \"#utility.yul\":7045:7046   */\n      dup1\n        /* \"#utility.yul\":7038:7050   */\n      revert\n        /* \"#utility.yul\":7062:7179   */\n    tag_251:\n        /* \"#utility.yul\":7171:7172   */\n      0x00\n        /* \"#utility.yul\":7168:7169   */\n      dup1\n        /* \"#utility.yul\":7161:7173   */\n      revert\n        /* \"#utility.yul\":7185:7365   */\n    tag_188:\n        /* \"#utility.yul\":7233:7310   */\n      0x4e487b7100000000000000000000000000000000000000000000000000000000\n        /* \"#utility.yul\":7230:7231   */\n      0x00\n        /* \"#utility.yul\":7223:7311   */\n      mstore\n        /* \"#utility.yul\":7330:7334   */\n      0x41\n        /* \"#utility.yul\":7327:7328   */\n      0x04\n        /* \"#utility.yul\":7320:7335   */\n      mstore\n        /* \"#utility.yul\":7354:7358   */\n      0x24\n        /* \"#utility.yul\":7351:7352   */\n      0x00\n        /* \"#utility.yul\":7344:7359   */\n      revert\n        /* \"#utility.yul\":7371:7652   */\n    tag_252:\n        /* \"#utility.yul\":7454:7481   */\n      tag_374\n        /* \"#utility.yul\":7476:7480   */\n      dup3\n        /* \"#utility.yul\":7454:7481   */\n      tag_237\n      jump\t// in\n    tag_374:\n        /* \"#utility.yul\":7446:7452   */\n      dup2\n        /* \"#utility.yul\":7442:7482   */\n      add\n        /* \"#utility.yul\":7584:7590   */\n      dup2\n        /* \"#utility.yul\":7572:7582   */\n      dup2\n        /* \"#utility.yul\":7569:7591   */\n      lt\n        /* \"#utility.yul\":7548:7566   */\n      0xffffffffffffffff\n        /* \"#utility.yul\":7536:7546   */\n      dup3\n        /* \"#utility.yul\":7533:7567   */\n      gt\n        /* \"#utility.yul\":7530:7592   */\n      or\n        /* \"#utility.yul\":7527:7615   */\n      iszero\n      tag_375\n      jumpi\n        /* \"#utility.yul\":7595:7613   */\n      tag_376\n      tag_188\n      jump\t// in\n    tag_376:\n        /* \"#utility.yul\":7527:7615   */\n    tag_375:\n        /* \"#utility.yul\":7635:7645   */\n      dup1\n        /* \"#utility.yul\":7631:7633   */\n      0x40\n        /* \"#utility.yul\":7624:7646   */\n      mstore\n        /* \"#utility.yul\":7414:7652   */\n      pop\n        /* \"#utility.yul\":7371:7652   */\n      pop\n      pop\n      jump\t// out\n        /* \"#utility.yul\":7658:7787   */\n    tag_253:\n        /* \"#utility.yul\":7692:7698   */\n      0x00\n        /* \"#utility.yul\":7719:7739   */\n      tag_378\n      tag_226\n      jump\t// in\n    tag_378:\n        /* \"#utility.yul\":7709:7739   */\n      swap1\n      pop\n        /* \"#utility.yul\":7748:7781   */\n      tag_379\n        /* \"#utility.yul\":7776:7780   */\n      dup3\n        /* \"#utility.yul\":7768:7774   */\n      dup3\n        /* \"#utility.yul\":7748:7781   */\n      tag_252\n      jump\t// in\n    tag_379:\n        /* \"#utility.yul\":7658:7787   */\n      swap2\n      swap1\n      pop\n      jump\t// out\n        /* \"#utility.yul\":7793:8100   */\n    tag_254:\n        /* \"#utility.yul\":7854:7858   */\n      0x00\n        /* \"#utility.yul\":7944:7962   */\n      0xffffffffffffffff\n        /* \"#utility.yul\":7936:7942   */\n      dup3\n        /* \"#utility.yul\":7933:7963   */\n      gt\n        /* \"#utility.yul\":7930:7986   */\n      iszero\n      tag_381\n      jumpi\n        /* \"#utility.yul\":7966:7984   */\n      tag_382\n      tag_188\n      jump\t// in\n    tag_382:\n        /* \"#utility.yul\":7930:7986   */\n    tag_381:\n        /* \"#utility.yul\":8004:8033   */\n      tag_383\n        /* \"#utility.yul\":8026:8032   */\n      dup3\n        /* \"#utility.yul\":8004:8033   */\n      tag_237\n      jump\t// in\n    tag_383:\n        /* \"#utility.yul\":7996:8033   */\n      swap1\n      pop\n        /* \"#utility.yul\":8088:8092   */\n      0x20\n        /* \"#utility.yul\":8082:8086   */\n      dup2\n        /* \"#utility.yul\":8078:8093   */\n      add\n        /* \"#utility.yul\":8070:8093   */\n      swap1\n      pop\n        /* \"#utility.yul\":7793:8100   */\n      swap2\n      swap1\n      pop\n      jump\t// out\n        /* \"#utility.yul\":8106:8254   */\n    tag_255:\n        /* \"#utility.yul\":8204:8210   */\n      dup3\n        /* \"#utility.yul\":8199:8202   */\n      dup2\n        /* \"#utility.yul\":8194:8197   */\n      dup4\n        /* \"#utility.yul\":8181:8211   */\n      calldatacopy\n        /* \"#utility.yul\":8245:8246   */\n      0x00\n        /* \"#utility.yul\":8236:8242   */\n      dup4\n        /* \"#utility.yul\":8231:8234   */\n      dup4\n        /* \"#utility.yul\":8227:8243   */\n      add\n        /* \"#utility.yul\":8220:8247   */\n      mstore\n        /* \"#utility.yul\":8106:8254   */\n      pop\n      pop\n      pop\n      jump\t// out\n        /* \"#utility.yul\":8260:8683   */\n    tag_256:\n        /* \"#utility.yul\":8337:8342   */\n      0x00\n        /* \"#utility.yul\":8362:8427   */\n      tag_386\n        /* \"#utility.yul\":8378:8426   */\n      tag_387\n        /* \"#utility.yul\":8419:8425   */\n      dup5\n        /* \"#utility.yul\":8378:8426   */\n      tag_254\n      jump\t// in\n    tag_387:\n        /* \"#utility.yul\":8362:8427   */\n      tag_253\n      jump\t// in\n    tag_386:\n        /* \"#utility.yul\":8353:8427   */\n      swap1\n      pop\n        /* \"#utility.yul\":8450:8456   */\n      dup3\n        /* \"#utility.yul\":8443:8448   */\n      dup2\n        /* \"#utility.yul\":8436:8457   */\n      mstore\n        /* \"#utility.yul\":8488:8492   */\n      0x20\n        /* \"#utility.yul\":8481:8486   */\n      dup2\n        /* \"#utility.yul\":8477:8493   */\n      add\n        /* \"#utility.yul\":8526:8529   */\n      dup5\n        /* \"#utility.yul\":8517:8523   */\n      dup5\n        /* \"#utility.yul\":8512:8515   */\n      dup5\n        /* \"#utility.yul\":8508:8524   */\n      add\n        /* \"#utility.yul\":8505:8530   */\n      gt\n        /* \"#utility.yul\":8502:8614   */\n      iszero\n      tag_388\n      jumpi\n        /* \"#utility.yul\":8533:8612   */\n      tag_389\n      tag_251\n      jump\t// in\n    tag_389:\n        /* \"#utility.yul\":8502:8614   */\n    tag_388:\n        /* \"#utility.yul\":8623:8677   */\n      tag_390\n        /* \"#utility.yul\":8670:8676   */\n      dup5\n        /* \"#utility.yul\":8665:8668   */\n      dup3\n        /* \"#utility.yul\":8660:8663   */\n      dup6\n        /* \"#utility.yul\":8623:8677   */\n      tag_255\n      jump\t// in\n    tag_390:\n        /* \"#utility.yul\":8343:8683   */\n      pop\n        /* \"#utility.yul\":8260:8683   */\n      swap4\n      swap3\n      pop\n      pop\n      pop\n      jump\t// out\n        /* \"#utility.yul\":8702:9040   */\n    tag_257:\n        /* \"#utility.yul\":8757:8762   */\n      0x00\n        /* \"#utility.yul\":8806:8809   */\n      dup3\n        /* \"#utility.yul\":8799:8803   */\n      0x1f\n        /* \"#utility.yul\":8791:8797   */\n      dup4\n        /* \"#utility.yul\":8787:8804   */\n      add\n        /* \"#utility.yul\":8783:8810   */\n      slt\n        /* \"#utility.yul\":8773:8895   */\n      tag_392\n      jumpi\n        /* \"#utility.yul\":8814:8893   */\n      tag_393\n      tag_250\n      jump\t// in\n    tag_393:\n        /* \"#utility.yul\":8773:8895   */\n    tag_392:\n        /* \"#utility.yul\":8931:8937   */\n      dup2\n        /* \"#utility.yul\":8918:8938   */\n      calldataload\n        /* \"#utility.yul\":8956:9034   */\n      tag_394\n        /* \"#utility.yul\":9030:9033   */\n      dup5\n        /* \"#utility.yul\":9022:9028   */\n      dup3\n        /* \"#utility.yul\":9015:9019   */\n      0x20\n        /* \"#utility.yul\":9007:9013   */\n      dup7\n        /* \"#utility.yul\":9003:9020   */\n      add\n        /* \"#utility.yul\":8956:9034   */\n      tag_256\n      jump\t// in\n    tag_394:\n        /* \"#utility.yul\":8947:9034   */\n      swap2\n      pop\n        /* \"#utility.yul\":8763:9040   */\n      pop\n        /* \"#utility.yul\":8702:9040   */\n      swap3\n      swap2\n      pop\n      pop\n      jump\t// out\n        /* \"#utility.yul\":9046:9989   */\n    tag_74:\n        /* \"#utility.yul\":9141:9147   */\n      0x00\n        /* \"#utility.yul\":9149:9155   */\n      dup1\n        /* \"#utility.yul\":9157:9163   */\n      0x00\n        /* \"#utility.yul\":9165:9171   */\n      dup1\n        /* \"#utility.yul\":9214:9217   */\n      0x80\n        /* \"#utility.yul\":9202:9211   */\n      dup6\n        /* \"#utility.yul\":9193:9200   */\n      dup8\n        /* \"#utility.yul\":9189:9212   */\n      sub\n        /* \"#utility.yul\":9185:9218   */\n      slt\n        /* \"#utility.yul\":9182:9302   */\n      iszero\n      tag_396\n      jumpi\n        /* \"#utility.yul\":9221:9300   */\n      tag_397\n      tag_227\n      jump\t// in\n    tag_397:\n        /* \"#utility.yul\":9182:9302   */\n    tag_396:\n        /* \"#utility.yul\":9341:9342   */\n      0x00\n        /* \"#utility.yul\":9366:9419   */\n      tag_398\n        /* \"#utility.yul\":9411:9418   */\n      dup8\n        /* \"#utility.yul\":9402:9408   */\n      dup3\n        /* \"#utility.yul\":9391:9400   */\n      dup9\n        /* \"#utility.yul\":9387:9409   */\n      add\n        /* \"#utility.yul\":9366:9419   */\n      tag_246\n      jump\t// in\n    tag_398:\n        /* \"#utility.yul\":9356:9419   */\n      swap5\n      pop\n        /* \"#utility.yul\":9312:9429   */\n      pop\n        /* \"#utility.yul\":9468:9470   */\n      0x20\n        /* \"#utility.yul\":9494:9547   */\n      tag_399\n        /* \"#utility.yul\":9539:9546   */\n      dup8\n        /* \"#utility.yul\":9530:9536   */\n      dup3\n        /* \"#utility.yul\":9519:9528   */\n      dup9\n        /* \"#utility.yul\":9515:9537   */\n      add\n        /* \"#utility.yul\":9494:9547   */\n      tag_246\n      jump\t// in\n    tag_399:\n        /* \"#utility.yul\":9484:9547   */\n      swap4\n      pop\n        /* \"#utility.yul\":9439:9557   */\n      pop\n        /* \"#utility.yul\":9596:9598   */\n      0x40\n        /* \"#utility.yul\":9622:9675   */\n      tag_400\n        /* \"#utility.yul\":9667:9674   */\n      dup8\n        /* \"#utility.yul\":9658:9664   */\n      dup3\n        /* \"#utility.yul\":9647:9656   */\n      dup9\n        /* \"#utility.yul\":9643:9665   */\n      add\n        /* \"#utility.yul\":9622:9675   */\n      tag_241\n      jump\t// in\n    tag_400:\n        /* \"#utility.yul\":9612:9675   */\n      swap3\n      pop\n        /* \"#utility.yul\":9567:9685   */\n      pop\n        /* \"#utility.yul\":9752:9754   */\n      0x60\n        /* \"#utility.yul\":9741:9750   */\n      dup6\n        /* \"#utility.yul\":9737:9755   */\n      add\n        /* \"#utility.yul\":9724:9756   */\n      calldataload\n        /* \"#utility.yul\":9783:9801   */\n      0xffffffffffffffff\n        /* \"#utility.yul\":9775:9781   */\n      dup2\n        /* \"#utility.yul\":9772:9802   */\n      gt\n        /* \"#utility.yul\":9769:9886   */\n      iszero\n      tag_401\n      jumpi\n        /* \"#utility.yul\":9805:9884   */\n      tag_402\n      tag_228\n      jump\t// in\n    tag_402:\n        /* \"#utility.yul\":9769:9886   */\n    tag_401:\n        /* \"#utility.yul\":9910:9972   */\n      tag_403\n        /* \"#utility.yul\":9964:9971   */\n      dup8\n        /* \"#utility.yul\":9955:9961   */\n      dup3\n        /* \"#utility.yul\":9944:9953   */\n      dup9\n        /* \"#utility.yul\":9940:9962   */\n      add\n        /* \"#utility.yul\":9910:9972   */\n      tag_257\n      jump\t// in\n    tag_403:\n        /* \"#utility.yul\":9900:9972   */\n      swap2\n      pop\n        /* \"#utility.yul\":9695:9982   */\n      pop\n        /* \"#utility.yul\":9046:9989   */\n      swap3\n      swap6\n      swap2\n      swap5\n      pop\n      swap3\n      pop\n      jump\t// out\n        /* \"#utility.yul\":9995:10469   */\n    tag_82:\n        /* \"#utility.yul\":10063:10069   */\n      0x00\n        /* \"#utility.yul\":10071:10077   */\n      dup1\n        /* \"#utility.yul\":10120:10122   */\n      0x40\n        /* \"#utility.yul\":10108:10117   */\n      dup4\n        /* \"#utility.yul\":10099:10106   */\n      dup6\n        /* \"#utility.yul\":10095:10118   */\n      sub\n        /* \"#utility.yul\":10091:10123   */\n      slt\n        /* \"#utility.yul\":10088:10207   */\n      iszero\n      tag_405\n      jumpi\n        /* \"#utility.yul\":10126:10205   */\n      tag_406\n      tag_227\n      jump\t// in\n    tag_406:\n        /* \"#utility.yul\":10088:10207   */\n    tag_405:\n        /* \"#utility.yul\":10246:10247   */\n      0x00\n        /* \"#utility.yul\":10271:10324   */\n      tag_407\n        /* \"#utility.yul\":10316:10323   */\n      dup6\n        /* \"#utility.yul\":10307:10313   */\n      dup3\n        /* \"#utility.yul\":10296:10305   */\n      dup7\n        /* \"#utility.yul\":10292:10314   */\n      add\n        /* \"#utility.yul\":10271:10324   */\n      tag_246\n      jump\t// in\n    tag_407:\n        /* \"#utility.yul\":10261:10324   */\n      swap3\n      pop\n        /* \"#utility.yul\":10217:10334   */\n      pop\n        /* \"#utility.yul\":10373:10375   */\n      0x20\n        /* \"#utility.yul\":10399:10452   */\n      tag_408\n        /* \"#utility.yul\":10444:10451   */\n      dup6\n        /* \"#utility.yul\":10435:10441   */\n      dup3\n        /* \"#utility.yul\":10424:10433   */\n      dup7\n        /* \"#utility.yul\":10420:10442   */\n      add\n        /* \"#utility.yul\":10399:10452   */\n      tag_246\n      jump\t// in\n    tag_408:\n        /* \"#utility.yul\":10389:10452   */\n      swap2\n      pop\n        /* \"#utility.yul\":10344:10462   */\n      pop\n        /* \"#utility.yul\":9995:10469   */\n      swap3\n      pop\n      swap3\n      swap1\n      pop\n      jump\t// out\n        /* \"#utility.yul\":10475:10655   */\n    tag_258:\n        /* \"#utility.yul\":10523:10600   */\n      0x4e487b7100000000000000000000000000000000000000000000000000000000\n        /* \"#utility.yul\":10520:10521   */\n      0x00\n        /* \"#utility.yul\":10513:10601   */\n      mstore\n        /* \"#utility.yul\":10620:10624   */\n      0x22\n        /* \"#utility.yul\":10617:10618   */\n      0x04\n        /* \"#utility.yul\":10610:10625   */\n      mstore\n        /* \"#utility.yul\":10644:10648   */\n      0x24\n        /* \"#utility.yul\":10641:10642   */\n      0x00\n        /* \"#utility.yul\":10634:10649   */\n      revert\n        /* \"#utility.yul\":10661:10981   */\n    tag_89:\n        /* \"#utility.yul\":10705:10711   */\n      0x00\n        /* \"#utility.yul\":10742:10743   */\n      0x02\n        /* \"#utility.yul\":10736:10740   */\n      dup3\n        /* \"#utility.yul\":10732:10744   */\n      div\n        /* \"#utility.yul\":10722:10744   */\n      swap1\n      pop\n        /* \"#utility.yul\":10789:10790   */\n      0x01\n        /* \"#utility.yul\":10783:10787   */\n      dup3\n        /* \"#utility.yul\":10779:10791   */\n      and\n        /* \"#utility.yul\":10810:10828   */\n      dup1\n        /* \"#utility.yul\":10800:10881   */\n      tag_411\n      jumpi\n        /* \"#utility.yul\":10866:10870   */\n      0x7f\n        /* \"#utility.yul\":10858:10864   */\n      dup3\n        /* \"#utility.yul\":10854:10871   */\n      and\n        /* \"#utility.yul\":10844:10871   */\n      swap2\n      pop\n        /* \"#utility.yul\":10800:10881   */\n    tag_411:\n        /* \"#utility.yul\":10928:10930   */\n      0x20\n        /* \"#utility.yul\":10920:10926   */\n      dup3\n        /* \"#utility.yul\":10917:10931   */\n      lt\n        /* \"#utility.yul\":10897:10915   */\n      dup2\n        /* \"#utility.yul\":10894:10932   */\n      sub\n        /* \"#utility.yul\":10891:10975   */\n      tag_412\n      jumpi\n        /* \"#utility.yul\":10947:10965   */\n      tag_413\n      tag_258\n      jump\t// in\n    tag_413:\n        /* \"#utility.yul\":10891:10975   */\n    tag_412:\n        /* \"#utility.yul\":10712:10981   */\n      pop\n        /* \"#utility.yul\":10661:10981   */\n      swap2\n      swap1\n      pop\n      jump\t// out\n        /* \"#utility.yul\":10987:11156   */\n    tag_259:\n        /* \"#utility.yul\":11127:11148   */\n      0x746f6b656e20646f65736e277420657869737400000000000000000000000000\n        /* \"#utility.yul\":11123:11124   */\n      0x00\n        /* \"#utility.yul\":11115:11121   */\n      dup3\n        /* \"#utility.yul\":11111:11125   */\n      add\n        /* \"#utility.yul\":11104:11149   */\n      mstore\n        /* \"#utility.yul\":10987:11156   */\n      pop\n      jump\t// out\n        /* \"#utility.yul\":11162:11528   */\n    tag_260:\n        /* \"#utility.yul\":11304:11307   */\n      0x00\n        /* \"#utility.yul\":11325:11392   */\n      tag_416\n        /* \"#utility.yul\":11389:11391   */\n      0x13\n        /* \"#utility.yul\":11384:11387   */\n      dup4\n        /* \"#utility.yul\":11325:11392   */\n      tag_235\n      jump\t// in\n    tag_416:\n        /* \"#utility.yul\":11318:11392   */\n      swap2\n      pop\n        /* \"#utility.yul\":11401:11494   */\n      tag_417\n        /* \"#utility.yul\":11490:11493   */\n      dup3\n        /* \"#utility.yul\":11401:11494   */\n      tag_259\n      jump\t// in\n    tag_417:\n        /* \"#utility.yul\":11519:11521   */\n      0x20\n        /* \"#utility.yul\":11514:11517   */\n      dup3\n        /* \"#utility.yul\":11510:11522   */\n      add\n        /* \"#utility.yul\":11503:11522   */\n      swap1\n      pop\n        /* \"#utility.yul\":11162:11528   */\n      swap2\n      swap1\n      pop\n      jump\t// out\n        /* \"#utility.yul\":11534:11953   */\n    tag_97:\n        /* \"#utility.yul\":11700:11704   */\n      0x00\n        /* \"#utility.yul\":11738:11740   */\n      0x20\n        /* \"#utility.yul\":11727:11736   */\n      dup3\n        /* \"#utility.yul\":11723:11741   */\n      add\n        /* \"#utility.yul\":11715:11741   */\n      swap1\n      pop\n        /* \"#utility.yul\":11787:11796   */\n      dup2\n        /* \"#utility.yul\":11781:11785   */\n      dup2\n        /* \"#utility.yul\":11777:11797   */\n      sub\n        /* \"#utility.yul\":11773:11774   */\n      0x00\n        /* \"#utility.yul\":11762:11771   */\n      dup4\n        /* \"#utility.yul\":11758:11775   */\n      add\n        /* \"#utility.yul\":11751:11798   */\n      mstore\n        /* \"#utility.yul\":11815:11946   */\n      tag_419\n        /* \"#utility.yul\":11941:11945   */\n      dup2\n        /* \"#utility.yul\":11815:11946   */\n      tag_260\n      jump\t// in\n    tag_419:\n        /* \"#utility.yul\":11807:11946   */\n      swap1\n      pop\n        /* \"#utility.yul\":11534:11953   */\n      swap2\n      swap1\n      pop\n      jump\t// out\n        /* \"#utility.yul\":11959:12139   */\n    tag_261:\n        /* \"#utility.yul\":12099:12131   */\n      0x6e6f74206f776e6572206e6f7220617070726f76656420666f7220616c6c0000\n        /* \"#utility.yul\":12095:12096   */\n      0x00\n        /* \"#utility.yul\":12087:12093   */\n      dup3\n        /* \"#utility.yul\":12083:12097   */\n      add\n        /* \"#utility.yul\":12076:12132   */\n      mstore\n        /* \"#utility.yul\":11959:12139   */\n      pop\n      jump\t// out\n        /* \"#utility.yul\":12145:12511   */\n    tag_262:\n        /* \"#utility.yul\":12287:12290   */\n      0x00\n        /* \"#utility.yul\":12308:12375   */\n      tag_422\n        /* \"#utility.yul\":12372:12374   */\n      0x1e\n        /* \"#utility.yul\":12367:12370   */\n      dup4\n        /* \"#utility.yul\":12308:12375   */\n      tag_235\n      jump\t// in\n    tag_422:\n        /* \"#utility.yul\":12301:12375   */\n      swap2\n      pop\n        /* \"#utility.yul\":12384:12477   */\n      tag_423\n        /* \"#utility.yul\":12473:12476   */\n      dup3\n        /* \"#utility.yul\":12384:12477   */\n      tag_261\n      jump\t// in\n    tag_423:\n        /* \"#utility.yul\":12502:12504   */\n      0x20\n        /* \"#utility.yul\":12497:12500   */\n      dup3\n        /* \"#utility.yul\":12493:12505   */\n      add\n        /* \"#utility.yul\":12486:12505   */\n      swap1\n      pop\n        /* \"#utility.yul\":12145:12511   */\n      swap2\n      swap1\n      pop\n      jump\t// out\n        /* \"#utility.yul\":12517:12936   */\n    tag_102:\n        /* \"#utility.yul\":12683:12687   */\n      0x00\n        /* \"#utility.yul\":12721:12723   */\n      0x20\n        /* \"#utility.yul\":12710:12719   */\n      dup3\n        /* \"#utility.yul\":12706:12724   */\n      add\n        /* \"#utility.yul\":12698:12724   */\n      swap1\n      pop\n        /* \"#utility.yul\":12770:12779   */\n      dup2\n        /* \"#utility.yul\":12764:12768   */\n      dup2\n        /* \"#utility.yul\":12760:12780   */\n      sub\n        /* \"#utility.yul\":12756:12757   */\n      0x00\n        /* \"#utility.yul\":12745:12754   */\n      dup4\n        /* \"#utility.yul\":12741:12758   */\n      add\n        /* \"#utility.yul\":12734:12781   */\n      mstore\n        /* \"#utility.yul\":12798:12929   */\n      tag_425\n        /* \"#utility.yul\":12924:12928   */\n      dup2\n        /* \"#utility.yul\":12798:12929   */\n      tag_262\n      jump\t// in\n    tag_425:\n        /* \"#utility.yul\":12790:12929   */\n      swap1\n      pop\n        /* \"#utility.yul\":12517:12936   */\n      swap2\n      swap1\n      pop\n      jump\t// out\n        /* \"#utility.yul\":12942:13114   */\n    tag_263:\n        /* \"#utility.yul\":13082:13106   */\n      0x6e6f74206f776e6572206e6f7220617070726f76656400000000000000000000\n        /* \"#utility.yul\":13078:13079   */\n      0x00\n        /* \"#utility.yul\":13070:13076   */\n      dup3\n        /* \"#utility.yul\":13066:13080   */\n      add\n        /* \"#utility.yul\":13059:13107   */\n      mstore\n        /* \"#utility.yul\":12942:13114   */\n      pop\n      jump\t// out\n        /* \"#utility.yul\":13120:13486   */\n    tag_264:\n        /* \"#utility.yul\":13262:13265   */\n      0x00\n        /* \"#utility.yul\":13283:13350   */\n      tag_428\n        /* \"#utility.yul\":13347:13349   */\n      0x16\n        /* \"#utility.yul\":13342:13345   */\n      dup4\n        /* \"#utility.yul\":13283:13350   */\n      tag_235\n      jump\t// in\n    tag_428:\n        /* \"#utility.yul\":13276:13350   */\n      swap2\n      pop\n        /* \"#utility.yul\":13359:13452   */\n      tag_429\n        /* \"#utility.yul\":13448:13451   */\n      dup3\n        /* \"#utility.yul\":13359:13452   */\n      tag_263\n      jump\t// in\n    tag_429:\n        /* \"#utility.yul\":13477:13479   */\n      0x20\n        /* \"#utility.yul\":13472:13475   */\n      dup3\n        /* \"#utility.yul\":13468:13480   */\n      add\n        /* \"#utility.yul\":13461:13480   */\n      swap1\n      pop\n        /* \"#utility.yul\":13120:13486   */\n      swap2\n      swap1\n      pop\n      jump\t// out\n        /* \"#utility.yul\":13492:13911   */\n    tag_112:\n        /* \"#utility.yul\":13658:13662   */\n      0x00\n        /* \"#utility.yul\":13696:13698   */\n      0x20\n        /* \"#utility.yul\":13685:13694   */\n      dup3\n        /* \"#utility.yul\":13681:13699   */\n      add\n        /* \"#utility.yul\":13673:13699   */\n      swap1\n      pop\n        /* \"#utility.yul\":13745:13754   */\n      dup2\n        /* \"#utility.yul\":13739:13743   */\n      dup2\n        /* \"#utility.yul\":13735:13755   */\n      sub\n        /* \"#utility.yul\":13731:13732   */\n      0x00\n        /* \"#utility.yul\":13720:13729   */\n      dup4\n        /* \"#utility.yul\":13716:13733   */\n      add\n        /* \"#utility.yul\":13709:13756   */\n      mstore\n        /* \"#utility.yul\":13773:13904   */\n      tag_431\n        /* \"#utility.yul\":13899:13903   */\n      dup2\n        /* \"#utility.yul\":13773:13904   */\n      tag_264\n      jump\t// in\n    tag_431:\n        /* \"#utility.yul\":13765:13904   */\n      swap1\n      pop\n        /* \"#utility.yul\":13492:13911   */\n      swap2\n      swap1\n      pop\n      jump\t// out\n        /* \"#utility.yul\":13917:14087   */\n    tag_265:\n        /* \"#utility.yul\":14057:14079   */\n      0x6d696e7420746f207a65726f2061646472657373000000000000000000000000\n        /* \"#utility.yul\":14053:14054   */\n      0x00\n        /* \"#utility.yul\":14045:14051   */\n      dup3\n        /* \"#utility.yul\":14041:14055   */\n      add\n        /* \"#utility.yul\":14034:14080   */\n      mstore\n        /* \"#utility.yul\":13917:14087   */\n      pop\n      jump\t// out\n        /* \"#utility.yul\":14093:14459   */\n    tag_266:\n        /* \"#utility.yul\":14235:14238   */\n      0x00\n        /* \"#utility.yul\":14256:14323   */\n      tag_434\n        /* \"#utility.yul\":14320:14322   */\n      0x14\n        /* \"#utility.yul\":14315:14318   */\n      dup4\n        /* \"#utility.yul\":14256:14323   */\n      tag_235\n      jump\t// in\n    tag_434:\n        /* \"#utility.yul\":14249:14323   */\n      swap2\n      pop\n        /* \"#utility.yul\":14332:14425   */\n      tag_435\n        /* \"#utility.yul\":14421:14424   */\n      dup3\n        /* \"#utility.yul\":14332:14425   */\n      tag_265\n      jump\t// in\n    tag_435:\n        /* \"#utility.yul\":14450:14452   */\n      0x20\n        /* \"#utility.yul\":14445:14448   */\n      dup3\n        /* \"#utility.yul\":14441:14453   */\n      add\n        /* \"#utility.yul\":14434:14453   */\n      swap1\n      pop\n        /* \"#utility.yul\":14093:14459   */\n      swap2\n      swap1\n      pop\n      jump\t// out\n        /* \"#utility.yul\":14465:14884   */\n    tag_120:\n        /* \"#utility.yul\":14631:14635   */\n      0x00\n        /* \"#utility.yul\":14669:14671   */\n      0x20\n        /* \"#utility.yul\":14658:14667   */\n      dup3\n        /* \"#utility.yul\":14654:14672   */\n      add\n        /* \"#utility.yul\":14646:14672   */\n      swap1\n      pop\n        /* \"#utility.yul\":14718:14727   */\n      dup2\n        /* \"#utility.yul\":14712:14716   */\n      dup2\n        /* \"#utility.yul\":14708:14728   */\n      sub\n        /* \"#utility.yul\":14704:14705   */\n      0x00\n        /* \"#utility.yul\":14693:14702   */\n      dup4\n        /* \"#utility.yul\":14689:14706   */\n      add\n        /* \"#utility.yul\":14682:14729   */\n      mstore\n        /* \"#utility.yul\":14746:14877   */\n      tag_437\n        /* \"#utility.yul\":14872:14876   */\n      dup2\n        /* \"#utility.yul\":14746:14877   */\n      tag_266\n      jump\t// in\n    tag_437:\n        /* \"#utility.yul\":14738:14877   */\n      swap1\n      pop\n        /* \"#utility.yul\":14465:14884   */\n      swap2\n      swap1\n      pop\n      jump\t// out\n        /* \"#utility.yul\":14890:15060   */\n    tag_267:\n        /* \"#utility.yul\":15030:15052   */\n      0x746f6b656e20616c7265616479206d696e746564000000000000000000000000\n        /* \"#utility.yul\":15026:15027   */\n      0x00\n        /* \"#utility.yul\":15018:15024   */\n      dup3\n        /* \"#utility.yul\":15014:15028   */\n      add\n        /* \"#utility.yul\":15007:15053   */\n      mstore\n        /* \"#utility.yul\":14890:15060   */\n      pop\n      jump\t// out\n        /* \"#utility.yul\":15066:15432   */\n    tag_268:\n        /* \"#utility.yul\":15208:15211   */\n      0x00\n        /* \"#utility.yul\":15229:15296   */\n      tag_440\n        /* \"#utility.yul\":15293:15295   */\n      0x14\n        /* \"#utility.yul\":15288:15291   */\n      dup4\n        /* \"#utility.yul\":15229:15296   */\n      tag_235\n      jump\t// in\n    tag_440:\n        /* \"#utility.yul\":15222:15296   */\n      swap2\n      pop\n        /* \"#utility.yul\":15305:15398   */\n      tag_441\n        /* \"#utility.yul\":15394:15397   */\n      dup3\n        /* \"#utility.yul\":15305:15398   */\n      tag_267\n      jump\t// in\n    tag_441:\n        /* \"#utility.yul\":15423:15425   */\n      0x20\n        /* \"#utility.yul\":15418:15421   */\n      dup3\n        /* \"#utility.yul\":15414:15426   */\n      add\n        /* \"#utility.yul\":15407:15426   */\n      swap1\n      pop\n        /* \"#utility.yul\":15066:15432   */\n      swap2\n      swap1\n      pop\n      jump\t// out\n        /* \"#utility.yul\":15438:15857   */\n    tag_123:\n        /* \"#utility.yul\":15604:15608   */\n      0x00\n        /* \"#utility.yul\":15642:15644   */\n      0x20\n        /* \"#utility.yul\":15631:15640   */\n      dup3\n        /* \"#utility.yul\":15627:15645   */\n      add\n        /* \"#utility.yul\":15619:15645   */\n      swap1\n      pop\n        /* \"#utility.yul\":15691:15700   */\n      dup2\n        /* \"#utility.yul\":15685:15689   */\n      dup2\n        /* \"#utility.yul\":15681:15701   */\n      sub\n        /* \"#utility.yul\":15677:15678   */\n      0x00\n        /* \"#utility.yul\":15666:15675   */\n      dup4\n        /* \"#utility.yul\":15662:15679   */\n      add\n        /* \"#utility.yul\":15655:15702   */\n      mstore\n        /* \"#utility.yul\":15719:15850   */\n      tag_443\n        /* \"#utility.yul\":15845:15849   */\n      dup2\n        /* \"#utility.yul\":15719:15850   */\n      tag_268\n      jump\t// in\n    tag_443:\n        /* \"#utility.yul\":15711:15850   */\n      swap1\n      pop\n        /* \"#utility.yul\":15438:15857   */\n      swap2\n      swap1\n      pop\n      jump\t// out\n        /* \"#utility.yul\":15863:16043   */\n    tag_269:\n        /* \"#utility.yul\":15911:15988   */\n      0x4e487b7100000000000000000000000000000000000000000000000000000000\n        /* \"#utility.yul\":15908:15909   */\n      0x00\n        /* \"#utility.yul\":15901:15989   */\n      mstore\n        /* \"#utility.yul\":16008:16012   */\n      0x11\n        /* \"#utility.yul\":16005:16006   */\n      0x04\n        /* \"#utility.yul\":15998:16013   */\n      mstore\n        /* \"#utility.yul\":16032:16036   */\n      0x24\n        /* \"#utility.yul\":16029:16030   */\n      0x00\n        /* \"#utility.yul\":16022:16037   */\n      revert\n        /* \"#utility.yul\":16049:16240   */\n    tag_125:\n        /* \"#utility.yul\":16089:16092   */\n      0x00\n        /* \"#utility.yul\":16108:16128   */\n      tag_446\n        /* \"#utility.yul\":16126:16127   */\n      dup3\n        /* \"#utility.yul\":16108:16128   */\n      tag_239\n      jump\t// in\n    tag_446:\n        /* \"#utility.yul\":16103:16128   */\n      swap2\n      pop\n        /* \"#utility.yul\":16142:16162   */\n      tag_447\n        /* \"#utility.yul\":16160:16161   */\n      dup4\n        /* \"#utility.yul\":16142:16162   */\n      tag_239\n      jump\t// in\n    tag_447:\n        /* \"#utility.yul\":16137:16162   */\n      swap3\n      pop\n        /* \"#utility.yul\":16185:16186   */\n      dup3\n        /* \"#utility.yul\":16182:16183   */\n      dup3\n        /* \"#utility.yul\":16178:16187   */\n      add\n        /* \"#utility.yul\":16171:16187   */\n      swap1\n      pop\n        /* \"#utility.yul\":16206:16209   */\n      dup1\n        /* \"#utility.yul\":16203:16204   */\n      dup3\n        /* \"#utility.yul\":16200:16210   */\n      gt\n        /* \"#utility.yul\":16197:16233   */\n      iszero\n      tag_448\n      jumpi\n        /* \"#utility.yul\":16213:16231   */\n      tag_449\n      tag_269\n      jump\t// in\n    tag_449:\n        /* \"#utility.yul\":16197:16233   */\n    tag_448:\n        /* \"#utility.yul\":16049:16240   */\n      swap3\n      swap2\n      pop\n      pop\n      jump\t// out\n        /* \"#utility.yul\":16246:16416   */\n    tag_270:\n        /* \"#utility.yul\":16386:16408   */\n      0x6f776e6572203d207a65726f2061646472657373000000000000000000000000\n        /* \"#utility.yul\":16382:16383   */\n      0x00\n        /* \"#utility.yul\":16374:16380   */\n      dup3\n        /* \"#utility.yul\":16370:16384   */\n      add\n        /* \"#utility.yul\":16363:16409   */\n      mstore\n        /* \"#utility.yul\":16246:16416   */\n      pop\n      jump\t// out\n        /* \"#utility.yul\":16422:16788   */\n    tag_271:\n        /* \"#utility.yul\":16564:16567   */\n      0x00\n        /* \"#utility.yul\":16585:16652   */\n      tag_452\n        /* \"#utility.yul\":16649:16651   */\n      0x14\n        /* \"#utility.yul\":16644:16647   */\n      dup4\n        /* \"#utility.yul\":16585:16652   */\n      tag_235\n      jump\t// in\n    tag_452:\n        /* \"#utility.yul\":16578:16652   */\n      swap2\n      pop\n        /* \"#utility.yul\":16661:16754   */\n      tag_453\n        /* \"#utility.yul\":16750:16753   */\n      dup3\n        /* \"#utility.yul\":16661:16754   */\n      tag_270\n      jump\t// in\n    tag_453:\n        /* \"#utility.yul\":16779:16781   */\n      0x20\n        /* \"#utility.yul\":16774:16777   */\n      dup3\n        /* \"#utility.yul\":16770:16782   */\n      add\n        /* \"#utility.yul\":16763:16782   */\n      swap1\n      pop\n        /* \"#utility.yul\":16422:16788   */\n      swap2\n      swap1\n      pop\n      jump\t// out\n        /* \"#utility.yul\":16794:17213   */\n    tag_132:\n        /* \"#utility.yul\":16960:16964   */\n      0x00\n        /* \"#utility.yul\":16998:17000   */\n      0x20\n        /* \"#utility.yul\":16987:16996   */\n      dup3\n        /* \"#utility.yul\":16983:17001   */\n      add\n        /* \"#utility.yul\":16975:17001   */\n      swap1\n      pop\n        /* \"#utility.yul\":17047:17056   */\n      dup2\n        /* \"#utility.yul\":17041:17045   */\n      dup2\n        /* \"#utility.yul\":17037:17057   */\n      sub\n        /* \"#utility.yul\":17033:17034   */\n      0x00\n        /* \"#utility.yul\":17022:17031   */\n      dup4\n        /* \"#utility.yul\":17018:17035   */\n      add\n        /* \"#utility.yul\":17011:17058   */\n      mstore\n        /* \"#utility.yul\":17075:17206   */\n      tag_455\n        /* \"#utility.yul\":17201:17205   */\n      dup2\n        /* \"#utility.yul\":17075:17206   */\n      tag_271\n      jump\t// in\n    tag_455:\n        /* \"#utility.yul\":17067:17206   */\n      swap1\n      pop\n        /* \"#utility.yul\":16794:17213   */\n      swap2\n      swap1\n      pop\n      jump\t// out\n        /* \"#utility.yul\":17219:17384   */\n    tag_272:\n        /* \"#utility.yul\":17359:17376   */\n      0x546f6b656e204e6f742045786973740000000000000000000000000000000000\n        /* \"#utility.yul\":17355:17356   */\n      0x00\n        /* \"#utility.yul\":17347:17353   */\n      dup3\n        /* \"#utility.yul\":17343:17357   */\n      add\n        /* \"#utility.yul\":17336:17377   */\n      mstore\n        /* \"#utility.yul\":17219:17384   */\n      pop\n      jump\t// out\n        /* \"#utility.yul\":17390:17756   */\n    tag_273:\n        /* \"#utility.yul\":17532:17535   */\n      0x00\n        /* \"#utility.yul\":17553:17620   */\n      tag_458\n        /* \"#utility.yul\":17617:17619   */\n      0x0f\n        /* \"#utility.yul\":17612:17615   */\n      dup4\n        /* \"#utility.yul\":17553:17620   */\n      tag_235\n      jump\t// in\n    tag_458:\n        /* \"#utility.yul\":17546:17620   */\n      swap2\n      pop\n        /* \"#utility.yul\":17629:17722   */\n      tag_459\n        /* \"#utility.yul\":17718:17721   */\n      dup3\n        /* \"#utility.yul\":17629:17722   */\n      tag_272\n      jump\t// in\n    tag_459:\n        /* \"#utility.yul\":17747:17749   */\n      0x20\n        /* \"#utility.yul\":17742:17745   */\n      dup3\n        /* \"#utility.yul\":17738:17750   */\n      add\n        /* \"#utility.yul\":17731:17750   */\n      swap1\n      pop\n        /* \"#utility.yul\":17390:17756   */\n      swap2\n      swap1\n      pop\n      jump\t// out\n        /* \"#utility.yul\":17762:18181   */\n    tag_150:\n        /* \"#utility.yul\":17928:17932   */\n      0x00\n        /* \"#utility.yul\":17966:17968   */\n      0x20\n        /* \"#utility.yul\":17955:17964   */\n      dup3\n        /* \"#utility.yul\":17951:17969   */\n      add\n        /* \"#utility.yul\":17943:17969   */\n      swap1\n      pop\n        /* \"#utility.yul\":18015:18024   */\n      dup2\n        /* \"#utility.yul\":18009:18013   */\n      dup2\n        /* \"#utility.yul\":18005:18025   */\n      sub\n        /* \"#utility.yul\":18001:18002   */\n      0x00\n        /* \"#utility.yul\":17990:17999   */\n      dup4\n        /* \"#utility.yul\":17986:18003   */\n      add\n        /* \"#utility.yul\":17979:18026   */\n      mstore\n        /* \"#utility.yul\":18043:18174   */\n      tag_461\n        /* \"#utility.yul\":18169:18173   */\n      dup2\n        /* \"#utility.yul\":18043:18174   */\n      tag_273\n      jump\t// in\n    tag_461:\n        /* \"#utility.yul\":18035:18174   */\n      swap1\n      pop\n        /* \"#utility.yul\":17762:18181   */\n      swap2\n      swap1\n      pop\n      jump\t// out\n        /* \"#utility.yul\":18187:18335   */\n    tag_274:\n        /* \"#utility.yul\":18289:18300   */\n      0x00\n        /* \"#utility.yul\":18326:18329   */\n      dup2\n        /* \"#utility.yul\":18311:18329   */\n      swap1\n      pop\n        /* \"#utility.yul\":18187:18335   */\n      swap3\n      swap2\n      pop\n      pop\n      jump\t// out\n        /* \"#utility.yul\":18341:18731   */\n    tag_275:\n        /* \"#utility.yul\":18447:18450   */\n      0x00\n        /* \"#utility.yul\":18475:18514   */\n      tag_464\n        /* \"#utility.yul\":18508:18513   */\n      dup3\n        /* \"#utility.yul\":18475:18514   */\n      tag_234\n      jump\t// in\n    tag_464:\n        /* \"#utility.yul\":18530:18619   */\n      tag_465\n        /* \"#utility.yul\":18612:18618   */\n      dup2\n        /* \"#utility.yul\":18607:18610   */\n      dup6\n        /* \"#utility.yul\":18530:18619   */\n      tag_274\n      jump\t// in\n    tag_465:\n        /* \"#utility.yul\":18523:18619   */\n      swap4\n      pop\n        /* \"#utility.yul\":18628:18693   */\n      tag_466\n        /* \"#utility.yul\":18686:18692   */\n      dup2\n        /* \"#utility.yul\":18681:18684   */\n      dup6\n        /* \"#utility.yul\":18674:18678   */\n      0x20\n        /* \"#utility.yul\":18667:18672   */\n      dup7\n        /* \"#utility.yul\":18663:18679   */\n      add\n        /* \"#utility.yul\":18628:18693   */\n      tag_236\n      jump\t// in\n    tag_466:\n        /* \"#utility.yul\":18718:18724   */\n      dup1\n        /* \"#utility.yul\":18713:18716   */\n      dup5\n        /* \"#utility.yul\":18709:18725   */\n      add\n        /* \"#utility.yul\":18702:18725   */\n      swap2\n      pop\n        /* \"#utility.yul\":18451:18731   */\n      pop\n        /* \"#utility.yul\":18341:18731   */\n      swap3\n      swap2\n      pop\n      pop\n      jump\t// out\n        /* \"#utility.yul\":18737:19172   */\n    tag_158:\n        /* \"#utility.yul\":18917:18920   */\n      0x00\n        /* \"#utility.yul\":18939:19034   */\n      tag_468\n        /* \"#utility.yul\":19030:19033   */\n      dup3\n        /* \"#utility.yul\":19021:19027   */\n      dup6\n        /* \"#utility.yul\":18939:19034   */\n      tag_275\n      jump\t// in\n    tag_468:\n        /* \"#utility.yul\":18932:19034   */\n      swap2\n      pop\n        /* \"#utility.yul\":19051:19146   */\n      tag_469\n        /* \"#utility.yul\":19142:19145   */\n      dup3\n        /* \"#utility.yul\":19133:19139   */\n      dup5\n        /* \"#utility.yul\":19051:19146   */\n      tag_275\n      jump\t// in\n    tag_469:\n        /* \"#utility.yul\":19044:19146   */\n      swap2\n      pop\n        /* \"#utility.yul\":19163:19166   */\n      dup2\n        /* \"#utility.yul\":19156:19166   */\n      swap1\n      pop\n        /* \"#utility.yul\":18737:19172   */\n      swap4\n      swap3\n      pop\n      pop\n      pop\n      jump\t// out\n        /* \"#utility.yul\":19178:19337   */\n    tag_276:\n        /* \"#utility.yul\":19318:19329   */\n      0x6e6f74206f776e65720000000000000000000000000000000000000000000000\n        /* \"#utility.yul\":19314:19315   */\n      0x00\n        /* \"#utility.yul\":19306:19312   */\n      dup3\n        /* \"#utility.yul\":19302:19316   */\n      add\n        /* \"#utility.yul\":19295:19330   */\n      mstore\n        /* \"#utility.yul\":19178:19337   */\n      pop\n      jump\t// out\n        /* \"#utility.yul\":19343:19708   */\n    tag_277:\n        /* \"#utility.yul\":19485:19488   */\n      0x00\n        /* \"#utility.yul\":19506:19572   */\n      tag_472\n        /* \"#utility.yul\":19570:19571   */\n      0x09\n        /* \"#utility.yul\":19565:19568   */\n      dup4\n        /* \"#utility.yul\":19506:19572   */\n      tag_235\n      jump\t// in\n    tag_472:\n        /* \"#utility.yul\":19499:19572   */\n      swap2\n      pop\n        /* \"#utility.yul\":19581:19674   */\n      tag_473\n        /* \"#utility.yul\":19670:19673   */\n      dup3\n        /* \"#utility.yul\":19581:19674   */\n      tag_276\n      jump\t// in\n    tag_473:\n        /* \"#utility.yul\":19699:19701   */\n      0x20\n        /* \"#utility.yul\":19694:19697   */\n      dup3\n        /* \"#utility.yul\":19690:19702   */\n      add\n        /* \"#utility.yul\":19683:19702   */\n      swap1\n      pop\n        /* \"#utility.yul\":19343:19708   */\n      swap2\n      swap1\n      pop\n      jump\t// out\n        /* \"#utility.yul\":19714:20133   */\n    tag_167:\n        /* \"#utility.yul\":19880:19884   */\n      0x00\n        /* \"#utility.yul\":19918:19920   */\n      0x20\n        /* \"#utility.yul\":19907:19916   */\n      dup3\n        /* \"#utility.yul\":19903:19921   */\n      add\n        /* \"#utility.yul\":19895:19921   */\n      swap1\n      pop\n        /* \"#utility.yul\":19967:19976   */\n      dup2\n        /* \"#utility.yul\":19961:19965   */\n      dup2\n        /* \"#utility.yul\":19957:19977   */\n      sub\n        /* \"#utility.yul\":19953:19954   */\n      0x00\n        /* \"#utility.yul\":19942:19951   */\n      dup4\n        /* \"#utility.yul\":19938:19955   */\n      add\n        /* \"#utility.yul\":19931:19978   */\n      mstore\n        /* \"#utility.yul\":19995:20126   */\n      tag_475\n        /* \"#utility.yul\":20121:20125   */\n      dup2\n        /* \"#utility.yul\":19995:20126   */\n      tag_277\n      jump\t// in\n    tag_475:\n        /* \"#utility.yul\":19987:20126   */\n      swap1\n      pop\n        /* \"#utility.yul\":19714:20133   */\n      swap2\n      swap1\n      pop\n      jump\t// out\n        /* \"#utility.yul\":20139:20317   */\n    tag_278:\n        /* \"#utility.yul\":20279:20309   */\n      0x7472616e7366657220746f20746865207a65726f206164647265737300000000\n        /* \"#utility.yul\":20275:20276   */\n      0x00\n        /* \"#utility.yul\":20267:20273   */\n      dup3\n        /* \"#utility.yul\":20263:20277   */\n      add\n        /* \"#utility.yul\":20256:20310   */\n      mstore\n        /* \"#utility.yul\":20139:20317   */\n      pop\n      jump\t// out\n        /* \"#utility.yul\":20323:20689   */\n    tag_279:\n        /* \"#utility.yul\":20465:20468   */\n      0x00\n        /* \"#utility.yul\":20486:20553   */\n      tag_478\n        /* \"#utility.yul\":20550:20552   */\n      0x1c\n        /* \"#utility.yul\":20545:20548   */\n      dup4\n        /* \"#utility.yul\":20486:20553   */\n      tag_235\n      jump\t// in\n    tag_478:\n        /* \"#utility.yul\":20479:20553   */\n      swap2\n      pop\n        /* \"#utility.yul\":20562:20655   */\n      tag_479\n        /* \"#utility.yul\":20651:20654   */\n      dup3\n        /* \"#utility.yul\":20562:20655   */\n      tag_278\n      jump\t// in\n    tag_479:\n        /* \"#utility.yul\":20680:20682   */\n      0x20\n        /* \"#utility.yul\":20675:20678   */\n      dup3\n        /* \"#utility.yul\":20671:20683   */\n      add\n        /* \"#utility.yul\":20664:20683   */\n      swap1\n      pop\n        /* \"#utility.yul\":20323:20689   */\n      swap2\n      swap1\n      pop\n      jump\t// out\n        /* \"#utility.yul\":20695:21114   */\n    tag_170:\n        /* \"#utility.yul\":20861:20865   */\n      0x00\n        /* \"#utility.yul\":20899:20901   */\n      0x20\n        /* \"#utility.yul\":20888:20897   */\n      dup3\n        /* \"#utility.yul\":20884:20902   */\n      add\n        /* \"#utility.yul\":20876:20902   */\n      swap1\n      pop\n        /* \"#utility.yul\":20948:20957   */\n      dup2\n        /* \"#utility.yul\":20942:20946   */\n      dup2\n        /* \"#utility.yul\":20938:20958   */\n      sub\n        /* \"#utility.yul\":20934:20935   */\n      0x00\n        /* \"#utility.yul\":20923:20932   */\n      dup4\n        /* \"#utility.yul\":20919:20936   */\n      add\n        /* \"#utility.yul\":20912:20959   */\n      mstore\n        /* \"#utility.yul\":20976:21107   */\n      tag_481\n        /* \"#utility.yul\":21102:21106   */\n      dup2\n        /* \"#utility.yul\":20976:21107   */\n      tag_279\n      jump\t// in\n    tag_481:\n        /* \"#utility.yul\":20968:21107   */\n      swap1\n      pop\n        /* \"#utility.yul\":20695:21114   */\n      swap2\n      swap1\n      pop\n      jump\t// out\n        /* \"#utility.yul\":21120:21314   */\n    tag_173:\n        /* \"#utility.yul\":21160:21164   */\n      0x00\n        /* \"#utility.yul\":21180:21200   */\n      tag_483\n        /* \"#utility.yul\":21198:21199   */\n      dup3\n        /* \"#utility.yul\":21180:21200   */\n      tag_239\n      jump\t// in\n    tag_483:\n        /* \"#utility.yul\":21175:21200   */\n      swap2\n      pop\n        /* \"#utility.yul\":21214:21234   */\n      tag_484\n        /* \"#utility.yul\":21232:21233   */\n      dup4\n        /* \"#utility.yul\":21214:21234   */\n      tag_239\n      jump\t// in\n    tag_484:\n        /* \"#utility.yul\":21209:21234   */\n      swap3\n      pop\n        /* \"#utility.yul\":21258:21259   */\n      dup3\n        /* \"#utility.yul\":21255:21256   */\n      dup3\n        /* \"#utility.yul\":21251:21260   */\n      sub\n        /* \"#utility.yul\":21243:21260   */\n      swap1\n      pop\n        /* \"#utility.yul\":21282:21283   */\n      dup2\n        /* \"#utility.yul\":21276:21280   */\n      dup2\n        /* \"#utility.yul\":21273:21284   */\n      gt\n        /* \"#utility.yul\":21270:21307   */\n      iszero\n      tag_485\n      jumpi\n        /* \"#utility.yul\":21287:21305   */\n      tag_486\n      tag_269\n      jump\t// in\n    tag_486:\n        /* \"#utility.yul\":21270:21307   */\n    tag_485:\n        /* \"#utility.yul\":21120:21314   */\n      swap3\n      swap2\n      pop\n      pop\n      jump\t// out\n        /* \"#utility.yul\":21320:21488   */\n    tag_280:\n        /* \"#utility.yul\":21460:21480   */\n      0x6e6f742045524337323152656365697665720000000000000000000000000000\n        /* \"#utility.yul\":21456:21457   */\n      0x00\n        /* \"#utility.yul\":21448:21454   */\n      dup3\n        /* \"#utility.yul\":21444:21458   */\n      add\n        /* \"#utility.yul\":21437:21481   */\n      mstore\n        /* \"#utility.yul\":21320:21488   */\n      pop\n      jump\t// out\n        /* \"#utility.yul\":21494:21860   */\n    tag_281:\n        /* \"#utility.yul\":21636:21639   */\n      0x00\n        /* \"#utility.yul\":21657:21724   */\n      tag_489\n        /* \"#utility.yul\":21721:21723   */\n      0x12\n        /* \"#utility.yul\":21716:21719   */\n      dup4\n        /* \"#utility.yul\":21657:21724   */\n      tag_235\n      jump\t// in\n    tag_489:\n        /* \"#utility.yul\":21650:21724   */\n      swap2\n      pop\n        /* \"#utility.yul\":21733:21826   */\n      tag_490\n        /* \"#utility.yul\":21822:21825   */\n      dup3\n        /* \"#utility.yul\":21733:21826   */\n      tag_280\n      jump\t// in\n    tag_490:\n        /* \"#utility.yul\":21851:21853   */\n      0x20\n        /* \"#utility.yul\":21846:21849   */\n      dup3\n        /* \"#utility.yul\":21842:21854   */\n      add\n        /* \"#utility.yul\":21835:21854   */\n      swap1\n      pop\n        /* \"#utility.yul\":21494:21860   */\n      swap2\n      swap1\n      pop\n      jump\t// out\n        /* \"#utility.yul\":21866:22285   */\n    tag_181:\n        /* \"#utility.yul\":22032:22036   */\n      0x00\n        /* \"#utility.yul\":22070:22072   */\n      0x20\n        /* \"#utility.yul\":22059:22068   */\n      dup3\n        /* \"#utility.yul\":22055:22073   */\n      add\n        /* \"#utility.yul\":22047:22073   */\n      swap1\n      pop\n        /* \"#utility.yul\":22119:22128   */\n      dup2\n        /* \"#utility.yul\":22113:22117   */\n      dup2\n        /* \"#utility.yul\":22109:22129   */\n      sub\n        /* \"#utility.yul\":22105:22106   */\n      0x00\n        /* \"#utility.yul\":22094:22103   */\n      dup4\n        /* \"#utility.yul\":22090:22107   */\n      add\n        /* \"#utility.yul\":22083:22130   */\n      mstore\n        /* \"#utility.yul\":22147:22278   */\n      tag_492\n        /* \"#utility.yul\":22273:22277   */\n      dup2\n        /* \"#utility.yul\":22147:22278   */\n      tag_281\n      jump\t// in\n    tag_492:\n        /* \"#utility.yul\":22139:22278   */\n      swap1\n      pop\n        /* \"#utility.yul\":21866:22285   */\n      swap2\n      swap1\n      pop\n      jump\t// out\n        /* \"#utility.yul\":22291:22471   */\n    tag_194:\n        /* \"#utility.yul\":22339:22416   */\n      0x4e487b7100000000000000000000000000000000000000000000000000000000\n        /* \"#utility.yul\":22336:22337   */\n      0x00\n        /* \"#utility.yul\":22329:22417   */\n      mstore\n        /* \"#utility.yul\":22436:22440   */\n      0x12\n        /* \"#utility.yul\":22433:22434   */\n      0x04\n        /* \"#utility.yul\":22426:22441   */\n      mstore\n        /* \"#utility.yul\":22460:22464   */\n      0x24\n        /* \"#utility.yul\":22457:22458   */\n      0x00\n        /* \"#utility.yul\":22450:22465   */\n      revert\n        /* \"#utility.yul\":22477:22575   */\n    tag_282:\n        /* \"#utility.yul\":22528:22534   */\n      0x00\n        /* \"#utility.yul\":22562:22567   */\n      dup2\n        /* \"#utility.yul\":22556:22568   */\n      mload\n        /* \"#utility.yul\":22546:22568   */\n      swap1\n      pop\n        /* \"#utility.yul\":22477:22575   */\n      swap2\n      swap1\n      pop\n      jump\t// out\n        /* \"#utility.yul\":22581:22749   */\n    tag_283:\n        /* \"#utility.yul\":22664:22675   */\n      0x00\n        /* \"#utility.yul\":22698:22704   */\n      dup3\n        /* \"#utility.yul\":22693:22696   */\n      dup3\n        /* \"#utility.yul\":22686:22705   */\n      mstore\n        /* \"#utility.yul\":22738:22742   */\n      0x20\n        /* \"#utility.yul\":22733:22736   */\n      dup3\n        /* \"#utility.yul\":22729:22743   */\n      add\n        /* \"#utility.yul\":22714:22743   */\n      swap1\n      pop\n        /* \"#utility.yul\":22581:22749   */\n      swap3\n      swap2\n      pop\n      pop\n      jump\t// out\n        /* \"#utility.yul\":22755:23128   */\n    tag_284:\n        /* \"#utility.yul\":22841:22844   */\n      0x00\n        /* \"#utility.yul\":22869:22907   */\n      tag_497\n        /* \"#utility.yul\":22901:22906   */\n      dup3\n        /* \"#utility.yul\":22869:22907   */\n      tag_282\n      jump\t// in\n    tag_497:\n        /* \"#utility.yul\":22923:22993   */\n      tag_498\n        /* \"#utility.yul\":22986:22992   */\n      dup2\n        /* \"#utility.yul\":22981:22984   */\n      dup6\n        /* \"#utility.yul\":22923:22993   */\n      tag_283\n      jump\t// in\n    tag_498:\n        /* \"#utility.yul\":22916:22993   */\n      swap4\n      pop\n        /* \"#utility.yul\":23002:23067   */\n      tag_499\n        /* \"#utility.yul\":23060:23066   */\n      dup2\n        /* \"#utility.yul\":23055:23058   */\n      dup6\n        /* \"#utility.yul\":23048:23052   */\n      0x20\n        /* \"#utility.yul\":23041:23046   */\n      dup7\n        /* \"#utility.yul\":23037:23053   */\n      add\n        /* \"#utility.yul\":23002:23067   */\n      tag_236\n      jump\t// in\n    tag_499:\n        /* \"#utility.yul\":23092:23121   */\n      tag_500\n        /* \"#utility.yul\":23114:23120   */\n      dup2\n        /* \"#utility.yul\":23092:23121   */\n      tag_237\n      jump\t// in\n    tag_500:\n        /* \"#utility.yul\":23087:23090   */\n      dup5\n        /* \"#utility.yul\":23083:23122   */\n      add\n        /* \"#utility.yul\":23076:23122   */\n      swap2\n      pop\n        /* \"#utility.yul\":22845:23128   */\n      pop\n        /* \"#utility.yul\":22755:23128   */\n      swap3\n      swap2\n      pop\n      pop\n      jump\t// out\n        /* \"#utility.yul\":23134:23774   */\n    tag_200:\n        /* \"#utility.yul\":23329:23333   */\n      0x00\n        /* \"#utility.yul\":23367:23370   */\n      0x80\n        /* \"#utility.yul\":23356:23365   */\n      dup3\n        /* \"#utility.yul\":23352:23371   */\n      add\n        /* \"#utility.yul\":23344:23371   */\n      swap1\n      pop\n        /* \"#utility.yul\":23381:23452   */\n      tag_502\n        /* \"#utility.yul\":23449:23450   */\n      0x00\n        /* \"#utility.yul\":23438:23447   */\n      dup4\n        /* \"#utility.yul\":23434:23451   */\n      add\n        /* \"#utility.yul\":23425:23431   */\n      dup8\n        /* \"#utility.yul\":23381:23452   */\n      tag_244\n      jump\t// in\n    tag_502:\n        /* \"#utility.yul\":23462:23534   */\n      tag_503\n        /* \"#utility.yul\":23530:23532   */\n      0x20\n        /* \"#utility.yul\":23519:23528   */\n      dup4\n        /* \"#utility.yul\":23515:23533   */\n      add\n        /* \"#utility.yul\":23506:23512   */\n      dup7\n        /* \"#utility.yul\":23462:23534   */\n      tag_244\n      jump\t// in\n    tag_503:\n        /* \"#utility.yul\":23544:23616   */\n      tag_504\n        /* \"#utility.yul\":23612:23614   */\n      0x40\n        /* \"#utility.yul\":23601:23610   */\n      dup4\n        /* \"#utility.yul\":23597:23615   */\n      add\n        /* \"#utility.yul\":23588:23594   */\n      dup6\n        /* \"#utility.yul\":23544:23616   */\n      tag_247\n      jump\t// in\n    tag_504:\n        /* \"#utility.yul\":23663:23672   */\n      dup2\n        /* \"#utility.yul\":23657:23661   */\n      dup2\n        /* \"#utility.yul\":23653:23673   */\n      sub\n        /* \"#utility.yul\":23648:23650   */\n      0x60\n        /* \"#utility.yul\":23637:23646   */\n      dup4\n        /* \"#utility.yul\":23633:23651   */\n      add\n        /* \"#utility.yul\":23626:23674   */\n      mstore\n        /* \"#utility.yul\":23691:23767   */\n      tag_505\n        /* \"#utility.yul\":23762:23766   */\n      dup2\n        /* \"#utility.yul\":23753:23759   */\n      dup5\n        /* \"#utility.yul\":23691:23767   */\n      tag_284\n      jump\t// in\n    tag_505:\n        /* \"#utility.yul\":23683:23767   */\n      swap1\n      pop\n        /* \"#utility.yul\":23134:23774   */\n      swap6\n      swap5\n      pop\n      pop\n      pop\n      pop\n      pop\n      jump\t// out\n        /* \"#utility.yul\":23780:23921   */\n    tag_285:\n        /* \"#utility.yul\":23836:23841   */\n      0x00\n        /* \"#utility.yul\":23867:23873   */\n      dup2\n        /* \"#utility.yul\":23861:23874   */\n      mload\n        /* \"#utility.yul\":23852:23874   */\n      swap1\n      pop\n        /* \"#utility.yul\":23883:23915   */\n      tag_507\n        /* \"#utility.yul\":23909:23914   */\n      dup2\n        /* \"#utility.yul\":23883:23915   */\n      tag_230\n      jump\t// in\n    tag_507:\n        /* \"#utility.yul\":23780:23921   */\n      swap3\n      swap2\n      pop\n      pop\n      jump\t// out\n        /* \"#utility.yul\":23927:24276   */\n    tag_204:\n        /* \"#utility.yul\":23996:24002   */\n      0x00\n        /* \"#utility.yul\":24045:24047   */\n      0x20\n        /* \"#utility.yul\":24033:24042   */\n      dup3\n        /* \"#utility.yul\":24024:24031   */\n      dup5\n        /* \"#utility.yul\":24020:24043   */\n      sub\n        /* \"#utility.yul\":24016:24048   */\n      slt\n        /* \"#utility.yul\":24013:24132   */\n      iszero\n      tag_509\n      jumpi\n        /* \"#utility.yul\":24051:24130   */\n      tag_510\n      tag_227\n      jump\t// in\n    tag_510:\n        /* \"#utility.yul\":24013:24132   */\n    tag_509:\n        /* \"#utility.yul\":24171:24172   */\n      0x00\n        /* \"#utility.yul\":24196:24259   */\n      tag_511\n        /* \"#utility.yul\":24251:24258   */\n      dup5\n        /* \"#utility.yul\":24242:24248   */\n      dup3\n        /* \"#utility.yul\":24231:24240   */\n      dup6\n        /* \"#utility.yul\":24227:24249   */\n      add\n        /* \"#utility.yul\":24196:24259   */\n      tag_285\n      jump\t// in\n    tag_511:\n        /* \"#utility.yul\":24186:24259   */\n      swap2\n      pop\n        /* \"#utility.yul\":24142:24269   */\n      pop\n        /* \"#utility.yul\":23927:24276   */\n      swap3\n      swap2\n      pop\n      pop\n      jump\t// out\n\n    auxdata: 0xa264697066735822122038cdaaf94404bafd7ce5e5a142b54553458ce17ab56623e7ca0d623b6eb4586364736f6c63430008190033\n}\n",
				"bytecode": {
					"linkReferences": {},
					"object": "608060405234801561001057600080fd5b50604051612851380380612851833981810160405281019061003291906101ce565b81600090816100419190610467565b5080600190816100519190610467565b505050610539565b6000604051905090565b600080fd5b600080fd5b600080fd5b600080fd5b6000601f19601f8301169050919050565b7f4e487b7100000000000000000000000000000000000000000000000000000000600052604160045260246000fd5b6100c082610077565b810181811067ffffffffffffffff821117156100df576100de610088565b5b80604052505050565b60006100f2610059565b90506100fe82826100b7565b919050565b600067ffffffffffffffff82111561011e5761011d610088565b5b61012782610077565b9050602081019050919050565b60005b83811015610152578082015181840152602081019050610137565b60008484015250505050565b600061017161016c84610103565b6100e8565b90508281526020810184848401111561018d5761018c610072565b5b610198848285610134565b509392505050565b600082601f8301126101b5576101b461006d565b5b81516101c584826020860161015e565b91505092915050565b600080604083850312156101e5576101e4610063565b5b600083015167ffffffffffffffff81111561020357610202610068565b5b61020f858286016101a0565b925050602083015167ffffffffffffffff8111156102305761022f610068565b5b61023c858286016101a0565b9150509250929050565b600081519050919050565b7f4e487b7100000000000000000000000000000000000000000000000000000000600052602260045260246000fd5b6000600282049050600182168061029857607f821691505b6020821081036102ab576102aa610251565b5b50919050565b60008190508160005260206000209050919050565b60006020601f8301049050919050565b600082821b905092915050565b6000600883026103137fffffffffffffffffffffffffffffffffffffffffffffffffffffffffffffffff826102d6565b61031d86836102d6565b95508019841693508086168417925050509392505050565b6000819050919050565b6000819050919050565b600061036461035f61035a84610335565b61033f565b610335565b9050919050565b6000819050919050565b61037e83610349565b61039261038a8261036b565b8484546102e3565b825550505050565b600090565b6103a761039a565b6103b2818484610375565b505050565b5b818110156103d6576103cb60008261039f565b6001810190506103b8565b5050565b601f82111561041b576103ec816102b1565b6103f5846102c6565b81016020851015610404578190505b610418610410856102c6565b8301826103b7565b50505b505050565b600082821c905092915050565b600061043e60001984600802610420565b1980831691505092915050565b6000610457838361042d565b9150826002028217905092915050565b61047082610246565b67ffffffffffffffff81111561048957610488610088565b5b6104938254610280565b61049e8282856103da565b600060209050601f8311600181146104d157600084156104bf578287015190505b6104c9858261044b565b865550610531565b601f1984166104df866102b1565b60005b82811015610507578489015182556001820191506020850194506020810190506104e2565b868310156105245784890151610520601f89168261042d565b8355505b6001600288020188555050505b505050505050565b612309806105486000396000f3fe608060405234801561001057600080fd5b50600436106100f55760003560e01c80634e6ec24711610097578063a22cb46511610066578063a22cb46514610296578063b88d4fde146102b2578063c87b56dd146102ce578063e985e9c5146102fe576100f5565b80634e6ec247146101fc5780636352211e1461021857806370a082311461024857806395d89b4114610278576100f5565b8063095ea7b3116100d3578063095ea7b314610178578063162790551461019457806323b872dd146101c457806342842e0e146101e0576100f5565b806301ffc9a7146100fa57806306fdde031461012a578063081812fc14610148575b600080fd5b610114600480360381019061010f91906116e4565b61032e565b604051610121919061172c565b60405180910390f35b610132610468565b60405161013f91906117d7565b60405180910390f35b610162600480360381019061015d919061182f565b6104f6565b60405161016f919061189d565b60405180910390f35b610192600480360381019061018d91906118e4565b6105d4565b005b6101ae60048036038101906101a99190611924565b61071b565b6040516101bb919061172c565b60405180910390f35b6101de60048036038101906101d99190611951565b610734565b005b6101fa60048036038101906101f59190611951565b61079d565b005b610216600480360381019061021191906118e4565b6107bd565b005b610232600480360381019061022d919061182f565b6109d7565b60405161023f919061189d565b60405180910390f35b610262600480360381019061025d9190611924565b610a83565b60405161026f91906119b3565b60405180910390f35b610280610b3a565b60405161028d91906117d7565b60405180910390f35b6102b060048036038101906102ab91906119fa565b610bc8565b005b6102cc60048036038101906102c79190611b6f565b610cc5565b005b6102e860048036038101906102e3919061182f565b610d30565b6040516102f591906117d7565b60405180910390f35b61031860048036038101906103139190611bf2565b610e31565b604051610325919061172c565b60405180910390f35b60007f80ac58cd000000000000000000000000000000000000000000000000000000007bffffffffffffffffffffffffffffffffffffffffffffffffffffffff1916827bffffffffffffffffffffffffffffffffffffffffffffffffffffffff191614806103f957507f01ffc9a7000000000000000000000000000000000000000000000000000000007bffffffffffffffffffffffffffffffffffffffffffffffffffffffff1916827bffffffffffffffffffffffffffffffffffffffffffffffffffffffff1916145b8061046157507f5b5e139f000000000000000000000000000000000000000000000000000000007bffffffffffffffffffffffffffffffffffffffffffffffffffffffff1916827bffffffffffffffffffffffffffffffffffffffffffffffffffffffff1916145b9050919050565b6000805461047590611c61565b80601f01602080910402602001604051908101604052809291908181526020018280546104a190611c61565b80156104ee5780601f106104c3576101008083540402835291602001916104ee565b820191906000526020600020905b8154815290600101906020018083116104d157829003601f168201915b505050505081565b60008073ffffffffffffffffffffffffffffffffffffffff166002600084815260200190815260200160002060009054906101000a900473ffffffffffffffffffffffffffffffffffffffff1673ffffffffffffffffffffffffffffffffffffffff1603610599576040517f08c379a000000000000000000000000000000000000000000000000000000000815260040161059090611cde565b60405180910390fd5b6004600083815260200190815260200160002060009054906101000a900473ffffffffffffffffffffffffffffffffffffffff169050919050565b60006002600083815260200190815260200160002060009054906101000a900473ffffffffffffffffffffffffffffffffffffffff1690508073ffffffffffffffffffffffffffffffffffffffff163373ffffffffffffffffffffffffffffffffffffffff1614806106cc5750600560008273ffffffffffffffffffffffffffffffffffffffff1673ffffffffffffffffffffffffffffffffffffffff16815260200190815260200160002060003373ffffffffffffffffffffffffffffffffffffffff1673ffffffffffffffffffffffffffffffffffffffff16815260200190815260200160002060009054906101000a900460ff165b61070b576040517f08c379a000000000000000000000000000000000000000000000000000000000815260040161070290611d4a565b60405180910390fd5b610716818484610ec5565b505050565b600080823b905060008163ffffffff1611915050919050565b600061073f826109d7565b905061074c813384610f77565b61078b576040517f08c379a000000000000000000000000000000000000000000000000000000000815260040161078290611db6565b60405180910390fd5b610797818585856110ab565b50505050565b6107b883838360405180602001604052806000815250610cc5565b505050565b600073ffffffffffffffffffffffffffffffffffffffff168273ffffffffffffffffffffffffffffffffffffffff160361082c576040517f08c379a000000000000000000000000000000000000000000000000000000000815260040161082390611e22565b60405180910390fd5b600073ffffffffffffffffffffffffffffffffffffffff166002600083815260200190815260200160002060009054906101000a900473ffffffffffffffffffffffffffffffffffffffff1673ffffffffffffffffffffffffffffffffffffffff16146108ce576040517f08c379a00000000000000000000000000000000000000000000000000000000081526004016108c590611e8e565b60405180910390fd5b6001600360008473ffffffffffffffffffffffffffffffffffffffff1673ffffffffffffffffffffffffffffffffffffffff168152602001908152602001600020600082825461091e9190611edd565b92505081905550816002600083815260200190815260200160002060006101000a81548173ffffffffffffffffffffffffffffffffffffffff021916908373ffffffffffffffffffffffffffffffffffffffff160217905550808273ffffffffffffffffffffffffffffffffffffffff16600073ffffffffffffffffffffffffffffffffffffffff167fddf252ad1be2c89b69c2b068fc378daa952ba7f163c4a11628f55a4df523b3ef60405160405180910390a45050565b60006002600083815260200190815260200160002060009054906101000a900473ffffffffffffffffffffffffffffffffffffffff169050600073ffffffffffffffffffffffffffffffffffffffff168173ffffffffffffffffffffffffffffffffffffffff1603610a7e576040517f08c379a0000000000000000000000000000000000000000000000000000000008152600401610a7590611cde565b60405180910390fd5b919050565b60008073ffffffffffffffffffffffffffffffffffffffff168273ffffffffffffffffffffffffffffffffffffffff1603610af3576040517f08c379a0000000000000000000000000000000000000000000000000000000008152600401610aea90611f5d565b60405180910390fd5b600360008373ffffffffffffffffffffffffffffffffffffffff1673ffffffffffffffffffffffffffffffffffffffff168152602001908152602001600020549050919050565b60018054610b4790611c61565b80601f0160208091040260200160405190810160405280929190818152602001828054610b7390611c61565b8015610bc05780601f10610b9557610100808354040283529160200191610bc0565b820191906000526020600020905b815481529060010190602001808311610ba357829003601f168201915b505050505081565b80600560003373ffffffffffffffffffffffffffffffffffffffff1673ffffffffffffffffffffffffffffffffffffffff16815260200190815260200160002060008473ffffffffffffffffffffffffffffffffffffffff1673ffffffffffffffffffffffffffffffffffffffff16815260200190815260200160002060006101000a81548160ff0219169083151502179055508173ffffffffffffffffffffffffffffffffffffffff163373ffffffffffffffffffffffffffffffffffffffff167f17307eab39ab6107e8899845ad3d59bd9653f200f220920489ca2b5937696c3183604051610cb9919061172c565b60405180910390a35050565b6000610cd0836109d7565b9050610cdd813385610f77565b610d1c576040517f08c379a0000000000000000000000000000000000000000000000000000000008152600401610d1390611db6565b60405180910390fd5b610d2981868686866112f5565b5050505050565b6060600073ffffffffffffffffffffffffffffffffffffffff166002600084815260200190815260200160002060009054906101000a900473ffffffffffffffffffffffffffffffffffffffff1673ffffffffffffffffffffffffffffffffffffffff1603610dd4576040517f08c379a0000000000000000000000000000000000000000000000000000000008152600401610dcb90611fc9565b60405180910390fd5b6000610dde611353565b90506000815111610dfe5760405180602001604052806000815250610e29565b80610e088461136a565b604051602001610e19929190612025565b6040516020818303038152906040525b915050919050565b6000600560008473ffffffffffffffffffffffffffffffffffffffff1673ffffffffffffffffffffffffffffffffffffffff16815260200190815260200160002060008373ffffffffffffffffffffffffffffffffffffffff1673ffffffffffffffffffffffffffffffffffffffff16815260200190815260200160002060009054906101000a900460ff16905092915050565b816004600083815260200190815260200160002060006101000a81548173ffffffffffffffffffffffffffffffffffffffff021916908373ffffffffffffffffffffffffffffffffffffffff160217905550808273ffffffffffffffffffffffffffffffffffffffff168473ffffffffffffffffffffffffffffffffffffffff167f8c5be1e5ebec7d5bd14f71427d1e84f3dd0314c0f7b2291e5b200ac8c7c3b92560405160405180910390a4505050565b60008373ffffffffffffffffffffffffffffffffffffffff168373ffffffffffffffffffffffffffffffffffffffff16148061101157508273ffffffffffffffffffffffffffffffffffffffff166004600084815260200190815260200160002060009054906101000a900473ffffffffffffffffffffffffffffffffffffffff1673ffffffffffffffffffffffffffffffffffffffff16145b806110a25750600560008573ffffffffffffffffffffffffffffffffffffffff1673ffffffffffffffffffffffffffffffffffffffff16815260200190815260200160002060008473ffffffffffffffffffffffffffffffffffffffff1673ffffffffffffffffffffffffffffffffffffffff16815260200190815260200160002060009054906101000a900460ff165b90509392505050565b8373ffffffffffffffffffffffffffffffffffffffff168373ffffffffffffffffffffffffffffffffffffffff1614611119576040517f08c379a000000000000000000000000000000000000000000000000000000000815260040161111090612095565b60405180910390fd5b600073ffffffffffffffffffffffffffffffffffffffff168273ffffffffffffffffffffffffffffffffffffffff1603611188576040517f08c379a000000000000000000000000000000000000000000000000000000000815260040161117f90612101565b60405180910390fd5b61119484600083610ec5565b6001600360008573ffffffffffffffffffffffffffffffffffffffff1673ffffffffffffffffffffffffffffffffffffffff16815260200190815260200160002060008282546111e49190612121565b925050819055506001600360008473ffffffffffffffffffffffffffffffffffffffff1673ffffffffffffffffffffffffffffffffffffffff168152602001908152602001600020600082825461123b9190611edd565b92505081905550816002600083815260200190815260200160002060006101000a81548173ffffffffffffffffffffffffffffffffffffffff021916908373ffffffffffffffffffffffffffffffffffffffff160217905550808273ffffffffffffffffffffffffffffffffffffffff168473ffffffffffffffffffffffffffffffffffffffff167fddf252ad1be2c89b69c2b068fc378daa952ba7f163c4a11628f55a4df523b3ef60405160405180910390a450505050565b611301858585856110ab565b61130d84848484611438565b61134c576040517f08c379a0000000000000000000000000000000000000000000000000000000008152600401611343906121a1565b60405180910390fd5b5050505050565b606060405180602001604052806000815250905090565b60606000600161137984611525565b01905060008167ffffffffffffffff81111561139857611397611a44565b5b6040519080825280601f01601f1916602001820160405280156113ca5781602001600182028036833780820191505090505b509050600082602001820190505b60011561142d578080600190039150507f3031323334353637383961626364656600000000000000000000000000000000600a86061a8153600a8581611421576114206121c1565b5b049450600085036113d8575b819350505050919050565b60006114438461071b565b156115185763150b7a0260e01b7bffffffffffffffffffffffffffffffffffffffffffffffffffffffff19168473ffffffffffffffffffffffffffffffffffffffff1663150b7a02338887876040518563ffffffff1660e01b81526004016114ae9493929190612245565b6020604051808303816000875af11580156114cd573d6000803e3d6000fd5b505050506040513d601f19601f820116820180604052508101906114f191906122a6565b7bffffffffffffffffffffffffffffffffffffffffffffffffffffffff191614905061151d565b600190505b949350505050565b600080600090507a184f03e93ff9f4daa797ed6e38ed64bf6a1f0100000000000000008310611583577a184f03e93ff9f4daa797ed6e38ed64bf6a1f0100000000000000008381611579576115786121c1565b5b0492506040810190505b6d04ee2d6d415b85acef810000000083106115c0576d04ee2d6d415b85acef810000000083816115b6576115b56121c1565b5b0492506020810190505b662386f26fc1000083106115ef57662386f26fc1000083816115e5576115e46121c1565b5b0492506010810190505b6305f5e1008310611618576305f5e100838161160e5761160d6121c1565b5b0492506008810190505b612710831061163d576127108381611633576116326121c1565b5b0492506004810190505b606483106116605760648381611656576116556121c1565b5b0492506002810190505b600a831061166f576001810190505b80915050919050565b6000604051905090565b600080fd5b600080fd5b60007fffffffff0000000000000000000000000000000000000000000000000000000082169050919050565b6116c18161168c565b81146116cc57600080fd5b50565b6000813590506116de816116b8565b92915050565b6000602082840312156116fa576116f9611682565b5b6000611708848285016116cf565b91505092915050565b60008115159050919050565b61172681611711565b82525050565b6000602082019050611741600083018461171d565b92915050565b600081519050919050565b600082825260208201905092915050565b60005b83811015611781578082015181840152602081019050611766565b60008484015250505050565b6000601f19601f8301169050919050565b60006117a982611747565b6117b38185611752565b93506117c3818560208601611763565b6117cc8161178d565b840191505092915050565b600060208201905081810360008301526117f1818461179e565b905092915050565b6000819050919050565b61180c816117f9565b811461181757600080fd5b50565b60008135905061182981611803565b92915050565b60006020828403121561184557611844611682565b5b60006118538482850161181a565b91505092915050565b600073ffffffffffffffffffffffffffffffffffffffff82169050919050565b60006118878261185c565b9050919050565b6118978161187c565b82525050565b60006020820190506118b2600083018461188e565b92915050565b6118c18161187c565b81146118cc57600080fd5b50565b6000813590506118de816118b8565b92915050565b600080604083850312156118fb576118fa611682565b5b6000611909858286016118cf565b925050602061191a8582860161181a565b9150509250929050565b60006020828403121561193a57611939611682565b5b6000611948848285016118cf565b91505092915050565b60008060006060848603121561196a57611969611682565b5b6000611978868287016118cf565b9350506020611989868287016118cf565b925050604061199a8682870161181a565b9150509250925092565b6119ad816117f9565b82525050565b60006020820190506119c860008301846119a4565b92915050565b6119d781611711565b81146119e257600080fd5b50565b6000813590506119f4816119ce565b92915050565b60008060408385031215611a1157611a10611682565b5b6000611a1f858286016118cf565b9250506020611a30858286016119e5565b9150509250929050565b600080fd5b600080fd5b7f4e487b7100000000000000000000000000000000000000000000000000000000600052604160045260246000fd5b611a7c8261178d565b810181811067ffffffffffffffff82111715611a9b57611a9a611a44565b5b80604052505050565b6000611aae611678565b9050611aba8282611a73565b919050565b600067ffffffffffffffff821115611ada57611ad9611a44565b5b611ae38261178d565b9050602081019050919050565b82818337600083830152505050565b6000611b12611b0d84611abf565b611aa4565b905082815260208101848484011115611b2e57611b2d611a3f565b5b611b39848285611af0565b509392505050565b600082601f830112611b5657611b55611a3a565b5b8135611b66848260208601611aff565b91505092915050565b60008060008060808587031215611b8957611b88611682565b5b6000611b97878288016118cf565b9450506020611ba8878288016118cf565b9350506040611bb98782880161181a565b925050606085013567ffffffffffffffff811115611bda57611bd9611687565b5b611be687828801611b41565b91505092959194509250565b60008060408385031215611c0957611c08611682565b5b6000611c17858286016118cf565b9250506020611c28858286016118cf565b9150509250929050565b7f4e487b7100000000000000000000000000000000000000000000000000000000600052602260045260246000fd5b60006002820490506001821680611c7957607f821691505b602082108103611c8c57611c8b611c32565b5b50919050565b7f746f6b656e20646f65736e277420657869737400000000000000000000000000600082015250565b6000611cc8601383611752565b9150611cd382611c92565b602082019050919050565b60006020820190508181036000830152611cf781611cbb565b9050919050565b7f6e6f74206f776e6572206e6f7220617070726f76656420666f7220616c6c0000600082015250565b6000611d34601e83611752565b9150611d3f82611cfe565b602082019050919050565b60006020820190508181036000830152611d6381611d27565b9050919050565b7f6e6f74206f776e6572206e6f7220617070726f76656400000000000000000000600082015250565b6000611da0601683611752565b9150611dab82611d6a565b602082019050919050565b60006020820190508181036000830152611dcf81611d93565b9050919050565b7f6d696e7420746f207a65726f2061646472657373000000000000000000000000600082015250565b6000611e0c601483611752565b9150611e1782611dd6565b602082019050919050565b60006020820190508181036000830152611e3b81611dff565b9050919050565b7f746f6b656e20616c7265616479206d696e746564000000000000000000000000600082015250565b6000611e78601483611752565b9150611e8382611e42565b602082019050919050565b60006020820190508181036000830152611ea781611e6b565b9050919050565b7f4e487b7100000000000000000000000000000000000000000000000000000000600052601160045260246000fd5b6000611ee8826117f9565b9150611ef3836117f9565b9250828201905080821115611f0b57611f0a611eae565b5b92915050565b7f6f776e6572203d207a65726f2061646472657373000000000000000000000000600082015250565b6000611f47601483611752565b9150611f5282611f11565b602082019050919050565b60006020820190508181036000830152611f7681611f3a565b9050919050565b7f546f6b656e204e6f742045786973740000000000000000000000000000000000600082015250565b6000611fb3600f83611752565b9150611fbe82611f7d565b602082019050919050565b60006020820190508181036000830152611fe281611fa6565b9050919050565b600081905092915050565b6000611fff82611747565b6120098185611fe9565b9350612019818560208601611763565b80840191505092915050565b60006120318285611ff4565b915061203d8284611ff4565b91508190509392505050565b7f6e6f74206f776e65720000000000000000000000000000000000000000000000600082015250565b600061207f600983611752565b915061208a82612049565b602082019050919050565b600060208201905081810360008301526120ae81612072565b9050919050565b7f7472616e7366657220746f20746865207a65726f206164647265737300000000600082015250565b60006120eb601c83611752565b91506120f6826120b5565b602082019050919050565b6000602082019050818103600083015261211a816120de565b9050919050565b600061212c826117f9565b9150612137836117f9565b925082820390508181111561214f5761214e611eae565b5b92915050565b7f6e6f742045524337323152656365697665720000000000000000000000000000600082015250565b600061218b601283611752565b915061219682612155565b602082019050919050565b600060208201905081810360008301526121ba8161217e565b9050919050565b7f4e487b7100000000000000000000000000000000000000000000000000000000600052601260045260246000fd5b600081519050919050565b600082825260208201905092915050565b6000612217826121f0565b61222181856121fb565b9350612231818560208601611763565b61223a8161178d565b840191505092915050565b600060808201905061225a600083018761188e565b612267602083018661188e565b61227460408301856119a4565b8181036060830152612286818461220c565b905095945050505050565b6000815190506122a0816116b8565b92915050565b6000602082840312156122bc576122bb611682565b5b60006122ca84828501612291565b9150509291505056fea264697066735822122038cdaaf94404bafd7ce5e5a142b54553458ce17ab56623e7ca0d623b6eb4586364736f6c63430008190033",
					"opcodes": "PUSH1 0x80 PUSH1 0x40 MSTORE CALLVALUE DUP1 ISZERO PUSH2 0x10 JUMPI PUSH1 0x0 DUP1 REVERT JUMPDEST POP PUSH1 0x40 MLOAD PUSH2 0x2851 CODESIZE SUB DUP1 PUSH2 0x2851 DUP4 CODECOPY DUP2 DUP2 ADD PUSH1 0x40 MSTORE DUP2 ADD SWAP1 PUSH2 0x32 SWAP2 SWAP1 PUSH2 0x1CE JUMP JUMPDEST DUP2 PUSH1 0x0 SWAP1 DUP2 PUSH2 0x41 SWAP2 SWAP1 PUSH2 0x467 JUMP JUMPDEST POP DUP1 PUSH1 0x1 SWAP1 DUP2 PUSH2 0x51 SWAP2 SWAP1 PUSH2 0x467 JUMP JUMPDEST POP POP POP PUSH2 0x539 JUMP JUMPDEST PUSH1 0x0 PUSH1 0x40 MLOAD SWAP1 POP SWAP1 JUMP JUMPDEST PUSH1 0x0 DUP1 REVERT JUMPDEST PUSH1 0x0 DUP1 REVERT JUMPDEST PUSH1 0x0 DUP1 REVERT JUMPDEST PUSH1 0x0 DUP1 REVERT JUMPDEST PUSH1 0x0 PUSH1 0x1F NOT PUSH1 0x1F DUP4 ADD AND SWAP1 POP SWAP2 SWAP1 POP JUMP JUMPDEST PUSH32 0x4E487B7100000000000000000000000000000000000000000000000000000000 PUSH1 0x0 MSTORE PUSH1 0x41 PUSH1 0x4 MSTORE PUSH1 0x24 PUSH1 0x0 REVERT JUMPDEST PUSH2 0xC0 DUP3 PUSH2 0x77 JUMP JUMPDEST DUP2 ADD DUP2 DUP2 LT PUSH8 0xFFFFFFFFFFFFFFFF DUP3 GT OR ISZERO PUSH2 0xDF JUMPI PUSH2 0xDE PUSH2 0x88 JUMP JUMPDEST JUMPDEST DUP1 PUSH1 0x40 MSTORE POP POP POP JUMP JUMPDEST PUSH1 0x0 PUSH2 0xF2 PUSH2 0x59 JUMP JUMPDEST SWAP1 POP PUSH2 0xFE DUP3 DUP3 PUSH2 0xB7 JUMP JUMPDEST SWAP2 SWAP1 POP JUMP JUMPDEST PUSH1 0x0 PUSH8 0xFFFFFFFFFFFFFFFF DUP3 GT ISZERO PUSH2 0x11E JUMPI PUSH2 0x11D PUSH2 0x88 JUMP JUMPDEST JUMPDEST PUSH2 0x127 DUP3 PUSH2 0x77 JUMP JUMPDEST SWAP1 POP PUSH1 0x20 DUP2 ADD SWAP1 POP SWAP2 SWAP1 POP JUMP JUMPDEST PUSH1 0x0 JUMPDEST DUP4 DUP2 LT ISZERO PUSH2 0x152 JUMPI DUP1 DUP3 ADD MLOAD DUP2 DUP5 ADD MSTORE PUSH1 0x20 DUP2 ADD SWAP1 POP PUSH2 0x137 JUMP JUMPDEST PUSH1 0x0 DUP5 DUP5 ADD MSTORE POP POP POP POP JUMP JUMPDEST PUSH1 0x0 PUSH2 0x171 PUSH2 0x16C DUP5 PUSH2 0x103 JUMP JUMPDEST PUSH2 0xE8 JUMP JUMPDEST SWAP1 POP DUP3 DUP2 MSTORE PUSH1 0x20 DUP2 ADD DUP5 DUP5 DUP5 ADD GT ISZERO PUSH2 0x18D JUMPI PUSH2 0x18C PUSH2 0x72 JUMP JUMPDEST JUMPDEST PUSH2 0x198 DUP5 DUP3 DUP6 PUSH2 0x134 JUMP JUMPDEST POP SWAP4 SWAP3 POP POP POP JUMP JUMPDEST PUSH1 0x0 DUP3 PUSH1 0x1F DUP4 ADD SLT PUSH2 0x1B5 JUMPI PUSH2 0x1B4 PUSH2 0x6D JUMP JUMPDEST JUMPDEST DUP2 MLOAD PUSH2 0x1C5 DUP5 DUP3 PUSH1 0x20 DUP7 ADD PUSH2 0x15E JUMP JUMPDEST SWAP2 POP POP SWAP3 SWAP2 POP POP JUMP JUMPDEST PUSH1 0x0 DUP1 PUSH1 0x40 DUP4 DUP6 SUB SLT ISZERO PUSH2 0x1E5 JUMPI PUSH2 0x1E4 PUSH2 0x63 JUMP JUMPDEST JUMPDEST PUSH1 0x0 DUP4 ADD MLOAD PUSH8 0xFFFFFFFFFFFFFFFF DUP2 GT ISZERO PUSH2 0x203 JUMPI PUSH2 0x202 PUSH2 0x68 JUMP JUMPDEST JUMPDEST PUSH2 0x20F DUP6 DUP3 DUP7 ADD PUSH2 0x1A0 JUMP JUMPDEST SWAP3 POP POP PUSH1 0x20 DUP4 ADD MLOAD PUSH8 0xFFFFFFFFFFFFFFFF DUP2 GT ISZERO PUSH2 0x230 JUMPI PUSH2 0x22F PUSH2 0x68 JUMP JUMPDEST JUMPDEST PUSH2 0x23C DUP6 DUP3 DUP7 ADD PUSH2 0x1A0 JUMP JUMPDEST SWAP2 POP POP SWAP3 POP SWAP3 SWAP1 POP JUMP JUMPDEST PUSH1 0x0 DUP2 MLOAD SWAP1 POP SWAP2 SWAP1 POP JUMP JUMPDEST PUSH32 0x4E487B7100000000000000000000000000000000000000000000000000000000 PUSH1 0x0 MSTORE PUSH1 0x22 PUSH1 0x4 MSTORE PUSH1 0x24 PUSH1 0x0 REVERT JUMPDEST PUSH1 0x0 PUSH1 0x2 DUP3 DIV SWAP1 POP PUSH1 0x1 DUP3 AND DUP1 PUSH2 0x298 JUMPI PUSH1 0x7F DUP3 AND SWAP2 POP JUMPDEST PUSH1 0x20 DUP3 LT DUP2 SUB PUSH2 0x2AB JUMPI PUSH2 0x2AA PUSH2 0x251 JUMP JUMPDEST JUMPDEST POP SWAP2 SWAP1 POP JUMP JUMPDEST PUSH1 0x0 DUP2 SWAP1 POP DUP2 PUSH1 0x0 MSTORE PUSH1 0x20 PUSH1 0x0 KECCAK256 SWAP1 POP SWAP2 SWAP1 POP JUMP JUMPDEST PUSH1 0x0 PUSH1 0x20 PUSH1 0x1F DUP4 ADD DIV SWAP1 POP SWAP2 SWAP1 POP JUMP JUMPDEST PUSH1 0x0 DUP3 DUP3 SHL SWAP1 POP SWAP3 SWAP2 POP POP JUMP JUMPDEST PUSH1 0x0 PUSH1 0x8 DUP4 MUL PUSH2 0x313 PUSH32 0xFFFFFFFFFFFFFFFFFFFFFFFFFFFFFFFFFFFFFFFFFFFFFFFFFFFFFFFFFFFFFFFF DUP3 PUSH2 0x2D6 JUMP JUMPDEST PUSH2 0x31D DUP7 DUP4 PUSH2 0x2D6 JUMP JUMPDEST SWAP6 POP DUP1 NOT DUP5 AND SWAP4 POP DUP1 DUP7 AND DUP5 OR SWAP3 POP POP POP SWAP4 SWAP3 POP POP POP JUMP JUMPDEST PUSH1 0x0 DUP2 SWAP1 POP SWAP2 SWAP1 POP JUMP JUMPDEST PUSH1 0x0 DUP2 SWAP1 POP SWAP2 SWAP1 POP JUMP JUMPDEST PUSH1 0x0 PUSH2 0x364 PUSH2 0x35F PUSH2 0x35A DUP5 PUSH2 0x335 JUMP JUMPDEST PUSH2 0x33F JUMP JUMPDEST PUSH2 0x335 JUMP JUMPDEST SWAP1 POP SWAP2 SWAP1 POP JUMP JUMPDEST PUSH1 0x0 DUP2 SWAP1 POP SWAP2 SWAP1 POP JUMP JUMPDEST PUSH2 0x37E DUP4 PUSH2 0x349 JUMP JUMPDEST PUSH2 0x392 PUSH2 0x38A DUP3 PUSH2 0x36B JUMP JUMPDEST DUP5 DUP5 SLOAD PUSH2 0x2E3 JUMP JUMPDEST DUP3 SSTORE POP POP POP POP JUMP JUMPDEST PUSH1 0x0 SWAP1 JUMP JUMPDEST PUSH2 0x3A7 PUSH2 0x39A JUMP JUMPDEST PUSH2 0x3B2 DUP2 DUP5 DUP5 PUSH2 0x375 JUMP JUMPDEST POP POP POP JUMP JUMPDEST JUMPDEST DUP2 DUP2 LT ISZERO PUSH2 0x3D6 JUMPI PUSH2 0x3CB PUSH1 0x0 DUP3 PUSH2 0x39F JUMP JUMPDEST PUSH1 0x1 DUP2 ADD SWAP1 POP PUSH2 0x3B8 JUMP JUMPDEST POP POP JUMP JUMPDEST PUSH1 0x1F DUP3 GT ISZERO PUSH2 0x41B JUMPI PUSH2 0x3EC DUP2 PUSH2 0x2B1 JUMP JUMPDEST PUSH2 0x3F5 DUP5 PUSH2 0x2C6 JUMP JUMPDEST DUP2 ADD PUSH1 0x20 DUP6 LT ISZERO PUSH2 0x404 JUMPI DUP2 SWAP1 POP JUMPDEST PUSH2 0x418 PUSH2 0x410 DUP6 PUSH2 0x2C6 JUMP JUMPDEST DUP4 ADD DUP3 PUSH2 0x3B7 JUMP JUMPDEST POP POP JUMPDEST POP POP POP JUMP JUMPDEST PUSH1 0x0 DUP3 DUP3 SHR SWAP1 POP SWAP3 SWAP2 POP POP JUMP JUMPDEST PUSH1 0x0 PUSH2 0x43E PUSH1 0x0 NOT DUP5 PUSH1 0x8 MUL PUSH2 0x420 JUMP JUMPDEST NOT DUP1 DUP4 AND SWAP2 POP POP SWAP3 SWAP2 POP POP JUMP JUMPDEST PUSH1 0x0 PUSH2 0x457 DUP4 DUP4 PUSH2 0x42D JUMP JUMPDEST SWAP2 POP DUP3 PUSH1 0x2 MUL DUP3 OR SWAP1 POP SWAP3 SWAP2 POP POP JUMP JUMPDEST PUSH2 0x470 DUP3 PUSH2 0x246 JUMP JUMPDEST PUSH8 0xFFFFFFFFFFFFFFFF DUP2 GT ISZERO PUSH2 0x489 JUMPI PUSH2 0x488 PUSH2 0x88 JUMP JUMPDEST JUMPDEST PUSH2 0x493 DUP3 SLOAD PUSH2 0x280 JUMP JUMPDEST PUSH2 0x49E DUP3 DUP3 DUP6 PUSH2 0x3DA JUMP JUMPDEST PUSH1 0x0 PUSH1 0x20 SWAP1 POP PUSH1 0x1F DUP4 GT PUSH1 0x1 DUP2 EQ PUSH2 0x4D1 JUMPI PUSH1 0x0 DUP5 ISZERO PUSH2 0x4BF JUMPI DUP3 DUP8 ADD MLOAD SWAP1 POP JUMPDEST PUSH2 0x4C9 DUP6 DUP3 PUSH2 0x44B JUMP JUMPDEST DUP7 SSTORE POP PUSH2 0x531 JUMP JUMPDEST PUSH1 0x1F NOT DUP5 AND PUSH2 0x4DF DUP7 PUSH2 0x2B1 JUMP JUMPDEST PUSH1 0x0 JUMPDEST DUP3 DUP2 LT ISZERO PUSH2 0x507 JUMPI DUP5 DUP10 ADD MLOAD DUP3 SSTORE PUSH1 0x1 DUP3 ADD SWAP2 POP PUSH1 0x20 DUP6 ADD SWAP5 POP PUSH1 0x20 DUP2 ADD SWAP1 POP PUSH2 0x4E2 JUMP JUMPDEST DUP7 DUP4 LT ISZERO PUSH2 0x524 JUMPI DUP5 DUP10 ADD MLOAD PUSH2 0x520 PUSH1 0x1F DUP10 AND DUP3 PUSH2 0x42D JUMP JUMPDEST DUP4 SSTORE POP JUMPDEST PUSH1 0x1 PUSH1 0x2 DUP9 MUL ADD DUP9 SSTORE POP POP POP JUMPDEST POP POP POP POP POP POP JUMP JUMPDEST PUSH2 0x2309 DUP1 PUSH2 0x548 PUSH1 0x0 CODECOPY PUSH1 0x0 RETURN INVALID PUSH1 0x80 PUSH1 0x40 MSTORE CALLVALUE DUP1 ISZERO PUSH2 0x10 JUMPI PUSH1 0x0 DUP1 REVERT JUMPDEST POP PUSH1 0x4 CALLDATASIZE LT PUSH2 0xF5 JUMPI PUSH1 0x0 CALLDATALOAD PUSH1 0xE0 SHR DUP1 PUSH4 0x4E6EC247 GT PUSH2 0x97 JUMPI DUP1 PUSH4 0xA22CB465 GT PUSH2 0x66 JUMPI DUP1 PUSH4 0xA22CB465 EQ PUSH2 0x296 JUMPI DUP1 PUSH4 0xB88D4FDE EQ PUSH2 0x2B2 JUMPI DUP1 PUSH4 0xC87B56DD EQ PUSH2 0x2CE JUMPI DUP1 PUSH4 0xE985E9C5 EQ PUSH2 0x2FE JUMPI PUSH2 0xF5 JUMP JUMPDEST DUP1 PUSH4 0x4E6EC247 EQ PUSH2 0x1FC JUMPI DUP1 PUSH4 0x6352211E EQ PUSH2 0x218 JUMPI DUP1 PUSH4 0x70A08231 EQ PUSH2 0x248 JUMPI DUP1 PUSH4 0x95D89B41 EQ PUSH2 0x278 JUMPI PUSH2 0xF5 JUMP JUMPDEST DUP1 PUSH4 0x95EA7B3 GT PUSH2 0xD3 JUMPI DUP1 PUSH4 0x95EA7B3 EQ PUSH2 0x178 JUMPI DUP1 PUSH4 0x16279055 EQ PUSH2 0x194 JUMPI DUP1 PUSH4 0x23B872DD EQ PUSH2 0x1C4 JUMPI DUP1 PUSH4 0x42842E0E EQ PUSH2 0x1E0 JUMPI PUSH2 0xF5 JUMP JUMPDEST DUP1 PUSH4 0x1FFC9A7 EQ PUSH2 0xFA JUMPI DUP1 PUSH4 0x6FDDE03 EQ PUSH2 0x12A JUMPI DUP1 PUSH4 0x81812FC EQ PUSH2 0x148 JUMPI JUMPDEST PUSH1 0x0 DUP1 REVERT JUMPDEST PUSH2 0x114 PUSH1 0x4 DUP1 CALLDATASIZE SUB DUP2 ADD SWAP1 PUSH2 0x10F SWAP2 SWAP1 PUSH2 0x16E4 JUMP JUMPDEST PUSH2 0x32E JUMP JUMPDEST PUSH1 0x40 MLOAD PUSH2 0x121 SWAP2 SWAP1 PUSH2 0x172C JUMP JUMPDEST PUSH1 0x40 MLOAD DUP1 SWAP2 SUB SWAP1 RETURN JUMPDEST PUSH2 0x132 PUSH2 0x468 JUMP JUMPDEST PUSH1 0x40 MLOAD PUSH2 0x13F SWAP2 SWAP1 PUSH2 0x17D7 JUMP JUMPDEST PUSH1 0x40 MLOAD DUP1 SWAP2 SUB SWAP1 RETURN JUMPDEST PUSH2 0x162 PUSH1 0x4 DUP1 CALLDATASIZE SUB DUP2 ADD SWAP1 PUSH2 0x15D SWAP2 SWAP1 PUSH2 0x182F JUMP JUMPDEST PUSH2 0x4F6 JUMP JUMPDEST PUSH1 0x40 MLOAD PUSH2 0x16F SWAP2 SWAP1 PUSH2 0x189D JUMP JUMPDEST PUSH1 0x40 MLOAD DUP1 SWAP2 SUB SWAP1 RETURN JUMPDEST PUSH2 0x192 PUSH1 0x4 DUP1 CALLDATASIZE SUB DUP2 ADD SWAP1 PUSH2 0x18D SWAP2 SWAP1 PUSH2 0x18E4 JUMP JUMPDEST PUSH2 0x5D4 JUMP JUMPDEST STOP JUMPDEST PUSH2 0x1AE PUSH1 0x4 DUP1 CALLDATASIZE SUB DUP2 ADD SWAP1 PUSH2 0x1A9 SWAP2 SWAP1 PUSH2 0x1924 JUMP JUMPDEST PUSH2 0x71B JUMP JUMPDEST PUSH1 0x40 MLOAD PUSH2 0x1BB SWAP2 SWAP1 PUSH2 0x172C JUMP JUMPDEST PUSH1 0x40 MLOAD DUP1 SWAP2 SUB SWAP1 RETURN JUMPDEST PUSH2 0x1DE PUSH1 0x4 DUP1 CALLDATASIZE SUB DUP2 ADD SWAP1 PUSH2 0x1D9 SWAP2 SWAP1 PUSH2 0x1951 JUMP JUMPDEST PUSH2 0x734 JUMP JUMPDEST STOP JUMPDEST PUSH2 0x1FA PUSH1 0x4 DUP1 CALLDATASIZE SUB DUP2 ADD SWAP1 PUSH2 0x1F5 SWAP2 SWAP1 PUSH2 0x1951 JUMP JUMPDEST PUSH2 0x79D JUMP JUMPDEST STOP JUMPDEST PUSH2 0x216 PUSH1 0x4 DUP1 CALLDATASIZE SUB DUP2 ADD SWAP1 PUSH2 0x211 SWAP2 SWAP1 PUSH2 0x18E4 JUMP JUMPDEST PUSH2 0x7BD JUMP JUMPDEST STOP JUMPDEST PUSH2 0x232 PUSH1 0x4 DUP1 CALLDATASIZE SUB DUP2 ADD SWAP1 PUSH2 0x22D SWAP2 SWAP1 PUSH2 0x182F JUMP JUMPDEST PUSH2 0x9D7 JUMP JUMPDEST PUSH1 0x40 MLOAD PUSH2 0x23F SWAP2 SWAP1 PUSH2 0x189D JUMP JUMPDEST PUSH1 0x40 MLOAD DUP1 SWAP2 SUB SWAP1 RETURN JUMPDEST PUSH2 0x262 PUSH1 0x4 DUP1 CALLDATASIZE SUB DUP2 ADD SWAP1 PUSH2 0x25D SWAP2 SWAP1 PUSH2 0x1924 JUMP JUMPDEST PUSH2 0xA83 JUMP JUMPDEST PUSH1 0x40 MLOAD PUSH2 0x26F SWAP2 SWAP1 PUSH2 0x19B3 JUMP JUMPDEST PUSH1 0x40 MLOAD DUP1 SWAP2 SUB SWAP1 RETURN JUMPDEST PUSH2 0x280 PUSH2 0xB3A JUMP JUMPDEST PUSH1 0x40 MLOAD PUSH2 0x28D SWAP2 SWAP1 PUSH2 0x17D7 JUMP JUMPDEST PUSH1 0x40 MLOAD DUP1 SWAP2 SUB SWAP1 RETURN JUMPDEST PUSH2 0x2B0 PUSH1 0x4 DUP1 CALLDATASIZE SUB DUP2 ADD SWAP1 PUSH2 0x2AB SWAP2 SWAP1 PUSH2 0x19FA JUMP JUMPDEST PUSH2 0xBC8 JUMP JUMPDEST STOP JUMPDEST PUSH2 0x2CC PUSH1 0x4 DUP1 CALLDATASIZE SUB DUP2 ADD SWAP1 PUSH2 0x2C7 SWAP2 SWAP1 PUSH2 0x1B6F JUMP JUMPDEST PUSH2 0xCC5 JUMP JUMPDEST STOP JUMPDEST PUSH2 0x2E8 PUSH1 0x4 DUP1 CALLDATASIZE SUB DUP2 ADD SWAP1 PUSH2 0x2E3 SWAP2 SWAP1 PUSH2 0x182F JUMP JUMPDEST PUSH2 0xD30 JUMP JUMPDEST PUSH1 0x40 MLOAD PUSH2 0x2F5 SWAP2 SWAP1 PUSH2 0x17D7 JUMP JUMPDEST PUSH1 0x40 MLOAD DUP1 SWAP2 SUB SWAP1 RETURN JUMPDEST PUSH2 0x318 PUSH1 0x4 DUP1 CALLDATASIZE SUB DUP2 ADD SWAP1 PUSH2 0x313 SWAP2 SWAP1 PUSH2 0x1BF2 JUMP JUMPDEST PUSH2 0xE31 JUMP JUMPDEST PUSH1 0x40 MLOAD PUSH2 0x325 SWAP2 SWAP1 PUSH2 0x172C JUMP JUMPDEST PUSH1 0x40 MLOAD DUP1 SWAP2 SUB SWAP1 RETURN JUMPDEST PUSH1 0x0 PUSH32 0x80AC58CD00000000000000000000000000000000000000000000000000000000 PUSH28 0xFFFFFFFFFFFFFFFFFFFFFFFFFFFFFFFFFFFFFFFFFFFFFFFFFFFFFFFF NOT AND DUP3 PUSH28 0xFFFFFFFFFFFFFFFFFFFFFFFFFFFFFFFFFFFFFFFFFFFFFFFFFFFFFFFF NOT AND EQ DUP1 PUSH2 0x3F9 JUMPI POP PUSH32 0x1FFC9A700000000000000000000000000000000000000000000000000000000 PUSH28 0xFFFFFFFFFFFFFFFFFFFFFFFFFFFFFFFFFFFFFFFFFFFFFFFFFFFFFFFF NOT AND DUP3 PUSH28 0xFFFFFFFFFFFFFFFFFFFFFFFFFFFFFFFFFFFFFFFFFFFFFFFFFFFFFFFF NOT AND EQ JUMPDEST DUP1 PUSH2 0x461 JUMPI POP PUSH32 0x5B5E139F00000000000000000000000000000000000000000000000000000000 PUSH28 0xFFFFFFFFFFFFFFFFFFFFFFFFFFFFFFFFFFFFFFFFFFFFFFFFFFFFFFFF NOT AND DUP3 PUSH28 0xFFFFFFFFFFFFFFFFFFFFFFFFFFFFFFFFFFFFFFFFFFFFFFFFFFFFFFFF NOT AND EQ JUMPDEST SWAP1 POP SWAP2 SWAP1 POP JUMP JUMPDEST PUSH1 0x0 DUP1 SLOAD PUSH2 0x475 SWAP1 PUSH2 0x1C61 JUMP JUMPDEST DUP1 PUSH1 0x1F ADD PUSH1 0x20 DUP1 SWAP2 DIV MUL PUSH1 0x20 ADD PUSH1 0x40 MLOAD SWAP1 DUP2 ADD PUSH1 0x40 MSTORE DUP1 SWAP3 SWAP2 SWAP1 DUP2 DUP2 MSTORE PUSH1 0x20 ADD DUP3 DUP1 SLOAD PUSH2 0x4A1 SWAP1 PUSH2 0x1C61 JUMP JUMPDEST DUP1 ISZERO PUSH2 0x4EE JUMPI DUP1 PUSH1 0x1F LT PUSH2 0x4C3 JUMPI PUSH2 0x100 DUP1 DUP4 SLOAD DIV MUL DUP4 MSTORE SWAP2 PUSH1 0x20 ADD SWAP2 PUSH2 0x4EE JUMP JUMPDEST DUP3 ADD SWAP2 SWAP1 PUSH1 0x0 MSTORE PUSH1 0x20 PUSH1 0x0 KECCAK256 SWAP1 JUMPDEST DUP2 SLOAD DUP2 MSTORE SWAP1 PUSH1 0x1 ADD SWAP1 PUSH1 0x20 ADD DUP1 DUP4 GT PUSH2 0x4D1 JUMPI DUP3 SWAP1 SUB PUSH1 0x1F AND DUP3 ADD SWAP2 JUMPDEST POP POP POP POP POP DUP2 JUMP JUMPDEST PUSH1 0x0 DUP1 PUSH20 0xFFFFFFFFFFFFFFFFFFFFFFFFFFFFFFFFFFFFFFFF AND PUSH1 0x2 PUSH1 0x0 DUP5 DUP2 MSTORE PUSH1 0x20 ADD SWAP1 DUP2 MSTORE PUSH1 0x20 ADD PUSH1 0x0 KECCAK256 PUSH1 0x0 SWAP1 SLOAD SWAP1 PUSH2 0x100 EXP SWAP1 DIV PUSH20 0xFFFFFFFFFFFFFFFFFFFFFFFFFFFFFFFFFFFFFFFF AND PUSH20 0xFFFFFFFFFFFFFFFFFFFFFFFFFFFFFFFFFFFFFFFF AND SUB PUSH2 0x599 JUMPI PUSH1 0x40 MLOAD PUSH32 0x8C379A000000000000000000000000000000000000000000000000000000000 DUP2 MSTORE PUSH1 0x4 ADD PUSH2 0x590 SWAP1 PUSH2 0x1CDE JUMP JUMPDEST PUSH1 0x40 MLOAD DUP1 SWAP2 SUB SWAP1 REVERT JUMPDEST PUSH1 0x4 PUSH1 0x0 DUP4 DUP2 MSTORE PUSH1 0x20 ADD SWAP1 DUP2 MSTORE PUSH1 0x20 ADD PUSH1 0x0 KECCAK256 PUSH1 0x0 SWAP1 SLOAD SWAP1 PUSH2 0x100 EXP SWAP1 DIV PUSH20 0xFFFFFFFFFFFFFFFFFFFFFFFFFFFFFFFFFFFFFFFF AND SWAP1 POP SWAP2 SWAP1 POP JUMP JUMPDEST PUSH1 0x0 PUSH1 0x2 PUSH1 0x0 DUP4 DUP2 MSTORE PUSH1 0x20 ADD SWAP1 DUP2 MSTORE PUSH1 0x20 ADD PUSH1 0x0 KECCAK256 PUSH1 0x0 SWAP1 SLOAD SWAP1 PUSH2 0x100 EXP SWAP1 DIV PUSH20 0xFFFFFFFFFFFFFFFFFFFFFFFFFFFFFFFFFFFFFFFF AND SWAP1 POP DUP1 PUSH20 0xFFFFFFFFFFFFFFFFFFFFFFFFFFFFFFFFFFFFFFFF AND CALLER PUSH20 0xFFFFFFFFFFFFFFFFFFFFFFFFFFFFFFFFFFFFFFFF AND EQ DUP1 PUSH2 0x6CC JUMPI POP PUSH1 0x5 PUSH1 0x0 DUP3 PUSH20 0xFFFFFFFFFFFFFFFFFFFFFFFFFFFFFFFFFFFFFFFF AND PUSH20 0xFFFFFFFFFFFFFFFFFFFFFFFFFFFFFFFFFFFFFFFF AND DUP2 MSTORE PUSH1 0x20 ADD SWAP1 DUP2 MSTORE PUSH1 0x20 ADD PUSH1 0x0 KECCAK256 PUSH1 0x0 CALLER PUSH20 0xFFFFFFFFFFFFFFFFFFFFFFFFFFFFFFFFFFFFFFFF AND PUSH20 0xFFFFFFFFFFFFFFFFFFFFFFFFFFFFFFFFFFFFFFFF AND DUP2 MSTORE PUSH1 0x20 ADD SWAP1 DUP2 MSTORE PUSH1 0x20 ADD PUSH1 0x0 KECCAK256 PUSH1 0x0 SWAP1 SLOAD SWAP1 PUSH2 0x100 EXP SWAP1 DIV PUSH1 0xFF AND JUMPDEST PUSH2 0x70B JUMPI PUSH1 0x40 MLOAD PUSH32 0x8C379A000000000000000000000000000000000000000000000000000000000 DUP2 MSTORE PUSH1 0x4 ADD PUSH2 0x702 SWAP1 PUSH2 0x1D4A JUMP JUMPDEST PUSH1 0x40 MLOAD DUP1 SWAP2 SUB SWAP1 REVERT JUMPDEST PUSH2 0x716 DUP2 DUP5 DUP5 PUSH2 0xEC5 JUMP JUMPDEST POP POP POP JUMP JUMPDEST PUSH1 0x0 DUP1 DUP3 EXTCODESIZE SWAP1 POP PUSH1 0x0 DUP2 PUSH4 0xFFFFFFFF AND GT SWAP2 POP POP SWAP2 SWAP1 POP JUMP JUMPDEST PUSH1 0x0 PUSH2 0x73F DUP3 PUSH2 0x9D7 JUMP JUMPDEST SWAP1 POP PUSH2 0x74C DUP2 CALLER DUP5 PUSH2 0xF77 JUMP JUMPDEST PUSH2 0x78B JUMPI PUSH1 0x40 MLOAD PUSH32 0x8C379A000000000000000000000000000000000000000000000000000000000 DUP2 MSTORE PUSH1 0x4 ADD PUSH2 0x782 SWAP1 PUSH2 0x1DB6 JUMP JUMPDEST PUSH1 0x40 MLOAD DUP1 SWAP2 SUB SWAP1 REVERT JUMPDEST PUSH2 0x797 DUP2 DUP6 DUP6 DUP6 PUSH2 0x10AB JUMP JUMPDEST POP POP POP POP JUMP JUMPDEST PUSH2 0x7B8 DUP4 DUP4 DUP4 PUSH1 0x40 MLOAD DUP1 PUSH1 0x20 ADD PUSH1 0x40 MSTORE DUP1 PUSH1 0x0 DUP2 MSTORE POP PUSH2 0xCC5 JUMP JUMPDEST POP POP POP JUMP JUMPDEST PUSH1 0x0 PUSH20 0xFFFFFFFFFFFFFFFFFFFFFFFFFFFFFFFFFFFFFFFF AND DUP3 PUSH20 0xFFFFFFFFFFFFFFFFFFFFFFFFFFFFFFFFFFFFFFFF AND SUB PUSH2 0x82C JUMPI PUSH1 0x40 MLOAD PUSH32 0x8C379A000000000000000000000000000000000000000000000000000000000 DUP2 MSTORE PUSH1 0x4 ADD PUSH2 0x823 SWAP1 PUSH2 0x1E22 JUMP JUMPDEST PUSH1 0x40 MLOAD DUP1 SWAP2 SUB SWAP1 REVERT JUMPDEST PUSH1 0x0 PUSH20 0xFFFFFFFFFFFFFFFFFFFFFFFFFFFFFFFFFFFFFFFF AND PUSH1 0x2 PUSH1 0x0 DUP4 DUP2 MSTORE PUSH1 0x20 ADD SWAP1 DUP2 MSTORE PUSH1 0x20 ADD PUSH1 0x0 KECCAK256 PUSH1 0x0 SWAP1 SLOAD SWAP1 PUSH2 0x100 EXP SWAP1 DIV PUSH20 0xFFFFFFFFFFFFFFFFFFFFFFFFFFFFFFFFFFFFFFFF AND PUSH20 0xFFFFFFFFFFFFFFFFFFFFFFFFFFFFFFFFFFFFFFFF AND EQ PUSH2 0x8CE JUMPI PUSH1 0x40 MLOAD PUSH32 0x8C379A000000000000000000000000000000000000000000000000000000000 DUP2 MSTORE PUSH1 0x4 ADD PUSH2 0x8C5 SWAP1 PUSH2 0x1E8E JUMP JUMPDEST PUSH1 0x40 MLOAD DUP1 SWAP2 SUB SWAP1 REVERT JUMPDEST PUSH1 0x1 PUSH1 0x3 PUSH1 0x0 DUP5 PUSH20 0xFFFFFFFFFFFFFFFFFFFFFFFFFFFFFFFFFFFFFFFF AND PUSH20 0xFFFFFFFFFFFFFFFFFFFFFFFFFFFFFFFFFFFFFFFF AND DUP2 MSTORE PUSH1 0x20 ADD SWAP1 DUP2 MSTORE PUSH1 0x20 ADD PUSH1 0x0 KECCAK256 PUSH1 0x0 DUP3 DUP3 SLOAD PUSH2 0x91E SWAP2 SWAP1 PUSH2 0x1EDD JUMP JUMPDEST SWAP3 POP POP DUP2 SWAP1 SSTORE POP DUP2 PUSH1 0x2 PUSH1 0x0 DUP4 DUP2 MSTORE PUSH1 0x20 ADD SWAP1 DUP2 MSTORE PUSH1 0x20 ADD PUSH1 0x0 KECCAK256 PUSH1 0x0 PUSH2 0x100 EXP DUP2 SLOAD DUP2 PUSH20 0xFFFFFFFFFFFFFFFFFFFFFFFFFFFFFFFFFFFFFFFF MUL NOT AND SWAP1 DUP4 PUSH20 0xFFFFFFFFFFFFFFFFFFFFFFFFFFFFFFFFFFFFFFFF AND MUL OR SWAP1 SSTORE POP DUP1 DUP3 PUSH20 0xFFFFFFFFFFFFFFFFFFFFFFFFFFFFFFFFFFFFFFFF AND PUSH1 0x0 PUSH20 0xFFFFFFFFFFFFFFFFFFFFFFFFFFFFFFFFFFFFFFFF AND PUSH32 0xDDF252AD1BE2C89B69C2B068FC378DAA952BA7F163C4A11628F55A4DF523B3EF PUSH1 0x40 MLOAD PUSH1 0x40 MLOAD DUP1 SWAP2 SUB SWAP1 LOG4 POP POP JUMP JUMPDEST PUSH1 0x0 PUSH1 0x2 PUSH1 0x0 DUP4 DUP2 MSTORE PUSH1 0x20 ADD SWAP1 DUP2 MSTORE PUSH1 0x20 ADD PUSH1 0x0 KECCAK256 PUSH1 0x0 SWAP1 SLOAD SWAP1 PUSH2 0x100 EXP SWAP1 DIV PUSH20 0xFFFFFFFFFFFFFFFFFFFFFFFFFFFFFFFFFFFFFFFF AND SWAP1 POP PUSH1 0x0 PUSH20 0xFFFFFFFFFFFFFFFFFFFFFFFFFFFFFFFFFFFFFFFF AND DUP2 PUSH20 0xFFFFFFFFFFFFFFFFFFFFFFFFFFFFFFFFFFFFFFFF AND SUB PUSH2 0xA7E JUMPI PUSH1 0x40 MLOAD PUSH32 0x8C379A000000000000000000000000000000000000000000000000000000000 DUP2 MSTORE PUSH1 0x4 ADD PUSH2 0xA75 SWAP1 PUSH2 0x1CDE JUMP JUMPDEST PUSH1 0x40 MLOAD DUP1 SWAP2 SUB SWAP1 REVERT JUMPDEST SWAP2 SWAP1 POP JUMP JUMPDEST PUSH1 0x0 DUP1 PUSH20 0xFFFFFFFFFFFFFFFFFFFFFFFFFFFFFFFFFFFFFFFF AND DUP3 PUSH20 0xFFFFFFFFFFFFFFFFFFFFFFFFFFFFFFFFFFFFFFFF AND SUB PUSH2 0xAF3 JUMPI PUSH1 0x40 MLOAD PUSH32 0x8C379A000000000000000000000000000000000000000000000000000000000 DUP2 MSTORE PUSH1 0x4 ADD PUSH2 0xAEA SWAP1 PUSH2 0x1F5D JUMP JUMPDEST PUSH1 0x40 MLOAD DUP1 SWAP2 SUB SWAP1 REVERT JUMPDEST PUSH1 0x3 PUSH1 0x0 DUP4 PUSH20 0xFFFFFFFFFFFFFFFFFFFFFFFFFFFFFFFFFFFFFFFF AND PUSH20 0xFFFFFFFFFFFFFFFFFFFFFFFFFFFFFFFFFFFFFFFF AND DUP2 MSTORE PUSH1 0x20 ADD SWAP1 DUP2 MSTORE PUSH1 0x20 ADD PUSH1 0x0 KECCAK256 SLOAD SWAP1 POP SWAP2 SWAP1 POP JUMP JUMPDEST PUSH1 0x1 DUP1 SLOAD PUSH2 0xB47 SWAP1 PUSH2 0x1C61 JUMP JUMPDEST DUP1 PUSH1 0x1F ADD PUSH1 0x20 DUP1 SWAP2 DIV MUL PUSH1 0x20 ADD PUSH1 0x40 MLOAD SWAP1 DUP2 ADD PUSH1 0x40 MSTORE DUP1 SWAP3 SWAP2 SWAP1 DUP2 DUP2 MSTORE PUSH1 0x20 ADD DUP3 DUP1 SLOAD PUSH2 0xB73 SWAP1 PUSH2 0x1C61 JUMP JUMPDEST DUP1 ISZERO PUSH2 0xBC0 JUMPI DUP1 PUSH1 0x1F LT PUSH2 0xB95 JUMPI PUSH2 0x100 DUP1 DUP4 SLOAD DIV MUL DUP4 MSTORE SWAP2 PUSH1 0x20 ADD SWAP2 PUSH2 0xBC0 JUMP JUMPDEST DUP3 ADD SWAP2 SWAP1 PUSH1 0x0 MSTORE PUSH1 0x20 PUSH1 0x0 KECCAK256 SWAP1 JUMPDEST DUP2 SLOAD DUP2 MSTORE SWAP1 PUSH1 0x1 ADD SWAP1 PUSH1 0x20 ADD DUP1 DUP4 GT PUSH2 0xBA3 JUMPI DUP3 SWAP1 SUB PUSH1 0x1F AND DUP3 ADD SWAP2 JUMPDEST POP POP POP POP POP DUP2 JUMP JUMPDEST DUP1 PUSH1 0x5 PUSH1 0x0 CALLER PUSH20 0xFFFFFFFFFFFFFFFFFFFFFFFFFFFFFFFFFFFFFFFF AND PUSH20 0xFFFFFFFFFFFFFFFFFFFFFFFFFFFFFFFFFFFFFFFF AND DUP2 MSTORE PUSH1 0x20 ADD SWAP1 DUP2 MSTORE PUSH1 0x20 ADD PUSH1 0x0 KECCAK256 PUSH1 0x0 DUP5 PUSH20 0xFFFFFFFFFFFFFFFFFFFFFFFFFFFFFFFFFFFFFFFF AND PUSH20 0xFFFFFFFFFFFFFFFFFFFFFFFFFFFFFFFFFFFFFFFF AND DUP2 MSTORE PUSH1 0x20 ADD SWAP1 DUP2 MSTORE PUSH1 0x20 ADD PUSH1 0x0 KECCAK256 PUSH1 0x0 PUSH2 0x100 EXP DUP2 SLOAD DUP2 PUSH1 0xFF MUL NOT AND SWAP1 DUP4 ISZERO ISZERO MUL OR SWAP1 SSTORE POP DUP2 PUSH20 0xFFFFFFFFFFFFFFFFFFFFFFFFFFFFFFFFFFFFFFFF AND CALLER PUSH20 0xFFFFFFFFFFFFFFFFFFFFFFFFFFFFFFFFFFFFFFFF AND PUSH32 0x17307EAB39AB6107E8899845AD3D59BD9653F200F220920489CA2B5937696C31 DUP4 PUSH1 0x40 MLOAD PUSH2 0xCB9 SWAP2 SWAP1 PUSH2 0x172C JUMP JUMPDEST PUSH1 0x40 MLOAD DUP1 SWAP2 SUB SWAP1 LOG3 POP POP JUMP JUMPDEST PUSH1 0x0 PUSH2 0xCD0 DUP4 PUSH2 0x9D7 JUMP JUMPDEST SWAP1 POP PUSH2 0xCDD DUP2 CALLER DUP6 PUSH2 0xF77 JUMP JUMPDEST PUSH2 0xD1C JUMPI PUSH1 0x40 MLOAD PUSH32 0x8C379A000000000000000000000000000000000000000000000000000000000 DUP2 MSTORE PUSH1 0x4 ADD PUSH2 0xD13 SWAP1 PUSH2 0x1DB6 JUMP JUMPDEST PUSH1 0x40 MLOAD DUP1 SWAP2 SUB SWAP1 REVERT JUMPDEST PUSH2 0xD29 DUP2 DUP7 DUP7 DUP7 DUP7 PUSH2 0x12F5 JUMP JUMPDEST POP POP POP POP POP JUMP JUMPDEST PUSH1 0x60 PUSH1 0x0 PUSH20 0xFFFFFFFFFFFFFFFFFFFFFFFFFFFFFFFFFFFFFFFF AND PUSH1 0x2 PUSH1 0x0 DUP5 DUP2 MSTORE PUSH1 0x20 ADD SWAP1 DUP2 MSTORE PUSH1 0x20 ADD PUSH1 0x0 KECCAK256 PUSH1 0x0 SWAP1 SLOAD SWAP1 PUSH2 0x100 EXP SWAP1 DIV PUSH20 0xFFFFFFFFFFFFFFFFFFFFFFFFFFFFFFFFFFFFFFFF AND PUSH20 0xFFFFFFFFFFFFFFFFFFFFFFFFFFFFFFFFFFFFFFFF AND SUB PUSH2 0xDD4 JUMPI PUSH1 0x40 MLOAD PUSH32 0x8C379A000000000000000000000000000000000000000000000000000000000 DUP2 MSTORE PUSH1 0x4 ADD PUSH2 0xDCB SWAP1 PUSH2 0x1FC9 JUMP JUMPDEST PUSH1 0x40 MLOAD DUP1 SWAP2 SUB SWAP1 REVERT JUMPDEST PUSH1 0x0 PUSH2 0xDDE PUSH2 0x1353 JUMP JUMPDEST SWAP1 POP PUSH1 0x0 DUP2 MLOAD GT PUSH2 0xDFE JUMPI PUSH1 0x40 MLOAD DUP1 PUSH1 0x20 ADD PUSH1 0x40 MSTORE DUP1 PUSH1 0x0 DUP2 MSTORE POP PUSH2 0xE29 JUMP JUMPDEST DUP1 PUSH2 0xE08 DUP5 PUSH2 0x136A JUMP JUMPDEST PUSH1 0x40 MLOAD PUSH1 0x20 ADD PUSH2 0xE19 SWAP3 SWAP2 SWAP1 PUSH2 0x2025 JUMP JUMPDEST PUSH1 0x40 MLOAD PUSH1 0x20 DUP2 DUP4 SUB SUB DUP2 MSTORE SWAP1 PUSH1 0x40 MSTORE JUMPDEST SWAP2 POP POP SWAP2 SWAP1 POP JUMP JUMPDEST PUSH1 0x0 PUSH1 0x5 PUSH1 0x0 DUP5 PUSH20 0xFFFFFFFFFFFFFFFFFFFFFFFFFFFFFFFFFFFFFFFF AND PUSH20 0xFFFFFFFFFFFFFFFFFFFFFFFFFFFFFFFFFFFFFFFF AND DUP2 MSTORE PUSH1 0x20 ADD SWAP1 DUP2 MSTORE PUSH1 0x20 ADD PUSH1 0x0 KECCAK256 PUSH1 0x0 DUP4 PUSH20 0xFFFFFFFFFFFFFFFFFFFFFFFFFFFFFFFFFFFFFFFF AND PUSH20 0xFFFFFFFFFFFFFFFFFFFFFFFFFFFFFFFFFFFFFFFF AND DUP2 MSTORE PUSH1 0x20 ADD SWAP1 DUP2 MSTORE PUSH1 0x20 ADD PUSH1 0x0 KECCAK256 PUSH1 0x0 SWAP1 SLOAD SWAP1 PUSH2 0x100 EXP SWAP1 DIV PUSH1 0xFF AND SWAP1 POP SWAP3 SWAP2 POP POP JUMP JUMPDEST DUP2 PUSH1 0x4 PUSH1 0x0 DUP4 DUP2 MSTORE PUSH1 0x20 ADD SWAP1 DUP2 MSTORE PUSH1 0x20 ADD PUSH1 0x0 KECCAK256 PUSH1 0x0 PUSH2 0x100 EXP DUP2 SLOAD DUP2 PUSH20 0xFFFFFFFFFFFFFFFFFFFFFFFFFFFFFFFFFFFFFFFF MUL NOT AND SWAP1 DUP4 PUSH20 0xFFFFFFFFFFFFFFFFFFFFFFFFFFFFFFFFFFFFFFFF AND MUL OR SWAP1 SSTORE POP DUP1 DUP3 PUSH20 0xFFFFFFFFFFFFFFFFFFFFFFFFFFFFFFFFFFFFFFFF AND DUP5 PUSH20 0xFFFFFFFFFFFFFFFFFFFFFFFFFFFFFFFFFFFFFFFF AND PUSH32 0x8C5BE1E5EBEC7D5BD14F71427D1E84F3DD0314C0F7B2291E5B200AC8C7C3B925 PUSH1 0x40 MLOAD PUSH1 0x40 MLOAD DUP1 SWAP2 SUB SWAP1 LOG4 POP POP POP JUMP JUMPDEST PUSH1 0x0 DUP4 PUSH20 0xFFFFFFFFFFFFFFFFFFFFFFFFFFFFFFFFFFFFFFFF AND DUP4 PUSH20 0xFFFFFFFFFFFFFFFFFFFFFFFFFFFFFFFFFFFFFFFF AND EQ DUP1 PUSH2 0x1011 JUMPI POP DUP3 PUSH20 0xFFFFFFFFFFFFFFFFFFFFFFFFFFFFFFFFFFFFFFFF AND PUSH1 0x4 PUSH1 0x0 DUP5 DUP2 MSTORE PUSH1 0x20 ADD SWAP1 DUP2 MSTORE PUSH1 0x20 ADD PUSH1 0x0 KECCAK256 PUSH1 0x0 SWAP1 SLOAD SWAP1 PUSH2 0x100 EXP SWAP1 DIV PUSH20 0xFFFFFFFFFFFFFFFFFFFFFFFFFFFFFFFFFFFFFFFF AND PUSH20 0xFFFFFFFFFFFFFFFFFFFFFFFFFFFFFFFFFFFFFFFF AND EQ JUMPDEST DUP1 PUSH2 0x10A2 JUMPI POP PUSH1 0x5 PUSH1 0x0 DUP6 PUSH20 0xFFFFFFFFFFFFFFFFFFFFFFFFFFFFFFFFFFFFFFFF AND PUSH20 0xFFFFFFFFFFFFFFFFFFFFFFFFFFFFFFFFFFFFFFFF AND DUP2 MSTORE PUSH1 0x20 ADD SWAP1 DUP2 MSTORE PUSH1 0x20 ADD PUSH1 0x0 KECCAK256 PUSH1 0x0 DUP5 PUSH20 0xFFFFFFFFFFFFFFFFFFFFFFFFFFFFFFFFFFFFFFFF AND PUSH20 0xFFFFFFFFFFFFFFFFFFFFFFFFFFFFFFFFFFFFFFFF AND DUP2 MSTORE PUSH1 0x20 ADD SWAP1 DUP2 MSTORE PUSH1 0x20 ADD PUSH1 0x0 KECCAK256 PUSH1 0x0 SWAP1 SLOAD SWAP1 PUSH2 0x100 EXP SWAP1 DIV PUSH1 0xFF AND JUMPDEST SWAP1 POP SWAP4 SWAP3 POP POP POP JUMP JUMPDEST DUP4 PUSH20 0xFFFFFFFFFFFFFFFFFFFFFFFFFFFFFFFFFFFFFFFF AND DUP4 PUSH20 0xFFFFFFFFFFFFFFFFFFFFFFFFFFFFFFFFFFFFFFFF AND EQ PUSH2 0x1119 JUMPI PUSH1 0x40 MLOAD PUSH32 0x8C379A000000000000000000000000000000000000000000000000000000000 DUP2 MSTORE PUSH1 0x4 ADD PUSH2 0x1110 SWAP1 PUSH2 0x2095 JUMP JUMPDEST PUSH1 0x40 MLOAD DUP1 SWAP2 SUB SWAP1 REVERT JUMPDEST PUSH1 0x0 PUSH20 0xFFFFFFFFFFFFFFFFFFFFFFFFFFFFFFFFFFFFFFFF AND DUP3 PUSH20 0xFFFFFFFFFFFFFFFFFFFFFFFFFFFFFFFFFFFFFFFF AND SUB PUSH2 0x1188 JUMPI PUSH1 0x40 MLOAD PUSH32 0x8C379A000000000000000000000000000000000000000000000000000000000 DUP2 MSTORE PUSH1 0x4 ADD PUSH2 0x117F SWAP1 PUSH2 0x2101 JUMP JUMPDEST PUSH1 0x40 MLOAD DUP1 SWAP2 SUB SWAP1 REVERT JUMPDEST PUSH2 0x1194 DUP5 PUSH1 0x0 DUP4 PUSH2 0xEC5 JUMP JUMPDEST PUSH1 0x1 PUSH1 0x3 PUSH1 0x0 DUP6 PUSH20 0xFFFFFFFFFFFFFFFFFFFFFFFFFFFFFFFFFFFFFFFF AND PUSH20 0xFFFFFFFFFFFFFFFFFFFFFFFFFFFFFFFFFFFFFFFF AND DUP2 MSTORE PUSH1 0x20 ADD SWAP1 DUP2 MSTORE PUSH1 0x20 ADD PUSH1 0x0 KECCAK256 PUSH1 0x0 DUP3 DUP3 SLOAD PUSH2 0x11E4 SWAP2 SWAP1 PUSH2 0x2121 JUMP JUMPDEST SWAP3 POP POP DUP2 SWAP1 SSTORE POP PUSH1 0x1 PUSH1 0x3 PUSH1 0x0 DUP5 PUSH20 0xFFFFFFFFFFFFFFFFFFFFFFFFFFFFFFFFFFFFFFFF AND PUSH20 0xFFFFFFFFFFFFFFFFFFFFFFFFFFFFFFFFFFFFFFFF AND DUP2 MSTORE PUSH1 0x20 ADD SWAP1 DUP2 MSTORE PUSH1 0x20 ADD PUSH1 0x0 KECCAK256 PUSH1 0x0 DUP3 DUP3 SLOAD PUSH2 0x123B SWAP2 SWAP1 PUSH2 0x1EDD JUMP JUMPDEST SWAP3 POP POP DUP2 SWAP1 SSTORE POP DUP2 PUSH1 0x2 PUSH1 0x0 DUP4 DUP2 MSTORE PUSH1 0x20 ADD SWAP1 DUP2 MSTORE PUSH1 0x20 ADD PUSH1 0x0 KECCAK256 PUSH1 0x0 PUSH2 0x100 EXP DUP2 SLOAD DUP2 PUSH20 0xFFFFFFFFFFFFFFFFFFFFFFFFFFFFFFFFFFFFFFFF MUL NOT AND SWAP1 DUP4 PUSH20 0xFFFFFFFFFFFFFFFFFFFFFFFFFFFFFFFFFFFFFFFF AND MUL OR SWAP1 SSTORE POP DUP1 DUP3 PUSH20 0xFFFFFFFFFFFFFFFFFFFFFFFFFFFFFFFFFFFFFFFF AND DUP5 PUSH20 0xFFFFFFFFFFFFFFFFFFFFFFFFFFFFFFFFFFFFFFFF AND PUSH32 0xDDF252AD1BE2C89B69C2B068FC378DAA952BA7F163C4A11628F55A4DF523B3EF PUSH1 0x40 MLOAD PUSH1 0x40 MLOAD DUP1 SWAP2 SUB SWAP1 LOG4 POP POP POP POP JUMP JUMPDEST PUSH2 0x1301 DUP6 DUP6 DUP6 DUP6 PUSH2 0x10AB JUMP JUMPDEST PUSH2 0x130D DUP5 DUP5 DUP5 DUP5 PUSH2 0x1438 JUMP JUMPDEST PUSH2 0x134C JUMPI PUSH1 0x40 MLOAD PUSH32 0x8C379A000000000000000000000000000000000000000000000000000000000 DUP2 MSTORE PUSH1 0x4 ADD PUSH2 0x1343 SWAP1 PUSH2 0x21A1 JUMP JUMPDEST PUSH1 0x40 MLOAD DUP1 SWAP2 SUB SWAP1 REVERT JUMPDEST POP POP POP POP POP JUMP JUMPDEST PUSH1 0x60 PUSH1 0x40 MLOAD DUP1 PUSH1 0x20 ADD PUSH1 0x40 MSTORE DUP1 PUSH1 0x0 DUP2 MSTORE POP SWAP1 POP SWAP1 JUMP JUMPDEST PUSH1 0x60 PUSH1 0x0 PUSH1 0x1 PUSH2 0x1379 DUP5 PUSH2 0x1525 JUMP JUMPDEST ADD SWAP1 POP PUSH1 0x0 DUP2 PUSH8 0xFFFFFFFFFFFFFFFF DUP2 GT ISZERO PUSH2 0x1398 JUMPI PUSH2 0x1397 PUSH2 0x1A44 JUMP JUMPDEST JUMPDEST PUSH1 0x40 MLOAD SWAP1 DUP1 DUP3 MSTORE DUP1 PUSH1 0x1F ADD PUSH1 0x1F NOT AND PUSH1 0x20 ADD DUP3 ADD PUSH1 0x40 MSTORE DUP1 ISZERO PUSH2 0x13CA JUMPI DUP2 PUSH1 0x20 ADD PUSH1 0x1 DUP3 MUL DUP1 CALLDATASIZE DUP4 CALLDATACOPY DUP1 DUP3 ADD SWAP2 POP POP SWAP1 POP JUMPDEST POP SWAP1 POP PUSH1 0x0 DUP3 PUSH1 0x20 ADD DUP3 ADD SWAP1 POP JUMPDEST PUSH1 0x1 ISZERO PUSH2 0x142D JUMPI DUP1 DUP1 PUSH1 0x1 SWAP1 SUB SWAP2 POP POP PUSH32 0x3031323334353637383961626364656600000000000000000000000000000000 PUSH1 0xA DUP7 MOD BYTE DUP2 MSTORE8 PUSH1 0xA DUP6 DUP2 PUSH2 0x1421 JUMPI PUSH2 0x1420 PUSH2 0x21C1 JUMP JUMPDEST JUMPDEST DIV SWAP5 POP PUSH1 0x0 DUP6 SUB PUSH2 0x13D8 JUMPI JUMPDEST DUP2 SWAP4 POP POP POP POP SWAP2 SWAP1 POP JUMP JUMPDEST PUSH1 0x0 PUSH2 0x1443 DUP5 PUSH2 0x71B JUMP JUMPDEST ISZERO PUSH2 0x1518 JUMPI PUSH4 0x150B7A02 PUSH1 0xE0 SHL PUSH28 0xFFFFFFFFFFFFFFFFFFFFFFFFFFFFFFFFFFFFFFFFFFFFFFFFFFFFFFFF NOT AND DUP5 PUSH20 0xFFFFFFFFFFFFFFFFFFFFFFFFFFFFFFFFFFFFFFFF AND PUSH4 0x150B7A02 CALLER DUP9 DUP8 DUP8 PUSH1 0x40 MLOAD DUP6 PUSH4 0xFFFFFFFF AND PUSH1 0xE0 SHL DUP2 MSTORE PUSH1 0x4 ADD PUSH2 0x14AE SWAP5 SWAP4 SWAP3 SWAP2 SWAP1 PUSH2 0x2245 JUMP JUMPDEST PUSH1 0x20 PUSH1 0x40 MLOAD DUP1 DUP4 SUB DUP2 PUSH1 0x0 DUP8 GAS CALL ISZERO DUP1 ISZERO PUSH2 0x14CD JUMPI RETURNDATASIZE PUSH1 0x0 DUP1 RETURNDATACOPY RETURNDATASIZE PUSH1 0x0 REVERT JUMPDEST POP POP POP POP PUSH1 0x40 MLOAD RETURNDATASIZE PUSH1 0x1F NOT PUSH1 0x1F DUP3 ADD AND DUP3 ADD DUP1 PUSH1 0x40 MSTORE POP DUP2 ADD SWAP1 PUSH2 0x14F1 SWAP2 SWAP1 PUSH2 0x22A6 JUMP JUMPDEST PUSH28 0xFFFFFFFFFFFFFFFFFFFFFFFFFFFFFFFFFFFFFFFFFFFFFFFFFFFFFFFF NOT AND EQ SWAP1 POP PUSH2 0x151D JUMP JUMPDEST PUSH1 0x1 SWAP1 POP JUMPDEST SWAP5 SWAP4 POP POP POP POP JUMP JUMPDEST PUSH1 0x0 DUP1 PUSH1 0x0 SWAP1 POP PUSH27 0x184F03E93FF9F4DAA797ED6E38ED64BF6A1F010000000000000000 DUP4 LT PUSH2 0x1583 JUMPI PUSH27 0x184F03E93FF9F4DAA797ED6E38ED64BF6A1F010000000000000000 DUP4 DUP2 PUSH2 0x1579 JUMPI PUSH2 0x1578 PUSH2 0x21C1 JUMP JUMPDEST JUMPDEST DIV SWAP3 POP PUSH1 0x40 DUP2 ADD SWAP1 POP JUMPDEST PUSH14 0x4EE2D6D415B85ACEF8100000000 DUP4 LT PUSH2 0x15C0 JUMPI PUSH14 0x4EE2D6D415B85ACEF8100000000 DUP4 DUP2 PUSH2 0x15B6 JUMPI PUSH2 0x15B5 PUSH2 0x21C1 JUMP JUMPDEST JUMPDEST DIV SWAP3 POP PUSH1 0x20 DUP2 ADD SWAP1 POP JUMPDEST PUSH7 0x2386F26FC10000 DUP4 LT PUSH2 0x15EF JUMPI PUSH7 0x2386F26FC10000 DUP4 DUP2 PUSH2 0x15E5 JUMPI PUSH2 0x15E4 PUSH2 0x21C1 JUMP JUMPDEST JUMPDEST DIV SWAP3 POP PUSH1 0x10 DUP2 ADD SWAP1 POP JUMPDEST PUSH4 0x5F5E100 DUP4 LT PUSH2 0x1618 JUMPI PUSH4 0x5F5E100 DUP4 DUP2 PUSH2 0x160E JUMPI PUSH2 0x160D PUSH2 0x21C1 JUMP JUMPDEST JUMPDEST DIV SWAP3 POP PUSH1 0x8 DUP2 ADD SWAP1 POP JUMPDEST PUSH2 0x2710 DUP4 LT PUSH2 0x163D JUMPI PUSH2 0x2710 DUP4 DUP2 PUSH2 0x1633 JUMPI PUSH2 0x1632 PUSH2 0x21C1 JUMP JUMPDEST JUMPDEST DIV SWAP3 POP PUSH1 0x4 DUP2 ADD SWAP1 POP JUMPDEST PUSH1 0x64 DUP4 LT PUSH2 0x1660 JUMPI PUSH1 0x64 DUP4 DUP2 PUSH2 0x1656 JUMPI PUSH2 0x1655 PUSH2 0x21C1 JUMP JUMPDEST JUMPDEST DIV SWAP3 POP PUSH1 0x2 DUP2 ADD SWAP1 POP JUMPDEST PUSH1 0xA DUP4 LT PUSH2 0x166F JUMPI PUSH1 0x1 DUP2 ADD SWAP1 POP JUMPDEST DUP1 SWAP2 POP POP SWAP2 SWAP1 POP JUMP JUMPDEST PUSH1 0x0 PUSH1 0x40 MLOAD SWAP1 POP SWAP1 JUMP JUMPDEST PUSH1 0x0 DUP1 REVERT JUMPDEST PUSH1 0x0 DUP1 REVERT JUMPDEST PUSH1 0x0 PUSH32 0xFFFFFFFF00000000000000000000000000000000000000000000000000000000 DUP3 AND SWAP1 POP SWAP2 SWAP1 POP JUMP JUMPDEST PUSH2 0x16C1 DUP2 PUSH2 0x168C JUMP JUMPDEST DUP2 EQ PUSH2 0x16CC JUMPI PUSH1 0x0 DUP1 REVERT JUMPDEST POP JUMP JUMPDEST PUSH1 0x0 DUP2 CALLDATALOAD SWAP1 POP PUSH2 0x16DE DUP2 PUSH2 0x16B8 JUMP JUMPDEST SWAP3 SWAP2 POP POP JUMP JUMPDEST PUSH1 0x0 PUSH1 0x20 DUP3 DUP5 SUB SLT ISZERO PUSH2 0x16FA JUMPI PUSH2 0x16F9 PUSH2 0x1682 JUMP JUMPDEST JUMPDEST PUSH1 0x0 PUSH2 0x1708 DUP5 DUP3 DUP6 ADD PUSH2 0x16CF JUMP JUMPDEST SWAP2 POP POP SWAP3 SWAP2 POP POP JUMP JUMPDEST PUSH1 0x0 DUP2 ISZERO ISZERO SWAP1 POP SWAP2 SWAP1 POP JUMP JUMPDEST PUSH2 0x1726 DUP2 PUSH2 0x1711 JUMP JUMPDEST DUP3 MSTORE POP POP JUMP JUMPDEST PUSH1 0x0 PUSH1 0x20 DUP3 ADD SWAP1 POP PUSH2 0x1741 PUSH1 0x0 DUP4 ADD DUP5 PUSH2 0x171D JUMP JUMPDEST SWAP3 SWAP2 POP POP JUMP JUMPDEST PUSH1 0x0 DUP2 MLOAD SWAP1 POP SWAP2 SWAP1 POP JUMP JUMPDEST PUSH1 0x0 DUP3 DUP3 MSTORE PUSH1 0x20 DUP3 ADD SWAP1 POP SWAP3 SWAP2 POP POP JUMP JUMPDEST PUSH1 0x0 JUMPDEST DUP4 DUP2 LT ISZERO PUSH2 0x1781 JUMPI DUP1 DUP3 ADD MLOAD DUP2 DUP5 ADD MSTORE PUSH1 0x20 DUP2 ADD SWAP1 POP PUSH2 0x1766 JUMP JUMPDEST PUSH1 0x0 DUP5 DUP5 ADD MSTORE POP POP POP POP JUMP JUMPDEST PUSH1 0x0 PUSH1 0x1F NOT PUSH1 0x1F DUP4 ADD AND SWAP1 POP SWAP2 SWAP1 POP JUMP JUMPDEST PUSH1 0x0 PUSH2 0x17A9 DUP3 PUSH2 0x1747 JUMP JUMPDEST PUSH2 0x17B3 DUP2 DUP6 PUSH2 0x1752 JUMP JUMPDEST SWAP4 POP PUSH2 0x17C3 DUP2 DUP6 PUSH1 0x20 DUP7 ADD PUSH2 0x1763 JUMP JUMPDEST PUSH2 0x17CC DUP2 PUSH2 0x178D JUMP JUMPDEST DUP5 ADD SWAP2 POP POP SWAP3 SWAP2 POP POP JUMP JUMPDEST PUSH1 0x0 PUSH1 0x20 DUP3 ADD SWAP1 POP DUP2 DUP2 SUB PUSH1 0x0 DUP4 ADD MSTORE PUSH2 0x17F1 DUP2 DUP5 PUSH2 0x179E JUMP JUMPDEST SWAP1 POP SWAP3 SWAP2 POP POP JUMP JUMPDEST PUSH1 0x0 DUP2 SWAP1 POP SWAP2 SWAP1 POP JUMP JUMPDEST PUSH2 0x180C DUP2 PUSH2 0x17F9 JUMP JUMPDEST DUP2 EQ PUSH2 0x1817 JUMPI PUSH1 0x0 DUP1 REVERT JUMPDEST POP JUMP JUMPDEST PUSH1 0x0 DUP2 CALLDATALOAD SWAP1 POP PUSH2 0x1829 DUP2 PUSH2 0x1803 JUMP JUMPDEST SWAP3 SWAP2 POP POP JUMP JUMPDEST PUSH1 0x0 PUSH1 0x20 DUP3 DUP5 SUB SLT ISZERO PUSH2 0x1845 JUMPI PUSH2 0x1844 PUSH2 0x1682 JUMP JUMPDEST JUMPDEST PUSH1 0x0 PUSH2 0x1853 DUP5 DUP3 DUP6 ADD PUSH2 0x181A JUMP JUMPDEST SWAP2 POP POP SWAP3 SWAP2 POP POP JUMP JUMPDEST PUSH1 0x0 PUSH20 0xFFFFFFFFFFFFFFFFFFFFFFFFFFFFFFFFFFFFFFFF DUP3 AND SWAP1 POP SWAP2 SWAP1 POP JUMP JUMPDEST PUSH1 0x0 PUSH2 0x1887 DUP3 PUSH2 0x185C JUMP JUMPDEST SWAP1 POP SWAP2 SWAP1 POP JUMP JUMPDEST PUSH2 0x1897 DUP2 PUSH2 0x187C JUMP JUMPDEST DUP3 MSTORE POP POP JUMP JUMPDEST PUSH1 0x0 PUSH1 0x20 DUP3 ADD SWAP1 POP PUSH2 0x18B2 PUSH1 0x0 DUP4 ADD DUP5 PUSH2 0x188E JUMP JUMPDEST SWAP3 SWAP2 POP POP JUMP JUMPDEST PUSH2 0x18C1 DUP2 PUSH2 0x187C JUMP JUMPDEST DUP2 EQ PUSH2 0x18CC JUMPI PUSH1 0x0 DUP1 REVERT JUMPDEST POP JUMP JUMPDEST PUSH1 0x0 DUP2 CALLDATALOAD SWAP1 POP PUSH2 0x18DE DUP2 PUSH2 0x18B8 JUMP JUMPDEST SWAP3 SWAP2 POP POP JUMP JUMPDEST PUSH1 0x0 DUP1 PUSH1 0x40 DUP4 DUP6 SUB SLT ISZERO PUSH2 0x18FB JUMPI PUSH2 0x18FA PUSH2 0x1682 JUMP JUMPDEST JUMPDEST PUSH1 0x0 PUSH2 0x1909 DUP6 DUP3 DUP7 ADD PUSH2 0x18CF JUMP JUMPDEST SWAP3 POP POP PUSH1 0x20 PUSH2 0x191A DUP6 DUP3 DUP7 ADD PUSH2 0x181A JUMP JUMPDEST SWAP2 POP POP SWAP3 POP SWAP3 SWAP1 POP JUMP JUMPDEST PUSH1 0x0 PUSH1 0x20 DUP3 DUP5 SUB SLT ISZERO PUSH2 0x193A JUMPI PUSH2 0x1939 PUSH2 0x1682 JUMP JUMPDEST JUMPDEST PUSH1 0x0 PUSH2 0x1948 DUP5 DUP3 DUP6 ADD PUSH2 0x18CF JUMP JUMPDEST SWAP2 POP POP SWAP3 SWAP2 POP POP JUMP JUMPDEST PUSH1 0x0 DUP1 PUSH1 0x0 PUSH1 0x60 DUP5 DUP7 SUB SLT ISZERO PUSH2 0x196A JUMPI PUSH2 0x1969 PUSH2 0x1682 JUMP JUMPDEST JUMPDEST PUSH1 0x0 PUSH2 0x1978 DUP7 DUP3 DUP8 ADD PUSH2 0x18CF JUMP JUMPDEST SWAP4 POP POP PUSH1 0x20 PUSH2 0x1989 DUP7 DUP3 DUP8 ADD PUSH2 0x18CF JUMP JUMPDEST SWAP3 POP POP PUSH1 0x40 PUSH2 0x199A DUP7 DUP3 DUP8 ADD PUSH2 0x181A JUMP JUMPDEST SWAP2 POP POP SWAP3 POP SWAP3 POP SWAP3 JUMP JUMPDEST PUSH2 0x19AD DUP2 PUSH2 0x17F9 JUMP JUMPDEST DUP3 MSTORE POP POP JUMP JUMPDEST PUSH1 0x0 PUSH1 0x20 DUP3 ADD SWAP1 POP PUSH2 0x19C8 PUSH1 0x0 DUP4 ADD DUP5 PUSH2 0x19A4 JUMP JUMPDEST SWAP3 SWAP2 POP POP JUMP JUMPDEST PUSH2 0x19D7 DUP2 PUSH2 0x1711 JUMP JUMPDEST DUP2 EQ PUSH2 0x19E2 JUMPI PUSH1 0x0 DUP1 REVERT JUMPDEST POP JUMP JUMPDEST PUSH1 0x0 DUP2 CALLDATALOAD SWAP1 POP PUSH2 0x19F4 DUP2 PUSH2 0x19CE JUMP JUMPDEST SWAP3 SWAP2 POP POP JUMP JUMPDEST PUSH1 0x0 DUP1 PUSH1 0x40 DUP4 DUP6 SUB SLT ISZERO PUSH2 0x1A11 JUMPI PUSH2 0x1A10 PUSH2 0x1682 JUMP JUMPDEST JUMPDEST PUSH1 0x0 PUSH2 0x1A1F DUP6 DUP3 DUP7 ADD PUSH2 0x18CF JUMP JUMPDEST SWAP3 POP POP PUSH1 0x20 PUSH2 0x1A30 DUP6 DUP3 DUP7 ADD PUSH2 0x19E5 JUMP JUMPDEST SWAP2 POP POP SWAP3 POP SWAP3 SWAP1 POP JUMP JUMPDEST PUSH1 0x0 DUP1 REVERT JUMPDEST PUSH1 0x0 DUP1 REVERT JUMPDEST PUSH32 0x4E487B7100000000000000000000000000000000000000000000000000000000 PUSH1 0x0 MSTORE PUSH1 0x41 PUSH1 0x4 MSTORE PUSH1 0x24 PUSH1 0x0 REVERT JUMPDEST PUSH2 0x1A7C DUP3 PUSH2 0x178D JUMP JUMPDEST DUP2 ADD DUP2 DUP2 LT PUSH8 0xFFFFFFFFFFFFFFFF DUP3 GT OR ISZERO PUSH2 0x1A9B JUMPI PUSH2 0x1A9A PUSH2 0x1A44 JUMP JUMPDEST JUMPDEST DUP1 PUSH1 0x40 MSTORE POP POP POP JUMP JUMPDEST PUSH1 0x0 PUSH2 0x1AAE PUSH2 0x1678 JUMP JUMPDEST SWAP1 POP PUSH2 0x1ABA DUP3 DUP3 PUSH2 0x1A73 JUMP JUMPDEST SWAP2 SWAP1 POP JUMP JUMPDEST PUSH1 0x0 PUSH8 0xFFFFFFFFFFFFFFFF DUP3 GT ISZERO PUSH2 0x1ADA JUMPI PUSH2 0x1AD9 PUSH2 0x1A44 JUMP JUMPDEST JUMPDEST PUSH2 0x1AE3 DUP3 PUSH2 0x178D JUMP JUMPDEST SWAP1 POP PUSH1 0x20 DUP2 ADD SWAP1 POP SWAP2 SWAP1 POP JUMP JUMPDEST DUP3 DUP2 DUP4 CALLDATACOPY PUSH1 0x0 DUP4 DUP4 ADD MSTORE POP POP POP JUMP JUMPDEST PUSH1 0x0 PUSH2 0x1B12 PUSH2 0x1B0D DUP5 PUSH2 0x1ABF JUMP JUMPDEST PUSH2 0x1AA4 JUMP JUMPDEST SWAP1 POP DUP3 DUP2 MSTORE PUSH1 0x20 DUP2 ADD DUP5 DUP5 DUP5 ADD GT ISZERO PUSH2 0x1B2E JUMPI PUSH2 0x1B2D PUSH2 0x1A3F JUMP JUMPDEST JUMPDEST PUSH2 0x1B39 DUP5 DUP3 DUP6 PUSH2 0x1AF0 JUMP JUMPDEST POP SWAP4 SWAP3 POP POP POP JUMP JUMPDEST PUSH1 0x0 DUP3 PUSH1 0x1F DUP4 ADD SLT PUSH2 0x1B56 JUMPI PUSH2 0x1B55 PUSH2 0x1A3A JUMP JUMPDEST JUMPDEST DUP2 CALLDATALOAD PUSH2 0x1B66 DUP5 DUP3 PUSH1 0x20 DUP7 ADD PUSH2 0x1AFF JUMP JUMPDEST SWAP2 POP POP SWAP3 SWAP2 POP POP JUMP JUMPDEST PUSH1 0x0 DUP1 PUSH1 0x0 DUP1 PUSH1 0x80 DUP6 DUP8 SUB SLT ISZERO PUSH2 0x1B89 JUMPI PUSH2 0x1B88 PUSH2 0x1682 JUMP JUMPDEST JUMPDEST PUSH1 0x0 PUSH2 0x1B97 DUP8 DUP3 DUP9 ADD PUSH2 0x18CF JUMP JUMPDEST SWAP5 POP POP PUSH1 0x20 PUSH2 0x1BA8 DUP8 DUP3 DUP9 ADD PUSH2 0x18CF JUMP JUMPDEST SWAP4 POP POP PUSH1 0x40 PUSH2 0x1BB9 DUP8 DUP3 DUP9 ADD PUSH2 0x181A JUMP JUMPDEST SWAP3 POP POP PUSH1 0x60 DUP6 ADD CALLDATALOAD PUSH8 0xFFFFFFFFFFFFFFFF DUP2 GT ISZERO PUSH2 0x1BDA JUMPI PUSH2 0x1BD9 PUSH2 0x1687 JUMP JUMPDEST JUMPDEST PUSH2 0x1BE6 DUP8 DUP3 DUP9 ADD PUSH2 0x1B41 JUMP JUMPDEST SWAP2 POP POP SWAP3 SWAP6 SWAP2 SWAP5 POP SWAP3 POP JUMP JUMPDEST PUSH1 0x0 DUP1 PUSH1 0x40 DUP4 DUP6 SUB SLT ISZERO PUSH2 0x1C09 JUMPI PUSH2 0x1C08 PUSH2 0x1682 JUMP JUMPDEST JUMPDEST PUSH1 0x0 PUSH2 0x1C17 DUP6 DUP3 DUP7 ADD PUSH2 0x18CF JUMP JUMPDEST SWAP3 POP POP PUSH1 0x20 PUSH2 0x1C28 DUP6 DUP3 DUP7 ADD PUSH2 0x18CF JUMP JUMPDEST SWAP2 POP POP SWAP3 POP SWAP3 SWAP1 POP JUMP JUMPDEST PUSH32 0x4E487B7100000000000000000000000000000000000000000000000000000000 PUSH1 0x0 MSTORE PUSH1 0x22 PUSH1 0x4 MSTORE PUSH1 0x24 PUSH1 0x0 REVERT JUMPDEST PUSH1 0x0 PUSH1 0x2 DUP3 DIV SWAP1 POP PUSH1 0x1 DUP3 AND DUP1 PUSH2 0x1C79 JUMPI PUSH1 0x7F DUP3 AND SWAP2 POP JUMPDEST PUSH1 0x20 DUP3 LT DUP2 SUB PUSH2 0x1C8C JUMPI PUSH2 0x1C8B PUSH2 0x1C32 JUMP JUMPDEST JUMPDEST POP SWAP2 SWAP1 POP JUMP JUMPDEST PUSH32 0x746F6B656E20646F65736E277420657869737400000000000000000000000000 PUSH1 0x0 DUP3 ADD MSTORE POP JUMP JUMPDEST PUSH1 0x0 PUSH2 0x1CC8 PUSH1 0x13 DUP4 PUSH2 0x1752 JUMP JUMPDEST SWAP2 POP PUSH2 0x1CD3 DUP3 PUSH2 0x1C92 JUMP JUMPDEST PUSH1 0x20 DUP3 ADD SWAP1 POP SWAP2 SWAP1 POP JUMP JUMPDEST PUSH1 0x0 PUSH1 0x20 DUP3 ADD SWAP1 POP DUP2 DUP2 SUB PUSH1 0x0 DUP4 ADD MSTORE PUSH2 0x1CF7 DUP2 PUSH2 0x1CBB JUMP JUMPDEST SWAP1 POP SWAP2 SWAP1 POP JUMP JUMPDEST PUSH32 0x6E6F74206F776E6572206E6F7220617070726F76656420666F7220616C6C0000 PUSH1 0x0 DUP3 ADD MSTORE POP JUMP JUMPDEST PUSH1 0x0 PUSH2 0x1D34 PUSH1 0x1E DUP4 PUSH2 0x1752 JUMP JUMPDEST SWAP2 POP PUSH2 0x1D3F DUP3 PUSH2 0x1CFE JUMP JUMPDEST PUSH1 0x20 DUP3 ADD SWAP1 POP SWAP2 SWAP1 POP JUMP JUMPDEST PUSH1 0x0 PUSH1 0x20 DUP3 ADD SWAP1 POP DUP2 DUP2 SUB PUSH1 0x0 DUP4 ADD MSTORE PUSH2 0x1D63 DUP2 PUSH2 0x1D27 JUMP JUMPDEST SWAP1 POP SWAP2 SWAP1 POP JUMP JUMPDEST PUSH32 0x6E6F74206F776E6572206E6F7220617070726F76656400000000000000000000 PUSH1 0x0 DUP3 ADD MSTORE POP JUMP JUMPDEST PUSH1 0x0 PUSH2 0x1DA0 PUSH1 0x16 DUP4 PUSH2 0x1752 JUMP JUMPDEST SWAP2 POP PUSH2 0x1DAB DUP3 PUSH2 0x1D6A JUMP JUMPDEST PUSH1 0x20 DUP3 ADD SWAP1 POP SWAP2 SWAP1 POP JUMP JUMPDEST PUSH1 0x0 PUSH1 0x20 DUP3 ADD SWAP1 POP DUP2 DUP2 SUB PUSH1 0x0 DUP4 ADD MSTORE PUSH2 0x1DCF DUP2 PUSH2 0x1D93 JUMP JUMPDEST SWAP1 POP SWAP2 SWAP1 POP JUMP JUMPDEST PUSH32 0x6D696E7420746F207A65726F2061646472657373000000000000000000000000 PUSH1 0x0 DUP3 ADD MSTORE POP JUMP JUMPDEST PUSH1 0x0 PUSH2 0x1E0C PUSH1 0x14 DUP4 PUSH2 0x1752 JUMP JUMPDEST SWAP2 POP PUSH2 0x1E17 DUP3 PUSH2 0x1DD6 JUMP JUMPDEST PUSH1 0x20 DUP3 ADD SWAP1 POP SWAP2 SWAP1 POP JUMP JUMPDEST PUSH1 0x0 PUSH1 0x20 DUP3 ADD SWAP1 POP DUP2 DUP2 SUB PUSH1 0x0 DUP4 ADD MSTORE PUSH2 0x1E3B DUP2 PUSH2 0x1DFF JUMP JUMPDEST SWAP1 POP SWAP2 SWAP1 POP JUMP JUMPDEST PUSH32 0x746F6B656E20616C7265616479206D696E746564000000000000000000000000 PUSH1 0x0 DUP3 ADD MSTORE POP JUMP JUMPDEST PUSH1 0x0 PUSH2 0x1E78 PUSH1 0x14 DUP4 PUSH2 0x1752 JUMP JUMPDEST SWAP2 POP PUSH2 0x1E83 DUP3 PUSH2 0x1E42 JUMP JUMPDEST PUSH1 0x20 DUP3 ADD SWAP1 POP SWAP2 SWAP1 POP JUMP JUMPDEST PUSH1 0x0 PUSH1 0x20 DUP3 ADD SWAP1 POP DUP2 DUP2 SUB PUSH1 0x0 DUP4 ADD MSTORE PUSH2 0x1EA7 DUP2 PUSH2 0x1E6B JUMP JUMPDEST SWAP1 POP SWAP2 SWAP1 POP JUMP JUMPDEST PUSH32 0x4E487B7100000000000000000000000000000000000000000000000000000000 PUSH1 0x0 MSTORE PUSH1 0x11 PUSH1 0x4 MSTORE PUSH1 0x24 PUSH1 0x0 REVERT JUMPDEST PUSH1 0x0 PUSH2 0x1EE8 DUP3 PUSH2 0x17F9 JUMP JUMPDEST SWAP2 POP PUSH2 0x1EF3 DUP4 PUSH2 0x17F9 JUMP JUMPDEST SWAP3 POP DUP3 DUP3 ADD SWAP1 POP DUP1 DUP3 GT ISZERO PUSH2 0x1F0B JUMPI PUSH2 0x1F0A PUSH2 0x1EAE JUMP JUMPDEST JUMPDEST SWAP3 SWAP2 POP POP JUMP JUMPDEST PUSH32 0x6F776E6572203D207A65726F2061646472657373000000000000000000000000 PUSH1 0x0 DUP3 ADD MSTORE POP JUMP JUMPDEST PUSH1 0x0 PUSH2 0x1F47 PUSH1 0x14 DUP4 PUSH2 0x1752 JUMP JUMPDEST SWAP2 POP PUSH2 0x1F52 DUP3 PUSH2 0x1F11 JUMP JUMPDEST PUSH1 0x20 DUP3 ADD SWAP1 POP SWAP2 SWAP1 POP JUMP JUMPDEST PUSH1 0x0 PUSH1 0x20 DUP3 ADD SWAP1 POP DUP2 DUP2 SUB PUSH1 0x0 DUP4 ADD MSTORE PUSH2 0x1F76 DUP2 PUSH2 0x1F3A JUMP JUMPDEST SWAP1 POP SWAP2 SWAP1 POP JUMP JUMPDEST PUSH32 0x546F6B656E204E6F742045786973740000000000000000000000000000000000 PUSH1 0x0 DUP3 ADD MSTORE POP JUMP JUMPDEST PUSH1 0x0 PUSH2 0x1FB3 PUSH1 0xF DUP4 PUSH2 0x1752 JUMP JUMPDEST SWAP2 POP PUSH2 0x1FBE DUP3 PUSH2 0x1F7D JUMP JUMPDEST PUSH1 0x20 DUP3 ADD SWAP1 POP SWAP2 SWAP1 POP JUMP JUMPDEST PUSH1 0x0 PUSH1 0x20 DUP3 ADD SWAP1 POP DUP2 DUP2 SUB PUSH1 0x0 DUP4 ADD MSTORE PUSH2 0x1FE2 DUP2 PUSH2 0x1FA6 JUMP JUMPDEST SWAP1 POP SWAP2 SWAP1 POP JUMP JUMPDEST PUSH1 0x0 DUP2 SWAP1 POP SWAP3 SWAP2 POP POP JUMP JUMPDEST PUSH1 0x0 PUSH2 0x1FFF DUP3 PUSH2 0x1747 JUMP JUMPDEST PUSH2 0x2009 DUP2 DUP6 PUSH2 0x1FE9 JUMP JUMPDEST SWAP4 POP PUSH2 0x2019 DUP2 DUP6 PUSH1 0x20 DUP7 ADD PUSH2 0x1763 JUMP JUMPDEST DUP1 DUP5 ADD SWAP2 POP POP SWAP3 SWAP2 POP POP JUMP JUMPDEST PUSH1 0x0 PUSH2 0x2031 DUP3 DUP6 PUSH2 0x1FF4 JUMP JUMPDEST SWAP2 POP PUSH2 0x203D DUP3 DUP5 PUSH2 0x1FF4 JUMP JUMPDEST SWAP2 POP DUP2 SWAP1 POP SWAP4 SWAP3 POP POP POP JUMP JUMPDEST PUSH32 0x6E6F74206F776E65720000000000000000000000000000000000000000000000 PUSH1 0x0 DUP3 ADD MSTORE POP JUMP JUMPDEST PUSH1 0x0 PUSH2 0x207F PUSH1 0x9 DUP4 PUSH2 0x1752 JUMP JUMPDEST SWAP2 POP PUSH2 0x208A DUP3 PUSH2 0x2049 JUMP JUMPDEST PUSH1 0x20 DUP3 ADD SWAP1 POP SWAP2 SWAP1 POP JUMP JUMPDEST PUSH1 0x0 PUSH1 0x20 DUP3 ADD SWAP1 POP DUP2 DUP2 SUB PUSH1 0x0 DUP4 ADD MSTORE PUSH2 0x20AE DUP2 PUSH2 0x2072 JUMP JUMPDEST SWAP1 POP SWAP2 SWAP1 POP JUMP JUMPDEST PUSH32 0x7472616E7366657220746F20746865207A65726F206164647265737300000000 PUSH1 0x0 DUP3 ADD MSTORE POP JUMP JUMPDEST PUSH1 0x0 PUSH2 0x20EB PUSH1 0x1C DUP4 PUSH2 0x1752 JUMP JUMPDEST SWAP2 POP PUSH2 0x20F6 DUP3 PUSH2 0x20B5 JUMP JUMPDEST PUSH1 0x20 DUP3 ADD SWAP1 POP SWAP2 SWAP1 POP JUMP JUMPDEST PUSH1 0x0 PUSH1 0x20 DUP3 ADD SWAP1 POP DUP2 DUP2 SUB PUSH1 0x0 DUP4 ADD MSTORE PUSH2 0x211A DUP2 PUSH2 0x20DE JUMP JUMPDEST SWAP1 POP SWAP2 SWAP1 POP JUMP JUMPDEST PUSH1 0x0 PUSH2 0x212C DUP3 PUSH2 0x17F9 JUMP JUMPDEST SWAP2 POP PUSH2 0x2137 DUP4 PUSH2 0x17F9 JUMP JUMPDEST SWAP3 POP DUP3 DUP3 SUB SWAP1 POP DUP2 DUP2 GT ISZERO PUSH2 0x214F JUMPI PUSH2 0x214E PUSH2 0x1EAE JUMP JUMPDEST JUMPDEST SWAP3 SWAP2 POP POP JUMP JUMPDEST PUSH32 0x6E6F742045524337323152656365697665720000000000000000000000000000 PUSH1 0x0 DUP3 ADD MSTORE POP JUMP JUMPDEST PUSH1 0x0 PUSH2 0x218B PUSH1 0x12 DUP4 PUSH2 0x1752 JUMP JUMPDEST SWAP2 POP PUSH2 0x2196 DUP3 PUSH2 0x2155 JUMP JUMPDEST PUSH1 0x20 DUP3 ADD SWAP1 POP SWAP2 SWAP1 POP JUMP JUMPDEST PUSH1 0x0 PUSH1 0x20 DUP3 ADD SWAP1 POP DUP2 DUP2 SUB PUSH1 0x0 DUP4 ADD MSTORE PUSH2 0x21BA DUP2 PUSH2 0x217E JUMP JUMPDEST SWAP1 POP SWAP2 SWAP1 POP JUMP JUMPDEST PUSH32 0x4E487B7100000000000000000000000000000000000000000000000000000000 PUSH1 0x0 MSTORE PUSH1 0x12 PUSH1 0x4 MSTORE PUSH1 0x24 PUSH1 0x0 REVERT JUMPDEST PUSH1 0x0 DUP2 MLOAD SWAP1 POP SWAP2 SWAP1 POP JUMP JUMPDEST PUSH1 0x0 DUP3 DUP3 MSTORE PUSH1 0x20 DUP3 ADD SWAP1 POP SWAP3 SWAP2 POP POP JUMP JUMPDEST PUSH1 0x0 PUSH2 0x2217 DUP3 PUSH2 0x21F0 JUMP JUMPDEST PUSH2 0x2221 DUP2 DUP6 PUSH2 0x21FB JUMP JUMPDEST SWAP4 POP PUSH2 0x2231 DUP2 DUP6 PUSH1 0x20 DUP7 ADD PUSH2 0x1763 JUMP JUMPDEST PUSH2 0x223A DUP2 PUSH2 0x178D JUMP JUMPDEST DUP5 ADD SWAP2 POP POP SWAP3 SWAP2 POP POP JUMP JUMPDEST PUSH1 0x0 PUSH1 0x80 DUP3 ADD SWAP1 POP PUSH2 0x225A PUSH1 0x0 DUP4 ADD DUP8 PUSH2 0x188E JUMP JUMPDEST PUSH2 0x2267 PUSH1 0x20 DUP4 ADD DUP7 PUSH2 0x188E JUMP JUMPDEST PUSH2 0x2274 PUSH1 0x40 DUP4 ADD DUP6 PUSH2 0x19A4 JUMP JUMPDEST DUP2 DUP2 SUB PUSH1 0x60 DUP4 ADD MSTORE PUSH2 0x2286 DUP2 DUP5 PUSH2 0x220C JUMP JUMPDEST SWAP1 POP SWAP6 SWAP5 POP POP POP POP POP JUMP JUMPDEST PUSH1 0x0 DUP2 MLOAD SWAP1 POP PUSH2 0x22A0 DUP2 PUSH2 0x16B8 JUMP JUMPDEST SWAP3 SWAP2 POP POP JUMP JUMPDEST PUSH1 0x0 PUSH1 0x20 DUP3 DUP5 SUB SLT ISZERO PUSH2 0x22BC JUMPI PUSH2 0x22BB PUSH2 0x1682 JUMP JUMPDEST JUMPDEST PUSH1 0x0 PUSH2 0x22CA DUP5 DUP3 DUP6 ADD PUSH2 0x2291 JUMP JUMPDEST SWAP2 POP POP SWAP3 SWAP2 POP POP JUMP INVALID LOG2 PUSH5 0x6970667358 0x22 SLT KECCAK256 CODESIZE 0xCD 0xAA 0xF9 DIFFICULTY DIV 0xBA REVERT PUSH29 0xE5E5A142B54553458CE17AB56623E7CA0D623B6EB4586364736F6C6343 STOP ADDMOD NOT STOP CALLER "
				},
				"gasEstimates": {
					"creation": {
						"codeDepositCost": "1793800",
						"executionCost": "infinite",
						"totalCost": "infinite"
					},
					"external": {
						"_mint(address,uint256)": "infinite",
						"approve(address,uint256)": "31556",
						"balanceOf(address)": "2943",
						"getApproved(uint256)": "5182",
						"isApprovedForAll(address,address)": "infinite",
						"isContract(address)": "3327",
						"name()": "infinite",
						"ownerOf(uint256)": "2998",
						"safeTransferFrom(address,address,uint256)": "infinite",
						"safeTransferFrom(address,address,uint256,bytes)": "infinite",
						"setApprovalForAll(address,bool)": "infinite",
						"supportsInterface(bytes4)": "754",
						"symbol()": "infinite",
						"tokenURI(uint256)": "3341",
						"transferFrom(address,address,uint256)": "infinite"
					},
					"internal": {
						"_approve(address,address,uint256)": "26292",
						"_baseURI()": "infinite",
						"_burn(uint256)": "infinite",
						"_checkOnERC721Received(address,address,uint256,bytes memory)": "infinite",
						"_isApprovedOrOwner(address,address,uint256)": "4648",
						"_safeTransfer(address,address,address,uint256,bytes memory)": "infinite",
						"_transfer(address,address,address,uint256)": "infinite"
					}
				},
				"methodIdentifiers": {
					"_mint(address,uint256)": "4e6ec247",
					"approve(address,uint256)": "095ea7b3",
					"balanceOf(address)": "70a08231",
					"getApproved(uint256)": "081812fc",
					"isApprovedForAll(address,address)": "e985e9c5",
					"isContract(address)": "16279055",
					"name()": "06fdde03",
					"ownerOf(uint256)": "6352211e",
					"safeTransferFrom(address,address,uint256)": "42842e0e",
					"safeTransferFrom(address,address,uint256,bytes)": "b88d4fde",
					"setApprovalForAll(address,bool)": "a22cb465",
					"supportsInterface(bytes4)": "01ffc9a7",
					"symbol()": "95d89b41",
					"tokenURI(uint256)": "c87b56dd",
					"transferFrom(address,address,uint256)": "23b872dd"
				}
			},
			"storageLayout": {
				"storage": [
					{
						"astId": 1861,
						"contract": "contracts/34_ERC721.sol:ERC721",
						"label": "name",
						"offset": 0,
						"slot": "0",
						"type": "t_string_storage"
					},
					{
						"astId": 1864,
						"contract": "contracts/34_ERC721.sol:ERC721",
						"label": "symbol",
						"offset": 0,
						"slot": "1",
						"type": "t_string_storage"
					},
					{
						"astId": 1868,
						"contract": "contracts/34_ERC721.sol:ERC721",
						"label": "_owners",
						"offset": 0,
						"slot": "2",
						"type": "t_mapping(t_uint256,t_address)"
					},
					{
						"astId": 1872,
						"contract": "contracts/34_ERC721.sol:ERC721",
						"label": "_balances",
						"offset": 0,
						"slot": "3",
						"type": "t_mapping(t_address,t_uint256)"
					},
					{
						"astId": 1876,
						"contract": "contracts/34_ERC721.sol:ERC721",
						"label": "_tokenApprovals",
						"offset": 0,
						"slot": "4",
						"type": "t_mapping(t_uint256,t_address)"
					},
					{
						"astId": 1882,
						"contract": "contracts/34_ERC721.sol:ERC721",
						"label": "_operatorApprovals",
						"offset": 0,
						"slot": "5",
						"type": "t_mapping(t_address,t_mapping(t_address,t_bool))"
					}
				],
				"types": {
					"t_address": {
						"encoding": "inplace",
						"label": "address",
						"numberOfBytes": "20"
					},
					"t_bool": {
						"encoding": "inplace",
						"label": "bool",
						"numberOfBytes": "1"
					},
					"t_mapping(t_address,t_bool)": {
						"encoding": "mapping",
						"key": "t_address",
						"label": "mapping(address => bool)",
						"numberOfBytes": "32",
						"value": "t_bool"
					},
					"t_mapping(t_address,t_mapping(t_address,t_bool))": {
						"encoding": "mapping",
						"key": "t_address",
						"label": "mapping(address => mapping(address => bool))",
						"numberOfBytes": "32",
						"value": "t_mapping(t_address,t_bool)"
					},
					"t_mapping(t_address,t_uint256)": {
						"encoding": "mapping",
						"key": "t_address",
						"label": "mapping(address => uint256)",
						"numberOfBytes": "32",
						"value": "t_uint256"
					},
					"t_mapping(t_uint256,t_address)": {
						"encoding": "mapping",
						"key": "t_uint256",
						"label": "mapping(uint256 => address)",
						"numberOfBytes": "32",
						"value": "t_address"
					},
					"t_string_storage": {
						"encoding": "bytes",
						"label": "string",
						"numberOfBytes": "32"
					},
					"t_uint256": {
						"encoding": "inplace",
						"label": "uint256",
						"numberOfBytes": "32"
					}
				}
			},
			"userdoc": {
				"kind": "user",
				"methods": {
					"_mint(address,uint256)": {
						"notice": "铸造函数。通过调整_balances和_owners变量来铸造tokenId并转账给 to，同时释放Transfer事件。铸造函数。通过调整_balances和_owners变量来铸造tokenId并转账给 to，同时释放Transfer事件。 这个mint函数所有人都能调用，实际使用需要开发人员重写，加上一些条件。 条件: 1. tokenId尚不存在。 2. to不是0地址."
					},
					"constructor": {
						"notice": "构造函数，初始化`name` 和`symbol` ."
					},
					"safeTransferFrom(address,address,uint256,bytes)": {
						"notice": "实现IERC721的safeTransferFrom，安全转账，调用了_safeTransfer函数。"
					},
					"tokenURI(uint256)": {
						"notice": "实现IERC721Metadata的tokenURI函数，查询metadata。"
					}
				},
				"version": 1
			}
		}
	}
}