{
	"contracts/45_TimeLocker.sol": {
		"TimeLocker": {
			"abi": [
				{
					"inputs": [
						{
							"internalType": "uint256",
							"name": "delay_",
							"type": "uint256"
						}
					],
					"stateMutability": "nonpayable",
					"type": "constructor"
				},
				{
					"anonymous": false,
					"inputs": [
						{
							"indexed": true,
							"internalType": "bytes32",
							"name": "txHash",
							"type": "bytes32"
						},
						{
							"indexed": true,
							"internalType": "address",
							"name": "target",
							"type": "address"
						},
						{
							"indexed": false,
							"internalType": "uint256",
							"name": "value",
							"type": "uint256"
						},
						{
							"indexed": false,
							"internalType": "string",
							"name": "signature",
							"type": "string"
						},
						{
							"indexed": false,
							"internalType": "bytes",
							"name": "data",
							"type": "bytes"
						},
						{
							"indexed": false,
							"internalType": "uint256",
							"name": "executeTime",
							"type": "uint256"
						}
					],
					"name": "CancelTransaction",
					"type": "event"
				},
				{
					"anonymous": false,
					"inputs": [
						{
							"indexed": true,
							"internalType": "bytes32",
							"name": "txHash",
							"type": "bytes32"
						},
						{
							"indexed": true,
							"internalType": "address",
							"name": "target",
							"type": "address"
						},
						{
							"indexed": false,
							"internalType": "uint256",
							"name": "value",
							"type": "uint256"
						},
						{
							"indexed": false,
							"internalType": "string",
							"name": "signature",
							"type": "string"
						},
						{
							"indexed": false,
							"internalType": "bytes",
							"name": "data",
							"type": "bytes"
						},
						{
							"indexed": false,
							"internalType": "uint256",
							"name": "executeTime",
							"type": "uint256"
						}
					],
					"name": "ExecuteTransaction",
					"type": "event"
				},
				{
					"anonymous": false,
					"inputs": [
						{
							"indexed": true,
							"internalType": "address",
							"name": "newAdmin",
							"type": "address"
						}
					],
					"name": "NewAdmin",
					"type": "event"
				},
				{
					"anonymous": false,
					"inputs": [
						{
							"indexed": true,
							"internalType": "bytes32",
							"name": "txHash",
							"type": "bytes32"
						},
						{
							"indexed": true,
							"internalType": "address",
							"name": "target",
							"type": "address"
						},
						{
							"indexed": false,
							"internalType": "uint256",
							"name": "value",
							"type": "uint256"
						},
						{
							"indexed": false,
							"internalType": "string",
							"name": "signature",
							"type": "string"
						},
						{
							"indexed": false,
							"internalType": "bytes",
							"name": "data",
							"type": "bytes"
						},
						{
							"indexed": false,
							"internalType": "uint256",
							"name": "executeTime",
							"type": "uint256"
						}
					],
					"name": "QueueTransaction",
					"type": "event"
				},
				{
					"inputs": [],
					"name": "GRACE_PERIOD",
					"outputs": [
						{
							"internalType": "uint256",
							"name": "",
							"type": "uint256"
						}
					],
					"stateMutability": "view",
					"type": "function"
				},
				{
					"inputs": [],
					"name": "admin",
					"outputs": [
						{
							"internalType": "address",
							"name": "",
							"type": "address"
						}
					],
					"stateMutability": "view",
					"type": "function"
				},
				{
					"inputs": [
						{
							"internalType": "address",
							"name": "target",
							"type": "address"
						},
						{
							"internalType": "uint256",
							"name": "value",
							"type": "uint256"
						},
						{
							"internalType": "string",
							"name": "signature",
							"type": "string"
						},
						{
							"internalType": "bytes",
							"name": "data",
							"type": "bytes"
						},
						{
							"internalType": "uint256",
							"name": "executeTime",
							"type": "uint256"
						}
					],
					"name": "cancelTransaction",
					"outputs": [],
					"stateMutability": "nonpayable",
					"type": "function"
				},
				{
					"inputs": [
						{
							"internalType": "address",
							"name": "newAdmin",
							"type": "address"
						}
					],
					"name": "changeAdmin",
					"outputs": [],
					"stateMutability": "nonpayable",
					"type": "function"
				},
				{
					"inputs": [],
					"name": "delay",
					"outputs": [
						{
							"internalType": "uint256",
							"name": "",
							"type": "uint256"
						}
					],
					"stateMutability": "view",
					"type": "function"
				},
				{
					"inputs": [
						{
							"internalType": "address",
							"name": "target",
							"type": "address"
						},
						{
							"internalType": "uint256",
							"name": "value",
							"type": "uint256"
						},
						{
							"internalType": "string",
							"name": "signature",
							"type": "string"
						},
						{
							"internalType": "bytes",
							"name": "data",
							"type": "bytes"
						},
						{
							"internalType": "uint256",
							"name": "executeTime",
							"type": "uint256"
						}
					],
					"name": "executeTransaction",
					"outputs": [
						{
							"internalType": "bytes",
							"name": "",
							"type": "bytes"
						}
					],
					"stateMutability": "payable",
					"type": "function"
				},
				{
					"inputs": [],
					"name": "getBlockTimestamp",
					"outputs": [
						{
							"internalType": "uint256",
							"name": "",
							"type": "uint256"
						}
					],
					"stateMutability": "view",
					"type": "function"
				},
				{
					"inputs": [
						{
							"internalType": "address",
							"name": "target",
							"type": "address"
						},
						{
							"internalType": "uint256",
							"name": "value",
							"type": "uint256"
						},
						{
							"internalType": "string",
							"name": "signature",
							"type": "string"
						},
						{
							"internalType": "bytes",
							"name": "data",
							"type": "bytes"
						},
						{
							"internalType": "uint256",
							"name": "executeTime",
							"type": "uint256"
						}
					],
					"name": "getTxHash",
					"outputs": [
						{
							"internalType": "bytes32",
							"name": "",
							"type": "bytes32"
						}
					],
					"stateMutability": "pure",
					"type": "function"
				},
				{
					"inputs": [
						{
							"internalType": "address",
							"name": "target",
							"type": "address"
						},
						{
							"internalType": "uint256",
							"name": "value",
							"type": "uint256"
						},
						{
							"internalType": "string",
							"name": "signature",
							"type": "string"
						},
						{
							"internalType": "bytes",
							"name": "data",
							"type": "bytes"
						},
						{
							"internalType": "uint256",
							"name": "executeTime",
							"type": "uint256"
						}
					],
					"name": "queueTransaction",
					"outputs": [
						{
							"internalType": "bytes32",
							"name": "",
							"type": "bytes32"
						}
					],
					"stateMutability": "nonpayable",
					"type": "function"
				},
				{
					"inputs": [
						{
							"internalType": "bytes32",
							"name": "",
							"type": "bytes32"
						}
					],
					"name": "queuedTransactions",
					"outputs": [
						{
							"internalType": "bool",
							"name": "",
							"type": "bool"
						}
					],
					"stateMutability": "view",
					"type": "function"
				}
			],
			"devdoc": {
				"kind": "dev",
				"methods": {
					"cancelTransaction(address,uint256,string,bytes,uint256)": {
						"details": "取消特定交易。 要求：交易在时间锁队列中"
					},
					"changeAdmin(address)": {
						"details": "改变管理员地址，调用者必须是Timelock合约。"
					},
					"constructor": {
						"details": "构造函数，初始化交易锁定时间 （秒）和管理员地址"
					},
					"executeTransaction(address,uint256,string,bytes,uint256)": {
						"details": "执行特定交易。 要求： 1. 交易在时间锁队列中 2. 达到交易的执行时间 3. 交易没过期"
					},
					"getBlockTimestamp()": {
						"details": "获取当前区块链时间戳"
					},
					"getTxHash(address,uint256,string,bytes,uint256)": {
						"details": "将一堆东西拼成交易的标识符"
					},
					"queueTransaction(address,uint256,string,bytes,uint256)": {
						"details": "创建交易并添加到时间锁队列中。",
						"params": {
							"data": ": call data，里面是一些参数",
							"executeTime": ": 交易执行的区块链时间戳 要求：executeTime 大于 当前区块链时间戳+delay",
							"signature": ": 要调用的函数签名（function signature）",
							"target": ": 目标合约地址",
							"value": ": 发送eth数额"
						}
					}
				},
				"version": 1
			},
			"evm": {
				"assembly": "    /* \"contracts/45_TimeLocker.sol\":57:5647  contract TimeLocker {... */\n  mstore(0x40, 0x80)\n    /* \"contracts/45_TimeLocker.sol\":1418:1502  constructor(uint delay_) {... */\n  callvalue\n  dup1\n  iszero\n  tag_1\n  jumpi\n  0x00\n  dup1\n  revert\ntag_1:\n  pop\n  mload(0x40)\n  sub(codesize, bytecodeSize)\n  dup1\n  bytecodeSize\n  dup4\n  codecopy\n  dup2\n  dup2\n  add\n  0x40\n  mstore\n  dup2\n  add\n  swap1\n  tag_2\n  swap2\n  swap1\n  tag_3\n  jump\t// in\ntag_2:\n    /* \"contracts/45_TimeLocker.sol\":1461:1467  delay_ */\n  dup1\n    /* \"contracts/45_TimeLocker.sol\":1453:1458  delay */\n  0x01\n    /* \"contracts/45_TimeLocker.sol\":1453:1467  delay = delay_ */\n  dup2\n  swap1\n  sstore\n  pop\n    /* \"contracts/45_TimeLocker.sol\":1485:1495  msg.sender */\n  caller\n    /* \"contracts/45_TimeLocker.sol\":1477:1482  admin */\n  0x00\n  dup1\n    /* \"contracts/45_TimeLocker.sol\":1477:1495  admin = msg.sender */\n  0x0100\n  exp\n  dup2\n  sload\n  dup2\n  0xffffffffffffffffffffffffffffffffffffffff\n  mul\n  not\n  and\n  swap1\n  dup4\n  0xffffffffffffffffffffffffffffffffffffffff\n  and\n  mul\n  or\n  swap1\n  sstore\n  pop\n    /* \"contracts/45_TimeLocker.sol\":1418:1502  constructor(uint delay_) {... */\n  pop\n    /* \"contracts/45_TimeLocker.sol\":57:5647  contract TimeLocker {... */\n  jump(tag_6)\n    /* \"#utility.yul\":88:205   */\ntag_8:\n    /* \"#utility.yul\":197:198   */\n  0x00\n    /* \"#utility.yul\":194:195   */\n  dup1\n    /* \"#utility.yul\":187:199   */\n  revert\n    /* \"#utility.yul\":334:411   */\ntag_10:\n    /* \"#utility.yul\":371:378   */\n  0x00\n    /* \"#utility.yul\":400:405   */\n  dup2\n    /* \"#utility.yul\":389:405   */\n  swap1\n  pop\n    /* \"#utility.yul\":334:411   */\n  swap2\n  swap1\n  pop\n  jump\t// out\n    /* \"#utility.yul\":417:539   */\ntag_11:\n    /* \"#utility.yul\":490:514   */\n  tag_19\n    /* \"#utility.yul\":508:513   */\n  dup2\n    /* \"#utility.yul\":490:514   */\n  tag_10\n  jump\t// in\ntag_19:\n    /* \"#utility.yul\":483:488   */\n  dup2\n    /* \"#utility.yul\":480:515   */\n  eq\n    /* \"#utility.yul\":470:533   */\n  tag_20\n  jumpi\n    /* \"#utility.yul\":529:530   */\n  0x00\n    /* \"#utility.yul\":526:527   */\n  dup1\n    /* \"#utility.yul\":519:531   */\n  revert\n    /* \"#utility.yul\":470:533   */\ntag_20:\n    /* \"#utility.yul\":417:539   */\n  pop\n  jump\t// out\n    /* \"#utility.yul\":545:688   */\ntag_12:\n    /* \"#utility.yul\":602:607   */\n  0x00\n    /* \"#utility.yul\":633:639   */\n  dup2\n    /* \"#utility.yul\":627:640   */\n  mload\n    /* \"#utility.yul\":618:640   */\n  swap1\n  pop\n    /* \"#utility.yul\":649:682   */\n  tag_22\n    /* \"#utility.yul\":676:681   */\n  dup2\n    /* \"#utility.yul\":649:682   */\n  tag_11\n  jump\t// in\ntag_22:\n    /* \"#utility.yul\":545:688   */\n  swap3\n  swap2\n  pop\n  pop\n  jump\t// out\n    /* \"#utility.yul\":694:1045   */\ntag_3:\n    /* \"#utility.yul\":764:770   */\n  0x00\n    /* \"#utility.yul\":813:815   */\n  0x20\n    /* \"#utility.yul\":801:810   */\n  dup3\n    /* \"#utility.yul\":792:799   */\n  dup5\n    /* \"#utility.yul\":788:811   */\n  sub\n    /* \"#utility.yul\":784:816   */\n  slt\n    /* \"#utility.yul\":781:900   */\n  iszero\n  tag_24\n  jumpi\n    /* \"#utility.yul\":819:898   */\n  tag_25\n  tag_8\n  jump\t// in\ntag_25:\n    /* \"#utility.yul\":781:900   */\ntag_24:\n    /* \"#utility.yul\":939:940   */\n  0x00\n    /* \"#utility.yul\":964:1028   */\n  tag_26\n    /* \"#utility.yul\":1020:1027   */\n  dup5\n    /* \"#utility.yul\":1011:1017   */\n  dup3\n    /* \"#utility.yul\":1000:1009   */\n  dup6\n    /* \"#utility.yul\":996:1018   */\n  add\n    /* \"#utility.yul\":964:1028   */\n  tag_12\n  jump\t// in\ntag_26:\n    /* \"#utility.yul\":954:1028   */\n  swap2\n  pop\n    /* \"#utility.yul\":910:1038   */\n  pop\n    /* \"#utility.yul\":694:1045   */\n  swap3\n  swap2\n  pop\n  pop\n  jump\t// out\n    /* \"contracts/45_TimeLocker.sol\":57:5647  contract TimeLocker {... */\ntag_6:\n  dataSize(sub_0)\n  dup1\n  dataOffset(sub_0)\n  0x00\n  codecopy\n  0x00\n  return\nstop\n\nsub_0: assembly {\n        /* \"contracts/45_TimeLocker.sol\":57:5647  contract TimeLocker {... */\n      mstore(0x40, 0x80)\n      jumpi(tag_1, lt(calldatasize, 0x04))\n      shr(0xe0, calldataload(0x00))\n      dup1\n      0x796b89b9\n      gt\n      tag_12\n      jumpi\n      dup1\n      0x796b89b9\n      eq\n      tag_7\n      jumpi\n      dup1\n      0x8f283970\n      eq\n      tag_8\n      jumpi\n      dup1\n      0xc1a287e2\n      eq\n      tag_9\n      jumpi\n      dup1\n      0xf2b06537\n      eq\n      tag_10\n      jumpi\n      dup1\n      0xf851a440\n      eq\n      tag_11\n      jumpi\n      jump(tag_1)\n    tag_12:\n      dup1\n      0x04a71576\n      eq\n      tag_2\n      jumpi\n      dup1\n      0x0825f38f\n      eq\n      tag_3\n      jumpi\n      dup1\n      0x3a66f901\n      eq\n      tag_4\n      jumpi\n      dup1\n      0x591fcdfe\n      eq\n      tag_5\n      jumpi\n      dup1\n      0x6a42b8f8\n      eq\n      tag_6\n      jumpi\n    tag_1:\n      0x00\n      dup1\n      revert\n        /* \"contracts/45_TimeLocker.sol\":5370:5645  function getTxHash(... */\n    tag_2:\n      callvalue\n      dup1\n      iszero\n      tag_13\n      jumpi\n      0x00\n      dup1\n      revert\n    tag_13:\n      pop\n      tag_14\n      0x04\n      dup1\n      calldatasize\n      sub\n      dup2\n      add\n      swap1\n      tag_15\n      swap2\n      swap1\n      tag_16\n      jump\t// in\n    tag_15:\n      tag_17\n      jump\t// in\n    tag_14:\n      mload(0x40)\n      tag_18\n      swap2\n      swap1\n      tag_19\n      jump\t// in\n    tag_18:\n      mload(0x40)\n      dup1\n      swap2\n      sub\n      swap1\n      return\n        /* \"contracts/45_TimeLocker.sol\":3733:5136  function executeTransaction(address target, uint256 value, string memory signature, bytes memory data, uint256 executeTime) public payable onlyOwner returns (bytes memory) {... */\n    tag_3:\n      tag_20\n      0x04\n      dup1\n      calldatasize\n      sub\n      dup2\n      add\n      swap1\n      tag_21\n      swap2\n      swap1\n      tag_16\n      jump\t// in\n    tag_21:\n      tag_22\n      jump\t// in\n    tag_20:\n      mload(0x40)\n      tag_23\n      swap2\n      swap1\n      tag_24\n      jump\t// in\n    tag_23:\n      mload(0x40)\n      dup1\n      swap2\n      sub\n      swap1\n      return\n        /* \"contracts/45_TimeLocker.sol\":2142:2833  function queueTransaction(address target, uint256 value, string memory signature, bytes memory data, uint256 executeTime) public onlyOwner returns (bytes32) {... */\n    tag_4:\n      callvalue\n      dup1\n      iszero\n      tag_25\n      jumpi\n      0x00\n      dup1\n      revert\n    tag_25:\n      pop\n      tag_26\n      0x04\n      dup1\n      calldatasize\n      sub\n      dup2\n      add\n      swap1\n      tag_27\n      swap2\n      swap1\n      tag_16\n      jump\t// in\n    tag_27:\n      tag_28\n      jump\t// in\n    tag_26:\n      mload(0x40)\n      tag_29\n      swap2\n      swap1\n      tag_19\n      jump\t// in\n    tag_29:\n      mload(0x40)\n      dup1\n      swap2\n      sub\n      swap1\n      return\n        /* \"contracts/45_TimeLocker.sol\":2940:3551  function cancelTransaction(address target, uint256 value, string memory signature, bytes memory data, uint256 executeTime) public onlyOwner{... */\n    tag_5:\n      callvalue\n      dup1\n      iszero\n      tag_30\n      jumpi\n      0x00\n      dup1\n      revert\n    tag_30:\n      pop\n      tag_31\n      0x04\n      dup1\n      calldatasize\n      sub\n      dup2\n      add\n      swap1\n      tag_32\n      swap2\n      swap1\n      tag_16\n      jump\t// in\n    tag_32:\n      tag_33\n      jump\t// in\n    tag_31:\n      stop\n        /* \"contracts/45_TimeLocker.sol\":845:862  uint public delay */\n    tag_6:\n      callvalue\n      dup1\n      iszero\n      tag_34\n      jumpi\n      0x00\n      dup1\n      revert\n    tag_34:\n      pop\n      tag_35\n      tag_36\n      jump\t// in\n    tag_35:\n      mload(0x40)\n      tag_37\n      swap2\n      swap1\n      tag_38\n      jump\t// in\n    tag_37:\n      mload(0x40)\n      dup1\n      swap2\n      sub\n      swap1\n      return\n        /* \"contracts/45_TimeLocker.sol\":5201:5296  function getBlockTimestamp() public view returns (uint) {... */\n    tag_7:\n      callvalue\n      dup1\n      iszero\n      tag_39\n      jumpi\n      0x00\n      dup1\n      revert\n    tag_39:\n      pop\n      tag_40\n      tag_41\n      jump\t// in\n    tag_40:\n      mload(0x40)\n      tag_42\n      swap2\n      swap1\n      tag_38\n      jump\t// in\n    tag_42:\n      mload(0x40)\n      dup1\n      swap2\n      sub\n      swap1\n      return\n        /* \"contracts/45_TimeLocker.sol\":1596:1722  function changeAdmin(address newAdmin) public onlyTimelock {... */\n    tag_8:\n      callvalue\n      dup1\n      iszero\n      tag_43\n      jumpi\n      0x00\n      dup1\n      revert\n    tag_43:\n      pop\n      tag_44\n      0x04\n      dup1\n      calldatasize\n      sub\n      dup2\n      add\n      swap1\n      tag_45\n      swap2\n      swap1\n      tag_46\n      jump\t// in\n    tag_45:\n      tag_47\n      jump\t// in\n    tag_44:\n      stop\n        /* \"contracts/45_TimeLocker.sol\":754:796  uint public constant GRACE_PERIOD = 7 days */\n    tag_9:\n      callvalue\n      dup1\n      iszero\n      tag_48\n      jumpi\n      0x00\n      dup1\n      revert\n    tag_48:\n      pop\n      tag_49\n      tag_50\n      jump\t// in\n    tag_49:\n      mload(0x40)\n      tag_51\n      swap2\n      swap1\n      tag_38\n      jump\t// in\n    tag_51:\n      mload(0x40)\n      dup1\n      swap2\n      sub\n      swap1\n      return\n        /* \"contracts/45_TimeLocker.sol\":900:951  mapping (bytes32 => bool) public queuedTransactions */\n    tag_10:\n      callvalue\n      dup1\n      iszero\n      tag_52\n      jumpi\n      0x00\n      dup1\n      revert\n    tag_52:\n      pop\n      tag_53\n      0x04\n      dup1\n      calldatasize\n      sub\n      dup2\n      add\n      swap1\n      tag_54\n      swap2\n      swap1\n      tag_55\n      jump\t// in\n    tag_54:\n      tag_56\n      jump\t// in\n    tag_53:\n      mload(0x40)\n      tag_57\n      swap2\n      swap1\n      tag_58\n      jump\t// in\n    tag_57:\n      mload(0x40)\n      dup1\n      swap2\n      sub\n      swap1\n      return\n        /* \"contracts/45_TimeLocker.sol\":709:729  address public admin */\n    tag_11:\n      callvalue\n      dup1\n      iszero\n      tag_59\n      jumpi\n      0x00\n      dup1\n      revert\n    tag_59:\n      pop\n      tag_60\n      tag_61\n      jump\t// in\n    tag_60:\n      mload(0x40)\n      tag_62\n      swap2\n      swap1\n      tag_63\n      jump\t// in\n    tag_62:\n      mload(0x40)\n      dup1\n      swap2\n      sub\n      swap1\n      return\n        /* \"contracts/45_TimeLocker.sol\":5370:5645  function getTxHash(... */\n    tag_17:\n        /* \"contracts/45_TimeLocker.sol\":5546:5553  bytes32 */\n      0x00\n        /* \"contracts/45_TimeLocker.sol\":5593:5599  target */\n      dup6\n        /* \"contracts/45_TimeLocker.sol\":5601:5606  value */\n      dup6\n        /* \"contracts/45_TimeLocker.sol\":5608:5617  signature */\n      dup6\n        /* \"contracts/45_TimeLocker.sol\":5619:5623  data */\n      dup6\n        /* \"contracts/45_TimeLocker.sol\":5625:5636  executeTime */\n      dup6\n        /* \"contracts/45_TimeLocker.sol\":5582:5637  abi.encode(target, value, signature, data, executeTime) */\n      add(0x20, mload(0x40))\n      tag_65\n      swap6\n      swap5\n      swap4\n      swap3\n      swap2\n      swap1\n      tag_66\n      jump\t// in\n    tag_65:\n      mload(0x40)\n      0x20\n      dup2\n      dup4\n      sub\n      sub\n      dup2\n      mstore\n      swap1\n      0x40\n      mstore\n        /* \"contracts/45_TimeLocker.sol\":5572:5638  keccak256(abi.encode(target, value, signature, data, executeTime)) */\n      dup1\n      mload\n      swap1\n      0x20\n      add\n      keccak256\n        /* \"contracts/45_TimeLocker.sol\":5565:5638  return keccak256(abi.encode(target, value, signature, data, executeTime)) */\n      swap1\n      pop\n        /* \"contracts/45_TimeLocker.sol\":5370:5645  function getTxHash(... */\n      swap6\n      swap5\n      pop\n      pop\n      pop\n      pop\n      pop\n      jump\t// out\n        /* \"contracts/45_TimeLocker.sol\":3733:5136  function executeTransaction(address target, uint256 value, string memory signature, bytes memory data, uint256 executeTime) public payable onlyOwner returns (bytes memory) {... */\n    tag_22:\n        /* \"contracts/45_TimeLocker.sol\":3891:3903  bytes memory */\n      0x60\n        /* \"contracts/45_TimeLocker.sol\":1099:1104  admin */\n      0x00\n      dup1\n      sload\n      swap1\n      0x0100\n      exp\n      swap1\n      div\n      0xffffffffffffffffffffffffffffffffffffffff\n      and\n        /* \"contracts/45_TimeLocker.sol\":1085:1104  msg.sender == admin */\n      0xffffffffffffffffffffffffffffffffffffffff\n      and\n        /* \"contracts/45_TimeLocker.sol\":1085:1095  msg.sender */\n      caller\n        /* \"contracts/45_TimeLocker.sol\":1085:1104  msg.sender == admin */\n      0xffffffffffffffffffffffffffffffffffffffff\n      and\n      eq\n        /* \"contracts/45_TimeLocker.sol\":1077:1135  require(msg.sender == admin, \"Timelock: Caller not admin\") */\n      tag_68\n      jumpi\n      mload(0x40)\n      0x08c379a000000000000000000000000000000000000000000000000000000000\n      dup2\n      mstore\n      0x04\n      add\n      tag_69\n      swap1\n      tag_70\n      jump\t// in\n    tag_69:\n      mload(0x40)\n      dup1\n      swap2\n      sub\n      swap1\n      revert\n    tag_68:\n        /* \"contracts/45_TimeLocker.sol\":3915:3929  bytes32 txHash */\n      0x00\n        /* \"contracts/45_TimeLocker.sol\":3932:3986  getTxHash(target, value, signature, data, executeTime) */\n      tag_72\n        /* \"contracts/45_TimeLocker.sol\":3942:3948  target */\n      dup8\n        /* \"contracts/45_TimeLocker.sol\":3950:3955  value */\n      dup8\n        /* \"contracts/45_TimeLocker.sol\":3957:3966  signature */\n      dup8\n        /* \"contracts/45_TimeLocker.sol\":3968:3972  data */\n      dup8\n        /* \"contracts/45_TimeLocker.sol\":3974:3985  executeTime */\n      dup8\n        /* \"contracts/45_TimeLocker.sol\":3932:3941  getTxHash */\n      tag_17\n        /* \"contracts/45_TimeLocker.sol\":3932:3986  getTxHash(target, value, signature, data, executeTime) */\n      jump\t// in\n    tag_72:\n        /* \"contracts/45_TimeLocker.sol\":3915:3986  bytes32 txHash = getTxHash(target, value, signature, data, executeTime) */\n      swap1\n      pop\n        /* \"contracts/45_TimeLocker.sol\":4058:4076  queuedTransactions */\n      0x02\n        /* \"contracts/45_TimeLocker.sol\":4058:4084  queuedTransactions[txHash] */\n      0x00\n        /* \"contracts/45_TimeLocker.sol\":4077:4083  txHash */\n      dup3\n        /* \"contracts/45_TimeLocker.sol\":4058:4084  queuedTransactions[txHash] */\n      dup2\n      mstore\n      0x20\n      add\n      swap1\n      dup2\n      mstore\n      0x20\n      add\n      0x00\n      keccak256\n      0x00\n      swap1\n      sload\n      swap1\n      0x0100\n      exp\n      swap1\n      div\n      0xff\n      and\n        /* \"contracts/45_TimeLocker.sol\":4050:4150  require(queuedTransactions[txHash], \"Timelock::executeTransaction: Transaction hasn't been queued.\") */\n      tag_73\n      jumpi\n      mload(0x40)\n      0x08c379a000000000000000000000000000000000000000000000000000000000\n      dup2\n      mstore\n      0x04\n      add\n      tag_74\n      swap1\n      tag_75\n      jump\t// in\n    tag_74:\n      mload(0x40)\n      dup1\n      swap2\n      sub\n      swap1\n      revert\n    tag_73:\n        /* \"contracts/45_TimeLocker.sol\":4239:4250  executeTime */\n      dup3\n        /* \"contracts/45_TimeLocker.sol\":4216:4235  getBlockTimestamp() */\n      tag_76\n        /* \"contracts/45_TimeLocker.sol\":4216:4233  getBlockTimestamp */\n      tag_41\n        /* \"contracts/45_TimeLocker.sol\":4216:4235  getBlockTimestamp() */\n      jump\t// in\n    tag_76:\n        /* \"contracts/45_TimeLocker.sol\":4216:4250  getBlockTimestamp() >= executeTime */\n      lt\n      iszero\n        /* \"contracts/45_TimeLocker.sol\":4208:4324  require(getBlockTimestamp() >= executeTime, \"Timelock::executeTransaction: Transaction hasn't surpassed time lock.\") */\n      tag_77\n      jumpi\n      mload(0x40)\n      0x08c379a000000000000000000000000000000000000000000000000000000000\n      dup2\n      mstore\n      0x04\n      add\n      tag_78\n      swap1\n      tag_79\n      jump\t// in\n    tag_78:\n      mload(0x40)\n      dup1\n      swap2\n      sub\n      swap1\n      revert\n    tag_77:\n        /* \"contracts/45_TimeLocker.sol\":790:796  7 days */\n      0x093a80\n        /* \"contracts/45_TimeLocker.sol\":4400:4411  executeTime */\n      dup4\n        /* \"contracts/45_TimeLocker.sol\":4400:4426  executeTime + GRACE_PERIOD */\n      tag_80\n      swap2\n      swap1\n      tag_81\n      jump\t// in\n    tag_80:\n        /* \"contracts/45_TimeLocker.sol\":4377:4396  getBlockTimestamp() */\n      tag_82\n        /* \"contracts/45_TimeLocker.sol\":4377:4394  getBlockTimestamp */\n      tag_41\n        /* \"contracts/45_TimeLocker.sol\":4377:4396  getBlockTimestamp() */\n      jump\t// in\n    tag_82:\n        /* \"contracts/45_TimeLocker.sol\":4377:4426  getBlockTimestamp() <= executeTime + GRACE_PERIOD */\n      gt\n      iszero\n        /* \"contracts/45_TimeLocker.sol\":4369:4482  require(getBlockTimestamp() <= executeTime + GRACE_PERIOD, \"Timelock::executeTransaction: Transaction is stale.\") */\n      tag_83\n      jumpi\n      mload(0x40)\n      0x08c379a000000000000000000000000000000000000000000000000000000000\n      dup2\n      mstore\n      0x04\n      add\n      tag_84\n      swap1\n      tag_85\n      jump\t// in\n    tag_84:\n      mload(0x40)\n      dup1\n      swap2\n      sub\n      swap1\n      revert\n    tag_83:\n        /* \"contracts/45_TimeLocker.sol\":4554:4559  false */\n      0x00\n        /* \"contracts/45_TimeLocker.sol\":4525:4543  queuedTransactions */\n      0x02\n        /* \"contracts/45_TimeLocker.sol\":4525:4551  queuedTransactions[txHash] */\n      0x00\n        /* \"contracts/45_TimeLocker.sol\":4544:4550  txHash */\n      dup4\n        /* \"contracts/45_TimeLocker.sol\":4525:4551  queuedTransactions[txHash] */\n      dup2\n      mstore\n      0x20\n      add\n      swap1\n      dup2\n      mstore\n      0x20\n      add\n      0x00\n      keccak256\n      0x00\n        /* \"contracts/45_TimeLocker.sol\":4525:4559  queuedTransactions[txHash] = false */\n      0x0100\n      exp\n      dup2\n      sload\n      dup2\n      0xff\n      mul\n      not\n      and\n      swap1\n      dup4\n      iszero\n      iszero\n      mul\n      or\n      swap1\n      sstore\n      pop\n        /* \"contracts/45_TimeLocker.sol\":4597:4618  bytes memory callData */\n      0x60\n        /* \"contracts/45_TimeLocker.sol\":4659:4660  0 */\n      0x00\n        /* \"contracts/45_TimeLocker.sol\":4638:4647  signature */\n      dup7\n        /* \"contracts/45_TimeLocker.sol\":4632:4655  bytes(signature).length */\n      mload\n        /* \"contracts/45_TimeLocker.sol\":4632:4660  bytes(signature).length == 0 */\n      sub\n        /* \"contracts/45_TimeLocker.sol\":4628:4803  if (bytes(signature).length == 0) {... */\n      tag_86\n      jumpi\n        /* \"contracts/45_TimeLocker.sol\":4687:4691  data */\n      dup5\n        /* \"contracts/45_TimeLocker.sol\":4676:4691  callData = data */\n      swap1\n      pop\n        /* \"contracts/45_TimeLocker.sol\":4628:4803  if (bytes(signature).length == 0) {... */\n      jump(tag_87)\n    tag_86:\n        /* \"contracts/45_TimeLocker.sol\":4773:4782  signature */\n      dup6\n        /* \"contracts/45_TimeLocker.sol\":4757:4784  keccak256(bytes(signature)) */\n      dup1\n      mload\n      swap1\n      0x20\n      add\n      keccak256\n        /* \"contracts/45_TimeLocker.sol\":4787:4791  data */\n      dup6\n        /* \"contracts/45_TimeLocker.sol\":4733:4792  abi.encodePacked(bytes4(keccak256(bytes(signature))), data) */\n      add(0x20, mload(0x40))\n      tag_88\n      swap3\n      swap2\n      swap1\n      tag_89\n      jump\t// in\n    tag_88:\n      mload(0x40)\n      0x20\n      dup2\n      dup4\n      sub\n      sub\n      dup2\n      mstore\n      swap1\n      0x40\n      mstore\n        /* \"contracts/45_TimeLocker.sol\":4722:4792  callData = abi.encodePacked(bytes4(keccak256(bytes(signature))), data) */\n      swap1\n      pop\n        /* \"contracts/45_TimeLocker.sol\":4628:4803  if (bytes(signature).length == 0) {... */\n    tag_87:\n        /* \"contracts/45_TimeLocker.sol\":4847:4859  bool success */\n      0x00\n        /* \"contracts/45_TimeLocker.sol\":4861:4884  bytes memory returnData */\n      dup1\n        /* \"contracts/45_TimeLocker.sol\":4888:4894  target */\n      dup10\n        /* \"contracts/45_TimeLocker.sol\":4888:4899  target.call */\n      0xffffffffffffffffffffffffffffffffffffffff\n      and\n        /* \"contracts/45_TimeLocker.sol\":4907:4912  value */\n      dup10\n        /* \"contracts/45_TimeLocker.sol\":4914:4922  callData */\n      dup5\n        /* \"contracts/45_TimeLocker.sol\":4888:4923  target.call{value: value}(callData) */\n      mload(0x40)\n      tag_90\n      swap2\n      swap1\n      tag_91\n      jump\t// in\n    tag_90:\n      0x00\n      mload(0x40)\n      dup1\n      dup4\n      sub\n      dup2\n      dup6\n      dup8\n      gas\n      call\n      swap3\n      pop\n      pop\n      pop\n      returndatasize\n      dup1\n      0x00\n      dup2\n      eq\n      tag_94\n      jumpi\n      mload(0x40)\n      swap2\n      pop\n      and(add(returndatasize, 0x3f), not(0x1f))\n      dup3\n      add\n      0x40\n      mstore\n      returndatasize\n      dup3\n      mstore\n      returndatasize\n      0x00\n      0x20\n      dup5\n      add\n      returndatacopy\n      jump(tag_93)\n    tag_94:\n      0x60\n      swap2\n      pop\n    tag_93:\n      pop\n        /* \"contracts/45_TimeLocker.sol\":4846:4923  (bool success, bytes memory returnData) = target.call{value: value}(callData) */\n      swap2\n      pop\n      swap2\n      pop\n        /* \"contracts/45_TimeLocker.sol\":4941:4948  success */\n      dup2\n        /* \"contracts/45_TimeLocker.sol\":4933:5014  require(success, \"Timelock::executeTransaction: Transaction execution reverted.\") */\n      tag_95\n      jumpi\n      mload(0x40)\n      0x08c379a000000000000000000000000000000000000000000000000000000000\n      dup2\n      mstore\n      0x04\n      add\n      tag_96\n      swap1\n      tag_97\n      jump\t// in\n    tag_96:\n      mload(0x40)\n      dup1\n      swap2\n      sub\n      swap1\n      revert\n    tag_95:\n        /* \"contracts/45_TimeLocker.sol\":5057:5063  target */\n      dup10\n        /* \"contracts/45_TimeLocker.sol\":5030:5101  ExecuteTransaction(txHash, target, value, signature, data, executeTime) */\n      0xffffffffffffffffffffffffffffffffffffffff\n      and\n        /* \"contracts/45_TimeLocker.sol\":5049:5055  txHash */\n      dup5\n        /* \"contracts/45_TimeLocker.sol\":5030:5101  ExecuteTransaction(txHash, target, value, signature, data, executeTime) */\n      0xa560e3198060a2f10670c1ec5b403077ea6ae93ca8de1c32b451dc1a943cd6e7\n        /* \"contracts/45_TimeLocker.sol\":5065:5070  value */\n      dup12\n        /* \"contracts/45_TimeLocker.sol\":5072:5081  signature */\n      dup12\n        /* \"contracts/45_TimeLocker.sol\":5083:5087  data */\n      dup12\n        /* \"contracts/45_TimeLocker.sol\":5089:5100  executeTime */\n      dup12\n        /* \"contracts/45_TimeLocker.sol\":5030:5101  ExecuteTransaction(txHash, target, value, signature, data, executeTime) */\n      mload(0x40)\n      tag_98\n      swap5\n      swap4\n      swap3\n      swap2\n      swap1\n      tag_99\n      jump\t// in\n    tag_98:\n      mload(0x40)\n      dup1\n      swap2\n      sub\n      swap1\n      log3\n        /* \"contracts/45_TimeLocker.sol\":5119:5129  returnData */\n      dup1\n        /* \"contracts/45_TimeLocker.sol\":5112:5129  return returnData */\n      swap5\n      pop\n      pop\n      pop\n      pop\n      pop\n        /* \"contracts/45_TimeLocker.sol\":3733:5136  function executeTransaction(address target, uint256 value, string memory signature, bytes memory data, uint256 executeTime) public payable onlyOwner returns (bytes memory) {... */\n      swap6\n      swap5\n      pop\n      pop\n      pop\n      pop\n      pop\n      jump\t// out\n        /* \"contracts/45_TimeLocker.sol\":2142:2833  function queueTransaction(address target, uint256 value, string memory signature, bytes memory data, uint256 executeTime) public onlyOwner returns (bytes32) {... */\n    tag_28:\n        /* \"contracts/45_TimeLocker.sol\":2290:2297  bytes32 */\n      0x00\n        /* \"contracts/45_TimeLocker.sol\":1099:1104  admin */\n      dup1\n      0x00\n      swap1\n      sload\n      swap1\n      0x0100\n      exp\n      swap1\n      div\n      0xffffffffffffffffffffffffffffffffffffffff\n      and\n        /* \"contracts/45_TimeLocker.sol\":1085:1104  msg.sender == admin */\n      0xffffffffffffffffffffffffffffffffffffffff\n      and\n        /* \"contracts/45_TimeLocker.sol\":1085:1095  msg.sender */\n      caller\n        /* \"contracts/45_TimeLocker.sol\":1085:1104  msg.sender == admin */\n      0xffffffffffffffffffffffffffffffffffffffff\n      and\n      eq\n        /* \"contracts/45_TimeLocker.sol\":1077:1135  require(msg.sender == admin, \"Timelock: Caller not admin\") */\n      tag_101\n      jumpi\n      mload(0x40)\n      0x08c379a000000000000000000000000000000000000000000000000000000000\n      dup2\n      mstore\n      0x04\n      add\n      tag_102\n      swap1\n      tag_70\n      jump\t// in\n    tag_102:\n      mload(0x40)\n      dup1\n      swap2\n      sub\n      swap1\n      revert\n    tag_101:\n        /* \"contracts/45_TimeLocker.sol\":2411:2416  delay */\n      sload(0x01)\n        /* \"contracts/45_TimeLocker.sol\":2389:2408  getBlockTimestamp() */\n      tag_104\n        /* \"contracts/45_TimeLocker.sol\":2389:2406  getBlockTimestamp */\n      tag_41\n        /* \"contracts/45_TimeLocker.sol\":2389:2408  getBlockTimestamp() */\n      jump\t// in\n    tag_104:\n        /* \"contracts/45_TimeLocker.sol\":2389:2416  getBlockTimestamp() + delay */\n      tag_105\n      swap2\n      swap1\n      tag_81\n      jump\t// in\n    tag_105:\n        /* \"contracts/45_TimeLocker.sol\":2374:2385  executeTime */\n      dup3\n        /* \"contracts/45_TimeLocker.sol\":2374:2416  executeTime >= getBlockTimestamp() + delay */\n      lt\n      iszero\n        /* \"contracts/45_TimeLocker.sol\":2366:2494  require(executeTime >= getBlockTimestamp() + delay, \"Timelock::queueTransaction: Estimated execution block must satisfy delay.\") */\n      tag_106\n      jumpi\n      mload(0x40)\n      0x08c379a000000000000000000000000000000000000000000000000000000000\n      dup2\n      mstore\n      0x04\n      add\n      tag_107\n      swap1\n      tag_108\n      jump\t// in\n    tag_107:\n      mload(0x40)\n      dup1\n      swap2\n      sub\n      swap1\n      revert\n    tag_106:\n        /* \"contracts/45_TimeLocker.sol\":2568:2582  bytes32 txHash */\n      0x00\n        /* \"contracts/45_TimeLocker.sol\":2585:2639  getTxHash(target, value, signature, data, executeTime) */\n      tag_109\n        /* \"contracts/45_TimeLocker.sol\":2595:2601  target */\n      dup8\n        /* \"contracts/45_TimeLocker.sol\":2603:2608  value */\n      dup8\n        /* \"contracts/45_TimeLocker.sol\":2610:2619  signature */\n      dup8\n        /* \"contracts/45_TimeLocker.sol\":2621:2625  data */\n      dup8\n        /* \"contracts/45_TimeLocker.sol\":2627:2638  executeTime */\n      dup8\n        /* \"contracts/45_TimeLocker.sol\":2585:2594  getTxHash */\n      tag_17\n        /* \"contracts/45_TimeLocker.sol\":2585:2639  getTxHash(target, value, signature, data, executeTime) */\n      jump\t// in\n    tag_109:\n        /* \"contracts/45_TimeLocker.sol\":2568:2639  bytes32 txHash = getTxHash(target, value, signature, data, executeTime) */\n      swap1\n      pop\n        /* \"contracts/45_TimeLocker.sol\":2714:2718  true */\n      0x01\n        /* \"contracts/45_TimeLocker.sol\":2685:2703  queuedTransactions */\n      0x02\n        /* \"contracts/45_TimeLocker.sol\":2685:2711  queuedTransactions[txHash] */\n      0x00\n        /* \"contracts/45_TimeLocker.sol\":2704:2710  txHash */\n      dup4\n        /* \"contracts/45_TimeLocker.sol\":2685:2711  queuedTransactions[txHash] */\n      dup2\n      mstore\n      0x20\n      add\n      swap1\n      dup2\n      mstore\n      0x20\n      add\n      0x00\n      keccak256\n      0x00\n        /* \"contracts/45_TimeLocker.sol\":2685:2718  queuedTransactions[txHash] = true */\n      0x0100\n      exp\n      dup2\n      sload\n      dup2\n      0xff\n      mul\n      not\n      and\n      swap1\n      dup4\n      iszero\n      iszero\n      mul\n      or\n      swap1\n      sstore\n      pop\n        /* \"contracts/45_TimeLocker.sol\":2759:2765  target */\n      dup7\n        /* \"contracts/45_TimeLocker.sol\":2734:2803  QueueTransaction(txHash, target, value, signature, data, executeTime) */\n      0xffffffffffffffffffffffffffffffffffffffff\n      and\n        /* \"contracts/45_TimeLocker.sol\":2751:2757  txHash */\n      dup2\n        /* \"contracts/45_TimeLocker.sol\":2734:2803  QueueTransaction(txHash, target, value, signature, data, executeTime) */\n      0x76e2796dc3a81d57b0e8504b647febcbeeb5f4af818e164f11eef8131a6a763f\n        /* \"contracts/45_TimeLocker.sol\":2767:2772  value */\n      dup9\n        /* \"contracts/45_TimeLocker.sol\":2774:2783  signature */\n      dup9\n        /* \"contracts/45_TimeLocker.sol\":2785:2789  data */\n      dup9\n        /* \"contracts/45_TimeLocker.sol\":2791:2802  executeTime */\n      dup9\n        /* \"contracts/45_TimeLocker.sol\":2734:2803  QueueTransaction(txHash, target, value, signature, data, executeTime) */\n      mload(0x40)\n      tag_110\n      swap5\n      swap4\n      swap3\n      swap2\n      swap1\n      tag_99\n      jump\t// in\n    tag_110:\n      mload(0x40)\n      dup1\n      swap2\n      sub\n      swap1\n      log3\n        /* \"contracts/45_TimeLocker.sol\":2820:2826  txHash */\n      dup1\n        /* \"contracts/45_TimeLocker.sol\":2813:2826  return txHash */\n      swap2\n      pop\n      pop\n        /* \"contracts/45_TimeLocker.sol\":2142:2833  function queueTransaction(address target, uint256 value, string memory signature, bytes memory data, uint256 executeTime) public onlyOwner returns (bytes32) {... */\n      swap6\n      swap5\n      pop\n      pop\n      pop\n      pop\n      pop\n      jump\t// out\n        /* \"contracts/45_TimeLocker.sol\":2940:3551  function cancelTransaction(address target, uint256 value, string memory signature, bytes memory data, uint256 executeTime) public onlyOwner{... */\n    tag_33:\n        /* \"contracts/45_TimeLocker.sol\":1099:1104  admin */\n      0x00\n      dup1\n      sload\n      swap1\n      0x0100\n      exp\n      swap1\n      div\n      0xffffffffffffffffffffffffffffffffffffffff\n      and\n        /* \"contracts/45_TimeLocker.sol\":1085:1104  msg.sender == admin */\n      0xffffffffffffffffffffffffffffffffffffffff\n      and\n        /* \"contracts/45_TimeLocker.sol\":1085:1095  msg.sender */\n      caller\n        /* \"contracts/45_TimeLocker.sol\":1085:1104  msg.sender == admin */\n      0xffffffffffffffffffffffffffffffffffffffff\n      and\n      eq\n        /* \"contracts/45_TimeLocker.sol\":1077:1135  require(msg.sender == admin, \"Timelock: Caller not admin\") */\n      tag_112\n      jumpi\n      mload(0x40)\n      0x08c379a000000000000000000000000000000000000000000000000000000000\n      dup2\n      mstore\n      0x04\n      add\n      tag_113\n      swap1\n      tag_70\n      jump\t// in\n    tag_113:\n      mload(0x40)\n      dup1\n      swap2\n      sub\n      swap1\n      revert\n    tag_112:\n        /* \"contracts/45_TimeLocker.sol\":3153:3167  bytes32 txHash */\n      0x00\n        /* \"contracts/45_TimeLocker.sol\":3170:3224  getTxHash(target, value, signature, data, executeTime) */\n      tag_115\n        /* \"contracts/45_TimeLocker.sol\":3180:3186  target */\n      dup7\n        /* \"contracts/45_TimeLocker.sol\":3188:3193  value */\n      dup7\n        /* \"contracts/45_TimeLocker.sol\":3195:3204  signature */\n      dup7\n        /* \"contracts/45_TimeLocker.sol\":3206:3210  data */\n      dup7\n        /* \"contracts/45_TimeLocker.sol\":3212:3223  executeTime */\n      dup7\n        /* \"contracts/45_TimeLocker.sol\":3170:3179  getTxHash */\n      tag_17\n        /* \"contracts/45_TimeLocker.sol\":3170:3224  getTxHash(target, value, signature, data, executeTime) */\n      jump\t// in\n    tag_115:\n        /* \"contracts/45_TimeLocker.sol\":3153:3224  bytes32 txHash = getTxHash(target, value, signature, data, executeTime) */\n      swap1\n      pop\n        /* \"contracts/45_TimeLocker.sol\":3290:3308  queuedTransactions */\n      0x02\n        /* \"contracts/45_TimeLocker.sol\":3290:3316  queuedTransactions[txHash] */\n      0x00\n        /* \"contracts/45_TimeLocker.sol\":3309:3315  txHash */\n      dup3\n        /* \"contracts/45_TimeLocker.sol\":3290:3316  queuedTransactions[txHash] */\n      dup2\n      mstore\n      0x20\n      add\n      swap1\n      dup2\n      mstore\n      0x20\n      add\n      0x00\n      keccak256\n      0x00\n      swap1\n      sload\n      swap1\n      0x0100\n      exp\n      swap1\n      div\n      0xff\n      and\n        /* \"contracts/45_TimeLocker.sol\":3282:3381  require(queuedTransactions[txHash], \"Timelock::cancelTransaction: Transaction hasn't been queued.\") */\n      tag_116\n      jumpi\n      mload(0x40)\n      0x08c379a000000000000000000000000000000000000000000000000000000000\n      dup2\n      mstore\n      0x04\n      add\n      tag_117\n      swap1\n      tag_118\n      jump\t// in\n    tag_117:\n      mload(0x40)\n      dup1\n      swap2\n      sub\n      swap1\n      revert\n    tag_116:\n        /* \"contracts/45_TimeLocker.sol\":3453:3458  false */\n      0x00\n        /* \"contracts/45_TimeLocker.sol\":3424:3442  queuedTransactions */\n      0x02\n        /* \"contracts/45_TimeLocker.sol\":3424:3450  queuedTransactions[txHash] */\n      0x00\n        /* \"contracts/45_TimeLocker.sol\":3443:3449  txHash */\n      dup4\n        /* \"contracts/45_TimeLocker.sol\":3424:3450  queuedTransactions[txHash] */\n      dup2\n      mstore\n      0x20\n      add\n      swap1\n      dup2\n      mstore\n      0x20\n      add\n      0x00\n      keccak256\n      0x00\n        /* \"contracts/45_TimeLocker.sol\":3424:3458  queuedTransactions[txHash] = false */\n      0x0100\n      exp\n      dup2\n      sload\n      dup2\n      0xff\n      mul\n      not\n      and\n      swap1\n      dup4\n      iszero\n      iszero\n      mul\n      or\n      swap1\n      sstore\n      pop\n        /* \"contracts/45_TimeLocker.sol\":3500:3506  target */\n      dup6\n        /* \"contracts/45_TimeLocker.sol\":3474:3544  CancelTransaction(txHash, target, value, signature, data, executeTime) */\n      0xffffffffffffffffffffffffffffffffffffffff\n      and\n        /* \"contracts/45_TimeLocker.sol\":3492:3498  txHash */\n      dup2\n        /* \"contracts/45_TimeLocker.sol\":3474:3544  CancelTransaction(txHash, target, value, signature, data, executeTime) */\n      0x2fffc091a501fd91bfbff27141450d3acb40fb8e6d8382b243ec7a812a3aaf87\n        /* \"contracts/45_TimeLocker.sol\":3508:3513  value */\n      dup8\n        /* \"contracts/45_TimeLocker.sol\":3515:3524  signature */\n      dup8\n        /* \"contracts/45_TimeLocker.sol\":3526:3530  data */\n      dup8\n        /* \"contracts/45_TimeLocker.sol\":3532:3543  executeTime */\n      dup8\n        /* \"contracts/45_TimeLocker.sol\":3474:3544  CancelTransaction(txHash, target, value, signature, data, executeTime) */\n      mload(0x40)\n      tag_119\n      swap5\n      swap4\n      swap3\n      swap2\n      swap1\n      tag_99\n      jump\t// in\n    tag_119:\n      mload(0x40)\n      dup1\n      swap2\n      sub\n      swap1\n      log3\n        /* \"contracts/45_TimeLocker.sol\":3079:3551  {... */\n      pop\n        /* \"contracts/45_TimeLocker.sol\":2940:3551  function cancelTransaction(address target, uint256 value, string memory signature, bytes memory data, uint256 executeTime) public onlyOwner{... */\n      pop\n      pop\n      pop\n      pop\n      pop\n      jump\t// out\n        /* \"contracts/45_TimeLocker.sol\":845:862  uint public delay */\n    tag_36:\n      sload(0x01)\n      dup2\n      jump\t// out\n        /* \"contracts/45_TimeLocker.sol\":5201:5296  function getBlockTimestamp() public view returns (uint) {... */\n    tag_41:\n        /* \"contracts/45_TimeLocker.sol\":5251:5255  uint */\n      0x00\n        /* \"contracts/45_TimeLocker.sol\":5274:5289  block.timestamp */\n      timestamp\n        /* \"contracts/45_TimeLocker.sol\":5267:5289  return block.timestamp */\n      swap1\n      pop\n        /* \"contracts/45_TimeLocker.sol\":5201:5296  function getBlockTimestamp() public view returns (uint) {... */\n      swap1\n      jump\t// out\n        /* \"contracts/45_TimeLocker.sol\":1596:1722  function changeAdmin(address newAdmin) public onlyTimelock {... */\n    tag_47:\n        /* \"contracts/45_TimeLocker.sol\":1252:1256  this */\n      address\n        /* \"contracts/45_TimeLocker.sol\":1230:1257  msg.sender == address(this) */\n      0xffffffffffffffffffffffffffffffffffffffff\n      and\n        /* \"contracts/45_TimeLocker.sol\":1230:1240  msg.sender */\n      caller\n        /* \"contracts/45_TimeLocker.sol\":1230:1257  msg.sender == address(this) */\n      0xffffffffffffffffffffffffffffffffffffffff\n      and\n      eq\n        /* \"contracts/45_TimeLocker.sol\":1222:1291  require(msg.sender == address(this), \"Timelock: Caller not Timelock\") */\n      tag_122\n      jumpi\n      mload(0x40)\n      0x08c379a000000000000000000000000000000000000000000000000000000000\n      dup2\n      mstore\n      0x04\n      add\n      tag_123\n      swap1\n      tag_124\n      jump\t// in\n    tag_123:\n      mload(0x40)\n      dup1\n      swap2\n      sub\n      swap1\n      revert\n    tag_122:\n        /* \"contracts/45_TimeLocker.sol\":1673:1681  newAdmin */\n      dup1\n        /* \"contracts/45_TimeLocker.sol\":1665:1670  admin */\n      0x00\n      dup1\n        /* \"contracts/45_TimeLocker.sol\":1665:1681  admin = newAdmin */\n      0x0100\n      exp\n      dup2\n      sload\n      dup2\n      0xffffffffffffffffffffffffffffffffffffffff\n      mul\n      not\n      and\n      swap1\n      dup4\n      0xffffffffffffffffffffffffffffffffffffffff\n      and\n      mul\n      or\n      swap1\n      sstore\n      pop\n        /* \"contracts/45_TimeLocker.sol\":1706:1714  newAdmin */\n      dup1\n        /* \"contracts/45_TimeLocker.sol\":1697:1715  NewAdmin(newAdmin) */\n      0xffffffffffffffffffffffffffffffffffffffff\n      and\n      0x71614071b88dee5e0b2ae578a9dd7b2ebbe9ae832ba419dc0242cd065a290b6c\n      mload(0x40)\n      mload(0x40)\n      dup1\n      swap2\n      sub\n      swap1\n      log2\n        /* \"contracts/45_TimeLocker.sol\":1596:1722  function changeAdmin(address newAdmin) public onlyTimelock {... */\n      pop\n      jump\t// out\n        /* \"contracts/45_TimeLocker.sol\":754:796  uint public constant GRACE_PERIOD = 7 days */\n    tag_50:\n        /* \"contracts/45_TimeLocker.sol\":790:796  7 days */\n      0x093a80\n        /* \"contracts/45_TimeLocker.sol\":754:796  uint public constant GRACE_PERIOD = 7 days */\n      dup2\n      jump\t// out\n        /* \"contracts/45_TimeLocker.sol\":900:951  mapping (bytes32 => bool) public queuedTransactions */\n    tag_56:\n      mstore(0x20, 0x02)\n      dup1\n      0x00\n      mstore\n      keccak256(0x00, 0x40)\n      0x00\n      swap2\n      pop\n      sload\n      swap1\n      0x0100\n      exp\n      swap1\n      div\n      0xff\n      and\n      dup2\n      jump\t// out\n        /* \"contracts/45_TimeLocker.sol\":709:729  address public admin */\n    tag_61:\n      0x00\n      dup1\n      sload\n      swap1\n      0x0100\n      exp\n      swap1\n      div\n      0xffffffffffffffffffffffffffffffffffffffff\n      and\n      dup2\n      jump\t// out\n        /* \"#utility.yul\":7:82   */\n    tag_126:\n        /* \"#utility.yul\":40:46   */\n      0x00\n        /* \"#utility.yul\":73:75   */\n      0x40\n        /* \"#utility.yul\":67:76   */\n      mload\n        /* \"#utility.yul\":57:76   */\n      swap1\n      pop\n        /* \"#utility.yul\":7:82   */\n      swap1\n      jump\t// out\n        /* \"#utility.yul\":88:205   */\n    tag_127:\n        /* \"#utility.yul\":197:198   */\n      0x00\n        /* \"#utility.yul\":194:195   */\n      dup1\n        /* \"#utility.yul\":187:199   */\n      revert\n        /* \"#utility.yul\":211:328   */\n    tag_128:\n        /* \"#utility.yul\":320:321   */\n      0x00\n        /* \"#utility.yul\":317:318   */\n      dup1\n        /* \"#utility.yul\":310:322   */\n      revert\n        /* \"#utility.yul\":334:460   */\n    tag_129:\n        /* \"#utility.yul\":371:378   */\n      0x00\n        /* \"#utility.yul\":411:453   */\n      0xffffffffffffffffffffffffffffffffffffffff\n        /* \"#utility.yul\":404:409   */\n      dup3\n        /* \"#utility.yul\":400:454   */\n      and\n        /* \"#utility.yul\":389:454   */\n      swap1\n      pop\n        /* \"#utility.yul\":334:460   */\n      swap2\n      swap1\n      pop\n      jump\t// out\n        /* \"#utility.yul\":466:562   */\n    tag_130:\n        /* \"#utility.yul\":503:510   */\n      0x00\n        /* \"#utility.yul\":532:556   */\n      tag_192\n        /* \"#utility.yul\":550:555   */\n      dup3\n        /* \"#utility.yul\":532:556   */\n      tag_129\n      jump\t// in\n    tag_192:\n        /* \"#utility.yul\":521:556   */\n      swap1\n      pop\n        /* \"#utility.yul\":466:562   */\n      swap2\n      swap1\n      pop\n      jump\t// out\n        /* \"#utility.yul\":568:690   */\n    tag_131:\n        /* \"#utility.yul\":641:665   */\n      tag_194\n        /* \"#utility.yul\":659:664   */\n      dup2\n        /* \"#utility.yul\":641:665   */\n      tag_130\n      jump\t// in\n    tag_194:\n        /* \"#utility.yul\":634:639   */\n      dup2\n        /* \"#utility.yul\":631:666   */\n      eq\n        /* \"#utility.yul\":621:684   */\n      tag_195\n      jumpi\n        /* \"#utility.yul\":680:681   */\n      0x00\n        /* \"#utility.yul\":677:678   */\n      dup1\n        /* \"#utility.yul\":670:682   */\n      revert\n        /* \"#utility.yul\":621:684   */\n    tag_195:\n        /* \"#utility.yul\":568:690   */\n      pop\n      jump\t// out\n        /* \"#utility.yul\":696:835   */\n    tag_132:\n        /* \"#utility.yul\":742:747   */\n      0x00\n        /* \"#utility.yul\":780:786   */\n      dup2\n        /* \"#utility.yul\":767:787   */\n      calldataload\n        /* \"#utility.yul\":758:787   */\n      swap1\n      pop\n        /* \"#utility.yul\":796:829   */\n      tag_197\n        /* \"#utility.yul\":823:828   */\n      dup2\n        /* \"#utility.yul\":796:829   */\n      tag_131\n      jump\t// in\n    tag_197:\n        /* \"#utility.yul\":696:835   */\n      swap3\n      swap2\n      pop\n      pop\n      jump\t// out\n        /* \"#utility.yul\":841:918   */\n    tag_133:\n        /* \"#utility.yul\":878:885   */\n      0x00\n        /* \"#utility.yul\":907:912   */\n      dup2\n        /* \"#utility.yul\":896:912   */\n      swap1\n      pop\n        /* \"#utility.yul\":841:918   */\n      swap2\n      swap1\n      pop\n      jump\t// out\n        /* \"#utility.yul\":924:1046   */\n    tag_134:\n        /* \"#utility.yul\":997:1021   */\n      tag_200\n        /* \"#utility.yul\":1015:1020   */\n      dup2\n        /* \"#utility.yul\":997:1021   */\n      tag_133\n      jump\t// in\n    tag_200:\n        /* \"#utility.yul\":990:995   */\n      dup2\n        /* \"#utility.yul\":987:1022   */\n      eq\n        /* \"#utility.yul\":977:1040   */\n      tag_201\n      jumpi\n        /* \"#utility.yul\":1036:1037   */\n      0x00\n        /* \"#utility.yul\":1033:1034   */\n      dup1\n        /* \"#utility.yul\":1026:1038   */\n      revert\n        /* \"#utility.yul\":977:1040   */\n    tag_201:\n        /* \"#utility.yul\":924:1046   */\n      pop\n      jump\t// out\n        /* \"#utility.yul\":1052:1191   */\n    tag_135:\n        /* \"#utility.yul\":1098:1103   */\n      0x00\n        /* \"#utility.yul\":1136:1142   */\n      dup2\n        /* \"#utility.yul\":1123:1143   */\n      calldataload\n        /* \"#utility.yul\":1114:1143   */\n      swap1\n      pop\n        /* \"#utility.yul\":1152:1185   */\n      tag_203\n        /* \"#utility.yul\":1179:1184   */\n      dup2\n        /* \"#utility.yul\":1152:1185   */\n      tag_134\n      jump\t// in\n    tag_203:\n        /* \"#utility.yul\":1052:1191   */\n      swap3\n      swap2\n      pop\n      pop\n      jump\t// out\n        /* \"#utility.yul\":1197:1314   */\n    tag_136:\n        /* \"#utility.yul\":1306:1307   */\n      0x00\n        /* \"#utility.yul\":1303:1304   */\n      dup1\n        /* \"#utility.yul\":1296:1308   */\n      revert\n        /* \"#utility.yul\":1320:1437   */\n    tag_137:\n        /* \"#utility.yul\":1429:1430   */\n      0x00\n        /* \"#utility.yul\":1426:1427   */\n      dup1\n        /* \"#utility.yul\":1419:1431   */\n      revert\n        /* \"#utility.yul\":1443:1545   */\n    tag_138:\n        /* \"#utility.yul\":1484:1490   */\n      0x00\n        /* \"#utility.yul\":1535:1537   */\n      0x1f\n        /* \"#utility.yul\":1531:1538   */\n      not\n        /* \"#utility.yul\":1526:1528   */\n      0x1f\n        /* \"#utility.yul\":1519:1524   */\n      dup4\n        /* \"#utility.yul\":1515:1529   */\n      add\n        /* \"#utility.yul\":1511:1539   */\n      and\n        /* \"#utility.yul\":1501:1539   */\n      swap1\n      pop\n        /* \"#utility.yul\":1443:1545   */\n      swap2\n      swap1\n      pop\n      jump\t// out\n        /* \"#utility.yul\":1551:1731   */\n    tag_139:\n        /* \"#utility.yul\":1599:1676   */\n      0x4e487b7100000000000000000000000000000000000000000000000000000000\n        /* \"#utility.yul\":1596:1597   */\n      0x00\n        /* \"#utility.yul\":1589:1677   */\n      mstore\n        /* \"#utility.yul\":1696:1700   */\n      0x41\n        /* \"#utility.yul\":1693:1694   */\n      0x04\n        /* \"#utility.yul\":1686:1701   */\n      mstore\n        /* \"#utility.yul\":1720:1724   */\n      0x24\n        /* \"#utility.yul\":1717:1718   */\n      0x00\n        /* \"#utility.yul\":1710:1725   */\n      revert\n        /* \"#utility.yul\":1737:2018   */\n    tag_140:\n        /* \"#utility.yul\":1820:1847   */\n      tag_209\n        /* \"#utility.yul\":1842:1846   */\n      dup3\n        /* \"#utility.yul\":1820:1847   */\n      tag_138\n      jump\t// in\n    tag_209:\n        /* \"#utility.yul\":1812:1818   */\n      dup2\n        /* \"#utility.yul\":1808:1848   */\n      add\n        /* \"#utility.yul\":1950:1956   */\n      dup2\n        /* \"#utility.yul\":1938:1948   */\n      dup2\n        /* \"#utility.yul\":1935:1957   */\n      lt\n        /* \"#utility.yul\":1914:1932   */\n      0xffffffffffffffff\n        /* \"#utility.yul\":1902:1912   */\n      dup3\n        /* \"#utility.yul\":1899:1933   */\n      gt\n        /* \"#utility.yul\":1896:1958   */\n      or\n        /* \"#utility.yul\":1893:1981   */\n      iszero\n      tag_210\n      jumpi\n        /* \"#utility.yul\":1961:1979   */\n      tag_211\n      tag_139\n      jump\t// in\n    tag_211:\n        /* \"#utility.yul\":1893:1981   */\n    tag_210:\n        /* \"#utility.yul\":2001:2011   */\n      dup1\n        /* \"#utility.yul\":1997:1999   */\n      0x40\n        /* \"#utility.yul\":1990:2012   */\n      mstore\n        /* \"#utility.yul\":1780:2018   */\n      pop\n        /* \"#utility.yul\":1737:2018   */\n      pop\n      pop\n      jump\t// out\n        /* \"#utility.yul\":2024:2153   */\n    tag_141:\n        /* \"#utility.yul\":2058:2064   */\n      0x00\n        /* \"#utility.yul\":2085:2105   */\n      tag_213\n      tag_126\n      jump\t// in\n    tag_213:\n        /* \"#utility.yul\":2075:2105   */\n      swap1\n      pop\n        /* \"#utility.yul\":2114:2147   */\n      tag_214\n        /* \"#utility.yul\":2142:2146   */\n      dup3\n        /* \"#utility.yul\":2134:2140   */\n      dup3\n        /* \"#utility.yul\":2114:2147   */\n      tag_140\n      jump\t// in\n    tag_214:\n        /* \"#utility.yul\":2024:2153   */\n      swap2\n      swap1\n      pop\n      jump\t// out\n        /* \"#utility.yul\":2159:2467   */\n    tag_142:\n        /* \"#utility.yul\":2221:2225   */\n      0x00\n        /* \"#utility.yul\":2311:2329   */\n      0xffffffffffffffff\n        /* \"#utility.yul\":2303:2309   */\n      dup3\n        /* \"#utility.yul\":2300:2330   */\n      gt\n        /* \"#utility.yul\":2297:2353   */\n      iszero\n      tag_216\n      jumpi\n        /* \"#utility.yul\":2333:2351   */\n      tag_217\n      tag_139\n      jump\t// in\n    tag_217:\n        /* \"#utility.yul\":2297:2353   */\n    tag_216:\n        /* \"#utility.yul\":2371:2400   */\n      tag_218\n        /* \"#utility.yul\":2393:2399   */\n      dup3\n        /* \"#utility.yul\":2371:2400   */\n      tag_138\n      jump\t// in\n    tag_218:\n        /* \"#utility.yul\":2363:2400   */\n      swap1\n      pop\n        /* \"#utility.yul\":2455:2459   */\n      0x20\n        /* \"#utility.yul\":2449:2453   */\n      dup2\n        /* \"#utility.yul\":2445:2460   */\n      add\n        /* \"#utility.yul\":2437:2460   */\n      swap1\n      pop\n        /* \"#utility.yul\":2159:2467   */\n      swap2\n      swap1\n      pop\n      jump\t// out\n        /* \"#utility.yul\":2473:2621   */\n    tag_143:\n        /* \"#utility.yul\":2571:2577   */\n      dup3\n        /* \"#utility.yul\":2566:2569   */\n      dup2\n        /* \"#utility.yul\":2561:2564   */\n      dup4\n        /* \"#utility.yul\":2548:2578   */\n      calldatacopy\n        /* \"#utility.yul\":2612:2613   */\n      0x00\n        /* \"#utility.yul\":2603:2609   */\n      dup4\n        /* \"#utility.yul\":2598:2601   */\n      dup4\n        /* \"#utility.yul\":2594:2610   */\n      add\n        /* \"#utility.yul\":2587:2614   */\n      mstore\n        /* \"#utility.yul\":2473:2621   */\n      pop\n      pop\n      pop\n      jump\t// out\n        /* \"#utility.yul\":2627:3052   */\n    tag_144:\n        /* \"#utility.yul\":2705:2710   */\n      0x00\n        /* \"#utility.yul\":2730:2796   */\n      tag_221\n        /* \"#utility.yul\":2746:2795   */\n      tag_222\n        /* \"#utility.yul\":2788:2794   */\n      dup5\n        /* \"#utility.yul\":2746:2795   */\n      tag_142\n      jump\t// in\n    tag_222:\n        /* \"#utility.yul\":2730:2796   */\n      tag_141\n      jump\t// in\n    tag_221:\n        /* \"#utility.yul\":2721:2796   */\n      swap1\n      pop\n        /* \"#utility.yul\":2819:2825   */\n      dup3\n        /* \"#utility.yul\":2812:2817   */\n      dup2\n        /* \"#utility.yul\":2805:2826   */\n      mstore\n        /* \"#utility.yul\":2857:2861   */\n      0x20\n        /* \"#utility.yul\":2850:2855   */\n      dup2\n        /* \"#utility.yul\":2846:2862   */\n      add\n        /* \"#utility.yul\":2895:2898   */\n      dup5\n        /* \"#utility.yul\":2886:2892   */\n      dup5\n        /* \"#utility.yul\":2881:2884   */\n      dup5\n        /* \"#utility.yul\":2877:2893   */\n      add\n        /* \"#utility.yul\":2874:2899   */\n      gt\n        /* \"#utility.yul\":2871:2983   */\n      iszero\n      tag_223\n      jumpi\n        /* \"#utility.yul\":2902:2981   */\n      tag_224\n      tag_137\n      jump\t// in\n    tag_224:\n        /* \"#utility.yul\":2871:2983   */\n    tag_223:\n        /* \"#utility.yul\":2992:3046   */\n      tag_225\n        /* \"#utility.yul\":3039:3045   */\n      dup5\n        /* \"#utility.yul\":3034:3037   */\n      dup3\n        /* \"#utility.yul\":3029:3032   */\n      dup6\n        /* \"#utility.yul\":2992:3046   */\n      tag_143\n      jump\t// in\n    tag_225:\n        /* \"#utility.yul\":2711:3052   */\n      pop\n        /* \"#utility.yul\":2627:3052   */\n      swap4\n      swap3\n      pop\n      pop\n      pop\n      jump\t// out\n        /* \"#utility.yul\":3072:3412   */\n    tag_145:\n        /* \"#utility.yul\":3128:3133   */\n      0x00\n        /* \"#utility.yul\":3177:3180   */\n      dup3\n        /* \"#utility.yul\":3170:3174   */\n      0x1f\n        /* \"#utility.yul\":3162:3168   */\n      dup4\n        /* \"#utility.yul\":3158:3175   */\n      add\n        /* \"#utility.yul\":3154:3181   */\n      slt\n        /* \"#utility.yul\":3144:3266   */\n      tag_227\n      jumpi\n        /* \"#utility.yul\":3185:3264   */\n      tag_228\n      tag_136\n      jump\t// in\n    tag_228:\n        /* \"#utility.yul\":3144:3266   */\n    tag_227:\n        /* \"#utility.yul\":3302:3308   */\n      dup2\n        /* \"#utility.yul\":3289:3309   */\n      calldataload\n        /* \"#utility.yul\":3327:3406   */\n      tag_229\n        /* \"#utility.yul\":3402:3405   */\n      dup5\n        /* \"#utility.yul\":3394:3400   */\n      dup3\n        /* \"#utility.yul\":3387:3391   */\n      0x20\n        /* \"#utility.yul\":3379:3385   */\n      dup7\n        /* \"#utility.yul\":3375:3392   */\n      add\n        /* \"#utility.yul\":3327:3406   */\n      tag_144\n      jump\t// in\n    tag_229:\n        /* \"#utility.yul\":3318:3406   */\n      swap2\n      pop\n        /* \"#utility.yul\":3134:3412   */\n      pop\n        /* \"#utility.yul\":3072:3412   */\n      swap3\n      swap2\n      pop\n      pop\n      jump\t// out\n        /* \"#utility.yul\":3418:3725   */\n    tag_146:\n        /* \"#utility.yul\":3479:3483   */\n      0x00\n        /* \"#utility.yul\":3569:3587   */\n      0xffffffffffffffff\n        /* \"#utility.yul\":3561:3567   */\n      dup3\n        /* \"#utility.yul\":3558:3588   */\n      gt\n        /* \"#utility.yul\":3555:3611   */\n      iszero\n      tag_231\n      jumpi\n        /* \"#utility.yul\":3591:3609   */\n      tag_232\n      tag_139\n      jump\t// in\n    tag_232:\n        /* \"#utility.yul\":3555:3611   */\n    tag_231:\n        /* \"#utility.yul\":3629:3658   */\n      tag_233\n        /* \"#utility.yul\":3651:3657   */\n      dup3\n        /* \"#utility.yul\":3629:3658   */\n      tag_138\n      jump\t// in\n    tag_233:\n        /* \"#utility.yul\":3621:3658   */\n      swap1\n      pop\n        /* \"#utility.yul\":3713:3717   */\n      0x20\n        /* \"#utility.yul\":3707:3711   */\n      dup2\n        /* \"#utility.yul\":3703:3718   */\n      add\n        /* \"#utility.yul\":3695:3718   */\n      swap1\n      pop\n        /* \"#utility.yul\":3418:3725   */\n      swap2\n      swap1\n      pop\n      jump\t// out\n        /* \"#utility.yul\":3731:4154   */\n    tag_147:\n        /* \"#utility.yul\":3808:3813   */\n      0x00\n        /* \"#utility.yul\":3833:3898   */\n      tag_235\n        /* \"#utility.yul\":3849:3897   */\n      tag_236\n        /* \"#utility.yul\":3890:3896   */\n      dup5\n        /* \"#utility.yul\":3849:3897   */\n      tag_146\n      jump\t// in\n    tag_236:\n        /* \"#utility.yul\":3833:3898   */\n      tag_141\n      jump\t// in\n    tag_235:\n        /* \"#utility.yul\":3824:3898   */\n      swap1\n      pop\n        /* \"#utility.yul\":3921:3927   */\n      dup3\n        /* \"#utility.yul\":3914:3919   */\n      dup2\n        /* \"#utility.yul\":3907:3928   */\n      mstore\n        /* \"#utility.yul\":3959:3963   */\n      0x20\n        /* \"#utility.yul\":3952:3957   */\n      dup2\n        /* \"#utility.yul\":3948:3964   */\n      add\n        /* \"#utility.yul\":3997:4000   */\n      dup5\n        /* \"#utility.yul\":3988:3994   */\n      dup5\n        /* \"#utility.yul\":3983:3986   */\n      dup5\n        /* \"#utility.yul\":3979:3995   */\n      add\n        /* \"#utility.yul\":3976:4001   */\n      gt\n        /* \"#utility.yul\":3973:4085   */\n      iszero\n      tag_237\n      jumpi\n        /* \"#utility.yul\":4004:4083   */\n      tag_238\n      tag_137\n      jump\t// in\n    tag_238:\n        /* \"#utility.yul\":3973:4085   */\n    tag_237:\n        /* \"#utility.yul\":4094:4148   */\n      tag_239\n        /* \"#utility.yul\":4141:4147   */\n      dup5\n        /* \"#utility.yul\":4136:4139   */\n      dup3\n        /* \"#utility.yul\":4131:4134   */\n      dup6\n        /* \"#utility.yul\":4094:4148   */\n      tag_143\n      jump\t// in\n    tag_239:\n        /* \"#utility.yul\":3814:4154   */\n      pop\n        /* \"#utility.yul\":3731:4154   */\n      swap4\n      swap3\n      pop\n      pop\n      pop\n      jump\t// out\n        /* \"#utility.yul\":4173:4511   */\n    tag_148:\n        /* \"#utility.yul\":4228:4233   */\n      0x00\n        /* \"#utility.yul\":4277:4280   */\n      dup3\n        /* \"#utility.yul\":4270:4274   */\n      0x1f\n        /* \"#utility.yul\":4262:4268   */\n      dup4\n        /* \"#utility.yul\":4258:4275   */\n      add\n        /* \"#utility.yul\":4254:4281   */\n      slt\n        /* \"#utility.yul\":4244:4366   */\n      tag_241\n      jumpi\n        /* \"#utility.yul\":4285:4364   */\n      tag_242\n      tag_136\n      jump\t// in\n    tag_242:\n        /* \"#utility.yul\":4244:4366   */\n    tag_241:\n        /* \"#utility.yul\":4402:4408   */\n      dup2\n        /* \"#utility.yul\":4389:4409   */\n      calldataload\n        /* \"#utility.yul\":4427:4505   */\n      tag_243\n        /* \"#utility.yul\":4501:4504   */\n      dup5\n        /* \"#utility.yul\":4493:4499   */\n      dup3\n        /* \"#utility.yul\":4486:4490   */\n      0x20\n        /* \"#utility.yul\":4478:4484   */\n      dup7\n        /* \"#utility.yul\":4474:4491   */\n      add\n        /* \"#utility.yul\":4427:4505   */\n      tag_147\n      jump\t// in\n    tag_243:\n        /* \"#utility.yul\":4418:4505   */\n      swap2\n      pop\n        /* \"#utility.yul\":4234:4511   */\n      pop\n        /* \"#utility.yul\":4173:4511   */\n      swap3\n      swap2\n      pop\n      pop\n      jump\t// out\n        /* \"#utility.yul\":4517:5786   */\n    tag_16:\n        /* \"#utility.yul\":4631:4637   */\n      0x00\n        /* \"#utility.yul\":4639:4645   */\n      dup1\n        /* \"#utility.yul\":4647:4653   */\n      0x00\n        /* \"#utility.yul\":4655:4661   */\n      dup1\n        /* \"#utility.yul\":4663:4669   */\n      0x00\n        /* \"#utility.yul\":4712:4715   */\n      0xa0\n        /* \"#utility.yul\":4700:4709   */\n      dup7\n        /* \"#utility.yul\":4691:4698   */\n      dup9\n        /* \"#utility.yul\":4687:4710   */\n      sub\n        /* \"#utility.yul\":4683:4716   */\n      slt\n        /* \"#utility.yul\":4680:4800   */\n      iszero\n      tag_245\n      jumpi\n        /* \"#utility.yul\":4719:4798   */\n      tag_246\n      tag_127\n      jump\t// in\n    tag_246:\n        /* \"#utility.yul\":4680:4800   */\n    tag_245:\n        /* \"#utility.yul\":4839:4840   */\n      0x00\n        /* \"#utility.yul\":4864:4917   */\n      tag_247\n        /* \"#utility.yul\":4909:4916   */\n      dup9\n        /* \"#utility.yul\":4900:4906   */\n      dup3\n        /* \"#utility.yul\":4889:4898   */\n      dup10\n        /* \"#utility.yul\":4885:4907   */\n      add\n        /* \"#utility.yul\":4864:4917   */\n      tag_132\n      jump\t// in\n    tag_247:\n        /* \"#utility.yul\":4854:4917   */\n      swap6\n      pop\n        /* \"#utility.yul\":4810:4927   */\n      pop\n        /* \"#utility.yul\":4966:4968   */\n      0x20\n        /* \"#utility.yul\":4992:5045   */\n      tag_248\n        /* \"#utility.yul\":5037:5044   */\n      dup9\n        /* \"#utility.yul\":5028:5034   */\n      dup3\n        /* \"#utility.yul\":5017:5026   */\n      dup10\n        /* \"#utility.yul\":5013:5035   */\n      add\n        /* \"#utility.yul\":4992:5045   */\n      tag_135\n      jump\t// in\n    tag_248:\n        /* \"#utility.yul\":4982:5045   */\n      swap5\n      pop\n        /* \"#utility.yul\":4937:5055   */\n      pop\n        /* \"#utility.yul\":5122:5124   */\n      0x40\n        /* \"#utility.yul\":5111:5120   */\n      dup7\n        /* \"#utility.yul\":5107:5125   */\n      add\n        /* \"#utility.yul\":5094:5126   */\n      calldataload\n        /* \"#utility.yul\":5153:5171   */\n      0xffffffffffffffff\n        /* \"#utility.yul\":5145:5151   */\n      dup2\n        /* \"#utility.yul\":5142:5172   */\n      gt\n        /* \"#utility.yul\":5139:5256   */\n      iszero\n      tag_249\n      jumpi\n        /* \"#utility.yul\":5175:5254   */\n      tag_250\n      tag_128\n      jump\t// in\n    tag_250:\n        /* \"#utility.yul\":5139:5256   */\n    tag_249:\n        /* \"#utility.yul\":5280:5343   */\n      tag_251\n        /* \"#utility.yul\":5335:5342   */\n      dup9\n        /* \"#utility.yul\":5326:5332   */\n      dup3\n        /* \"#utility.yul\":5315:5324   */\n      dup10\n        /* \"#utility.yul\":5311:5333   */\n      add\n        /* \"#utility.yul\":5280:5343   */\n      tag_145\n      jump\t// in\n    tag_251:\n        /* \"#utility.yul\":5270:5343   */\n      swap4\n      pop\n        /* \"#utility.yul\":5065:5353   */\n      pop\n        /* \"#utility.yul\":5420:5422   */\n      0x60\n        /* \"#utility.yul\":5409:5418   */\n      dup7\n        /* \"#utility.yul\":5405:5423   */\n      add\n        /* \"#utility.yul\":5392:5424   */\n      calldataload\n        /* \"#utility.yul\":5451:5469   */\n      0xffffffffffffffff\n        /* \"#utility.yul\":5443:5449   */\n      dup2\n        /* \"#utility.yul\":5440:5470   */\n      gt\n        /* \"#utility.yul\":5437:5554   */\n      iszero\n      tag_252\n      jumpi\n        /* \"#utility.yul\":5473:5552   */\n      tag_253\n      tag_128\n      jump\t// in\n    tag_253:\n        /* \"#utility.yul\":5437:5554   */\n    tag_252:\n        /* \"#utility.yul\":5578:5640   */\n      tag_254\n        /* \"#utility.yul\":5632:5639   */\n      dup9\n        /* \"#utility.yul\":5623:5629   */\n      dup3\n        /* \"#utility.yul\":5612:5621   */\n      dup10\n        /* \"#utility.yul\":5608:5630   */\n      add\n        /* \"#utility.yul\":5578:5640   */\n      tag_148\n      jump\t// in\n    tag_254:\n        /* \"#utility.yul\":5568:5640   */\n      swap3\n      pop\n        /* \"#utility.yul\":5363:5650   */\n      pop\n        /* \"#utility.yul\":5689:5692   */\n      0x80\n        /* \"#utility.yul\":5716:5769   */\n      tag_255\n        /* \"#utility.yul\":5761:5768   */\n      dup9\n        /* \"#utility.yul\":5752:5758   */\n      dup3\n        /* \"#utility.yul\":5741:5750   */\n      dup10\n        /* \"#utility.yul\":5737:5759   */\n      add\n        /* \"#utility.yul\":5716:5769   */\n      tag_135\n      jump\t// in\n    tag_255:\n        /* \"#utility.yul\":5706:5769   */\n      swap2\n      pop\n        /* \"#utility.yul\":5660:5779   */\n      pop\n        /* \"#utility.yul\":4517:5786   */\n      swap3\n      swap6\n      pop\n      swap3\n      swap6\n      swap1\n      swap4\n      pop\n      jump\t// out\n        /* \"#utility.yul\":5792:5869   */\n    tag_149:\n        /* \"#utility.yul\":5829:5836   */\n      0x00\n        /* \"#utility.yul\":5858:5863   */\n      dup2\n        /* \"#utility.yul\":5847:5863   */\n      swap1\n      pop\n        /* \"#utility.yul\":5792:5869   */\n      swap2\n      swap1\n      pop\n      jump\t// out\n        /* \"#utility.yul\":5875:5993   */\n    tag_150:\n        /* \"#utility.yul\":5962:5986   */\n      tag_258\n        /* \"#utility.yul\":5980:5985   */\n      dup2\n        /* \"#utility.yul\":5962:5986   */\n      tag_149\n      jump\t// in\n    tag_258:\n        /* \"#utility.yul\":5957:5960   */\n      dup3\n        /* \"#utility.yul\":5950:5987   */\n      mstore\n        /* \"#utility.yul\":5875:5993   */\n      pop\n      pop\n      jump\t// out\n        /* \"#utility.yul\":5999:6221   */\n    tag_19:\n        /* \"#utility.yul\":6092:6096   */\n      0x00\n        /* \"#utility.yul\":6130:6132   */\n      0x20\n        /* \"#utility.yul\":6119:6128   */\n      dup3\n        /* \"#utility.yul\":6115:6133   */\n      add\n        /* \"#utility.yul\":6107:6133   */\n      swap1\n      pop\n        /* \"#utility.yul\":6143:6214   */\n      tag_260\n        /* \"#utility.yul\":6211:6212   */\n      0x00\n        /* \"#utility.yul\":6200:6209   */\n      dup4\n        /* \"#utility.yul\":6196:6213   */\n      add\n        /* \"#utility.yul\":6187:6193   */\n      dup5\n        /* \"#utility.yul\":6143:6214   */\n      tag_150\n      jump\t// in\n    tag_260:\n        /* \"#utility.yul\":5999:6221   */\n      swap3\n      swap2\n      pop\n      pop\n      jump\t// out\n        /* \"#utility.yul\":6227:6325   */\n    tag_151:\n        /* \"#utility.yul\":6278:6284   */\n      0x00\n        /* \"#utility.yul\":6312:6317   */\n      dup2\n        /* \"#utility.yul\":6306:6318   */\n      mload\n        /* \"#utility.yul\":6296:6318   */\n      swap1\n      pop\n        /* \"#utility.yul\":6227:6325   */\n      swap2\n      swap1\n      pop\n      jump\t// out\n        /* \"#utility.yul\":6331:6499   */\n    tag_152:\n        /* \"#utility.yul\":6414:6425   */\n      0x00\n        /* \"#utility.yul\":6448:6454   */\n      dup3\n        /* \"#utility.yul\":6443:6446   */\n      dup3\n        /* \"#utility.yul\":6436:6455   */\n      mstore\n        /* \"#utility.yul\":6488:6492   */\n      0x20\n        /* \"#utility.yul\":6483:6486   */\n      dup3\n        /* \"#utility.yul\":6479:6493   */\n      add\n        /* \"#utility.yul\":6464:6493   */\n      swap1\n      pop\n        /* \"#utility.yul\":6331:6499   */\n      swap3\n      swap2\n      pop\n      pop\n      jump\t// out\n        /* \"#utility.yul\":6505:6753   */\n    tag_153:\n        /* \"#utility.yul\":6587:6588   */\n      0x00\n        /* \"#utility.yul\":6597:6710   */\n    tag_264:\n        /* \"#utility.yul\":6611:6617   */\n      dup4\n        /* \"#utility.yul\":6608:6609   */\n      dup2\n        /* \"#utility.yul\":6605:6618   */\n      lt\n        /* \"#utility.yul\":6597:6710   */\n      iszero\n      tag_266\n      jumpi\n        /* \"#utility.yul\":6696:6697   */\n      dup1\n        /* \"#utility.yul\":6691:6694   */\n      dup3\n        /* \"#utility.yul\":6687:6698   */\n      add\n        /* \"#utility.yul\":6681:6699   */\n      mload\n        /* \"#utility.yul\":6677:6678   */\n      dup2\n        /* \"#utility.yul\":6672:6675   */\n      dup5\n        /* \"#utility.yul\":6668:6679   */\n      add\n        /* \"#utility.yul\":6661:6700   */\n      mstore\n        /* \"#utility.yul\":6633:6635   */\n      0x20\n        /* \"#utility.yul\":6630:6631   */\n      dup2\n        /* \"#utility.yul\":6626:6636   */\n      add\n        /* \"#utility.yul\":6621:6636   */\n      swap1\n      pop\n        /* \"#utility.yul\":6597:6710   */\n      jump(tag_264)\n    tag_266:\n        /* \"#utility.yul\":6744:6745   */\n      0x00\n        /* \"#utility.yul\":6735:6741   */\n      dup5\n        /* \"#utility.yul\":6730:6733   */\n      dup5\n        /* \"#utility.yul\":6726:6742   */\n      add\n        /* \"#utility.yul\":6719:6746   */\n      mstore\n        /* \"#utility.yul\":6567:6753   */\n      pop\n        /* \"#utility.yul\":6505:6753   */\n      pop\n      pop\n      pop\n      jump\t// out\n        /* \"#utility.yul\":6759:7132   */\n    tag_154:\n        /* \"#utility.yul\":6845:6848   */\n      0x00\n        /* \"#utility.yul\":6873:6911   */\n      tag_268\n        /* \"#utility.yul\":6905:6910   */\n      dup3\n        /* \"#utility.yul\":6873:6911   */\n      tag_151\n      jump\t// in\n    tag_268:\n        /* \"#utility.yul\":6927:6997   */\n      tag_269\n        /* \"#utility.yul\":6990:6996   */\n      dup2\n        /* \"#utility.yul\":6985:6988   */\n      dup6\n        /* \"#utility.yul\":6927:6997   */\n      tag_152\n      jump\t// in\n    tag_269:\n        /* \"#utility.yul\":6920:6997   */\n      swap4\n      pop\n        /* \"#utility.yul\":7006:7071   */\n      tag_270\n        /* \"#utility.yul\":7064:7070   */\n      dup2\n        /* \"#utility.yul\":7059:7062   */\n      dup6\n        /* \"#utility.yul\":7052:7056   */\n      0x20\n        /* \"#utility.yul\":7045:7050   */\n      dup7\n        /* \"#utility.yul\":7041:7057   */\n      add\n        /* \"#utility.yul\":7006:7071   */\n      tag_153\n      jump\t// in\n    tag_270:\n        /* \"#utility.yul\":7096:7125   */\n      tag_271\n        /* \"#utility.yul\":7118:7124   */\n      dup2\n        /* \"#utility.yul\":7096:7125   */\n      tag_138\n      jump\t// in\n    tag_271:\n        /* \"#utility.yul\":7091:7094   */\n      dup5\n        /* \"#utility.yul\":7087:7126   */\n      add\n        /* \"#utility.yul\":7080:7126   */\n      swap2\n      pop\n        /* \"#utility.yul\":6849:7132   */\n      pop\n        /* \"#utility.yul\":6759:7132   */\n      swap3\n      swap2\n      pop\n      pop\n      jump\t// out\n        /* \"#utility.yul\":7138:7447   */\n    tag_24:\n        /* \"#utility.yul\":7249:7253   */\n      0x00\n        /* \"#utility.yul\":7287:7289   */\n      0x20\n        /* \"#utility.yul\":7276:7285   */\n      dup3\n        /* \"#utility.yul\":7272:7290   */\n      add\n        /* \"#utility.yul\":7264:7290   */\n      swap1\n      pop\n        /* \"#utility.yul\":7336:7345   */\n      dup2\n        /* \"#utility.yul\":7330:7334   */\n      dup2\n        /* \"#utility.yul\":7326:7346   */\n      sub\n        /* \"#utility.yul\":7322:7323   */\n      0x00\n        /* \"#utility.yul\":7311:7320   */\n      dup4\n        /* \"#utility.yul\":7307:7324   */\n      add\n        /* \"#utility.yul\":7300:7347   */\n      mstore\n        /* \"#utility.yul\":7364:7440   */\n      tag_273\n        /* \"#utility.yul\":7435:7439   */\n      dup2\n        /* \"#utility.yul\":7426:7432   */\n      dup5\n        /* \"#utility.yul\":7364:7440   */\n      tag_154\n      jump\t// in\n    tag_273:\n        /* \"#utility.yul\":7356:7440   */\n      swap1\n      pop\n        /* \"#utility.yul\":7138:7447   */\n      swap3\n      swap2\n      pop\n      pop\n      jump\t// out\n        /* \"#utility.yul\":7453:7571   */\n    tag_155:\n        /* \"#utility.yul\":7540:7564   */\n      tag_275\n        /* \"#utility.yul\":7558:7563   */\n      dup2\n        /* \"#utility.yul\":7540:7564   */\n      tag_133\n      jump\t// in\n    tag_275:\n        /* \"#utility.yul\":7535:7538   */\n      dup3\n        /* \"#utility.yul\":7528:7565   */\n      mstore\n        /* \"#utility.yul\":7453:7571   */\n      pop\n      pop\n      jump\t// out\n        /* \"#utility.yul\":7577:7799   */\n    tag_38:\n        /* \"#utility.yul\":7670:7674   */\n      0x00\n        /* \"#utility.yul\":7708:7710   */\n      0x20\n        /* \"#utility.yul\":7697:7706   */\n      dup3\n        /* \"#utility.yul\":7693:7711   */\n      add\n        /* \"#utility.yul\":7685:7711   */\n      swap1\n      pop\n        /* \"#utility.yul\":7721:7792   */\n      tag_277\n        /* \"#utility.yul\":7789:7790   */\n      0x00\n        /* \"#utility.yul\":7778:7787   */\n      dup4\n        /* \"#utility.yul\":7774:7791   */\n      add\n        /* \"#utility.yul\":7765:7771   */\n      dup5\n        /* \"#utility.yul\":7721:7792   */\n      tag_155\n      jump\t// in\n    tag_277:\n        /* \"#utility.yul\":7577:7799   */\n      swap3\n      swap2\n      pop\n      pop\n      jump\t// out\n        /* \"#utility.yul\":7805:8134   */\n    tag_46:\n        /* \"#utility.yul\":7864:7870   */\n      0x00\n        /* \"#utility.yul\":7913:7915   */\n      0x20\n        /* \"#utility.yul\":7901:7910   */\n      dup3\n        /* \"#utility.yul\":7892:7899   */\n      dup5\n        /* \"#utility.yul\":7888:7911   */\n      sub\n        /* \"#utility.yul\":7884:7916   */\n      slt\n        /* \"#utility.yul\":7881:8000   */\n      iszero\n      tag_279\n      jumpi\n        /* \"#utility.yul\":7919:7998   */\n      tag_280\n      tag_127\n      jump\t// in\n    tag_280:\n        /* \"#utility.yul\":7881:8000   */\n    tag_279:\n        /* \"#utility.yul\":8039:8040   */\n      0x00\n        /* \"#utility.yul\":8064:8117   */\n      tag_281\n        /* \"#utility.yul\":8109:8116   */\n      dup5\n        /* \"#utility.yul\":8100:8106   */\n      dup3\n        /* \"#utility.yul\":8089:8098   */\n      dup6\n        /* \"#utility.yul\":8085:8107   */\n      add\n        /* \"#utility.yul\":8064:8117   */\n      tag_132\n      jump\t// in\n    tag_281:\n        /* \"#utility.yul\":8054:8117   */\n      swap2\n      pop\n        /* \"#utility.yul\":8010:8127   */\n      pop\n        /* \"#utility.yul\":7805:8134   */\n      swap3\n      swap2\n      pop\n      pop\n      jump\t// out\n        /* \"#utility.yul\":8140:8262   */\n    tag_156:\n        /* \"#utility.yul\":8213:8237   */\n      tag_283\n        /* \"#utility.yul\":8231:8236   */\n      dup2\n        /* \"#utility.yul\":8213:8237   */\n      tag_149\n      jump\t// in\n    tag_283:\n        /* \"#utility.yul\":8206:8211   */\n      dup2\n        /* \"#utility.yul\":8203:8238   */\n      eq\n        /* \"#utility.yul\":8193:8256   */\n      tag_284\n      jumpi\n        /* \"#utility.yul\":8252:8253   */\n      0x00\n        /* \"#utility.yul\":8249:8250   */\n      dup1\n        /* \"#utility.yul\":8242:8254   */\n      revert\n        /* \"#utility.yul\":8193:8256   */\n    tag_284:\n        /* \"#utility.yul\":8140:8262   */\n      pop\n      jump\t// out\n        /* \"#utility.yul\":8268:8407   */\n    tag_157:\n        /* \"#utility.yul\":8314:8319   */\n      0x00\n        /* \"#utility.yul\":8352:8358   */\n      dup2\n        /* \"#utility.yul\":8339:8359   */\n      calldataload\n        /* \"#utility.yul\":8330:8359   */\n      swap1\n      pop\n        /* \"#utility.yul\":8368:8401   */\n      tag_286\n        /* \"#utility.yul\":8395:8400   */\n      dup2\n        /* \"#utility.yul\":8368:8401   */\n      tag_156\n      jump\t// in\n    tag_286:\n        /* \"#utility.yul\":8268:8407   */\n      swap3\n      swap2\n      pop\n      pop\n      jump\t// out\n        /* \"#utility.yul\":8413:8742   */\n    tag_55:\n        /* \"#utility.yul\":8472:8478   */\n      0x00\n        /* \"#utility.yul\":8521:8523   */\n      0x20\n        /* \"#utility.yul\":8509:8518   */\n      dup3\n        /* \"#utility.yul\":8500:8507   */\n      dup5\n        /* \"#utility.yul\":8496:8519   */\n      sub\n        /* \"#utility.yul\":8492:8524   */\n      slt\n        /* \"#utility.yul\":8489:8608   */\n      iszero\n      tag_288\n      jumpi\n        /* \"#utility.yul\":8527:8606   */\n      tag_289\n      tag_127\n      jump\t// in\n    tag_289:\n        /* \"#utility.yul\":8489:8608   */\n    tag_288:\n        /* \"#utility.yul\":8647:8648   */\n      0x00\n        /* \"#utility.yul\":8672:8725   */\n      tag_290\n        /* \"#utility.yul\":8717:8724   */\n      dup5\n        /* \"#utility.yul\":8708:8714   */\n      dup3\n        /* \"#utility.yul\":8697:8706   */\n      dup6\n        /* \"#utility.yul\":8693:8715   */\n      add\n        /* \"#utility.yul\":8672:8725   */\n      tag_157\n      jump\t// in\n    tag_290:\n        /* \"#utility.yul\":8662:8725   */\n      swap2\n      pop\n        /* \"#utility.yul\":8618:8735   */\n      pop\n        /* \"#utility.yul\":8413:8742   */\n      swap3\n      swap2\n      pop\n      pop\n      jump\t// out\n        /* \"#utility.yul\":8748:8838   */\n    tag_158:\n        /* \"#utility.yul\":8782:8789   */\n      0x00\n        /* \"#utility.yul\":8825:8830   */\n      dup2\n        /* \"#utility.yul\":8818:8831   */\n      iszero\n        /* \"#utility.yul\":8811:8832   */\n      iszero\n        /* \"#utility.yul\":8800:8832   */\n      swap1\n      pop\n        /* \"#utility.yul\":8748:8838   */\n      swap2\n      swap1\n      pop\n      jump\t// out\n        /* \"#utility.yul\":8844:8953   */\n    tag_159:\n        /* \"#utility.yul\":8925:8946   */\n      tag_293\n        /* \"#utility.yul\":8940:8945   */\n      dup2\n        /* \"#utility.yul\":8925:8946   */\n      tag_158\n      jump\t// in\n    tag_293:\n        /* \"#utility.yul\":8920:8923   */\n      dup3\n        /* \"#utility.yul\":8913:8947   */\n      mstore\n        /* \"#utility.yul\":8844:8953   */\n      pop\n      pop\n      jump\t// out\n        /* \"#utility.yul\":8959:9169   */\n    tag_58:\n        /* \"#utility.yul\":9046:9050   */\n      0x00\n        /* \"#utility.yul\":9084:9086   */\n      0x20\n        /* \"#utility.yul\":9073:9082   */\n      dup3\n        /* \"#utility.yul\":9069:9087   */\n      add\n        /* \"#utility.yul\":9061:9087   */\n      swap1\n      pop\n        /* \"#utility.yul\":9097:9162   */\n      tag_295\n        /* \"#utility.yul\":9159:9160   */\n      0x00\n        /* \"#utility.yul\":9148:9157   */\n      dup4\n        /* \"#utility.yul\":9144:9161   */\n      add\n        /* \"#utility.yul\":9135:9141   */\n      dup5\n        /* \"#utility.yul\":9097:9162   */\n      tag_159\n      jump\t// in\n    tag_295:\n        /* \"#utility.yul\":8959:9169   */\n      swap3\n      swap2\n      pop\n      pop\n      jump\t// out\n        /* \"#utility.yul\":9175:9293   */\n    tag_160:\n        /* \"#utility.yul\":9262:9286   */\n      tag_297\n        /* \"#utility.yul\":9280:9285   */\n      dup2\n        /* \"#utility.yul\":9262:9286   */\n      tag_130\n      jump\t// in\n    tag_297:\n        /* \"#utility.yul\":9257:9260   */\n      dup3\n        /* \"#utility.yul\":9250:9287   */\n      mstore\n        /* \"#utility.yul\":9175:9293   */\n      pop\n      pop\n      jump\t// out\n        /* \"#utility.yul\":9299:9521   */\n    tag_63:\n        /* \"#utility.yul\":9392:9396   */\n      0x00\n        /* \"#utility.yul\":9430:9432   */\n      0x20\n        /* \"#utility.yul\":9419:9428   */\n      dup3\n        /* \"#utility.yul\":9415:9433   */\n      add\n        /* \"#utility.yul\":9407:9433   */\n      swap1\n      pop\n        /* \"#utility.yul\":9443:9514   */\n      tag_299\n        /* \"#utility.yul\":9511:9512   */\n      0x00\n        /* \"#utility.yul\":9500:9509   */\n      dup4\n        /* \"#utility.yul\":9496:9513   */\n      add\n        /* \"#utility.yul\":9487:9493   */\n      dup5\n        /* \"#utility.yul\":9443:9514   */\n      tag_160\n      jump\t// in\n    tag_299:\n        /* \"#utility.yul\":9299:9521   */\n      swap3\n      swap2\n      pop\n      pop\n      jump\t// out\n        /* \"#utility.yul\":9527:9626   */\n    tag_161:\n        /* \"#utility.yul\":9579:9585   */\n      0x00\n        /* \"#utility.yul\":9613:9618   */\n      dup2\n        /* \"#utility.yul\":9607:9619   */\n      mload\n        /* \"#utility.yul\":9597:9619   */\n      swap1\n      pop\n        /* \"#utility.yul\":9527:9626   */\n      swap2\n      swap1\n      pop\n      jump\t// out\n        /* \"#utility.yul\":9632:9801   */\n    tag_162:\n        /* \"#utility.yul\":9716:9727   */\n      0x00\n        /* \"#utility.yul\":9750:9756   */\n      dup3\n        /* \"#utility.yul\":9745:9748   */\n      dup3\n        /* \"#utility.yul\":9738:9757   */\n      mstore\n        /* \"#utility.yul\":9790:9794   */\n      0x20\n        /* \"#utility.yul\":9785:9788   */\n      dup3\n        /* \"#utility.yul\":9781:9795   */\n      add\n        /* \"#utility.yul\":9766:9795   */\n      swap1\n      pop\n        /* \"#utility.yul\":9632:9801   */\n      swap3\n      swap2\n      pop\n      pop\n      jump\t// out\n        /* \"#utility.yul\":9807:10184   */\n    tag_163:\n        /* \"#utility.yul\":9895:9898   */\n      0x00\n        /* \"#utility.yul\":9923:9962   */\n      tag_303\n        /* \"#utility.yul\":9956:9961   */\n      dup3\n        /* \"#utility.yul\":9923:9962   */\n      tag_161\n      jump\t// in\n    tag_303:\n        /* \"#utility.yul\":9978:10049   */\n      tag_304\n        /* \"#utility.yul\":10042:10048   */\n      dup2\n        /* \"#utility.yul\":10037:10040   */\n      dup6\n        /* \"#utility.yul\":9978:10049   */\n      tag_162\n      jump\t// in\n    tag_304:\n        /* \"#utility.yul\":9971:10049   */\n      swap4\n      pop\n        /* \"#utility.yul\":10058:10123   */\n      tag_305\n        /* \"#utility.yul\":10116:10122   */\n      dup2\n        /* \"#utility.yul\":10111:10114   */\n      dup6\n        /* \"#utility.yul\":10104:10108   */\n      0x20\n        /* \"#utility.yul\":10097:10102   */\n      dup7\n        /* \"#utility.yul\":10093:10109   */\n      add\n        /* \"#utility.yul\":10058:10123   */\n      tag_153\n      jump\t// in\n    tag_305:\n        /* \"#utility.yul\":10148:10177   */\n      tag_306\n        /* \"#utility.yul\":10170:10176   */\n      dup2\n        /* \"#utility.yul\":10148:10177   */\n      tag_138\n      jump\t// in\n    tag_306:\n        /* \"#utility.yul\":10143:10146   */\n      dup5\n        /* \"#utility.yul\":10139:10178   */\n      add\n        /* \"#utility.yul\":10132:10178   */\n      swap2\n      pop\n        /* \"#utility.yul\":9899:10184   */\n      pop\n        /* \"#utility.yul\":9807:10184   */\n      swap3\n      swap2\n      pop\n      pop\n      jump\t// out\n        /* \"#utility.yul\":10190:11032   */\n    tag_66:\n        /* \"#utility.yul\":10433:10437   */\n      0x00\n        /* \"#utility.yul\":10471:10474   */\n      0xa0\n        /* \"#utility.yul\":10460:10469   */\n      dup3\n        /* \"#utility.yul\":10456:10475   */\n      add\n        /* \"#utility.yul\":10448:10475   */\n      swap1\n      pop\n        /* \"#utility.yul\":10485:10556   */\n      tag_308\n        /* \"#utility.yul\":10553:10554   */\n      0x00\n        /* \"#utility.yul\":10542:10551   */\n      dup4\n        /* \"#utility.yul\":10538:10555   */\n      add\n        /* \"#utility.yul\":10529:10535   */\n      dup9\n        /* \"#utility.yul\":10485:10556   */\n      tag_160\n      jump\t// in\n    tag_308:\n        /* \"#utility.yul\":10566:10638   */\n      tag_309\n        /* \"#utility.yul\":10634:10636   */\n      0x20\n        /* \"#utility.yul\":10623:10632   */\n      dup4\n        /* \"#utility.yul\":10619:10637   */\n      add\n        /* \"#utility.yul\":10610:10616   */\n      dup8\n        /* \"#utility.yul\":10566:10638   */\n      tag_155\n      jump\t// in\n    tag_309:\n        /* \"#utility.yul\":10685:10694   */\n      dup2\n        /* \"#utility.yul\":10679:10683   */\n      dup2\n        /* \"#utility.yul\":10675:10695   */\n      sub\n        /* \"#utility.yul\":10670:10672   */\n      0x40\n        /* \"#utility.yul\":10659:10668   */\n      dup4\n        /* \"#utility.yul\":10655:10673   */\n      add\n        /* \"#utility.yul\":10648:10696   */\n      mstore\n        /* \"#utility.yul\":10713:10791   */\n      tag_310\n        /* \"#utility.yul\":10786:10790   */\n      dup2\n        /* \"#utility.yul\":10777:10783   */\n      dup7\n        /* \"#utility.yul\":10713:10791   */\n      tag_163\n      jump\t// in\n    tag_310:\n        /* \"#utility.yul\":10705:10791   */\n      swap1\n      pop\n        /* \"#utility.yul\":10838:10847   */\n      dup2\n        /* \"#utility.yul\":10832:10836   */\n      dup2\n        /* \"#utility.yul\":10828:10848   */\n      sub\n        /* \"#utility.yul\":10823:10825   */\n      0x60\n        /* \"#utility.yul\":10812:10821   */\n      dup4\n        /* \"#utility.yul\":10808:10826   */\n      add\n        /* \"#utility.yul\":10801:10849   */\n      mstore\n        /* \"#utility.yul\":10866:10942   */\n      tag_311\n        /* \"#utility.yul\":10937:10941   */\n      dup2\n        /* \"#utility.yul\":10928:10934   */\n      dup6\n        /* \"#utility.yul\":10866:10942   */\n      tag_154\n      jump\t// in\n    tag_311:\n        /* \"#utility.yul\":10858:10942   */\n      swap1\n      pop\n        /* \"#utility.yul\":10952:11025   */\n      tag_312\n        /* \"#utility.yul\":11020:11023   */\n      0x80\n        /* \"#utility.yul\":11009:11018   */\n      dup4\n        /* \"#utility.yul\":11005:11024   */\n      add\n        /* \"#utility.yul\":10996:11002   */\n      dup5\n        /* \"#utility.yul\":10952:11025   */\n      tag_155\n      jump\t// in\n    tag_312:\n        /* \"#utility.yul\":10190:11032   */\n      swap7\n      swap6\n      pop\n      pop\n      pop\n      pop\n      pop\n      pop\n      jump\t// out\n        /* \"#utility.yul\":11038:11214   */\n    tag_164:\n        /* \"#utility.yul\":11178:11206   */\n      0x54696d656c6f636b3a2043616c6c6572206e6f742061646d696e000000000000\n        /* \"#utility.yul\":11174:11175   */\n      0x00\n        /* \"#utility.yul\":11166:11172   */\n      dup3\n        /* \"#utility.yul\":11162:11176   */\n      add\n        /* \"#utility.yul\":11155:11207   */\n      mstore\n        /* \"#utility.yul\":11038:11214   */\n      pop\n      jump\t// out\n        /* \"#utility.yul\":11220:11586   */\n    tag_165:\n        /* \"#utility.yul\":11362:11365   */\n      0x00\n        /* \"#utility.yul\":11383:11450   */\n      tag_315\n        /* \"#utility.yul\":11447:11449   */\n      0x1a\n        /* \"#utility.yul\":11442:11445   */\n      dup4\n        /* \"#utility.yul\":11383:11450   */\n      tag_162\n      jump\t// in\n    tag_315:\n        /* \"#utility.yul\":11376:11450   */\n      swap2\n      pop\n        /* \"#utility.yul\":11459:11552   */\n      tag_316\n        /* \"#utility.yul\":11548:11551   */\n      dup3\n        /* \"#utility.yul\":11459:11552   */\n      tag_164\n      jump\t// in\n    tag_316:\n        /* \"#utility.yul\":11577:11579   */\n      0x20\n        /* \"#utility.yul\":11572:11575   */\n      dup3\n        /* \"#utility.yul\":11568:11580   */\n      add\n        /* \"#utility.yul\":11561:11580   */\n      swap1\n      pop\n        /* \"#utility.yul\":11220:11586   */\n      swap2\n      swap1\n      pop\n      jump\t// out\n        /* \"#utility.yul\":11592:12011   */\n    tag_70:\n        /* \"#utility.yul\":11758:11762   */\n      0x00\n        /* \"#utility.yul\":11796:11798   */\n      0x20\n        /* \"#utility.yul\":11785:11794   */\n      dup3\n        /* \"#utility.yul\":11781:11799   */\n      add\n        /* \"#utility.yul\":11773:11799   */\n      swap1\n      pop\n        /* \"#utility.yul\":11845:11854   */\n      dup2\n        /* \"#utility.yul\":11839:11843   */\n      dup2\n        /* \"#utility.yul\":11835:11855   */\n      sub\n        /* \"#utility.yul\":11831:11832   */\n      0x00\n        /* \"#utility.yul\":11820:11829   */\n      dup4\n        /* \"#utility.yul\":11816:11833   */\n      add\n        /* \"#utility.yul\":11809:11856   */\n      mstore\n        /* \"#utility.yul\":11873:12004   */\n      tag_318\n        /* \"#utility.yul\":11999:12003   */\n      dup2\n        /* \"#utility.yul\":11873:12004   */\n      tag_165\n      jump\t// in\n    tag_318:\n        /* \"#utility.yul\":11865:12004   */\n      swap1\n      pop\n        /* \"#utility.yul\":11592:12011   */\n      swap2\n      swap1\n      pop\n      jump\t// out\n        /* \"#utility.yul\":12017:12265   */\n    tag_166:\n        /* \"#utility.yul\":12157:12191   */\n      0x54696d656c6f636b3a3a657865637574655472616e73616374696f6e3a205472\n        /* \"#utility.yul\":12153:12154   */\n      0x00\n        /* \"#utility.yul\":12145:12151   */\n      dup3\n        /* \"#utility.yul\":12141:12155   */\n      add\n        /* \"#utility.yul\":12134:12192   */\n      mstore\n        /* \"#utility.yul\":12226:12257   */\n      0x616e73616374696f6e206861736e2774206265656e207175657565642e000000\n        /* \"#utility.yul\":12221:12223   */\n      0x20\n        /* \"#utility.yul\":12213:12219   */\n      dup3\n        /* \"#utility.yul\":12209:12224   */\n      add\n        /* \"#utility.yul\":12202:12258   */\n      mstore\n        /* \"#utility.yul\":12017:12265   */\n      pop\n      jump\t// out\n        /* \"#utility.yul\":12271:12637   */\n    tag_167:\n        /* \"#utility.yul\":12413:12416   */\n      0x00\n        /* \"#utility.yul\":12434:12501   */\n      tag_321\n        /* \"#utility.yul\":12498:12500   */\n      0x3d\n        /* \"#utility.yul\":12493:12496   */\n      dup4\n        /* \"#utility.yul\":12434:12501   */\n      tag_162\n      jump\t// in\n    tag_321:\n        /* \"#utility.yul\":12427:12501   */\n      swap2\n      pop\n        /* \"#utility.yul\":12510:12603   */\n      tag_322\n        /* \"#utility.yul\":12599:12602   */\n      dup3\n        /* \"#utility.yul\":12510:12603   */\n      tag_166\n      jump\t// in\n    tag_322:\n        /* \"#utility.yul\":12628:12630   */\n      0x40\n        /* \"#utility.yul\":12623:12626   */\n      dup3\n        /* \"#utility.yul\":12619:12631   */\n      add\n        /* \"#utility.yul\":12612:12631   */\n      swap1\n      pop\n        /* \"#utility.yul\":12271:12637   */\n      swap2\n      swap1\n      pop\n      jump\t// out\n        /* \"#utility.yul\":12643:13062   */\n    tag_75:\n        /* \"#utility.yul\":12809:12813   */\n      0x00\n        /* \"#utility.yul\":12847:12849   */\n      0x20\n        /* \"#utility.yul\":12836:12845   */\n      dup3\n        /* \"#utility.yul\":12832:12850   */\n      add\n        /* \"#utility.yul\":12824:12850   */\n      swap1\n      pop\n        /* \"#utility.yul\":12896:12905   */\n      dup2\n        /* \"#utility.yul\":12890:12894   */\n      dup2\n        /* \"#utility.yul\":12886:12906   */\n      sub\n        /* \"#utility.yul\":12882:12883   */\n      0x00\n        /* \"#utility.yul\":12871:12880   */\n      dup4\n        /* \"#utility.yul\":12867:12884   */\n      add\n        /* \"#utility.yul\":12860:12907   */\n      mstore\n        /* \"#utility.yul\":12924:13055   */\n      tag_324\n        /* \"#utility.yul\":13050:13054   */\n      dup2\n        /* \"#utility.yul\":12924:13055   */\n      tag_167\n      jump\t// in\n    tag_324:\n        /* \"#utility.yul\":12916:13055   */\n      swap1\n      pop\n        /* \"#utility.yul\":12643:13062   */\n      swap2\n      swap1\n      pop\n      jump\t// out\n        /* \"#utility.yul\":13068:13361   */\n    tag_168:\n        /* \"#utility.yul\":13208:13242   */\n      0x54696d656c6f636b3a3a657865637574655472616e73616374696f6e3a205472\n        /* \"#utility.yul\":13204:13205   */\n      0x00\n        /* \"#utility.yul\":13196:13202   */\n      dup3\n        /* \"#utility.yul\":13192:13206   */\n      add\n        /* \"#utility.yul\":13185:13243   */\n      mstore\n        /* \"#utility.yul\":13277:13311   */\n      0x616e73616374696f6e206861736e2774207375727061737365642074696d6520\n        /* \"#utility.yul\":13272:13274   */\n      0x20\n        /* \"#utility.yul\":13264:13270   */\n      dup3\n        /* \"#utility.yul\":13260:13275   */\n      add\n        /* \"#utility.yul\":13253:13312   */\n      mstore\n        /* \"#utility.yul\":13346:13353   */\n      0x6c6f636b2e000000000000000000000000000000000000000000000000000000\n        /* \"#utility.yul\":13341:13343   */\n      0x40\n        /* \"#utility.yul\":13333:13339   */\n      dup3\n        /* \"#utility.yul\":13329:13344   */\n      add\n        /* \"#utility.yul\":13322:13354   */\n      mstore\n        /* \"#utility.yul\":13068:13361   */\n      pop\n      jump\t// out\n        /* \"#utility.yul\":13367:13733   */\n    tag_169:\n        /* \"#utility.yul\":13509:13512   */\n      0x00\n        /* \"#utility.yul\":13530:13597   */\n      tag_327\n        /* \"#utility.yul\":13594:13596   */\n      0x45\n        /* \"#utility.yul\":13589:13592   */\n      dup4\n        /* \"#utility.yul\":13530:13597   */\n      tag_162\n      jump\t// in\n    tag_327:\n        /* \"#utility.yul\":13523:13597   */\n      swap2\n      pop\n        /* \"#utility.yul\":13606:13699   */\n      tag_328\n        /* \"#utility.yul\":13695:13698   */\n      dup3\n        /* \"#utility.yul\":13606:13699   */\n      tag_168\n      jump\t// in\n    tag_328:\n        /* \"#utility.yul\":13724:13726   */\n      0x60\n        /* \"#utility.yul\":13719:13722   */\n      dup3\n        /* \"#utility.yul\":13715:13727   */\n      add\n        /* \"#utility.yul\":13708:13727   */\n      swap1\n      pop\n        /* \"#utility.yul\":13367:13733   */\n      swap2\n      swap1\n      pop\n      jump\t// out\n        /* \"#utility.yul\":13739:14158   */\n    tag_79:\n        /* \"#utility.yul\":13905:13909   */\n      0x00\n        /* \"#utility.yul\":13943:13945   */\n      0x20\n        /* \"#utility.yul\":13932:13941   */\n      dup3\n        /* \"#utility.yul\":13928:13946   */\n      add\n        /* \"#utility.yul\":13920:13946   */\n      swap1\n      pop\n        /* \"#utility.yul\":13992:14001   */\n      dup2\n        /* \"#utility.yul\":13986:13990   */\n      dup2\n        /* \"#utility.yul\":13982:14002   */\n      sub\n        /* \"#utility.yul\":13978:13979   */\n      0x00\n        /* \"#utility.yul\":13967:13976   */\n      dup4\n        /* \"#utility.yul\":13963:13980   */\n      add\n        /* \"#utility.yul\":13956:14003   */\n      mstore\n        /* \"#utility.yul\":14020:14151   */\n      tag_330\n        /* \"#utility.yul\":14146:14150   */\n      dup2\n        /* \"#utility.yul\":14020:14151   */\n      tag_169\n      jump\t// in\n    tag_330:\n        /* \"#utility.yul\":14012:14151   */\n      swap1\n      pop\n        /* \"#utility.yul\":13739:14158   */\n      swap2\n      swap1\n      pop\n      jump\t// out\n        /* \"#utility.yul\":14164:14344   */\n    tag_170:\n        /* \"#utility.yul\":14212:14289   */\n      0x4e487b7100000000000000000000000000000000000000000000000000000000\n        /* \"#utility.yul\":14209:14210   */\n      0x00\n        /* \"#utility.yul\":14202:14290   */\n      mstore\n        /* \"#utility.yul\":14309:14313   */\n      0x11\n        /* \"#utility.yul\":14306:14307   */\n      0x04\n        /* \"#utility.yul\":14299:14314   */\n      mstore\n        /* \"#utility.yul\":14333:14337   */\n      0x24\n        /* \"#utility.yul\":14330:14331   */\n      0x00\n        /* \"#utility.yul\":14323:14338   */\n      revert\n        /* \"#utility.yul\":14350:14541   */\n    tag_81:\n        /* \"#utility.yul\":14390:14393   */\n      0x00\n        /* \"#utility.yul\":14409:14429   */\n      tag_333\n        /* \"#utility.yul\":14427:14428   */\n      dup3\n        /* \"#utility.yul\":14409:14429   */\n      tag_133\n      jump\t// in\n    tag_333:\n        /* \"#utility.yul\":14404:14429   */\n      swap2\n      pop\n        /* \"#utility.yul\":14443:14463   */\n      tag_334\n        /* \"#utility.yul\":14461:14462   */\n      dup4\n        /* \"#utility.yul\":14443:14463   */\n      tag_133\n      jump\t// in\n    tag_334:\n        /* \"#utility.yul\":14438:14463   */\n      swap3\n      pop\n        /* \"#utility.yul\":14486:14487   */\n      dup3\n        /* \"#utility.yul\":14483:14484   */\n      dup3\n        /* \"#utility.yul\":14479:14488   */\n      add\n        /* \"#utility.yul\":14472:14488   */\n      swap1\n      pop\n        /* \"#utility.yul\":14507:14510   */\n      dup1\n        /* \"#utility.yul\":14504:14505   */\n      dup3\n        /* \"#utility.yul\":14501:14511   */\n      gt\n        /* \"#utility.yul\":14498:14534   */\n      iszero\n      tag_335\n      jumpi\n        /* \"#utility.yul\":14514:14532   */\n      tag_336\n      tag_170\n      jump\t// in\n    tag_336:\n        /* \"#utility.yul\":14498:14534   */\n    tag_335:\n        /* \"#utility.yul\":14350:14541   */\n      swap3\n      swap2\n      pop\n      pop\n      jump\t// out\n        /* \"#utility.yul\":14547:14785   */\n    tag_171:\n        /* \"#utility.yul\":14687:14721   */\n      0x54696d656c6f636b3a3a657865637574655472616e73616374696f6e3a205472\n        /* \"#utility.yul\":14683:14684   */\n      0x00\n        /* \"#utility.yul\":14675:14681   */\n      dup3\n        /* \"#utility.yul\":14671:14685   */\n      add\n        /* \"#utility.yul\":14664:14722   */\n      mstore\n        /* \"#utility.yul\":14756:14777   */\n      0x616e73616374696f6e206973207374616c652e00000000000000000000000000\n        /* \"#utility.yul\":14751:14753   */\n      0x20\n        /* \"#utility.yul\":14743:14749   */\n      dup3\n        /* \"#utility.yul\":14739:14754   */\n      add\n        /* \"#utility.yul\":14732:14778   */\n      mstore\n        /* \"#utility.yul\":14547:14785   */\n      pop\n      jump\t// out\n        /* \"#utility.yul\":14791:15157   */\n    tag_172:\n        /* \"#utility.yul\":14933:14936   */\n      0x00\n        /* \"#utility.yul\":14954:15021   */\n      tag_339\n        /* \"#utility.yul\":15018:15020   */\n      0x33\n        /* \"#utility.yul\":15013:15016   */\n      dup4\n        /* \"#utility.yul\":14954:15021   */\n      tag_162\n      jump\t// in\n    tag_339:\n        /* \"#utility.yul\":14947:15021   */\n      swap2\n      pop\n        /* \"#utility.yul\":15030:15123   */\n      tag_340\n        /* \"#utility.yul\":15119:15122   */\n      dup3\n        /* \"#utility.yul\":15030:15123   */\n      tag_171\n      jump\t// in\n    tag_340:\n        /* \"#utility.yul\":15148:15150   */\n      0x40\n        /* \"#utility.yul\":15143:15146   */\n      dup3\n        /* \"#utility.yul\":15139:15151   */\n      add\n        /* \"#utility.yul\":15132:15151   */\n      swap1\n      pop\n        /* \"#utility.yul\":14791:15157   */\n      swap2\n      swap1\n      pop\n      jump\t// out\n        /* \"#utility.yul\":15163:15582   */\n    tag_85:\n        /* \"#utility.yul\":15329:15333   */\n      0x00\n        /* \"#utility.yul\":15367:15369   */\n      0x20\n        /* \"#utility.yul\":15356:15365   */\n      dup3\n        /* \"#utility.yul\":15352:15370   */\n      add\n        /* \"#utility.yul\":15344:15370   */\n      swap1\n      pop\n        /* \"#utility.yul\":15416:15425   */\n      dup2\n        /* \"#utility.yul\":15410:15414   */\n      dup2\n        /* \"#utility.yul\":15406:15426   */\n      sub\n        /* \"#utility.yul\":15402:15403   */\n      0x00\n        /* \"#utility.yul\":15391:15400   */\n      dup4\n        /* \"#utility.yul\":15387:15404   */\n      add\n        /* \"#utility.yul\":15380:15427   */\n      mstore\n        /* \"#utility.yul\":15444:15575   */\n      tag_342\n        /* \"#utility.yul\":15570:15574   */\n      dup2\n        /* \"#utility.yul\":15444:15575   */\n      tag_172\n      jump\t// in\n    tag_342:\n        /* \"#utility.yul\":15436:15575   */\n      swap1\n      pop\n        /* \"#utility.yul\":15163:15582   */\n      swap2\n      swap1\n      pop\n      jump\t// out\n        /* \"#utility.yul\":15588:15737   */\n    tag_173:\n        /* \"#utility.yul\":15624:15631   */\n      0x00\n        /* \"#utility.yul\":15664:15730   */\n      0xffffffff00000000000000000000000000000000000000000000000000000000\n        /* \"#utility.yul\":15657:15662   */\n      dup3\n        /* \"#utility.yul\":15653:15731   */\n      and\n        /* \"#utility.yul\":15642:15731   */\n      swap1\n      pop\n        /* \"#utility.yul\":15588:15737   */\n      swap2\n      swap1\n      pop\n      jump\t// out\n        /* \"#utility.yul\":15743:15821   */\n    tag_174:\n        /* \"#utility.yul\":15781:15788   */\n      0x00\n        /* \"#utility.yul\":15810:15815   */\n      dup2\n        /* \"#utility.yul\":15799:15815   */\n      swap1\n      pop\n        /* \"#utility.yul\":15743:15821   */\n      swap2\n      swap1\n      pop\n      jump\t// out\n        /* \"#utility.yul\":15827:15980   */\n    tag_175:\n        /* \"#utility.yul\":15930:15973   */\n      tag_346\n        /* \"#utility.yul\":15949:15972   */\n      tag_347\n        /* \"#utility.yul\":15966:15971   */\n      dup3\n        /* \"#utility.yul\":15949:15972   */\n      tag_173\n      jump\t// in\n    tag_347:\n        /* \"#utility.yul\":15930:15973   */\n      tag_174\n      jump\t// in\n    tag_346:\n        /* \"#utility.yul\":15925:15928   */\n      dup3\n        /* \"#utility.yul\":15918:15974   */\n      mstore\n        /* \"#utility.yul\":15827:15980   */\n      pop\n      pop\n      jump\t// out\n        /* \"#utility.yul\":15986:16133   */\n    tag_176:\n        /* \"#utility.yul\":16087:16098   */\n      0x00\n        /* \"#utility.yul\":16124:16127   */\n      dup2\n        /* \"#utility.yul\":16109:16127   */\n      swap1\n      pop\n        /* \"#utility.yul\":15986:16133   */\n      swap3\n      swap2\n      pop\n      pop\n      jump\t// out\n        /* \"#utility.yul\":16139:16525   */\n    tag_177:\n        /* \"#utility.yul\":16243:16246   */\n      0x00\n        /* \"#utility.yul\":16271:16309   */\n      tag_350\n        /* \"#utility.yul\":16303:16308   */\n      dup3\n        /* \"#utility.yul\":16271:16309   */\n      tag_151\n      jump\t// in\n    tag_350:\n        /* \"#utility.yul\":16325:16413   */\n      tag_351\n        /* \"#utility.yul\":16406:16412   */\n      dup2\n        /* \"#utility.yul\":16401:16404   */\n      dup6\n        /* \"#utility.yul\":16325:16413   */\n      tag_176\n      jump\t// in\n    tag_351:\n        /* \"#utility.yul\":16318:16413   */\n      swap4\n      pop\n        /* \"#utility.yul\":16422:16487   */\n      tag_352\n        /* \"#utility.yul\":16480:16486   */\n      dup2\n        /* \"#utility.yul\":16475:16478   */\n      dup6\n        /* \"#utility.yul\":16468:16472   */\n      0x20\n        /* \"#utility.yul\":16461:16466   */\n      dup7\n        /* \"#utility.yul\":16457:16473   */\n      add\n        /* \"#utility.yul\":16422:16487   */\n      tag_153\n      jump\t// in\n    tag_352:\n        /* \"#utility.yul\":16512:16518   */\n      dup1\n        /* \"#utility.yul\":16507:16510   */\n      dup5\n        /* \"#utility.yul\":16503:16519   */\n      add\n        /* \"#utility.yul\":16496:16519   */\n      swap2\n      pop\n        /* \"#utility.yul\":16247:16525   */\n      pop\n        /* \"#utility.yul\":16139:16525   */\n      swap3\n      swap2\n      pop\n      pop\n      jump\t// out\n        /* \"#utility.yul\":16531:16938   */\n    tag_89:\n        /* \"#utility.yul\":16687:16690   */\n      0x00\n        /* \"#utility.yul\":16702:16775   */\n      tag_354\n        /* \"#utility.yul\":16771:16774   */\n      dup3\n        /* \"#utility.yul\":16762:16768   */\n      dup6\n        /* \"#utility.yul\":16702:16775   */\n      tag_175\n      jump\t// in\n    tag_354:\n        /* \"#utility.yul\":16800:16801   */\n      0x04\n        /* \"#utility.yul\":16795:16798   */\n      dup3\n        /* \"#utility.yul\":16791:16802   */\n      add\n        /* \"#utility.yul\":16784:16802   */\n      swap2\n      pop\n        /* \"#utility.yul\":16819:16912   */\n      tag_355\n        /* \"#utility.yul\":16908:16911   */\n      dup3\n        /* \"#utility.yul\":16899:16905   */\n      dup5\n        /* \"#utility.yul\":16819:16912   */\n      tag_177\n      jump\t// in\n    tag_355:\n        /* \"#utility.yul\":16812:16912   */\n      swap2\n      pop\n        /* \"#utility.yul\":16929:16932   */\n      dup2\n        /* \"#utility.yul\":16922:16932   */\n      swap1\n      pop\n        /* \"#utility.yul\":16531:16938   */\n      swap4\n      swap3\n      pop\n      pop\n      pop\n      jump\t// out\n        /* \"#utility.yul\":16944:17215   */\n    tag_91:\n        /* \"#utility.yul\":17074:17077   */\n      0x00\n        /* \"#utility.yul\":17096:17189   */\n      tag_357\n        /* \"#utility.yul\":17185:17188   */\n      dup3\n        /* \"#utility.yul\":17176:17182   */\n      dup5\n        /* \"#utility.yul\":17096:17189   */\n      tag_177\n      jump\t// in\n    tag_357:\n        /* \"#utility.yul\":17089:17189   */\n      swap2\n      pop\n        /* \"#utility.yul\":17206:17209   */\n      dup2\n        /* \"#utility.yul\":17199:17209   */\n      swap1\n      pop\n        /* \"#utility.yul\":16944:17215   */\n      swap3\n      swap2\n      pop\n      pop\n      jump\t// out\n        /* \"#utility.yul\":17221:17469   */\n    tag_178:\n        /* \"#utility.yul\":17361:17395   */\n      0x54696d656c6f636b3a3a657865637574655472616e73616374696f6e3a205472\n        /* \"#utility.yul\":17357:17358   */\n      0x00\n        /* \"#utility.yul\":17349:17355   */\n      dup3\n        /* \"#utility.yul\":17345:17359   */\n      add\n        /* \"#utility.yul\":17338:17396   */\n      mstore\n        /* \"#utility.yul\":17430:17461   */\n      0x616e73616374696f6e20657865637574696f6e2072657665727465642e000000\n        /* \"#utility.yul\":17425:17427   */\n      0x20\n        /* \"#utility.yul\":17417:17423   */\n      dup3\n        /* \"#utility.yul\":17413:17428   */\n      add\n        /* \"#utility.yul\":17406:17462   */\n      mstore\n        /* \"#utility.yul\":17221:17469   */\n      pop\n      jump\t// out\n        /* \"#utility.yul\":17475:17841   */\n    tag_179:\n        /* \"#utility.yul\":17617:17620   */\n      0x00\n        /* \"#utility.yul\":17638:17705   */\n      tag_360\n        /* \"#utility.yul\":17702:17704   */\n      0x3d\n        /* \"#utility.yul\":17697:17700   */\n      dup4\n        /* \"#utility.yul\":17638:17705   */\n      tag_162\n      jump\t// in\n    tag_360:\n        /* \"#utility.yul\":17631:17705   */\n      swap2\n      pop\n        /* \"#utility.yul\":17714:17807   */\n      tag_361\n        /* \"#utility.yul\":17803:17806   */\n      dup3\n        /* \"#utility.yul\":17714:17807   */\n      tag_178\n      jump\t// in\n    tag_361:\n        /* \"#utility.yul\":17832:17834   */\n      0x40\n        /* \"#utility.yul\":17827:17830   */\n      dup3\n        /* \"#utility.yul\":17823:17835   */\n      add\n        /* \"#utility.yul\":17816:17835   */\n      swap1\n      pop\n        /* \"#utility.yul\":17475:17841   */\n      swap2\n      swap1\n      pop\n      jump\t// out\n        /* \"#utility.yul\":17847:18266   */\n    tag_97:\n        /* \"#utility.yul\":18013:18017   */\n      0x00\n        /* \"#utility.yul\":18051:18053   */\n      0x20\n        /* \"#utility.yul\":18040:18049   */\n      dup3\n        /* \"#utility.yul\":18036:18054   */\n      add\n        /* \"#utility.yul\":18028:18054   */\n      swap1\n      pop\n        /* \"#utility.yul\":18100:18109   */\n      dup2\n        /* \"#utility.yul\":18094:18098   */\n      dup2\n        /* \"#utility.yul\":18090:18110   */\n      sub\n        /* \"#utility.yul\":18086:18087   */\n      0x00\n        /* \"#utility.yul\":18075:18084   */\n      dup4\n        /* \"#utility.yul\":18071:18088   */\n      add\n        /* \"#utility.yul\":18064:18111   */\n      mstore\n        /* \"#utility.yul\":18128:18259   */\n      tag_363\n        /* \"#utility.yul\":18254:18258   */\n      dup2\n        /* \"#utility.yul\":18128:18259   */\n      tag_179\n      jump\t// in\n    tag_363:\n        /* \"#utility.yul\":18120:18259   */\n      swap1\n      pop\n        /* \"#utility.yul\":17847:18266   */\n      swap2\n      swap1\n      pop\n      jump\t// out\n        /* \"#utility.yul\":18272:19003   */\n    tag_99:\n        /* \"#utility.yul\":18487:18491   */\n      0x00\n        /* \"#utility.yul\":18525:18528   */\n      0x80\n        /* \"#utility.yul\":18514:18523   */\n      dup3\n        /* \"#utility.yul\":18510:18529   */\n      add\n        /* \"#utility.yul\":18502:18529   */\n      swap1\n      pop\n        /* \"#utility.yul\":18539:18610   */\n      tag_365\n        /* \"#utility.yul\":18607:18608   */\n      0x00\n        /* \"#utility.yul\":18596:18605   */\n      dup4\n        /* \"#utility.yul\":18592:18609   */\n      add\n        /* \"#utility.yul\":18583:18589   */\n      dup8\n        /* \"#utility.yul\":18539:18610   */\n      tag_155\n      jump\t// in\n    tag_365:\n        /* \"#utility.yul\":18657:18666   */\n      dup2\n        /* \"#utility.yul\":18651:18655   */\n      dup2\n        /* \"#utility.yul\":18647:18667   */\n      sub\n        /* \"#utility.yul\":18642:18644   */\n      0x20\n        /* \"#utility.yul\":18631:18640   */\n      dup4\n        /* \"#utility.yul\":18627:18645   */\n      add\n        /* \"#utility.yul\":18620:18668   */\n      mstore\n        /* \"#utility.yul\":18685:18763   */\n      tag_366\n        /* \"#utility.yul\":18758:18762   */\n      dup2\n        /* \"#utility.yul\":18749:18755   */\n      dup7\n        /* \"#utility.yul\":18685:18763   */\n      tag_163\n      jump\t// in\n    tag_366:\n        /* \"#utility.yul\":18677:18763   */\n      swap1\n      pop\n        /* \"#utility.yul\":18810:18819   */\n      dup2\n        /* \"#utility.yul\":18804:18808   */\n      dup2\n        /* \"#utility.yul\":18800:18820   */\n      sub\n        /* \"#utility.yul\":18795:18797   */\n      0x40\n        /* \"#utility.yul\":18784:18793   */\n      dup4\n        /* \"#utility.yul\":18780:18798   */\n      add\n        /* \"#utility.yul\":18773:18821   */\n      mstore\n        /* \"#utility.yul\":18838:18914   */\n      tag_367\n        /* \"#utility.yul\":18909:18913   */\n      dup2\n        /* \"#utility.yul\":18900:18906   */\n      dup6\n        /* \"#utility.yul\":18838:18914   */\n      tag_154\n      jump\t// in\n    tag_367:\n        /* \"#utility.yul\":18830:18914   */\n      swap1\n      pop\n        /* \"#utility.yul\":18924:18996   */\n      tag_368\n        /* \"#utility.yul\":18992:18994   */\n      0x60\n        /* \"#utility.yul\":18981:18990   */\n      dup4\n        /* \"#utility.yul\":18977:18995   */\n      add\n        /* \"#utility.yul\":18968:18974   */\n      dup5\n        /* \"#utility.yul\":18924:18996   */\n      tag_155\n      jump\t// in\n    tag_368:\n        /* \"#utility.yul\":18272:19003   */\n      swap6\n      swap5\n      pop\n      pop\n      pop\n      pop\n      pop\n      jump\t// out\n        /* \"#utility.yul\":19009:19306   */\n    tag_180:\n        /* \"#utility.yul\":19149:19183   */\n      0x54696d656c6f636b3a3a71756575655472616e73616374696f6e3a2045737469\n        /* \"#utility.yul\":19145:19146   */\n      0x00\n        /* \"#utility.yul\":19137:19143   */\n      dup3\n        /* \"#utility.yul\":19133:19147   */\n      add\n        /* \"#utility.yul\":19126:19184   */\n      mstore\n        /* \"#utility.yul\":19218:19252   */\n      0x6d6174656420657865637574696f6e20626c6f636b206d757374207361746973\n        /* \"#utility.yul\":19213:19215   */\n      0x20\n        /* \"#utility.yul\":19205:19211   */\n      dup3\n        /* \"#utility.yul\":19201:19216   */\n      add\n        /* \"#utility.yul\":19194:19253   */\n      mstore\n        /* \"#utility.yul\":19287:19298   */\n      0x66792064656c61792e0000000000000000000000000000000000000000000000\n        /* \"#utility.yul\":19282:19284   */\n      0x40\n        /* \"#utility.yul\":19274:19280   */\n      dup3\n        /* \"#utility.yul\":19270:19285   */\n      add\n        /* \"#utility.yul\":19263:19299   */\n      mstore\n        /* \"#utility.yul\":19009:19306   */\n      pop\n      jump\t// out\n        /* \"#utility.yul\":19312:19678   */\n    tag_181:\n        /* \"#utility.yul\":19454:19457   */\n      0x00\n        /* \"#utility.yul\":19475:19542   */\n      tag_371\n        /* \"#utility.yul\":19539:19541   */\n      0x49\n        /* \"#utility.yul\":19534:19537   */\n      dup4\n        /* \"#utility.yul\":19475:19542   */\n      tag_162\n      jump\t// in\n    tag_371:\n        /* \"#utility.yul\":19468:19542   */\n      swap2\n      pop\n        /* \"#utility.yul\":19551:19644   */\n      tag_372\n        /* \"#utility.yul\":19640:19643   */\n      dup3\n        /* \"#utility.yul\":19551:19644   */\n      tag_180\n      jump\t// in\n    tag_372:\n        /* \"#utility.yul\":19669:19671   */\n      0x60\n        /* \"#utility.yul\":19664:19667   */\n      dup3\n        /* \"#utility.yul\":19660:19672   */\n      add\n        /* \"#utility.yul\":19653:19672   */\n      swap1\n      pop\n        /* \"#utility.yul\":19312:19678   */\n      swap2\n      swap1\n      pop\n      jump\t// out\n        /* \"#utility.yul\":19684:20103   */\n    tag_108:\n        /* \"#utility.yul\":19850:19854   */\n      0x00\n        /* \"#utility.yul\":19888:19890   */\n      0x20\n        /* \"#utility.yul\":19877:19886   */\n      dup3\n        /* \"#utility.yul\":19873:19891   */\n      add\n        /* \"#utility.yul\":19865:19891   */\n      swap1\n      pop\n        /* \"#utility.yul\":19937:19946   */\n      dup2\n        /* \"#utility.yul\":19931:19935   */\n      dup2\n        /* \"#utility.yul\":19927:19947   */\n      sub\n        /* \"#utility.yul\":19923:19924   */\n      0x00\n        /* \"#utility.yul\":19912:19921   */\n      dup4\n        /* \"#utility.yul\":19908:19925   */\n      add\n        /* \"#utility.yul\":19901:19948   */\n      mstore\n        /* \"#utility.yul\":19965:20096   */\n      tag_374\n        /* \"#utility.yul\":20091:20095   */\n      dup2\n        /* \"#utility.yul\":19965:20096   */\n      tag_181\n      jump\t// in\n    tag_374:\n        /* \"#utility.yul\":19957:20096   */\n      swap1\n      pop\n        /* \"#utility.yul\":19684:20103   */\n      swap2\n      swap1\n      pop\n      jump\t// out\n        /* \"#utility.yul\":20109:20356   */\n    tag_182:\n        /* \"#utility.yul\":20249:20283   */\n      0x54696d656c6f636b3a3a63616e63656c5472616e73616374696f6e3a20547261\n        /* \"#utility.yul\":20245:20246   */\n      0x00\n        /* \"#utility.yul\":20237:20243   */\n      dup3\n        /* \"#utility.yul\":20233:20247   */\n      add\n        /* \"#utility.yul\":20226:20284   */\n      mstore\n        /* \"#utility.yul\":20318:20348   */\n      0x6e73616374696f6e206861736e2774206265656e207175657565642e00000000\n        /* \"#utility.yul\":20313:20315   */\n      0x20\n        /* \"#utility.yul\":20305:20311   */\n      dup3\n        /* \"#utility.yul\":20301:20316   */\n      add\n        /* \"#utility.yul\":20294:20349   */\n      mstore\n        /* \"#utility.yul\":20109:20356   */\n      pop\n      jump\t// out\n        /* \"#utility.yul\":20362:20728   */\n    tag_183:\n        /* \"#utility.yul\":20504:20507   */\n      0x00\n        /* \"#utility.yul\":20525:20592   */\n      tag_377\n        /* \"#utility.yul\":20589:20591   */\n      0x3c\n        /* \"#utility.yul\":20584:20587   */\n      dup4\n        /* \"#utility.yul\":20525:20592   */\n      tag_162\n      jump\t// in\n    tag_377:\n        /* \"#utility.yul\":20518:20592   */\n      swap2\n      pop\n        /* \"#utility.yul\":20601:20694   */\n      tag_378\n        /* \"#utility.yul\":20690:20693   */\n      dup3\n        /* \"#utility.yul\":20601:20694   */\n      tag_182\n      jump\t// in\n    tag_378:\n        /* \"#utility.yul\":20719:20721   */\n      0x40\n        /* \"#utility.yul\":20714:20717   */\n      dup3\n        /* \"#utility.yul\":20710:20722   */\n      add\n        /* \"#utility.yul\":20703:20722   */\n      swap1\n      pop\n        /* \"#utility.yul\":20362:20728   */\n      swap2\n      swap1\n      pop\n      jump\t// out\n        /* \"#utility.yul\":20734:21153   */\n    tag_118:\n        /* \"#utility.yul\":20900:20904   */\n      0x00\n        /* \"#utility.yul\":20938:20940   */\n      0x20\n        /* \"#utility.yul\":20927:20936   */\n      dup3\n        /* \"#utility.yul\":20923:20941   */\n      add\n        /* \"#utility.yul\":20915:20941   */\n      swap1\n      pop\n        /* \"#utility.yul\":20987:20996   */\n      dup2\n        /* \"#utility.yul\":20981:20985   */\n      dup2\n        /* \"#utility.yul\":20977:20997   */\n      sub\n        /* \"#utility.yul\":20973:20974   */\n      0x00\n        /* \"#utility.yul\":20962:20971   */\n      dup4\n        /* \"#utility.yul\":20958:20975   */\n      add\n        /* \"#utility.yul\":20951:20998   */\n      mstore\n        /* \"#utility.yul\":21015:21146   */\n      tag_380\n        /* \"#utility.yul\":21141:21145   */\n      dup2\n        /* \"#utility.yul\":21015:21146   */\n      tag_183\n      jump\t// in\n    tag_380:\n        /* \"#utility.yul\":21007:21146   */\n      swap1\n      pop\n        /* \"#utility.yul\":20734:21153   */\n      swap2\n      swap1\n      pop\n      jump\t// out\n        /* \"#utility.yul\":21159:21338   */\n    tag_184:\n        /* \"#utility.yul\":21299:21330   */\n      0x54696d656c6f636b3a2043616c6c6572206e6f742054696d656c6f636b000000\n        /* \"#utility.yul\":21295:21296   */\n      0x00\n        /* \"#utility.yul\":21287:21293   */\n      dup3\n        /* \"#utility.yul\":21283:21297   */\n      add\n        /* \"#utility.yul\":21276:21331   */\n      mstore\n        /* \"#utility.yul\":21159:21338   */\n      pop\n      jump\t// out\n        /* \"#utility.yul\":21344:21710   */\n    tag_185:\n        /* \"#utility.yul\":21486:21489   */\n      0x00\n        /* \"#utility.yul\":21507:21574   */\n      tag_383\n        /* \"#utility.yul\":21571:21573   */\n      0x1d\n        /* \"#utility.yul\":21566:21569   */\n      dup4\n        /* \"#utility.yul\":21507:21574   */\n      tag_162\n      jump\t// in\n    tag_383:\n        /* \"#utility.yul\":21500:21574   */\n      swap2\n      pop\n        /* \"#utility.yul\":21583:21676   */\n      tag_384\n        /* \"#utility.yul\":21672:21675   */\n      dup3\n        /* \"#utility.yul\":21583:21676   */\n      tag_184\n      jump\t// in\n    tag_384:\n        /* \"#utility.yul\":21701:21703   */\n      0x20\n        /* \"#utility.yul\":21696:21699   */\n      dup3\n        /* \"#utility.yul\":21692:21704   */\n      add\n        /* \"#utility.yul\":21685:21704   */\n      swap1\n      pop\n        /* \"#utility.yul\":21344:21710   */\n      swap2\n      swap1\n      pop\n      jump\t// out\n        /* \"#utility.yul\":21716:22135   */\n    tag_124:\n        /* \"#utility.yul\":21882:21886   */\n      0x00\n        /* \"#utility.yul\":21920:21922   */\n      0x20\n        /* \"#utility.yul\":21909:21918   */\n      dup3\n        /* \"#utility.yul\":21905:21923   */\n      add\n        /* \"#utility.yul\":21897:21923   */\n      swap1\n      pop\n        /* \"#utility.yul\":21969:21978   */\n      dup2\n        /* \"#utility.yul\":21963:21967   */\n      dup2\n        /* \"#utility.yul\":21959:21979   */\n      sub\n        /* \"#utility.yul\":21955:21956   */\n      0x00\n        /* \"#utility.yul\":21944:21953   */\n      dup4\n        /* \"#utility.yul\":21940:21957   */\n      add\n        /* \"#utility.yul\":21933:21980   */\n      mstore\n        /* \"#utility.yul\":21997:22128   */\n      tag_386\n        /* \"#utility.yul\":22123:22127   */\n      dup2\n        /* \"#utility.yul\":21997:22128   */\n      tag_185\n      jump\t// in\n    tag_386:\n        /* \"#utility.yul\":21989:22128   */\n      swap1\n      pop\n        /* \"#utility.yul\":21716:22135   */\n      swap2\n      swap1\n      pop\n      jump\t// out\n\n    auxdata: 0xa2646970667358221220077d5a566b7a4fc87f27f9254b1be43da72d41b4e637ed3ef920ec7cbb0f92dc64736f6c63430008190033\n}\n",
				"bytecode": {
					"linkReferences": {},
					"object": "6080604052348015600f57600080fd5b5060405161173f38038061173f8339818101604052810190602f919060b1565b80600181905550336000806101000a81548173ffffffffffffffffffffffffffffffffffffffff021916908373ffffffffffffffffffffffffffffffffffffffff1602179055505060d9565b600080fd5b6000819050919050565b6091816080565b8114609b57600080fd5b50565b60008151905060ab81608a565b92915050565b60006020828403121560c45760c3607b565b5b600060d084828501609e565b91505092915050565b611657806100e86000396000f3fe6080604052600436106100915760003560e01c8063796b89b911610059578063796b89b9146101945780638f283970146101bf578063c1a287e2146101e8578063f2b0653714610213578063f851a4401461025057610091565b806304a71576146100965780630825f38f146100d35780633a66f90114610103578063591fcdfe146101405780636a42b8f814610169575b600080fd5b3480156100a257600080fd5b506100bd60048036038101906100b89190610cc5565b61027b565b6040516100ca9190610d91565b60405180910390f35b6100ed60048036038101906100e89190610cc5565b6102b7565b6040516100fa9190610e2b565b60405180910390f35b34801561010f57600080fd5b5061012a60048036038101906101259190610cc5565b6105da565b6040516101379190610d91565b60405180910390f35b34801561014c57600080fd5b5061016760048036038101906101629190610cc5565b610761565b005b34801561017557600080fd5b5061017e6108e9565b60405161018b9190610e5c565b60405180910390f35b3480156101a057600080fd5b506101a96108ef565b6040516101b69190610e5c565b60405180910390f35b3480156101cb57600080fd5b506101e660048036038101906101e19190610e77565b6108f7565b005b3480156101f457600080fd5b506101fd6109eb565b60405161020a9190610e5c565b60405180910390f35b34801561021f57600080fd5b5061023a60048036038101906102359190610ed0565b6109f2565b6040516102479190610f18565b60405180910390f35b34801561025c57600080fd5b50610265610a12565b6040516102729190610f42565b60405180910390f35b60008585858585604051602001610296959493929190610fb2565b60405160208183030381529060405280519060200120905095945050505050565b606060008054906101000a900473ffffffffffffffffffffffffffffffffffffffff1673ffffffffffffffffffffffffffffffffffffffff163373ffffffffffffffffffffffffffffffffffffffff1614610347576040517f08c379a000000000000000000000000000000000000000000000000000000000815260040161033e9061105f565b60405180910390fd5b6000610356878787878761027b565b90506002600082815260200190815260200160002060009054906101000a900460ff166103b8576040517f08c379a00000000000000000000000000000000000000000000000000000000081526004016103af906110f1565b60405180910390fd5b826103c16108ef565b1015610402576040517f08c379a00000000000000000000000000000000000000000000000000000000081526004016103f9906111a9565b60405180910390fd5b62093a808361041191906111f8565b6104196108ef565b111561045a576040517f08c379a00000000000000000000000000000000000000000000000000000000081526004016104519061129e565b60405180910390fd5b60006002600083815260200190815260200160002060006101000a81548160ff02191690831515021790555060606000865103610499578490506104c5565b8580519060200120856040516020016104b3929190611347565b60405160208183030381529060405290505b6000808973ffffffffffffffffffffffffffffffffffffffff1689846040516104ee919061136f565b60006040518083038185875af1925050503d806000811461052b576040519150601f19603f3d011682016040523d82523d6000602084013e610530565b606091505b509150915081610575576040517f08c379a000000000000000000000000000000000000000000000000000000000815260040161056c906113f8565b60405180910390fd5b8973ffffffffffffffffffffffffffffffffffffffff16847fa560e3198060a2f10670c1ec5b403077ea6ae93ca8de1c32b451dc1a943cd6e78b8b8b8b6040516105c29493929190611418565b60405180910390a38094505050505095945050505050565b60008060009054906101000a900473ffffffffffffffffffffffffffffffffffffffff1673ffffffffffffffffffffffffffffffffffffffff163373ffffffffffffffffffffffffffffffffffffffff161461066b576040517f08c379a00000000000000000000000000000000000000000000000000000000081526004016106629061105f565b60405180910390fd5b6001546106766108ef565b61068091906111f8565b8210156106c2576040517f08c379a00000000000000000000000000000000000000000000000000000000081526004016106b990611503565b60405180910390fd5b60006106d1878787878761027b565b905060016002600083815260200190815260200160002060006101000a81548160ff0219169083151502179055508673ffffffffffffffffffffffffffffffffffffffff16817f76e2796dc3a81d57b0e8504b647febcbeeb5f4af818e164f11eef8131a6a763f8888888860405161074c9493929190611418565b60405180910390a38091505095945050505050565b60008054906101000a900473ffffffffffffffffffffffffffffffffffffffff1673ffffffffffffffffffffffffffffffffffffffff163373ffffffffffffffffffffffffffffffffffffffff16146107ef576040517f08c379a00000000000000000000000000000000000000000000000000000000081526004016107e69061105f565b60405180910390fd5b60006107fe868686868661027b565b90506002600082815260200190815260200160002060009054906101000a900460ff16610860576040517f08c379a000000000000000000000000000000000000000000000000000000000815260040161085790611595565b60405180910390fd5b60006002600083815260200190815260200160002060006101000a81548160ff0219169083151502179055508573ffffffffffffffffffffffffffffffffffffffff16817f2fffc091a501fd91bfbff27141450d3acb40fb8e6d8382b243ec7a812a3aaf87878787876040516108d99493929190611418565b60405180910390a3505050505050565b60015481565b600042905090565b3073ffffffffffffffffffffffffffffffffffffffff163373ffffffffffffffffffffffffffffffffffffffff1614610965576040517f08c379a000000000000000000000000000000000000000000000000000000000815260040161095c90611601565b60405180910390fd5b806000806101000a81548173ffffffffffffffffffffffffffffffffffffffff021916908373ffffffffffffffffffffffffffffffffffffffff1602179055508073ffffffffffffffffffffffffffffffffffffffff167f71614071b88dee5e0b2ae578a9dd7b2ebbe9ae832ba419dc0242cd065a290b6c60405160405180910390a250565b62093a8081565b60026020528060005260406000206000915054906101000a900460ff1681565b60008054906101000a900473ffffffffffffffffffffffffffffffffffffffff1681565b6000604051905090565b600080fd5b600080fd5b600073ffffffffffffffffffffffffffffffffffffffff82169050919050565b6000610a7582610a4a565b9050919050565b610a8581610a6a565b8114610a9057600080fd5b50565b600081359050610aa281610a7c565b92915050565b6000819050919050565b610abb81610aa8565b8114610ac657600080fd5b50565b600081359050610ad881610ab2565b92915050565b600080fd5b600080fd5b6000601f19601f8301169050919050565b7f4e487b7100000000000000000000000000000000000000000000000000000000600052604160045260246000fd5b610b3182610ae8565b810181811067ffffffffffffffff82111715610b5057610b4f610af9565b5b80604052505050565b6000610b63610a36565b9050610b6f8282610b28565b919050565b600067ffffffffffffffff821115610b8f57610b8e610af9565b5b610b9882610ae8565b9050602081019050919050565b82818337600083830152505050565b6000610bc7610bc284610b74565b610b59565b905082815260208101848484011115610be357610be2610ae3565b5b610bee848285610ba5565b509392505050565b600082601f830112610c0b57610c0a610ade565b5b8135610c1b848260208601610bb4565b91505092915050565b600067ffffffffffffffff821115610c3f57610c3e610af9565b5b610c4882610ae8565b9050602081019050919050565b6000610c68610c6384610c24565b610b59565b905082815260208101848484011115610c8457610c83610ae3565b5b610c8f848285610ba5565b509392505050565b600082601f830112610cac57610cab610ade565b5b8135610cbc848260208601610c55565b91505092915050565b600080600080600060a08688031215610ce157610ce0610a40565b5b6000610cef88828901610a93565b9550506020610d0088828901610ac9565b945050604086013567ffffffffffffffff811115610d2157610d20610a45565b5b610d2d88828901610bf6565b935050606086013567ffffffffffffffff811115610d4e57610d4d610a45565b5b610d5a88828901610c97565b9250506080610d6b88828901610ac9565b9150509295509295909350565b6000819050919050565b610d8b81610d78565b82525050565b6000602082019050610da66000830184610d82565b92915050565b600081519050919050565b600082825260208201905092915050565b60005b83811015610de6578082015181840152602081019050610dcb565b60008484015250505050565b6000610dfd82610dac565b610e078185610db7565b9350610e17818560208601610dc8565b610e2081610ae8565b840191505092915050565b60006020820190508181036000830152610e458184610df2565b905092915050565b610e5681610aa8565b82525050565b6000602082019050610e716000830184610e4d565b92915050565b600060208284031215610e8d57610e8c610a40565b5b6000610e9b84828501610a93565b91505092915050565b610ead81610d78565b8114610eb857600080fd5b50565b600081359050610eca81610ea4565b92915050565b600060208284031215610ee657610ee5610a40565b5b6000610ef484828501610ebb565b91505092915050565b60008115159050919050565b610f1281610efd565b82525050565b6000602082019050610f2d6000830184610f09565b92915050565b610f3c81610a6a565b82525050565b6000602082019050610f576000830184610f33565b92915050565b600081519050919050565b600082825260208201905092915050565b6000610f8482610f5d565b610f8e8185610f68565b9350610f9e818560208601610dc8565b610fa781610ae8565b840191505092915050565b600060a082019050610fc76000830188610f33565b610fd46020830187610e4d565b8181036040830152610fe68186610f79565b90508181036060830152610ffa8185610df2565b90506110096080830184610e4d565b9695505050505050565b7f54696d656c6f636b3a2043616c6c6572206e6f742061646d696e000000000000600082015250565b6000611049601a83610f68565b915061105482611013565b602082019050919050565b600060208201905081810360008301526110788161103c565b9050919050565b7f54696d656c6f636b3a3a657865637574655472616e73616374696f6e3a20547260008201527f616e73616374696f6e206861736e2774206265656e207175657565642e000000602082015250565b60006110db603d83610f68565b91506110e68261107f565b604082019050919050565b6000602082019050818103600083015261110a816110ce565b9050919050565b7f54696d656c6f636b3a3a657865637574655472616e73616374696f6e3a20547260008201527f616e73616374696f6e206861736e2774207375727061737365642074696d652060208201527f6c6f636b2e000000000000000000000000000000000000000000000000000000604082015250565b6000611193604583610f68565b915061119e82611111565b606082019050919050565b600060208201905081810360008301526111c281611186565b9050919050565b7f4e487b7100000000000000000000000000000000000000000000000000000000600052601160045260246000fd5b600061120382610aa8565b915061120e83610aa8565b9250828201905080821115611226576112256111c9565b5b92915050565b7f54696d656c6f636b3a3a657865637574655472616e73616374696f6e3a20547260008201527f616e73616374696f6e206973207374616c652e00000000000000000000000000602082015250565b6000611288603383610f68565b91506112938261122c565b604082019050919050565b600060208201905081810360008301526112b78161127b565b9050919050565b60007fffffffff0000000000000000000000000000000000000000000000000000000082169050919050565b6000819050919050565b611305611300826112be565b6112ea565b82525050565b600081905092915050565b600061132182610dac565b61132b818561130b565b935061133b818560208601610dc8565b80840191505092915050565b600061135382856112f4565b6004820191506113638284611316565b91508190509392505050565b600061137b8284611316565b915081905092915050565b7f54696d656c6f636b3a3a657865637574655472616e73616374696f6e3a20547260008201527f616e73616374696f6e20657865637574696f6e2072657665727465642e000000602082015250565b60006113e2603d83610f68565b91506113ed82611386565b604082019050919050565b60006020820190508181036000830152611411816113d5565b9050919050565b600060808201905061142d6000830187610e4d565b818103602083015261143f8186610f79565b905081810360408301526114538185610df2565b90506114626060830184610e4d565b95945050505050565b7f54696d656c6f636b3a3a71756575655472616e73616374696f6e3a204573746960008201527f6d6174656420657865637574696f6e20626c6f636b206d75737420736174697360208201527f66792064656c61792e0000000000000000000000000000000000000000000000604082015250565b60006114ed604983610f68565b91506114f88261146b565b606082019050919050565b6000602082019050818103600083015261151c816114e0565b9050919050565b7f54696d656c6f636b3a3a63616e63656c5472616e73616374696f6e3a2054726160008201527f6e73616374696f6e206861736e2774206265656e207175657565642e00000000602082015250565b600061157f603c83610f68565b915061158a82611523565b604082019050919050565b600060208201905081810360008301526115ae81611572565b9050919050565b7f54696d656c6f636b3a2043616c6c6572206e6f742054696d656c6f636b000000600082015250565b60006115eb601d83610f68565b91506115f6826115b5565b602082019050919050565b6000602082019050818103600083015261161a816115de565b905091905056fea2646970667358221220077d5a566b7a4fc87f27f9254b1be43da72d41b4e637ed3ef920ec7cbb0f92dc64736f6c63430008190033",
					"opcodes": "PUSH1 0x80 PUSH1 0x40 MSTORE CALLVALUE DUP1 ISZERO PUSH1 0xF JUMPI PUSH1 0x0 DUP1 REVERT JUMPDEST POP PUSH1 0x40 MLOAD PUSH2 0x173F CODESIZE SUB DUP1 PUSH2 0x173F DUP4 CODECOPY DUP2 DUP2 ADD PUSH1 0x40 MSTORE DUP2 ADD SWAP1 PUSH1 0x2F SWAP2 SWAP1 PUSH1 0xB1 JUMP JUMPDEST DUP1 PUSH1 0x1 DUP2 SWAP1 SSTORE POP CALLER PUSH1 0x0 DUP1 PUSH2 0x100 EXP DUP2 SLOAD DUP2 PUSH20 0xFFFFFFFFFFFFFFFFFFFFFFFFFFFFFFFFFFFFFFFF MUL NOT AND SWAP1 DUP4 PUSH20 0xFFFFFFFFFFFFFFFFFFFFFFFFFFFFFFFFFFFFFFFF AND MUL OR SWAP1 SSTORE POP POP PUSH1 0xD9 JUMP JUMPDEST PUSH1 0x0 DUP1 REVERT JUMPDEST PUSH1 0x0 DUP2 SWAP1 POP SWAP2 SWAP1 POP JUMP JUMPDEST PUSH1 0x91 DUP2 PUSH1 0x80 JUMP JUMPDEST DUP2 EQ PUSH1 0x9B JUMPI PUSH1 0x0 DUP1 REVERT JUMPDEST POP JUMP JUMPDEST PUSH1 0x0 DUP2 MLOAD SWAP1 POP PUSH1 0xAB DUP2 PUSH1 0x8A JUMP JUMPDEST SWAP3 SWAP2 POP POP JUMP JUMPDEST PUSH1 0x0 PUSH1 0x20 DUP3 DUP5 SUB SLT ISZERO PUSH1 0xC4 JUMPI PUSH1 0xC3 PUSH1 0x7B JUMP JUMPDEST JUMPDEST PUSH1 0x0 PUSH1 0xD0 DUP5 DUP3 DUP6 ADD PUSH1 0x9E JUMP JUMPDEST SWAP2 POP POP SWAP3 SWAP2 POP POP JUMP JUMPDEST PUSH2 0x1657 DUP1 PUSH2 0xE8 PUSH1 0x0 CODECOPY PUSH1 0x0 RETURN INVALID PUSH1 0x80 PUSH1 0x40 MSTORE PUSH1 0x4 CALLDATASIZE LT PUSH2 0x91 JUMPI PUSH1 0x0 CALLDATALOAD PUSH1 0xE0 SHR DUP1 PUSH4 0x796B89B9 GT PUSH2 0x59 JUMPI DUP1 PUSH4 0x796B89B9 EQ PUSH2 0x194 JUMPI DUP1 PUSH4 0x8F283970 EQ PUSH2 0x1BF JUMPI DUP1 PUSH4 0xC1A287E2 EQ PUSH2 0x1E8 JUMPI DUP1 PUSH4 0xF2B06537 EQ PUSH2 0x213 JUMPI DUP1 PUSH4 0xF851A440 EQ PUSH2 0x250 JUMPI PUSH2 0x91 JUMP JUMPDEST DUP1 PUSH4 0x4A71576 EQ PUSH2 0x96 JUMPI DUP1 PUSH4 0x825F38F EQ PUSH2 0xD3 JUMPI DUP1 PUSH4 0x3A66F901 EQ PUSH2 0x103 JUMPI DUP1 PUSH4 0x591FCDFE EQ PUSH2 0x140 JUMPI DUP1 PUSH4 0x6A42B8F8 EQ PUSH2 0x169 JUMPI JUMPDEST PUSH1 0x0 DUP1 REVERT JUMPDEST CALLVALUE DUP1 ISZERO PUSH2 0xA2 JUMPI PUSH1 0x0 DUP1 REVERT JUMPDEST POP PUSH2 0xBD PUSH1 0x4 DUP1 CALLDATASIZE SUB DUP2 ADD SWAP1 PUSH2 0xB8 SWAP2 SWAP1 PUSH2 0xCC5 JUMP JUMPDEST PUSH2 0x27B JUMP JUMPDEST PUSH1 0x40 MLOAD PUSH2 0xCA SWAP2 SWAP1 PUSH2 0xD91 JUMP JUMPDEST PUSH1 0x40 MLOAD DUP1 SWAP2 SUB SWAP1 RETURN JUMPDEST PUSH2 0xED PUSH1 0x4 DUP1 CALLDATASIZE SUB DUP2 ADD SWAP1 PUSH2 0xE8 SWAP2 SWAP1 PUSH2 0xCC5 JUMP JUMPDEST PUSH2 0x2B7 JUMP JUMPDEST PUSH1 0x40 MLOAD PUSH2 0xFA SWAP2 SWAP1 PUSH2 0xE2B JUMP JUMPDEST PUSH1 0x40 MLOAD DUP1 SWAP2 SUB SWAP1 RETURN JUMPDEST CALLVALUE DUP1 ISZERO PUSH2 0x10F JUMPI PUSH1 0x0 DUP1 REVERT JUMPDEST POP PUSH2 0x12A PUSH1 0x4 DUP1 CALLDATASIZE SUB DUP2 ADD SWAP1 PUSH2 0x125 SWAP2 SWAP1 PUSH2 0xCC5 JUMP JUMPDEST PUSH2 0x5DA JUMP JUMPDEST PUSH1 0x40 MLOAD PUSH2 0x137 SWAP2 SWAP1 PUSH2 0xD91 JUMP JUMPDEST PUSH1 0x40 MLOAD DUP1 SWAP2 SUB SWAP1 RETURN JUMPDEST CALLVALUE DUP1 ISZERO PUSH2 0x14C JUMPI PUSH1 0x0 DUP1 REVERT JUMPDEST POP PUSH2 0x167 PUSH1 0x4 DUP1 CALLDATASIZE SUB DUP2 ADD SWAP1 PUSH2 0x162 SWAP2 SWAP1 PUSH2 0xCC5 JUMP JUMPDEST PUSH2 0x761 JUMP JUMPDEST STOP JUMPDEST CALLVALUE DUP1 ISZERO PUSH2 0x175 JUMPI PUSH1 0x0 DUP1 REVERT JUMPDEST POP PUSH2 0x17E PUSH2 0x8E9 JUMP JUMPDEST PUSH1 0x40 MLOAD PUSH2 0x18B SWAP2 SWAP1 PUSH2 0xE5C JUMP JUMPDEST PUSH1 0x40 MLOAD DUP1 SWAP2 SUB SWAP1 RETURN JUMPDEST CALLVALUE DUP1 ISZERO PUSH2 0x1A0 JUMPI PUSH1 0x0 DUP1 REVERT JUMPDEST POP PUSH2 0x1A9 PUSH2 0x8EF JUMP JUMPDEST PUSH1 0x40 MLOAD PUSH2 0x1B6 SWAP2 SWAP1 PUSH2 0xE5C JUMP JUMPDEST PUSH1 0x40 MLOAD DUP1 SWAP2 SUB SWAP1 RETURN JUMPDEST CALLVALUE DUP1 ISZERO PUSH2 0x1CB JUMPI PUSH1 0x0 DUP1 REVERT JUMPDEST POP PUSH2 0x1E6 PUSH1 0x4 DUP1 CALLDATASIZE SUB DUP2 ADD SWAP1 PUSH2 0x1E1 SWAP2 SWAP1 PUSH2 0xE77 JUMP JUMPDEST PUSH2 0x8F7 JUMP JUMPDEST STOP JUMPDEST CALLVALUE DUP1 ISZERO PUSH2 0x1F4 JUMPI PUSH1 0x0 DUP1 REVERT JUMPDEST POP PUSH2 0x1FD PUSH2 0x9EB JUMP JUMPDEST PUSH1 0x40 MLOAD PUSH2 0x20A SWAP2 SWAP1 PUSH2 0xE5C JUMP JUMPDEST PUSH1 0x40 MLOAD DUP1 SWAP2 SUB SWAP1 RETURN JUMPDEST CALLVALUE DUP1 ISZERO PUSH2 0x21F JUMPI PUSH1 0x0 DUP1 REVERT JUMPDEST POP PUSH2 0x23A PUSH1 0x4 DUP1 CALLDATASIZE SUB DUP2 ADD SWAP1 PUSH2 0x235 SWAP2 SWAP1 PUSH2 0xED0 JUMP JUMPDEST PUSH2 0x9F2 JUMP JUMPDEST PUSH1 0x40 MLOAD PUSH2 0x247 SWAP2 SWAP1 PUSH2 0xF18 JUMP JUMPDEST PUSH1 0x40 MLOAD DUP1 SWAP2 SUB SWAP1 RETURN JUMPDEST CALLVALUE DUP1 ISZERO PUSH2 0x25C JUMPI PUSH1 0x0 DUP1 REVERT JUMPDEST POP PUSH2 0x265 PUSH2 0xA12 JUMP JUMPDEST PUSH1 0x40 MLOAD PUSH2 0x272 SWAP2 SWAP1 PUSH2 0xF42 JUMP JUMPDEST PUSH1 0x40 MLOAD DUP1 SWAP2 SUB SWAP1 RETURN JUMPDEST PUSH1 0x0 DUP6 DUP6 DUP6 DUP6 DUP6 PUSH1 0x40 MLOAD PUSH1 0x20 ADD PUSH2 0x296 SWAP6 SWAP5 SWAP4 SWAP3 SWAP2 SWAP1 PUSH2 0xFB2 JUMP JUMPDEST PUSH1 0x40 MLOAD PUSH1 0x20 DUP2 DUP4 SUB SUB DUP2 MSTORE SWAP1 PUSH1 0x40 MSTORE DUP1 MLOAD SWAP1 PUSH1 0x20 ADD KECCAK256 SWAP1 POP SWAP6 SWAP5 POP POP POP POP POP JUMP JUMPDEST PUSH1 0x60 PUSH1 0x0 DUP1 SLOAD SWAP1 PUSH2 0x100 EXP SWAP1 DIV PUSH20 0xFFFFFFFFFFFFFFFFFFFFFFFFFFFFFFFFFFFFFFFF AND PUSH20 0xFFFFFFFFFFFFFFFFFFFFFFFFFFFFFFFFFFFFFFFF AND CALLER PUSH20 0xFFFFFFFFFFFFFFFFFFFFFFFFFFFFFFFFFFFFFFFF AND EQ PUSH2 0x347 JUMPI PUSH1 0x40 MLOAD PUSH32 0x8C379A000000000000000000000000000000000000000000000000000000000 DUP2 MSTORE PUSH1 0x4 ADD PUSH2 0x33E SWAP1 PUSH2 0x105F JUMP JUMPDEST PUSH1 0x40 MLOAD DUP1 SWAP2 SUB SWAP1 REVERT JUMPDEST PUSH1 0x0 PUSH2 0x356 DUP8 DUP8 DUP8 DUP8 DUP8 PUSH2 0x27B JUMP JUMPDEST SWAP1 POP PUSH1 0x2 PUSH1 0x0 DUP3 DUP2 MSTORE PUSH1 0x20 ADD SWAP1 DUP2 MSTORE PUSH1 0x20 ADD PUSH1 0x0 KECCAK256 PUSH1 0x0 SWAP1 SLOAD SWAP1 PUSH2 0x100 EXP SWAP1 DIV PUSH1 0xFF AND PUSH2 0x3B8 JUMPI PUSH1 0x40 MLOAD PUSH32 0x8C379A000000000000000000000000000000000000000000000000000000000 DUP2 MSTORE PUSH1 0x4 ADD PUSH2 0x3AF SWAP1 PUSH2 0x10F1 JUMP JUMPDEST PUSH1 0x40 MLOAD DUP1 SWAP2 SUB SWAP1 REVERT JUMPDEST DUP3 PUSH2 0x3C1 PUSH2 0x8EF JUMP JUMPDEST LT ISZERO PUSH2 0x402 JUMPI PUSH1 0x40 MLOAD PUSH32 0x8C379A000000000000000000000000000000000000000000000000000000000 DUP2 MSTORE PUSH1 0x4 ADD PUSH2 0x3F9 SWAP1 PUSH2 0x11A9 JUMP JUMPDEST PUSH1 0x40 MLOAD DUP1 SWAP2 SUB SWAP1 REVERT JUMPDEST PUSH3 0x93A80 DUP4 PUSH2 0x411 SWAP2 SWAP1 PUSH2 0x11F8 JUMP JUMPDEST PUSH2 0x419 PUSH2 0x8EF JUMP JUMPDEST GT ISZERO PUSH2 0x45A JUMPI PUSH1 0x40 MLOAD PUSH32 0x8C379A000000000000000000000000000000000000000000000000000000000 DUP2 MSTORE PUSH1 0x4 ADD PUSH2 0x451 SWAP1 PUSH2 0x129E JUMP JUMPDEST PUSH1 0x40 MLOAD DUP1 SWAP2 SUB SWAP1 REVERT JUMPDEST PUSH1 0x0 PUSH1 0x2 PUSH1 0x0 DUP4 DUP2 MSTORE PUSH1 0x20 ADD SWAP1 DUP2 MSTORE PUSH1 0x20 ADD PUSH1 0x0 KECCAK256 PUSH1 0x0 PUSH2 0x100 EXP DUP2 SLOAD DUP2 PUSH1 0xFF MUL NOT AND SWAP1 DUP4 ISZERO ISZERO MUL OR SWAP1 SSTORE POP PUSH1 0x60 PUSH1 0x0 DUP7 MLOAD SUB PUSH2 0x499 JUMPI DUP5 SWAP1 POP PUSH2 0x4C5 JUMP JUMPDEST DUP6 DUP1 MLOAD SWAP1 PUSH1 0x20 ADD KECCAK256 DUP6 PUSH1 0x40 MLOAD PUSH1 0x20 ADD PUSH2 0x4B3 SWAP3 SWAP2 SWAP1 PUSH2 0x1347 JUMP JUMPDEST PUSH1 0x40 MLOAD PUSH1 0x20 DUP2 DUP4 SUB SUB DUP2 MSTORE SWAP1 PUSH1 0x40 MSTORE SWAP1 POP JUMPDEST PUSH1 0x0 DUP1 DUP10 PUSH20 0xFFFFFFFFFFFFFFFFFFFFFFFFFFFFFFFFFFFFFFFF AND DUP10 DUP5 PUSH1 0x40 MLOAD PUSH2 0x4EE SWAP2 SWAP1 PUSH2 0x136F JUMP JUMPDEST PUSH1 0x0 PUSH1 0x40 MLOAD DUP1 DUP4 SUB DUP2 DUP6 DUP8 GAS CALL SWAP3 POP POP POP RETURNDATASIZE DUP1 PUSH1 0x0 DUP2 EQ PUSH2 0x52B JUMPI PUSH1 0x40 MLOAD SWAP2 POP PUSH1 0x1F NOT PUSH1 0x3F RETURNDATASIZE ADD AND DUP3 ADD PUSH1 0x40 MSTORE RETURNDATASIZE DUP3 MSTORE RETURNDATASIZE PUSH1 0x0 PUSH1 0x20 DUP5 ADD RETURNDATACOPY PUSH2 0x530 JUMP JUMPDEST PUSH1 0x60 SWAP2 POP JUMPDEST POP SWAP2 POP SWAP2 POP DUP2 PUSH2 0x575 JUMPI PUSH1 0x40 MLOAD PUSH32 0x8C379A000000000000000000000000000000000000000000000000000000000 DUP2 MSTORE PUSH1 0x4 ADD PUSH2 0x56C SWAP1 PUSH2 0x13F8 JUMP JUMPDEST PUSH1 0x40 MLOAD DUP1 SWAP2 SUB SWAP1 REVERT JUMPDEST DUP10 PUSH20 0xFFFFFFFFFFFFFFFFFFFFFFFFFFFFFFFFFFFFFFFF AND DUP5 PUSH32 0xA560E3198060A2F10670C1EC5B403077EA6AE93CA8DE1C32B451DC1A943CD6E7 DUP12 DUP12 DUP12 DUP12 PUSH1 0x40 MLOAD PUSH2 0x5C2 SWAP5 SWAP4 SWAP3 SWAP2 SWAP1 PUSH2 0x1418 JUMP JUMPDEST PUSH1 0x40 MLOAD DUP1 SWAP2 SUB SWAP1 LOG3 DUP1 SWAP5 POP POP POP POP POP SWAP6 SWAP5 POP POP POP POP POP JUMP JUMPDEST PUSH1 0x0 DUP1 PUSH1 0x0 SWAP1 SLOAD SWAP1 PUSH2 0x100 EXP SWAP1 DIV PUSH20 0xFFFFFFFFFFFFFFFFFFFFFFFFFFFFFFFFFFFFFFFF AND PUSH20 0xFFFFFFFFFFFFFFFFFFFFFFFFFFFFFFFFFFFFFFFF AND CALLER PUSH20 0xFFFFFFFFFFFFFFFFFFFFFFFFFFFFFFFFFFFFFFFF AND EQ PUSH2 0x66B JUMPI PUSH1 0x40 MLOAD PUSH32 0x8C379A000000000000000000000000000000000000000000000000000000000 DUP2 MSTORE PUSH1 0x4 ADD PUSH2 0x662 SWAP1 PUSH2 0x105F JUMP JUMPDEST PUSH1 0x40 MLOAD DUP1 SWAP2 SUB SWAP1 REVERT JUMPDEST PUSH1 0x1 SLOAD PUSH2 0x676 PUSH2 0x8EF JUMP JUMPDEST PUSH2 0x680 SWAP2 SWAP1 PUSH2 0x11F8 JUMP JUMPDEST DUP3 LT ISZERO PUSH2 0x6C2 JUMPI PUSH1 0x40 MLOAD PUSH32 0x8C379A000000000000000000000000000000000000000000000000000000000 DUP2 MSTORE PUSH1 0x4 ADD PUSH2 0x6B9 SWAP1 PUSH2 0x1503 JUMP JUMPDEST PUSH1 0x40 MLOAD DUP1 SWAP2 SUB SWAP1 REVERT JUMPDEST PUSH1 0x0 PUSH2 0x6D1 DUP8 DUP8 DUP8 DUP8 DUP8 PUSH2 0x27B JUMP JUMPDEST SWAP1 POP PUSH1 0x1 PUSH1 0x2 PUSH1 0x0 DUP4 DUP2 MSTORE PUSH1 0x20 ADD SWAP1 DUP2 MSTORE PUSH1 0x20 ADD PUSH1 0x0 KECCAK256 PUSH1 0x0 PUSH2 0x100 EXP DUP2 SLOAD DUP2 PUSH1 0xFF MUL NOT AND SWAP1 DUP4 ISZERO ISZERO MUL OR SWAP1 SSTORE POP DUP7 PUSH20 0xFFFFFFFFFFFFFFFFFFFFFFFFFFFFFFFFFFFFFFFF AND DUP2 PUSH32 0x76E2796DC3A81D57B0E8504B647FEBCBEEB5F4AF818E164F11EEF8131A6A763F DUP9 DUP9 DUP9 DUP9 PUSH1 0x40 MLOAD PUSH2 0x74C SWAP5 SWAP4 SWAP3 SWAP2 SWAP1 PUSH2 0x1418 JUMP JUMPDEST PUSH1 0x40 MLOAD DUP1 SWAP2 SUB SWAP1 LOG3 DUP1 SWAP2 POP POP SWAP6 SWAP5 POP POP POP POP POP JUMP JUMPDEST PUSH1 0x0 DUP1 SLOAD SWAP1 PUSH2 0x100 EXP SWAP1 DIV PUSH20 0xFFFFFFFFFFFFFFFFFFFFFFFFFFFFFFFFFFFFFFFF AND PUSH20 0xFFFFFFFFFFFFFFFFFFFFFFFFFFFFFFFFFFFFFFFF AND CALLER PUSH20 0xFFFFFFFFFFFFFFFFFFFFFFFFFFFFFFFFFFFFFFFF AND EQ PUSH2 0x7EF JUMPI PUSH1 0x40 MLOAD PUSH32 0x8C379A000000000000000000000000000000000000000000000000000000000 DUP2 MSTORE PUSH1 0x4 ADD PUSH2 0x7E6 SWAP1 PUSH2 0x105F JUMP JUMPDEST PUSH1 0x40 MLOAD DUP1 SWAP2 SUB SWAP1 REVERT JUMPDEST PUSH1 0x0 PUSH2 0x7FE DUP7 DUP7 DUP7 DUP7 DUP7 PUSH2 0x27B JUMP JUMPDEST SWAP1 POP PUSH1 0x2 PUSH1 0x0 DUP3 DUP2 MSTORE PUSH1 0x20 ADD SWAP1 DUP2 MSTORE PUSH1 0x20 ADD PUSH1 0x0 KECCAK256 PUSH1 0x0 SWAP1 SLOAD SWAP1 PUSH2 0x100 EXP SWAP1 DIV PUSH1 0xFF AND PUSH2 0x860 JUMPI PUSH1 0x40 MLOAD PUSH32 0x8C379A000000000000000000000000000000000000000000000000000000000 DUP2 MSTORE PUSH1 0x4 ADD PUSH2 0x857 SWAP1 PUSH2 0x1595 JUMP JUMPDEST PUSH1 0x40 MLOAD DUP1 SWAP2 SUB SWAP1 REVERT JUMPDEST PUSH1 0x0 PUSH1 0x2 PUSH1 0x0 DUP4 DUP2 MSTORE PUSH1 0x20 ADD SWAP1 DUP2 MSTORE PUSH1 0x20 ADD PUSH1 0x0 KECCAK256 PUSH1 0x0 PUSH2 0x100 EXP DUP2 SLOAD DUP2 PUSH1 0xFF MUL NOT AND SWAP1 DUP4 ISZERO ISZERO MUL OR SWAP1 SSTORE POP DUP6 PUSH20 0xFFFFFFFFFFFFFFFFFFFFFFFFFFFFFFFFFFFFFFFF AND DUP2 PUSH32 0x2FFFC091A501FD91BFBFF27141450D3ACB40FB8E6D8382B243EC7A812A3AAF87 DUP8 DUP8 DUP8 DUP8 PUSH1 0x40 MLOAD PUSH2 0x8D9 SWAP5 SWAP4 SWAP3 SWAP2 SWAP1 PUSH2 0x1418 JUMP JUMPDEST PUSH1 0x40 MLOAD DUP1 SWAP2 SUB SWAP1 LOG3 POP POP POP POP POP POP JUMP JUMPDEST PUSH1 0x1 SLOAD DUP2 JUMP JUMPDEST PUSH1 0x0 TIMESTAMP SWAP1 POP SWAP1 JUMP JUMPDEST ADDRESS PUSH20 0xFFFFFFFFFFFFFFFFFFFFFFFFFFFFFFFFFFFFFFFF AND CALLER PUSH20 0xFFFFFFFFFFFFFFFFFFFFFFFFFFFFFFFFFFFFFFFF AND EQ PUSH2 0x965 JUMPI PUSH1 0x40 MLOAD PUSH32 0x8C379A000000000000000000000000000000000000000000000000000000000 DUP2 MSTORE PUSH1 0x4 ADD PUSH2 0x95C SWAP1 PUSH2 0x1601 JUMP JUMPDEST PUSH1 0x40 MLOAD DUP1 SWAP2 SUB SWAP1 REVERT JUMPDEST DUP1 PUSH1 0x0 DUP1 PUSH2 0x100 EXP DUP2 SLOAD DUP2 PUSH20 0xFFFFFFFFFFFFFFFFFFFFFFFFFFFFFFFFFFFFFFFF MUL NOT AND SWAP1 DUP4 PUSH20 0xFFFFFFFFFFFFFFFFFFFFFFFFFFFFFFFFFFFFFFFF AND MUL OR SWAP1 SSTORE POP DUP1 PUSH20 0xFFFFFFFFFFFFFFFFFFFFFFFFFFFFFFFFFFFFFFFF AND PUSH32 0x71614071B88DEE5E0B2AE578A9DD7B2EBBE9AE832BA419DC0242CD065A290B6C PUSH1 0x40 MLOAD PUSH1 0x40 MLOAD DUP1 SWAP2 SUB SWAP1 LOG2 POP JUMP JUMPDEST PUSH3 0x93A80 DUP2 JUMP JUMPDEST PUSH1 0x2 PUSH1 0x20 MSTORE DUP1 PUSH1 0x0 MSTORE PUSH1 0x40 PUSH1 0x0 KECCAK256 PUSH1 0x0 SWAP2 POP SLOAD SWAP1 PUSH2 0x100 EXP SWAP1 DIV PUSH1 0xFF AND DUP2 JUMP JUMPDEST PUSH1 0x0 DUP1 SLOAD SWAP1 PUSH2 0x100 EXP SWAP1 DIV PUSH20 0xFFFFFFFFFFFFFFFFFFFFFFFFFFFFFFFFFFFFFFFF AND DUP2 JUMP JUMPDEST PUSH1 0x0 PUSH1 0x40 MLOAD SWAP1 POP SWAP1 JUMP JUMPDEST PUSH1 0x0 DUP1 REVERT JUMPDEST PUSH1 0x0 DUP1 REVERT JUMPDEST PUSH1 0x0 PUSH20 0xFFFFFFFFFFFFFFFFFFFFFFFFFFFFFFFFFFFFFFFF DUP3 AND SWAP1 POP SWAP2 SWAP1 POP JUMP JUMPDEST PUSH1 0x0 PUSH2 0xA75 DUP3 PUSH2 0xA4A JUMP JUMPDEST SWAP1 POP SWAP2 SWAP1 POP JUMP JUMPDEST PUSH2 0xA85 DUP2 PUSH2 0xA6A JUMP JUMPDEST DUP2 EQ PUSH2 0xA90 JUMPI PUSH1 0x0 DUP1 REVERT JUMPDEST POP JUMP JUMPDEST PUSH1 0x0 DUP2 CALLDATALOAD SWAP1 POP PUSH2 0xAA2 DUP2 PUSH2 0xA7C JUMP JUMPDEST SWAP3 SWAP2 POP POP JUMP JUMPDEST PUSH1 0x0 DUP2 SWAP1 POP SWAP2 SWAP1 POP JUMP JUMPDEST PUSH2 0xABB DUP2 PUSH2 0xAA8 JUMP JUMPDEST DUP2 EQ PUSH2 0xAC6 JUMPI PUSH1 0x0 DUP1 REVERT JUMPDEST POP JUMP JUMPDEST PUSH1 0x0 DUP2 CALLDATALOAD SWAP1 POP PUSH2 0xAD8 DUP2 PUSH2 0xAB2 JUMP JUMPDEST SWAP3 SWAP2 POP POP JUMP JUMPDEST PUSH1 0x0 DUP1 REVERT JUMPDEST PUSH1 0x0 DUP1 REVERT JUMPDEST PUSH1 0x0 PUSH1 0x1F NOT PUSH1 0x1F DUP4 ADD AND SWAP1 POP SWAP2 SWAP1 POP JUMP JUMPDEST PUSH32 0x4E487B7100000000000000000000000000000000000000000000000000000000 PUSH1 0x0 MSTORE PUSH1 0x41 PUSH1 0x4 MSTORE PUSH1 0x24 PUSH1 0x0 REVERT JUMPDEST PUSH2 0xB31 DUP3 PUSH2 0xAE8 JUMP JUMPDEST DUP2 ADD DUP2 DUP2 LT PUSH8 0xFFFFFFFFFFFFFFFF DUP3 GT OR ISZERO PUSH2 0xB50 JUMPI PUSH2 0xB4F PUSH2 0xAF9 JUMP JUMPDEST JUMPDEST DUP1 PUSH1 0x40 MSTORE POP POP POP JUMP JUMPDEST PUSH1 0x0 PUSH2 0xB63 PUSH2 0xA36 JUMP JUMPDEST SWAP1 POP PUSH2 0xB6F DUP3 DUP3 PUSH2 0xB28 JUMP JUMPDEST SWAP2 SWAP1 POP JUMP JUMPDEST PUSH1 0x0 PUSH8 0xFFFFFFFFFFFFFFFF DUP3 GT ISZERO PUSH2 0xB8F JUMPI PUSH2 0xB8E PUSH2 0xAF9 JUMP JUMPDEST JUMPDEST PUSH2 0xB98 DUP3 PUSH2 0xAE8 JUMP JUMPDEST SWAP1 POP PUSH1 0x20 DUP2 ADD SWAP1 POP SWAP2 SWAP1 POP JUMP JUMPDEST DUP3 DUP2 DUP4 CALLDATACOPY PUSH1 0x0 DUP4 DUP4 ADD MSTORE POP POP POP JUMP JUMPDEST PUSH1 0x0 PUSH2 0xBC7 PUSH2 0xBC2 DUP5 PUSH2 0xB74 JUMP JUMPDEST PUSH2 0xB59 JUMP JUMPDEST SWAP1 POP DUP3 DUP2 MSTORE PUSH1 0x20 DUP2 ADD DUP5 DUP5 DUP5 ADD GT ISZERO PUSH2 0xBE3 JUMPI PUSH2 0xBE2 PUSH2 0xAE3 JUMP JUMPDEST JUMPDEST PUSH2 0xBEE DUP5 DUP3 DUP6 PUSH2 0xBA5 JUMP JUMPDEST POP SWAP4 SWAP3 POP POP POP JUMP JUMPDEST PUSH1 0x0 DUP3 PUSH1 0x1F DUP4 ADD SLT PUSH2 0xC0B JUMPI PUSH2 0xC0A PUSH2 0xADE JUMP JUMPDEST JUMPDEST DUP2 CALLDATALOAD PUSH2 0xC1B DUP5 DUP3 PUSH1 0x20 DUP7 ADD PUSH2 0xBB4 JUMP JUMPDEST SWAP2 POP POP SWAP3 SWAP2 POP POP JUMP JUMPDEST PUSH1 0x0 PUSH8 0xFFFFFFFFFFFFFFFF DUP3 GT ISZERO PUSH2 0xC3F JUMPI PUSH2 0xC3E PUSH2 0xAF9 JUMP JUMPDEST JUMPDEST PUSH2 0xC48 DUP3 PUSH2 0xAE8 JUMP JUMPDEST SWAP1 POP PUSH1 0x20 DUP2 ADD SWAP1 POP SWAP2 SWAP1 POP JUMP JUMPDEST PUSH1 0x0 PUSH2 0xC68 PUSH2 0xC63 DUP5 PUSH2 0xC24 JUMP JUMPDEST PUSH2 0xB59 JUMP JUMPDEST SWAP1 POP DUP3 DUP2 MSTORE PUSH1 0x20 DUP2 ADD DUP5 DUP5 DUP5 ADD GT ISZERO PUSH2 0xC84 JUMPI PUSH2 0xC83 PUSH2 0xAE3 JUMP JUMPDEST JUMPDEST PUSH2 0xC8F DUP5 DUP3 DUP6 PUSH2 0xBA5 JUMP JUMPDEST POP SWAP4 SWAP3 POP POP POP JUMP JUMPDEST PUSH1 0x0 DUP3 PUSH1 0x1F DUP4 ADD SLT PUSH2 0xCAC JUMPI PUSH2 0xCAB PUSH2 0xADE JUMP JUMPDEST JUMPDEST DUP2 CALLDATALOAD PUSH2 0xCBC DUP5 DUP3 PUSH1 0x20 DUP7 ADD PUSH2 0xC55 JUMP JUMPDEST SWAP2 POP POP SWAP3 SWAP2 POP POP JUMP JUMPDEST PUSH1 0x0 DUP1 PUSH1 0x0 DUP1 PUSH1 0x0 PUSH1 0xA0 DUP7 DUP9 SUB SLT ISZERO PUSH2 0xCE1 JUMPI PUSH2 0xCE0 PUSH2 0xA40 JUMP JUMPDEST JUMPDEST PUSH1 0x0 PUSH2 0xCEF DUP9 DUP3 DUP10 ADD PUSH2 0xA93 JUMP JUMPDEST SWAP6 POP POP PUSH1 0x20 PUSH2 0xD00 DUP9 DUP3 DUP10 ADD PUSH2 0xAC9 JUMP JUMPDEST SWAP5 POP POP PUSH1 0x40 DUP7 ADD CALLDATALOAD PUSH8 0xFFFFFFFFFFFFFFFF DUP2 GT ISZERO PUSH2 0xD21 JUMPI PUSH2 0xD20 PUSH2 0xA45 JUMP JUMPDEST JUMPDEST PUSH2 0xD2D DUP9 DUP3 DUP10 ADD PUSH2 0xBF6 JUMP JUMPDEST SWAP4 POP POP PUSH1 0x60 DUP7 ADD CALLDATALOAD PUSH8 0xFFFFFFFFFFFFFFFF DUP2 GT ISZERO PUSH2 0xD4E JUMPI PUSH2 0xD4D PUSH2 0xA45 JUMP JUMPDEST JUMPDEST PUSH2 0xD5A DUP9 DUP3 DUP10 ADD PUSH2 0xC97 JUMP JUMPDEST SWAP3 POP POP PUSH1 0x80 PUSH2 0xD6B DUP9 DUP3 DUP10 ADD PUSH2 0xAC9 JUMP JUMPDEST SWAP2 POP POP SWAP3 SWAP6 POP SWAP3 SWAP6 SWAP1 SWAP4 POP JUMP JUMPDEST PUSH1 0x0 DUP2 SWAP1 POP SWAP2 SWAP1 POP JUMP JUMPDEST PUSH2 0xD8B DUP2 PUSH2 0xD78 JUMP JUMPDEST DUP3 MSTORE POP POP JUMP JUMPDEST PUSH1 0x0 PUSH1 0x20 DUP3 ADD SWAP1 POP PUSH2 0xDA6 PUSH1 0x0 DUP4 ADD DUP5 PUSH2 0xD82 JUMP JUMPDEST SWAP3 SWAP2 POP POP JUMP JUMPDEST PUSH1 0x0 DUP2 MLOAD SWAP1 POP SWAP2 SWAP1 POP JUMP JUMPDEST PUSH1 0x0 DUP3 DUP3 MSTORE PUSH1 0x20 DUP3 ADD SWAP1 POP SWAP3 SWAP2 POP POP JUMP JUMPDEST PUSH1 0x0 JUMPDEST DUP4 DUP2 LT ISZERO PUSH2 0xDE6 JUMPI DUP1 DUP3 ADD MLOAD DUP2 DUP5 ADD MSTORE PUSH1 0x20 DUP2 ADD SWAP1 POP PUSH2 0xDCB JUMP JUMPDEST PUSH1 0x0 DUP5 DUP5 ADD MSTORE POP POP POP POP JUMP JUMPDEST PUSH1 0x0 PUSH2 0xDFD DUP3 PUSH2 0xDAC JUMP JUMPDEST PUSH2 0xE07 DUP2 DUP6 PUSH2 0xDB7 JUMP JUMPDEST SWAP4 POP PUSH2 0xE17 DUP2 DUP6 PUSH1 0x20 DUP7 ADD PUSH2 0xDC8 JUMP JUMPDEST PUSH2 0xE20 DUP2 PUSH2 0xAE8 JUMP JUMPDEST DUP5 ADD SWAP2 POP POP SWAP3 SWAP2 POP POP JUMP JUMPDEST PUSH1 0x0 PUSH1 0x20 DUP3 ADD SWAP1 POP DUP2 DUP2 SUB PUSH1 0x0 DUP4 ADD MSTORE PUSH2 0xE45 DUP2 DUP5 PUSH2 0xDF2 JUMP JUMPDEST SWAP1 POP SWAP3 SWAP2 POP POP JUMP JUMPDEST PUSH2 0xE56 DUP2 PUSH2 0xAA8 JUMP JUMPDEST DUP3 MSTORE POP POP JUMP JUMPDEST PUSH1 0x0 PUSH1 0x20 DUP3 ADD SWAP1 POP PUSH2 0xE71 PUSH1 0x0 DUP4 ADD DUP5 PUSH2 0xE4D JUMP JUMPDEST SWAP3 SWAP2 POP POP JUMP JUMPDEST PUSH1 0x0 PUSH1 0x20 DUP3 DUP5 SUB SLT ISZERO PUSH2 0xE8D JUMPI PUSH2 0xE8C PUSH2 0xA40 JUMP JUMPDEST JUMPDEST PUSH1 0x0 PUSH2 0xE9B DUP5 DUP3 DUP6 ADD PUSH2 0xA93 JUMP JUMPDEST SWAP2 POP POP SWAP3 SWAP2 POP POP JUMP JUMPDEST PUSH2 0xEAD DUP2 PUSH2 0xD78 JUMP JUMPDEST DUP2 EQ PUSH2 0xEB8 JUMPI PUSH1 0x0 DUP1 REVERT JUMPDEST POP JUMP JUMPDEST PUSH1 0x0 DUP2 CALLDATALOAD SWAP1 POP PUSH2 0xECA DUP2 PUSH2 0xEA4 JUMP JUMPDEST SWAP3 SWAP2 POP POP JUMP JUMPDEST PUSH1 0x0 PUSH1 0x20 DUP3 DUP5 SUB SLT ISZERO PUSH2 0xEE6 JUMPI PUSH2 0xEE5 PUSH2 0xA40 JUMP JUMPDEST JUMPDEST PUSH1 0x0 PUSH2 0xEF4 DUP5 DUP3 DUP6 ADD PUSH2 0xEBB JUMP JUMPDEST SWAP2 POP POP SWAP3 SWAP2 POP POP JUMP JUMPDEST PUSH1 0x0 DUP2 ISZERO ISZERO SWAP1 POP SWAP2 SWAP1 POP JUMP JUMPDEST PUSH2 0xF12 DUP2 PUSH2 0xEFD JUMP JUMPDEST DUP3 MSTORE POP POP JUMP JUMPDEST PUSH1 0x0 PUSH1 0x20 DUP3 ADD SWAP1 POP PUSH2 0xF2D PUSH1 0x0 DUP4 ADD DUP5 PUSH2 0xF09 JUMP JUMPDEST SWAP3 SWAP2 POP POP JUMP JUMPDEST PUSH2 0xF3C DUP2 PUSH2 0xA6A JUMP JUMPDEST DUP3 MSTORE POP POP JUMP JUMPDEST PUSH1 0x0 PUSH1 0x20 DUP3 ADD SWAP1 POP PUSH2 0xF57 PUSH1 0x0 DUP4 ADD DUP5 PUSH2 0xF33 JUMP JUMPDEST SWAP3 SWAP2 POP POP JUMP JUMPDEST PUSH1 0x0 DUP2 MLOAD SWAP1 POP SWAP2 SWAP1 POP JUMP JUMPDEST PUSH1 0x0 DUP3 DUP3 MSTORE PUSH1 0x20 DUP3 ADD SWAP1 POP SWAP3 SWAP2 POP POP JUMP JUMPDEST PUSH1 0x0 PUSH2 0xF84 DUP3 PUSH2 0xF5D JUMP JUMPDEST PUSH2 0xF8E DUP2 DUP6 PUSH2 0xF68 JUMP JUMPDEST SWAP4 POP PUSH2 0xF9E DUP2 DUP6 PUSH1 0x20 DUP7 ADD PUSH2 0xDC8 JUMP JUMPDEST PUSH2 0xFA7 DUP2 PUSH2 0xAE8 JUMP JUMPDEST DUP5 ADD SWAP2 POP POP SWAP3 SWAP2 POP POP JUMP JUMPDEST PUSH1 0x0 PUSH1 0xA0 DUP3 ADD SWAP1 POP PUSH2 0xFC7 PUSH1 0x0 DUP4 ADD DUP9 PUSH2 0xF33 JUMP JUMPDEST PUSH2 0xFD4 PUSH1 0x20 DUP4 ADD DUP8 PUSH2 0xE4D JUMP JUMPDEST DUP2 DUP2 SUB PUSH1 0x40 DUP4 ADD MSTORE PUSH2 0xFE6 DUP2 DUP7 PUSH2 0xF79 JUMP JUMPDEST SWAP1 POP DUP2 DUP2 SUB PUSH1 0x60 DUP4 ADD MSTORE PUSH2 0xFFA DUP2 DUP6 PUSH2 0xDF2 JUMP JUMPDEST SWAP1 POP PUSH2 0x1009 PUSH1 0x80 DUP4 ADD DUP5 PUSH2 0xE4D JUMP JUMPDEST SWAP7 SWAP6 POP POP POP POP POP POP JUMP JUMPDEST PUSH32 0x54696D656C6F636B3A2043616C6C6572206E6F742061646D696E000000000000 PUSH1 0x0 DUP3 ADD MSTORE POP JUMP JUMPDEST PUSH1 0x0 PUSH2 0x1049 PUSH1 0x1A DUP4 PUSH2 0xF68 JUMP JUMPDEST SWAP2 POP PUSH2 0x1054 DUP3 PUSH2 0x1013 JUMP JUMPDEST PUSH1 0x20 DUP3 ADD SWAP1 POP SWAP2 SWAP1 POP JUMP JUMPDEST PUSH1 0x0 PUSH1 0x20 DUP3 ADD SWAP1 POP DUP2 DUP2 SUB PUSH1 0x0 DUP4 ADD MSTORE PUSH2 0x1078 DUP2 PUSH2 0x103C JUMP JUMPDEST SWAP1 POP SWAP2 SWAP1 POP JUMP JUMPDEST PUSH32 0x54696D656C6F636B3A3A657865637574655472616E73616374696F6E3A205472 PUSH1 0x0 DUP3 ADD MSTORE PUSH32 0x616E73616374696F6E206861736E2774206265656E207175657565642E000000 PUSH1 0x20 DUP3 ADD MSTORE POP JUMP JUMPDEST PUSH1 0x0 PUSH2 0x10DB PUSH1 0x3D DUP4 PUSH2 0xF68 JUMP JUMPDEST SWAP2 POP PUSH2 0x10E6 DUP3 PUSH2 0x107F JUMP JUMPDEST PUSH1 0x40 DUP3 ADD SWAP1 POP SWAP2 SWAP1 POP JUMP JUMPDEST PUSH1 0x0 PUSH1 0x20 DUP3 ADD SWAP1 POP DUP2 DUP2 SUB PUSH1 0x0 DUP4 ADD MSTORE PUSH2 0x110A DUP2 PUSH2 0x10CE JUMP JUMPDEST SWAP1 POP SWAP2 SWAP1 POP JUMP JUMPDEST PUSH32 0x54696D656C6F636B3A3A657865637574655472616E73616374696F6E3A205472 PUSH1 0x0 DUP3 ADD MSTORE PUSH32 0x616E73616374696F6E206861736E2774207375727061737365642074696D6520 PUSH1 0x20 DUP3 ADD MSTORE PUSH32 0x6C6F636B2E000000000000000000000000000000000000000000000000000000 PUSH1 0x40 DUP3 ADD MSTORE POP JUMP JUMPDEST PUSH1 0x0 PUSH2 0x1193 PUSH1 0x45 DUP4 PUSH2 0xF68 JUMP JUMPDEST SWAP2 POP PUSH2 0x119E DUP3 PUSH2 0x1111 JUMP JUMPDEST PUSH1 0x60 DUP3 ADD SWAP1 POP SWAP2 SWAP1 POP JUMP JUMPDEST PUSH1 0x0 PUSH1 0x20 DUP3 ADD SWAP1 POP DUP2 DUP2 SUB PUSH1 0x0 DUP4 ADD MSTORE PUSH2 0x11C2 DUP2 PUSH2 0x1186 JUMP JUMPDEST SWAP1 POP SWAP2 SWAP1 POP JUMP JUMPDEST PUSH32 0x4E487B7100000000000000000000000000000000000000000000000000000000 PUSH1 0x0 MSTORE PUSH1 0x11 PUSH1 0x4 MSTORE PUSH1 0x24 PUSH1 0x0 REVERT JUMPDEST PUSH1 0x0 PUSH2 0x1203 DUP3 PUSH2 0xAA8 JUMP JUMPDEST SWAP2 POP PUSH2 0x120E DUP4 PUSH2 0xAA8 JUMP JUMPDEST SWAP3 POP DUP3 DUP3 ADD SWAP1 POP DUP1 DUP3 GT ISZERO PUSH2 0x1226 JUMPI PUSH2 0x1225 PUSH2 0x11C9 JUMP JUMPDEST JUMPDEST SWAP3 SWAP2 POP POP JUMP JUMPDEST PUSH32 0x54696D656C6F636B3A3A657865637574655472616E73616374696F6E3A205472 PUSH1 0x0 DUP3 ADD MSTORE PUSH32 0x616E73616374696F6E206973207374616C652E00000000000000000000000000 PUSH1 0x20 DUP3 ADD MSTORE POP JUMP JUMPDEST PUSH1 0x0 PUSH2 0x1288 PUSH1 0x33 DUP4 PUSH2 0xF68 JUMP JUMPDEST SWAP2 POP PUSH2 0x1293 DUP3 PUSH2 0x122C JUMP JUMPDEST PUSH1 0x40 DUP3 ADD SWAP1 POP SWAP2 SWAP1 POP JUMP JUMPDEST PUSH1 0x0 PUSH1 0x20 DUP3 ADD SWAP1 POP DUP2 DUP2 SUB PUSH1 0x0 DUP4 ADD MSTORE PUSH2 0x12B7 DUP2 PUSH2 0x127B JUMP JUMPDEST SWAP1 POP SWAP2 SWAP1 POP JUMP JUMPDEST PUSH1 0x0 PUSH32 0xFFFFFFFF00000000000000000000000000000000000000000000000000000000 DUP3 AND SWAP1 POP SWAP2 SWAP1 POP JUMP JUMPDEST PUSH1 0x0 DUP2 SWAP1 POP SWAP2 SWAP1 POP JUMP JUMPDEST PUSH2 0x1305 PUSH2 0x1300 DUP3 PUSH2 0x12BE JUMP JUMPDEST PUSH2 0x12EA JUMP JUMPDEST DUP3 MSTORE POP POP JUMP JUMPDEST PUSH1 0x0 DUP2 SWAP1 POP SWAP3 SWAP2 POP POP JUMP JUMPDEST PUSH1 0x0 PUSH2 0x1321 DUP3 PUSH2 0xDAC JUMP JUMPDEST PUSH2 0x132B DUP2 DUP6 PUSH2 0x130B JUMP JUMPDEST SWAP4 POP PUSH2 0x133B DUP2 DUP6 PUSH1 0x20 DUP7 ADD PUSH2 0xDC8 JUMP JUMPDEST DUP1 DUP5 ADD SWAP2 POP POP SWAP3 SWAP2 POP POP JUMP JUMPDEST PUSH1 0x0 PUSH2 0x1353 DUP3 DUP6 PUSH2 0x12F4 JUMP JUMPDEST PUSH1 0x4 DUP3 ADD SWAP2 POP PUSH2 0x1363 DUP3 DUP5 PUSH2 0x1316 JUMP JUMPDEST SWAP2 POP DUP2 SWAP1 POP SWAP4 SWAP3 POP POP POP JUMP JUMPDEST PUSH1 0x0 PUSH2 0x137B DUP3 DUP5 PUSH2 0x1316 JUMP JUMPDEST SWAP2 POP DUP2 SWAP1 POP SWAP3 SWAP2 POP POP JUMP JUMPDEST PUSH32 0x54696D656C6F636B3A3A657865637574655472616E73616374696F6E3A205472 PUSH1 0x0 DUP3 ADD MSTORE PUSH32 0x616E73616374696F6E20657865637574696F6E2072657665727465642E000000 PUSH1 0x20 DUP3 ADD MSTORE POP JUMP JUMPDEST PUSH1 0x0 PUSH2 0x13E2 PUSH1 0x3D DUP4 PUSH2 0xF68 JUMP JUMPDEST SWAP2 POP PUSH2 0x13ED DUP3 PUSH2 0x1386 JUMP JUMPDEST PUSH1 0x40 DUP3 ADD SWAP1 POP SWAP2 SWAP1 POP JUMP JUMPDEST PUSH1 0x0 PUSH1 0x20 DUP3 ADD SWAP1 POP DUP2 DUP2 SUB PUSH1 0x0 DUP4 ADD MSTORE PUSH2 0x1411 DUP2 PUSH2 0x13D5 JUMP JUMPDEST SWAP1 POP SWAP2 SWAP1 POP JUMP JUMPDEST PUSH1 0x0 PUSH1 0x80 DUP3 ADD SWAP1 POP PUSH2 0x142D PUSH1 0x0 DUP4 ADD DUP8 PUSH2 0xE4D JUMP JUMPDEST DUP2 DUP2 SUB PUSH1 0x20 DUP4 ADD MSTORE PUSH2 0x143F DUP2 DUP7 PUSH2 0xF79 JUMP JUMPDEST SWAP1 POP DUP2 DUP2 SUB PUSH1 0x40 DUP4 ADD MSTORE PUSH2 0x1453 DUP2 DUP6 PUSH2 0xDF2 JUMP JUMPDEST SWAP1 POP PUSH2 0x1462 PUSH1 0x60 DUP4 ADD DUP5 PUSH2 0xE4D JUMP JUMPDEST SWAP6 SWAP5 POP POP POP POP POP JUMP JUMPDEST PUSH32 0x54696D656C6F636B3A3A71756575655472616E73616374696F6E3A2045737469 PUSH1 0x0 DUP3 ADD MSTORE PUSH32 0x6D6174656420657865637574696F6E20626C6F636B206D757374207361746973 PUSH1 0x20 DUP3 ADD MSTORE PUSH32 0x66792064656C61792E0000000000000000000000000000000000000000000000 PUSH1 0x40 DUP3 ADD MSTORE POP JUMP JUMPDEST PUSH1 0x0 PUSH2 0x14ED PUSH1 0x49 DUP4 PUSH2 0xF68 JUMP JUMPDEST SWAP2 POP PUSH2 0x14F8 DUP3 PUSH2 0x146B JUMP JUMPDEST PUSH1 0x60 DUP3 ADD SWAP1 POP SWAP2 SWAP1 POP JUMP JUMPDEST PUSH1 0x0 PUSH1 0x20 DUP3 ADD SWAP1 POP DUP2 DUP2 SUB PUSH1 0x0 DUP4 ADD MSTORE PUSH2 0x151C DUP2 PUSH2 0x14E0 JUMP JUMPDEST SWAP1 POP SWAP2 SWAP1 POP JUMP JUMPDEST PUSH32 0x54696D656C6F636B3A3A63616E63656C5472616E73616374696F6E3A20547261 PUSH1 0x0 DUP3 ADD MSTORE PUSH32 0x6E73616374696F6E206861736E2774206265656E207175657565642E00000000 PUSH1 0x20 DUP3 ADD MSTORE POP JUMP JUMPDEST PUSH1 0x0 PUSH2 0x157F PUSH1 0x3C DUP4 PUSH2 0xF68 JUMP JUMPDEST SWAP2 POP PUSH2 0x158A DUP3 PUSH2 0x1523 JUMP JUMPDEST PUSH1 0x40 DUP3 ADD SWAP1 POP SWAP2 SWAP1 POP JUMP JUMPDEST PUSH1 0x0 PUSH1 0x20 DUP3 ADD SWAP1 POP DUP2 DUP2 SUB PUSH1 0x0 DUP4 ADD MSTORE PUSH2 0x15AE DUP2 PUSH2 0x1572 JUMP JUMPDEST SWAP1 POP SWAP2 SWAP1 POP JUMP JUMPDEST PUSH32 0x54696D656C6F636B3A2043616C6C6572206E6F742054696D656C6F636B000000 PUSH1 0x0 DUP3 ADD MSTORE POP JUMP JUMPDEST PUSH1 0x0 PUSH2 0x15EB PUSH1 0x1D DUP4 PUSH2 0xF68 JUMP JUMPDEST SWAP2 POP PUSH2 0x15F6 DUP3 PUSH2 0x15B5 JUMP JUMPDEST PUSH1 0x20 DUP3 ADD SWAP1 POP SWAP2 SWAP1 POP JUMP JUMPDEST PUSH1 0x0 PUSH1 0x20 DUP3 ADD SWAP1 POP DUP2 DUP2 SUB PUSH1 0x0 DUP4 ADD MSTORE PUSH2 0x161A DUP2 PUSH2 0x15DE JUMP JUMPDEST SWAP1 POP SWAP2 SWAP1 POP JUMP INVALID LOG2 PUSH5 0x6970667358 0x22 SLT KECCAK256 SMOD PUSH30 0x5A566B7A4FC87F27F9254B1BE43DA72D41B4E637ED3EF920EC7CBB0F92DC PUSH5 0x736F6C6343 STOP ADDMOD NOT STOP CALLER "
				},
				"gasEstimates": {
					"creation": {
						"codeDepositCost": "1143800",
						"executionCost": "infinite",
						"totalCost": "infinite"
					},
					"external": {
						"GRACE_PERIOD()": "373",
						"admin()": "2599",
						"cancelTransaction(address,uint256,string,bytes,uint256)": "infinite",
						"changeAdmin(address)": "25938",
						"delay()": "2518",
						"executeTransaction(address,uint256,string,bytes,uint256)": "infinite",
						"getBlockTimestamp()": "336",
						"getTxHash(address,uint256,string,bytes,uint256)": "infinite",
						"queueTransaction(address,uint256,string,bytes,uint256)": "infinite",
						"queuedTransactions(bytes32)": "2862"
					}
				},
				"methodIdentifiers": {
					"GRACE_PERIOD()": "c1a287e2",
					"admin()": "f851a440",
					"cancelTransaction(address,uint256,string,bytes,uint256)": "591fcdfe",
					"changeAdmin(address)": "8f283970",
					"delay()": "6a42b8f8",
					"executeTransaction(address,uint256,string,bytes,uint256)": "0825f38f",
					"getBlockTimestamp()": "796b89b9",
					"getTxHash(address,uint256,string,bytes,uint256)": "04a71576",
					"queueTransaction(address,uint256,string,bytes,uint256)": "3a66f901",
					"queuedTransactions(bytes32)": "f2b06537"
				}
			},
			"storageLayout": {
				"storage": [
					{
						"astId": 49,
						"contract": "contracts/45_TimeLocker.sol:TimeLocker",
						"label": "admin",
						"offset": 0,
						"slot": "0",
						"type": "t_address"
					},
					{
						"astId": 54,
						"contract": "contracts/45_TimeLocker.sol:TimeLocker",
						"label": "delay",
						"offset": 0,
						"slot": "1",
						"type": "t_uint256"
					},
					{
						"astId": 58,
						"contract": "contracts/45_TimeLocker.sol:TimeLocker",
						"label": "queuedTransactions",
						"offset": 0,
						"slot": "2",
						"type": "t_mapping(t_bytes32,t_bool)"
					}
				],
				"types": {
					"t_address": {
						"encoding": "inplace",
						"label": "address",
						"numberOfBytes": "20"
					},
					"t_bool": {
						"encoding": "inplace",
						"label": "bool",
						"numberOfBytes": "1"
					},
					"t_bytes32": {
						"encoding": "inplace",
						"label": "bytes32",
						"numberOfBytes": "32"
					},
					"t_mapping(t_bytes32,t_bool)": {
						"encoding": "mapping",
						"key": "t_bytes32",
						"label": "mapping(bytes32 => bool)",
						"numberOfBytes": "32",
						"value": "t_bool"
					},
					"t_uint256": {
						"encoding": "inplace",
						"label": "uint256",
						"numberOfBytes": "32"
					}
				}
			},
			"userdoc": {
				"kind": "user",
				"methods": {},
				"version": 1
			}
		}
	}
}