{
	"data": {
		"bytecode": {
			"linkReferences": {},
			"object": "6080604052600567ffffffffffffffff81111561001f5761001e610138565b5b60405190808252806020026020018201604052801561004d5781602001602082028036833780820191505090505b50607590805190602001906100639291906100d2565b50600967ffffffffffffffff81111561007f5761007e610138565b5b6040519080825280601f01601f1916602001820160405280156100b15781602001600182028036833780820191505090505b50607690816100c09190610372565b503480156100cc575f80fd5b50610441565b828054828255905f5260205f2090810192821561010c579160200282015b8281111561010b5782518255916020019190600101906100f0565b5b509050610119919061011d565b5090565b5b80821115610134575f815f90555060010161011e565b5090565b7f4e487b71000000000000000000000000000000000000000000000000000000005f52604160045260245ffd5b5f81519050919050565b7f4e487b71000000000000000000000000000000000000000000000000000000005f52602260045260245ffd5b5f60028204905060018216806101b357607f821691505b6020821081036101c6576101c561016f565b5b50919050565b5f819050815f5260205f209050919050565b5f6020601f8301049050919050565b5f82821b905092915050565b5f600883026102287fffffffffffffffffffffffffffffffffffffffffffffffffffffffffffffffff826101ed565b61023286836101ed565b95508019841693508086168417925050509392505050565b5f819050919050565b5f819050919050565b5f61027661027161026c8461024a565b610253565b61024a565b9050919050565b5f819050919050565b61028f8361025c565b6102a361029b8261027d565b8484546101f9565b825550505050565b5f90565b6102b76102ab565b6102c2818484610286565b505050565b5b818110156102e5576102da5f826102af565b6001810190506102c8565b5050565b601f82111561032a576102fb816101cc565b610304846101de565b81016020851015610313578190505b61032761031f856101de565b8301826102c7565b50505b505050565b5f82821c905092915050565b5f61034a5f198460080261032f565b1980831691505092915050565b5f610362838361033b565b9150826002028217905092915050565b61037b82610165565b67ffffffffffffffff81111561039457610393610138565b5b61039e825461019c565b6103a98282856102e9565b5f60209050601f8311600181146103da575f84156103c8578287015190505b6103d28582610357565b865550610439565b601f1984166103e8866101cc565b5f5b8281101561040f578489015182556001820191506020850194506020810190506103ea565b8683101561042c5784890151610428601f89168261033b565b8355505b6001600288020188555050505b505050505050565b6108da8061044e5f395ff3fe608060405234801561000f575f80fd5b5060043610610091575f3560e01c8063699450e811610064578063699450e8146100f9578063cbdef3f914610118578063d14d385d14610148578063d612c36e14610178578063fd0e51cc1461019657610091565b80630a412eb81461009557806326121ff0146100b3578063358a17aa146100bd5780634301a557146100db575b5f80fd5b61009d6101b4565b6040516100aa919061054f565b60405180910390f35b6100bb6101f9565b005b6100c5610222565b6040516100d29190610610565b60405180910390f35b6100e36102fd565b6040516100f09190610610565b60405180910390f35b610101610353565b60405161010f92919061063f565b60405180910390f35b610132600480360381019061012d919061069d565b610364565b60405161013f91906106c8565b60405180910390f35b610162600480360381019061015d919061081f565b610384565b60405161016f91906106c8565b60405180910390f35b6101806103a5565b60405161018d919061054f565b60405180910390f35b61019e6103e7565b6040516101ab9190610610565b60405180910390f35b6101bc6104f2565b5f607790506002815f018190555060c88160010181905550806040518060400160405290815f820154815260200160018201548152505091505090565b61021f604051806060016040528060018152602001600281526020016003815250610384565b50565b60605f600467ffffffffffffffff8111156102405761023f6106f5565b5b60405190808252806020026020018201604052801561026e5781602001602082028036833780820191505090505b5090505f815f815181106102855761028461084a565b5b6020026020010181815250506001816001815181106102a7576102a661084a565b5b6020026020010181815250506009816002815181106102c9576102c861084a565b5b6020026020010181815250505f816003815181106102ea576102e961084a565b5b6020026020010181815250508091505090565b6060607180548060200260200160405190810160405280929190818152602001828054801561034957602002820191905f5260205f20905b815481526020019060010190808311610335575b5050505050905090565b6077805f0154908060010154905082565b60718181548110610373575f80fd5b905f5260205f20015f915090505481565b5f816001600381106103995761039861084a565b5b60200201519050919050565b6103ad6104f2565b600160775f0181905550606460776001018190555060776040518060400160405290815f8201548152602001600182015481525050905090565b6060607160018160018154018082558091505003905f5260205f20505060716001908060018154018082558091505060019003905f5260205f20015f909190919091505560716002908060018154018082558091505060019003905f5260205f20015f909190919091505560716003908060018154018082558091505060019003905f5260205f20015f9091909190915055607180548061048b5761048a610877565b5b600190038181905f5260205f20015f9055905560718054806020026020016040519081016040528092919081815260200182805480156104e857602002820191905f5260205f20905b8154815260200190600101908083116104d4575b5050505050905090565b60405180604001604052805f81526020015f81525090565b5f819050919050565b61051c8161050a565b82525050565b604082015f8201516105365f850182610513565b5060208201516105496020850182610513565b50505050565b5f6040820190506105625f830184610522565b92915050565b5f81519050919050565b5f82825260208201905092915050565b5f819050602082019050919050565b5f61059c8383610513565b60208301905092915050565b5f602082019050919050565b5f6105be82610568565b6105c88185610572565b93506105d383610582565b805f5b838110156106035781516105ea8882610591565b97506105f5836105a8565b9250506001810190506105d6565b5085935050505092915050565b5f6020820190508181035f83015261062881846105b4565b905092915050565b6106398161050a565b82525050565b5f6040820190506106525f830185610630565b61065f6020830184610630565b9392505050565b5f604051905090565b5f80fd5b61067c8161050a565b8114610686575f80fd5b50565b5f8135905061069781610673565b92915050565b5f602082840312156106b2576106b161066f565b5b5f6106bf84828501610689565b91505092915050565b5f6020820190506106db5f830184610630565b92915050565b5f80fd5b5f601f19601f8301169050919050565b7f4e487b71000000000000000000000000000000000000000000000000000000005f52604160045260245ffd5b61072b826106e5565b810181811067ffffffffffffffff8211171561074a576107496106f5565b5b80604052505050565b5f61075c610666565b90506107688282610722565b919050565b5f67ffffffffffffffff821115610787576107866106f5565b5b602082029050919050565b5f80fd5b5f6107a86107a38461076d565b610753565b905080602084028301858111156107c2576107c1610792565b5b835b818110156107eb57806107d78882610689565b8452602084019350506020810190506107c4565b5050509392505050565b5f82601f830112610809576108086106e1565b5b6003610816848285610796565b91505092915050565b5f606082840312156108345761083361066f565b5b5f610841848285016107f5565b91505092915050565b7f4e487b71000000000000000000000000000000000000000000000000000000005f52603260045260245ffd5b7f4e487b71000000000000000000000000000000000000000000000000000000005f52603160045260245ffdfea2646970667358221220977120c98dd49e2c8eb36bc2492883bfe9cc2f206143acd189be37e6e6b9d4f864736f6c63430008190033",
			"opcodes": "PUSH1 0x80 PUSH1 0x40 MSTORE PUSH1 0x5 PUSH8 0xFFFFFFFFFFFFFFFF DUP2 GT ISZERO PUSH2 0x1F JUMPI PUSH2 0x1E PUSH2 0x138 JUMP JUMPDEST JUMPDEST PUSH1 0x40 MLOAD SWAP1 DUP1 DUP3 MSTORE DUP1 PUSH1 0x20 MUL PUSH1 0x20 ADD DUP3 ADD PUSH1 0x40 MSTORE DUP1 ISZERO PUSH2 0x4D JUMPI DUP2 PUSH1 0x20 ADD PUSH1 0x20 DUP3 MUL DUP1 CALLDATASIZE DUP4 CALLDATACOPY DUP1 DUP3 ADD SWAP2 POP POP SWAP1 POP JUMPDEST POP PUSH1 0x75 SWAP1 DUP1 MLOAD SWAP1 PUSH1 0x20 ADD SWAP1 PUSH2 0x63 SWAP3 SWAP2 SWAP1 PUSH2 0xD2 JUMP JUMPDEST POP PUSH1 0x9 PUSH8 0xFFFFFFFFFFFFFFFF DUP2 GT ISZERO PUSH2 0x7F JUMPI PUSH2 0x7E PUSH2 0x138 JUMP JUMPDEST JUMPDEST PUSH1 0x40 MLOAD SWAP1 DUP1 DUP3 MSTORE DUP1 PUSH1 0x1F ADD PUSH1 0x1F NOT AND PUSH1 0x20 ADD DUP3 ADD PUSH1 0x40 MSTORE DUP1 ISZERO PUSH2 0xB1 JUMPI DUP2 PUSH1 0x20 ADD PUSH1 0x1 DUP3 MUL DUP1 CALLDATASIZE DUP4 CALLDATACOPY DUP1 DUP3 ADD SWAP2 POP POP SWAP1 POP JUMPDEST POP PUSH1 0x76 SWAP1 DUP2 PUSH2 0xC0 SWAP2 SWAP1 PUSH2 0x372 JUMP JUMPDEST POP CALLVALUE DUP1 ISZERO PUSH2 0xCC JUMPI PUSH0 DUP1 REVERT JUMPDEST POP PUSH2 0x441 JUMP JUMPDEST DUP3 DUP1 SLOAD DUP3 DUP3 SSTORE SWAP1 PUSH0 MSTORE PUSH1 0x20 PUSH0 KECCAK256 SWAP1 DUP2 ADD SWAP3 DUP3 ISZERO PUSH2 0x10C JUMPI SWAP2 PUSH1 0x20 MUL DUP3 ADD JUMPDEST DUP3 DUP2 GT ISZERO PUSH2 0x10B JUMPI DUP3 MLOAD DUP3 SSTORE SWAP2 PUSH1 0x20 ADD SWAP2 SWAP1 PUSH1 0x1 ADD SWAP1 PUSH2 0xF0 JUMP JUMPDEST JUMPDEST POP SWAP1 POP PUSH2 0x119 SWAP2 SWAP1 PUSH2 0x11D JUMP JUMPDEST POP SWAP1 JUMP JUMPDEST JUMPDEST DUP1 DUP3 GT ISZERO PUSH2 0x134 JUMPI PUSH0 DUP2 PUSH0 SWAP1 SSTORE POP PUSH1 0x1 ADD PUSH2 0x11E JUMP JUMPDEST POP SWAP1 JUMP JUMPDEST PUSH32 0x4E487B7100000000000000000000000000000000000000000000000000000000 PUSH0 MSTORE PUSH1 0x41 PUSH1 0x4 MSTORE PUSH1 0x24 PUSH0 REVERT JUMPDEST PUSH0 DUP2 MLOAD SWAP1 POP SWAP2 SWAP1 POP JUMP JUMPDEST PUSH32 0x4E487B7100000000000000000000000000000000000000000000000000000000 PUSH0 MSTORE PUSH1 0x22 PUSH1 0x4 MSTORE PUSH1 0x24 PUSH0 REVERT JUMPDEST PUSH0 PUSH1 0x2 DUP3 DIV SWAP1 POP PUSH1 0x1 DUP3 AND DUP1 PUSH2 0x1B3 JUMPI PUSH1 0x7F DUP3 AND SWAP2 POP JUMPDEST PUSH1 0x20 DUP3 LT DUP2 SUB PUSH2 0x1C6 JUMPI PUSH2 0x1C5 PUSH2 0x16F JUMP JUMPDEST JUMPDEST POP SWAP2 SWAP1 POP JUMP JUMPDEST PUSH0 DUP2 SWAP1 POP DUP2 PUSH0 MSTORE PUSH1 0x20 PUSH0 KECCAK256 SWAP1 POP SWAP2 SWAP1 POP JUMP JUMPDEST PUSH0 PUSH1 0x20 PUSH1 0x1F DUP4 ADD DIV SWAP1 POP SWAP2 SWAP1 POP JUMP JUMPDEST PUSH0 DUP3 DUP3 SHL SWAP1 POP SWAP3 SWAP2 POP POP JUMP JUMPDEST PUSH0 PUSH1 0x8 DUP4 MUL PUSH2 0x228 PUSH32 0xFFFFFFFFFFFFFFFFFFFFFFFFFFFFFFFFFFFFFFFFFFFFFFFFFFFFFFFFFFFFFFFF DUP3 PUSH2 0x1ED JUMP JUMPDEST PUSH2 0x232 DUP7 DUP4 PUSH2 0x1ED JUMP JUMPDEST SWAP6 POP DUP1 NOT DUP5 AND SWAP4 POP DUP1 DUP7 AND DUP5 OR SWAP3 POP POP POP SWAP4 SWAP3 POP POP POP JUMP JUMPDEST PUSH0 DUP2 SWAP1 POP SWAP2 SWAP1 POP JUMP JUMPDEST PUSH0 DUP2 SWAP1 POP SWAP2 SWAP1 POP JUMP JUMPDEST PUSH0 PUSH2 0x276 PUSH2 0x271 PUSH2 0x26C DUP5 PUSH2 0x24A JUMP JUMPDEST PUSH2 0x253 JUMP JUMPDEST PUSH2 0x24A JUMP JUMPDEST SWAP1 POP SWAP2 SWAP1 POP JUMP JUMPDEST PUSH0 DUP2 SWAP1 POP SWAP2 SWAP1 POP JUMP JUMPDEST PUSH2 0x28F DUP4 PUSH2 0x25C JUMP JUMPDEST PUSH2 0x2A3 PUSH2 0x29B DUP3 PUSH2 0x27D JUMP JUMPDEST DUP5 DUP5 SLOAD PUSH2 0x1F9 JUMP JUMPDEST DUP3 SSTORE POP POP POP POP JUMP JUMPDEST PUSH0 SWAP1 JUMP JUMPDEST PUSH2 0x2B7 PUSH2 0x2AB JUMP JUMPDEST PUSH2 0x2C2 DUP2 DUP5 DUP5 PUSH2 0x286 JUMP JUMPDEST POP POP POP JUMP JUMPDEST JUMPDEST DUP2 DUP2 LT ISZERO PUSH2 0x2E5 JUMPI PUSH2 0x2DA PUSH0 DUP3 PUSH2 0x2AF JUMP JUMPDEST PUSH1 0x1 DUP2 ADD SWAP1 POP PUSH2 0x2C8 JUMP JUMPDEST POP POP JUMP JUMPDEST PUSH1 0x1F DUP3 GT ISZERO PUSH2 0x32A JUMPI PUSH2 0x2FB DUP2 PUSH2 0x1CC JUMP JUMPDEST PUSH2 0x304 DUP5 PUSH2 0x1DE JUMP JUMPDEST DUP2 ADD PUSH1 0x20 DUP6 LT ISZERO PUSH2 0x313 JUMPI DUP2 SWAP1 POP JUMPDEST PUSH2 0x327 PUSH2 0x31F DUP6 PUSH2 0x1DE JUMP JUMPDEST DUP4 ADD DUP3 PUSH2 0x2C7 JUMP JUMPDEST POP POP JUMPDEST POP POP POP JUMP JUMPDEST PUSH0 DUP3 DUP3 SHR SWAP1 POP SWAP3 SWAP2 POP POP JUMP JUMPDEST PUSH0 PUSH2 0x34A PUSH0 NOT DUP5 PUSH1 0x8 MUL PUSH2 0x32F JUMP JUMPDEST NOT DUP1 DUP4 AND SWAP2 POP POP SWAP3 SWAP2 POP POP JUMP JUMPDEST PUSH0 PUSH2 0x362 DUP4 DUP4 PUSH2 0x33B JUMP JUMPDEST SWAP2 POP DUP3 PUSH1 0x2 MUL DUP3 OR SWAP1 POP SWAP3 SWAP2 POP POP JUMP JUMPDEST PUSH2 0x37B DUP3 PUSH2 0x165 JUMP JUMPDEST PUSH8 0xFFFFFFFFFFFFFFFF DUP2 GT ISZERO PUSH2 0x394 JUMPI PUSH2 0x393 PUSH2 0x138 JUMP JUMPDEST JUMPDEST PUSH2 0x39E DUP3 SLOAD PUSH2 0x19C JUMP JUMPDEST PUSH2 0x3A9 DUP3 DUP3 DUP6 PUSH2 0x2E9 JUMP JUMPDEST PUSH0 PUSH1 0x20 SWAP1 POP PUSH1 0x1F DUP4 GT PUSH1 0x1 DUP2 EQ PUSH2 0x3DA JUMPI PUSH0 DUP5 ISZERO PUSH2 0x3C8 JUMPI DUP3 DUP8 ADD MLOAD SWAP1 POP JUMPDEST PUSH2 0x3D2 DUP6 DUP3 PUSH2 0x357 JUMP JUMPDEST DUP7 SSTORE POP PUSH2 0x439 JUMP JUMPDEST PUSH1 0x1F NOT DUP5 AND PUSH2 0x3E8 DUP7 PUSH2 0x1CC JUMP JUMPDEST PUSH0 JUMPDEST DUP3 DUP2 LT ISZERO PUSH2 0x40F JUMPI DUP5 DUP10 ADD MLOAD DUP3 SSTORE PUSH1 0x1 DUP3 ADD SWAP2 POP PUSH1 0x20 DUP6 ADD SWAP5 POP PUSH1 0x20 DUP2 ADD SWAP1 POP PUSH2 0x3EA JUMP JUMPDEST DUP7 DUP4 LT ISZERO PUSH2 0x42C JUMPI DUP5 DUP10 ADD MLOAD PUSH2 0x428 PUSH1 0x1F DUP10 AND DUP3 PUSH2 0x33B JUMP JUMPDEST DUP4 SSTORE POP JUMPDEST PUSH1 0x1 PUSH1 0x2 DUP9 MUL ADD DUP9 SSTORE POP POP POP JUMPDEST POP POP POP POP POP POP JUMP JUMPDEST PUSH2 0x8DA DUP1 PUSH2 0x44E PUSH0 CODECOPY PUSH0 RETURN INVALID PUSH1 0x80 PUSH1 0x40 MSTORE CALLVALUE DUP1 ISZERO PUSH2 0xF JUMPI PUSH0 DUP1 REVERT JUMPDEST POP PUSH1 0x4 CALLDATASIZE LT PUSH2 0x91 JUMPI PUSH0 CALLDATALOAD PUSH1 0xE0 SHR DUP1 PUSH4 0x699450E8 GT PUSH2 0x64 JUMPI DUP1 PUSH4 0x699450E8 EQ PUSH2 0xF9 JUMPI DUP1 PUSH4 0xCBDEF3F9 EQ PUSH2 0x118 JUMPI DUP1 PUSH4 0xD14D385D EQ PUSH2 0x148 JUMPI DUP1 PUSH4 0xD612C36E EQ PUSH2 0x178 JUMPI DUP1 PUSH4 0xFD0E51CC EQ PUSH2 0x196 JUMPI PUSH2 0x91 JUMP JUMPDEST DUP1 PUSH4 0xA412EB8 EQ PUSH2 0x95 JUMPI DUP1 PUSH4 0x26121FF0 EQ PUSH2 0xB3 JUMPI DUP1 PUSH4 0x358A17AA EQ PUSH2 0xBD JUMPI DUP1 PUSH4 0x4301A557 EQ PUSH2 0xDB JUMPI JUMPDEST PUSH0 DUP1 REVERT JUMPDEST PUSH2 0x9D PUSH2 0x1B4 JUMP JUMPDEST PUSH1 0x40 MLOAD PUSH2 0xAA SWAP2 SWAP1 PUSH2 0x54F JUMP JUMPDEST PUSH1 0x40 MLOAD DUP1 SWAP2 SUB SWAP1 RETURN JUMPDEST PUSH2 0xBB PUSH2 0x1F9 JUMP JUMPDEST STOP JUMPDEST PUSH2 0xC5 PUSH2 0x222 JUMP JUMPDEST PUSH1 0x40 MLOAD PUSH2 0xD2 SWAP2 SWAP1 PUSH2 0x610 JUMP JUMPDEST PUSH1 0x40 MLOAD DUP1 SWAP2 SUB SWAP1 RETURN JUMPDEST PUSH2 0xE3 PUSH2 0x2FD JUMP JUMPDEST PUSH1 0x40 MLOAD PUSH2 0xF0 SWAP2 SWAP1 PUSH2 0x610 JUMP JUMPDEST PUSH1 0x40 MLOAD DUP1 SWAP2 SUB SWAP1 RETURN JUMPDEST PUSH2 0x101 PUSH2 0x353 JUMP JUMPDEST PUSH1 0x40 MLOAD PUSH2 0x10F SWAP3 SWAP2 SWAP1 PUSH2 0x63F JUMP JUMPDEST PUSH1 0x40 MLOAD DUP1 SWAP2 SUB SWAP1 RETURN JUMPDEST PUSH2 0x132 PUSH1 0x4 DUP1 CALLDATASIZE SUB DUP2 ADD SWAP1 PUSH2 0x12D SWAP2 SWAP1 PUSH2 0x69D JUMP JUMPDEST PUSH2 0x364 JUMP JUMPDEST PUSH1 0x40 MLOAD PUSH2 0x13F SWAP2 SWAP1 PUSH2 0x6C8 JUMP JUMPDEST PUSH1 0x40 MLOAD DUP1 SWAP2 SUB SWAP1 RETURN JUMPDEST PUSH2 0x162 PUSH1 0x4 DUP1 CALLDATASIZE SUB DUP2 ADD SWAP1 PUSH2 0x15D SWAP2 SWAP1 PUSH2 0x81F JUMP JUMPDEST PUSH2 0x384 JUMP JUMPDEST PUSH1 0x40 MLOAD PUSH2 0x16F SWAP2 SWAP1 PUSH2 0x6C8 JUMP JUMPDEST PUSH1 0x40 MLOAD DUP1 SWAP2 SUB SWAP1 RETURN JUMPDEST PUSH2 0x180 PUSH2 0x3A5 JUMP JUMPDEST PUSH1 0x40 MLOAD PUSH2 0x18D SWAP2 SWAP1 PUSH2 0x54F JUMP JUMPDEST PUSH1 0x40 MLOAD DUP1 SWAP2 SUB SWAP1 RETURN JUMPDEST PUSH2 0x19E PUSH2 0x3E7 JUMP JUMPDEST PUSH1 0x40 MLOAD PUSH2 0x1AB SWAP2 SWAP1 PUSH2 0x610 JUMP JUMPDEST PUSH1 0x40 MLOAD DUP1 SWAP2 SUB SWAP1 RETURN JUMPDEST PUSH2 0x1BC PUSH2 0x4F2 JUMP JUMPDEST PUSH0 PUSH1 0x77 SWAP1 POP PUSH1 0x2 DUP2 PUSH0 ADD DUP2 SWAP1 SSTORE POP PUSH1 0xC8 DUP2 PUSH1 0x1 ADD DUP2 SWAP1 SSTORE POP DUP1 PUSH1 0x40 MLOAD DUP1 PUSH1 0x40 ADD PUSH1 0x40 MSTORE SWAP1 DUP2 PUSH0 DUP3 ADD SLOAD DUP2 MSTORE PUSH1 0x20 ADD PUSH1 0x1 DUP3 ADD SLOAD DUP2 MSTORE POP POP SWAP2 POP POP SWAP1 JUMP JUMPDEST PUSH2 0x21F PUSH1 0x40 MLOAD DUP1 PUSH1 0x60 ADD PUSH1 0x40 MSTORE DUP1 PUSH1 0x1 DUP2 MSTORE PUSH1 0x20 ADD PUSH1 0x2 DUP2 MSTORE PUSH1 0x20 ADD PUSH1 0x3 DUP2 MSTORE POP PUSH2 0x384 JUMP JUMPDEST POP JUMP JUMPDEST PUSH1 0x60 PUSH0 PUSH1 0x4 PUSH8 0xFFFFFFFFFFFFFFFF DUP2 GT ISZERO PUSH2 0x240 JUMPI PUSH2 0x23F PUSH2 0x6F5 JUMP JUMPDEST JUMPDEST PUSH1 0x40 MLOAD SWAP1 DUP1 DUP3 MSTORE DUP1 PUSH1 0x20 MUL PUSH1 0x20 ADD DUP3 ADD PUSH1 0x40 MSTORE DUP1 ISZERO PUSH2 0x26E JUMPI DUP2 PUSH1 0x20 ADD PUSH1 0x20 DUP3 MUL DUP1 CALLDATASIZE DUP4 CALLDATACOPY DUP1 DUP3 ADD SWAP2 POP POP SWAP1 POP JUMPDEST POP SWAP1 POP PUSH0 DUP2 PUSH0 DUP2 MLOAD DUP2 LT PUSH2 0x285 JUMPI PUSH2 0x284 PUSH2 0x84A JUMP JUMPDEST JUMPDEST PUSH1 0x20 MUL PUSH1 0x20 ADD ADD DUP2 DUP2 MSTORE POP POP PUSH1 0x1 DUP2 PUSH1 0x1 DUP2 MLOAD DUP2 LT PUSH2 0x2A7 JUMPI PUSH2 0x2A6 PUSH2 0x84A JUMP JUMPDEST JUMPDEST PUSH1 0x20 MUL PUSH1 0x20 ADD ADD DUP2 DUP2 MSTORE POP POP PUSH1 0x9 DUP2 PUSH1 0x2 DUP2 MLOAD DUP2 LT PUSH2 0x2C9 JUMPI PUSH2 0x2C8 PUSH2 0x84A JUMP JUMPDEST JUMPDEST PUSH1 0x20 MUL PUSH1 0x20 ADD ADD DUP2 DUP2 MSTORE POP POP PUSH0 DUP2 PUSH1 0x3 DUP2 MLOAD DUP2 LT PUSH2 0x2EA JUMPI PUSH2 0x2E9 PUSH2 0x84A JUMP JUMPDEST JUMPDEST PUSH1 0x20 MUL PUSH1 0x20 ADD ADD DUP2 DUP2 MSTORE POP POP DUP1 SWAP2 POP POP SWAP1 JUMP JUMPDEST PUSH1 0x60 PUSH1 0x71 DUP1 SLOAD DUP1 PUSH1 0x20 MUL PUSH1 0x20 ADD PUSH1 0x40 MLOAD SWAP1 DUP2 ADD PUSH1 0x40 MSTORE DUP1 SWAP3 SWAP2 SWAP1 DUP2 DUP2 MSTORE PUSH1 0x20 ADD DUP3 DUP1 SLOAD DUP1 ISZERO PUSH2 0x349 JUMPI PUSH1 0x20 MUL DUP3 ADD SWAP2 SWAP1 PUSH0 MSTORE PUSH1 0x20 PUSH0 KECCAK256 SWAP1 JUMPDEST DUP2 SLOAD DUP2 MSTORE PUSH1 0x20 ADD SWAP1 PUSH1 0x1 ADD SWAP1 DUP1 DUP4 GT PUSH2 0x335 JUMPI JUMPDEST POP POP POP POP POP SWAP1 POP SWAP1 JUMP JUMPDEST PUSH1 0x77 DUP1 PUSH0 ADD SLOAD SWAP1 DUP1 PUSH1 0x1 ADD SLOAD SWAP1 POP DUP3 JUMP JUMPDEST PUSH1 0x71 DUP2 DUP2 SLOAD DUP2 LT PUSH2 0x373 JUMPI PUSH0 DUP1 REVERT JUMPDEST SWAP1 PUSH0 MSTORE PUSH1 0x20 PUSH0 KECCAK256 ADD PUSH0 SWAP2 POP SWAP1 POP SLOAD DUP2 JUMP JUMPDEST PUSH0 DUP2 PUSH1 0x1 PUSH1 0x3 DUP2 LT PUSH2 0x399 JUMPI PUSH2 0x398 PUSH2 0x84A JUMP JUMPDEST JUMPDEST PUSH1 0x20 MUL ADD MLOAD SWAP1 POP SWAP2 SWAP1 POP JUMP JUMPDEST PUSH2 0x3AD PUSH2 0x4F2 JUMP JUMPDEST PUSH1 0x1 PUSH1 0x77 PUSH0 ADD DUP2 SWAP1 SSTORE POP PUSH1 0x64 PUSH1 0x77 PUSH1 0x1 ADD DUP2 SWAP1 SSTORE POP PUSH1 0x77 PUSH1 0x40 MLOAD DUP1 PUSH1 0x40 ADD PUSH1 0x40 MSTORE SWAP1 DUP2 PUSH0 DUP3 ADD SLOAD DUP2 MSTORE PUSH1 0x20 ADD PUSH1 0x1 DUP3 ADD SLOAD DUP2 MSTORE POP POP SWAP1 POP SWAP1 JUMP JUMPDEST PUSH1 0x60 PUSH1 0x71 PUSH1 0x1 DUP2 PUSH1 0x1 DUP2 SLOAD ADD DUP1 DUP3 SSTORE DUP1 SWAP2 POP POP SUB SWAP1 PUSH0 MSTORE PUSH1 0x20 PUSH0 KECCAK256 POP POP PUSH1 0x71 PUSH1 0x1 SWAP1 DUP1 PUSH1 0x1 DUP2 SLOAD ADD DUP1 DUP3 SSTORE DUP1 SWAP2 POP POP PUSH1 0x1 SWAP1 SUB SWAP1 PUSH0 MSTORE PUSH1 0x20 PUSH0 KECCAK256 ADD PUSH0 SWAP1 SWAP2 SWAP1 SWAP2 SWAP1 SWAP2 POP SSTORE PUSH1 0x71 PUSH1 0x2 SWAP1 DUP1 PUSH1 0x1 DUP2 SLOAD ADD DUP1 DUP3 SSTORE DUP1 SWAP2 POP POP PUSH1 0x1 SWAP1 SUB SWAP1 PUSH0 MSTORE PUSH1 0x20 PUSH0 KECCAK256 ADD PUSH0 SWAP1 SWAP2 SWAP1 SWAP2 SWAP1 SWAP2 POP SSTORE PUSH1 0x71 PUSH1 0x3 SWAP1 DUP1 PUSH1 0x1 DUP2 SLOAD ADD DUP1 DUP3 SSTORE DUP1 SWAP2 POP POP PUSH1 0x1 SWAP1 SUB SWAP1 PUSH0 MSTORE PUSH1 0x20 PUSH0 KECCAK256 ADD PUSH0 SWAP1 SWAP2 SWAP1 SWAP2 SWAP1 SWAP2 POP SSTORE PUSH1 0x71 DUP1 SLOAD DUP1 PUSH2 0x48B JUMPI PUSH2 0x48A PUSH2 0x877 JUMP JUMPDEST JUMPDEST PUSH1 0x1 SWAP1 SUB DUP2 DUP2 SWAP1 PUSH0 MSTORE PUSH1 0x20 PUSH0 KECCAK256 ADD PUSH0 SWAP1 SSTORE SWAP1 SSTORE PUSH1 0x71 DUP1 SLOAD DUP1 PUSH1 0x20 MUL PUSH1 0x20 ADD PUSH1 0x40 MLOAD SWAP1 DUP2 ADD PUSH1 0x40 MSTORE DUP1 SWAP3 SWAP2 SWAP1 DUP2 DUP2 MSTORE PUSH1 0x20 ADD DUP3 DUP1 SLOAD DUP1 ISZERO PUSH2 0x4E8 JUMPI PUSH1 0x20 MUL DUP3 ADD SWAP2 SWAP1 PUSH0 MSTORE PUSH1 0x20 PUSH0 KECCAK256 SWAP1 JUMPDEST DUP2 SLOAD DUP2 MSTORE PUSH1 0x20 ADD SWAP1 PUSH1 0x1 ADD SWAP1 DUP1 DUP4 GT PUSH2 0x4D4 JUMPI JUMPDEST POP POP POP POP POP SWAP1 POP SWAP1 JUMP JUMPDEST PUSH1 0x40 MLOAD DUP1 PUSH1 0x40 ADD PUSH1 0x40 MSTORE DUP1 PUSH0 DUP2 MSTORE PUSH1 0x20 ADD PUSH0 DUP2 MSTORE POP SWAP1 JUMP JUMPDEST PUSH0 DUP2 SWAP1 POP SWAP2 SWAP1 POP JUMP JUMPDEST PUSH2 0x51C DUP2 PUSH2 0x50A JUMP JUMPDEST DUP3 MSTORE POP POP JUMP JUMPDEST PUSH1 0x40 DUP3 ADD PUSH0 DUP3 ADD MLOAD PUSH2 0x536 PUSH0 DUP6 ADD DUP3 PUSH2 0x513 JUMP JUMPDEST POP PUSH1 0x20 DUP3 ADD MLOAD PUSH2 0x549 PUSH1 0x20 DUP6 ADD DUP3 PUSH2 0x513 JUMP JUMPDEST POP POP POP POP JUMP JUMPDEST PUSH0 PUSH1 0x40 DUP3 ADD SWAP1 POP PUSH2 0x562 PUSH0 DUP4 ADD DUP5 PUSH2 0x522 JUMP JUMPDEST SWAP3 SWAP2 POP POP JUMP JUMPDEST PUSH0 DUP2 MLOAD SWAP1 POP SWAP2 SWAP1 POP JUMP JUMPDEST PUSH0 DUP3 DUP3 MSTORE PUSH1 0x20 DUP3 ADD SWAP1 POP SWAP3 SWAP2 POP POP JUMP JUMPDEST PUSH0 DUP2 SWAP1 POP PUSH1 0x20 DUP3 ADD SWAP1 POP SWAP2 SWAP1 POP JUMP JUMPDEST PUSH0 PUSH2 0x59C DUP4 DUP4 PUSH2 0x513 JUMP JUMPDEST PUSH1 0x20 DUP4 ADD SWAP1 POP SWAP3 SWAP2 POP POP JUMP JUMPDEST PUSH0 PUSH1 0x20 DUP3 ADD SWAP1 POP SWAP2 SWAP1 POP JUMP JUMPDEST PUSH0 PUSH2 0x5BE DUP3 PUSH2 0x568 JUMP JUMPDEST PUSH2 0x5C8 DUP2 DUP6 PUSH2 0x572 JUMP JUMPDEST SWAP4 POP PUSH2 0x5D3 DUP4 PUSH2 0x582 JUMP JUMPDEST DUP1 PUSH0 JUMPDEST DUP4 DUP2 LT ISZERO PUSH2 0x603 JUMPI DUP2 MLOAD PUSH2 0x5EA DUP9 DUP3 PUSH2 0x591 JUMP JUMPDEST SWAP8 POP PUSH2 0x5F5 DUP4 PUSH2 0x5A8 JUMP JUMPDEST SWAP3 POP POP PUSH1 0x1 DUP2 ADD SWAP1 POP PUSH2 0x5D6 JUMP JUMPDEST POP DUP6 SWAP4 POP POP POP POP SWAP3 SWAP2 POP POP JUMP JUMPDEST PUSH0 PUSH1 0x20 DUP3 ADD SWAP1 POP DUP2 DUP2 SUB PUSH0 DUP4 ADD MSTORE PUSH2 0x628 DUP2 DUP5 PUSH2 0x5B4 JUMP JUMPDEST SWAP1 POP SWAP3 SWAP2 POP POP JUMP JUMPDEST PUSH2 0x639 DUP2 PUSH2 0x50A JUMP JUMPDEST DUP3 MSTORE POP POP JUMP JUMPDEST PUSH0 PUSH1 0x40 DUP3 ADD SWAP1 POP PUSH2 0x652 PUSH0 DUP4 ADD DUP6 PUSH2 0x630 JUMP JUMPDEST PUSH2 0x65F PUSH1 0x20 DUP4 ADD DUP5 PUSH2 0x630 JUMP JUMPDEST SWAP4 SWAP3 POP POP POP JUMP JUMPDEST PUSH0 PUSH1 0x40 MLOAD SWAP1 POP SWAP1 JUMP JUMPDEST PUSH0 DUP1 REVERT JUMPDEST PUSH2 0x67C DUP2 PUSH2 0x50A JUMP JUMPDEST DUP2 EQ PUSH2 0x686 JUMPI PUSH0 DUP1 REVERT JUMPDEST POP JUMP JUMPDEST PUSH0 DUP2 CALLDATALOAD SWAP1 POP PUSH2 0x697 DUP2 PUSH2 0x673 JUMP JUMPDEST SWAP3 SWAP2 POP POP JUMP JUMPDEST PUSH0 PUSH1 0x20 DUP3 DUP5 SUB SLT ISZERO PUSH2 0x6B2 JUMPI PUSH2 0x6B1 PUSH2 0x66F JUMP JUMPDEST JUMPDEST PUSH0 PUSH2 0x6BF DUP5 DUP3 DUP6 ADD PUSH2 0x689 JUMP JUMPDEST SWAP2 POP POP SWAP3 SWAP2 POP POP JUMP JUMPDEST PUSH0 PUSH1 0x20 DUP3 ADD SWAP1 POP PUSH2 0x6DB PUSH0 DUP4 ADD DUP5 PUSH2 0x630 JUMP JUMPDEST SWAP3 SWAP2 POP POP JUMP JUMPDEST PUSH0 DUP1 REVERT JUMPDEST PUSH0 PUSH1 0x1F NOT PUSH1 0x1F DUP4 ADD AND SWAP1 POP SWAP2 SWAP1 POP JUMP JUMPDEST PUSH32 0x4E487B7100000000000000000000000000000000000000000000000000000000 PUSH0 MSTORE PUSH1 0x41 PUSH1 0x4 MSTORE PUSH1 0x24 PUSH0 REVERT JUMPDEST PUSH2 0x72B DUP3 PUSH2 0x6E5 JUMP JUMPDEST DUP2 ADD DUP2 DUP2 LT PUSH8 0xFFFFFFFFFFFFFFFF DUP3 GT OR ISZERO PUSH2 0x74A JUMPI PUSH2 0x749 PUSH2 0x6F5 JUMP JUMPDEST JUMPDEST DUP1 PUSH1 0x40 MSTORE POP POP POP JUMP JUMPDEST PUSH0 PUSH2 0x75C PUSH2 0x666 JUMP JUMPDEST SWAP1 POP PUSH2 0x768 DUP3 DUP3 PUSH2 0x722 JUMP JUMPDEST SWAP2 SWAP1 POP JUMP JUMPDEST PUSH0 PUSH8 0xFFFFFFFFFFFFFFFF DUP3 GT ISZERO PUSH2 0x787 JUMPI PUSH2 0x786 PUSH2 0x6F5 JUMP JUMPDEST JUMPDEST PUSH1 0x20 DUP3 MUL SWAP1 POP SWAP2 SWAP1 POP JUMP JUMPDEST PUSH0 DUP1 REVERT JUMPDEST PUSH0 PUSH2 0x7A8 PUSH2 0x7A3 DUP5 PUSH2 0x76D JUMP JUMPDEST PUSH2 0x753 JUMP JUMPDEST SWAP1 POP DUP1 PUSH1 0x20 DUP5 MUL DUP4 ADD DUP6 DUP2 GT ISZERO PUSH2 0x7C2 JUMPI PUSH2 0x7C1 PUSH2 0x792 JUMP JUMPDEST JUMPDEST DUP4 JUMPDEST DUP2 DUP2 LT ISZERO PUSH2 0x7EB JUMPI DUP1 PUSH2 0x7D7 DUP9 DUP3 PUSH2 0x689 JUMP JUMPDEST DUP5 MSTORE PUSH1 0x20 DUP5 ADD SWAP4 POP POP PUSH1 0x20 DUP2 ADD SWAP1 POP PUSH2 0x7C4 JUMP JUMPDEST POP POP POP SWAP4 SWAP3 POP POP POP JUMP JUMPDEST PUSH0 DUP3 PUSH1 0x1F DUP4 ADD SLT PUSH2 0x809 JUMPI PUSH2 0x808 PUSH2 0x6E1 JUMP JUMPDEST JUMPDEST PUSH1 0x3 PUSH2 0x816 DUP5 DUP3 DUP6 PUSH2 0x796 JUMP JUMPDEST SWAP2 POP POP SWAP3 SWAP2 POP POP JUMP JUMPDEST PUSH0 PUSH1 0x60 DUP3 DUP5 SUB SLT ISZERO PUSH2 0x834 JUMPI PUSH2 0x833 PUSH2 0x66F JUMP JUMPDEST JUMPDEST PUSH0 PUSH2 0x841 DUP5 DUP3 DUP6 ADD PUSH2 0x7F5 JUMP JUMPDEST SWAP2 POP POP SWAP3 SWAP2 POP POP JUMP JUMPDEST PUSH32 0x4E487B7100000000000000000000000000000000000000000000000000000000 PUSH0 MSTORE PUSH1 0x32 PUSH1 0x4 MSTORE PUSH1 0x24 PUSH0 REVERT JUMPDEST PUSH32 0x4E487B7100000000000000000000000000000000000000000000000000000000 PUSH0 MSTORE PUSH1 0x31 PUSH1 0x4 MSTORE PUSH1 0x24 PUSH0 REVERT INVALID LOG2 PUSH5 0x6970667358 0x22 SLT KECCAK256 SWAP8 PUSH18 0x20C98DD49E2C8EB36BC2492883BFE9CC2F20 PUSH2 0x43AC 0xD1 DUP10 0xBE CALLDATACOPY 0xE6 0xE6 0xB9 0xD4 0xF8 PUSH5 0x736F6C6343 STOP ADDMOD NOT STOP CALLER "
		},
		"gasEstimates": {
			"creation": {
				"codeDepositCost": "453200",
				"executionCost": "infinite",
				"totalCost": "infinite"
			},
			"external": {
				"array4(uint256)": "infinite",
				"createArray1()": "infinite",
				"createArray2()": "infinite",
				"f()": "327",
				"g(uint256[3])": "infinite",
				"getArray4()": "infinite",
				"setStudent1()": "infinite",
				"setStudent2()": "infinite",
				"student()": "infinite"
			}
		},
		"methodIdentifiers": {
			"array4(uint256)": "cbdef3f9",
			"createArray1()": "358a17aa",
			"createArray2()": "fd0e51cc",
			"f()": "26121ff0",
			"g(uint256[3])": "d14d385d",
			"getArray4()": "4301a557",
			"setStudent1()": "d612c36e",
			"setStudent2()": "0a412eb8",
			"student()": "699450e8"
		}
	},
	"abi": [
		{
			"inputs": [
				{
					"internalType": "uint256",
					"name": "",
					"type": "uint256"
				}
			],
			"name": "array4",
			"outputs": [
				{
					"internalType": "uint256",
					"name": "",
					"type": "uint256"
				}
			],
			"stateMutability": "view",
			"type": "function"
		},
		{
			"inputs": [],
			"name": "createArray1",
			"outputs": [
				{
					"internalType": "uint256[]",
					"name": "",
					"type": "uint256[]"
				}
			],
			"stateMutability": "pure",
			"type": "function"
		},
		{
			"inputs": [],
			"name": "createArray2",
			"outputs": [
				{
					"internalType": "uint256[]",
					"name": "",
					"type": "uint256[]"
				}
			],
			"stateMutability": "nonpayable",
			"type": "function"
		},
		{
			"inputs": [],
			"name": "f",
			"outputs": [],
			"stateMutability": "pure",
			"type": "function"
		},
		{
			"inputs": [
				{
					"internalType": "uint256[3]",
					"name": "_array",
					"type": "uint256[3]"
				}
			],
			"name": "g",
			"outputs": [
				{
					"internalType": "uint256",
					"name": "",
					"type": "uint256"
				}
			],
			"stateMutability": "pure",
			"type": "function"
		},
		{
			"inputs": [],
			"name": "getArray4",
			"outputs": [
				{
					"internalType": "uint256[]",
					"name": "",
					"type": "uint256[]"
				}
			],
			"stateMutability": "view",
			"type": "function"
		},
		{
			"inputs": [],
			"name": "setStudent1",
			"outputs": [
				{
					"components": [
						{
							"internalType": "uint256",
							"name": "id",
							"type": "uint256"
						},
						{
							"internalType": "uint256",
							"name": "score",
							"type": "uint256"
						}
					],
					"internalType": "struct ArrayAndStruct.Student",
					"name": "",
					"type": "tuple"
				}
			],
			"stateMutability": "nonpayable",
			"type": "function"
		},
		{
			"inputs": [],
			"name": "setStudent2",
			"outputs": [
				{
					"components": [
						{
							"internalType": "uint256",
							"name": "id",
							"type": "uint256"
						},
						{
							"internalType": "uint256",
							"name": "score",
							"type": "uint256"
						}
					],
					"internalType": "struct ArrayAndStruct.Student",
					"name": "",
					"type": "tuple"
				}
			],
			"stateMutability": "nonpayable",
			"type": "function"
		},
		{
			"inputs": [],
			"name": "student",
			"outputs": [
				{
					"internalType": "uint256",
					"name": "id",
					"type": "uint256"
				},
				{
					"internalType": "uint256",
					"name": "score",
					"type": "uint256"
				}
			],
			"stateMutability": "view",
			"type": "function"
		}
	]
}