{
	"data": {
		"bytecode": {
			"linkReferences": {},
			"object": "6080604052348015600f57600080fd5b506105ed8061001f6000396000f3fe608060405234801561001057600080fd5b506004361061004c5760003560e01c8063046dab161461005157806359ebea231461006f5780636a6278421461008e578063ad2d0469146100aa575b600080fd5b6100596100c8565b60405161006691906102ed565b60405180910390f35b6100776100f0565b6040516100859291906103b3565b60405180910390f35b6100a860048036038101906100a39190610446565b61024b565b005b6100b261028a565b6040516100bf91906102ed565b60405180910390f35b60007f6a627842f752de95745ef8f3ca67858982b5f585d752f8163e5855050041cb3c905090565b600060606000803073ffffffffffffffffffffffffffffffffffffffff163073ffffffffffffffffffffffffffffffffffffffff1663046dab166040518163ffffffff1660e01b8152600401602060405180830381865afa158015610159573d6000803e3d6000fd5b505050506040513d601f19601f8201168201806040525081019061017d919061049f565b3060405160240161018e91906104db565b604051602081830303815290604052907bffffffffffffffffffffffffffffffffffffffffffffffffffffffff19166020820180517bffffffffffffffffffffffffffffffffffffffffffffffffffffffff83818316178352505050506040516101f89190610532565b6000604051808303816000865af19150503d8060008114610235576040519150601f19603f3d011682016040523d82523d6000602084013e61023a565b606091505b509150915081819350935050509091565b7f45b04cb306bdada5c4ef0c1ca776f1a329734bdc76af7d6b711f10ebeabcb4c56000368360405161027f93929190610585565b60405180910390a150565b60007fa9059cbb2ab09eb219583f4a59a5d0623ade346d962bcd4e46b11da047c9049b905090565b60007fffffffff0000000000000000000000000000000000000000000000000000000082169050919050565b6102e7816102b2565b82525050565b600060208201905061030260008301846102de565b92915050565b60008115159050919050565b61031d81610308565b82525050565b600081519050919050565b600082825260208201905092915050565b60005b8381101561035d578082015181840152602081019050610342565b60008484015250505050565b6000601f19601f8301169050919050565b600061038582610323565b61038f818561032e565b935061039f81856020860161033f565b6103a881610369565b840191505092915050565b60006040820190506103c86000830185610314565b81810360208301526103da818461037a565b90509392505050565b600080fd5b600073ffffffffffffffffffffffffffffffffffffffff82169050919050565b6000610413826103e8565b9050919050565b61042381610408565b811461042e57600080fd5b50565b6000813590506104408161041a565b92915050565b60006020828403121561045c5761045b6103e3565b5b600061046a84828501610431565b91505092915050565b61047c816102b2565b811461048757600080fd5b50565b60008151905061049981610473565b92915050565b6000602082840312156104b5576104b46103e3565b5b60006104c38482850161048a565b91505092915050565b6104d581610408565b82525050565b60006020820190506104f060008301846104cc565b92915050565b600081905092915050565b600061050c82610323565b61051681856104f6565b935061052681856020860161033f565b80840191505092915050565b600061053e8284610501565b915081905092915050565b82818337600083830152505050565b6000610564838561032e565b9350610571838584610549565b61057a83610369565b840190509392505050565b600060408201905081810360008301526105a0818587610558565b90506105af60208301846104cc565b94935050505056fea2646970667358221220b19fc7ca511f05430abc84521c3840746a98a9fbfb88575aac405acc4b95e5e064736f6c63430008190033",
			"opcodes": "PUSH1 0x80 PUSH1 0x40 MSTORE CALLVALUE DUP1 ISZERO PUSH1 0xF JUMPI PUSH1 0x0 DUP1 REVERT JUMPDEST POP PUSH2 0x5ED DUP1 PUSH2 0x1F PUSH1 0x0 CODECOPY PUSH1 0x0 RETURN INVALID PUSH1 0x80 PUSH1 0x40 MSTORE CALLVALUE DUP1 ISZERO PUSH2 0x10 JUMPI PUSH1 0x0 DUP1 REVERT JUMPDEST POP PUSH1 0x4 CALLDATASIZE LT PUSH2 0x4C JUMPI PUSH1 0x0 CALLDATALOAD PUSH1 0xE0 SHR DUP1 PUSH4 0x46DAB16 EQ PUSH2 0x51 JUMPI DUP1 PUSH4 0x59EBEA23 EQ PUSH2 0x6F JUMPI DUP1 PUSH4 0x6A627842 EQ PUSH2 0x8E JUMPI DUP1 PUSH4 0xAD2D0469 EQ PUSH2 0xAA JUMPI JUMPDEST PUSH1 0x0 DUP1 REVERT JUMPDEST PUSH2 0x59 PUSH2 0xC8 JUMP JUMPDEST PUSH1 0x40 MLOAD PUSH2 0x66 SWAP2 SWAP1 PUSH2 0x2ED JUMP JUMPDEST PUSH1 0x40 MLOAD DUP1 SWAP2 SUB SWAP1 RETURN JUMPDEST PUSH2 0x77 PUSH2 0xF0 JUMP JUMPDEST PUSH1 0x40 MLOAD PUSH2 0x85 SWAP3 SWAP2 SWAP1 PUSH2 0x3B3 JUMP JUMPDEST PUSH1 0x40 MLOAD DUP1 SWAP2 SUB SWAP1 RETURN JUMPDEST PUSH2 0xA8 PUSH1 0x4 DUP1 CALLDATASIZE SUB DUP2 ADD SWAP1 PUSH2 0xA3 SWAP2 SWAP1 PUSH2 0x446 JUMP JUMPDEST PUSH2 0x24B JUMP JUMPDEST STOP JUMPDEST PUSH2 0xB2 PUSH2 0x28A JUMP JUMPDEST PUSH1 0x40 MLOAD PUSH2 0xBF SWAP2 SWAP1 PUSH2 0x2ED JUMP JUMPDEST PUSH1 0x40 MLOAD DUP1 SWAP2 SUB SWAP1 RETURN JUMPDEST PUSH1 0x0 PUSH32 0x6A627842F752DE95745EF8F3CA67858982B5F585D752F8163E5855050041CB3C SWAP1 POP SWAP1 JUMP JUMPDEST PUSH1 0x0 PUSH1 0x60 PUSH1 0x0 DUP1 ADDRESS PUSH20 0xFFFFFFFFFFFFFFFFFFFFFFFFFFFFFFFFFFFFFFFF AND ADDRESS PUSH20 0xFFFFFFFFFFFFFFFFFFFFFFFFFFFFFFFFFFFFFFFF AND PUSH4 0x46DAB16 PUSH1 0x40 MLOAD DUP2 PUSH4 0xFFFFFFFF AND PUSH1 0xE0 SHL DUP2 MSTORE PUSH1 0x4 ADD PUSH1 0x20 PUSH1 0x40 MLOAD DUP1 DUP4 SUB DUP2 DUP7 GAS STATICCALL ISZERO DUP1 ISZERO PUSH2 0x159 JUMPI RETURNDATASIZE PUSH1 0x0 DUP1 RETURNDATACOPY RETURNDATASIZE PUSH1 0x0 REVERT JUMPDEST POP POP POP POP PUSH1 0x40 MLOAD RETURNDATASIZE PUSH1 0x1F NOT PUSH1 0x1F DUP3 ADD AND DUP3 ADD DUP1 PUSH1 0x40 MSTORE POP DUP2 ADD SWAP1 PUSH2 0x17D SWAP2 SWAP1 PUSH2 0x49F JUMP JUMPDEST ADDRESS PUSH1 0x40 MLOAD PUSH1 0x24 ADD PUSH2 0x18E SWAP2 SWAP1 PUSH2 0x4DB JUMP JUMPDEST PUSH1 0x40 MLOAD PUSH1 0x20 DUP2 DUP4 SUB SUB DUP2 MSTORE SWAP1 PUSH1 0x40 MSTORE SWAP1 PUSH28 0xFFFFFFFFFFFFFFFFFFFFFFFFFFFFFFFFFFFFFFFFFFFFFFFFFFFFFFFF NOT AND PUSH1 0x20 DUP3 ADD DUP1 MLOAD PUSH28 0xFFFFFFFFFFFFFFFFFFFFFFFFFFFFFFFFFFFFFFFFFFFFFFFFFFFFFFFF DUP4 DUP2 DUP4 AND OR DUP4 MSTORE POP POP POP POP PUSH1 0x40 MLOAD PUSH2 0x1F8 SWAP2 SWAP1 PUSH2 0x532 JUMP JUMPDEST PUSH1 0x0 PUSH1 0x40 MLOAD DUP1 DUP4 SUB DUP2 PUSH1 0x0 DUP7 GAS CALL SWAP2 POP POP RETURNDATASIZE DUP1 PUSH1 0x0 DUP2 EQ PUSH2 0x235 JUMPI PUSH1 0x40 MLOAD SWAP2 POP PUSH1 0x1F NOT PUSH1 0x3F RETURNDATASIZE ADD AND DUP3 ADD PUSH1 0x40 MSTORE RETURNDATASIZE DUP3 MSTORE RETURNDATASIZE PUSH1 0x0 PUSH1 0x20 DUP5 ADD RETURNDATACOPY PUSH2 0x23A JUMP JUMPDEST PUSH1 0x60 SWAP2 POP JUMPDEST POP SWAP2 POP SWAP2 POP DUP2 DUP2 SWAP4 POP SWAP4 POP POP POP SWAP1 SWAP2 JUMP JUMPDEST PUSH32 0x45B04CB306BDADA5C4EF0C1CA776F1A329734BDC76AF7D6B711F10EBEABCB4C5 PUSH1 0x0 CALLDATASIZE DUP4 PUSH1 0x40 MLOAD PUSH2 0x27F SWAP4 SWAP3 SWAP2 SWAP1 PUSH2 0x585 JUMP JUMPDEST PUSH1 0x40 MLOAD DUP1 SWAP2 SUB SWAP1 LOG1 POP JUMP JUMPDEST PUSH1 0x0 PUSH32 0xA9059CBB2AB09EB219583F4A59A5D0623ADE346D962BCD4E46B11DA047C9049B SWAP1 POP SWAP1 JUMP JUMPDEST PUSH1 0x0 PUSH32 0xFFFFFFFF00000000000000000000000000000000000000000000000000000000 DUP3 AND SWAP1 POP SWAP2 SWAP1 POP JUMP JUMPDEST PUSH2 0x2E7 DUP2 PUSH2 0x2B2 JUMP JUMPDEST DUP3 MSTORE POP POP JUMP JUMPDEST PUSH1 0x0 PUSH1 0x20 DUP3 ADD SWAP1 POP PUSH2 0x302 PUSH1 0x0 DUP4 ADD DUP5 PUSH2 0x2DE JUMP JUMPDEST SWAP3 SWAP2 POP POP JUMP JUMPDEST PUSH1 0x0 DUP2 ISZERO ISZERO SWAP1 POP SWAP2 SWAP1 POP JUMP JUMPDEST PUSH2 0x31D DUP2 PUSH2 0x308 JUMP JUMPDEST DUP3 MSTORE POP POP JUMP JUMPDEST PUSH1 0x0 DUP2 MLOAD SWAP1 POP SWAP2 SWAP1 POP JUMP JUMPDEST PUSH1 0x0 DUP3 DUP3 MSTORE PUSH1 0x20 DUP3 ADD SWAP1 POP SWAP3 SWAP2 POP POP JUMP JUMPDEST PUSH1 0x0 JUMPDEST DUP4 DUP2 LT ISZERO PUSH2 0x35D JUMPI DUP1 DUP3 ADD MLOAD DUP2 DUP5 ADD MSTORE PUSH1 0x20 DUP2 ADD SWAP1 POP PUSH2 0x342 JUMP JUMPDEST PUSH1 0x0 DUP5 DUP5 ADD MSTORE POP POP POP POP JUMP JUMPDEST PUSH1 0x0 PUSH1 0x1F NOT PUSH1 0x1F DUP4 ADD AND SWAP1 POP SWAP2 SWAP1 POP JUMP JUMPDEST PUSH1 0x0 PUSH2 0x385 DUP3 PUSH2 0x323 JUMP JUMPDEST PUSH2 0x38F DUP2 DUP6 PUSH2 0x32E JUMP JUMPDEST SWAP4 POP PUSH2 0x39F DUP2 DUP6 PUSH1 0x20 DUP7 ADD PUSH2 0x33F JUMP JUMPDEST PUSH2 0x3A8 DUP2 PUSH2 0x369 JUMP JUMPDEST DUP5 ADD SWAP2 POP POP SWAP3 SWAP2 POP POP JUMP JUMPDEST PUSH1 0x0 PUSH1 0x40 DUP3 ADD SWAP1 POP PUSH2 0x3C8 PUSH1 0x0 DUP4 ADD DUP6 PUSH2 0x314 JUMP JUMPDEST DUP2 DUP2 SUB PUSH1 0x20 DUP4 ADD MSTORE PUSH2 0x3DA DUP2 DUP5 PUSH2 0x37A JUMP JUMPDEST SWAP1 POP SWAP4 SWAP3 POP POP POP JUMP JUMPDEST PUSH1 0x0 DUP1 REVERT JUMPDEST PUSH1 0x0 PUSH20 0xFFFFFFFFFFFFFFFFFFFFFFFFFFFFFFFFFFFFFFFF DUP3 AND SWAP1 POP SWAP2 SWAP1 POP JUMP JUMPDEST PUSH1 0x0 PUSH2 0x413 DUP3 PUSH2 0x3E8 JUMP JUMPDEST SWAP1 POP SWAP2 SWAP1 POP JUMP JUMPDEST PUSH2 0x423 DUP2 PUSH2 0x408 JUMP JUMPDEST DUP2 EQ PUSH2 0x42E JUMPI PUSH1 0x0 DUP1 REVERT JUMPDEST POP JUMP JUMPDEST PUSH1 0x0 DUP2 CALLDATALOAD SWAP1 POP PUSH2 0x440 DUP2 PUSH2 0x41A JUMP JUMPDEST SWAP3 SWAP2 POP POP JUMP JUMPDEST PUSH1 0x0 PUSH1 0x20 DUP3 DUP5 SUB SLT ISZERO PUSH2 0x45C JUMPI PUSH2 0x45B PUSH2 0x3E3 JUMP JUMPDEST JUMPDEST PUSH1 0x0 PUSH2 0x46A DUP5 DUP3 DUP6 ADD PUSH2 0x431 JUMP JUMPDEST SWAP2 POP POP SWAP3 SWAP2 POP POP JUMP JUMPDEST PUSH2 0x47C DUP2 PUSH2 0x2B2 JUMP JUMPDEST DUP2 EQ PUSH2 0x487 JUMPI PUSH1 0x0 DUP1 REVERT JUMPDEST POP JUMP JUMPDEST PUSH1 0x0 DUP2 MLOAD SWAP1 POP PUSH2 0x499 DUP2 PUSH2 0x473 JUMP JUMPDEST SWAP3 SWAP2 POP POP JUMP JUMPDEST PUSH1 0x0 PUSH1 0x20 DUP3 DUP5 SUB SLT ISZERO PUSH2 0x4B5 JUMPI PUSH2 0x4B4 PUSH2 0x3E3 JUMP JUMPDEST JUMPDEST PUSH1 0x0 PUSH2 0x4C3 DUP5 DUP3 DUP6 ADD PUSH2 0x48A JUMP JUMPDEST SWAP2 POP POP SWAP3 SWAP2 POP POP JUMP JUMPDEST PUSH2 0x4D5 DUP2 PUSH2 0x408 JUMP JUMPDEST DUP3 MSTORE POP POP JUMP JUMPDEST PUSH1 0x0 PUSH1 0x20 DUP3 ADD SWAP1 POP PUSH2 0x4F0 PUSH1 0x0 DUP4 ADD DUP5 PUSH2 0x4CC JUMP JUMPDEST SWAP3 SWAP2 POP POP JUMP JUMPDEST PUSH1 0x0 DUP2 SWAP1 POP SWAP3 SWAP2 POP POP JUMP JUMPDEST PUSH1 0x0 PUSH2 0x50C DUP3 PUSH2 0x323 JUMP JUMPDEST PUSH2 0x516 DUP2 DUP6 PUSH2 0x4F6 JUMP JUMPDEST SWAP4 POP PUSH2 0x526 DUP2 DUP6 PUSH1 0x20 DUP7 ADD PUSH2 0x33F JUMP JUMPDEST DUP1 DUP5 ADD SWAP2 POP POP SWAP3 SWAP2 POP POP JUMP JUMPDEST PUSH1 0x0 PUSH2 0x53E DUP3 DUP5 PUSH2 0x501 JUMP JUMPDEST SWAP2 POP DUP2 SWAP1 POP SWAP3 SWAP2 POP POP JUMP JUMPDEST DUP3 DUP2 DUP4 CALLDATACOPY PUSH1 0x0 DUP4 DUP4 ADD MSTORE POP POP POP JUMP JUMPDEST PUSH1 0x0 PUSH2 0x564 DUP4 DUP6 PUSH2 0x32E JUMP JUMPDEST SWAP4 POP PUSH2 0x571 DUP4 DUP6 DUP5 PUSH2 0x549 JUMP JUMPDEST PUSH2 0x57A DUP4 PUSH2 0x369 JUMP JUMPDEST DUP5 ADD SWAP1 POP SWAP4 SWAP3 POP POP POP JUMP JUMPDEST PUSH1 0x0 PUSH1 0x40 DUP3 ADD SWAP1 POP DUP2 DUP2 SUB PUSH1 0x0 DUP4 ADD MSTORE PUSH2 0x5A0 DUP2 DUP6 DUP8 PUSH2 0x558 JUMP JUMPDEST SWAP1 POP PUSH2 0x5AF PUSH1 0x20 DUP4 ADD DUP5 PUSH2 0x4CC JUMP JUMPDEST SWAP5 SWAP4 POP POP POP POP JUMP INVALID LOG2 PUSH5 0x6970667358 0x22 SLT KECCAK256 0xB1 SWAP16 0xC7 0xCA MLOAD 0x1F SDIV NUMBER EXP 0xBC DUP5 MSTORE SHR CODESIZE BLOCKHASH PUSH21 0x6A98A9FBFB88575AAC405ACC4B95E5E064736F6C63 NUMBER STOP ADDMOD NOT STOP CALLER "
		},
		"gasEstimates": {
			"creation": {
				"codeDepositCost": "303400",
				"executionCost": "343",
				"totalCost": "303743"
			},
			"external": {
				"callWithSignature()": "infinite",
				"mint(address)": "infinite",
				"mintSelector()": "321",
				"mintTransfer()": "387"
			}
		},
		"methodIdentifiers": {
			"callWithSignature()": "59ebea23",
			"mint(address)": "6a627842",
			"mintSelector()": "046dab16",
			"mintTransfer()": "ad2d0469"
		}
	},
	"abi": [
		{
			"anonymous": false,
			"inputs": [
				{
					"indexed": false,
					"internalType": "bytes",
					"name": "data",
					"type": "bytes"
				},
				{
					"indexed": false,
					"internalType": "address",
					"name": "to",
					"type": "address"
				}
			],
			"name": "Log",
			"type": "event"
		},
		{
			"inputs": [],
			"name": "callWithSignature",
			"outputs": [
				{
					"internalType": "bool",
					"name": "",
					"type": "bool"
				},
				{
					"internalType": "bytes",
					"name": "",
					"type": "bytes"
				}
			],
			"stateMutability": "nonpayable",
			"type": "function"
		},
		{
			"inputs": [
				{
					"internalType": "address",
					"name": "to",
					"type": "address"
				}
			],
			"name": "mint",
			"outputs": [],
			"stateMutability": "nonpayable",
			"type": "function"
		},
		{
			"inputs": [],
			"name": "mintSelector",
			"outputs": [
				{
					"internalType": "bytes4",
					"name": "",
					"type": "bytes4"
				}
			],
			"stateMutability": "pure",
			"type": "function"
		},
		{
			"inputs": [],
			"name": "mintTransfer",
			"outputs": [
				{
					"internalType": "bytes4",
					"name": "",
					"type": "bytes4"
				}
			],
			"stateMutability": "pure",
			"type": "function"
		}
	]
}